:042800006F70C00530
:102804000028000000000000DE3B0000E23B000066
:10281400000000005A9800000000000000000000C2
:102824005A9800005A9800000000000000000000C0
:102834005A980000000000005A98000000000000B0
:102844005A9800005A9800005A9800005A980000BC
:102854005A9800005A9800005A9800005A980000AC
:102864005A9800005A9800005A9800005A9800009C
:102874005A9800005A9800005A9800005A9800008C
:102884005A9800005A9800005A9800005A9800007C
:10289400BE7700005A9800005A9800005A98000029
:1028A4005A9800005A9800005A9800005A9800005C
:1028B4005A9800005A980000407400005A9800008A
:1028C4005A9800005A9800005A9800005A9800003C
:1028D4005A980000746C00005A9800005A9800003E
:1028E4005A9800005A980000B27700005A980000E5
:0C28F4005A9800005A9800005A98000002
:10290000397101436EC619A0397141536AC866CA4C
:1029100062CC5ECE19A0397101535AD056D252D42E
:102920004ED64AD826DA22DC06DE330161408282A6
:1029300041114AC026C222C406C68282B24D41015C
:10294000024D924C224CB24B4101024B924A224A18
:10295000B2494101024992442244B240410182807D
:102960003D432A876373C3029377F700BDEFADE55C
:10297000937606FF3D8ABA960CC34CC30CC74CC76E
:102980004107E36BD7FE11E28280B306C3408A069B
:102990009702000096966780A6002307B700A3065B
:1029A000B7002306B700A305B7002305B700A304AB
:1029B000B7002304B700A303B7002303B700A302A3
:1029C000B7002302B700A301B7002301B700A3009B
:1029D000B7002300B700828093F5F50F939685002A
:1029E000D58D93960501D58D61B7939627009702F3
:1029F000000096968682E78086FA9680C1171D8F22
:102A00003E96E374C3F8A5B7B7F700E0CC43814620
:102A100037F700E0F999CCC383C5A1853386A502B9
:102A200090CBD4CB944393E6060194C3944393E6AE
:102A3000160294C35C43858BF5DF1C43F99B1CC3D2
:102A40008280B7F700E0CC43814637F700E0F99980
:102A5000CCC383D581853386A50290CBD4CB944358
:102A600093E6060194C3944393E6160294C35C4331
:102A7000858BF5DF1C43F99B1CC382809C4103A816
:102A80008501D04DD4415841B3E70701D18F3706B6
:102A9000F1E0A2061306F6EF718FD58FD98F5CC1D6
:102AA000D0459C4994451845D18F37F6F1FF8606ED
:102AB0001306D67F718FD58FD98F1CC583C745016B
:102AC0005855B70610FFFD1793F7F70FFD16758FD2
:102AD000D207D98F5CD582801C4589C593E7170042
:102AE0001CC58280F99B1CC582801C4589C593E763
:102AF00007101CC5828093F7F7EF1CC582801C4528
:102B000093E787001CC5828008450D810589828076
:102B10001C4593E747001CC582800845098105894B
:102B200082801C4591C537075000D98F1CC5828013
:102B30003707B0FF7D17F98F1CC58280A54763F763
:102B4000B704138865FF131718008328C500429740
:102B50009D47B397E70093C7F7FFB3F71701B39605
:102B6000E600DD8E54C5994763E5C7047D169317CB
:102B700026003E965859FD47B397C70093C7F7FF05
:102B8000F98F3396C5005D8E50D98280139715005A
:102B9000032805012E979D47B397E70093C7F7FFDA
:102BA000B3F70701B396E600DD8E14C99947E3FF3A
:102BB000C7FAB14763E3C702130796FF131627004E
:102BC00014593A96FD47B397C70093C7F7FFF58F9F
:102BD0003396C5005D8E10D982804D1613172600DE
:102BE00054553A96FD47B397C70093C7F7FFF58F43
:102BF000B395C500DD8D4CD582805C4191C537070A
:102C00000004D98F5CC18280370700FC7D17F98FE3
:102C10005CC18280011123030100834761002547C5
:102C20006364F70425461C4593E787001CC51C45D3
:102C3000A18BF5FF1C4593E747001CC51C45918BF4
:102C4000F5FF744583476100034761000C10860758
:102C500005071377F70F2303E10003476100AE97E1
:102C60002396D7FEE371E6FC23030100834761004E
:102C700025476361F70A2146A545A3030100834761
:102C80007100636EF60603477100834771001410EC
:102C90000607850786073697B6970357C7FE83D77B
:102CA000C7FE63F3E7048347710008108607B697F1
:102CB00083D7C7FE2314F1000347710083467100D8
:102CC00083477100050706072A970358C7FE035577
:102CD0008100139716008507141036978607231670
:102CE00007FFB6972396A7FE83477100850793F7E2
:102CF000F70FA303F10083477100E376F6F88347EB
:102D00006100850793F7F70F2303F1008347610004
:102D1000E3F5F5F623140100231501002303010058
:102D20008347610015476366F70683476100141007
:102D30001307006089078607B69783D7C7FE636AC3
:102D4000F70495461306006019A883476100181020
:102D500089078607BA9783D7C7FE636CF602834755
:102D600061000C100357810089078607AE9783D74F
:102D7000C7FEBA97C207C1832314F10083476100DD
:102D8000850793F7F70F2303F10083476100E3FE04
:102D9000F6FA8347610093F7F70F6387071003572D
:102DA00081008345610083578100034661008346AB
:102DB00061003347B702B3E7C7028607B3C7D7023C
:102DC000BA97C207C1832314F100034761009947F2
:102DD000998F93F7F70FA303F1008347710093F7DF
:102DE000F70FE5C7834761001547636DF702954606
:102DF0008347610010100357A10089078607B29727
:102E000083D7C7FEBA97C207C1832315F100834752
:102E10006100850793F7F70F2303F10083476100F3
:102E2000E3F8F6FC0357A100834571008357A10026
:102E300003467100834671003347B702B3E7C70208
:102E40008607B3C7D702BA97C207C1832315F1001B
:102E5000035581008355A100835781000356A100CB
:102E600085661307004093860680B307F7403386D4
:102E7000C640098F8D8EC20742064186C187420730
:102E8000C206B297C1864187369713D6F70193568B
:102E9000F701B2973697858B0587918FBA9713956F
:102EA0000701418505618280930700402314F100EA
:102EB000034761009947998F93F7F70FA303F10038
:102EC0008347710093F7F70F91FF8567938707801A
:102ED0002315F100B5BF1C4141677917F98F1CC15B
:102EE000232005002322050023240500B707024004
:102EF00023260500138787006304E5041387C701B1
:102F0000630BE502138707036307E5041387470490
:102F1000630AE504138787056309E5021387C7067B
:102F20006307E504138707086309E5041387470966
:102F30006308E5008280D8431367070FD8C38280F7
:102F4000D8431367F700D8C38280D843B7060F0071
:102F5000558FD8C38280D8438566938606F0558FF7
:102F6000D8C38280D843BD66558FD8C38280D843EA
:102F7000B706F000558FD8C38280D843B706000F3C
:102F8000558FD8C3828090519C459449D84983A8D5
:102F90008501D18FD58FD04DD451D98FB3E717018B
:102FA000184103A88502D18FD58FE176BD06D045A3
:102FB000758FB3E707019441D98F1CC1DC4150C123
:102FC00014C55CC582801C4189C593E717001CC1EC
:102FD000828041677917F98F1CC182804CC1828041
:102FE000B70702409C437D8D3335A0008280B70730
:102FF0000240C8C3828058410C410328C500B7066F
:103000000140938706403E9713C6F5FF630108040D
:1030100083A80640032885004143B3F8C80023A0D5
:103020001641D443758ED0C31443D58D0CC31841BB
:1030300090479346F7FF758E90C7D047F18ED4C75F
:10304000630B6800C2979443558F98C382801C43DA
:103050007D8E10C382809447D98E94C7D447558FF4
:10306000D8C78280B707014023AAA7408280B7064D
:103070006745B7270240938636123797EFCDD4C302
:103080001307B79AD8C3D4D3D8D382803727024046
:103090001C4BA166D58F1CCB8280B7270240984B72
:1030A000B7060200137505F0558F98CBC8CB944B2B
:1030B0003727024093E6060494CB5C47858BF5FFE7
:1030C0001C4B8176FD16F58F1CCB82803727024082
:1030D0001C4BC166137505F0D58F1CCB5C47858BE7
:1030E000F5FF372702405C47898BF5FFAE86158DCB
:1030F00093850510372702409042B387A6009106BA
:1031000090C35C47898BF5FFE398D5FE1C4B3706CF
:103110002000B7260240D18F1CCBDC46858BF5FF03
:103120009C4A41777D17F98F9CCA828003A885004D
:10313000937708011373F80081C7DC413363F30010
:10314000B7270240985BB707000FF98FE9E785477B
:10315000A38DF184B71701406306F50C83D60500F3
:1031600093F7F60FADE39307F00F63FDD7048328C1
:103170004500A147854EBD4F130F80029302800486
:10318000414E21A08507638DC7033397FE00B375B9
:10319000D700E319B7FE139627000116B395CF00A9
:1031A00093C5F5FFB3F815013316C300B3681601D4
:1031B0006303E809E31858FC18C98507E397C7FDBE
:1031C0002322150182800C418147854EBD4F130F8C
:1031D000800293028004214E21A08507638BC703E0
:1031E0003397FE003376D700E319C7FE1396270006
:1031F000B398CF0093C8F8FFB3F5B8003316C300F7
:10320000D18D6308E803E31A58FC18C98507E399D0
:10321000C7FD0CC189BFB7170140E311F5F483C79F
:10322000B1858DDF83D60500B5822390D500C1FE20
:10323000828058C95DB758C9B1B7B7170140630755
:10324000F50008456D8D3335A000828083C7B185B8
:10325000EDDB0845B5816D8D3335A0008280B71751
:1032600001406304F5000CC9828083C7B185E5DFA6
:10327000B5810CC98280B71701406304F5004CC9C1
:10328000828083C7B185E5DFB5814CC98280EFF2CA
:103290002FEA01112A848354450068002E893D26B7
:1032A000D246B7470F0093870724B3D7F602C2046C
:1032B000C18093F404FCC204C18003260900616547
:1032C0001305056A93950701C181CD8C23129400E3
:1032D0000357040042074183799B4207418323102F
:1032E000E4006365C5060606B3D6C6021147C206EA
:1032F000C182B68763EAE6048505C205C18193965B
:103300000701C1822310B402231ED4000357040016
:10331000835649008355A900136717002310E40062
:10332000835704000357C90003568900C207C183AD
:10333000CD8E93F757BFD58F2310F400518F2314F0
:10334000E40005616FF00FE191477DB78355690097
:1033500031677D176382E5041317160032970E0755
:103360003A96B3D6C6021167C206C182D98E1397A8
:10337000460119E393E616001307C012B387E7026C
:103380002167D98E1307803EB3C7E7028507C207BE
:10339000C1832310F4028DBF131716003A96B3D6DB
:1033A000C602C206C182E1B78357050091C593E703
:1033B00017002310F5008280C207C183F99BC20762
:1033C000C1832310F50082808357050091C593E7E0
:1033D00007102310F5008280C207C18393F7F7EF2F
:1033E000C207C1832310F50082808357050091C571
:1033F00093E707202310F5008280C207C18393F76B
:10340000F7DFC207C1832310F500828083570500D0
:1034100091C593E707402310F5008280C207C1835E
:1034200093F7F7BFC207C1832310F50082802318EA
:10343000B500828093F7E50F19C293E71500C20724
:10344000C1832318F5008280035745018357850106
:1034500013950701598D6D8D220521810D8D133531
:1034600015008280411102C402C693D7C5012AC645
:103470003EC4A247A205A18199CBB247D1073EC65F
:10348000B247884341016D8D3335A0008280B24739
:10349000C181E1073EC6B247884341016D8D333596
:1034A000A00082809387C18598438346050031E35D
:1034B0008347250037E700E09207369793F7F70F29
:1034C0002300F7405041054793D756003317D700E4
:1034D00009CA938707048A07B7E600E0B69798C33E
:1034E0008280938707068A07B7E600E0B69798C3FD
:1034F000828098430546630BC7028C430947638665
:10350000E50498430D466309C70098439147E31BC0
:10351000F7FA8347150079BF034615008347250056
:10352000636CC7040606B297920701A8834725007B
:103530000346150092076307E60237E700E093F7BA
:10354000F70F36972300F740B5BF034715008347B1
:1035500025006378E6021307E7030A07BA9793F793
:10356000F70F920793E707F837E700E093F7F70FB5
:1035700036972300F740B9B71306C6070606B29779
:10358000F9BF0A07BA9792074DBFB7160240DC424F
:1035900071771307F77FF98F0E055D8DC8C28280A2
:1035A000B7170240D843B70640FFFD16758FD8C342
:1035B000D8435A05598DC8C38280B7160240DC42F1
:1035C00051777D17F98F5D8DC8C282803717024011
:1035D0005C439146B18B6385D700A1466386D706CD
:1035E000B7177A00938707201CC13716024058424C
:1035F00097D6FF1F938606A111833D8B369703470D
:103600000700B3D7E7005CC1584221831D8B369772
:103610000347070033D7E70018C558422D831D8B99
:10362000BA9603C7060097D6FF1F9386A6C3B3D7E3
:10363000E7005CC5584239830D8B36970347070076
:10364000B3D7E7021CC982805C4358434166C983F3
:10365000BD8B8907C546718F6380D70419EF374743
:10366000024003270780418B05C337177A001307F1
:103670000720B387E7021CC18DBF371702405843AC
:103680009316E700E3D306FE37173D0013070790B4
:10369000B387E7021CC191BFC94765F3C9B799C594
:1036A000371702405C4B5D8D48CB8280B7170240D4
:1036B000D84B1345F5FF798DC8CB828099C5371754
:1036C00002401C4F5D8D08CF8280B7170240984F93
:1036D0001345F5FF798D88CF828099C53717024051
:1036E0005C4F5D8D48CF8280B7170240D84F13459D
:1036F000F5FF798DC8CF828003D6250083D70500DA
:1037000003D7450083D6650083D88500D18F03D8C1
:10371000A500D98FD58F03D7C500B3E7170103568E
:10372000050083D6E500B3E70701D98F0D671307BE
:103730000704718FD58FD98F2310F5008356C501EB
:10374000FD7703D705019387F77FF58F231EF500DB
:103750002318E50082808357050091C593E707048D
:103760002310F5008280C207C18393F7F7FBC207DD
:10377000C1832310F50082808357450009C6DD8D83
:103780002312B500828093C5F5FFFD8D2312B5008D
:1037900082808357450091C593E747002312F500C7
:1037A0008280C207C183ED9BC207C1832312F5004B
:1037B000828083570500B7360140938606C0C20752
:1037C000C18303D6650083D8450003D8050063068E
:1037D000D504370700406300E50213070740630C78
:1037E000E50037170040930607806306D5001307EE
:1037F00007C06317E50003D7250093F7F7F8D98FC3
:1038000093F7F7CFD18F2310F50023161503231458
:1038100005038547231AF500828003D7250093F717
:10382000F7F85D8F1377F7CF518F2310E50023163C
:1038300015032314050383C785002318F502854764
:10384000231AF50082808357050091C593E717007E
:103850002310F5008280C207C183F99BC207C18390
:103860002310F50082808357C50009C6DD8D23161D
:10387000B500828093C5F5FFFD8D2316B5008280CB
:10388000EFF20F8BCD376FF0EF8C83578500C207B7
:10389000C183E19BC207C1832314F50082802314F6
:1038A000B502231AC500828083570500C207C18371
:1038B00093F7F7F8DD8D2310B500828083578501DB
:1038C000C207C183DD9BDD8D231CB5008280835739
:1038D000C501C207C183DD9BDD8D231EB50082803B
:1038E0000357C501FD779387F77FF98FA205CD8F29
:1038F000C207C183231EF500828083570502C207D9
:10390000C183F59BDD8D2310B502828083570502AC
:10391000A205C207C18393F7F7DFCD8FC207C1832A
:103920002310F502828003570502F977FD17F98FFE
:10393000B205CD8FC207C1832310F50282800357E1
:1039400005028547B397B70093C7F7FFF98F231098
:10395000F50283570502B315B600DD8DC205C1819E
:103960002310B5028280035705028547B397B7003D
:1039700093C7F7FFF98F2310F50293F775FF6105E1
:1039800095C3F115C205C1818581AA959C416577D2
:103990007D17F98F9CC19C412206420641825D8EB3
:1039A00090C182808581AA959C4193F7F7F89CC1CC
:1039B0009C415D8E90C182802316B5028280231ABD
:1039C000B5028280231EB50282802310B504828056
:1039D00083570500C207C18393F7F7CFC207C1839E
:1039E0002310F50083570500DD8D2310B50082807C
:1039F000835705010355C500ED8F4205418189C7F5
:103A00006D8D3335A00082800145828093C5F5FF1E
:103A1000C205C1812318B5008280EFE27FF1835691
:103A2000050103D76500F577FD17F58FD98F03D70B
:103A3000C5002318F5002A840355C500AE84FD7720
:103A400083D5450003D684009387379F83D6A4008F
:103A5000E98FCD8FD18FD58F2316F4008357440182
:103A600001116800C207C18393F7F7CFD98F231ADA
:103A7000F400A93EB747014093870780630DF4081F
:103A800052478356C40093171700BA97C2068E0791
:103A9000C186BA97984063C006040A07B3D7E70205
:103AA000130740060356C40042064186B3D6E70218
:103AB000B3F7E70292066340060492079387270351
:103AC000B3D7E702BD8BD58FC207C1832314F4009F
:103AD00005616FE03FE80607B3D7E702130740062A
:103AE0000356C40042064186B3D6E702B3F7E702A5
:103AF0009206E35406FC8E0793872703B3D7E702A9
:103B000013F77700B367D700C207C1832314F4000B
:103B100005616FE03FE46247ADB781C98357C500D7
:103B20000967D98F2316F50082800357C500F977FE
:103B3000FD17F98F2316F500828093F7F50F0547DF
:103B40009583B315B7006385E702894613074501DE
:103B50006387D7001C4301CADD8D0CC38280130725
:103B600005011C4375FA93C5F5FFFD8D0CC38280DA
:103B70001307C500C5B793F5F51F2312B500828062
:103B8000035545001375F51F8280035505006D8DA3
:103B90003335A000828093F7F50F854695833397E0
:103BA000B600638AD70289466383D70283574501EB
:103BB0007D8F835705000145C207C18301CB0545B1
:103BC000A181B315B500ED8F3335F00082808357A6
:103BD00005017D8FF9BF8357C5007D8FD9BF730065
:103BE000203001A09387418D984395476309F700E2
:103BF00083474500A3040500A302F5008280EFE29D
:103C00003FD32A8403457500EF5010199307000233
:103C10006304F5006FE01FD48345540083474400DC
:103C20006384F50663F4B700930700F883448400C7
:103C30008D8F93F7F70F63E79704834614000346CD
:103C400004000347240083473400A206D18E4207B4
:103C5000558FE207D98F2686BE95138501C7EF5091
:103C6000904883475400268603457400BE9493F41D
:103C7000F407A3029400938501C7EF30305BA304DF
:103C8000040049BFBE8455BF0347940045F359B7AC
:103C90009387418D98439547034645006307F70096
:103CA000A302C500A30405008280834615000348D3
:103CB00005000347250083473500A206B3E6060149
:103CC0004207558FE207D98F130716002302E5003C
:103CD000B2972380B7008347450013978701618718
:103CE0006347070003475500630AF70082800347D4
:103CF0005500230205008147E31AF7FEEFE25FC398
:103D000085472A84A304F5002285E93D8347940072
:103D1000E5FF6FE03FC4EFE21FC0138741A75C4B94
:103D200083448701004B13D78700E204D98C130624
:103D30000004135784008145139487012685598C0C
:103D4000EFE01FC203451400854701562381A400FC
:103D5000034724002382F400834644002380C400E8
:103D6000A380E4002383F400A382D4001306200878
:103D7000638DC61E6373D6161306100F638BC6328F
:103D80006370D60C1306200F638EC6321306300FF5
:103D9000639EC614A383F4002384F400A384040068
:103DA0000D4699473E972A9736970907A381F40055
:103DB0001377F70F81478146A69683C6760085075D
:103DC00093F7F70F36971377F70FBE86E3C6C7FE54
:103DD0009305000E2696A303E600138541A74D3DEB
:103DE00005440549938941A721A8BA85553583C75C
:103DF000340005041374F40F9107228963CE8702FF
:103E00002699034709004E859305000D9307070384
:103E100093F7F70EF9FBAD3D834509004E85050488
:103E2000FD1593F5F50FAD3583C734001374F40F0A
:103E300022899107E3D687FCEF30407F6FE0FFB027
:103E40009307000F6394F60A976700009387C7BA39
:103E500083C50700176600001306C6BA03C417001F
:103E600083C3270083C2370083CF470003CF5700A7
:103E700083CE670003CE7700034306008348160015
:103E800003482600A947A383B400834536000346B0
:103E90004600A387F400FD57A38AF400930700FAB5
:103EA000238AC400238BF40023848400A384740039
:103EB00023855400A385F4012386E401A386D4015D
:103EC0002387C40123886400A38814012389040183
:103ED000A389B4004146CD47F1B5C547638CF602CE
:103EE000D1476384F604C1476388F604FD572382F3
:103EF000F4009305000E85471306F00F0D072A976F
:103F000032973697BA970D47A381E400014613F71D
:103F1000F70FC9B58345540009469547A383B400FC
:103F2000834564002384B400B5BD83455400054631
:103F30009147A383B400BDB581460146814505453F
:103F4000EF10206F8146014681450145EF10606EFC
:103F500003C7140003C5240003C6440083C65400ED
:103F600083C7640083C5040051BF034774008346C0
:103F700064000346540081450545EF10A0690347DE
:103F80007400834664000346540085450545EF10E0
:103F90006068034774008346640003465400894503
:103FA0000545EF1020670347A400834694000346AD
:103FB00084008D450545EF10E0650347A400834666
:103FC00094000346840091450545EF10A064034723
:103FD000A400834694000346840095450545EF10F0
:103FE00060631309B4009944930910020347290040
:103FF0008346190003460900A6858504054593F408
:10400000F40FEF1020610D09E39234FF0347B40B66
:104010008346A40B0346940B81450145EF10805F56
:104020000347B40B8346A40B0346940B8545014517
:10403000EF10405E0347B40B8346A40B0346940B7A
:1040400089450145EF10005D0347840B8346740BDF
:104050000346640B8D450145EF10C05B0347840B9D
:104060008346740B0346640B91450145EF10805A5B
:104070000347840B8346740B0346640B9545014547
:10408000EF1040591304340B9944130910020347ED
:1040900024008346140003460400A68585040145D8
:1040A00093F4F40FEF1000577514E39224FF6FE0C0
:1040B000DF89A383040023840400A38404000D4645
:1040C0009947CDB19307A0FAA383F4009307300575
:1040D0002384F40009469547F1B185472380F18692
:1040E0008280EFE25F83138781A55C4B8344870165
:1040F00023800186A183E204DD8C03C6540093056E
:10410000660093F5F50F2380B400C1C5150613872B
:1041100014001376F60F3A96AE86814721A08346A7
:1041200007000507B69793F7F70FE31AC7FEA695A2
:104130002380F500138581A59305000E913E01446F
:10414000938981A511A8BA85A13683C70400050407
:104150001374F40F63ED8702338984000347090069
:104160004E859305000D9307070393F7F70EE1FFC4
:104170000536834509004E850504FD1593F5F50FB9
:10418000013E83C704001374F40FE3F787FC6FE06C
:10419000CFFB814769BFEFE2AFF9938681A5DC4A87
:1041A00003C78601804A93D687006207558FE207CE
:1041B000130600083A85218081455D8CEFE04FFAB7
:1041C0008346240003461400834734002301D500AE
:1041D00099462300D500A300C500A301F5002302E2
:1041E0000500A3020500930620052A876389D71AD4
:1041F00063F8F606930620066380D71463FEF60282
:1042000093061008638CD71A63F1F6029306000F29
:104210006384D70A9306500F639CD7028547238097
:10422000F186EF30A0406FE0EFF293061007639144
:10423000D702EF10F07FF5B793065005638DD718BE
:10424000930610066384D71A930640056388D71A2D
:1042500013060008BA851385819BEF50C0687DBFA7
:10426000930610046384D71463EBF60293062003CD
:104270006384D70493060004638BD710930600036E
:10428000E398D7FC9D4685472300D500930640F967
:104290002303D500A302F5002380F18659B79306C6
:1042A0000005638AD70A63EEF60693062004E391BD
:1042B000D7FAEF202069B5B79757000093870773A7
:1042C00083CE070003CE170003C3270083C837003F
:1042D00003C8470003C5570083C5670003C67700BE
:1042E00083C68700BD472300F700A547A302F70058
:1042F0002303D701A303C70123046700A304170105
:1043000023050701A305A7002306B700A306C700DE
:104310002307D70085472380F186EF3020316FE0F7
:104320006FE3034694001387418681469145130548
:104330005400EF204046F5B5230105009306F00F29
:104340001306F00F9305F00F0945EF10802E8547F7
:104350002380F186F9B50345540083456400034684
:10436000740083468400034794008347A40023829B
:10437000A186A382B1862383C186A383D1862384A9
:10438000E186A384F18685472380F18659BD854562
:104390000145EF20003385472380F18659B5034559
:1043A000940093056700EF20204BA5BD8145014592
:1043B000EF20203185472380F186A5B58346740020
:1043C00003466400834554000945EF108026854765
:1043D0002380F186B9B5034694001387C1868546CC
:1043E000914513055400EF20003B25BD93070002C3
:1043F0002302F50085472380F18625B50345540047
:104400008345640003467400834684000347940098
:104410008347A4002386A186A386B1862387C1860D
:10442000A387D1862388E186A388F18685472380E8
:10443000F186C5BBEFE24FCD138941A78327090160
:10444000834A4901370A0001A183E20AB3EAFA006C
:1044500003C7E1A77D1A130B000E954B9309000DBE
:10446000930400027D5441CF8327C9008346B900DD
:1044700003C631A8B3F74701A207D58FB29783C609
:10448000070083C72187638E6607638C37096382C1
:10449000360B83C541A803C611860327090183474C
:1044A00049012183E207D98FAE972380D700834744
:1044B0000901850793F7F70F2382F1A863F7FB0043
:1044C00003C73A00ED176386E7080347A90083474F
:1044D000F90036967D171377F70F8507A380C186FD
:1044E000238FE1A6A381F1A8638936032389D186AE
:1044F0003DFB0945EF50800B03C7E1A735F76FE09F
:104500002FC463803703238201A8A3809186A381EF
:104510008A0013060002814549B72389018621F7E5
:10452000C9BF850693F6F60F83C541A803C6118659
:10453000ADB77D171377F70F0506238FE1A6A3818B
:10454000C1A8E31207F20945EF50400603C7E1A7EF
:1045500075B7638CC6020347A9008347F90023821D
:1045600001A87D171377F70F8507A380018623899C
:104570000186238FE1A6A381F1A8E31607EE094582
:10458000EF50C00203C7E1A795BFEFF0CFF8E1B746
:10459000EFE28FB7938981A583A7090103C449017D
:1045A000B70A0001A18362045D8C03C721A6FD1A2E
:1045B000130B000E954B130A000D7D59815441CF0A
:1045C00083A7C90083C6B90003C671A6B3F7570114
:1045D000A207D58FB29783C6070083C73187638E42
:1045E00066076386470B638D460B03A7090183C7E4
:1045F000490103C681A62183E207D98FB2972380A0
:10460000D70083C7090103C62186850793F7F70FF3
:104610002384F1A663F7FB0003470400FD176381C1
:10462000E70A03C7A90083C7F90036967D171377F9
:10463000F70F85072381C1862381E1A6A383F1A615
:10464000638B4605A389D1863DFB0D45EF4010766F
:1046500003C721A635F76FE0AFAE638A4703238413
:1046600001A67D17230024011377F70F0506238188
:104670000186A38991862381E1A6A383C1A6E310C5
:1046800007F40D45EF40907203C721A6E1B78506F8
:1046900093F6F60F99BFA3890186E31207F275B767
:1046A0007D171377F70F05062381E1A6A383C1A623
:1046B000E31707F00D45EF40706F03C721A659BF00
:1046C000D93C03C7A90083C7F900238401A67D173D
:1046D0001377F70F850723810186A389018623813C
:1046E000E1A6A383F1A6E31C07EC0D45EF40106C97
:1046F00003C721A685B7EFE2AFA32D3B513D13853C
:1047000041A7EFF02FCE138581A5EFF0AFCD6FE07D
:104710006FA4EFE2EFA1C53783C7018699E36FE08D
:104720006FA3EFF01F9C6FE0EFA2EFE26FA003C456
:1047300021818544630C940A49C88947630DF404B8
:104740008D476304F4006FE0EFA0B7540040B70555
:1047500007009385450813850440EFE0FFCE65D53B
:10476000854513850440EFE05FC883C7418785070F
:10477000238AF18603C7418783C711816363F70AE0
:10478000238A01867D572389E1801547E39DE7FA57
:10479000A38881804DBF37540040B705070093853B
:1047A000250813050440EFE03FCA51DD03C74187E8
:1047B0009387C180BA9783C5070013050440EFE0D3
:1047C0001FC78D472389F180BDBF37540040B7050F
:1047D000020013050440EFE0FFC835F585451305D9
:1047E0000440EFE07FBE23899180B1BF3754004081
:1047F000B7050300850513050440EFE0FFC4E3049B
:1048000005F403C7418793874184BA9783C507009E
:10481000014613050440EFE0FFC189472389F18079
:104820001DB72389018005B7EFE28F901384318192
:104830000345040023890180EF20B04C8145170512
:1048400000001305C5EEEF2050432300A4006FE0E5
:104850006F9003C721819307F00F6303F7008280F5
:10486000EFE20F8DD1376FE0EF8E1345F5FF135751
:1048700065009357C500136707FC93E707FCA38601
:10488000E180136505FC2387F1802386A18003C79F
:1048900021819307F00F6303F7008280EFE24F89D5
:1048A00061376FE02F8BEFE2AF880564130404805B
:1048B00097C7FF1F938707E422863E858145EFE077
:1048C0002F8A138741810C432286EF50C0016FE08D
:1048D0006F88EFE2EF859967739007803717024082
:1048E0005C4301449384418193E707085CC31389C7
:1048F0008181EFE0CFF788402295EFE00FFA832522
:1049000009008840A2952295EFE04FFC13040410A3
:10491000EFE0CFF793070480E9FF371702405C43CD
:1049200093F7F7F75CC399679387870873900780BD
:104930006FE04F82EFD2DFFF1384014913060004BA
:1049400081452285EFE0CF819307A0FA2300F40090
:104950009307101E2311F400EF20D0132312A4009C
:10496000EF00B0322313A40013060004A285114502
:10497000EF30C00B6FD01FFEB7F7FF1F83A6877EF7
:1049800003A7C77E83A7077F93DF860013DF060197
:1049900093DE8601135E8700135307019358870146
:1049A00013D8870093D5070113D68701A301D5003B
:1049B0002301F501A300E5012300D501A303E500D0
:1049C0002303C501A302650023021501A305F50019
:1049D00023050501A304B5002304C5008280EFD29E
:1049E0003FF5893F6FD01FF703C7014D9307A00A1A
:1049F0006303F7008280EFD2BFF31306E003814523
:104A000013852149EFD0DFF51384014D834714004E
:104A10001307A0FA2388E148A388F1481307100977
:104A200083C7214D6387E7246377F7061307000EDA
:104A30006382E722637AF7021307200E638CE7187C
:104A400063E0E7121307300E639CE7029307301E02
:104A5000130600049385014911452399F148A38A5F
:104A60000186EF20B07C71A81307100A6383E71852
:104A70001307000B6388E70E1307000A6385E70836
:104A8000FD57130600049385014911452399F14808
:104A9000EF20D079BDA04147638FE718637BF70211
:104AA00013071008638CE71613070009638BE706EA
:104AB00013070008E396E7FCFD339307001813067D
:104AC00000049385014911452399F148EF201076A0
:104AD0000DA80547638DE70C0947E393E7FA938731
:104AE00081819C43034744001306000493850149D8
:104AF0002383E7001145930720102399F148EF2005
:104B0000F0726FD03FE5EF20B0119307001A130643
:104B100000049385014911452399F148EF20107154
:104B2000CDB79387818183454400034654000347F2
:104B300074009C438346640011452381B700A38120
:104B4000C700A382E7002382D7001306000493075F
:104B50000019938501492399F148EF20306D55B72D
:104B6000D13B45B703C5414D9307F00F83C8814D35
:104B700083C5914D03C7A14D6304F52C9306000F27
:104B800003C8514D6309D5326306F82AAE864686BE
:104B9000C285EF0030289307001B1306000493859D
:104BA000014911452399F148EF20506899BF938737
:104BB00081819C43130710101306000483C767000C
:104BC0009385014911452399E148238AF148EF2053
:104BD000F06505BF8547A38AF18613060004930795
:104BE000201E9385014911452399F148EF20106457
:104BF00009BFEF20206A2A84EF206069239BA14827
:104C00009307101A1306000493850149114523994F
:104C1000F148239A8148EF207061E5B55D3993072B
:104C20001018130600049385014911452399F14892
:104C3000EF20D05FF9B5138541493D3B9307001143
:104C4000130600049385014911452399F148EF208B
:104C5000F05D45BD9307001E2399F14883C7414D80
:104C60006381070E05476385E704FD57A389F14873
:104C700049BD938781819C4313060004114583C677
:104C8000370083C5270003C7470083C75700A20624
:104C9000CD8E4207558FE207D98F23AAF14893851D
:104CA0000149930710192399F148EF20305891BD1D
:104CB00083C5514D93D6250013D61500858A058AE4
:104CC00085890545EF00901C83C5614D93D625006D
:104CD00013D61500858A058A85890D45EF00101BBE
:104CE00083C5714D93D6250013D61500858A058A94
:104CF00085891545EF00901983C5814D93D6250010
:104D000013D61500858A058A85890145EF0010189C
:104D100083C5914D93D6250013D61500858A058A43
:104D200085890945EF00901683C5A14D93D62500CE
:104D300013D61500858A058A85891145EF0010155F
:104D4000C9B303C7714D83C6614D03C6514D81453B
:104D50000545EF00300C03C7A14D83C6914D03C636
:104D6000814D85450545EF00F00A03C7D14D83C647
:104D7000C14D03C6B14D89450545EF00B00903C7D4
:104D8000014E83C6F14D03C6E14D8D450545EF004B
:104D9000700803C7314E83C6214E03C6114E91459C
:104DA0000545EF00300703C7614E83C6514E03C669
:104DB000414E95450545EF00F00503C7914E83C66A
:104DC000814E03C6714E81450145EF00B00403C713
:104DD000C14E83C6B14E03C6A14E85450145EF00C5
:104DE000700303C7F14E83C6E14E03C6D14E894519
:104DF0000145EF00300203C7214F83C6114F03C6A0
:104E0000014F8D450145EF00F00003C7514F83C6A8
:104E1000414F03C6314F91450145EF00A07F03C7C5
:104E2000814F83C6714F03C6614F95450145EF0021
:104E3000607EC1B92E86BA86C685EF00807FA1BB91
:104E40003A864685EF00407E83C6A14D03C6914D4C
:104E500083C5814D0545EF00700383C6A14D03C690
:104E6000914D83C5814D0D45EF00500283C6A14D84
:104E700003C6914D83C5814D1545EF00300183C6B2
:104E8000A14D03C6914D83C5814D0145EF00100032
:104E900083C6A14D03C6914D83C5814D0945EF00E1
:104EA000E07E83C6A14D03C6914D83C5814D11455A
:104EB000EF00C07DCDB12E86BA86C6854285EF0053
:104EC000E07CD1B9EFD23FA503C70155C1476306C6
:104ED000F700EF20A0756FD05FA783C71155094772
:104EE000638CE70C637CF7080D47638EE70A114774
:104EF000E391E7FE03C4215583C73155A20742045D
:104F00005D8C83C741555D8C17590000130909B0AA
:104F10008544594BD14ADD49B1463546B9451D4A0C
:104F20001385F4FFB356D4003356C400B355B40010
:104F3000858A058A85891375F50FEF00207526850A
:104F4000B356640133565401B35534018904858A3C
:104F5000058A858993F4F40FEF0040730D09E38A05
:104F600044F7834599000346A9008346B900834965
:104F70000900834A1900034B29005DB70547E39AEE
:104F8000E7F49307000303C51182A382F15CEF20CD
:104F900040579945170500001305C506EF20E04D61
:104FA000A380A1823DB7A382015CA38E015A239FF7
:104FB000015A2380015C31BF93070003A382F15C97
:104FC00009BFEFD2FF969387415A13870151938609
:104FD000415E03A80700C8438C47D0472320070140
:104FE00048C30CC750C7C1074107E394D7FE130657
:104FF0000004938501510545EF2050236FD09F9504
:105000009387818198438547034767006303F700CF
:105010008280EFD2FF9175376FD0DF93EFD25F912F
:1050200083C7B187A1EB1306E002814513852152A6
:10503000EFD01F939387015983A8070003A8470067
:105040009447D84783D707014946938501510545C1
:1050500023A8115123AA015123ACD15023AEE15012
:105060002390F152EF20901C01E58547A38DF18636
:105070006FD05F8E9387C181984383C7470023AA6F
:105080000150154693850151054523A8E15023ACF5
:10509000015023AE015023A0015223A2015223A4A8
:1050A000015223A6015223A8015223AA015223AC84
:1050B000015223AE015223A0015423A2015423A480
:1050C000015423A60154238AF150EF2030164DF1EC
:1050D000A38D01866FD01F88EFD29F859387818132
:1050E0009C43094783C767006387E7020D476380D6
:1050F000E70405476385E70203C52182EF20C0422C
:10510000854517050000130565FDEF20403B238111
:10511000A1826FD03F84EFF09F8C6FD0BF8303C517
:105120001182EF20C042713D61F96FD0BF8283C709
:10513000A18799CBE53569F183C7B187F9FB238D49
:10514000018623810188F1B7A38D0186C13D4DF50C
:1051500083C7218889C78547238DF18671BFA38DB9
:10516000018645BFEFD22FFB83D7618713D7870016
:10517000A382F15A975400009384848A2383E15ACE
:10518000A380015C2391015C2382015C014493892B
:10519000415A3D492285E52405041374F40F19C9C9
:1051A00083C7040083C61400CE9703C7D701558F69
:1051B000A38EE7008904E31F24FD938781878397EB
:1051C000070063C407006FD04FF83D454D2C65DDE7
:1051D0009387415A03C7A70183C7C70105078507FE
:1051E000238FE15A2380F15C6FD02FF6EFD2AFF21C
:1051F00083D7618713D71700E177998FC207C183DF
:1052000013D78700238FE180A38EF18003D7018815
:10521000630CF70805472381E1882390F18823AACE
:10522000015823AC015823AE01582390015A23A8FA
:105230000158930710032388F15801441149A549E7
:105240003D4B974A0000938AAA7F138A01599374B1
:10525000F40F268563092403638734030D24931711
:105260001400D697B3068A0009CD03471A0083C5F8
:10527000070003C61700B367B700A388F15823815E
:10528000C600638464010504D9B71145CD2A09E538
:1052900093073003238BF1582545D52201E591472B
:1052A000A38DF1586FD06FEA23810188BDB7EFD28B
:1052B0002FE8AD20D92A83D4C187B3479500239C1A
:1052C000F1862A84239EA186EF10505BEF10907C1C
:1052D0001345F5FF42054181239BA18683D7E187D2
:1052E0006384A702239FA186EF20403493878181A6
:1052F0009C43054783C767006380E7020D47638BC4
:10530000E700D93B6FD00FE5239FF186E31E94FCA5
:105310006FD04FE4E13DF5B7B135E5B7EFD24FDEE1
:10532000371A014093844161130D0A80A68B81498D
:10533000094C130A0AC08D4A854C954D6387890F25
:1053400063543C0D638F59119147639EF90E930589
:1053500000405285EFD03FF2BD456A85EFD03FF067
:105360002945EFD06FEA5E890144214BB3158B00CC
:10537000C205C1815285EFD05FEC41E52300990160
:1053800005041509E31454FF8509850BE398B9FB5F
:1053900037150140C14513050580EFD01FEA1335CD
:1053A0001500C168A381A1621388F8FF1387415ECD
:1053B00093864160138541608D450543F1188357FD
:1053C000070003C604008607D18FC207C1832310DC
:1053D000F7006380B702638E07016383170199E3C7
:1053E00023800600090785048506E31AE5FC6FD0D3
:1053F000EFD423806600090785048506E311E5FCE8
:10540000FDB723000900ADBF8547639EF9026A8599
:105410008945EFD05FE66A85B545EFD05FE4930537
:1054200000405285EFD0BFE325BF6A859145EFD09C
:105430009FE46A85AD45EFD09FE293050040528519
:10544000EFD0FFE131BF6A858545EFD0DFE26A85A5
:10545000B945EFD0DFE0930500405285EFD03FE043
:1054600001B76A85A145EFD01FE16A859D45EFD060
:105470001FDF930500405285EFD07FDED5B59387BF
:1054800041603E95034505008280938641608147D7
:105490000145414603C7060085063317F700598DBD
:1054A000420585074181E397C7FE82809307D03983
:1054B000B308F502131835002A98939715000A08C7
:1054C000AE973308A8402E9822068E07598EC20642
:1054D000138741620A089507558E3A98C69797C672
:1054E000FF1F9386A6D42320C800BE965D47FD55B6
:1054F000B357E600858BB307F04093F767049387B3
:10550000D7022380F6007D178506E313B7FE82805D
:10551000EFD26FC0AA8A2E8AB28981441309300261
:105520000D4B0144A28505044E87D28656862685FA
:105530001374F40FA53FE31724FF850493F4F40FCD
:10554000E39164FF6FD06FC0EFD28FBE13050020D0
:10555000EFD01FA919E16FD0EFBF13050002EFD004
:105560003FA875D937052000EFD09FA76DD513054B
:105570000020EFD0DFA713050002EFD05FA73705AB
:105580002000EFD0DFA6B70400401385044081451A
:1055900037040240EFE02FAB130504038145EFD041
:1055A0009FA21305C4018145EFD0FFA11305C406D6
:1055B0008145EFD05FA1130504039305D039EFD0E7
:1055C000FFA11305C4019305D039EFD03FA1130506
:1055D000C4069305D039EFD07FA01305C4018545DB
:1055E000EFD07F9E130504038545EFD0DF9D1305A3
:1055F000C4068545EFD03F9D854513850440EFE007
:105600008FA46FD02FB5EFD2AFB23D3FEFF06FA4B4
:105610006FD04FB49307200263E7B700EFD24FB1CA
:1056200071356FD02FB38280EFD28FB0D5356FD068
:105630006FB2EFD24FAEAA8A2E8AB2893689014460
:1056400093043002A28505044A87CE865286568589
:105650001374F40FA13DE31794FE6FD00FAFEFD298
:105660002FAD93864188BD470146F55503C7060017
:1056700085063317F700F517598EE399B7FE328583
:1056800023A6C188EFF06F9E6FD0CFACEFD24FAAA8
:10569000B335B000B336D0008A053336C000D58D9F
:1056A0009387418806063E954D8E2300C500453FF1
:1056B0006FD04FAAEFD2CFA73971894717B4FF1F18
:1056C000130444952300F1009305803E9307302096
:1056D000170500001305C5112310F400EF10305E0C
:1056E00017B6FF1F130686948346960083458600EF
:1056F0000347A6008347B600A206CD8E4207558F0A
:10570000E207A301A400D98F0A8581460146854599
:10571000829721616FD00FA4EFD28FA139719307C7
:105720004011856517B4FF1F1304C48E3EC09385D6
:10573000853893073010170500001305650B2310FB
:10574000F400EF10D05717B6FF1F1306268E8346BE
:105750009600834586000347A6008347B600A2064D
:10576000CD8E4207558FE207A301A400D98F0A8589
:10577000814601469145829721616FD0AF9DEFD25E
:105780002F9BB707FF013971938727533EC0C1474D
:1057900017B4FF1F130404882302F1009305803E11
:1057A0009307303017050000130585042310F4001B
:1057B000EF10F05017B6FF1F13064687834696007A
:1057C000834586000347A6008347B600A206CD8E18
:1057D0004207558FE207A301A400D98F0A858146AD
:1057E00001469545829721616FD0CF9617B7FF1F6D
:1057F000034747829547630EF708EFD26F9383C63E
:10580000A1A603C791A683C7E1A6A20683C5B1A638
:10581000D98E03C5D1A6A20703C6F1A6C205C98FBA
:10582000D58D03C501A79D4642065D8E03C7C1A65F
:105830009317850117A5FF1F230ED57C620797A636
:10584000FF1F83C6367D29454D8FD18F636BD500F1
:10585000174600001306C6208A06B2969442B296F6
:105860008286034617008346270003473700994581
:105870002380B700A381E7000D47A380C7002381E1
:10588000D700A38207002382E700EFE01F856FD0D7
:105890006F8C854717A7FF1F230EF776828003467C
:1058A0001700834627000347370099452380B70038
:1058B000A381E7000547A380C7002381D700A38207
:1058C00007002382E700EFE05F816FD0AF880346D7
:1058D000170083462700034737009D452380B70004
:1058E000A381E7000547A380C7002381D700238257
:1058F0000700A382E70023830700EFE00FFE6FD0CD
:105900006F858346A701034517008345270003469B
:105910003700139746001377F70F13083701350741
:1059200023880700A38807002389D7002380070165
:10593000A380A7002381B700A381C70023820700AB
:10594000A382E700EFE06FF999B7AD33EFE0EFF82E
:105950003DBF3535EFE06FF81DBF034617008346A6
:10596000270003473700C9452380B700A381E7001C
:105970003147A382E7000547A380C7002381D700F2
:1059800023880700A38807002382E700EFE0EFF4F5
:10599000FDBD8D4763FFA70617C7FF1F1307873697
:1059A0008347070083461700D58FADE397C6FF1FD7
:1059B00083C666359307F00F639AF60403474700E2
:1059C00097C7FF1F83C737343E971377F70F1DEF35
:1059D000F91793F7F70F17C7FF1FA306F732636A8C
:1059E000F50297C6FF1F83C636321307500D639F1B
:1059F000E600850517C7FF1F0347273193F5F50F0D
:105A00006316B70013950701418582801305300F97
:105A100082801305400F8280EFC2FFEF17A8FF1F9F
:105A20000348986183C5E1A697A7FF1F83C7C76096
:105A300083C8D1A603C5A1A617A6FF1F0346E65F2C
:105A400003C7F1A62208A205B3E5150103C391A679
:105A50003368F80083C6B1A697A7FF1F83C7F75D19
:105A60002205420642074D8F336565003366060105
:105A700003C3C1A683C801A7A3880188C206E207A1
:105A800017C9FF1F13090928C98E620313988801DB
:105A9000D18F938511894A85B364D3003364E800BC
:105AA000829783C91189638C090097A7FF1F83C759
:105AB00067560D476387E70011476382E7026FC0AF
:105AC000DFE80347490083472900914617A6FF1FD7
:105AD0002302D654F98F1307F00F638DE70497A7BD
:105AE000FF1F83C737532947E36BF7FC17470000B5
:105AF0001307C7F98A07BA979C43BA978287930519
:105B000020034E857935E34C05FA954717A7FF1F0B
:105B10002302F75017A5FF1F0345F54F9307F00F1A
:105B2000E30FF5F8EF105020FD5717A7FF1FA30450
:105B3000F74E71B7834709000346190083463900C1
:105B400003475900D18FD58FD98FD1FB1386A9FF79
:105B500097C5FF1F9385651B4A85EF30306441B7B9
:105B60009305A0044E853535E34B05F4954717A7FB
:105B7000FF1F2301F74A17A5FF1F0345D5499307C8
:105B8000F00F6309F500EF10301AFD5717A7FF1F3C
:105B9000A303F74897C7FF1F83C7371783C6A1A67C
:105BA00003C691A66381073A83C7B1A6A20603C7BD
:105BB000C1A6D18EC20703C6E1A6D58F620783C8EE
:105BC000D1A683C6F1A65D8F220683C701A703482D
:105BD00017000345270083453700336616011397E6
:105BE0000601518FE207D98F35472380E7001D4713
:105BF000A38007012381A700A381B70023820700A8
:105C0000A382E70097C7FF1F83C787102304F40010
:105C100017C7FF1F0347C70F814715C33307F90095
:105C20008346D7003307F4008507A304D70093F712
:105C3000F70F17C7FF1F0347A70DE3E1E7FE8547EF
:105C40002303F400C147A303F400EFE00FC985BDAF
:105C5000930500044E85EFF0DFD397A7FF1F83C79E
:105C6000873B97C6FF1F83C6660A13974700FD163A
:105C70003107E396E6E403472901034639018346E9
:105C80007900518F93F6F603558FE31A07E2154713
:105C900097A6FF1F2380E63817A5FF1F0345B537DA
:105CA0001307F00F630DE500EF101008FD5717A75D
:105CB000FF1FA302F73697A7FF1F83C7C7359DCFE6
:105CC0001385F7FF1375F50F55469306040112056A
:105CD000018E3695A2851376F60F2E87B307E60060
:105CE00093F7F70FCA9783C7070005072309F70043
:105CF000E396E6FEC105C106E391A5FE83C7A401B4
:105D000023080400A30804002309F40003C6A1A685
:105D100083C591A603C7B1A6220683C6C1A64D8E30
:105D2000420783C5E1A6518FE20603C3D1A603C68D
:105D3000F1A6D98EA2051397470083C8160003C8A1
:105D4000260003C5360083C701A71377F70FB3E515
:105D5000650093160601CD8E1306D700E207D58F96
:105D60004D079376F60F2380E700A3801701238168
:105D70000701A381A70023820700A382D700230382
:105D8000D400EFE08FB525BBD1454E85EFF07FC045
:105D9000E35D05D62DB3930500044E85EFF07FBF7C
:105DA000E34F05D097C7FF1F83C737F6E39907D0A6
:105DB000954717A7FF1F230FF72417A5FF1F0345BC
:105DC00095259307F00F6309F500EF10E075FD5777
:105DD00017A7FF1FA301F72483C6A1A603C691A698
:105DE00083C7B1A6A20603C7C1A6D18EC20703C648
:105DF000E1A6D58F620783C8D1A683C6F1A65D8FC1
:105E0000220603481700034527008345370083C750
:105E100001A73366160113970601518FE207D98F48
:105E200019472380E700A38007012381A700A381EE
:105E3000B70023820700A3820700EFE00FAA41B159
:105E4000930500044E85EFF0DFB4E34A05C697C71B
:105E5000FF1F83C797EBE39407C6954717A7FF1F5C
:105E6000230AF71A17A5FF1F0345F51A9307F00F2A
:105E70006309F500EF10406BFD5717A7FF1FA30C38
:105E8000F71883C6A1A603C691A683C7B1A6A2062A
:105E900003C7C1A6D18EC20703C6E1A6D58F62078C
:105EA00083C6F1A683C5D1A65D8F2206834817005D
:105EB000034827000345370083C701A74D8E13977A
:105EC0000601518FE207D98F59472380E7004147E8
:105ED000A381A700414697C5FF1F938525E3A380B3
:105EE00017012381070123820700A382E70013051E
:105EF0006400EF30501FEFE04F9ED1B69305A00431
:105F00004E85EFF01FA9E34C05BA97C7FF1F83C763
:105F1000D7DF63930714954717A7FF1F230CF70ECE
:105F200017A5FF1F0345350F9307F00F6309F50011
:105F3000EF10805FFD5717A7FF1FA30EF70C83C656
:105F4000A1A603C691A683C7B1A6A20603C7C1A690
:105F5000D18EC20703C6E1A6D58F620783C8D1A63A
:105F600083C6F1A65D8F220603481700034527006C
:105F70008345370083C701A73366160113970601CF
:105F8000518FE207D98F1D472380E7000547A38083
:105F900007012381A700A381B70023820700A38202
:105FA000E70023030400EFE04F9311BE93050004C4
:105FB0004E85EFF01F9E954717A7FF1F230CF70490
:105FC00017A5FF1F034535059307F00F6309F5007B
:105FD000EF108055FD5717A7FF1FA30EF70283C5CB
:105FE000A1A603C891A603C5E1A683C6B1A6A205D2
:105FF00083C8D1A603C6F1A603C7C1A6B3E50501B0
:106000002205C20683C701A733651501CD8E42065E
:106010006207558F498EE207834517008346370094
:10602000D18F034627003147A382E700034754007E
:1060300049452380A700A380B7002381C700A3811F
:10604000D7002382070023080400A30804002303C9
:10605000E400EFE08F88A5B40547E392E7A6034785
:10606000890097C4FF1F83C474CA9387E4FE97A670
:10607000FF1F2383E6FA93F7D70FE39207A4954710
:1060800017A7FF1F2308F7F817A5FF1F0345B5F84B
:106090009307F00F6309F500EF100049FD5717A7AC
:1060A000FF1FA30AF7F697C7FF1F9387A7C513071C
:1060B000940017C6FF1F130666C583C6B700050701
:1060C0008507A30FD7FE83C62701A303D700E316D6
:1060D000F6FE8343240183423401834F4401034F7E
:1060E0005401834E6401034E7401034384018348C9
:1060F00094000348A4000345B4008345C40003464C
:10610000D4008346E4000347F40083470401834935
:10611000140197A0FF1F238670F097A3FF1FA3828F
:1061200053F097A0FF1FA38D30EF97A2FF1F238B83
:10613000F2EF97AFFF1FA387EFEF17AFFF1F230407
:10614000DFEF97AEFF1FA380CEEF17AEFF1F230D2B
:106150006EEC17A3FF1FA30113ED97A8FF1F238E5B
:1061600008EB17A8FF1FA30AA8EA17A5FF1F23071C
:10617000B5EA97A5FF1FA383C5EA17A6FF1F230053
:10618000D6EA97A6FF1FA38CE6E817A7FF1F2309EF
:10619000F7E8D147639EF4000347B9018347C9017B
:1061A00097A6FF1FA382E6E817A7FF1F230FF7E6B6
:1061B00083C6A1A603C691A683C7B1A6A20603C73C
:1061C000C1A6D18EC20703C6E1A6D58F620783C8D8
:1061D000D1A683C6F1A65D8F2206034817000345AA
:1061E00027008345370083C701A73366160113973D
:1061F0000601518FE207D98F65472380E7004D479D
:10620000A38007012381A700A381B700A382E70031
:106210002382070085472303F40093070002A303AA
:10622000F400C1472304F400EFD03FEB6FF03F8947
:10623000EFC20FF083C6A1A603C691A683C7B1A67D
:10624000A20603C7C1A6D18EC207D58F620783C538
:10625000E1A65D8F97A7FF1F9387C7DB83C3D1A6F6
:1062600003C6F1A683C2570083CF670003CF770030
:1062700083CE870003CE970003C3A70083C8B7006F
:1062800003C8C7008346E700A20503C501A7B3E51D
:10629000750042064D8E931585014D8E13851600AF
:1062A000A30257002303F701A303E7012304D70147
:1062B000A304C70123056700A305170123060701EF
:1062C000A303A60021456388A6186375D508314746
:1062D0006383E6289307400A639DF62E83C6A1A632
:1062E00083C591A683C7B1A6A20603C7C1A6CD8E5A
:1062F000C20783C5E1A6D58F620703C3D1A683C6B3
:10630000F1A65D8FA20583C701A783481700034844
:10631000270003453700B3E56500139706014D8F4D
:10632000E207D98F45472380E7002D47A380170157
:1063300023810701A381A70023820700A382E7002E
:1063400023080600834756002303F600EFD0FFD84A
:106350006FC04FE0638606181945639CA6268346E6
:10636000A701054797A5FF1F2387D5CA6386E60CBB
:106370001307360117A5FF1F130545CA83C557002C
:1063800005078507A30FB7FEE39AA7FE1307360399
:1063900093053606930707FF238007008507E39DD3
:1063A000E7FE13870701E397E5FE85472302F60220
:1063B0002309D60023080600A308060083C5A1A66A
:1063C00003C591A683C7B1A6A20503C7C1A6C98DFF
:1063D000C20703C5E1A6CD8F620703CED1A683C550
:1063E000F1A65D8F9206220503431700834827001C
:1063F0000348370083C701A73365C50193F6F60F3D
:1064000013970501498F9385D600E207D98FCD06F2
:1064100013F7F50F2380D700A380670023811701AE
:10642000A381070123820700A382E7002303E6007C
:10643000EFD0BFCA6FC00FD21307360117A5FF1FD9
:106440001305C5BD83C5570005078507A30FB7FE14
:10645000E39AA7FEB1BF03C8E1A603C5A1A683487E
:10646000A70103CED1A603C391A683C5F1A683C617
:10647000B1A62208220583C701A703C7C1A63368B6
:10648000C80133656500C205C206B3E50501C98EC2
:10649000E2076207CD8F558F97A5FF1F238D15B794
:1064A0000345170083452700834637003147A38201
:1064B000E70003475600494823800701A380A7004F
:1064C0002381B700A381D700238207002308060099
:1064D000A30806002303E600EFD03FC06FC08FC7BC
:1064E00083C5A1A603C591A603C7B1A6A20583C60D
:1064F000C1A6C98D420703C5E1A64D8FE20603CEB2
:10650000D1A683C5F1A6D98E220503C701A703C36F
:10651000160083C8260003C836003365C50193966C
:106520000501C98E6207558FE9462300D700D14681
:10653000A300670023011701A3010701230207003D
:10654000A302D70003C7570183C76701230CE600E6
:10655000A30CF600C5BB83C5A1A603C591A603C7BE
:10656000B1A6A20583C6C1A6C98D420703C5E1A68F
:106570004D8FE20603CED1A683C5F1A6D98E2205A2
:1065800003C701A703C3160083C8260003C836004B
:106590003365C50193960501C98E6207558FCD46B7
:1065A0002300D700B546A300670023011701A3010C
:1065B000070123020700A302D70005472308E600CE
:1065C00003C75701A308E60083C767012309F60044
:1065D00095BB83C6A1A683C591A683C7B1A6A20613
:1065E00003C7C1A6CD8EC20783C5E1A6D58F6207BA
:1065F00003C3D1A683C6F1A65D8FA20583C701A7F9
:10660000834817000348270003453700B3E56500BA
:10661000139706014D8FE207D98F19472380E700B2
:10662000A380170123810701A381A700238207000C
:10663000A38207008D472302F60029B3EFC24FAFB4
:1066400017A4FF1F1304849E83461400034604000E
:106650000347240083473400A206D18E4207558F9A
:10666000E207FD5617A6FF1FA307D69AD98F829778
:106670008346540003464400034764008347740084
:10668000A206D18E4207558FE207D98F82979305D4
:10669000400617F5FFFF13052502EF005062930532
:1066A000800C17F5FFFF1305C50DEF005061930532
:1066B000C01217F5FFFF13056506EF0050606FC0AD
:1066C0006FA9EFC2EFA63971B367B50017A4FF1F1A
:1066D00013044494130720132301F1009305803E13
:1066E0009307304017F5FFFF130585102310E100D5
:1066F0002310F400EF00B05C17A6FF1F13060693EB
:1067000083469600834586000347A6008347B6006C
:10671000A206CD8E4207558FE207A301A400D98FB0
:106720000A85814601468D45829721616FC08FA2FF
:10673000EFC20FA039719307A01417A4FF1F130411
:10674000648D2301A1002310F10017F5FFFF13054D
:10675000250A930730502310F400EF00505617A677
:10676000FF1F1306A68C83469600834586000347C9
:10677000A6008347B600A206CD8E4207558FE207DA
:10678000A301A400D98F0A85814601468D458297D1
:1067900021616FC02F9CEFC2AF99834E0700034E5B
:1067A0001700034327008348370003484700834707
:1067B000570039712E84B336D00013070014938626
:1067C0000606AA85A301C1001305A1002286231095
:1067D000E1002302D101A302C10123036100A3034D
:1067E0001101230401012301D100A304F100EF30C2
:1067F000800F930730609305803E17F5FFFF130568
:1068000025FF17A7FF1F2317F780EF00504B97A610
:10681000FF1F83C6368297A7FF1F83C7A78117A7CD
:10682000FF1F03474781A206DD8E420797A7FF1F80
:1068300083C77780558F9305A4009796FF1FA38C7D
:10684000A67CE2070A85D98F8146014693F5F50FAC
:10685000829721616FC00F90EFC28F8D39719307BE
:1068600000142310F100930700031794FF1F130473
:10687000647AA301A1002301F1009305803E9307F0
:10688000307017F5FFFF1305A5F62310F400EF0095
:1068900010431796FF1F13066679834696008345BB
:1068A00086000347A6008347B600A206CD8E4207A6
:1068B000558FE207A301A400D98F0A8581460146BE
:1068C0009145829721616FC0EF88EFC26F86931761
:1068D000850021813971C98F2312F10041678567D5
:1068E0001794FF1F130404732303B1001307A714A5
:1068F000B2859387378017F5FFFF130565EF3AC020
:106900002310F400A3030100EF00703B1796FF1F54
:106910001306C67183469600834586000347A6008A
:106920008347B600A206CD8E4207558FE207A3012A
:10693000A400D98F0A8581460146A145829721612D
:106940006FC04F81EFB2DFFE83C7018991CB930502
:10695000803E0145EFF0DFDD238801886FB09FFFA7
:1069600041651306803E85457D158537854723881B
:10697000F1886FB03FFEEFB2BFFB797185451165BD
:1069800002CA02CC02CE02D002D202D402D602C681
:1069900002C8EFC0BFD285451145EFC03FD23714C2
:1069A0000140930700200D494C0813050480231A69
:1069B000F100E1474ACC3ECEEFC04FF793070040CD
:1069C0004C0813050480231AF10091473ECEEFC016
:1069D000EFF5930700104C0813050480231AF1000B
:1069E000C1473ECE4ACCEFC06FF4F167B7440140D7
:1069F000938707200C10138504803ED0B7070C0046
:106A00003ED402D223160102EFD02F8113850480D9
:106A1000054693055052EFD04F92054693054042EC
:106A200013850480EFD06F919307501368002316ED
:106A3000F10085473EC823070100EFC0BFA61385BC
:106A400004808545EFD06F8D9305001013050480F9
:106A5000EFC0FF8045616FB0FFEFEFB27FED95674C
:106A60004111938757553EC0B70700FF3EC2B70795
:106A7000D514938737D03EC4856793871770374402
:106A800001402316F10023070100930411001309AC
:106A9000F10093055005130404802285EFD0AF8DDB
:106AA000930500082285EFD04F8E7DD9638624019F
:106AB00083C504008504D5B741016FB0BFE9EFB2CB
:106AC0009FE5834705002A89374501402E84130539
:106AD00005808145B74A0140B284368A238DF1880A
:106AE000AA89EFD04F89930500084E85EFD0EF8932
:106AF0007DD913850A808145B74A0140EFD0AF8721
:106B000093890A80930500084E85EFD00F887DD9C0
:106B100013850A809305F00FB74A0140EFD0AF8587
:106B200093890A80930500084E85EFD00F867DD9A2
:106B3000B307440193F7F70F9385170013850A8075
:106B400093C7F7FF374B014093F5F50F93FAF70F13
:106B500093090B80EFD02F82930500084E85EFD06C
:106B6000CF827DD9D68513050B80B74A0140EFD07F
:106B70008F8093890A80930500084E85EFD0EF80BF
:106B80007DD99305400D13850A80B7490140EFC0B8
:106B90009FFE93890980930500084E85EFC0FFFE94
:106BA0007DD931C0930AF4FF93FAFA0F37440140BC
:106BB000CA9A9309400D1304048083450900228575
:106BC000EFC07FFB930500082285EFC01FFC7DD935
:106BD0008347090013071900BE9993F9F90F63065B
:106BE00059013A89D9BF9309400D63000A0413097A
:106BF000FAFF1379F90F93871400374401403E9947
:106C00001304048083C504002285EFC0DFF69305DA
:106C100000082285EFC07FF77DD983C70400850473
:106C2000BE9993F9F90FE39F24FDB3053041374531
:106C3000014093F5F50F13050580B7440140EFC0FF
:106C40009FF313840480930500082285EFC0FFF3AF
:106C50007DD981451385048037440140EFC0BFF1E1
:106C600013040480930500082285EFC01FF27DD92C
:106C70006FB0BFCD411122C6374401409305505239
:106C800013050480EFC03FF149E537440140930507
:106C9000404213050480EFC01FF01DC1035704805C
:106CA0008357448083C7318985C31387918993872C
:106CB000418903470700BA9723800700A389018809
:106CC000324441017300203003C791899387418981
:106CD0003E97834607001387918993F6F60FF1DA02
:106CE00003C62189894663E6C6089386218983C63F
:106CF000060085062389D188834607000D46850650
:106D0000A38CD18883460700E375D6FAA38C01884B
:106D10004DB713050480EFC0BFE683C73189B5F7CF
:106D200003C79189938741893E978346070013875C
:106D3000918993F6F60F13968601618663470602E2
:106D4000834507000346070017B7FF1F1307870394
:106D50009E052E9793851600B297BA9613F7F50FF6
:106D60002380A6002380E7000DB78547A389F1881B
:106D700029BF83C681898506238CD18803C6818972
:106D80008D46E3FBC6F6238C0188BDB7EFB25FBA30
:106D90003744014001462A89AE84130504809305D7
:106DA0005052EFC09FD9014693054042130504801D
:106DB000EFC0BFD883C72189B5CB83C6818993979C
:106DC000760017B7FF1F1307E7FB3E9793874189AC
:106DD0002320E900B69783C707000D472380F400FE
:106DE00083C781898507238CF18883C78189636C78
:106DF000F7029387218983C70700374401401305B1
:106E00000480FD170546930550522389F188EFC091
:106E1000DFD213050480054693054042EFC0FFD141
:106E200005456FB03FB3238C0188E1B7130504809B
:106E3000054693055052EFC05FD013050480054608
:106E400093054042EFC07FCF01456FB0BFB0EFB2B6
:106E50003FAE41112A89AE8411A80344B100B24566
:106E60004A852286EF203028238084009305B100D4
:106E70006800EFF0BFF175F141016FB0BFADEFB247
:106E80003FABF1376FB01FADEFB29FAA011185453F
:106E9000116502C002C202C402C602C802CA02CC04
:106EA000231E0100EFC07F8385452145EFC01F8170
:106EB0003714014061498D448A85130504C08567F4
:106EC0002310F1004AC426C2EFC04FA68A851305DD
:106ED00004C089672310F1004AC426C2EFC00FA581
:106EE00091678A85130504C02310F10091473EC4C1
:106EF000EFC0CFA3E1778A85130504C02310F1000A
:106F0000374400404AC426C2EFC04FA21305048094
:106F10008545EFC01F88B70704013EC693070002EE
:106F20006C00130504803ECC9D47231EF10002C86F
:106F300002CAEFC06FFC1305048005468945EFC007
:106F4000BF831305048005468545EFC0FF82854554
:106F500013050480EFC03F8005616FB0BF9FEFB2A3
:106F60009F9B79712A84AE89054585453289B6840F
:106F700002C202C402C602C802CA02CC02CE02D0B9
:106F800002D202D402D6EFC08FF12285EFB0BFF457
:106F9000C1473EC6930700084C003ECC228585675A
:106FA0004EC24AC426C83ED402CA02CE02D002D281
:106FB00002D6EFB05FFD45616FB03F99EFB2BF956C
:106FC00079712A84AE89054585453289B68402C225
:106FD00002C402C602C802CA02CC02CE02D002D249
:106FE00002D402D6EFC0AFEB2285EFB0DFEE9307FD
:106FF00000083ECC930700103ECE930700404C00A3
:107000003ED0228585674EC24AC426C83ED402C6F9
:1070100002CA02D202D6EFB01FF745616FB0FF92ED
:10702000EFB27F8F79712A84AE8905458545328913
:10703000B68402C202C402C602C802CA02CC02CE90
:1070400002D002D202D402D6EFC06FE52285EFB0A3
:107050009FE8930700084C003ECC228585674EC20E
:107060004AC426C83ED402C602CA02CE02D002D208
:1070700002D6EFB05FF145616FB03F8DEFB25F8B2D
:107080009387418B9C430547638DE70499CB094760
:107090006397E7000945EFB0BFF4631305146FB0C1
:1070A0007F8B1387018A8347170003462700834697
:1070B000370003474700D18FD58FD98F03C761822F
:1070C0006382071C9307F7FF93F7F70F2383F1827F
:1070D000639A070C854723AAF18A238301826FB044
:1070E0007F8737050200EFB0BFEF09E50965EFB014
:1070F0003FEF55D537050200EFB07FEF0965EFB0E0
:107100001FEF37450040814513050580EFC0AFE410
:1071100003C6118A1347F6FF973700009387C79974
:107120001377F70F3E970347070083C5218A83C66D
:10713000318A2D8F3E970347070003C5418A358F5B
:10714000BA9783C7070093C7F7FF93F7F70F630555
:10715000F51237040240130584058145EFB0BFE600
:10716000130584059945EFB07FE713058405854530
:10717000EFB07FE5130544048145EFB0DFE413056C
:1071800044049945EFB09FE5130544048545EFB0ED
:107190009FE337450040854513050580EFC0AFDB11
:1071A0006FB04FFB4147E37CF7EE3745004089471E
:1071B00013050580814523AAF18A37040240238301
:1071C0000182EFC04FD9130584058145EFB0BFDFC1
:1071D000814513054404EFB01FDFEF90A079C1B5DE
:1071E0000945EFB0DFE097B7FF1F9387A7DA17B61F
:1071F000FF1F130626E2014783D60700890736974B
:10720000E31CF6FE9387C1898395070019839316C3
:107210000701C1863386B6008147634E060081CEE2
:1072200005659307F5FF6358A6006386F6002E9761
:1072300093170701C1832393F18A83D7618A93C788
:10724000F7FF2393F18A3704024083D7618A9207BC
:107250001305840081452393F18AEFB0DFD613052F
:10726000840093058004EFB07FD785451305840023
:10727000EFB07FD56FB00FEE93178600CD8F2393BD
:10728000F18AC1BD9307170093F7F70F81B503D5B6
:10729000618A828083D7618A03D7818A6377F714F2
:1072A0003387E74013271710134717006317070E9C
:1072B00003C7A18A931617001386C18A97B5FF1FCB
:1072C000938545D5B695104283D6050005073E96B1
:1072D000158E935636002390F500939706011D8B6B
:1072E000C18323A6C18ABE862385E18A2394F18ABD
:1072F00003D7018B63F3E708B306D74093A61604C0
:1073000093C6160081C62398F18A3E8793878181B0
:107310009443416583C7160083C60600A207D58F34
:107320003E974207E17741833E97931717003E97B8
:10733000A1673E9783C731826357A7046348070458
:10734000131507014181A9E783D7418263F4A70C94
:107350003307F54042074183AA8621463685637B81
:10736000E600130600046368E6083385F60005812D
:10737000420541812392D1828280998E93A6160480
:1073800093C6160041B77D15E1D319A0BDCF0145C5
:107390002392A182A381018282801397370097B63E
:1073A000FF1F2399F6C697B6FF1F2396F6C697B61A
:1073B000FF1F2393F6C697B6FF1F2390F6C697B616
:1073C000FF1F239DF6C497B6FF1F239AF6C497B6F6
:1073D000FF1F2397F6C497B6FF1F2394F6C4239488
:1073E000F18ABE8623A6E18A21B71D8F13271710C5
:1073F0001347170065BD13953600158D3E950D8119
:10740000420541812392D182828083D741823E8787
:107410008146A1B73387A74042074183AA8635BF7B
:107420009387818183D6618A9843E177958FC207DC
:10743000C18393D687002300F700A300D700828082
:10744000411122C637140040854513050480EFC062
:107450002FDA09E53244410173002030130504801E
:107460008545EFC0AFDA9387818B9C433244850713
:1074700023ACF18A41017300203017B7FF1F1307B7
:10748000E7BA81474148144313F6F70F310781CA21
:107490008507E39A07FF1306F00F32858280139762
:1074A0001700BA971397270097B7FF1F938787B7DF
:1074B000BA9788C7CCC323A007003285828017B74C
:1074C000FF1F1307A7C281474148144313F6F70F64
:1074D000310781CA8507E39A07FF1306F00F32854B
:1074E000828013971700BA971397270097B7FF1F4B
:1074F000938747BFBA9788C7CCC323A007003285BC
:107500008280BD4763E1A70293171500AA978A07F7
:1075100017B5FF1F130505B13E952324050023224F
:107520000500232005008280BD4763E1A702931771
:107530001500AA978A0717B5FF1F1305A5BA3E9530
:107540002324050023220500232005008280BD4757
:1075500063EDA70093171500AA978A0717B5FF1FB9
:10756000130545ACAA9723A007008280EFB24FBC59
:10757000371400401305048001468545EFC0AFAEC7
:107580009387818B1305048005468545844317B492
:10759000FF1F130424A923AC018A17B9FF1F130985
:1075A00069B4EFC04FAC144499CA1C405840A69728
:1075B0001CC03386E74063E4E70010C082963104C4
:1075C000E31324FF17B4FF1F1304C4B117B9FF1F3F
:1075D000130949BD14448DC21C405840A6971CC0D5
:1075E0003386E74063EAE70010C082962324040054
:1075F00023220400232004003104E31D24FD6FB086
:107600006FB5EFB2EFB2F957A383F18217B4FF1F42
:10761000130444B997B4FF1F9384C4BA1C401104E7
:1076200091C38297E31C94FE6FB0CFB2EFB24FB01C
:10763000938481819040834636008345260003472A
:10764000460083475600A206CD8E4207558FE207BB
:10765000D98FA9C303C571829307E00F630EF502AA
:10766000EFF09FEC9840170500001305C5F983451E
:107670003700834627008347470003475700A2058A
:10768000D58DC207CD8F93158701DD8DEFF03FE3D8
:10769000A383A1826FB00FAC17B4FF1F130484B291
:1076A00017B9FF1F130909B41C40110491C3829735
:1076B000E31C24FFFD57A383F1821305F00F4DB7A0
:1076C00097B5FF1F938505AE2E878147214614434A
:1076D000110799C68507E39CC7FE1305F00F82804A
:1076E00013972700BA9588C113F5F70F828097B5D5
:1076F000FF1F938525AD2E8781472146144311072F
:1077000099C68507E39CC7FE1305F00F8280139787
:107710002700BA9588C113F5F70F8280EFB24FA109
:10772000EF90C03DEF90204D13050040EFB0FFE516
:107730000545EF80700FEF80B00C13052003EFB00C
:107740004FB0EFD04F96EF90A053EF90E05AEF90EC
:10775000D0272945EFB0EFAEEF906038EF90C038FA
:10776000EF803060EF80D028EF80700CEFE01FEDED
:10777000EF803035D14517E5FFFF130505E9EFF040
:10778000DFCF854517E5FFFF1305A5B2EFF0FFCE6C
:10779000954517D5FFFF130505F8EFF01FCEF94506
:1077A00017E5FFFF13058527EFF03FCDEFF01FDC56
:1077B000F5BF37050400EFB0FF8A73002030252E97
:1077C000730020308D4723AAF18C828097B7FF1F6A
:1077D00083C7E7A389C7954723AAF18C8280854791
:1077E00023AAF18C8280EFB2AF94AA842E84114533
:1077F0008545EFB0BFECB7660040ADC083A706C4B7
:1078000041677517F98F23A0F6C4B717014003A786
:107810004780B716F0FFFD16758F23A2E78003A7F8
:10782000C780F9769386F67F758F23A6E78003A736
:107830004780B7460400558F23A2E78037470240B0
:107840008327078019C493E727002320F7806FB0B0
:107850006F90F59B2320F7806FB0CF8F03A706C4EE
:10786000B7170140136727004207418323A0E6C4EE
:1078700003A74780B716F0FFFD16758F23A2E78098
:1078800003A7C780F9769386F67F758F23A6E780D6
:1078900003A74780B7360300558F23A2E78079BF3F
:1078A0008280EFB2EF88938501550545EF1070781F
:1078B000930700046307F5000545EF10304F6FB0E4
:1078C0006F89EFD02FE00545EF10504E6FB08F88D5
:1078D0008280EFB2EF859385014D1145EF107075F1
:1078E000930700046307F5001145EF10304C6FB0AB
:1078F0006F86EFD06F8F1145EF10504B6FB08F85B3
:10790000EFB20F83138441A78345C4008346B400BC
:107910008347D4000347E400A205D58DC207CD8F6D
:1079200093158701DD8D0945EF10B0702305A40084
:1079300089650945A3070400EF1030406FB08F81BF
:10794000EFA21FFFB767004083A707C537370020A6
:107950004907C207C183BA9786079C4313070002F1
:1079600093F7F73F639BE70083C7D1A799E703C766
:1079700091A783C781A76309F70093050002094512
:10798000EF1030376FA01FFD014681451305200819
:10799000EF105067C5BFEFA2BFF9138481A58345DF
:1079A000C4008346B4008347D4000347E400A20523
:1079B000D58DC207CD8F93158701DD8D0D45EF1055
:1079C00050672305A40089650D45A3070400EF1047
:1079D000D0366FA03FF8EFA2BFF5B767004083A78E
:1079E00007C5373700206907C207C183BA978607E2
:1079F0009C431307000293F7F73F639BE70083C79D
:107A000011A699E703C7D1A583C7C1A56309F700EC
:107A1000930500020D45EF10D02D6FA0BFF3014676
:107A2000814513053008EF10F05DC5BFEFA25FF090
:107A300009472E84B284630EE506637CA7020D47D6
:107A40006305E5041147631FE502EF10F034930767
:107A500000036309F5022686A28513054008EF108E
:107A6000705A930500031145EF10B02801456FA02F
:107A70007FEE05476318E500EF101032930700030F
:107A8000631DF50405456FA0FFECEF10F030930780
:107A90000003E309F5FE2686A28513053008EF10E2
:107AA0007056930500030D45EF10B02401456FA0FB
:107AB0007FEAEF10702E93070003E305F5FC26869E
:107AC000A28513052008EF10F05393050003094524
:107AD000EF10302201456FA0FFE72686A28513052F
:107AE0001008EF103052930500030545EF10702089
:107AF00001456FA03FE6EFA2BFE337680040832750
:107B000008C541671305F7FFB7360020E98F9906CE
:107B1000B69786079043130707C083D5C18B718F33
:107B20000111630CB700832708C593F505C0E98FE1
:107B3000B69786079843D98D8CC3B766004003A7D4
:107B400046C483D7018F1384818C2394E18C03D79F
:107B5000818C7D8F1377072019CB41671307F7DFDF
:107B600023A2E6C403C7E18B0507238FE18A0357ED
:107B700004007D8F42074187634F070C03570400C1
:107B80007D8F1377074005C39787FF1F938707549F
:107B9000D843C1679387F7BFB766004023A2F6C4F6
:107BA000029783D7018F035704007D8F9316270117
:107BB00063CA0606035704007D8F9316370163C01E
:107BC0000608035704007D8F9316470163D1060210
:107BD000938701849C43C9C7EF000075BD679387F5
:107BE000F77F376700402322F7C483D7018F0357FD
:107BF0000400F98F93F707109DC34167B7670040F2
:107C00009306F7EF23A2D7C483A687C41396060171
:107C1000634C060423A0018C1D45EF00807C0561A8
:107C20006FA05FD33967B76600407D1723A2E6C413
:107C3000035704007D8F93163701E3D406F8BD6720
:107C4000FD17376700402322F7C40145EF00607934
:107C500083D7018FBDB7EF10003B83D7018F39BFAA
:107C60000945EF0000789DBF1386018C14428D45B5
:107C7000850623A0D18C1442E3F0D5FA83A607C46D
:107C80007D17A18AD1FA03A607C42145938707C0AF
:107C9000798E23A2C18C8C43139626000010229665
:107CA000F98D2320B6FE85069107E396A6FE9386FE
:107CB000418C9042B7650040B767004013661600DC
:107CC00023A2C18C9042798E23A0C5C49042799A98
:107CD00023A2C18C9442758F23A0E5C403A747C497
:107CE0001377074065DF41671307F7BF416623A29B
:107CF000E7C47D16938707C00147A1459316270067
:107D00000810AA9683A606FE91070507F18E23AEFA
:107D1000D7FEE315B7FEFDBD97A7FF1F83C7274F0B
:107D200081C7954723AAF18C8280914723AAF18CC1
:107D30008280828091E5854733B5A7000605828061
:107D40000945828011C51785FF1F1305E551828003
:107D50009387418E9C431D472398E7008280EFA2C2
:107D60003FBDEFF03FFE6FA0FFBEEFA27FBC93844C
:107D7000418E984085468347070093F7F707638B4A
:107D8000D7029306100209456394D7028346170071
:107D90006386F60493070002639CF6001704000054
:107DA000130424FC00CF2319070001450294014568
:107DB0006FA05FBA83472700930620026385D7022E
:107DC000930610020945E395D7FE1704000013043B
:107DD000C44F00CF014502949840E9B71704000052
:107DE000130484F6C1B7170400001304E44AD5B79E
:107DF0009387418E984393061002014583470700FD
:107E00000347170093F7F7076383D70082801307B0
:107E1000E7FD1377F70F05453335E500060582804A
:107E2000EFA21FB19387418E9C4323850700C12990
:107E3000B7650040B76700408566938707C09386A3
:107E4000F6F0138605C298439107758F23AEE7FEBF
:107E5000E39BC7FE9307F00F23A2F5C4EF10901821
:107E60008145014523AA018CEFF0FF975145EFA012
:107E70005FBD85450545EFF01F976FA0BFADEFA231
:107E80003FAB9387418E17970000130767279C43EA
:107E900003477700014523950700A384E700EF100F
:107EA0004062930500200145EF10A062C1450145E5
:107EB000EF102064930500050145EF10207F930526
:107EC00000060145EF10807C0145EF102075978575
:107ED000FF1F83C565220145EF1030050145EF10F6
:107EE000E06CB766004003A606C0C1671387F7FFC2
:107EF0009317160163DF070083A706C0F98F056794
:107F00001307F7F0F98F316713070708D98F23A0FC
:107F1000F6C037670040832707C093F7070485C37F
:107F2000832707C0C166FD16F58F85669386F6F038
:107F3000F58FA1669386060CD58F2320F7C0930595
:107F400000600545EF10E058930500020545EF106D
:107F5000405A930500070545EF1040739305000B49
:107F60000545EF10A074930500040545EF10E07B74
:107F70008D650545EF10605C37670040832747C07B
:107F800093F7070485C3832747C0C166FD16F58FA5
:107F900085669386F6F0F58FA1669386060CD58FDD
:107FA0002322F7C0B766004003A646C0C167138707
:107FB000F7FF9317160163DF070083A746C0F98F09
:107FC00005671307F7F0F98F316713070708D98F93
:107FD00023A2F6C081450945EF10A04F930500028A
:107FE0000945EF1000519305000D0945EF10006A97
:107FF0009305000F0945EF10606B930500020945DA
:10800000EF10A0728D650945EF102053B766004050
:1080100003A686C0C1671387F7FF9317160163DFB6
:10802000070083A786C0F98F05671307F7F0F98F5C
:10803000316713070708D98F23A4F6C037670040BC
:10804000832787C093F7070485C3832787C0C1664A
:10805000FD16F58F85669386F6F0F58FA1669386FB
:10806000060CD58F2324F7C081450D45EF106046DF
:10807000930500020D45EF10C047930500110D4513
:10808000EF10C060930500130D45EF1020629305BB
:1080900000020D45EF1060698D650D45EF10E04958
:1080A000B766004003A6C6C0C1671387F7FF9317E2
:1080B000160163DF070083A7C6C0F98F05671307A2
:1080C000F7F0F98F316713070708D98F23A6F6C099
:1080D000376700408327C7C093F7070485C383270A
:1080E000C7C0C166FD16F58F85669386F6F0F58FDD
:1080F000A1669386060CD58F2326F7C093050060F2
:108100001145EF10003D930500021145EF10603E50
:10811000930500171145EF1060579305001B11459B
:10812000EF10C058930500041145EF1000608D65F5
:108130001145EF10804037670040832707C193F750
:10814000070485C3832707C1C166FD16F58F8566C1
:108150009386F6F0F58FA1669386060CD58F2328BB
:10816000F7C0B766004003A606C1C1671387F7FFD3
:108170009317160163DF070083A706C1F98F056710
:108180001307F7F0F98F316713070708D98F23A872
:10819000F6C00145EF009062854723AAF18C6FA0DD
:1081A0006FFBEFA2EFF893854183EF00807F6FA014
:1081B0006FFAEFA2EFF79385C182EF00807E6FA088
:1081C0006FF99387418E9C43A14683C5370083D7BF
:1081D000470063EFB608EFA2AFF5930600412A8689
:1081E000139755006388D70863F9F602856693856F
:1081F0004690638AB70093864610638CD704930633
:1082000040416388D7029785FF1F938525F0BA9573
:108210003285EF0000796FA0EFF393068040638B07
:10822000D7049306C0406386D70093064040E39C82
:10823000D7FC9787FF1F938767EDB385E70083D649
:108240004501F9D693050701BE953285EF006075AB
:10825000D9B79787FF1F938767EBB385E70083D66E
:10826000C501C5DA93058701BE95EF00807365B738
:10827000014582809787FF1F938747E9B385E70011
:1082800083D6C500D1D693058700BE953285EF0011
:10829000407151B79387418E984385478345570076
:1082A000F11513F7F50F63F4E70001458280EFA2A3
:1082B0002FE89787FF1F938767F78E05BE95EF001E
:1082C000406E6FA02FE99387418E98438547834581
:1082D0005700F11513F7F50F63F4E70001458280AD
