:042800006F70A071E4
:102804000028000000000000CC3B0000D03B00008A
:1028140000000000189F00000000000000000000FD
:10282400189F0000189F0000000000000000000036
:10283400189F000000000000189F00000000000026
:10284400189F0000189F0000189F0000189F0000A8
:10285400189F0000189F0000189F0000189F000098
:10286400189F0000189F0000189F0000189F000088
:10287400189F0000189F0000189F0000189F000078
:10288400189F0000189F0000189F0000189F000068
:102894007A7F0000189F0000189F0000189F000016
:1028A400189F0000189F0000189F0000189F000048
:1028B400189F0000189F0000C47B0000189F0000B0
:1028C400189F0000189F0000189F0000189F000028
:1028D400189F0000AC720000189F0000189F0000B1
:1028E400189F0000189F00006E7F0000189F0000D2
:0C28F400189F0000189F0000189F0000B3
:10290000397101436EC619A0397141536AC866CA4C
:1029100062CC5ECE19A0397101535AD056D252D42E
:102920004ED64AD826DA22DC06DE330161408282A6
:1029300041114AC026C222C406C68282B24D41015C
:10294000024D924C224CB24B4101024B924A224A18
:10295000B2494101024992442244B240410182807D
:102960002A8309CA83830500230073007D160503AB
:1029700085056DFA828015C22A8385466367B50096
:10298000FD561307F6FF3A93BA958383050023009B
:1029900073007D163693B6956DFA82802A8311C630
:1029A0002300B3007D16050365FE82807325003089
:1029B0008280731005308280B7F700E0D8438146EB
:1029C000799BD8C303C721863306A70237F700E0F7
:1029D00090CBD4CB944393E6060194C3944393E6FF
:1029E000160294C35C43858BF5DF1C43F99B1CC323
:1029F0008280B7F700E0D8438146799BD8C303D7DC
:102A000001863306A70237F700E090CBD4CB94437E
:102A100093E6060194C3944393E6160294C35C4381
:102A2000858BF5DF1C43F99B1CC382809C4103A866
:102A30008501D04DD4415841B3E70701D18F370606
:102A4000F1E0A2061306F6EF718FD58FD98F5CC126
:102A5000D0459C4994451845D18F37F6F1FF86063D
:102A60001306D67F718FD58FD98F1CC583C74501BB
:102A70005855B70610FFFD1793F7F70FFD16758F22
:102A8000D207D98F5CD582801C4589C593E7170092
:102A90001CC58280F99B1CC582801C4589C593E7B3
:102AA00007101CC5828093F7F7EF1CC582801C4578
:102AB00093E787001CC5828008450D8105898280C7
:102AC0001C4593E747001CC582800845098105899C
:102AD00082801C4591C537075000D98F1CC5828064
:102AE0003707B0FF7D17F98F1CC58280A54763F7B4
:102AF000B704938765FF139717003E970328C50017
:102B00009D47B397E70093C7F7FFB3F70701B39665
:102B1000E600DD8E54C5994763E5C7047D1693171B
:102B200026003E965859FD47B397C70093C7F7FF55
:102B3000F98F3396C5005D8E50D9828013971500AA
:102B4000032805012E979D47B397E70093C7F7FF2A
:102B5000B3F70701B396E600DD8E14C99947E3FF8A
:102B6000C7FAB14763E2C7026516931726001459E6
:102B7000B2977D473317F7001347F7FF758FB39769
:102B8000F500D98F1CD982804D1613172600545595
:102B90003297FD47B397E70093C7F7FFF58FB395DB
:102BA000E500DD8D4CD582805C4191C5370700047E
:102BB000D98F5CC18280370700FC7D17F98F5CC11B
:102BC000828001112303010003476100A54763E5EB
:102BD000E70425461C4593E787001CC51C45A18BCF
:102BE000F5FF1C4593E747001CC51C45918BF5FF7D
:102BF0007445834761000347610086070507137723
:102C0000F70F2303E10093870702034761008A97C8
:102C10002396D7FEE370E6FC23030100034761001F
:102C2000A54763EAE70A2146A545A30301008347B8
:102C300071006367F6080347710083477100060758
:102C40008507860713070702938707020A978A9763
:102C50000357C7FE83D7C7FE63F9E70483477100B4
:102C60008607938707028A9783D7C7FE2314F1004C
:102C7000034771008346710083477100050706070B
:102C8000130707020A970358C7FE85071397160014
:102C9000035581001307070286070A9793870702E7
:102CA000231607FF8A972396A7FE8347710085079F
:102CB00093F7F70FA303F10083477100E37DF6F666
:102CC00083476100850793F7F70F2303F1008347DC
:102CD0006100E3FCF5F42314010023150100230334
:102CE000010003476100954763ECE7049306006029
:102CF000154625A883476100035781008907860789
:102D0000938707028A9783D7C7FEBA97C207C18302
:102D10002314F10083476100850793F7F70F23031E
:102D2000F10083476100636DF60083476100890706
:102D30008607938707028A9783D7C7FEE3FCF6FAD4
:102D40008347610063850710035781008345610055
:102D50008357810003466100834661003347B70211
:102D6000B3E7C7028607B3C7D702BA97C207C183C2
:102D70002314F100034761009947998F93F7F70FE8
:102D8000A303F10083477100F5C303476100954732
:102D900063EEE7029546834761000357A100890768
:102DA0008607938707028A9783D7C7FEBA97C20719
:102DB000C1832315F10083476100850793F7F70F5F
:102DC0002303F10083476100E3F7F6FC0357A100FA
:102DD000834571008357A10003467100834671004B
:102DE0003347B702B3E7C7028607B3C7D702BA971C
:102DF000C207C1832315F100035581008355A1004B
:102E0000835781000356A10085661307004093860F
:102E10000680B307F7403386C640098F8D8EC20700
:102E20004206C18741864207C206B297C1864187E2
:102E3000369793D6F7011355F701B6973A95858BD8
:102E40000585958F3E9542054185056182809307F2
:102E500000402314F100034761009947998F93F7CD
:102E6000F70FA303F1008347710085F3856793870C
:102E700007802315F10049B71C4141677917F98F85
:102E80001CC1232005002322050023240500B707C9
:102E9000024023260500138787006304E504138797
:102EA000C701630BE502138707036307E504138774
:102EB0004704630AE504138787056309E50213875E
:102EC000C7066307E504138707086309E50413874A
:102ED00047096308E5008280D8431367070FD8C30A
:102EE0008280D8431367F700D8C38280D843B706DF
:102EF0000F00558FD8C38280D8438566938606F02D
:102F0000558FD8C38280D843BD66558FD8C3828081
:102F1000D843B706F000558FD8C38280D843B70690
:102F2000000F558FD8C3828090519C459449D84951
:102F300083A88501D18FD58FD04DD451D98FB3E7D8
:102F40001701184103A88502D18FD58FE176BD0600
:102F5000D045758FB3E707019441D98F1CC1DC417F
:102F600050C114C55CC582801C4189C593E7170018
:102F70001CC1828041677917F98F1CC182804CC1C6
:102F80008280B70702409C437D8D3335A00082804C
:102F9000B7070240C8C3828058410C410328C500CE
:102FA000B7060140938706403E9713C6F5FF6303BB
:102FB000080483A80640032885004143B3F8C800ED
:102FC00023A01641D443F18ED4C31443CD8E14C331
:102FD000184190479346F7FF758E90C7D047F18E02
:102FE000D4C7630D68003E98832708005D8F2320B7
:102FF000E80082801C43F18F1CC382809447D98EE5
:1030000094C7D447558FD8C78280B707014023AAF9
:10301000A7408280B7066745B727024093863612DD
:103020003797EFCDD4C31307B79AD8C3D4D3D8D327
:103030008280372702401C4BA166D58F1CCB828033
:10304000B7270240984BB7060200137505F0558F5D
:1030500098CBC8CB944B3727024093E6060494CB19
:103060005C47858BF5FF1C4B8176FD16F58F1CCBDD
:103070008280372702401C4BC166137505F0D58F3F
:103080001CCB5C47858BF5FF372702405C47898B5B
:10309000F5FFAE86158D93850510372702409042C7
:1030A000B387A600910690C35C47898BF5FFE39830
:1030B000B6FE1C4B37062000B7260240D18F1CCB32
:1030C000DC46858BF5FF9C4A41777D17F98F9CCABA
:1030D000828003A8850093770801137EF80081C7DA
:1030E000DC41336EFE00B7270240985BB707000F44
:1030F000F98FE9EB8547A381F186B7170140630A91
:10310000F50C83D6050093F7F60FB5E39307F00FA0
:1031100063FED7040323450001478548930E8002D0
:10312000130F8004A14521A00507630FB702930781
:103130008700B397F80033F6D700E397C7FE630123
:10314000D80B6313E8011CC913162700BD47B397BA
:10315000C70093C7F7FF33F367003316CE0033631E
:1031600066000507E315B7FC232265008280032370
:10317000050081478548930E8002BD4F130F8004E0
:10318000A14521A08507638CB7023397F8003376F9
:10319000D700E319C7FE6304D8076313E80118C911
:1031A000139727003396EF001346F6FF337366003C
:1031B0003317EE00336367008507E398B7FC2320DD
:1031C0006500A9B7B7170140E31DF5F283C7318643
:1031D0008DDB83D60500B5822390D500C9FA8280A5
:1031E000131627005CC9BD47B397C70093C7F7FF05
:1031F00033F367003316CE00336366009DB758C9BA
:10320000139727003396EF001346F6FF33736600DB
:103210003317EE003363670045B7B7170140630704
:10322000F5001C45FD8D3335B000828083C73186A3
:10323000EDDB1C45B581FD8D3335B0008280B717BD
:1032400001406304F5000CC9828083C73186E5DF45
:10325000B5810CC98280B71701406304F5004CC9E1
:10326000828083C73186E5DFB5814CC98280EFF269
:103270002FEC8357450001112A84680093940701BD
:103280002E89052ED24737470F001307072433D75F
:10329000E702C18093F404FCC204C1800326090044
:1032A00061651305056A93150701C181CD8C231251
:1032B000940083560400C206C182F99AC206C182F4
:1032C0002310D4006363C5060606B3D7C7021147AF
:1032D00093960701C18263E0E60A8505C205C181B4
:1032E000C207C1832310B402231EF40083570400D5
:1032F000835649008355A90093E717002310F40073
:10330000835704000357C90003568900C207C183CD
:10331000CD8E93F757BFD58F2310F400B367C70046
:103320002314F40005616FF0EFE283556900B16684
:10333000FD166384D50493161600B2968E06B296D7
:10334000B3D7D7029166C207C183D58F9396470141
:1033500099E293E717009306C0123307D702A166DC
:10336000D58F9306803E3347D70205074207418336
:103370002310E40295BF91478DB793161600B296BD
:10338000B3D7D702C207C183D1B78357050091C510
:1033900093E717002310F5008280C207C183F99BD1
:1033A000C207C1832310F50082808357050091C5B1
:1033B00093E707102310F5008280C207C18393F7BB
:1033C000F7EFC207C1832310F50082808357050001
:1033D00091C593E707202310F5008280C207C183BF
:1033E00093F7F7DFC207C1832310F500828083576C
:1033F000050091C593E707402310F5008280C207BE
:10340000C18393F7F7BFC207C1832310F500828001
:103410002318B500828093F7E50F19C293E71500D2
:103420002318F50082808357050091C52167D98F45
:103430002310F5008280C607C5832310F500828023
:10344000035745018357850113950701598D6D8DEC
:10345000220521810D8D133515008280411102C492
:1034600002C693D7C5012AC63EC4A247A205A181C0
:1034700099CBB247D1073EC6B247884341016D8D13
:103480003335A0008280B247C181E1073EC6B24712
:10349000884341016D8D3335A0008280938741863A
:1034A00098430346050015EB8347250037E700E006
:1034B0009207329793F7F70F2300F74054410547DF
:1034C000935756003317C70085CE938707048A07A2
:1034D000B7E600E0B69798C38280984385466309B3
:1034E000D7028C430947638EE50498438D466300F9
:1034F000D70498439147E313F7FC834715007DB742
:10350000938707068A07B7E600E0B69798C38280DC
:10351000834725008346150092076380E60437E75A
:1035200000E093F7F70F32972300F74041BF83463F
:103530001500834725006365D7028606B697920774
:10354000F9BF034715008347250063FFE60079179D
:103550000A07BA9793F7F70F920793E707F8C1B7EF
:10356000F1168606B697FDB70A07BA97920745BFC8
:10357000B7160240DC4271771307F77FF98F0E050B
:103580005D8DC8C28280B7170240D843B70640FF9E
:10359000FD16758FD8C3D8435A05598DC8C382808C
:1035A000B7160240DC4251777D17F98FC98FDCC214
:1035B0008280B7160240DC42214613F7C700B717D6
:1035C0007A00938707206302C7061CC137160240A2
:1035D000584297D6FF1F9386E6A211833D8B3697FC
:1035E00003470700B3D7E7005CC1584221831D8B16
:1035F00036970347070033D7E70018C558422D8395
:103600001D8BBA9603C7060097D6FF1F938686C503
:10361000B3D7E7005CC5584239830D8B3697034713
:103620000700B3D7E7021CC98280DC42D84241665A
:10363000C983BD8B8907C546718F638ED70211EF91
:103640003747024003270780418B19CF37177A008D
:1036500013070720B387E7028DBF3717024058438F
:10366000B7060200758F7DD337173D00130707900B
:10367000B387E70299BFC9476DF3D9B799C5371723
:1036800002405C4BC98F5CCB8280B7170240D84B9D
:103690001345F5FF798DC8CB828099C53717024055
:1036A0001C4FC98F1CCF8280B7170240984F13451B
:1036B000F5FF798D88CF828099C5371702405C4F1E
:1036C000C98F5CCF8280B7170240D84F1345F5FFF2
:1036D000798DC8CF828003D6250083D7050083D695
:1036E000450003D7650083D88500D18F03D8A50096
:1036F000D58FD98F83D6C500B3E7170103570500CF
:1037000003D6E500B3E70701D58F8D6693860604DF
:10371000758FD18FD98F2310F5008357C5017D7721
:1037200083D605011307F77FF98F231EF5002318B1
:10373000D50082808357050091C593E707042310C5
:10374000F5008280C207C18393F7F7FBC207C183EC
:103750002310F50082808357450009C6CD8F2312C0
:10376000F500828093C5F5FFED8F2312F50082806E
:103770008357450091C593E747002312F5008280E7
:10378000C207C183ED9BC207C1832312F50082806B
:103790008357050037370140130707C0C20783D698
:1037A000050003D6450003D86500C1836307E5041F
:1037B000370700406300E50213070740630CE5008C
:1037C000371700409308078063061501130707C0E9
:1037D0006317E50003D7250093F7F7F8D98F93F720
:1037E000F7CFB3E707012310F5002316C502231412
:1037F000D5028547231AF500828003D7250093F769
:10380000F7F8D98F93F7F7CFB3E707012310F50047
:103810002316C5022314D50283C785002318F50299
:103820008547231AF50082808357050091C593E7E9
:1038300017002310F5008280C207C183F99BC207DD
:10384000C1832310F50082808357C50009C6CD8F40
:103850002316F500828093C5F5FFED8F2316F50042
:1038600082808357C50009C6DD8D2316B50082808E
:1038700093C5F5FFED8F2316F500828083578500F1
:10388000C207C183E19BC207C1832314F500828074
:103890002314B502231AC500828083570500C2078E
:1038A000C18393F7F7F8CD8F2310F50082808357FB
:1038B0008501C207C183DD9BCD8F231CF50082806B
:1038C0008357C501C207C183DD9BCD8F231EF50041
:1038D00082808357C5017D771307F77FF98FA20593
:1038E000CD8FC207C183231EF50082808357050256
:1038F000C207C183F59BCD8F2310F50282808357C9
:103900000502A205C207C18393F7F7DFCD8FC20777
:10391000C1832310F50282808357050279777D17D2
:10392000F98FB205CD8FC207C1832310F5028280C3
:10393000035705028547B397B70093C7F7FF7D8FFD
:103940002310E502835705023316B600D18FC20754
:10395000C1832310F5028280035705028547B39780
:10396000B70093C7F7FFF98F2310F50293F775FFA0
:10397000610595C3F115C205C1818581AA959C4158
:1039800065777D17F98F9CC19C41220642064182D2
:103990005D8E90C182808581AA959C4193F7F7F84E
:1039A0009CC19C415D8E90C182802316B5028280AD
:1039B000231AB5028280231EB50282802310B5042B
:1039C000828083570500C207C18393F7F7CFC207F0
:1039D000C1832310F50083570500CD8F2310F50018
:1039E0008280835705010355C500ED8F4205418153
:1039F00089C76D8D3335A00082800145828093C5D3
:103A0000F5FFC205C1812318B5008280EFE25FF2A5
:103A10000357050183D76500F576FD16758FD98F9D
:103A200003D7C5002318F5008356C50083D745008A
:103A30007D762A841306369F03D58500F18EAE84E9
:103A400083D5A500D58FC98FCD8F2316F40083575A
:103A5000440101116800C207C18393F7F7CFD98FE2
:103A6000231AF400B936B747014093870780630BE8
:103A7000F40852468356C40093171600B297C20644
:103A80008E07C1869840B29763C006040A07B3D771
:103A9000E702930640060356C4004206418633D728
:103AA000D702B3F7D7021207634006049207938741
:103AB0002703B3D7D702BD8BD98FC207C183231485
:103AC000F40005616FE01FE90607B3D7E70293062C
:103AD00040060356C4004206418633D7D702B3F7E7
:103AE000D7021207E35406FC8E0793872703B3D748
:103AF000D7029D8BD98FC207C1832314F4000561BF
:103B00006FE05FE56246BDB78357C50091C50967A1
:103B1000D98F2316F500828079777D17F98F2316C8
:103B2000F500828093F7F50F05479583B315B7002D
:103B30006384E702894613074501638CD7001C4361
:103B400001C6CD8F1CC3828093C5F5FFFD8D0CC3CC
:103B5000828013070501E5B71307C500CDB793F5BC
:103B6000F51F2312B5008280035545001375F51F1C
:103B70008280035505006D8D3335A000828093F659
:103B8000F50F054695822A87B317B600638BC602E8
:103B900009466383C6028356450133F5F600835711
:103BA0000700C207C18301C9A18105473317B700C8
:103BB000F98F3335F00082808356050133F5F60026
:103BC000F9BF8356C50033F5F600D1BF730020302E
:103BD00001A0EFE2FFD503A7818F95472A84630AEE
:103BE000F70083474500A3040500A302F5006FE03A
:103BF0007FD603457500EF60C00793070002E31806
:103C0000F5FE03475400834744006308F7046379D3
:103C1000F70483468400998F93F7F70F93F4F60F18
:103C200063EAD7020C402686138541B5BA95EFE0CA
:103C30003FD383475400268603457400BE9493F413
:103C4000F407A3029400938541B5EF40A05DA3045F
:103C5000040071BF93F4F70FF1B783479400C1DB01
:103C6000930700F87DB7EFE2BFCC83A6818F15479D
:103C7000834745002A846388E600A302F500A30475
:103C800005006FE03FCD1841938617002302D50051
:103C9000BA972380B70083474500834655001397A2
:103CA000870161871347F7FF7D87F98F2302F500AE
:103CB000E399F6FC8547A304F5002285193F834765
:103CC0009400E5FF6FE01FC9EFE29FC61384C19126
:103CD00083A6818F1547834744006388E600A302CB
:103CE000F400A38201926FE0FFC61840938617008C
:103CF0002302D400BA972380A70083474400834659
:103D000054001397870161871347F7FF7D87F98F69
:103D10002302F400E399F6FC8547A304F40022850E
:103D20004D3D83479400E5FF6FE0DFC2EFE2BFBE89
:103D30009387819303A98701C04B1306F003814544
:103D400013051900EFE09FC5834614000547815510
:103D50002301D900034624002302E90083474400DD
:103D60002300B900A300C9002303E900A302F9005E
:103D70009305000F6382B72663EBF52051476388F4
:103D8000E72E637AF714130720086398E7220347A6
:103D90007400834664000346540081450545EF10D6
:103DA0001049034774008346640003465400854568
:103DB0000545EF10D047034774008346640003466F
:103DC000540089450545EF1090460347A4008346FB
:103DD0009400034684008D450545EF105045034788
:103DE000A400834694000346840091450545EF10E6
:103DF00010440347A400834694000346840095457D
:103E00000545EF10D0421309B400994493091002FC
:103E1000034729008346190003460900A685850447
:103E2000054593F4F40FEF1090400D09E39234FF31
:103E30000347B40B8346A40B0346940B814501450D
:103E4000EF10F03E0347B40B8346A40B0346940BDC
:103E500085450145EF10B03D0347B40B8346A40BE5
:103E60000346940B89450145EF10703C0347840BD2
:103E70008346740B0346640B8D450145EF10303BC0
:103E80000347840B8346740B0346640B914501453D
:103E9000EF10F0390347840B8346740B0346640B21
:103EA00095450145EF10B0381304340B99441309BC
:103EB0001002034724008346140003460400A6852D
:103EC0008504014593F4F40FEF1070367514E392F6
:103ED00024FF6FE09FA741476384E71A4547639E2D
:103EE000E70C83455400034764000945A303B90068
:103EF0002304E900954513077900B2968506B69725
:103F0000AE978507A301B90093F7F70F3306A70013
:103F1000834607000507B69793F7F70FE31AE6FE07
:103F20009305000E4A95A303F50013858193253B65
:103F3000054485449389819319A835338347390013
:103F400005041374F40F9107A28463CE8702CA9408
:103F500083C504004E859387050393F7F70EF1FFA1
:103F60009305000D093383C504004E850504FD1536
:103F700093F5F50FCD39834739001374F40FA284FC
:103F80009107E3D687FCEF3030596FE01F9C930513
:103F9000200F638BB7129305300F6397B700A3030D
:103FA000E9002304E90029A01307100F6397E70035
:103FB0000D4599451307790089B736967D57B29715
:103FC0008D072302E9000D47A301E90093F7F70FDE
:103FD0009305000E0145B9B71767000013074700A6
:103FE00003450700976500009385450003C305005E
:103FF00083C8150003C82500A303A90003C5350025
:1040000083C545008343170083422700834F370051
:10401000034F4700834E5700034E67000347770066
:10402000230AB900FD552307E900A30AB90029476F
:10403000930500FAA307E900A309A900230BB9001F
:1040400023047900A30459002305F901A305E9011C
:104050002306D901A306C90123086900A308190191
:1040600023090901130779004145CD4579B5034777
:10407000540005459145A303E90013077900B5BD38
:104080008146014681450545EF10302081460146B5
:1040900081450145EF10701F034729008347190030
:1040A0000346490083465900BA978D0703476900C4
:1040B000B297B697BA970D4783450900A301E90067
:1040C00093F7F70F0145B9BD1307A0FAA303E90061
:1040D000130730052304E9000945954513077900C6
:1040E00029BD83C7018B81E78547238DF1868280B7
:1040F000EFE27F8283A4419303C65400238D01869F
:104100009305660093F5F50F2380B400D1C1150621
:10411000938714001376F60F3E96268781478346D1
:1041200007000507B69793F7F70FE31AC7FEA695A2
:104130002380F5001385C1919305000E2D360144AF
:104140009389C19109A8053683C704000504137437
:10415000F40F63ED870233898400834509004E859F
:104160009387050393F7F70EF9FF9305000DE53CE0
:10417000834509004E850504FD1593F5F50FE534DB
:1041800083C704001374F40FE3F787FC6FE0EFFBC1
:10419000814771BFEFE2CFF99387C191804FC44B44
:1041A0001306000881452285EFE04FFF03C7240076
:1041B00083C6140083C734002301E4001947230099
:1041C000E400A300D400A301F40013071008636700
:1041D000F7021307F0026377F702938707FD93F75F
:1041E000F70F13071005636FF70017670000130739
:1041F00067E08A07BA979C43BA9782871307000F34
:10420000638CE70083C7018B81E78547238DF186A7
:10421000EF3090306FE00FF497670000938707F25C
:1042200003CE070003C3170083C8270003C8370065
:1042300003C5470083C5570003C6670083C67700E0
:1042400003C78700BD472300F400A547A302F4007D
:104250002303C401A303640023041401A304040181
:104260002305A400A305B4002306C400A306D400BC
:104270002307E40083C7018BC9DB59BFEF2020036C
:1042800041BF03C8540003C5640083C5740003C65E
:10429000840083C6940003C7A4009387C18623804B
:1042A0000701A380A7002381B700A381C700238251
:1042B000D700A382E70083C7018BA1DB91BF1384E2
:1042C00054002285EF00D01515FD03C69400138716
:1042D000C186814691452285EF10505E15BF03C50A
:1042E000940013096400CA85EF00B0196304050E39
:1042F000834704004147A302E400C1072300F40000
:1043000083C7018BE38307F021B785450145EF1093
:10431000B05283C7018BE38A07EEDDBD81450145BD
:10432000EF10905183C7018BE38107EED5B5EF20E5
:104330007029F9BD83C6740003C6640083C55400A8
:104340000945EF10807483C7018BE38007ECC9B582
:1043500003C8540003C5640083C5740003C6840009
:1043600083C6940003C7A400938741870DBF1384BD
:1043700054002285EF00D00AE31605E803C6940036
:1043800013874187854691452285EF10305349B503
:10439000930700022302F40083C7018BE38707E63B
:1043A00085BD9306F00F1306F00F9305F00F094536
:1043B000EF10A06D81BD9D472300F400930740F9E5
:1043C0002303F4008547A302F40083C7018BE38E27
:1043D00007E23DBD03C59400CA85EF10705B0DBDBB
:1043E000EFE28FD2138481930347A400032C44018E
:1043F00045C39389B186130B000E954B930A000DAC
:10440000138AA18613090002FD54834604015C440B
:1044100003C60900B69783C70700638D6707630764
:104420005609638D57098346140103460A0058480C
:1044300036972300F7000347140105071377F70F9A
:10444000A308E40063F7EB0083463C006D17630CA0
:10445000D7080347A40083450401938607F3B336C6
:10446000D0007D17B306D0403E961377F70F850531
:10447000F58F2300CA002305E4002308B40023803D
:10448000F90041F70945EF5010000347A40035FF3C
:104490006FE00FCB630C5601A384019423002A0123
:1044A000A3019C0013060002814651B7850783468D
:1044B000140103460A0093F7F70F95BF7D17137792
:1044C000F70F8506930700FD2380F9002305E4001C
:1044D0002308D4001DFB0945A3850186EF50A07A6F
:1044E0000347A4006DB7638CC7020347A40083474A
:1044F0000401A38401947D171377F70F85072385A3
:104500000186A38501862305E4002308F400E31E49
:1045100007EE0945EF5020770347A4008DBFEFF069
:10452000FF80E1B7EFE24FBE1384C19103C7018B57
:104530008347A400631107144448938A9186D9CF16
:10454000130C000E938B8186954C130B000D130AF0
:1045500000FDFD59015983460401584403C60A0071
:10456000369783450700638D85076304660B638672
:10457000650B034714015C4883C60B00BA97238080
:10458000B70083471401850793F7F70FA308F400DA
:1045900063F7FC0003C70400FD176383E70A834742
:1045A000A40003460401138705F33337E000FD1729
:1045B0003307E040AE9693F7F70F0506F98D238099
:1045C000DB002305F4002308C4002380BA00C1F7F0
:1045D0000D45EF50406B8347A400B5FF6FE04FB629
:1045E00063096603A3860192FD172380340193F7C4
:1045F000F70F85062384018623802A012305F40012
:104600002308D400A9FB0D45EF50E0678347A400C1
:10461000E9B7850593F5F50FA9BFFD1793F7F70FD8
:10462000850623804A012305F4002308D40085F77A
:104630000D45A3840186EF5000658347A40071BF38
:10464000913E8347A40003470401A3860192FD170E
:1046500093F7F70F050723840186A38401862305BA
:10466000F4002308E400E39807EE0D45EF50A06145
:104670008347A4009DB7B9C383470401B7440140F1
:104680009384048058442685BA9783C50700EFF0C9
:104690000FCD930500082685EFF0AFCD7DD9834778
:1046A00004010347A40085077D1793F7F70F1377DD
:1046B000F70F2308F4002305E40069F70D45EF50D8
:1046C000805C6FE0EFA7EFE2AFA6193BA13D138539
:1046D0008193EFF00FD01385C191EFF08FCF83C797
:1046E000A18799E36FE00FA7EFF09FA06FE08FA67F
:1046F000EFE20FA49384C18003C404009307F00F7A
:104700006301F4049386C18783D706000567130706
:1047100087388507C207C1832390F6006366F70ACE
:1047200009496301240F636089023DC83754004082
:10473000B7050300850513050440EFE07FD0631043
:1047400005106FE02FA18D47E31DF4FE375900409F
:10475000B70507009385450813050940EFE05FCED4
:104760006DD1854513050940EFE05FC683C7E1873A
:104770009386D180850703C70600238FF186239E89
:10478000018683C7E18763EDE70C238F0186FD5720
:104790002380F4009547E316F7FA2380860055B787
:1047A00037540040B705020013050440EFE01FCB6B
:1047B00049F9854513050440EFE03FBF8547238055
:1047C000F400239E0186B5BF375400401305044012
:1047D0008545EFE05FC5130504408145EFE0BFC4A8
:1047E000130504408145EFE05FBA85451305044099
:1047F000EFE0BFB923860180238F0186239E0186C7
:104800006FE04F9537540040B705070093852508A2
:1048100013050440EFE0DFC2E30505F203C7E187BB
:1048200093870181BA9783C5070013050440EFE021
:104830003FBE8D472380F400239E018619B703C72E
:10484000E18793870185BA9783C507000146130561
:104850000440EFE05FBC23802401239E0186D5B590
:1048600023860180F9BD03C7C1809307F00F63035E
:10487000F7008280EFE2CF8B1384B1800345040000
:10488000239E018623860180EF300038814517057D
:104890000000130525E6EF3060362300A4006FE02A
:1048A0006F8B1345F5FF9357650093E707FC13677C
:1048B00005FC93F7F70F1377F70FA2073181D98F14
:1048C00093860181136505FC2390F6002381A600E1
:1048D00003C7C1809307F00F6303F7008280EFE204
:1048E0002F851384B18003450400239E018623860F
:1048F0000180EF306031814517050000130585DF29
:10490000EF30C02F2300A4006FE0CF8405661306AC
:10491000068083A5C18117C5FF1F130525E06FE041
:104920002F84EFD25FFF0144014A814913898181BD
:104930009384C181196BB71A024035A0EFE08FED67
:10494000884085492295EFE0AFEF83250900884034
:10495000A2952295EFE0EFF1EFE0AFED1304041024
:10496000930704808DCB832509008840130600102F
:10497000A2952295EF50006375D1E39109FCEFE019
:10498000EF822A8A73100B8083A74A0093E70708F7
:1049900023A2FA0065B7639409006FD01FFB371795
:1049A00002405C43528593F7F7F75CC3EFE06F80FA
:1049B0006FD0BFF923A20188828023A2018803A7B8
:1049C0008181AA8735C30347870085460145630374
:1049D000D7008280FDDFF5DD83C60700E39BE6FE9E
:1049E00003C717001306E002E315C7FE03C805005E
:1049F00013068008E31FC8FC83C515001306400B8F
:104A0000E399C5FC83C5270003C637009387018857
:104A10002380D700A380E7002381B700A381C700CC
:104A2000054523A2D18882800145828003A5418863
:104A30007D15133515008280EFD29FEF13844188D6
:104A40001840854741116313F70E23A2018879CDE1
:104A5000AA8541460A85EFD0BFF0930801010A8775
:104A6000175500001305456E856683470700050747
:104A7000AA97B69783C70780A30FF7FEE397E8FED0
:104A80000348F1009305F10093574800938677009F
:104A9000139726003697939627003A983383D700CA
:104AA000330368401303D3FD4203135303016D180E
:104AB0000346E1004208135808018A87B28603C6FC
:104AC00007008E06850713575600558FA38FE7FE04
:104AD000E396F5FE93767800A2060A8783470700DF
:104AE0000507B697AA9783C70700A30FF7FEE397BA
:104AF000E5FEE31E68FA13076100A5468347070039
:104B0000050713D64700BD8B63E2C60263E0F602D9
:104B1000E396E8FE02479387814B98C31247D8C3B8
:104B2000224798C73247D8C789471CC041016FD078
:104B30007FE203A741888947631AF70083A7818131
:104B400091C783C7870005476380E70A854723032A
:104B5000F50093070002A303F500C1472304F50005
:104B600003CF050083CE150003CE250003C3350017
:104B700083C8450003C8550083C6650003C7750098
:104B8000A304E5012305D501A305C501230665009E
:104B9000A306150123070501A307D5002308E50097
:104BA000034E0600034316008348260003483600E0
:104BB0008345460083466600034776000346560059
:104BC00093071501A308C50123096500A309150171
:104BD000230A0501A30AB500230BC5004D45238315
:104BE000D700A383E7008280138701882303F500A1
:104BF0008345070003461700834627008347370095
:104C00004147A303E50011472304E500A304B500D1
:104C10002305C500A305D5002306F5001D458280A8
:104C200083A641880947AA8701456383E6008280FD
:104C300003A78181014565DF834687000547E39827
:104C4000E6FEF5D71387018803C6070083460700F1
:104C50006306D600054513451500828003C617007C
:104C600083461700E318D6FE03C6270083462700B5
:104C7000E312D6FE83C6370083473700E39CF6FC79
:104C8000D9BFEFD2FFCA83A441880947639EE400DD
:104C900003A781812A84014511C783468700054700
:104CA0006387E6006FD01FCB01456FD0BFCAAE87C8
:104CB000F5D9414681453E85EFD05FCE630494002F
:104CC0000545CDB741469385814BEFD07FC905455A
:104CD000D1BFEFD2FFC51384814C13060004814578
:104CE0002285EFD0BFCB9307A0FA2300F4009307EF
:104CF000101E2311F400EF2050472312A400EF00F0
:104D0000B039AA8713060004A28511452313F400C5
:104D1000EF3040516FD01FC4B7F7FF1F83A6877EC7
:104D200003A7C77E83A7077F93DF860013DF0601F3
:104D300093DE8601135E87001353070193588701A2
:104D400013D8870093D5070113D68701A301D50097
:104D50002301F501A300E5012300D501A303E5002C
:104D60002303C501A302650023021501A305F50075
:104D700023050501A304B5002304C500828091BF6B
:104D8000EFD21FBB13848150034704009307A00A8E
:104D90006304F7006FD01FBC1306E0038145138541
:104DA000A14CEFD0BFBF0347140083472400938476
:104DB000814C9306A0FAA380E4002380D40013075B
:104DC000000B6369F7041397870161876345070246
:104DD0001387F7FF1377F70FBD4663EDE6084147EA
:104DE000636AF70817670000130707C68A07BA97B0
:104DF0009C43BA97828793C7070813070003636B26
:104E0000F70617670000130767C88A07BA979C431D
:104E1000BA9782871307200E6389E7066373F70248
:104E20001307300E6398E7049307301E130600043F
:104E3000A68511452391F40023840188EF30803E3C
:104E400091BF1307000E6388E7001307100E6393EA
:104E5000E702413581B7834744001307001E2391C1
:104E6000E4006380072A05476384E720FD57A38198
:104E7000F4000DB7FD57130600049385814C1145CE
:104E80002391F400EF30003A31B785472384F1884D
:104E9000130600049307201EA68511452391F400F4
:104EA000EF304038C5BD1385C14CBD3593070011A7
:104EB000130600049385814C11452391F400EF30D3
:104EC0006036C9BD0347440091472381F4008546FD
:104ED0009307F00F63E7E60083A781812384E7004F
:104EE0008547130600049385814C1145A381F40086
:104EF000EF30403345B583A7818183C7870013070F
:104F00003010130600049385814C11452391E40071
:104F10002382F400EF300031B5BD0347440083A77E
:104F20008181130600042383E7009385814C930756
:104F3000201011452391F400EF30C02EA1BD83A7AE
:104F4000818183C76700130710101306000493853F
:104F5000814C11452391E4002382F400EF30802C32
:104F600015BDEFF0BF9A9307001813060004938550
:104F7000814C11452391F400EF30C02A21BD034537
:104F800044009307F00F834884008345940003474F
:104F9000A4006307F5269306000F03485400630C32
:104FA000D52C6309F824AE864686C285EF003028EA
:104FB0009307001B130600049385814C1145239130
:104FC000F400EF302026F9B3EF20301A2A84EF20C6
:104FD00070199317040113170501C183D98F1306A4
:104FE00000041307101A9385814C11452391E400A6
:104FF000DCC0EF30202379BBEF20F02E9307001A9E
:10500000130600049385814C11452391F400EF3081
:10501000602149B383A781819C43130600049385D3
:10502000814CDCC01145930710192391F400EF3037
:10503000601F8DB3584083A781811306000498C375
:105040009385814C9307001911452391F400EF30AB
:10505000601D89B3EFF0FF8C93071018130600044E
:105060009385814C11452391F400EF30A01B1DB3B3
:1050700083455400054593D6250013D61500858A2F
:10508000058A8589EF009020834564000D4593D6FD
:10509000250013D61500858A058A8589EF00101F23
:1050A00083457400154593D6250013D61500858ACF
:1050B000058A8589EF00901D83458400014593D6BC
:1050C000250013D61500858A058A8589EF00101CF6
:1050D00083459400094593D6250013D61500858A8B
:1050E000058A8589EF00901A8345A400114593D65F
:1050F000250013D61500858A058A8589EF001019C9
:1051000051B9034774008346640003465400814547
:105110000545EF00D0110347A400834694000346E1
:10512000840085450545EF0090100347D400834671
:10513000C4000346B40089450545EF00500F0347FE
:1051400004018346F4000346E4008D450545EF0065
:10515000100E034734018346240103461401914590
:105160000545EF00D00C0347640183465401034614
:10517000440195450545EF00900B03479401834694
:1051800084010346740181450145EF00500A03473D
:10519000C4018346B4010346A40185450145EF00DF
:1051A00010090347F4018346E4010346D40189450D
:1051B0000145EF00D007034724028346140203464B
:1051C00004028D450145EF009006034754028346D3
:1051D00044020346340291450145EF005005034760
:1051E0008402834674020346640295450145EF003C
:1051F00010044DB62E86BA86C685EF0010094DBB49
:105200003A864685EF0050088346A4000346940082
:10521000834584000545EF0070078346A4000346DC
:105220009400834584000D45EF0050068346A4009A
:1052300003469400834584001545EF0030058346FE
:10524000A40003469400834584000145EF00100448
:105250008346A40003469400834584000945EF007B
:10526000F0028346A4000346940083458400114560
:10527000EF00D00135BB2E86BA86C6854285EF0089
:10528000F0003DB383A7818103C7670085476303AF
:10529000F70082809387C1551387C1591388C1597C
:1052A0008843CC439047D44708C34CC310C754C766
:1052B000C1074107E39607FF130600049385C15910
:1052C00005456F203076EFD20FE59387C15D83C629
:1052D000070041476386E600EF2010246FD0EFE619
:1052E00003C717008D466301D70A63EDE6008547C3
:1052F0006305F70A8947E311F7FE93070003A38EBE
:10530000F156D9BF9146E319D7FC83C4270003C7E0
:10531000370083C64700C20493178700DD8CD58C05
:10532000176400001304C48205499D498346B400F4
:105330000346A400834594001305F9FFB3D6D400B7
:1053400033D6C400B3D5B400858A058A8589137520
:10535000F50FEF00A0738346240003461400834535
:1053600004004A85B3D6D40033D6C400B3D5B40004
:105370000909858A058A85891379F90FEF0000717B
:105380000D04E31539FB89BFA38E0156A38A01568C
:10539000239B0156238C015681B713841182034548
:1053A000040093070003A38EF156EF20F005954506
:1053B00017050000130545EDEF2050042300A4005D
:1053C00021BFEFD2EFD683C7E188B9E71306E00229
:1053D00081451385E15AEFD06FDC9387815483A810
:1053E000070003A847009447D84783D70701938550
:1053F000C1594946054523A0150123A2050194C5BD
:10540000D8C52398F500EF20F06109E5854723878B
:10541000F18801456FD00FD493874182984383C7A9
:1054200047009385C15923A0015A23A2015A15466A
:10543000054523A4015A23A6015A23A8015A23AAE9
:10544000015A23AC015A23AE015A23A0015C23A2C6
:10545000015C23A4015C23A6015C23A8015C23AAB0
:10546000015C23AC015C98C12382F500EF20905BC6
:1054700055F123870188014571BFEFD26FCB83A718
:10548000818183C7670009476389E7020D47638FFE
:10549000E70805476382E70413840182034504009B
:1054A000EF20007A854517050000130545FDEF2024
:1054B00040752300A4006FD0EFC9EFF05F8C69FD49
:1054C0001384018203450400EF2080771305F00F59
:1054D0002300A4006FD00FC8138411820345040079
:1054E000EF2080729545170500001305E5D9EF20E0
:1054F000E0702300A4009387C1551387C159138816
:10550000C1598843CC439047D44708C34CC310C704
:1055100054C7C1074107E39607FF130600049385AC
:10552000C1590545EF20105025F959BF83C7D188CF
:1055300099CB413D35F183C7E188D9F3A386018832
:1055400023860188B5BF23870188A53DE31605F4AE
:1055500083C7C18889C78547A386F18835BF23875C
:105560000188B9BFEFD22FBB83D7018913D787003A
:105570009389C155A380F9002381E900A38C0156CA
:10558000239D0156238E0156975400009384845F17
:1055900001443D492285DD2C05041374F40F19C91B
:1055A00083C7040083C61400CE9703C7D701558F65
:1055B000A38EE7008904E31F24FD8397418963C418
:1055C00007006FD08FB83D45D12465DD03C7A90121
:1055D00083C7C90105078507238DE900238EF900DC
:1055E0006FD0AFB6EFD22FB383D7018993C7F7FF40
:1055F000C207C1831387A18885830356070093865A
:10560000418293D58700A380F6002381B60063030F
:10561000F60885462386D1884546814513859154F1
:105620002310F700EFD08FB713898154930710032D
:105630002300F900975400009384C4520144130AD4
:105640000021C149B3578A00858B1375F40F85E398
:10565000352C3307890001CD8347190003C60400A8
:1056600083C61400D18FA300F9002301D7000504DD
:105670008904E31934FD1145112C09E59307300322
:105680002303F9002545192401E59147A305F900F5
:105690006FD0AFAB2386018841B7EFD26FA9D92075
:1056A000E52A9387618983D407002390A7002A8481
:1056B000B3479500239AF188EF20A008EF20E02A55
:1056C000138721899347F5FFC20783560700C183DB
:1056D0002398F1886383F6022310F700EF20C0635C
:1056E00083A7818183C7670005476380E7020D4771
:1056F000638BE70059336FD0EFA52310D700E31F6A
:1057000094FC6FD02FA5F93DF5B7A93DE5B79317E8
:1057100015001387C1623E979386C16483570700C3
:10572000AA9603C6060086078D46D18FC207C1839D
:105730002310F7006381D70241679306F7FF638C5C
:10574000D70071176383E70091E79387C161AA9738
:105750002380070082809387C161AA970547238031
:10576000E7008280EFD2CF993714014085451305B9
:105770000480EFD05FAEB94513050480EFD03FAC95
:10578000371B014093050040130504C0938AC16490
:10579000EFD0FFAA8144214A13090BC08D49154C53
:1057A000914C054D930B0B802945EFD0EFA0D68D82
:1057B0000144B3158A00C205C1814A85EFD0FFA517
:1057C000133515002380AD000504950DE31334FF58
:1057D0008504850A638584076382340563869403A0
:1057E0006385A409914513050B80EFD0DFA6AD4575
:1057F00013050B80EFD0BFA49305004013050BC029
:10580000EFD0FFA389444DB74A8593050040EFD000
:105810009FA4BD455E85EFD09FA279B713050B808D
:10582000A145EFD05FA313050B809D45EFD03FA1AD
:105830009305004013050BC0EFD07FA0B5B7C1455D
:1058400013050B80EFD07F9D133515009387C1643E
:10585000A387A7000144C144228505041374F40FF3
:105860007D35E31B94FE6FD06F8D13050B8089454A
:10587000EFD07F9E13050B80B545EFD05F9C93055D
:10588000004013050BC0EFD09F9B39BF9387C161C8
:10589000AA9703C5070082809386C16181470145AD
:1058A000414603C7060085063317F700598D4205A8
:1058B00085074181E397C7FE8280C205D18D22050D
:1058C00033E6A500014317BFFF1F130F6F7F930E31
:1058D000D039FD559308D0340D4E3308D303154508
:1058E0007A98B306A8005D47B357E600858BFD178D
:1058F00093F7A7FB938737072380F6007D1785066C
:10590000E314B7FE6105E31E15FD0503E317C3FDB0
:1059100082809307D0393308F5024206A205558EDE
:1059200097B7FF1F9387C7794D8E1545FD5593088F
:10593000D0343E98B306A8005D47B357E600858B88
:10594000FD1793F7A7FB938737072380F6007D1792
:105950008506E314B7FE6105E31E15FD8280EFC2E4
:105960003FFD13050020EFD0CFE119E16FC09FFE8E
:1059700013050002EFD0EFE075D937052000EFD016
:105980004FE06DD513050020EFD08FE01305000226
:10599000EFD00FE037052000EFD08FDFB7040040D5
:1059A00013850440814537040240EFD0FFE713051B
:1059B00004038145EFD04FDB1305C4018145EFD0CF
:1059C000AFDA1305C4068145EFD00FDA13050403DF
:1059D0009305D039EFD0AFDA1305C4019305D03960
:1059E000EFD0EFD91305C4069305D039EFD02FD9E6
:1059F0001305C4018545EFD02FD713050403854552
:105A0000EFD08FD61305C4068545EFD0EFD5854579
:105A100013850440EFD05FE16FC0DFF3EFC25FF1A9
:105A2000EF20E0362D3FEFE01FE46FC0BFF2930799
:105A3000200263F3B70082809307D0393305F50263
:105A400093971500AE978E079395060122069386CD
:105A50005700B3E7E5005D8E97B7FF1F9387476652
:105A6000AA96BE965D47FD55B357E600858BB307F2
:105A7000F04093F767049387D7022380F6007D17E1
:105A80008506E313B7FE82800DBD61B53336C000D5
:105A90000606B337D000B335B000D18F8A059386A0
:105AA0008189CD8F36952300F5000146BD47F55518
:105AB00003C7060085063317F700F517598EE399DB
:105AC000B7FE328523A0C18A6FE0BFDD9387C19105
:105AD000D84B9C4F9305650003461700834627006B
:105AE000034737002380B700A380C7002381D70076
:105AF000A381E70023820700A382A700828097A7E3
:105B0000FF1F83C7675181E789472388F18A828015
:105B10008D4763F4A70617C7FF1F1307E7078347DF
:105B2000070083461700D58FB9E783462700930700
:105B3000F00F6392F6048347370083464700BE9612
:105B400093F6F60F8DEAF91793F7F70FA301F70015
:105B50006365F5020346570085059306500D93F5DE
:105B6000F50F631AD600034767006316B700139555
:105B70000701418582807555828071558280EFC210
:105B80003FDB17A4FF1F1304E44803453400894793
:105B900039712300F1009307F00F6307F500EF2040
:105BA000200AFD57A301F400930730209305803E9F
:105BB000170500001305A5212310F400EF20600451
:105BC00097A7FF1F9387874683C6970003C6870062
:105BD00003C7A70083C7B700A206D18E4207558F1F
:105BE000E207A301A400D98F0A85814601468545B5
:105BF000829721616FC01FD6EFC29FD317A4FF1FEA
:105C000013044441034534009307401139713EC0E9
:105C10009307F00F6307F500EF208002FD57A30103
:105C2000F4008565930730109385853817050000CB
:105C30001305E5192310F400EF10B07C97A7FF1FA0
:105C40009387C73E83C6970003C6870003C7A70094
:105C500083C7B700A206D18E4207558FE207A30182
:105C6000A400D98F0A85814601469145829721611A
:105C70006FC05FCEEFC2DFCB17A4FF1F13048439C0
:105C8000B707FF01397193872753034534003EC09E
:105C9000C1472302F1009307F00F6307F500EF10EF
:105CA000307AFD57A301F400930730309305803E0E
:105CB000170500001305A5112310F400EF107074F0
:105CC00097A7FF1F9387873683C6970003C6870071
:105CD00003C7A70083C7B700A206D18E4207558F1E
:105CE000E207A301A400D98F0A85814601469545A4
:105CF000829721616FC01FC6EFC2FFC197A4FF1F2B
:105D00009384443183C614009387C1912547804F03
:105D100003A94701AA896382E604834739008346C1
:105D200019000347290019462300C400A301F40009
:105D3000A300D4002301E40003C534008547238079
:105D4000F400A3020400230234019307F00F63154B
:105D5000F506EFE00FB96FC05FBFEFE03FCD55DD57
:105D60000145EFE07FCD17A6FF1F1306862B97A5F1
:105D7000FF1F9385852A2285EFE0BFDB03461900CC
:105D80008346290003473900930565002300B400CA
:105D9000A300C4002301D400A301E400AA8703C523
:105DA0003400A302F40085472380F400230204009A
:105DB0009307F00FE30FF5F8EF109068FD57A381FC
:105DC000F400EFE00FB26FC05FB8EFC27FB617A765
:105DD000FF1F13072724834607009384C19195472B
:105DE00003A94401804C638BF604834717009D464A
:105DF0002300D7002947636BF700175700001307EC
:105E000067DA8A07BA979C43BA9782878347390033
:105E100083461900034729001946A301F4008D4762
:105E20002300C400A300D4002301E400A302040063
:105E30002302F400EFE0EFAA6FC0DFB18547230033
:105E4000F7006FC03FB1834739008346190003470D
:105E500029001D46A301F40085472300C400A300C8
:105E6000D4002301E40023020400A302F40023036E
:105E70000400EFE00FA76FC0FFAD834739008346F2
:105E80001900034729001946A301F40085472300A0
:105E9000C400A300D4002301E400A30204002302F1
:105EA000F400EFE00FA46FC0FFAAEFE03FB845C1D8
:105EB0000145EFE07FB817A6FF1F1306861697A5CA
:105EC000FF1F938585152285EFE0BFC6D8489C4CFF
:105ED00093056500034617008346270003473700F4
:105EE0002380B700A380C7002381D700A381E700E8
:105EF00023820700A382A700EFE0AF9E35BF83C7D0
:105F0000018B8DFBEFF0BFC735B783C7018BE393E0
:105F100007F28D3305B783473900834619000347DD
:105F20002900A301F400B1474946A302F4008547C4
:105F30002300C400A300D4002301E40023080400CC
:105F4000A30804002302F400EFE0AF99F5B5D848A8
:105F50008346A9019C4C034517008345270003464F
:105F60003700139746001377F70F2309D40023084F
:105F70000400A30804009306370135072380D700E7
:105F8000A380A7002381B700A381C7002382070055
:105F9000A382E700EFE0EF9445B5EFC27F9917A425
:105FA000FF1F1304A408834614000346040003479C
:105FB000240083473400A206D18E420717A6FF1F94
:105FC00013064605558FE207FD56A301D600D98F6B
:105FD0002302060082978346540003464400034789
:105FE000640083477400A206D18E4207558FE207F2
:105FF000D98F82979305400617050000130565B8F1
:10600000EF1030409305800C170500001305C5C63E
:10601000EF10303F9305C01217050000130505BEB1
:10602000EF10303E9305007D17050000130565ADA8
:10603000EF10303D6FC01F92EFC29F8F17A4FF1F5C
:10604000130444FD83473400397113072013C98DAD
:106050002310E1002301B1001307F00F6388E7006C
:106060003E85EF10F03DFD57A301F400930730404B
:106070009305803E17050000130565D52310F40035
:10608000EF10303897A7FF1F938747FA83C6970012
:1060900003C6870003C7A70083C7B700A206D18E37
:1060A0004207558FE207A301A400D98F0A858146D4
:1060B00001468D45829721616FC0DF89EFC25F87FE
:1060C00083475700834E0700034E17000343270002
:1060D0008348370003484700B336D0001376F60FE5
:1060E0003971220693860606D18E130700142E8678
:1060F0002E84AA851305A100A304F10097A4FF1F15
:10610000938444F12310E1002311D1002302D10133
:10611000A302C10123036100A303110123040101B0
:10612000EFC01F8403C534009307F00F6307F50029
:10613000EF101031FD57A381F400930730609305F1
:10614000803E17050000130585C82390F400EF106A
:10615000502B97A7FF1F938767ED83C6970003C651
:10616000870003C7A70083C7B700A206D18E4207E6
:10617000558F9305A400E207A381A400D98F0A8557
:106180008146014693F5F50F829721616FC08FFC20
:10619000EFC20FFA17A4FF1F1304C4E739711307E6
:1061A0000014834734002310E10013070003230188
:1061B000E100A301A1001307F00F6388E7003E850B
:1061C000EF101028FD57A301F400930730709305DA
:1061D000803E17050000130585BF2310F400EF1063
:1061E000502297A7FF1F938767E483C6970003C6D3
:1061F000870003C7A70083C7B700A206D18E420756
:10620000558FE207A301A400D98F0A858146014674
:106210009145829721616FC0EFF3EFC26FF1935701
:1062200085001317850017A4FF1F1304A4DE5D8FDC
:1062300003453400C16739719387A7143EC0231208
:10624000E1002303B100A30301009307F00FB28420
:106250006307F500EF10D01EFD57A301F40085671A
:10626000A6859387378017050000130545B62310D0
:10627000F400EF10101997A7FF1F938727DB83C641
:10628000970003C6870003C7A70083C7B700A2060D
:10629000D18E4207558FE207A301A400D98F0A854A
:1062A00081460146A145829721616FC0AFEAEFC2E6
:1062B0002FE839711384518AEFE0CFEF8347040050
:1062C000A5CF97A4FF1F9384E4D403C5340093079C
:1062D000A0142310F100230101009307F00F6319AC
:1062E000F506930730509305803E1705000013050F
:1062F00005AE2390F400EF10D01097A7FF1F9387EF
:10630000E7D283C6970003C6870003C7A70083C7E9
:10631000B700A206D18E4207558FE207A381A400E1
:10632000D98F0A85814601468D4582978147230092
:10633000F40021616FC00FE241651306803E854580
:106340007D15E13D85472300F40021616FC08FE09A
:10635000EF10100FFD57A381F40061B71D71A2CC9F
:10636000A6CAD6C286CECAC8CEC6D2C4801097AA44
:10637000FF1F938A2ACA2A83C14703C53A008A8429
:1063800063E767189147B28863E3C718330AC3000D
:10639000150A060A137AFA0F13091A0097A7FF1FA6
:1063A0009387A7C71379F90F83C3070083C2170028
:1063B00083CF270003CF370083CE470003CE57009B
:1063C00003C8670003C677001307F9009377071F18
:1063D0003301F14023811A0199472300F100A30002
:1063E000710023015100A301F1012302E101A30285
:1063F000D1012303C101A30301012304C100A304AC
:1064000061008A89630F031213161300290693078C
:10641000A1000A9603D7050089078905135887004C
:10642000A38F07FF238FE7FEE396C7FE93151300A4
:10643000A90593F5F50F3387B9009387150023005D
:10644000170193F7F70F638C080286088508C69535
:1064500093F5F50F03D60600138717003388F9006C
:106460001377F70F935886002300180189074E977A
:1064700093F7F70F2300C7008906E39DB7FC930746
:10648000F00F6310F5088567938737909305803E7A
:10649000170500001305A5932390FA00EF1060760E
:1064A00097A7FF1F938787B883C6970083C5870088
:1064B00003C7A70083C7B70003C65A00A206CD8E44
:1064C0004207558FE20793060004090AA381AA0038
:1064D0002300D4FAA300C4FA230144FBD98FCA864F
:1064E0004E868D45130504FA82972681130104FA1E
:1064F000F6406644D6444649B649264A964A25613E
:106500008280EF10E073FD57A381FA00ADBF9307BF
:10651000F00F6312F5028567938777908145170521
:1065200000001305C58A2390FA00EF10806DA38147
:10653000AA00268165BFEF10A070FD57A381FA0065
:10654000D9BFA945CDBDEFC20FBD97A7FF1F938748
:10655000E7AD83C6D70003C6C70003C7E70083C7FC
:10656000F700A206D18E4207558F9384418AE20735
:106570001384C191D98F17B5FF1F1305E561411130
:10658000A685032A4401832984012382018A8297F4
:1065900003C5040009CD17A9FF1F1309A9A7834745
:1065A00009000D476388E7001147638BE70041014D
:1065B0006FC0AFB991472300F900954763E0A70288
:1065C000834719002947E364F7FE174700001307C4
:1065D00027608A07BA979C43BA97828797B7FF1FAD
:1065E0009387875B03C6470003C727009306F00F16
:1065F00083C50700718F03C8170003C63700E31176
:10660000D7FC83C65700B3E505013367B600558F45
:1066100045FB930AA5FF568697B5FF1F938525581E
:106620003E85EFC04FB513F5FA0F2380A40041D18A
:1066300041BF93050004EFF0AFCD6347050E03455E
:10664000390095472300F9009307F00F6307F50021
:10665000EF10005FFD57A301F90058481C4C494555
:106660008345170003462700834637003147A3823E
:10667000E70003C759002380A700A380B700238148
:10668000C700A381D7002382070023880900A388BD
:1066900009002383E900EFD0DFA411BF93050004B4
:1066A000EFF00FC76342050897B4FF1F9384C44EF1
:1066B00083C7740093F7F7039DE79307F5FF03C7BC
:1066C0008400C207C1876391E70603472900FD17CD
:1066D00012073107639AE70483C7240103C7340113
:1066E000D98F638F073E0545EFF00FE1C9B59305DC
:1066F000A004EFF0EFC1E34805FE97B4FF1F9384B9
:10670000A44983C77400638507220547E39DE7FC1E
:1067100003CA940003C784009307EAFEA302E900BA
:1067200093F7D70F638F07241145EFF0EFDC41B5E6
:1067300093050004EFF0CFBDE34805FE97B7FF1FB8
:1067400083C7F745CDF30345390095472300F9008A
:106750009307F00F6307F500EF10804EFD57A3017C
:10676000F90058481C4C5948834627000345170038
:10677000034737004146A380A700A381E7004147B4
:1067800097B5FF1F9385C541238007012381D7005B
:1067900023820700A382E70013856900EFC04F9CA6
:1067A000EFD03F9429B593050004EFF06FB6E34DA9
:1067B00005F697B7FF1F83C7973E95F70345390046
:1067C00095472300F9009307F00F6307F500EF10DA
:1067D0002047FD57A301F90058481C4C9945034632
:1067E000170083462700034737002380B700A380A4
:1067F000C7002381D700A381E70023820700A3827B
:106800000700EFD01F8E65B39305A004EFF04FB0E3
:10681000E34B05EC0345390095472300F900930746
:10682000F00F6307F500EF10A041FD57A301F90039
:1068300097B4FF1F9384443683C77400638807109E
:1068400003C734009547E3F1E7EE58481C4CB545C3
:106850008346270003461700034737002381D700EC
:106860002380B700A381E7001D47A380C7002382D0
:106870000700A382E70003C7C40083C73400238452
:10688000E90093065700E3D1F6EA814705C3338751
:10689000F4008346D7003387F9008507A304D700A7
:1068A00003C7C40093F7F70FE3E3E7FE85472383AD
:1068B000F900C147A383F900EFD0BF82CDB993059A
:1068C0002003EFF0EFA4E34105E6034539009547C7
:1068D0002300F9009307F00FE30BF5CCEF104036DF
:1068E000FD57A301F900E1B193052003EFF04FA29A
:1068F000E34C05E20345390095472300F90093076F
:10690000F00F6307F500EF10A033FD57A301F90066
:1069100085472302F90061B98945EFF06F9FE35B7A
:1069200005FC19B5D145EFF0AF9EE35505FCEDBB75
:106930000345390095472300F9009307F00F6307DB
:10694000F500EF10E02FFD57A301F90058481C4C4B
:106950009D450346170083462700034737002380E1
:10696000B700A380C700A381E70005472381D700B4
:1069700023820700A382E70023830900EFD06FF68C
:106980003DB10345390095472300F9009307F00F07
:106990006307F500EF10C02AFD57A301F90097B770
:1069A000FF1F9387671F1387990017B6FF1F1306F2
:1069B000261F83C6B70085070507A30FD7FE83C62A
:1069C0002701A303D700E396C7FE83C8190103C8B4
:1069D000290103C5390183C5490103C6590183C68D
:1069E000690103C7790183C7890123071901A30737
:1069F00009012308A900A308B9002309C900A309B4
:106A0000D900230AE900A30AF90083C8990003C842
:106A1000A90003C5B90083C5C90003C6D90083C650
:106A2000E90003C7F90083C70901230319012306FD
:106A3000E900A306F900A30309012304A900A304A4
:106A4000B9002305C900A305D90051478147631840
:106A5000EA0083C7C40103C7B401A207D98F979581
:106A6000FF1F9385855C1795FF1F1305055B231B8F
:106A7000F900EFD09FF40DC1AD472316F100138745
:106A80003901E1779306E10005466C0005452317BF
:106A9000F100EFF0BF8C21BE1796FF1F130666585A
:106AA0009795FF1F938565574E85EFE08F88544873
:106AB0001C4C2A8783C5160003C6260083C63600F1
:106AC00019052380A700A380B7002381C700A381F5
:106AD000D70023820700A382E700EFD08FE0C1BC7C
:106AE0000345390095472300F9009307F00F63072A
:106AF000F500EF10E014FD57A301F90083472900CA
:106B00008DCF55469207330636419386090133856A
:106B10003701CE851376F60F2E87B307E60093F77D
:106B2000F70FA69783C7070005072309F700E316A9
:106B3000D7FEC105C106E311B5FEEFD03FEF0DC58D
:106B400013853901EFD05FEF1796FF1F1306664DCF
:106B50009795FF1F9385654C4E85EFD09FFDEFE025
:106B6000FFF6EFD00FD8A1B48347AA01238809000C
:106B7000A38809001394470035041374F40F238984
:106B8000F9002285EFE09FF423838900EFD06FD5D1
:106B900039BC1D71A2CCCAC8D6C286CEA6CACEC682
:106BA000D2C48010979AFF1F938ACA462A88C14789
:106BB00003C53A000A8963EB071DA94763E8C71CB0
:106BC000131A3600429A329A150A060A137AFA0FF5
:106BD00093091A009797FF1F9387274493F9F90F9A
:106BE00083C4070083C3170083C2270083CF370005
:106BF00003CF470083CE570003CE670003C377005F
:106C00009388F90093F7081F3301F1402381CA00EC
:106C1000A147A30091002300F10023017100A3010B
:106C200051002302F101A302E1012303D101A303D7
:106C3000C10123046100A30401018A8463020818CE
:106C4000131E1800290E9307A1000A9E83D8050081
:106C50008907890513D38800A38F67FE238F17FF49
:106C6000E396C7FF93151800A90593F5F50F338830
:106C7000B400938715002300C80093F7F70F3DCEAB
:106C8000131816000508C29593F8F50FBE8503D3B7
:106C9000060013881500338EB4001378F80F935E46
:106CA00083002300DE018905269893F5F50F230064
:106CB00068008906E39D15FD9306F6FF8606B697E4
:106CC00093F7F70F998F9315460013862700BA861E
:106CD000930807011376F60F2E97B68503C80500B3
:106CE000B307B60093F7F70FA69723800701850532
:106CF000E396B8FEC106C108E391E6FE9307F00FE4
:106D00006310F5088567938737A09305803E17F5D4
:106D1000FFFF1305C50B2390FA00EF00906E9797C5
:106D2000FF1F9387A73083C6970083C5870003C7DB
:106D3000A70083C7B70003C65A00A206CD8E42073C
:106D4000558FE20793060004090AA381AA002300D5
:106D5000D4FAA300C4FA230144FBD98FCE86268639
:106D60008D45130504FA82974A81130104FAF6400F
:106D70006644D6444649B649264A964A25618280E9
:106D8000EF00106CFD57A381FA00ADBF9307F00F21
:106D90006312F5028567938777A0814517F5FFFF9A
:106DA0001305E5022390FA00EF00B065A381AA0065
:106DB0004A8165BFEF00D068FD57A381FA00D9BFB3
:106DC000A94575B5EFB2DFB69385C191DC499796B9
:106DD000FF1F9386262403C5D60083CF660003CF0A
:106DE000760083CE860003CE960003C3A60083C838
:106DF000B60003C8C60003C6E700984D2386A70067
:106E0000A382F701130516002383E701A383D701AB
:106E10002384C701A384670023851701A385070185
:106E2000A303A700214541116307A60A637AC5049D
:106E3000B1476304F60E9307400A6312F612D44971
:106E40009C4D454583C5160003C6260083C6360003
:106E50002380A700A380B700A381D700AD4623817C
:106E6000C70023820700A382D700230807008347B7
:106E700057002303F700EFD0CFA641016FB09FADBD
:106E8000630806109946631CD60C83C6970183C518
:106E9000870103C6A701A206CD8E2313D100931844
:106EA000160034003685BE9811CE83C5B70103C8DD
:106EB000C7018907A205B3E505012310B50009053F
:106EC000E39517FF930561004D070545EFF00FC9E6
:106ED00041016FB03FA803C7C70103C6B70103C88C
:106EE000970183C687012207518F931887002208D4
:106EF00021833368D800B3E8E800340093056100CB
:106F00001387D701054605452313010123141101F9
:106F1000EFF03FC841016FB0FFA3D0499C4D4D48F1
:106F200003451600834526000346360023800701EB
:106F3000A380A700A381C70035462381B700238221
:106F40000700A382C70085472308F70083C76601AF
:106F5000A308F70083C776012309F70009BFD449C6
:106F60009C4D194583C5160003C6260083C636000E
:106F70002380A700A380B7002381C700A381D70087
:106F800023820700A38207008D472302F700C5B5BF
:106F9000D0499C4D694803451600834526000346A9
:106FA000360023800701A380A700A381C7005146B4
:106FB0002381B70023820700A382C70003C66601AE
:106FC00083C77601230CC700A30CF7004DB5EFB2C1
:106FD0003F9679718545116502CA02CC02CE02D076
:106FE00002D202D402D602C602C8EFC00FEB85451A
:106FF0001145EFC08FEA37140140930700200D4977
:107000004C0813050480231AF100E1474ACC3ECE18
:10701000EFC02F8C930700404C0813050480231AFF
:10702000F10091473ECEEFC0CF8A930700104C0885
:1070300013050480231AF100C1473ECE4ACCEFC0AD
:107040004F89F167B7440140938707200C101385DF
:1070500004803ED0B7070C003ED42316010202D2B2
:10706000EFC0DF9A13850480054693055052EFC0A8
:107070007FAB05469305404213850480EFC09FAA6D
:107080009307501368002316F10085473EC8230775
:107090000100EFC0AFC0138504808545EFC0DFA6B7
:1070A0009305001013050480EFC06F9945616FB020
:1070B0007F8AEFB2FF8797370000938767F18C4391
:1070C000D043944703D7C70083C7E7004111374433
:1070D00001402EC032C236C42316E1002307F1005E
:1070E0008A841309F1001304048083C504002285F7
:1070F000EFC0FFA6930500082285EFC09FA77DD9AA
:107100008504E39424FF41016FB0DF84EFB2BF80B8
:1071100083470500AA8437450140AE8A13050580E0
:107120008145B74901403289368AA388F18A2A8489
:10713000EFC0FFA2930500082285EFC09FA37DD971
:10714000138509808145B7490140EFC05FA11384D1
:107150000980930500082285EFC0BFA17DD9138562
:1071600009809305F00FB7490140EFC05F9F13847A
:107170000980930500082285EFC0BF9F7DD9B387A2
:107180004A0193F7F70F938517001385098093C77A
:10719000F7FF374B014093F5F50F93F9F70F130401
:1071A0000B80EFC0DF9B930500082285EFC07F9C1A
:1071B0007DD9CE8513050B80B7490140EFC03F9ABA
:1071C00013840980930500082285EFC09F9A7DD91A
:1071D0009305400D1385098037440140EFC03F9867
:1071E00013040480930500082285EFC09F987DD981
:1071F000638B0A0A37440140A69A9309400D130491
:10720000048083C504002285EFC07F9593050008A4
:107210002285EFC01F967DD983C704008504CE97D1
:1072200093F9F70FE39F54FD630A0A0237440140C4
:107230004A9A13040480834509002285EFC03F92D7
:10724000930500082285EFC0DF927DD983470900AE
:107250000509CE9793F9F70FE31F2AFDB3053041D7
:107260003745014093F5F50F13050580B7440140FC
:10727000EFC0FF8E13840480930500082285EFC0C1
:107280005F8F7DD981451385048037440140EFC06D
:107290001F8D13040480930500082285EFC07F8DA5
:1072A0007DD96FB08FEA9309400DBDBF411122C651
:1072B000374401409305505213050480EFC03F8CC2
:1072C00049E91384018B0347040085476316F700DF
:1072D000324441017300203037440140930540425D
:1072E00013050480EFC0BF8965D503570480835719
:1072F000448083C7618A6393070C03C7918A93878D
:10730000C18A3E97834607001387918AC5CE03C67C
:10731000718A89469385718A63F7C60C83C6818A10
:1073200085062384D18A03C6818A8D4663F4C6000C
:107330002384018A834607000D46850693F6F60FDF
:107340002300D70083460700637ED606A384018A04
:1073500095A813050480EFC03F8183C7018B854644
:107360001375F50F1384018B6389D70683C7618A70
:10737000B9FB03C7918A9387C18A3E9703460700EA
:107380001387918A93158601E1851376F60F63C9F9
:107390000504834507008346070017B7FF1F13073F
:1073A000A7879E052E97930516003297B69713F67A
:1073B000F50F2300A7002380C70031B71387918AF8
:1073C0009387C18A03470700BA9723800700324496
:1073D0002383018A410173002030EFC0FF8EE5B5A1
:1073E0002383D18ACDB583C60500850693F6F60FB3
:1073F0002380D50081B7EFB20FD237440140AA896C
:107400002E8901469305505213050480EFC08FF179
:1074100003C7018B85479384018B6309F7000146FD
:107420009305404213050480EFC0CFEF03C4718A77
:107430001387718A41C083C6818A9397760017A605
:10744000FF1F1306667DB29723A0F9009387C18AB8
:10745000B69783C707008D462300F90083C7818A4A
:1074600085072384F18A83C7818A63F4F600238425
:10747000018A83470700374401400546FD1793F70B
:10748000F70F93055052130504802300F700EFC057
:107490006FE903C7040085476316F700054422859A
:1074A0006FB0AFCA05469305404213050480EFC094
:1074B0006FE7EDB737490140054693055052130574
:1074C0000980EFC02FE603C704008547E309F7FCF6
:1074D00005469305404213050980EFC0AFE4C1B7EC
:1074E000EFB26FC34111AA8A2E8A9384018B894916
:1074F0009305B1006800EFF01FF01DC583C70400BD
:107500006387370383C70400E5F70344B100B2453E
:1075100056852286EFB0CFC49305B10023008A00C0
:107520006800EFF05FED79F941016FB00FC20349D8
:10753000B100E30F09FA324422990345040005041F
:10754000EFC08FF8E31B24FF65B76FF07FF9EFB250
:107550002FBE01118545116502C002C202C402C6D8
:1075600002C802CA02CC231E0100EFC0EF94854579
:107570002145EFC08F923714014061498D448A85BF
:10758000130504C085672310F1004AC426C2EFB07A
:107590005FB48A85130504C089672310F1004AC4CB
:1075A00026C2EFB01FB391678A85130504C023106C
:1075B000F10091473EC4EFB0DFB1E1778A85130552
:1075C00004C02310F100374400404AC426C2EFB083
:1075D0005FB0130504808545EFC08F99B70704019C
:1075E0003EC6930700026C00130504803ECC9D4705
:1075F000231EF10002C802CAEFC0EF8D13050480FC
:1076000005468945EFC02F9513050480054685453D
:10761000EFC06F94854513050480EFC0AF910561FD
:107620006FB04FB3EFB22FAF79712A84AE890545A1
:1076300085453289B68402C202C402C602C802CAA3
:1076400002CC02CE02D002D202D402D6EFC00F8307
:107650002285EFB07F82C1473EC6930700084C00E9
:107660003ECC228585674EC24AC426C83ED402CA93
:1076700002CE02D002D202D6EFB01F8B45616FB0AE
:10768000CFACEFB24FA979712A84AE890545854503
:107690003289B68402C202C402C602C802CA02CC3F
:1076A00002CE02D002D202D402D6EFB03FFD228534
:1076B000EFB08FFC930700083ECC930700103ECE3E
:1076C000930700404C003ED0228585674EC24AC4D5
:1076D00026C83ED402C602CA02D202D6EFB0DF8468
:1076E00045616FB08FA6EFB20FA379712A84AE897E
:1076F000054585453289B68402C202C402C602C865
:1077000002CA02CC02CE02D002D202D402D6EFB01C
:10771000FFF62285EFB04FF6930700084C003ECCF1
:10772000228585674EC24AC426C83ED402C602CA14
:1077300002CE02D002D202D6EFB00FFF45616FB089
:10774000CFA0EFB2EF9E1387818C1C4385466388E0
:10775000D7008946638ED70EC5CF6FB0AF9F370570
:107760000200EFB01F826307051C37050200EFB06F
:107770003F820965EFB0DF81374500408145130541
:107780000580EFB03FFB1385018C034845002A8735
:107790009385318C9307F00F1736000013060646C9
:1077A000834617000507B58FB29783C70700E31913
:1077B000B7FE93C7F7FF93F7F70F6303F818370483
:1077C0000240130584058145EFB00FFA13058405C7
:1077D0009945EFB0CFFA130584058545EFB0CFF892
:1077E000130544048145EFB02FF81305440499456F
:1077F000EFB0EFF8130544048545EFB0EFF63745D9
:107800000040854513050580EFB0DFF26FB08F941F
:107810009386018C83C7160083C5260003C63600F5
:1078200083C64600CD8FD18FD58F1386D1828346F4
:107830000600638407129387F6FF93F7F70F230080
:10784000F600C5EF85471CC3A38601826FB08F90F9
:107850000945EFB00FF3E30205F00945EFB04FF330
:1078600097A7FF1F9387475D17A6FF1F1306C664E0
:10787000014783D6070089073697E31CF6FE198374
:1078800093170701C1878395618C3386B7008146C2
:10789000634E060081CF05659306F5FF6358A60089
:1078A0006386D7002E9793160701C1829387E18BD9
:1078B0002390D70003D70700370402401305840044
:1078C0001347F7FF420741832390E70003D70700E0
:1078D00081451207420741832390E700EFB0CFE8CC
:1078E0001305840093058004EFB06FE98545130507
:1078F0008400EFB06FE76FB0EF85C146E3FFF6E4B9
:107900003745004089471305058081451CC337046E
:107910000240A3860182EFB0FFE113058405814593
:10792000EFB08FE4814513054404EFB0EFE3EF902F
:10793000E06925B50965EFB0CFE4E31805E231BD94
:107940008347250003471500A207D98F13978700A7
:10795000A183D98F239FF18A9DB59387160093F752
:10796000F70FF1BD03D5E18B82809385C18B83D75F
:10797000050003D7E18B93160701D98E63F5E71253
:10798000B307F74093A7171093C717006392070E2A
:107990001388418B834708009388818B17A5FF1FAD
:1079A0001305854793961700369503A608000353E1
:1079B0000500938617003A963306664093573600C3
:1079C0009D8A23A0C8001386218B2310E500230085
:1079D000D800139707018356060041832390E500E2
:1079E000BA87637CD70AB387F64093A7170493C777
:1079F000170081C72310E600BA8683A7818183D749
:107A0000470021674165BE96C206E177C182BE96F6
:107A100093971600B697BA9703C7C18263DBA7088E
:107A200013950701418163CE070215EF1386A182EA
:107A30008357060063F3A70A3307F54042074183E3
:107A4000AA86A145368563FBE5009305000463E53E
:107A5000E506B69785831395070141812310D6006B
:107A600082802DC701452395A182238601828280D1
:107A700097A7FF1F9387473A1316370094C3D4C3C1
:107A800094C7D4C723ACC18A1386218B83560600C2
:107A90002390E500BA87E368D7F4958F93A717047E
:107AA00093C71700B9B7998F93A7171093C71700FB
:107AB000F1BD7D1525DF45BF13953600158D3E952B
:107AC0000D81420541812310D60082801386A18258
:107AD0008357060081463E87ADB73387A7404207EC
:107AE0004183AA86B9BF03D7E18BE177998F03A7BA
:107AF00081812312F7008280EFA2FFE11DC5AA84D5
:107B00002E89B289EFA09FEA99677390078017A723
:107B1000FF1F1307E73B814741481443410799CAB8
:107B20008507E39C07FFEFA0DFE81304F00F228531
:107B30006FA0BFE19396470017A7FF1F1307C73831
:107B4000369713F4F70F232227012320070023067B
:107B5000370104C7EFA0FFE522856FA01FDF83C7B1
:107B6000018DA5C3EFA23FDB1384018D19699384B6
:107B7000118D97A9FF1F938929340DA883C704008D
:107B800003470400939627007D178507CE968D8BBB
:107B90001377F70F03AA06002380F4002300E40004
:107BA000EFA03FE1029A8347040091CBEFA01FE0D2
:107BB0007310098083470400F1F3EFA09FDF6FA0EB
:107BC000DFD88280411122C6371400408545130555
:107BD0000480EFB01FE109E5324441017300203019
:107BE000130504808545EFB09FE11387C18C1C43CA
:107BF000324485071CC341017300203005466FF0F5
:107C0000BFEF01466FF05FEFBD4763F3A7008280CF
:107C1000EFA21FD22A84EFA07FD9996773900780C3
:107C200097A7FF1F9387472A1204A29723A2070052
:107C300023A0070023A40700EFA0BFD76FA09FD108
:107C4000BD4763F3A7008280EFA29FCE2A84EFA0F6
:107C5000FFD599677390078097A7FF1F9387C72663
:107C60001204A29723A2070023A0070023A4070061
:107C7000EFA03FD46FA01FCEEFA2FFC9EFF03FEE01
:107C8000371400401305048001468545EFB0DFBB83
:107C9000054685451305048083A9C18C23A6018C64
:107CA000EFB09FBAEFA09FD099677390078017A499
:107CB000FF1F1304642117A9FF1F1309E930196A74
:107CC000044485CC1C405840CE971CC0B386E74086
:107CD00063E5E7028347C40014C099E72322040048
:107CE0002320040023240400EFA0BFCC8294EFF0F3
:107CF0001FE7EFA0BFCB73100A804104E31224FDFD
:107D0000EFA03FCB6FA07FC4F9572387F18283A7F1
:107D1000818D91C382878280EFA29FC1138481816C
:107D20001C409C438DC79384E18203C504009307E4
:107D3000E00F6300F502EFF0BFF01C4017050000F4
:107D40001305C5FC8C43EFF0DFEB2380A4006FA08C
:107D50007FC083A7418D91C38297FD572380F40094
:107D60001305F00FC9BF9387818D984301E788C33E
:107D7000014582801305F00F82809387418D9843DF
:107D800001E788C3014582801305F00F828083A735
:107D9000818103C7770011C703C767008D4763035D
:107DA000F7008280EFA2DFB80545EFD03FAE8547F0
:107DB000630DF50C8146014685450545EFD01FCD85
:107DC0000945EFD0BFAC85476301F51081460546F4
:107DD00081450D45EFD09FCB0D45EFD03FAB85479B
:107DE0008546630EF50C014681451545EFD01FCA47
:107DF0001145EFD0BFA99306F00F35E91306F00F38
:107E00009305F00FEFD07FC81945EFD03FA8854705
:107E10006300F50A8146014685450145EFD01FC73D
:107E20001D45EFD0BFA68547630DF5068146054683
:107E300081450945EFD09FC52145EFD03FA5854736
:107E40008546630AF504014681451145EFD01FC4FC
:107E50002545EFD0BFA39306F00F0DE11306F00FF9
:107E60009305F00F0545EFD05FC26FA0BFAE01468E
:107E70009305F00F0145EFD05FC179B70146930537
:107E8000F00F0545EFD07FC0CDB785460546854547
:107E9000EFD0DFBF35B7054685451145EFD01FBF91
:107EA00045BF8546054685450945EFD03FBE69B7C4
:107EB0008546054685450145EFD05FBD95B705462A
:107EC00085451545EFD09FBC25B7854605468545B8
:107ED0000D45EFD0BFBB09B7EFA29FA5EF902027BC
:107EE000EF90803613050040EFB08FE80545EF8036
:107EF0008013EF80E01013052003EFA09FAFEFC0C9
:107F0000FFA0EF90003DEF902044EF901014294522
:107F1000EFA03FAEEF904022EF902022EF80907EC6
:107F2000EF808021EF808010EFE02F87EF80E02D41
:107F3000D14517E5FFFF1305A5AEEFF03FCC854512
:107F400017D5FFFF1305A575EFF05FCB954517C556
:107F5000FFFF13058577EFF07FCAF94517E5FFFFAF
:107F60001305A55EEFF09FC9EFF01FD1F5BF3705F0
:107F70000400EFB08F8973002030BD2673002030DD
:107F80008D4723ACF18E828097A7FF1F83C76706BA
:107F900089C7954723ACF18E8280854723ACF18E4B
:107FA0008280EFA2FF98AA842E8411458545EFB008
:107FB000CFEEB1CC37660040032706C4C166F51684
:107FC000758FB71701402320E6C403A74780B71673
:107FD000F0FFFD16758F23A2E78003A7C780F9760F
:107FE0009386F67F758F23A6E78003A74780B74661
:107FF0000400558F23A2E78037470240832707807C
:1080000039CC93E727002320F7806FA0BF94B76691
:10801000004003A706C4B7170140136727004207B3
:10802000418323A0E6C403A74780B716F0FFFD16DF
:10803000758F23A2E78003A7C780F9769386F67F22
:10804000758F23A6E78003A74780B7360300558FB7
:1080500023A2E78037470240832707805DF0F59B26
:108060002320F7806FA01F8FEFA29F8CEFD0AFA5CA
:108070000545EF1050416FA0FF8DEFA27F8BEFC041
:108080003FD01145EF1030406FA0DF8C8280EFA20F
:108090003F8A89650545EF1030389385C15D0545F8
:1080A000EF101065930700046307F5000545EF1016
:1080B000903D6FA03F8A814517050000130505FB21
:1080C000EFF03FB49307F00FE315F5FEEFD0AF9F4D
:1080D0000545EF10503BF1BF8280EFA27F85896597
:1080E0001145EF107033938581501145EF105060AA
:1080F000930700046307F5001145EF10D0386FA017
:108100007F85814517050000130565F7EFF07FAF08
:108110009307F00FE315F5FEEFC09FC61145EF1072
:108120009036F1BFEFA2DF80138481934C44094560
:10813000EF10105CAA87896509452305F400230820
:108140000400EF10702D6FA0FF80EFA26FFEB767E5
:10815000004083A707C5373700204907C207C183FE
:10816000BA9786079C431307000293F7F73F639D76
:10817000E7009387819303C7970019E703C7570068
:1081800083C747006309F700930500020945EF1014
:1081900030246FA02FFC0146814513052008EF1005
:1081A0005052C5BFEFA2CFF81384C1914C440D4586
:1081B000EF101054AA8789650D452305F4002308A4
:1081C0000400EF1070256FA0EFF8EFA26FF6B7670D
:1081D000004083A707C5373700206907C207C1835E
:1081E000BA9786079C431307000293F7F73F639DF6
:1081F000E7009387C19103C7970019E703C75700AA
:1082000083C747006309F700930500020D45EF108F
:10821000301C6FA02FF40146814513053008EF1084
:10822000504AC5BFEFA2CFF00D47AE843284630D34
:10823000E506636CA7020547630FE504094763126F
:10824000E506EF10102393070003630CF504A685E1
:10825000228613052008EF10D04609459305000338
:10826000EF10101701456FA0EFEE1147631BE502F9
:10827000EF103020930700036305F502A6852286E0
:1082800013054008EF10F043114593050003EF106C
:1082900030140145C9BFEF10D01D930700036318C8
:1082A000F50205456FA00FEBEF10B01C930700031C
:1082B000E309F5FEA685228613053008EF1070400D
:1082C0000D4593050003EF10B010014569BFA68569
:1082D000228613051008EF10D03E054593050003D4
