:042800006F80205273
:102804000028000000000000D23B0000D63B00007E
:102814000000000020AD00000000000000000000E7
:1028240020AD000020AD000000000000000000000A
:1028340020AD00000000000020AD000000000000FA
:1028440020AD000020AD000020AD000020AD000050
:1028540020AD000020AD000020AD000020AD000040
:1028640020AD000020AD000020AD000020AD000030
:1028740020AD000020AD000020AD000020AD000020
:1028840020AD000020AD000020AD000020AD000010
:10289400F28B000020AD000020AD000020AD000050
:1028A40020AD000020AD000020AD000020AD0000F0
:1028B40020AD000020AD00009C85000020AD00008C
:1028C40020AD000020AD000020AD000020AD0000D0
:1028D40020AD0000DE7B000020AD000020AD000034
:1028E40020AD000020AD0000E68B000020AD00000C
:0C28F40020AD000020AD000020AD000071
:10290000397101436EC619A0397141536AC866CA4C
:1029100062CC5ECE19A0397101535AD056D252D42E
:102920004ED64AD826DA22DC06DE330161408282A6
:1029300041114AC026C222C406C68282B24D41015C
:10294000024D924C224CB24B4101024B924A224A18
:10295000B2494101024992442244B240410182807D
:102960002A8309CA83830500230073007D160503AB
:1029700085056DFA828015C22A8385466367B50096
:10298000FD561307F6FF3A93BA958383050023009B
:1029900073007D163693B6956DFA82802A8311C630
:1029A0002300B3007D16050365FE828037177A0089
:1029B0001307072083A70183B3D7E7021307803EDD
:1029C00093F7F70F3387E7022381F1862390E1869F
:1029D0008280B7F700E0D8438146799BD8C303C70C
:1029E00021863306A70237F700E090CBD4CB94437F
:1029F00093E6060194C3944393E6160294C35C43A2
:102A0000858BF5DF1C43F99B1CC38280B7F700E080
:102A1000D8438146799BD8C303D701863306A702E2
:102A200037F700E090CBD4CB944393E6060194C3F0
:102A3000944393E6160294C35C43858BF5DF1C43F5
:102A4000F99B1CC382809C4103A88501D04DD441D1
:102A50005841B3E70701D18F3706F1E0A20613060C
:102A6000F6EF718FD58FD98F5CC1D0459C499445C5
:102A70001845D18F37F6F1FF86061306D67F718F82
:102A8000D58FD98F1CC583C745015855B70610FF90
:102A9000FD1793F7F70FFD16758FD207D98F5CD509
:102AA00082801C4589C593E717001CC58280F99B6D
:102AB0001CC582801C4589C593E707101CC5828010
:102AC00093F7F7EF1CC582801C4593E787001CC570
:102AD000828008450D81058982801C4593E7470067
:102AE0001CC5828008450981058982801C4591C5E5
:102AF00037075000D98F1CC582803707B0FF7D177C
:102B0000F98F1CC58280A54763F7B704938765FFDB
:102B1000139717003E970328C5009D47B397E7001A
:102B200093C7F7FFB3F70701B396E600DD8E54C5F0
:102B3000994763E5C7047D16931726003E965859BA
:102B4000FD47B397C70093C7F7FFF98F3396C500CA
:102B50005D8E50D9828013971500032805012E97AA
:102B60009D47B397E70093C7F7FFB3F70701B39605
:102B7000E600DD8E14C99947E3FFC7FAB14763E267
:102B8000C7026516931726001459B2977D4733176D
:102B9000F7001347F7FF758FB397F500D98F1CD94E
:102BA00082804D161317260054553297FD47B39770
:102BB000E70093C7F7FFF58FB395E500DD8D4CD5A2
:102BC00082805C4191C537070004D98F5CC1828047
:102BD000370700FC7D17F98F5CC182800111230348
:102BE000010003476100A54763E5E70425461C454E
:102BF00093E787001CC51C45A18BF5FF1C4593E797
:102C000047001CC51C45918BF5FF74458347610047
:102C100003476100860705071377F70F2303E100D9
:102C200093870702034761008A972396D7FEE370D4
:102C3000E6FC2303010003476100A54763EAE70AB6
:102C40002146A545A3030100834771006367F60889
:102C5000034771008347710006078507860713073E
:102C60000702938707020A978A970357C7FE83D7FD
:102C7000C7FE63F9E704834771008607938707025D
:102C80008A9783D7C7FE2314F10003477100834658
:102C900071008347710005070607130707020A97AB
:102CA0000358C7FE850713971600035581001307C5
:102CB000070286070A9793870702231607FF8A975A
:102CC0002396A7FE83477100850793F7F70FA303A9
:102CD000F10083477100E37DF6F6834761008507C5
:102CE00093F7F70F2303F10083476100E3FCF5F44A
:102CF0002314010023150100230301000347610091
:102D0000954763ECE70493060060154625A88347C2
:102D100061000357810089078607938707028A9716
:102D200083D7C7FEBA97C207C1832314F100834734
:102D30006100850793F7F70F2303F10083476100D4
:102D4000636DF60083476100890786079387070252
:102D50008A9783D7C7FEE3FCF6FA83476100638551
:102D600007100357810083456100835781000346A4
:102D70006100834661003347B702B3E7C7028607A5
:102D8000B3C7D702BA97C207C1832314F100034720
:102D900061009947998F93F7F70FA303F1008347D9
:102DA0007100F5C303476100954763EEE70295465E
:102DB000834761000357A1008907860793870702AD
:102DC0008A9783D7C7FEBA97C207C1832315F1003C
:102DD00083476100850793F7F70F2303F1008347CB
:102DE0006100E3F7F6FC0357A100834571008357A8
:102DF000A10003467100834671003347B702B3E771
:102E0000C7028607B3C7D702BA97C207C183231583
:102E1000F100035581008355A100835781000356BB
:102E2000A10085661307004093860680B307F7402C
:102E30003386C640098F8D8EC2074206C187418600
:102E40004207C206B297C1864187369793D6F701EB
:102E50001355F701B6973A95858B0585958F3E9565
:102E60004205418505618280930700402314F100EB
:102E7000034761009947998F93F7F70FA303F10078
:102E80008347710085F38567938707802315F100D9
:102E900049B71C4141677917F98F1CC123200500F0
:102EA0002322050023240500B7070240232605003E
:102EB000138787006304E5041387C701630BE502EA
:102EC000138707036307E50413874704630AE504D0
:102ED000138787056309E5021387C7066307E504BF
:102EE000138707086309E504138747096308E500AA
:102EF0008280D8431367070FD8C38280D8431367F3
:102F0000F700D8C38280D843B7060F00558FD8C3C7
:102F10008280D8438566938606F0558FD8C3828019
:102F2000D843BD66558FD8C38280D843B706F0001A
:102F3000558FD8C38280D843B706000F558FD8C3AA
:102F4000828090519C459449D84983A88501D18FAE
:102F5000D58FD04DD451D98FB3E71701184103A8AD
:102F60008502D18FD58FE176BD06D045758FB3E749
:102F700007019441D98F1CC1DC4150C114C55CC507
:102F800082801C4189C593E717001CC1828041677C
:102F90007917F98F1CC182804CC18280B70702402B
:102FA0009C437D8D3335A0008280B7070240C8C3A3
:102FB000828058410C410328C500B7060140938721
:102FC00006403E9713C6F5FF6303080483A8064036
:102FD000032885004143B3F8C80023A01641D44319
:102FE000F18ED4C31443CD8E14C318419047934639
:102FF000F7FF758E90C7D047F18ED4C7630D680078
:103000003E98832708005D8F2320E80082801C43C0
:10301000F18F1CC382809447D98E94C7D447558FB3
:10302000D8C78280B707014023AAA7408280B7068D
:103030006745B7270240938636123797EFCDD4C342
:103040001307B79AD8C3D4D3D8D382803727024086
:103050001C4BA166D58F1CCB8280B7270240984BB2
:10306000B7060200137505F0558F98CBC8CB944B6B
:103070003727024093E6060494CB5C47858BF5FF27
:103080001C4B8176FD16F58F1CCB828037270240C2
:103090001C4BC166137505F0D58F1CCB5C47858B27
:1030A000F5FF372702405C47898BF5FFAE86158D0B
:1030B00093850510372702409042B387A6009106FA
:1030C00090C35C47898BF5FFE398B6FE1C4B37062F
:1030D0002000B7260240D18F1CCBDC46858BF5FF44
:1030E0009C4A41777D17F98F9CCA828003A885008E
:1030F00093770801137EF80081C7DC41336EFE0030
:10310000B7270240985BB707000FF98FE9EB8547B7
:10311000A381F186B7170140630AF50C83D6050039
:1031200093F7F60FB5E39307F00F63FED70403237D
:10313000450001478548930E8002130F8004A14586
:1031400021A00507630FB70293078700B397F80024
:1031500033F6D700E397C7FE6301D80B6313E8018A
:103160001CC913162700BD47B397C70093C7F7FFC5
:1031700033F367003316CE00336366000507E315AB
:10318000B7FC232265008280032305008147854820
:10319000930E8002BD4F130F8004A14521A0850727
:1031A000638CB7023397F8003376D700E319C7FE74
:1031B0006304D8076313E80118C9139727003396EF
:1031C000EF001346F6FF337366003317EE003363E8
:1031D00067008507E398B7FC23206500A9B7B717F8
:1031E0000140E31DF5F283C731868DDB83D60500F0
:1031F000B5822390D500C9FA8280131627005CC9D6
:10320000BD47B397C70093C7F7FF33F36700331683
:10321000CE00336366009DB758C9139727003396D5
:10322000EF001346F6FF337366003317EE00336387
:10323000670045B7B71701406307F5001C45FD8DD2
:103240003335B000828083C73186EDDB1C45B58104
:10325000FD8D3335B0008280B71701406304F5005F
:103260000CC9828083C73186E5DFB5810CC98280B5
:10327000B71701406304F5004CC9828083C73186CB
:10328000E5DFB5814CC98280EFF28FEA83574500B4
:1032900001112A846800939407012E89312ED247A8
:1032A00037470F001307072433D7E702C18093F491
:1032B00004FCC204C1800326090061651305056A88
:1032C00093150701C181CD8C23129400835604000D
:1032D000C206C182F99AC206C1822310D400636378
:1032E000C5060606B3D7C702114793960701C182E8
:1032F00063E0E60A8505C205C181C207C1832310C8
:10330000B402231EF40083570400835649008355FA
:10331000A90093E717002310F40083570400035714
:10332000C90003568900C207C183CD8E93F757BFEA
:10333000D58F2310F400B367C7002314F400056190
:103340006FF04FE183556900B166FD166384D504C3
:1033500093161600B2968E06B296B3D7D702916630
:10336000C207C183D58F9396470199E293E717006F
:103370009306C0123307D702A166D58F9306803E0D
:103380003347D7020507420741832310E40295BF64
:1033900091478DB793161600B296B3D7D702C207DE
:1033A000C183D1B78357050091C593E71700231058
:1033B000F5008280C207C183F99BC207C183231035
:1033C000F50082808357050091C593E7071023100D
:1033D000F5008280C207C18393F7F7EFC207C1836C
:1033E0002310F50082808357050091C593E70720DD
:1033F0002310F5008280C207C18393F7F7DFC2076D
:10340000C1832310F50082808357050091C593E79F
:1034100007402310F5008280C207C18393F7F7BFEE
:10342000C207C1832310F50082802318B500828073
:1034300093F7E50F19C293E715002318F500828072
:10344000035745018357850113950701598D6D8DEC
:10345000220521810D8D133515008280411102C492
:1034600002C693D7C5012AC63EC4A247A205A181C0
:1034700099CBB247D1073EC6B247884341016D8D13
:103480003335A0008280B247C181E1073EC6B24712
:10349000884341016D8D3335A000828023A2A1862F
:1034A00082809387418698430346050015EB834746
:1034B000250037E700E09207329793F7F70F2300D4
:1034C000F74054410547935756003317C70085CE40
:1034D000938707048A07B7E600E0B69798C382800F
:1034E000984385466309D7028C430947638EE504F8
:1034F00098438D466300D70498439147E313F7FC44
:10350000834715007DB7938707068A07B7E600E073
:10351000B69798C38280834725008346150092079B
:103520006380E60437E700E093F7F70F3297230054
:10353000F74041BF83461500834725006365D702E6
:103540008606B6979207F9BF034715008347250003
:1035500063FFE60079170A07BA9793F7F70F920708
:1035600093E707F8C1B7F1168606B697FDB70A07C5
:10357000BA97920745BFB7160240DC42717713072E
:10358000F77FF98F0E055D8DC8C28280B7170240A4
:10359000D843B70640FFFD16758FD8C3D8435A05E8
:1035A000598DC8C38280B7160240DC4251777D171F
:1035B000F98FC98FDCC28280B7160240DC422146F7
:1035C00013F7C700B7177A00938707206302C7066F
:1035D0001CC137160240584297D6FF1F938686A219
:1035E00011833D8B369703470700B3D7E7005CC1D3
:1035F000584221831D8B36970347070033D7E700D6
:1036000018C558422D831D8BBA9603C7060097D65E
:10361000FF1F938626C5B3D7E7005CC558423983A0
:103620000D8B369703470700B3D7E7021CC982808A
:10363000DC42D8424166C983BD8B8907C546718F7C
:10364000638ED70211EF3747024003270780418B73
:1036500019CF37177A0013070720B387E7028DBF0A
:10366000371702405843B7060200758F7DD33717CE
:103670003D0013070790B387E70299BFC9476DF371
:10368000D9B799C5371702405C4BC98F5CCB828094
:10369000B7170240D84B1345F5FF798DC8CB828010
:1036A00099C5371702401C4FC98F1CCF8280B717AE
:1036B0000240984F1345F5FF798D88CF828099C5D8
:1036C000371702405C4FC98F5CCF8280B71702402A
:1036D000D84F1345F5FF798DC8CF828003D62500DA
:1036E00083D7050083D6450003D7650083D88500BE
:1036F000D18F03D8A500D58FD98F83D6C500B3E766
:1037000017010357050003D6E500B3E70701D58F7E
:103710008D6693860604758FD18FD98F2310F5009F
:103720008357C5017D7783D605011307F77FF98F8E
:10373000231EF5002318D50082808357050091C50C
:1037400093E707042310F5008280C207C18393F733
:10375000F7FBC207C1832310F50082808357450021
:1037600009C6CD8F2312F500828093C5F5FFED8F3A
:103770002312F50082808357450091C593E74700E7
:103780002312F5008280C207C183ED9BC207C1836B
:103790002312F50082808357050037370140130755
:1037A00007C0C20783D6050003D6450003D86500CD
:1037B000C1836307E504370700406300E502130790
:1037C0000740630CE5003717004093080780630645
:1037D0001501130707C06317E50003D7250093F70A
:1037E000F7F8D98F93F7F7CFB3E707012310F50068
:1037F0002316C5022314D5028547231AF5008280BB
:1038000003D7250093F7F7F8D98F93F7F7CFB3E7EE
:1038100007012310F5002316C5022314D50283C720
:1038200085002318F5028547231AF5008280835707
:10383000050091C593E717002310F5008280C207A9
:10384000C183F99BC207C1832310F500828083578F
:10385000C50009C6CD8F2316F500828093C5F5FFFC
:10386000ED8F2316F50082808357C50009C6DD8DD4
:103870002316B500828093C5F5FFED8F2316F50062
:10388000828083578500C207C183E19BC207C18341
:103890002314F50082802314B502231AC500828008
:1038A00083570500C207C18393F7F7F8CD8F231024
:1038B000F500828083578501C207C183DD9BCD8FD0
:1038C000231CF50082808357C501C207C183DD9B9D
:1038D000CD8F231EF50082808357C5017D771307A6
:1038E000F77FF98FA205CD8FC207C183231EF50094
:1038F000828083570502C207C183F59BCD8F2310B9
:10390000F502828083570502A205C207C18393F79F
:10391000F7DFCD8FC207C1832310F5028280835762
:10392000050279777D17F98FB205CD8FC207C18364
:103930002310F5028280035705028547B397B7002D
:1039400093C7F7FF7D8F2310E502835705023316D7
:10395000B600D18FC207C1832310F50282800357BE
:1039600005028547B397B70093C7F7FFF98F231078
:10397000F50293F775FF610595C3F115C205C18185
:103980008581AA959C4165777D17F98F9CC19C41E3
:103990002206420641825D8E90C182808581AA9571
:1039A0009C4193F7F7F89CC19C415D8E90C1828049
:1039B0002316B5028280231AB5028280231EB50227
:1039C00082802310B504828083570500C207C1831B
:1039D00093F7F7CFC207C1832310F5008357050083
:1039E000CD8F2310F5008280835705010355C50054
:1039F000ED8F4205418189C76D8D3335A0008280EE
:103A00000145828093C5F5FFC205C1812318B50029
:103A10008280EFE2FFF10357050183D76500F57659
:103A2000FD16758FD98F03D7C5002318F50083566F
:103A3000C50083D745007D762A841306369F03D5BB
:103A40008500F18EAE8483D5A500D58FC98FCD8F2B
:103A50002316F4008357440101116800C207C18393
:103A600093F7F7CFD98F231AF400B936B74701403F
:103A700093870780630BF40852468356C40093175C
:103A80001600B297C2068E07C1869840B29763C0EF
:103A900006040A07B3D7E702930640060356C4009C
:103AA0004206418633D7D702B3F7D70212076340E5
:103AB0000604920793872703B3D7D702BD8BD98F0C
:103AC000C207C1832314F40005616FE0BFE8060755
:103AD000B3D7E702930640060356C4004206418668
:103AE00033D7D702B3F7D7021207E35406FC8E0789
:103AF00093872703B3D7D7029D8BD98FC207C18382
:103B00002314F40005616FE0FFE46246BDB78357FC
:103B1000C50091C50967D98F2316F5008280797792
:103B20007D17F98F2316F500828093F7F50F05476F
:103B30009583B315B7006384E702894613074501EF
:103B4000638CD7001C4301C6CD8F1CC3828093C5F4
:103B5000F5FFFD8D0CC3828013070501E5B7130740
:103B6000C500CDB793F5F51F2312B500828003552C
:103B700045001375F51F8280035505006D8D3335A3
:103B8000A000828093F6F50F054695822A87B31729
:103B9000B600638BC60209466383C602835645019D
:103BA00033F5F60083570700C207C18301C9A1811D
:103BB00005473317B700F98F3335F00082808356FD
:103BC000050133F5F600F9BF8356C50033F5F6005D
:103BD000D1BF7300203001A0EFE21FD31387019201
:103BE0009388C1B71388C1A31385C19B938CC1C1AE
:103BF00013030002135485012320970113DC88006E
:103C000093DB080113DB8801935A8800135A0801DB
:103C1000935988011359850093540501B70C80020C
:103C2000938741909385C1B51386C19F2322970145
:103C300023146700A305170123068701A306770154
:103C400023076701A308070123095701A3094701B7
:103C5000230A3701A30AA700230B2701A30B970010
:103C6000230C870023050700A3070700230807008C
:103C70001387C1B99386C19393D3850093D205016D
:103C800093DF8501135F8600935E0601135E860154
:103C900098C337078003D8C3A385B700A388C7009C
:103CA000239467002385070023867700A3865700A7
:103CB0002387F701A3870700238807002389E701EB
:103CC000A389D701238AC70193D5860013D606019D
:103CD00013D78601A38AD700238BB700A38BC70015
:103CE000238CE7006FE0DFC5EFE29FC403A7018EDE
:103CF00095472A84630AF70083474500A30405001B
:103D0000A302F5006FE01FC503457500EF60F05694
:103D100093070002E318F5FE8345540083474400EF
:103D20006387F50663F4B700930700F80347840040
:103D30008D8F93F7F70F9374F70F63E7E7048346CC
:103D40001400034604000347240083473400A206FE
:103D5000D18E4207558FE207D98F2686BE951385EF
:103D6000C1B3EFE0FFBF83475400268603457400CC
:103D7000BE9493F4F407A30294009385C1B3EF506B
:103D8000E026A3040400BDBF93F4F70F4DBF034723
:103D9000940049FF85BFEFE2BFB903A7018E9547A5
:103DA000034645002A846308F700A302C500A30464
:103DB00005006FE03FBA8346150003472400034522
:103DC000050083473400A206C98E4207558FE207DB
:103DD000D98F130716002302E400B2972380B7009F
:103DE0008347440083465400139787016187134734
:103DF000F7FF7D87F98F2302F400E39CF6FA8547ED
:103E0000A304F4002285CD3583479400E5FF6FE0DD
:103E10007FB4EFE25FB093870192C04B03C9870183
:103E20009C4B1357840062093369E900A183130690
:103E3000F00381456204130519005D8CEFE01FB6A5
:103E400083461400054781552301D9000346240009
:103E50002302E900834744002300B900A300C900FE
:103E60002303E900A302F9009305000F6382B7263C
:103E700063EBF52051476388E72E637AF714130745
:103E800020086398E72203477400834664000346D2
:103E9000540081450545EF2080790347740083462F
:103EA00064000346540085450545EF2040780347EC
:103EB0007400834664000346540089450545EF209D
:103EC00000770347A40083469400034684008D4591
:103ED0000545EF20C0750347A400834694000346C0
:103EE000840091450545EF2080740347A400834674
:103EF00094000346840095450545EF20407313095F
:103F0000B40099449309100203472900834619001D
:103F100003460900A6858504054593F4F40FEF20B8
:103F200000710D09E39234FF0347B40B8346A40BE1
:103F30000346940B81450145EF20606F0347B40BA6
:103F40008346A40B0346940B85450145EF20206E64
:103F50000347B40B8346A40B0346940B89450145E4
:103F6000EF20E06C0347840B8346740B0346640B1D
:103F70008D450145EF20A06B0347840B8346740BEE
:103F80000346640B91450145EF20606A0347840BAB
:103F90008346740B0346640B95450145EF20206969
:103FA0001304340B99441309100203472400834679
:103FB000140003460400A6858504014593F4F40F1C
:103FC000EF20E0667514E39224FF6FE01F984147ED
:103FD0006384E71A4547639EE70C83455400034713
:103FE00064000945A303B9002304E90095451307BC
:103FF0007900B2968506B697AE978507A301B900FA
:1040000093F7F70F3306A700834607000507B69717
:1040100093F7F70FE31AE6FE9305000E4A95A30304
:10402000F50013850192853B0544854493890192EF
:1040300019A895338347390005041374F40F9107C9
:10404000A28463CE8702CA9483C504004E859387F9
:10405000050393F7F70EF1FF9305000D2D3B83C584
:1040600004004E850504FD1593F5F50F2D338347A8
:1040700039001374F40FA2849107E3D687FCEF4054
:1040800060706FE09F8C9305200F638BB7129305D0
:10409000300F6397B700A303E9002304E90029A0C8
:1040A0001307100F6397E7000D4599451307790033
:1040B00089B736967D57B2978D072302E9000D47E1
:1040C000A301E90093F7F70F9305000E0145B9B777
:1040D000177700001307C7CE034507009775000048
:1040E0009385C5CE03C3050083C8150003C825000A
:1040F000A303A90003C5350083C54500834317000A
:1041000083422700834F3700034F4700834E5700F9
:10411000034E670003477700230AB900FD552307C4
:10412000E900A30AB9002947930500FAA307E900AB
:10413000A309A900230BB90023047900A3045900A3
:104140002305F901A305E9012306D901A306C90145
:1041500023086900A308190123090901130779003D
:104160004145CD4579B50347540005459145A30325
:10417000E90013077900B5BD814601468145054533
:10418000EF2080528146014681450145EF20C05114
:104190000347290083471900034649008346590015
:1041A000BA978D0703476900B297B697BA970D473C
:1041B00083450900A301E90093F7F70F0145B9BD55
:1041C0001307A0FAA303E900130730052304E9004D
:1041D000094595451307790029BD8547238DF1864B
:1041E0008280EFE24FF3138741905C4B8344870159
:1041F000238D0186A183E204DD8C03C65400930560
:10420000660093F5F50F2380B400D1C1150693879E
:1042100014001376F60F3E962687814783460700E3
:104220000507B69793F7F70FE31AC7FEA695238005
:10423000F500138541909305000EB13E014493892A
:10424000419009A8893E83C7040005041374F40F44
:1042500063ED870233898400834509004E85938787
:10426000050393F7F70EF9FF9305000D2D368345EF
:1042700009004E850504FD1593F5F50F293E83C70A
:1042800004001374F40FE3F787FC6FE00FEC814731
:1042900071BFEFE2EFE993874190C04B03C78701FD
:1042A0009C4B935684006207558FA1831306000828
:1042B0003A85620481455D8CEFE04FEE8346240031
:1042C00003461400834734002301D5009946230098
:1042D000D500A300C500A301F500930610082A87A6
:1042E00063E7F6029306F00263F2F604938707FD94
:1042F00093F7F70F9306100563EAF602977600002E
:10430000938646AD8A07B6979C43B69782879306F5
:10431000000F6385D7029306500F6399D700854736
:10432000238DF186EF4000466FE0CFE213060008D0
:10433000BA851385C193EFE0AFE2D5B79777000058
:104340009387C7BD83CE070003CE170003C32700A2
:1043500083C8370003C8470003C5570083C56700FB
:1043600003C6770083C68700BD472300F700A54733
:10437000A302F7002303D701A303C70123046700A7
:10438000A304170123050701A305A7002306B7000F
:10439000A306C7002307D7008547238DF186EF408A
:1043A000603E6FE02FDB9D4685472300D5009306D6
:1043B00040F92303D500A302F500238DF1869DB7B4
:1043C000034694001387C186814691451305540026
:1043D000EF30C02E81BF0345940093056700EF3096
:1043E000E03989B785450145EF3060268547238D43
:1043F000F1860DBF81450145EF3060258547238D4E
:10440000F1860DB7EF30804631BF034854000345B5
:104410006400834574000346840083469400034788
:10442000A4009387C18623800701A380A70023816E
:10443000B700A381C7002382D700A382E700854786
:10444000238DF186EF4000346FE0CFD09307000258
:104450002302F5008547238DF186E9B52301050088
:104460009306F00F1306F00F9305F00F0945EF20A8
:10447000A0238547238DF18675B5EF20B0535DB538
:104480008346740003466400834554000945EF20C9
:10449000A0218547238DF18671B50348540003455B
:1044A00064008345740003468400834694000347F8
:1044B000A4009387418785BF0346940013874187F3
:1044C0008546914513055400EF30401FA1BDEFE232
:1044D000AFC3138401921C48834B44010347A400DB
:1044E000A183E20BB3EBFB0055CF370B000193899F
:1044F000B1867D1B130C000E954C930A000D138A98
:10450000A18613090002FD545C440346B4008346AF
:10451000F400B3F76701A207D18FB69783C70700EE
:1045200003C6090063828709630C56096382570B2F
:104530008345040103460A00144803474401A1824D
:104540006207558F2E972300F700034704010507E4
:104550001377F70F2308E40063F7EC0083C63B00F2
:104560006D176301D7080347A4008345F4009386C1
:1045700007F3B336D0007D17B306D0403E961377CD
:10458000F70F8505F58F2300CA002305E400A30774
:10459000B4002380F9002DFB0945EF60404F03472D
:1045A000A4003DF36FE0CFB9630C5601238801925C
:1045B00023002A01A3819B00130600028145ADBFA1
:1045C00085078345040103460A0093F7F70FADB74B
:1045D0007D171377F70F85062305E400A307D400A2
:1045E00005F75DBF6387C7020347A4008347F40054
:1045F000238801927D171377F70F8507238501869E
:10460000A38501862305E400A307F400E31E07EE5B
:1046100061B7EFF01F80C9BFEFE20FAF1384419085
:104620001C48834444010347A400A183E204DD8CB9
:104630004DCFB70B0001138A9186FD1B130C000EA2
:10464000138B8186954C930A000DFD5901595C44EA
:104650000346B4008346F400B3F77701A207D18F75
:10466000B69783C7070003460A006382870963047D
:10467000560B6386570B1448034744010346040155
:10468000A1826207558F32972300F7000347040188
:1046900003460B0005071377F70F2308E40063F7C1
:1046A000EC0083C604007D176305D7080347A40008
:1046B0008345F400938607F3B336D0007D17B30625
:1046C000D0403E961377F70F8505F58F2300CB007A
:1046D0002305E400A307B4002300FA002DFB0D45D9
:1046E000EF60E03A0347A4003DF36FE06FA5630479
:1046F0005603238A01907D17238034011377F70F27
:1047000085062384018623002A012305E400A307EC
:10471000D40015FFE9B7850793F7F70FA9BF7D17F9
:104720001377F70F85062305E400A307D40005F3EC
:104730007DB785360347A4008347F400238A0190A0
:104740007D171377F70F850723840186A3840186DD
:104750002305E400A307F400E31B07EE49B7EFE2EB
:104760002F9DB533553D13850192EFF0EFD713859B
:104770004190EFF06FD783C7A18799E36FE08F9DDA
:104780008D346FE02F9DEFE2AF9A1389C18003440F
:1047900009008944630C940663EF840055C03754C4
:1047A0000040B7050300850513050440EFE05FC92D
:1047B00055E96FE02F9A8D47E31DF4FEB754004092
:1047C000B70507009385450813850440EFE05FC7F0
:1047D0006DD1854513850440EFE0FFC083C7B187E5
:1047E0009386D180850703C70600A38DF18683C712
:1047F000B18763E8E708A38D0186FD572300F90020
:104800009547E318F7FA2380860065B737540040D0
:10481000B70507009385250813050440EFE05FC244
:1048200049D903C7B18793870181BA9783C5070028
:1048300013050440EFE07FBF8D472300F90095BFCB
:1048400037540040B705020013050440EFE01FC1D4
:104850002DF1854513050440EFE0DFB685472300C1
:10486000F90081BF03C7B18793870185BA9783C5D4
:104870000700014613050440EFE09FBB23009900A9
:104880000DBF2386018035B7EFE2EF8801112A8939
:10489000AE842145854502C202C402C602C802CACE
:1048A00002CC02CEEFE0DFDF854537052000EFE0E8
:1048B0001FE137140140714A8D494C00130504C0B3
:1048C000930700042312F10052C64EC4EFE01F828A
:1048D0004C00130504C0930700082312F10052C6D0
:1048E0004EC4EFE0BF80B707FFBF375400403ECA59
:1048F000930700400C0813050440231DF100916745
:10490000231EF1004AC8231C9100EFE0FF97130516
:1049100004408545EFE01FA9854513050440EFE0FD
:10492000BFAE05616FE06F82616589451305056A59
:10493000A1BF03C7C1809307F00F6303F700828014
:10494000EFD21FFF1384B18003450400238601804A
:10495000EF309050814517050000130505E3EF3057
:1049600070472300A4006FD0FFFE1345F5FF935757
:10497000650093E707FC136705FC93F7F70F1377C0
:10498000F70FA2073181D98F93860181136505FC4A
:104990002390F6002381A60003C7C1809307F00F80
:1049A0006303F7008280EFD2BFF81384B180034520
:1049B000040023860180EF30304A8145170500004E
:1049C0001305A5DCEF3010412300A4006FD09FF841
:1049D000EFD21FF6056497C7FF1F9387A7D2130472
:1049E000048022863E858145EFD05FFB228683A529
:1049F000C181EFD0FFF66FD0FFF5EFD27FF399675B
:104A000073900780371702405C4301449384C1814F
:104A100093E707085CC313898181EFE04FE1884089
:104A20002295EFE08FE3832509008840A295229527
:104A3000EFE0CFE513040410EFE04FE193070480AB
:104A4000E9FF371702405C4393F7F7F75CC39967B8
:104A500093878708739007806FD0DFEFEFD25FED09
:104A60001384014A1306000481452285EFD01FF309
:104A70009307A0FA2300F4009307101E2311F400FB
:104A8000EF30D0112312A400EF001040AA871306C4
:104A90000004A28511452313F400EF4020556FD088
:104AA0007FEBB7F7FF1F83A6877E03A7C77E83A789
:104AB000077F93DF860013DF060193DE8601135E16
:104AC0008700135307019358870113D8870093D5A4
:104AD000070113D68701A301D5002301F501A30027
:104AE000E5012300D501A303E5002303C501A302CB
:104AF000650023021501A305F50023050501A304A4
:104B0000B5002304C500828091BFEFD27FE21384F9
:104B1000014E034704009307A00A6304F7006FD017
:104B20007FE31306E00381451385214AEFD01FE799
:104B300003471400834724009384014A9306A0FA94
:104B4000A380E4002380D4001307000B636AF704FA
:104B50001397870161876346070209476381E70E60
:104B600041476396E7061385414A253F93070011A5
:104B700013060004A68511452391F400EF40004779
:104B800079BF93C7070813070003636FF708176718
:104B90000000130767398A07BA979C43BA97828740
:104BA0001307200E638EE70A6377F7041307300EAE
:104BB000639CE7069307301E13060004A685114583
:104BC0002391F400238E0186EF40404289BF0547C0
:104BD000639CE70483A7818183C7670013071010D4
:104BE00013060004A68511452391E4002382F400F6
:104BF000EF40C03F2DB71307000E6388E70013078F
:104C0000100E6393E702993D19BF834744001307D1
:104C1000001E2391E400638C072205476380E71A96
:104C2000FD57A381F400E5BDFD57130600049385ED
:104C3000014A11452391F400EF40403BCDB50347B5
:104C4000440083A78181130600042383E700A6851F
:104C50009307201011452391F400EF402039C1B58E
:104C60008547238EF186130600049307201EA68530
:104C700011452391F400EF40603755B503454400DA
:104C80009307F00F83488400834594000347A400F2
:104C9000630EF52A9306000F034854006303D532D0
:104CA0006300F82AAE864686C285EF105018930737
:104CB000001B130600049385014A11452391F4005B
:104CC000EF40C032A9BDEF30606D2A84EF30A06C98
:104CD0009317040113170501C183D98F130600042C
:104CE0001307101A9385014A11452391E400DCC093
:104CF000EF40C02F2DB583A7818183C6370003C63F
:104D0000270003C7470083C75700A206D18E42077A
:104D1000558FE207D98FDCC01306000493071019E2
:104D20009385014A11452391F400EF40202CC5BB27
:104D300083454400034654008346640003477400DF
:104D400083A781812381B700A381C7002382D70075
:104D5000A382E70013060004930700199385014A14
:104D600011452391F400EF40602855BB793193073A
:104D70001018130600049385014A11452391F4008D
:104D8000EF40C02669BBA931930700181306000441
:104D90009385014A11452391F400EF40202541B34A
:104DA000EF3000789307001A130600049385014A38
:104DB00011452391F400EF40602395B383455400DF
:104DC000054593D6250013D61500858A058A858961
:104DD000EF10D00D834564000D4593D6250013D602
:104DE0001500858A058A8589EF10500C834574006B
:104DF000154593D6250013D61500858A058A858921
:104E0000EF10D00A83458400014593D6250013D6C0
:104E10001500858A058A8589EF105009834594001D
:104E2000094593D6250013D61500858A058A8589FC
:104E3000EF10D0078345A400114593D6250013D663
:104E40001500858A058A8589EF105006C9B9034780
:104E50007400834664000346540081450545EF1005
:104E6000007D0347A40083469400034684008545E3
:104E70000545EF10C07B0347D4008346C4000346BA
:104E8000B40089450545EF10807A03470401834645
:104E9000F4000346E4008D450545EF1040790347D3
:104EA0003401834624010346140191450545EF1062
:104EB0000078034764018346540103464401954545
:104EC0000545EF10C07603479401834684010346ED
:104ED000740181450145EF1080750347C401834685
:104EE000B4010346A40185450145EF104074034712
:104EF000F4018346E4010346D40189450145EF10DE
:104F000000730347240283461402034604028D45BE
:104F10000145EF10C0710347540283464402034623
:104F2000340291450145EF108070034784028346A7
:104F300074020346640295450145EF10406FC5B603
:104F40002E86BA86C685EF10207695B33A864685BA
:104F5000EF1040758346A400034694008345840007
:104F60000545EF10A0748346A400034694008345D2
:104F700084000D45EF1080738346A400034694001F
:104F8000834584001545EF1060728346A4000346F4
:104F90009400834584000145EF1040718346A400CE
:104FA00003469400834584000945EF102070834632
:104FB000A40003469400834584001145EF10006F60
:104FC000FDB12E86BA86C6854285EF10206EC5B12A
:104FD00083A7818103C7670085476303F700828049
:104FE0009387415313874157138841578843CC43D4
:104FF0009047D44708C34CC310C754C7C1074107E3
:10500000E39607FF130600049385415705456F306B
:10501000F07DEFD25F909387415B83C607004147E5
:105020006386E600EF3000766FD03F9203C717002B
:105030008D466301D70A63EDE60085476305F70AED
:105040008947E311F7FE93070003A38AF154D9BF00
:105050009146E319D7FC83C4270003C7370083C6F2
:105060004700C20493178700DD8CD58C17640000BD
:105070001304C4F705499D498346B4000346A400C0
:10508000834594001305F9FFB3D6D40033D6C4008A
:10509000B3D5B400858A058A85891375F50FEF109D
:1050A000E0608346240003461400834504004A85DB
:1050B000B3D6D40033D6C400B3D5B4000909858A69
:1050C000058A85891379F90FEF10405E0D04E31509
:1050D00039FB89BFA38A0154A38601542397015445
:1050E0002388015481B71384118203450400930778
:1050F0000003A38AF154EF302056994517050000AC
:10510000130545EDEF30004D2300A40021BFEFD281
:105110003F8283C72188B9E71306E00281451385E2
:105120006158EFD0BF879387015283A8070003A877
:1051300047009447D84783D707019385415749468D
:10514000054523A0150123A2050194C5D8C52398C0
:10515000F500EF30B06909E585472381F188014505
:105160006FD04FFF93874182984383C74700938551
:10517000415723AC015623AE01561546054523A0E1
:10518000015823A2015823A4015823A6015823A89B
:10519000015823AA015823AC015823AE015823A07B
:1051A000015A23A2015A23A4015A23A6015A23A873
:1051B000015A98C12382F500EF30506355F12381E5
:1051C0000188014571BFEFD2AFF683A7818183C704
:1051D000670009476389E7020D476389E7060547CA
:1051E0006387E7021384018203450400EF302049FE
:1051F000854517050000130545FDEF30C04123002C
:10520000A4006FD02FF5EFF03F906FD0AFF403C53F
:105210001182EF30204993874153138741571388F8
:1052200041578843CC439047D44708C34CC310C769
:1052300054C7C1074107E39607FF1306000493858F
:1052400041570545EF30905A51FD65BF83C711881E
:1052500099CB753D41F983C72188C5F7A3800188A3
:105260002380018879BF23810188553525FD83C7B7
:10527000018889C78547A380F188ADB7238101885C
:1052800049B7EFD24FE983D7418813D78700938975
:105290004153A380F9002381E900A3880154239995
:1052A0000154238A015497640000938464D7014415
:1052B0003D492285E12605041374F40F19C983C7FB
:1052C000040083C61400CE9703C7D701558FA38E61
:1052D000E7008904E31F24FD8397818863C40700E6
:1052E0006FD0AFE63D45592E65DD03C7A90183C7E1
:1052F000C90105078507238DE900238EF9006FD0CA
:10530000CFE4EFD24FE183D7418893C7F7FF85877A
:105310009386E18713970701418383D5060013869F
:10532000418213558700A300F6002301A600638382
:10533000E50885472380F18845468145138511524C
:105340002390E600EFD08FE51389015293071003F5
:105350002300F90097640000938484CA0144130A6F
:105360000021C149B3578A00858B1375F40F85E37B
:1053700031263307890001CD8347190003C6040095
:1053800083C61400D18FA300F9002301D7000504C0
:105390008904E31934FD1145D52409E59307300349
:1053A0002303F9002545D92C01E59147A305F90010
:1053B0006FD0AFD92380018841B7EFD26FD7592A78
:1053C000E1249387A18883D407002390A7002A842F
:1053D000B34795002394F188EF20D059EF20107C3B
:1053E000138761889347F5FFC20783560700C1837F
:1053F0002392F1886383F6022310F700EF308038A0
:1054000083A7818183C7670005476380E7020D4753
:10541000638BE7004D3B6FD0EFD32310D700E31F22
:1054200094FC6FD02FD3F13DF5B7A13DE5B7EFD296
:105430002FD08928EF20303B9387415305472380A5
:10544000E700130700F82381E70013070004238F08
:10545000E7000D671307070813841182A380070074
:105460002390E702393D03450400EF30E01EF94583
:1054700017050000130505B6EF30C0152300A40082
:105480006FD04FCDEFD2CFCA411185453145EFE006
:105490002FA137140140C1440D494C00130504806D
:1054A000BD472312F10026C64AC4EFD03FC44C00CA
:1054B000130504C0930700402312F10026C64AC416
:1054C000EFD0DFC293078003130980044C0013055B
:1054D00004C02312F1004AC6EFD05FC14C0013058F
:1054E0000480231291004AC6EFD05FC093050040AC
:1054F000130504C0EFD05FD641016FD0AFC593173D
:105500001500138741603E979386416283570700D9
:10551000AA9603C6060086078D46D18FC207C183AF
:105520002310F7006381D70241679306F7FF638C6E
:10553000D70071176383E70091E79387415FAA97CC
:105540002380070082809387415FAA9705472380C5
:10555000E7008280EFD2CFBA3714014085451305AA
:105560000480EFD0FFD0B94513050480EFD0DFCE23
:10557000371B014093050040130504C0938A416224
:10558000EFD09FCD8144214A13090BC08D49154CA2
:10559000914C054D930B0B802945EFD08FC3D68DD1
:1055A0000144B3158A00C205C1814A85EFD09FC866
:1055B000133515002380AD000504950DE31334FF6A
:1055C0008504850A638584076382340563869403B2
:1055D0006385A409914513050B80EFD07FC9AD45C4
:1055E00013050B80EFD05FC79305004013050BC078
:1055F000EFD09FC689444DB74A8593050040EFD050
:105600003FC7BD455E85EFD03FC579B713050B8019
:10561000A145EFD0FFC513050B809D45EFD0DFC33B
:105620009305004013050BC0EFD01FC3B5B7C145AC
:1056300013050B80EFD01FC013351500938741620F
:10564000A387A7000144C144228505041374F40F05
:105650007D35E31B94FE6FD06FAE13050B8089453B
:10566000EFD01FC113050B80B545EFD0FFBE9305EA
:10567000004013050BC0EFD03FBE39BF9387415F99
:10568000AA9703C5070082809386415F8147014541
:10569000414603C7060085063317F700598D4205BA
:1056A00085074181E397C7FE8280EFD26FA89305FB
:1056B000401F170500001305055CEF20D07593050A
:1056C000803E170500001305A57BEF20D0749305DD
:1056D000C05D170500001305C539EF20D073930591
:1056E000007D1705000013052518EF20D072856591
:1056F000938585BB171500001305C598EF20B07181
:105700006FD04FA5EFD2CFA29384C188A386018822
:10571000A686BD470145755603C7060085063317A3
:10572000F700F517598DE399C7FE1384418908C026
:10573000EFF0AFA3A38701889386C188BD470145D9
:10574000755603C7060085063317F700F517598D00
:10575000E399C7FE08C0EFF04FA1A38801889386A4
:10576000C188BD470145755603C706008506331736
:10577000F700F517598DE399C7FE08C0EFF0EF9ECB
:10578000238601889386C188BD470145755603C7A6
:10579000060085063317F700F517598DE399C7FE04
:1057A00008C0EFF08F9C238701889386C188BD478E
:1057B0000145755603C7060085063317F700F51730
:1057C000598DE399C7FE08C0EFF02F9A238801880E
:1057D000BD470145F55603C7040085043317F7009C
:1057E000F517598DE399D7FE08C0EFF00F9813060F
:1057F000C008814517C5FF1F13054540EFD00F9A1C
:10580000130680349305D00217C5FF1F1305E5C2A8
:10581000EFD0CF981306C008814517C5FF1F1305A9
:105820002535EFD0AF97130680349305D00217C506
:10583000FF1F1305B586EFD06F961306C00881458C
:1058400017C5FF1F13054544EFD04F95130680344D
:105850009305D00217C5FF1F1305F5F7EFD00F947E
:105860006FD04F8FEFD2CF8C9387C1881D47BE84F6
:10587000A380E7003E89BE860145BD47755603C734
:10588000060085063317F700F517598DE399C7FE13
:105890001384418908C0EFF04F8D9D47A301F900A3
:1058A0001389C188CA86BD470145755603C70600DE
:1058B00085063317F700F517598DE399C7FE08C021
:1058C000EFF0AF8A9D47A302F9001389C188CA8609
:1058D000BD470145755603C7060085063317F70017
:1058E000F517598DE399C7FE08C0EFF00F889D4763
:1058F0002300F9001389C188CA86BD470145755642
:1059000003C7060085063317F700F517598DE3998D
:10591000C7FE08C0EFF06F859D472301F90013898A
:10592000C188CA86BD470145755603C7060085066E
:105930003317F700F517598DE399C7FE08C0EFF04C
:10594000CF829D472302F9000145BD47F55603C7A5
:10595000040085043317F700F517598DE399D7FE36
:1059600008C0EFF08F8017B5FF1F1305E572B7056C
:10597000000117C6FF1F1306662897C6FF1F9386F0
:1059800046AD17C3FF1F130323302A88FD150CC231
:10599000138786FE9308983BB387E840B3D7F5009A
:1059A000858BFD1793F7A7FB938737072300F70035
:1059B0000507E313D7FE1106930687016108E31874
:1059C00066FC3706000197B6FF1F9386B66E17C3B5
:1059D000FF1F1303B3A217B8FF1F1308E86B97C587
:1059E000FF1F9385E5187D1690C1138786FE9308E7
:1059F000C801B387E840B357F600858BFD1793F7CE
:105A0000A7FB938737072300F7000507E393E6FE1C
:105A1000E10691056108E319D3FCB705000117C63B
:105A2000FF1F1306662697C6FF1F938656DC97C88E
:105A3000FF1F9388282EFD150CC2138786FE1308BE
:105A40006575B307E840B3D7F500858BFD1793F76D
:105A5000A7FB938737072300F7000507E393E6FECC
:105A60001106E1066105E399C8FC6FC0BFEEEFC205
:105A70003FEC9387C1880547BE84A380E7003E8939
:105A8000BE860145BD47755603C706008506331718
:105A9000F700F517598DE399C7FE1384418908C0B3
:105AA000EFE0BFEC8547A301F9001389C188CA86DE
:105AB000BD470145755603C7060085063317F70035
:105AC000F517598DE399C7FE08C0EFE01FEA854737
:105AD000A302F9001389C188CA86BD4701457556DE
:105AE00003C7060085063317F700F517598DE399AC
:105AF000C7FE08C0EFE07FE785472300F900138960
:105B0000C188CA86BD470145755603C7060085068C
:105B10003317F700F517598DE399C7FE08C0EFE07A
:105B2000DFE485472301F9001389C188CA86BD4790
:105B30000145755603C7060085063317F700F517AC
:105B4000598DE399C7FE08C0EFE03FE28547230285
:105B5000F9000145BD47F55603C704008504331716
:105B6000F700F517598DE399D7FE08C0EFE0FFDF86
:105B700017B5FF1F1305455217C6FF1F130606086A
:105B800097C6FF1F9386E68C17C3FF1F1303C30F2F
:105B90002A889305F00F0CC2138786FE9308983B62
:105BA000B387E840B3D7F500858BFD1793F7A7FBC4
:105BB000938737072300F7000507E313D7FE110685
:105BC000930687016108E31866FC97B6FF1F93866A
:105BD000764E17C3FF1F1303738217B8FF1F1308F6
:105BE000A84B97C5FF1F9385A5F81306F00F90C12A
:105BF000138786FE9308C801B387E840B357F600C1
:105C0000858BFD1793F7A7FB938737072300F700D2
:105C10000507E393E6FEE10691056108E319D3FC6D
:105C200017C6FF1F1306460697C6FF1F938636BC8E
:105C300097C8FF1F9388080E9305F00F0CC21387B7
:105C400086FE13086575B307E840B3D7F500858B6A
:105C5000FD1793F7A7FB938737072300F700050786
:105C6000E393E6FE1106E1066105E399C8FC6FC007
:105C70007FCEEFC2FFCB9387C1881147BE84A3803C
:105C8000E7003E89BE860145BD47755603C706003D
:105C900085063317F700F517598DE399C7FE13846E
:105CA000418908C0EFE07FCC9147A301F900138937
:105CB000C188CA86BD470145755603C706008506DB
:105CC0003317F700F517598DE399C7FE08C0EFE0C9
:105CD000DFC99147A302F9001389C188CA86BD476D
:105CE0000145755603C7060085063317F700F517FB
:105CF000598DE399C7FE08C0EFE03FC791472300E5
:105D0000F9001389C188CA86BD470145755603C786
:105D1000060085063317F700F517598DE399C7FE7E
:105D200008C0EFE09FC491472301F9001389C1889F
:105D3000CA86BD470145755603C706008506331759
:105D4000F700F517598DE399C7FE08C0EFE0FFC1D2
:105D500091472302F9000145BD47F55603C70400EA
:105D600085043317F700F517598DE399D7FE08C05E
:105D7000EFE0BFBF17B5FF1F13050532C16517C69A
:105D8000FF1F1306A6E797B6FF1F9386866C17C3FF
:105D9000FF1F130363EF2A88938505F00CC2138756
:105DA00086FE9308983BB387E840B3D7F500858B10
:105DB000FD1793F7A7FB938737072300F700050725
:105DC000E313D7FE1106930687016108E31866FC0A
:105DD000416697B6FF1F9386F62D17B3FF1F130377
:105DE000F36117B8FF1F1308282B97C5FF1F938572
:105DF00025D8130606F090C1138786FE9308C801C4
:105E0000B387E840B357F600858BFD1793F7A7FBE0
:105E1000938737072300F7000507E393E6FEE106C3
:105E200091056108E319D3FCC16517C6FF1F13066E
:105E3000A6E597C6FF1F9386969B97C8FF1F93887A
:105E400068ED938505F00CC2138786FE130865750F
:105E5000B307E840B3D7F500858BFD1793F7A7FB91
:105E6000938737072300F7000507E393E6FE110643
:105E7000E1066105E399C8FC6FC0DFADEFC25FAB1F
:105E80009387C1880947BE84A380E7003E89BE8608
:105E90000145BD47755603C7060085063317F70051
:105EA000F517598DE399C7FE1384418908C0EFE0C7
:105EB000DFAB8947A301F9001389C188CA86BD47B2
:105EC0000145755603C7060085063317F700F51719
:105ED000598DE399C7FE08C0EFE03FA98947A302A7
:105EE000F9001389C188CA86BD470145755603C7A5
:105EF000060085063317F700F517598DE399C7FE9D
:105F000008C0EFE09FA689472300F9001389C188E4
:105F1000CA86BD470145755603C706008506331777
:105F2000F700F517598DE399C7FE08C0EFE0FFA30E
:105F300089472301F9001389C188CA86BD470145F5
:105F4000755603C7060085063317F700F517598DF8
:105F5000E399C7FE08C0EFE05FA189472302F9007B
:105F60000145BD47F55603C7040085043317F70004
:105F7000F517598DE399D7FE08C0EFE01F9F17B5BD
:105F8000FF1F1305651117C6FF1F130626C797B617
:105F9000FF1F9386064C17C3FF1F1303E3CE2A8807
:105FA000B705FF000CC2138786FE9308983BB387A2
:105FB000E840B3D7F500858BFD1793F7A7FB9387D0
:105FC00037072300F7000507E313D7FE11069306F2
:105FD00087016108E31866FC97B6FF1F9386960D4C
:105FE00017B3FF1F1303934117B8FF1F1308C80A05
:105FF00097C5FF1F9385C5B73706FF0090C113876C
:1060000086FE9308C801B387E840B357F600858B36
:10601000FD1793F7A7FB938737072300F7000507C2
:10602000E393E6FEE10691056108E319D3FC17C688
:10603000FF1F130666C597B6FF1F9386567B97C84A
:10604000FF1F938828CDB705FF000CC2138786FE7B
:1060500013086575B307E840B3D7F500858BFD17C6
:1060600093F7A7FB938737072300F7000507E39310
:10607000E6FE1106E1066105E399C8FC6FC09F8D3D
:10608000EFC21F8B9387C1881147BE84A380E700AE
:106090003E89BE860145BD47755603C70600850685
:1060A0003317F700F517598DE399C7FE138441891B
:1060B00008C0EFE09F8B8947A301F9001389C188CD
:1060C000CA86BD470145755603C7060085063317C6
:1060D000F700F517598DE399C7FE08C0EFE0FF8878
:1060E0008547A302F9001389C188CA86BD470145C7
:1060F000755603C7060085063317F700F517598D47
:10610000E399C7FE08C0EFE05F8691472300F900DE
:106110001389C188CA86BD470145755603C7060065
:1061200085063317F700F517598DE399C7FE08C0A8
:10613000EFE0BF8389472301F9001389C188CA862C
:10614000BD470145755603C7060085063317F7009E
:10615000F517598DE399C7FE08C0EFE01F81854709
:106160002302F9000145BD47F55603C70400850425
:106170003317F700F517598DE399D7FE08C0EFE004
:10618000CFFE17B5FF1F130525F1C16517C6FF1F09
:106190001306C6A697B6FF1F9386A62B17C8FF1F28
:1061A0001308089D17CEFF1F130E0EAEAA88FD150B
:1061B0000CC2138786FE1383983BB307E340B3D723
:1061C000F500858BFD1793F7A7FB9387370723000F
:1061D000F7000507E313D7FE110693068701E108D0
:1061E000E318C6FD416697B6FF1F9386B6EC97B8D5
:1061F000FF1F9388B8207D162320C800138786FED2
:106200009305C501B387E540B357F600858BFD17AD
:1062100093F7A7FB938737072300F7000507E313DE
:10622000D7FE9306870111086105E39716FD130653
:10623000C008814517C5FF1F130505A5EFC00FF660
:10624000130680349305D00217B5FF1F1305B55808
:10625000EFC0CFF46FC00FF0C205D18D220533E639
:10626000A50097CEFF1F938EAE90014E97B2FF1FF1
:10627000938282E2930FD039FD551303D0340D4F32
:10628000B308FE037688154596982320C800B38688
:10629000A8005D47B357E600858BFD1793F7A7FB72
:1062A000938737072380F6007D178506E314B7FE32
:1062B00061051108E31B65FC050E938ECE08E31102
:1062C000EEFD82801308C008330805031307D03998
:1062D0004206A205558E4D8E1303D034FD55B307EB
:1062E000E50217C7FF1F1307A7883A9817B7FF1FC4
:1062F000130787DA1545B388E7002320C800B38663
:10630000A8005D47B357E600858BFD1793F7A7FB01
:10631000938737072380F6007D178506E314B7FEC1
:1063200061051108E31B65FC8280EFC26FE03971E3
:1063300085450945EFD0AFB885452145EFD04FB62B
:1063400085451145EFD0CFB585450545EFD06FB3F5
:1063500037140140614985442C00130504C08D4762
:106360002314F1004AC826C6EFC05FD89307000483
:106370002C00130504802314F100370400404AC8A0
:1063800026C6EFC0BFD613050440EFD08FCF054619
:10639000130504408145EFD00FD01305044081451B
:1063A000EFD00FD0130504409305300BEFD04FE032
:1063B000130504408145EFD02FE1130504408145CA
:1063C000EFD0EFD513050440A145EFD0EFD0130572
:1063D00004408145EFD00FD313050440A145EFD011
:1063E0008FCE130504408145EFD0AFD01305044094
:1063F000A145EFD02FCC130504408145EFD06FDCD1
:106400001305044013060006B145EFD04FD50546ED
:1064100013050440B145EFD00FD213050440814568
:10642000EFD0CFD91305044013060006A145EFD0E5
:106430000FD3054613050440A145EFD0CFCF130578
:1064400004409305A005EFD00FD7130504401306B1
:1064500000068145EFD0AFD00546130504408145C5
:10646000EFD06FCD130700103AD613070008B7041A
:106470000240930704443AD4414709694C08138504
:1064800004033ACE3ECA1307D03997B7FF1F93874C
:10649000A7C03AD03ECC4ADC02D202D802DA02DEF1
:1064A000EFC03FAA138504038545EFC09FAD930756
:1064B000C4434C081385C4013ECA97B7FF1F938796
:1064C00077F73ECCEFC0FFA71385C4018545EFC029
:1064D0005FAB930744434C081385C4063ECA97B785
:1064E000FF1F9387072F3ECCEFC0BFA51385C406BF
:1064F0008545EFC01FA9930509A013050440054673
:10650000EFD08FB6854513050440EFD04FB221611F
:106510006FC04FC4EFC2CFC113050020EFC01FA84A
:1065200019E16FC02FC313050002EFC03FA775D953
:1065300037052000EFC09FA66DD513050020EFC0E2
:10654000DFA613050002EFC05FA637052000EFC0ED
:10655000DFA5B7040040138504408145370402409D
:10656000EFD0EFAC130504038145EFC09FA11305E5
:10657000C4018145EFC0FFA01305C4068145EFC0EB
:106580005FA0130504039305D039EFC0FFA01305E6
:10659000C4019305D039EFC03FA01305C40693058D
:1065A000D039EFC07F9F1305C4018545EFC07F9DA3
:1065B000130504038545EFC0DF9C1305C40685451C
:1065C000EFC03F9C854513850440EFD04FA66FC0B8
:1065D0006FB8EFC2EFB5014681450145EFF0DFC767
:1065E00097B7FF1F938747AB238E0738A38C07729B
:1065F00097B7FF1F238D0756EFF03FD3EFE0CFB2E1
:1066000017F5FFFF13054510EF20602217F5FFFF78
:106610001305E509EF2080246FC0CFB3EFC24FB15F
:10662000EF20A026C53DEFE0CFB06FC0AFB293071B
:10663000200263F3B70082809308D039B3081503B2
:10664000131835002A98939715000A08AE97330857
:10665000A84013950601C295939637002206B367AA
:10666000E5005D8E1397250097B7FF1F938747506E
:10667000BA979506C69690C397B7FF1F9387C7A191
:10668000BE965D47FD55B357E600858BFD1793F722
:10669000A7FB938737072380F6007D178506E31451
:1066A000B7FE82806FF05FBB6FF0DFC13336C00092
:1066B0000606B337D000B335B000D18F8A05938674
:1066C000C188CD8F36952300F5000146BD47F555AD
:1066D00003C7060085063317F700F517598EE399AF
:1066E000B7FE328523AAC1886FE02FA88D4763F5D6
:1066F000A70617B7FF1F1307E76183470700834605
:106700001700D58FB9E7834627009307F00F6392F0
:10671000F6048347370083464700BE9693F6F60F8C
:106720008DEAF91793F7F70FA301F7006366F502F7
:10673000034657009306500D631DD60003476700BC
:10674000850593F5F50F6316B7001395070141858D
:1067500082801305300F82801305400F8280EFC2C4
:106760002F9D3971894717A4FF1F1304A48A2300A2
:10677000F1009305803E93073020170500001305B4
:1067800025122310F400EF10106997A7FF1F9387BD
:10679000E78983C6970003C6870003C7A70083C79E
:1067A000B700A206D18E4207558FE2072A88D98FFB
:1067B0000A85814601468545A3010401829721612E
:1067C0006FC04F99EFC2CF9639719307401185651D
:1067D00017A4FF1F130404843EC0938585389307D4
:1067E0003010170500001305A50B2310F400EF105F
:1067F000906297A7FF1F9387678383C6970003C69E
:10680000870003C7A70083C7B700A206D18E42073F
:10681000558FE2072A88D98F0A858146014691451E
:10682000A3010401829721616FC0CF92EFC24F9004
:10683000B707FF013971938727533EC0C1471794AB
:10684000FF1F1304247D2302F1009305803E93076C
:106850003030170500001305A5042310F400EF10D5
:10686000905B9797FF1F9387677C83C6970003C64B
:10687000870003C7A70083C7B700A206D18E4207CF
:10688000558FE2072A88D98F0A85814601469545AA
:10689000A3010401829721616FC0CF8B9387419040
:1068A00003C5270183C5670103CE170103C637015E
:1068B00003C3570183C6770103C747011798FF1F1A
:1068C0001308487583C787012205A205834808007D
:1068D000B3E565003365C5014206C206CD8E498E1B
:1068E0006207E2079545518FD58F638DB804EFC2DB
:1068F0002F84834618001D462300C8002946636B79
:10690000D600174600001306A6738A06B296944274
:10691000B296828603461700834627000347370056
:1069200099452380B700A381E7000D47A380C700E6
:106930002381D700A38207002382E700EFD0FF89DD
:106940006FC04F8185472300F800828003461700FF
:1069500083462700034737009D452380B700A38166
:10696000E7000547A380C7002381D70023820700E3
:10697000A382E70023830700EFD03F866FB09FFD1F
:1069800003461700834627000347370099452380B5
:10699000B700A381E7000547A380C7002381D70084
:1069A000A38207002382E700EFD03F836FB09FFAF6
:1069B0008346A70103451700834527000346370098
:1069C000139746001377F70F13083701350723880D
:1069D0000700A38807002389D70023800701A3802D
:1069E000A7002381B700A381C70023820700A382E9
:1069F000E700EFD08FFEA9B7EFF07FD6EFD0EFFD25
:106A000081B7EFF0BFE2EFD04FFD1DBF0346170087
:106A10008346270003473700C9452380B700A38179
:106A2000E7003147A382E7000547A380C700238121
:106A3000D70023880700A38807002382E700EFD050
:106A4000CFF9FDBDEFB23FED9797FF1F9387075E2C
:106A50001384419083C8D70003CFC70003C6E70063
:106A600003482401034564018345540183C7F700AB
:106A7000834E14018346340103477401034E4401DD
:106A800003438401A208B3E8E80122082205420674
:106A90003368D8014D8D3366160193898189C2060A
:106AA0004207E207498FB3E6060193188E011318D7
:106AB0008301CE85D18F17B5FF1F1305A525B364BC
:106AC000E80033E9D800238C0188829783C9090044
:106AD000638E0900179AFF1F130ACA5383470A00DF
:106AE0000D476387E70011476384E7026FB0FFE556
:106AF00017B5FF1F130505220347450083472500EF
:106B000091462300DA00F98F1307F00F6380E70244
:106B100083471A002947E36BF7FC17470000130768
:106B2000E7548A07BA979C43BA9782878347050040
:106B3000034615008346350003475500D18FD58F96
:106B4000D98FF9F71386A9FF97B5FF1F9385E51C29
:106B5000EFB07FE275BF930520034E85EFF01FB9BC
:106B6000E34605F803453A0095472300FA009307EA
:106B7000F00FE30DF5F6EF109030FD57A301FA008A
:106B8000B5B79305A0044E85EFF05FB6E34005F678
:106B900003453A0095472300FA009307F00F630777
:106BA000F500EF10D02DFD57A301FA000345240195
:106BB00003481401034664018345340183485401AA
:106BC000834674010347440183478401220597B932
:106BD000FF1F93892914336505012206C20503C8E6
:106BE000790033661601C98DC20662074D8FD18EBA
:106BF000E2078345170003462700D58F0347370078
:106C00006312084E9D462380D700A380B7002381DE
:106C1000C700A381E700054723820700A382E7009E
:106C200023830400EFD06FDBD1B54E8593050004BC
:106C3000EFF0DFAB97B9FF1F9389C90D83462A0098
:106C400003C7890003C67900939746007D17B107F3
:106C5000E31EF7E883C7290103C739011376F6035A
:106C6000D98FD18FE39407E803453A009547230075
:106C7000FA009307F00F6309F500EF1050208346E8
:106C80002A00FD57A301FA0085CE5546139546000C
:106C9000058E938604012695A6851376F60F2E871A
:106CA000B307E60093F7F70FCE9783C707000507F2
:106CB0002309F700E316D7FEC105C106E391A5FE3F
:106CC0000347A90123880400A38804002389E40062
:106CD00003482401834714010345340183464401DA
:106CE0008345640122080346740103435401336859
:106CF000F80042058347840133650501E206C98E29
:106D00001207A20583C8160003C8260003C5360073
:106D10001377F70FB3E5650093160601CD8E1306C2
:106D2000D700E207D58F4D079376F60F2380E70053
:106D3000A380170123810701A381A70023820700F5
:106D4000A382D7002383D400EFD02FC945B3D14508
:106D50004E85EFF0BF99E34B05D829B593050004A4
:106D60004E85EFF0BF98E34305D897B7FF1F83C761
:106D7000D7FAE39D07D603453A0095472300FA006A
:106D80009307F00F6307F500EF10700FFD57A30195
:106D9000FA00034524018347140183453401034766
:106DA000440103466401220583485401834674016B
:106DB0005D8DC20583478401C98D62074D8F220610
:106DC0000348170003452700834537003366160143
:106DD00013970601518FE207D98F19472380E700E7
:106DE000A38007012381A700A381B70023820700A6
:106DF000A3820700EFD06FBED5B9930500044E857E
:106E0000EFF0DF8EE34405CE97B7FF1F83C7F7F09F
:106E1000E39E07CC03453A0095472300FA00930709
:106E2000F00F6307F500EF109005FD57A301FA007E
:106E3000034524018347140183453401034744017A
:106E400003466401220503435401834674015D8DAA
:106E5000C20583478401C98D62074D8F220683488E
:106E60001700034827000345370033666600139771
:106E70000601518FE207D98F59472380E700414728
:106E8000A381A700414697B5FF1F938525E9A380FD
:106E900017012381070123820700A382E7001385DE
:106EA0006400EFB0FFABEFD04FB389B19305A004FE
:106EB0004E85EFF0BF83E34B05C297B9FF1F93895F
:106EC00069E583C77900638B07260547E390E7C22E
:106ED00003C9990003C789009307E9FE2302EA006A
:106EE00093F7D70FE39407C003453A009547230073
:106EF000FA009307F00F6307F500EF104078FD5795
:106F0000A301FA0097B7FF1F9387C7E01387940088
:106F100017B6FF1F130686E083C6B700850705076F
:106F2000A30FD7FE83C62701A303D700E316F6FEFF
:106F300083C7040183C0140183C3240183C23401C5
:106F400083CF440103CF540183CE640103CE740187
:106F500003C3840183C8940003C8A40003C5B4001C
:106F600083C5C40003C6D40083C6E40003C7F4008D
:106F70002306FA00A3061A0023077A00A3075A0083
:106F80002308FA01A308EA012309DA01A309CA01C7
:106F9000230A6A00A3021A0123030A01A303AA0019
:106FA0002304BA00A304CA002305DA00A305EA00FB
:106FB000D147631AF90003C7B90183C7C901A30AFE
:106FC000EA00230BFA00034524018347140183459B
:106FD00034010347440103466401220583485401F8
:106FE000834674015D8DC20583478401C98D6207A4
:106FF0004D8F2206034817000345270083453700BD
:107000003366160113970601518FE207D98F654742
:107010002380E7004D47A38007012381A700A381B8
:10702000B700A382E7002382070085472383F4008B
:1070300093070002A383F400C1472384F400EFD038
:10704000CF996DB4930500044E85EFF02FEA034508
:107050003A0095472300FA009307F00F6307F50005
:10706000EF10E061FD57A301FA00834524010345B9
:1070700064010348140183463401834854010346E4
:1070800074010347440183478401A205B3E5050168
:107090002205C20633651501CD8E42066207558F63
:1070A000498EE2078345170083463700D18F034698
:1070B00027003147A382E70003C7540049452380D6
:1070C000A700A380B7002381C700A381D700238234
:1070D000070023880400A38804002383E400EFD082
:1070E000CF8F29B4A381E700B5461D472380D70081
:1070F000A380B7002381C70023820700A382E70093
:1071000003C7C90081472384E40005C33387F9001E
:107110008346D7003387F4008507A304D70003C74D
:10712000C90093F7F70FE3E3E7FE85472383F400F5
:10713000C147A383F400EFD04F8A4DBA03453A000C
:1071400095472300FA009307F00F6307F500EF104F
:107150000053FD57A301FA0003452401834714019E
:1071600083453401034744010346640122058348F3
:107170005401834674015D8DC20583478401C98D26
:1071800062074D8F220603481700034527008345F9
:1071900037003366160113970601518FE207D98F26
:1071A0001D472380E700A38007012381A700A38157
:1071B000B70095B4EFB22FF61384419083452401B4
:1071C000834614010347340183474401A205034663
:1071D0006401D58D420783435401834674014D8F6A
:1071E000E20783458401D98F1795FF1F130585E2B8
:1071F00083425500834F6500034F7500834E850021
:10720000034E95000343A5008348B5000348C5001D
:1072100003C7E700220633667600C206D18E1396B6
:107220008501B364D600A382570093061700238319
:10723000F701A383E7012384D701A384C701238532
:107240006700A385170123860701A383D400A14605
:107250006304D71863F5E608B1476302F72893077C
:10726000400A631EF72E034524018347140183451A
:107270003401034744010346640122058348540155
:10728000834674015D8DC20583478401C98D620701
:107290004D8F22060348170003452700834537001A
:1072A0003366160113970601518FE207D98F4547C0
:1072B0002380E7002D47A38007012381A700A38136
:1072C000B70023820700A382E7002388040083C756
:1072D00054002383F400EFC05FF06FB00FE7630347
:1072E00007189946631DD72603C9A7019797FF1F63
:1072F000938797D203C307002301250183C8170092
:1073000003C8270003C5370083C5470003C65700DD
:1073100083C6670003C777008549A3896400238A71
:107320001401A38A0401238BA400A38BB400238C33
:10733000C400A38CD400238DE400630B3901130631
:107340000003814513853402EFB04FE523823403F7
:107350002389240123880400A38804000345240111
:107360008347140183453401034744010346640104
:10737000220583467401834854015D8DC20583470D
:107380008401C98D62074D8F120922060348170038
:107390000345270083453700336616011379F90F3B
:1073A00013970601518F9306D900E207D98F4D0933
:1073B00013F7F60F23802701A38007012381A7007D
:1073C000A381B70023820700A382E7002383E400A0
:1073D000EFC0BFE06FB06FD783486401034824015A
:1073E000834E540183457401034E14010346340156
:1073F000034784018346440103C3A70122089397EE
:107400008800B3E7D7013368C801C2054206336676
:107410000601DD8D9317870113978601230165000F
:10742000518F0346270083463700CD8F83451700D1
:107430003147A382E70003C7540049452380A700D2
:10744000A380B7002381C700A381D7002382070050
:1074500023880400A38804002383E400EFC0FFD73F
:107460006FB0AFCE03482401834714018345340134
:107470000347440103466401220803435401834641
:1074800074013368F800C20583478401B3E5050140
:1074900062074D8F22068348170003482700834563
:1074A00037003366660013970601518FE207D98FC4
:1074B00069472380E7005147A38017012381070113
:1074C000A381B70023820700A382E7000347550189
:1074D00083476501238CE400A38CF400CDBB0348F3
:1074E00024018347140183453401034744010346C3
:1074F0006401220803435401834674013368F80091
:10750000C20583478401B3E5050162074D8F22065A
:107510008348170003482700834537003366660019
:1075200013970601518FE207D98F4D472380E7005B
:107530003547A380170123810701A381B700238268
:107540000700A382E70085472388F400834755019D
:10755000A388F400834765012389F4008DBB0345AC
:107560002401834714018345340103474401034642
:107570006401220583485401834674015D8DC20570
:1075800083478401C98D62074D8F22060348170087
:10759000034527008345370033661601139706011C
:1075A000518FE207D98F19472380E700A380070195
:1075B0002381A700A381B70023820700A3820700CD
:1075C0008D472382F40021B3EFB28FB61794FF1FCB
:1075D0001304C4A583461400034604000347240093
:1075E00083473400A206D18E4207558FE207FD562D
:1075F0001796FF1FA301D6A2D98F82978346540006
:10760000034644000347640083477400A206D18EFA
:107610004207558FE207D98F82979305400617F5E9
:10762000FFFF13050514EF00107F9305800C17F57D
:10763000FFFF1305E51FEF00107E9305C01217F53D
:10764000FFFF13056518EF00107D6FB0AFB0EFB20C
:107650002FAE3971B367B5001794FF1F1304849BD5
:10766000130720132301F1009305803E9307304058
:1076700017F5FFFF1305C5222310E1002310F400C6
:10768000EF0070799797FF1F9387479A83C69700FB
:1076900003C6870003C7A70083C7B700A206D18E21
:1076A0004207558FE207A301A400D98F0A858146BE
:1076B00001468D45829721616FB0CFA9EFB24FA7E8
:1076C000834E0700034E170003432700834837000B
:1076D000034847001376F60F03475700B336D00030
:1076E00039712E849317860093860606DD8E2286D6
:1076F000AA85930700141305A1002302D101A30258
:10770000C10123036100A30311012304010123111B
:10771000D100A304E1002310F100EFB06FA497940F
:10772000FF1F9384248F930730609305803E17F5E5
:10773000FFFF1305E5162390F400EF00D06D979737
:10774000FF1F9387A78E83C6970003C6870003C7D2
:10775000A70083C7B700A206D18E4207558F9305B5
:10776000A400E207A381A400D98F0A8581460146BF
:1077700093F5F50F829721616FB0CF9DEFB24F9BCC
:107780003971AA87130700141794FF1F1304848804
:107790002310E100A301F1001307000393073070E9
:1077A0009305803E17F5FFFF1305850F2301E100C8
:1077B0002310F400EF0030669797FF1F9387078729
:1077C00083C6970003C6870003C7A70083C7B70017
:1077D000A206D18E4207558FE207A301A400D98FDC
:1077E0000A85814601469145829721616FB08F9647
:1077F000EFB20F949317850021813971C98F23123D
:10780000F10041678567AE861794FF1F13048480DB
:10781000B2851307A7149387378017F5FFFF130569
:1078200025083AC02303D1002310F400A30301006C
:10783000EF00705E9787FF1F9387477F83C697008F
:1078400003C6870003C7A70083C7B700A206D18E6F
:107850004207558FE207A301A400D98F0A8581460C
:107860000146A145829721616FB0CF8EEFB24F8C58
:1078700013849189834704003971B5C79307A01415
:107880009784FF1F938404792310F1009305803EB1
:107890009307305017F5FFFF130585002390F40080
:1078A00023010100EF0030579787FF1F9387077868
:1078B00083C6970003C6870003C7A70083C7B70026
:1078C000A206D18E4207558FE207A381A400D98F6B
:1078D0000A85814601468D45829781472300F40041
:1078E00021616FB02F8741651306803E85457D1568
:1078F000EFF01FF085472300F40021616FB08F8502
:10790000EFB20F8379718545116502CA02CC02CEB0
:1079100002D002D202D402D602C602C8EFB05FD8AB
:1079200085451145EFB0DFD737140140930700209C
:107930000D494C0813050480231AF100E1474ACC95
:107940003ECEEFB0AFFA930700404C081305048019
:10795000231AF10091473ECEEFB04FF99307001084
:107960004C0813050480231AF100C1473ECE4ACCCF
:10797000EFB0CFF7F167B7440140938707200C10B1
:10798000138504803ED0B7070C003ED423160102B5
:1079900002D2EFC00F88138504800546930550522C
:1079A000EFC0AF9805469305404213850480EFC0B1
:1079B000CF979307501368002316F10085473EC800
:1079C00023070100EFB0FFAD138504808545EFC0AC
:1079D0000F949305001013050480EFB0FF874561F5
:1079E0006FA05FF7EFA2DFF4973700009387473C63
:1079F0008C43D043944703D7C70083C7E7004111A6
:107A0000374401402EC032C236C42316E10023079A
:107A1000F1008A841309F1001304048083C5040073
:107A20002285EFC02F94930500082285EFC0CF94E4
:107A30007DD98504E39424FF41016FA0BFF1EFA23B
:107A40009FED83470500AA8437450140AE8A1305A0
:107A500005808145B74901403289368A2382F18AFF
:107A60002A84EFC02F90930500082285EFC0CF90A5
:107A70007DD9138509808145B7490140EFC08F8EBC
:107A800013840980930500082285EFC0EF8E7DD90D
:107A9000138509809305F00FB7490140EFC08F8C23
:107AA00013840980930500082285EFC0EF8C7DD9EF
:107AB000B3874A0193F7F70F938517001385098061
:107AC00093C7F7FF374B014093F5F50F93F9F70F85
:107AD00013040B80EFC00F89930500082285EFC0C7
:107AE000AF897DD9CE8513050B80B7490140EFC022
:107AF0006F8713840980930500082285EFC0CF8724
:107B00007DD99305400D1385098037440140EFC0AE
:107B10006F8513040480930500082285EFC0CF858C
:107B20007DD9638B0A0A37440140A69A9309400D18
:107B30001304048083C504002285EFC0AF8293053F
:107B400000082285EFC04F837DD983C704008504D8
:107B5000CE9793F9F70FE39F54FD630A0A02374467
:107B600001404A9A13040480834509002285EFB03E
:107B70007FFF930500082285EFC00F807DD98347E2
:107B800009000509CE9793F9F70FE31F2AFDB30506
:107B900030413745014093F5F50F13050580B74493
:107BA0000140EFB03FFC1384048093050008228558
:107BB000EFB09FFC7DD98145138504803744014097
:107BC000EFB05FFA13040480930500082285EFB03C
:107BD000BFFA7DD96FA07FD79309400DBDBF41117A
:107BE00022C6374401409305505213050480EFB07C
:107BF0007FF959E53744014093054042130504805D
:107C0000EFB05FF81DC1035704808357448083C7DA
:107C1000A18985C31387D1899387018A0347070008
:107C2000BA9723800700238D0188324441017300F5
:107C3000203003C7D1899387018A3E978346070086
:107C40001387D189E1DE03C6B18989469385B1895D
:107C500063E8C60883C60500850693F6F60F238001
:107C6000D500834607000D46850693F6F60F2300E0
:107C7000D70083460700E373D6FAA38E018879BF45
:107C800013050480EFB0BFEE83C7A189A5F703C732
:107C9000D1899387018A3E97834607001387D1894C
:107CA00013968601618693F6F60F634706028345B5
:107CB00007000346070017A7FF1F1307A70D9E0520
:107CC0002E97938516003697B29793F6F50F2300FB
:107CD000A7002380D70039BF8547238DF18819BFBE
:107CE00083C6C1898506238ED18803C6C1898D4686
:107CF000E3F9C6F6238E0188ADB7EFA2DFC137499D
:107D000001400146AA84AE891305098093055052AB
:107D1000EFB0BFE101469305404213050980EFB083
:107D2000DFE003C4B18925CC83C6C189939776006F
:107D300017A6FF1F13060606B2979CC09387018AF9
:107D4000B69783C707008D461387B1892380F90052
:107D500083C7C1898507238EF18883C7C18963EDF5
:107D6000F602834707003744014013050480FD17DE
:107D700093F7F70F0546930550522300F700EFB035
:107D8000DFDA13050480054693054042EFB0FFD9C2
:107D9000054422856FA07FBB238E0188D9B71305C8
:107DA0000980054693055052EFB03FD8130509806E
:107DB000054693054042EFB05FD722856FA0FFB81C
:107DC000EFA21FB74111AA842E8909A80344B1006C
:107DD000B2452286EFA0DFB8230089009305B100E9
:107DE0006800EFF09FF1AA872685EDF341016FA0AF
:107DF0007FB6EFA2FFB301118545116502C002C233
:107E000002C402C602C802CA02CC231E0100EFB09F
:107E10001F8B85452145EFB0BF883714014061496C
:107E20008D448A85130504C085672310F1004AC478
:107E300026C2EFB0AFAB8A85130504C08967231053
:107E4000F1004AC426C2EFB06FAA91678A85130574
:107E500004C02310F10091473EC4EFB02FA9E17791
:107E60008A85130504C02310F100374400404AC43A
:107E700026C2EFB0AFA7130504808545EFB0BF8FD2
:107E8000B70704013EC6930700026C001305048087
:107E90003ECC9D47231EF10002C802CAEFB01F84EA
:107EA0001305048005468945EFB05F8B13050480F8
:107EB00005468545EFB09F8A854513050480EFB0E0
:107EC000DF8705616FA01FA9EFA2FFA479712A8443
:107ED000AE89054585453289B68402C202C402C610
:107EE00002C802CA02CC02CE02D002D202D402D60A
:107EF000EFB02FF92285EFA0DFF9C1473EC6930707
:107F000000084C003ECC228585674EC24AC426C874
:107F10003ED402CA02CE02D002D202D6EFB06F82A5
:107F200045616FA09FA2EFA21F9F79712A84AE893D
:107F3000054585453289B68402C202C402C602C81C
:107F400002CA02CC02CE02D002D202D402D6EFB0D4
:107F50004FF32285EFA0FFF3930700083ECC930771
:107F600000103ECE930700404C003ED0228585672E
:107F70004EC24AC426C83ED402C602CA02D202D6A3
:107F8000EFA03FFC45616FA05F9CEFA2DF98797185
:107F90002A84AE89054585453289B68402C202C469
:107FA00002C602C802CA02CC02CE02D002D202D459
:107FB00002D6EFB00FED2285EFA0BFED93070008CA
:107FC0004C003ECC228585674EC24AC426C83ED4AA
:107FD00002C602CA02CE02D002D202D6EFA07FF6BB
:107FE00045616FA09F96EFA2BF9437040240EFF067
:107FF0005FE0B74400409385C4801305840599462B
:1080000013868185EFF05FEC99461386418B93854B
:10801000C48013054404EFF05FF737150140856510
:10802000130505C0EFB04FA3130584058545EFA0E8
:108030005FF5130544048545EFA0BFF4B724014064
:10804000138504408145EFA0FFA6138504408145B8
:10805000EFA03FA5814513058400EFA09FF223AE5A
:10806000018A6FA03F8FEFA2BF8C797185451145C2
:1080700002C802CA02CC02CE02D002D202D402D678
:1080800002C202C402C6EFB0AFE18545130500206D
:10809000EFB00FE13165EFB00FD137150140930715
:1080A00000024C0013050580372401402312F10023
:1080B00002C6EFB0AF83854737070E0013050440B3
:1080C0000C083ECC3ACE2302F10202C802CA02D00A
:1080D000EFA07F9795460546130504409545EFA010
:1080E0009FA2130504408545EFA0DF9C13050440C3
:1080F0008545EFA01F9B130504408145EFA07FAC91
:1081000013050440B7240140EFA01F9C13840440D2
:108110002285EFA01F9C6DFD13850440B72401400C
:10812000EFA0BF9B138404402285EFA0BF9B6DFD91
:1081300013850440EFA09FAA37040240AA87930644
:10814000800417A6FF1F1306E6E59385C4441305B4
:108150008400239DF18AEFF01FDD138504408545DF
:10816000EFA0DF98854513058400EFA09FE14561EE
:108170006FA04FFEEFA2CFFB1387C18B1C43854638
:108180006388D7008946638ED70EC5CF6FA08FFC5A
:1081900037050200EFA09FE06307051C37050200CA
:1081A000EFA0BFE00965EFA05FE0374500408145E3
:1081B00013050580EFB06FD81385418B0348450048
:1081C0002A879385718B9307F00F173600001306EB
:1081D000A6EC834617000507B58FB29783C7070043
:1081E000E319B7FE93C7F7FF93F7F70F6303F81888
:1081F00037040240130584058145EFA09FD813057D
:1082000084059945EFA05FD9130584058545EFA046
:108210005FD7130544048145EFA0BFD6130544047E
:108220009945EFA07FD7130544048545EFA07FD57E
:1082300037450040854513050580EFB00FD06FA08E
:108240006FF19386418B83C7160083C5260003C652
:10825000360083C64600CD8FD18FD58F1386D1824D
:1082600083460600638407129387F6FF93F7F70FA0
:108270002300F600C5EF85471CC3A38601826FA0CB
:108280006FED0945EFA09FD1E30205F00945EFA08E
:10829000DFD197A7FF1F9387E7D117A6FF1F13060C
:1082A00066D9014783D6070089073697E31CF6FE97
:1082B000198393170701C1878395A18B3386B70074
:1082C0008146634E060081CF05659306F5FF63582E
:1082D000A6006386D7002E9793160701C182938765
