:042800006F60707421
:102804000028000000000000DE3B0000E23B000066
:1028140000000000449700000000000000000000D9
:1028240044970000449700000000000000000000EE
:1028340044970000000000004497000000000000DE
:102844004497000044970000449700004497000018
:102854004497000044970000449700004497000008
:1028640044970000449700004497000044970000F8
:1028740044970000449700004497000044970000E8
:1028840044970000449700004497000044970000D8
:1028940084760000449700004497000044970000A9
:1028A40044970000449700004497000044970000B8
:1028B4004497000044970000E07200004497000031
:1028C4004497000044970000449700004497000098
:1028D40044970000046B00004497000044970000F4
:1028E4004497000044970000787600004497000065
:0C28F40044970000449700004497000047
:10290000397101436EC619A0397141536AC866CA4C
:1029100062CC5ECE19A0397101535AD056D252D42E
:102920004ED64AD826DA22DC06DE330161408282A6
:1029300041114AC026C222C406C68282B24D41015C
:10294000024D924C224CB24B4101024B924A224A18
:10295000B2494101024992442244B240410182807D
:102960003D432A876373C3029377F700BDEFADE55C
:10297000937606FF3D8ABA960CC34CC30CC74CC76E
:102980004107E36BD7FE11E28280B306C3408A069B
:102990009702000096966780A6002307B700A3065B
:1029A000B7002306B700A305B7002305B700A304AB
:1029B000B7002304B700A303B7002303B700A302A3
:1029C000B7002302B700A301B7002301B700A3009B
:1029D000B7002300B700828093F5F50F939685002A
:1029E000D58D93960501D58D61B7939627009702F3
:1029F000000096968682E78086FA9680C1171D8F22
:102A00003E96E374C3F8A5B7B7F700E0CC43814620
:102A100037F700E0F999CCC383C521853386A50239
:102A200090CBD4CB944393E6060194C3944393E6AE
:102A3000160294C35C43858BF5DF1C43F99B1CC3D2
:102A40008280B7F700E0CC43814637F700E0F99980
:102A5000CCC383D501853386A50290CBD4CB9443D8
:102A600093E6060194C3944393E6160294C35C4331
:102A7000858BF5DF1C43F99B1CC382809C4103A816
:102A80008501D04DD4415841B3E70701D18F3706B6
:102A9000F1E0A2061306F6EF718FD58FD98F5CC1D6
:102AA000D0459C4994451845D18F37F6F1FF8606ED
:102AB0001306D67F718FD58FD98F1CC583C745016B
:102AC0005855B70610FFFD1793F7F70FFD16758FD2
:102AD000D207D98F5CD582801C4589C593E7170042
:102AE0001CC58280F99B1CC582801C4589C593E763
:102AF00007101CC5828093F7F7EF1CC582801C4528
:102B000093E787001CC5828008450D810589828076
:102B10001C4593E747001CC582800845098105894B
:102B200082801C4591C537075000D98F1CC5828013
:102B30003707B0FF7D17F98F1CC58280A54763F763
:102B4000B704138865FF131718008328C500429740
:102B50009D47B397E70093C7F7FFB3F71701B39605
:102B6000E600DD8E54C5994763E5C7047D169317CB
:102B700026003E965859FD47B397C70093C7F7FF05
:102B8000F98F3396C5005D8E50D98280139715005A
:102B9000032805012E979D47B397E70093C7F7FFDA
:102BA000B3F70701B396E600DD8E14C99947E3FF3A
:102BB000C7FAB14763E3C702130796FF131627004E
:102BC00014593A96FD47B397C70093C7F7FFF58F9F
:102BD0003396C5005D8E10D982804D1613172600DE
:102BE00054553A96FD47B397C70093C7F7FFF58F43
:102BF000B395C500DD8D4CD582805C4191C537070A
:102C00000004D98F5CC18280370700FC7D17F98FE3
:102C10005CC18280011123030100834761002547C5
:102C20006364F70425461C4593E787001CC51C45D3
:102C3000A18BF5FF1C4593E747001CC51C45918BF4
:102C4000F5FF744583476100034761000C10860758
:102C500005071377F70F2303E10003476100AE97E1
:102C60002396D7FEE371E6FC23030100834761004E
:102C700025476361F70A2146A545A3030100834761
:102C80007100636EF60603477100834771001410EC
:102C90000607850786073697B6970357C7FE83D77B
:102CA000C7FE63F3E7048347710008108607B697F1
:102CB00083D7C7FE2314F1000347710083467100D8
:102CC00083477100050706072A970358C7FE035577
:102CD0008100139716008507141036978607231670
:102CE00007FFB6972396A7FE83477100850793F7E2
:102CF000F70FA303F10083477100E376F6F88347EB
:102D00006100850793F7F70F2303F1008347610004
:102D1000E3F5F5F623140100231501002303010058
:102D20008347610015476366F70683476100141007
:102D30001307006089078607B69783D7C7FE636AC3
:102D4000F70495461306006019A883476100181020
:102D500089078607BA9783D7C7FE636CF602834755
:102D600061000C100357810089078607AE9783D74F
:102D7000C7FEBA97C207C1832314F10083476100DD
:102D8000850793F7F70F2303F10083476100E3FE04
:102D9000F6FA8347610093F7F70F6387071003572D
:102DA00081008345610083578100034661008346AB
:102DB00061003347B702B3E7C7028607B3C7D7023C
:102DC000BA97C207C1832314F100034761009947F2
:102DD000998F93F7F70FA303F1008347710093F7DF
:102DE000F70FE5C7834761001547636DF702954606
:102DF0008347610010100357A10089078607B29727
:102E000083D7C7FEBA97C207C1832315F100834752
:102E10006100850793F7F70F2303F10083476100F3
:102E2000E3F8F6FC0357A100834571008357A10026
:102E300003467100834671003347B702B3E7C70208
:102E40008607B3C7D702BA97C207C1832315F1001B
:102E5000035581008355A100835781000356A100CB
:102E600085661307004093860680B307F7403386D4
:102E7000C640098F8D8EC20742064186C187420730
:102E8000C206B297C1864187369713D6F70193568B
:102E9000F701B2973697858B0587918FBA9713956F
:102EA0000701418505618280930700402314F100EA
:102EB000034761009947998F93F7F70FA303F10038
:102EC0008347710093F7F70F91FF8567938707801A
:102ED0002315F100B5BF1C4141677917F98F1CC15B
:102EE000232005002322050023240500B707024004
:102EF00023260500138787006304E5041387C701B1
:102F0000630BE502138707036307E5041387470490
:102F1000630AE504138787056309E5021387C7067B
:102F20006307E504138707086309E5041387470966
:102F30006308E5008280D8431367070FD8C38280F7
:102F4000D8431367F700D8C38280D843B7060F0071
:102F5000558FD8C38280D8438566938606F0558FF7
:102F6000D8C38280D843BD66558FD8C38280D843EA
:102F7000B706F000558FD8C38280D843B706000F3C
:102F8000558FD8C3828090519C459449D84983A8D5
:102F90008501D18FD58FD04DD451D98FB3E717018B
:102FA000184103A88502D18FD58FE176BD06D045A3
:102FB000758FB3E707019441D98F1CC1DC4150C123
:102FC00014C55CC582801C4189C593E717001CC1EC
:102FD000828041677917F98F1CC182804CC1828041
:102FE000B70702409C437D8D3335A0008280B70730
:102FF0000240C8C3828058410C410328C500B7066F
:103000000140938706403E9713C6F5FF630108040D
:1030100083A80640032885004143B3F8C80023A0D5
:103020001641D443758ED0C31443D58D0CC31841BB
:1030300090479346F7FF758E90C7D047F18ED4C75F
:10304000630B6800C2979443558F98C382801C43DA
:103050007D8E10C382809447D98E94C7D447558FF4
:10306000D8C78280B707014023AAA7408280B7064D
:103070006745B7270240938636123797EFCDD4C302
:103080001307B79AD8C3D4D3D8D382803727024046
:103090001C4BA166D58F1CCB8280B7270240984B72
:1030A000B7060200137505F0558F98CBC8CB944B2B
:1030B0003727024093E6060494CB5C47858BF5FFE7
:1030C0001C4B8176FD16F58F1CCB82803727024082
:1030D0001C4BC166137505F0D58F1CCB5C47858BE7
:1030E000F5FF372702405C47898BF5FFAE86158DCB
:1030F00093850510372702409042B387A6009106BA
:1031000090C35C47898BF5FFE398D5FE1C4B3706CF
:103110002000B7260240D18F1CCBDC46858BF5FF03
:103120009C4A41777D17F98F9CCA828003A885004D
:10313000937708011373F80081C7DC413363F30010
:10314000B7270240985BB707000FF98FE9E785477B
:10315000A389F184B71701406306F50C83D60500F7
:1031600093F7F60FADE39307F00F63FDD7048328C1
:103170004500A147854EBD4F130F80029302800486
:10318000414E21A08507638DC7033397FE00B375B9
:10319000D700E319B7FE139627000116B395CF00A9
:1031A00093C5F5FFB3F815013316C300B3681601D4
:1031B0006303E809E31858FC18C98507E397C7FDBE
:1031C0002322150182800C418147854EBD4F130F8C
:1031D000800293028004214E21A08507638BC703E0
:1031E0003397FE003376D700E319C7FE1396270006
:1031F000B398CF0093C8F8FFB3F5B8003316C300F7
:10320000D18D6308E803E31A58FC18C98507E399D0
:10321000C7FD0CC189BFB7170140E311F5F483C79F
:1032200031858DDF83D60500B5822390D500C1FEA0
:10323000828058C95DB758C9B1B7B7170140630755
:10324000F50008456D8D3335A000828083C7318538
:10325000EDDB0845B5816D8D3335A0008280B71751
:1032600001406304F5000CC9828083C73185E5DF26
:10327000B5810CC98280B71701406304F5004CC9C1
:10328000828083C73185E5DFB5814CC98280EFF24A
:103290002FEA01112A848354450068002E893D26B7
:1032A000D246B7470F0093870724B3D7F602C2046C
:1032B000C18093F404FCC204C18003260900616547
:1032C0001305056A93950701C181CD8C23129400E3
:1032D0000357040042074183799B4207418323102F
:1032E000E4006365C5060606B3D6C6021147C206EA
:1032F000C182B68763EAE6048505C205C18193965B
:103300000701C1822310B402231ED4000357040016
:10331000835649008355A900136717002310E40062
:10332000835704000357C90003568900C207C183AD
:10333000CD8E93F757BFD58F2310F400518F2314F0
:10334000E40005616FF00FE191477DB78355690097
:1033500031677D176382E5041317160032970E0755
:103360003A96B3D6C6021167C206C182D98E1397A8
:10337000460119E393E616001307C012B387E7026C
:103380002167D98E1307803EB3C7E7028507C207BE
:10339000C1832310F4028DBF131716003A96B3D6DB
:1033A000C602C206C182E1B78357050091C593E703
:1033B00017002310F5008280C207C183F99BC20762
:1033C000C1832310F50082808357050091C593E7E0
:1033D00007102310F5008280C207C18393F7F7EF2F
:1033E000C207C1832310F50082808357050091C571
:1033F00093E707202310F5008280C207C18393F76B
:10340000F7DFC207C1832310F500828083570500D0
:1034100091C593E707402310F5008280C207C1835E
:1034200093F7F7BFC207C1832310F50082802318EA
:10343000B500828093F7E50F19C293E71500C20724
:10344000C1832318F5008280035745018357850106
:1034500013950701598D6D8D220521810D8D133531
:1034600015008280411102C402C693D7C5012AC645
:103470003EC4A247A205A18199CBB247D1073EC65F
:10348000B247884341016D8D3335A0008280B24739
:10349000C181E1073EC6B247884341016D8D333596
:1034A000A00082809387418598438346050031E3DD
:1034B0008347250037E700E09207369793F7F70F29
:1034C0002300F7405041054793D756003317D700E4
:1034D00009CA938707048A07B7E600E0B69798C33E
:1034E0008280938707068A07B7E600E0B69798C3FD
:1034F000828098430546630BC7028C430947638665
:10350000E50498430D466309C70098439147E31BC0
:10351000F7FA8347150079BF034615008347250056
:10352000636CC7040606B297920701A8834725007B
:103530000346150092076307E60237E700E093F7BA
:10354000F70F36972300F740B5BF034715008347B1
:1035500025006378E6021307E7030A07BA9793F793
:10356000F70F920793E707F837E700E093F7F70FB5
:1035700036972300F740B9B71306C6070606B29779
:10358000F9BF0A07BA9792074DBFB7160240DC424F
:1035900071771307F77FF98F0E055D8DC8C28280A2
:1035A000B7170240D843B70640FFFD16758FD8C342
:1035B000D8435A05598DC8C38280B7160240DC42F1
:1035C00051777D17F98F5D8DC8C282803717024011
:1035D0005C439146B18B6385D700A1466386D706CD
:1035E000B7177A00938707201CC13716024058424C
:1035F00097D6FF1F938606A111833D8B369703470D
:103600000700B3D7E7005CC1584221831D8B369772
:103610000347070033D7E70018C558422D831D8B99
:10362000BA9603C7060097D6FF1F938626C2B3D764
:10363000E7005CC5584239830D8B36970347070076
:10364000B3D7E7021CC982805C4358434166C983F3
:10365000BD8B8907C546718F6380D70419EF374743
:10366000024003270780418B05C337177A001307F1
:103670000720B387E7021CC18DBF371702405843AC
:103680009316E700E3D306FE37173D0013070790B4
:10369000B387E7021CC191BFC94765F3C9B799C594
:1036A000371702405C4B5D8D48CB8280B7170240D4
:1036B000D84B1345F5FF798DC8CB828099C5371754
:1036C00002401C4F5D8D08CF8280B7170240984F93
:1036D0001345F5FF798D88CF828099C53717024051
:1036E0005C4F5D8D48CF8280B7170240D84F13459D
:1036F000F5FF798DC8CF828003D6250083D70500DA
:1037000003D7450083D6650083D88500D18F03D8C1
:10371000A500D98FD58F03D7C500B3E7170103568E
:10372000050083D6E500B3E70701D98F0D671307BE
:103730000704718FD58FD98F2310F5008356C501EB
:10374000FD7703D705019387F77FF58F231EF500DB
:103750002318E50082808357050091C593E707048D
:103760002310F5008280C207C18393F7F7FBC207DD
:10377000C1832310F50082808357450009C6DD8D83
:103780002312B500828093C5F5FFFD8D2312B5008D
:1037900082808357450091C593E747002312F500C7
:1037A0008280C207C183ED9BC207C1832312F5004B
:1037B000828083570500B7360140938606C0C20752
:1037C000C18303D6650083D8450003D8050063068E
:1037D000D504370700406300E50213070740630C78
:1037E000E50037170040930607806306D5001307EE
:1037F00007C06317E50003D7250093F7F7F8D98FC3
:1038000093F7F7CFD18F2310F50023161503231458
:1038100005038547231AF500828003D7250093F717
:10382000F7F85D8F1377F7CF518F2310E50023163C
:1038300015032314050383C785002318F502854764
:10384000231AF50082808357050091C593E717007E
:103850002310F5008280C207C183F99BC207C18390
:103860002310F50082808357C50009C6DD8D23161D
:10387000B500828093C5F5FFFD8D2316B5008280CB
:10388000EFF20F8BCD376FF0EF8C83578500C207B7
:10389000C183E19BC207C1832314F50082802314F6
:1038A000B502231AC500828083570500C207C18371
:1038B00093F7F7F8DD8D2310B500828083578501DB
:1038C000C207C183DD9BDD8D231CB5008280835739
:1038D000C501C207C183DD9BDD8D231EB50082803B
:1038E0000357C501FD779387F77FF98FA205CD8F29
:1038F000C207C183231EF500828083570502C207D9
:10390000C183F59BDD8D2310B502828083570502AC
:10391000A205C207C18393F7F7DFCD8FC207C1832A
:103920002310F502828003570502F977FD17F98FFE
:10393000B205CD8FC207C1832310F50282800357E1
:1039400005028547B397B70093C7F7FFF98F231098
:10395000F50283570502B315B600DD8DC205C1819E
:103960002310B5028280035705028547B397B7003D
:1039700093C7F7FFF98F2310F50293F775FF6105E1
:1039800095C3F115C205C1818581AA959C416577D2
:103990007D17F98F9CC19C412206420641825D8EB3
:1039A00090C182808581AA959C4193F7F7F89CC1CC
:1039B0009C415D8E90C182802316B5028280231ABD
:1039C000B5028280231EB50282802310B504828056
:1039D00083570500C207C18393F7F7CFC207C1839E
:1039E0002310F50083570500DD8D2310B50082807C
:1039F000835705010355C500ED8F4205418189C7F5
:103A00006D8D3335A00082800145828093C5F5FF1E
:103A1000C205C1812318B5008280EFE27FF1835691
:103A2000050103D76500F577FD17F58FD98F03D70B
:103A3000C5002318F5002A840355C500AE84FD7720
:103A400083D5450003D684009387379F83D6A4008F
:103A5000E98FCD8FD18FD58F2316F4008357440182
:103A600001116800C207C18393F7F7CFD98F231ADA
:103A7000F400A93EB747014093870780630DF4081F
:103A800052478356C40093171700BA97C2068E0791
:103A9000C186BA97984063C006040A07B3D7E70205
:103AA000130740060356C40042064186B3D6E70218
:103AB000B3F7E70292066340060492079387270351
:103AC000B3D7E702BD8BD58FC207C1832314F4009F
:103AD00005616FE03FE80607B3D7E702130740062A
:103AE0000356C40042064186B3D6E702B3F7E702A5
:103AF0009206E35406FC8E0793872703B3D7E702A9
:103B000013F77700B367D700C207C1832314F4000B
:103B100005616FE03FE46247ADB781C98357C500D7
:103B20000967D98F2316F50082800357C500F977FE
:103B3000FD17F98F2316F500828093F7F50F0547DF
:103B40009583B315B7006385E702894613074501DE
:103B50006387D7001C4301CADD8D0CC38280130725
:103B600005011C4375FA93C5F5FFFD8D0CC38280DA
:103B70001307C500C5B793F5F51F2312B500828062
:103B8000035545001375F51F8280035505006D8DA3
:103B90003335A000828093F7F50F854695833397E0
:103BA000B600638AD70289466383D70283574501EB
:103BB0007D8F835705000145C207C18301CB0545B1
:103BC000A181B315B500ED8F3335F00082808357A6
:103BD00005017D8FF9BF8357C5007D8FD9BF730065
:103BE000203001A09387818C984395476309F700A3
:103BF00083474500A3040500A302F5008280EFE29D
:103C00003FD32A8403457500EF50B00793070002A5
:103C10006304F5006FE01FD48345540083474400DC
:103C20006384F50663F4B700930700F883448400C7
:103C30008D8F93F7F70F63E79704834614000346CD
:103C400004000347240083473400A206D18E4207B4
:103C5000558FE207D98F2686BE95138541C6EF5052
:103C6000303783475400268603457400BE9493F48E
:103C7000F407A3029400938541C6EF30D049A30412
:103C8000040049BFBE8455BF0347940045F359B7AC
:103C90009387818C98439547034645006307F70057
:103CA000A302C500A30405008280834615000348D3
:103CB00005000347250083473500A206B3E6060149
:103CC0004207558FE207D98F130716002302E5003C
:103CD000B2972380B7008347450013978701618718
:103CE0006347070003475500630AF70082800347D4
:103CF0005500230205008147E31AF7FEEFE25FC398
:103D000085472A84A304F5002285E93D8347940072
:103D1000E5FF6FE03FC4EFE21FC0138781A65C4B55
:103D200083448701004B13D78700E204D98C130624
:103D30000004135784008145139487012685598C0C
:103D4000EFE01FC203451400854701562381A400FC
:103D5000034724002382F400834644002380C400E8
:103D6000A380E4002383F400A382D4001306200878
:103D7000638DC61E6373D6161306100F638BC6328F
:103D80006370D60C1306200F638EC6321306300FF5
:103D9000639EC614A383F4002384F400A384040068
:103DA0000D4699473E972A9736970907A381F40055
:103DB0001377F70F81478146A69683C6760085075D
:103DC00093F7F70F36971377F70FBE86E3C6C7FE54
:103DD0009305000E2696A303E600138581A64D3DAC
:103DE00005440549938981A621A8BA85553583C71D
:103DF000340005041374F40F9107228963CE8702FF
:103E00002699034709004E859305000D9307070384
:103E100093F7F70EF9FBAD3D834509004E85050488
:103E2000FD1593F5F50FAD3583C734001374F40F0A
:103E300022899107E3D687FCEF30606B6FE0FFB01B
:103E40009307000F6394F60A97670000938747A9CA
:103E500083C5070017660000130646A903C41700B0
:103E600083C3270083C2370083CF470003CF5700A7
:103E700083CE670003CE7700034306008348160015
:103E800003482600A947A383B400834536000346B0
:103E90004600A387F400FD57A38AF400930700FAB5
:103EA000238AC400238BF40023848400A384740039
:103EB00023855400A385F4012386E401A386D4015D
:103EC0002387C40123886400A38814012389040183
:103ED000A389B4004146CD47F1B5C547638CF602CE
:103EE000D1476384F604C1476388F604FD572382F3
:103EF000F4009305000E85471306F00F0D072A976F
:103F000032973697BA970D47A381E400014613F71D
:103F1000F70FC9B58345540009469547A383B400FC
:103F2000834564002384B400B5BD83455400054631
:103F30009147A383B400BDB581460146814505453F
:103F4000EF1040588146014681450145EF108057EA
:103F500003C7140003C5240003C6440083C65400ED
:103F600083C7640083C5040051BF034774008346C0
:103F700064000346540081450545EF10C0520347D5
:103F80007400834664000346540085450545EF10E0
:103F900080510347740083466400034654008945FA
:103FA0000545EF1040500347A400834694000346A4
:103FB00084008D450545EF10004F0347A40083465C
:103FC00094000346840091450545EF10C04D03471A
:103FD000A400834694000346840095450545EF10F0
:103FE000804C1309B4009944930910020347290037
:103FF0008346190003460900A6858504054593F408
:10400000F40FEF10404A0D09E39234FF0347B40B5D
:104010008346A40B0346940B81450145EF10A0484D
:104020000347B40B8346A40B0346940B8545014517
:10403000EF1060470347B40B8346A40B0346940B71
:1040400089450145EF1020460347840B8346740BD6
:104050000346640B8D450145EF10E0440347840B94
:104060008346740B0346640B91450145EF10A04352
:104070000347840B8346740B0346640B9545014547
:10408000EF1060421304340B9944130910020347E4
:1040900024008346140003460400A68585040145D8
:1040A00093F4F40FEF1020407514E39224FF6FE0B7
:1040B000DF89A383040023840400A38404000D4645
:1040C0009947CDB19307A0FAA383F4009307300575
:1040D0002384F40009469547F1B18547238CF18488
:1040E0008280EFE25F831387C1A45C4B8344870126
:1040F000238C0184A183E204DD8C03C65400930564
:10410000660093F5F50F2380B400C1C5150613872B
:1041100014001376F60F3A96AE86814721A08346A7
:1041200007000507B69793F7F70FE31AC7FEA695A2
:104130002380F5001385C1A49305000E913E014430
:104140009389C1A411A8BA85A13683C704000504C8
:104150001374F40F63ED8702338984000347090069
:104160004E859305000D9307070393F7F70EE1FFC4
:104170000536834509004E850504FD1593F5F50FB9
:10418000013E83C704001374F40FE3F787FC6FE06C
:10419000CFFB814769BFEFE2AFF99386C1A4DC4A48
:1041A00003C78601804A93D687006207558FE207CE
:1041B000130600083A85218081455D8CEFE04FFAB7
:1041C0008346240003461400834734002301D500AE
:1041D00099462300D500A300C500A301F5002302E2
:1041E0000500A3020500930620052A876389D71AD4
:1041F00063F8F606930620066380D71463FEF60282
:1042000093061008638CD71A63F1F6029306000F29
:104210006384D70A9306500F639CD7028547238C8B
:10422000F184EF30C02C6FE0EFF29306100763913A
:10423000D702EF10F068F5B793065005638DD718D5
:10424000930610066384D71A930640056388D71A2D
:1042500013060008BA851385C19AEF5060577DBFD9
:10426000930610046384D71463EBF60293062003CD
:104270006384D70493060004638BD710930600036E
:10428000E398D7FC9D4685472300D500930640F967
:104290002303D500A302F500238CF18459B79306BC
:1042A0000005638AD70A63EEF60693062004E391BD
:1042B000D7FAEF202052B5B7975700009387876150
:1042C00083CE070003CE170003C3270083C837003F
:1042D00003C8470003C5570083C5670003C67700BE
:1042E00083C68700BD472300F700A547A302F70058
:1042F0002303D701A303C70123046700A304170105
:1043000023050701A305A7002306B700A306C700DE
:104310002307D7008547238CF184EF30401D6FE0E1
:104320006FE3034694001387C185814691451305C9
:104330005400EF20402FF5B5230105009306F00F40
:104340001306F00F9305F00F0945EF10A0178547EE
:10435000238CF184F9B5034554008345640003467A
:10436000740083468400034794008347A400238E8F
:10437000A184A38EB184238FC184A38FD184238091
:10438000E186A380F1868547238CF18459BD85455C
:104390000145EF20001C8547238CF18459B5034566
:1043A000940093056700EF202034A5BD81450145A9
:1043B000EF20201A8547238CF184A5B5834674002D
:1043C00003466400834554000945EF10A00F85475C
:1043D000238CF184B9B50346940013874186854642
:1043E000914513055400EF20002425BD93070002DA
:1043F0002302F5008547238CF18425B5034554003D
:104400008345640003467400834684000347940098
:104410008347A4002382A186A382B1862383C18619
:10442000A383D1862384E186A384F1868547238CE8
:10443000F184C5BBEFE24FCD138981A68327090123
:10444000834A4901370A0001A183E20AB3EAFA006C
:1044500003C721A77D1A130B000E954B9309000D7E
:10446000930400027D5441CF8327C9008346B900DD
:1044700003C671A7B3F74701A207D58FB29783C6CA
:10448000070083C7A186638E6607638C3709638242
:10449000360B83C581A703C691850327090183478E
:1044A00049012183E207D98FAE972380D700834744
:1044B0000901850793F7F70F238CF1A663F7FB003B
:1044C00003C73A00ED176386E7080347A90083474F
:1044D000F90036967D171377F70F8507A38CC184F3
:1044E0002389E1A6A38BF1A6638936032385D186B0
:1044F0003DFB0945EF40307A03C721A735F76FE050
:104500002FC463803703238C01A6A38C9184A381DD
:104510008A0013060002814549B72385018621F7E9
:10452000C9BF850693F6F60F83C581A703C691859B
:10453000ADB77D171377F70F05062389E1A6A38B87
:10454000C1A6E31207F20945EF40F07403C721A7A3
:1045500075B7638CC6020347A9008347F900238C13
:1045600001A67D171377F70F8507A38C0184238598
:1045700001862389E1A6A38BF1A6E31607EE094580
:10458000EF40707103C721A795BFEFF0CFF8E1B7F7
:10459000EFE28FB79389C1A483A7090103C449013E
:1045A000B70A0001A18362045D8C03C761A5FD1AEF
:1045B000130B000E954B130A000D7D59815441CF0A
:1045C00083A7C90083C6B90003C6B1A5B3F75701D5
:1045D000A207D58FB29783C6070083C7B186638EC3
:1045E00066076386470B638D460B03A7090183C7E4
:1045F000490103C6C1A52183E207D98FB297238061
:10460000D70083C7090103C6A185850793F7F70F74
:10461000238EF1A463F7FB0003470400FD176381B9
:10462000E70A03C7A90083C7F90036967D171377F9
:10463000F70F8507238DC184238BE1A4A38DF1A4FB
:10464000638B4605A385D1863DFB0D45EF40B064E5
:1046500003C761A535F76FE0AFAE638A4703238ECA
:1046600001A47D17230024011377F70F0506238D7E
:104670000184A3859186238BE1A4A38DC1A4E310BB
:1046800007F40D45EF40306103C761A5E1B785062A
:1046900093F6F60F99BFA3850186E31207F275B76B
:1046A0007D171377F70F0506238BE1A4A38DC1A413
:1046B000E31707F00D45EF40105E03C761A559BF32
:1046C000D93C03C7A90083C7F900238E01A47D1735
:1046D0001377F70F8507238D0184A3850186238B2C
:1046E000E1A4A38DF1A4E31C07EC0D45EF40B05A03
:1046F00003C761A585B7EFE2AFA32D3B513D1385FD
:1047000081A6EFF02FCE1385C1A4EFF0AFCD6FE0FF
:104710006FA4EFE2EFA1C53783C7818599E36FE00E
:104720006FA3EFF01F9C6FE0EFA2EFE26FA003C456
:1047300021818544630C940A49C88947630DF404B8
:104740008D476304F4006FE0EFA0B7540040B70555
:1047500007009385450813850440EFE0FFCE65D53B
:10476000854513850440EFE05FC883C7C186850790
:104770002386F18603C7C18683C711816363F70A65
:10478000238601867D572389E1801547E39DE7FA5B
:10479000A38881804DBF37540040B705070093853B
:1047A000250813050440EFE03FCA51DD03C7C18669
:1047B0009387C180BA9783C5070013050440EFE0D3
:1047C0001FC78D472389F180BDBF37540040B7050F
:1047D000020013050440EFE0FFC835F585451305D9
:1047E0000440EFE07FBE23899180B1BF3754004081
:1047F000B7050300850513050440EFE0FFC4E3049B
:1048000005F403C7C18693870184BA9783C507005F
:10481000014613050440EFE0FFC189472389F18079
:104820001DB72389018005B7EFE28F901384318192
:104830000345040023890180EF20B0368145170528
:1048400000001305C5EEEF20502D2300A4006FE0FB
:104850006F9003C721819307F00F6303F7008280F5
:10486000EFE20F8DD1376FE0EF8E1345F5FF135751
:1048700065009357C500136707FC93E707FCA38601
:10488000E180136505FC2387F1802386A18003C79F
:1048900021819307F00F6303F7008280EFE24F89D5
:1048A00061376FE02F8BEFE2AF880564130404805B
:1048B00097C7FF1F938707E222863E858145EFE079
:1048C0002F8A138741810C432286EF4070706FE07E
:1048D0006F88EFE2EF85371702405C430144938411
:1048E000418193E707085CC313898181EFE02FF8CA
:1048F00088402295EFE06FFA832509008840A29551
:104900002295EFE0AFFC13040410EFE02FF89307BB
:104910000480E9FF371702405C4393F7F7F75CC365
:104920006FE04F83EFE2CF801384814813060004C9
:1049300081452285EFE0CF829307A0FA2300F4009F
:104940009307101E2311F400EF20A07D2312A40072
:10495000EF00D01C2313A40013060004A285114508
:10496000EF20707B6FD01FFFEFD29FFC653F6FD0B1
:104970007FFE03C7814C9307A00A6303F700828080
:10498000EFD21FFB1306E00381451385A148EFD04A
:104990003FFD1384814C834714001307A0FA23843E
:1049A000E148A384F1481307000A83C7A14C63863A
:1049B000E7246370F7041307000E6384E720637035
:1049C000F70A1307200E638FE71C63EDE710130748
:1049D000300E6392E7049307301E1306000493859C
:1049E000814811452395F148A3860186EF20B072D6
:1049F000D9A0130700086385E71E6379F702130740
:104A000000096382E71613071009638FE70C130789
:104A10001008638AE710FD57130600049385814848
:104A200011452395F148EF20106F71A00547638968
:104A3000E7100947E391E7FE93878181034744002C
:104A40009C4313060004938581482383E7001145A6
:104A5000930720102395F148EF20F06BA9A81307C6
:104A6000100A638CE7041307000BE396E7FA03C50B
:104A7000C14C9307F00F83C8014D83C5114D03C787
:104A8000214D6302F5329306000F03C8D14C630732
:104A9000D5386304F830AE864686C285EF00B02074
:104AA0009307001B13060004938581481145239545
:104AB000F148EF2050666FD0FFE9EF2080662A842E
:104AC000EF20C0652397A1489307101A130600042E
:104AD0009385814811452395F14823968148EF201D
:104AE0009063D1BF8135C1BF938781819C431306F9
:104AF0000004114583C6370083C5270003C747005C
:104B000083C75700A206CD8E4207558FE207D98F83
:104B100023A6F14893858148930710192395F148FE
:104B2000EF20705F49BF7533930710181306000418
:104B30009385814811452395F148EF20D05DA5BFAD
:104B4000938781819C43130710101306000483C7C9
:104B500067009385814811452395E1482386F148F4
:104B6000EF20705B89BF93878181834544000346B2
:104B70005400034774009C4383466400114523811D
:104B8000B700A381C700A382E7002382D7001306E2
:104B9000000493070019938581482395F148EF207D
:104BA000905711BF8547A386F1861306000493072B
:104BB000201E9385814811452395F148EF20B0557B
:104BC000DDBD9307001E2395F14883C7C14C638D5B
:104BD000070C05476381E704FD57A385F148E1BD54
:104BE000D9319307001813060004938581481145B5
:104BF0002395F148EF2030527DBDEF20606C930784
:104C0000001A130600049385814811452395F14845
:104C1000EF2070504DB583C5D14C93D6250013D6E7
:104C20001500858A058A85890545EF00500F83C5E3
:104C3000E14C93D6250013D61500858A058A85890F
:104C40000D45EF00D00D83C5F14C93D6250013D64A
:104C50001500858A058A85891545EF00500C83C5A6
:104C6000014D93D6250013D61500858A058A8589BE
:104C70000145EF00D00A83C5114D93D6250013D608
:104C80001500858A058A85890945EF00500983C585
:104C9000214D93D6250013D61500858A058A85896E
:104CA0001145EF00D00701BD03C7F14C83C6E14CAD
:104CB00003C6D14C81450545EF00E07E03C7214D79
:104CC00083C6114D03C6014D85450545EF00A07D06
:104CD00003C7514D83C6414D03C6314D8945054536
:104CE000EF00607C03C7814D83C6714D03C6614DE3
:104CF0008D450545EF00207B03C7B14D83C6A14D0F
:104D000003C6914D91450545EF00E07903C7E14D9C
:104D100083C6D14D03C6C14D95450545EF00A0782A
:104D200003C7114E83C6014E03C6F14D81450145AF
:104D3000EF00607703C7414E83C6314E03C6214E54
:104D400085450145EF00207603C7714E83C6614E4D
:104D500003C6514E89450145EF00E07403C7A14EDB
:104D600083C6914E03C6814E8D450145EF00A07369
:104D700003C7D14E83C6C14E03C6B14E914501450E
:104D8000EF00607203C7014F83C6F14E03C6E14EC8
:104D900095450145EF00207139BB2E86BA86C68540
:104DA000EF004072F5B93A864685EF00007183C680
:104DB000214D03C6114D83C5014D0545EF002076F9
:104DC00083C6214D03C6114D83C5014D0D45EF002E
:104DD000007583C6214D03C6114D83C5014D154590
:104DE000EF00E07383C6214D03C6114D83C5014D0D
:104DF0000145EF00C07283C6214D03C6114D83C526
:104E0000014D0945EF00A07183C6214D03C6114D28
:104E100083C5014D1145EF00807059B12E86BA86C9
:104E2000C6854285EF00A06FA5B9EFD2DFAE03C7FC
:104E30008154C1476306F700EF20606B6FD0FFB06D
:104E400083C791540947638CE70C637CF7080D47CF
:104E5000638EE70A1147E391E7FE03C4A15483C7B9
:104E6000B154A20742045D8C83C7C1545D8C1759AD
:104E70000000130929A88544594BD14ADD49B146A0
:104E80003546B9451D4A1385F4FFB356D400335651
:104E9000C400B355B400858A058A85891375F50F5A
:104EA000EF00E0672685B356640133565401B355CD
:104EB00034018904858A058A858993F4F40FEF000B
:104EC00000660D09E38A44F7834599000346A9006B
:104ED0008346B90083490900834A1900034B29001E
:104EE0005DB70547E39AE7F49307000303C5C18163
:104EF000A38EF15AEF20E04A9945170500001305EB
:104F0000C506EF208041238EA1803DB7A38E015AB4
:104F1000A38A015A239B015A238C015A31BF93075C
:104F20000003A38EF15A09BFEFD29FA09387C15906
:104F3000138781509386C15D03A80700C8438C473F
:104F4000D0472320070148C30CC750C7C1074107FA
:104F5000E394D7FE13060004938581500545EF20A6
:104F6000901B6FD03F9F938781819843854703476C
:104F700067006303F7008280EFD29F9B75376FD085
:104F80007F9DEFD2FF9A1306E00281451385A15160
:104F9000EFD01F9D9387815803A3070083A8470084
:104FA00003A88700D44703D7070193878150494658
:104FB000BE8523A0670023A2170123A40701D4C73D
:104FC0002398E7000545EF2010156FD0BF98EFD26A
:104FD0003F96938781819C43094783C76700638716
:104FE000E7020D476380E70405476385E70203C5D1
:104FF000D181EF20603D814517050000130565FD57
:10500000EF20E035A38EA1806FD0DF94EFF0DF9525
:105010006FD05F9403C5C181EF20603D313761F9E6
:105020006FD05F93B93F6DDDD9B7EFD2DF8E83D7F5
:10503000E18613D78700A38EF1589754000093841C
:10504000A48C238FE158A38C015A239D015A238EEF
:10505000015A01449389C1593D492285552C0504C3
:105060001374F40F19C983C7040083C61400CE97C4
:1050700003C7D701558FA38EE7008904E31F24FDE2
:10508000938701878397070063C407006FD0FF8B66
:105090003D45BD2C65DD9387C15903C7A70183C773
:1050A000C70105078507238BE15A238CF15A6FD07E
:1050B000DF89EFD25F8623A4015823A6015823A8D5
:1050C000015823AA0158239C0158930710032384F5
:1050D000F15801441149A5493D4B975A0000938A64
:1050E000AA84138A81589374F40F268563092403D4
:1050F00063873403312C93171400D697B3068A00C4
:1051000009CD03471A0083C5070003C61700B3671C
:10511000B700A384F1582381C600638464010504A9
:10512000D9B71145F52209E5930730032387F158D4
:105130002545F92A01E59147A389F1586FD0FF80F1
:10514000EFD20FFFAD20D92A83D42187B347950032
:105150002398F1862A842399A186EF10105BEF1023
:10516000507C1345F5FF420541812397A18683D7E3
:1051700041876384A702239AA186EF204037938753
:1051800081819C43054783C767006380E7020D4721
:10519000638BE7002D3D6FD0EFFB239AF186E31E72
:1051A00094FC6FD02FFB3137F5B74135E5B7EFD21F
:1051B0002FF5371A01409384C160130D0A80A68B26
:1051C0008149094C130A0AC08D4A854C954D638765
:1051D000890F63543C0D638F59119147639EF90EFB
:1051E000930500405285EFE00F89BD456A85EFE0E9
:1051F0000F871145EFD05F815E890144214BB315C4
:105200008B00C205C1815285EFE02F8341E5230069
:10521000990105041509E31454FF8509850BE398EA
:10522000B9FB37150140C14513050580EFE0EF805C
:1052300013351500C168A38DA1601388F8FF13878B
:10524000C15D9386C15F1385C15F8D450543F1182C
:105250008357070003C604008607D18FC207C183A6
:105260002310F7006380B702638E07016383170181
:1052700099E323800600090785048506E31AE5FC07
:105280006FD0CFEB23806600090785048506E31104
:10529000E5FCFDB723000900ADBF8547639EF90219
:1052A0006A858945EFD03FFD6A85B545EFD03FFB64
:1052B000930500405285EFD09FFA25BF6A8591453E
:1052C000EFD07FFB6A85AD45EFD07FF993050040B5
:1052D0005285EFD0DFF831BF6A858545EFD0BFF941
:1052E0006A85B945EFD0BFF7930500405285EFD0EE
:1052F0001FF701B76A85A145EFD0FFF76A859D4585
:10530000EFD0FFF5930500405285EFD05FF5D5B59E
:105310009387C15F3E950345050082809386C15FF8
:1053200081470145414603C7060085063317F7004C
:10533000598D420585074181E397C7FE8280930717
:10534000D039B308F502131835002A989397150041
:105350000A08AE973308A8402E9822068E07598E69
:10536000C2061387C1610A089507558E3A98C697F9
:1053700097C6FF1F938686E92320C800BE965D4727
:10538000FD55B357E600858BB307F04093F76704EC
:105390009387D7022380F6007D178506E313B7FEB7
:1053A0008280EFD24FD7AA8A2E8AB289814413090C
:1053B00030020D4B0144A28505044E87D2865686E5
:1053C00026851374F40FA53FE31724FF850493F497
:1053D000F40FE39164FF6FD04FD7EFD26FD5130571
:1053E0000020EFD0FFBF19E16FD0CFD61305000228
:1053F000EFD01FBF75D937052000EFD07FBE6DD528
:1054000013050020EFD0BFBE13050002EFD03FBE52
:1054100037052000EFD0BFBDB7040040138504401E
:10542000814537040240EFE00FC2130504038145B4
:10543000EFD07FB91305C4018145EFD0DFB8130564
:10544000C4068145EFD03FB8130504039305D03956
:10545000EFD0DFB81305C4019305D039EFD01FB8E2
:105460001305C4069305D039EFD05FB71305C40107
:105470008545EFD05FB5130504038545EFD0BFB474
:105480001305C4068545EFD01FB485451385044038
:10549000EFE06FBB6FD00FCCEFD28FC93D3FEFF085
:1054A0004FBB6FD02FCB9307200263E7B700EFD23B
:1054B0002FC871356FD00FCA8280EFD26FC7D53534
:1054C0006FD04FC9EFD22FC5AA8A2E8AB2893689EA
:1054D000014493043002A28505044A87CE86528691
:1054E00056851374F40FA13DE31794FE6FD0EFC5FA
:1054F000EFD20FC493868187BD470146F55503C798
:10550000060085063317F700F517598EE399B7FEA5
:10551000328523A0C188EFF04FB56FD0AFC3EFD273
:105520002FC1B335B000B336D0008A053336C00082
:10553000D58D9387818706063E954D8E2300C50045
:10554000453F6FD02FC1EFD2AFBE3971894717B435
:10555000FF1F130424AC2300F1009305803E930742
:105560003020170500001305C5112310F400EF10BB
:10557000105F17B6FF1F130666AB83469600834580
:1055800086000347A6008347B600A206CD8E4207D9
:10559000558FE207A301A400D98F0A8581460146F1
:1055A0008545829721616FD0EFBAEFD26FB839711C
:1055B00093074011856517B4FF1F1304A4A53EC0CF
:1055C0009385853893073010170500001305650B88
:1055D0002310F400EF10B05817B6FF1F130606A5EE
:1055E00083469600834586000347A6008347B6009E
:1055F000A206CD8E4207558FE207A301A400D98FE2
:105600000A85814601469145829721616FD08FB40A
:10561000EFD20FB2B707FF013971938727533EC00E
:10562000C14717B4FF1F1304E49E2302F100930542
:10563000803E9307303017050000130585042310C2
:10564000F400EF10D05117B6FF1F1306269E8346B5
:105650009600834586000347A6008347B600A2064E
:10566000CD8E4207558FE207A301A400D98F0A858A
:10567000814601469545829721616FD0AFAD17B73E
:10568000FF1F034727999547630EF708EFD24FAAEC
:1056900083C6E1A503C7D1A583C721A6A20683C5FA
:1056A000F1A5D98E03C511A6A20703C631A6C2056E
:1056B000C98FD58D03C541A69D4642065D8E03C7A1
:1056C00001A69317850117B5FF1F2305D59462071F
:1056D00097B6FF1F83C6169429454D8FD18F636BF4
:1056E000D50017460000130626268A06B296944275
:1056F000B296828603461700834627000347370089
:1057000099452380B700A381E7000D47A380C70018
:105710002381D700A38207002382E700EFE0FF9BED
:105720006FD04FA3854717B7FF1F2305F78E8280E1
:105730000346170083462700034737009945238017
:10574000B700A381E7000547A380C7002381D700E6
:10575000A38207002382E700EFE03F986FD08F9F7E
:105760000346170083462700034737009D452380E3
:10577000B700A381E7000547A380C7002381D700B6
:1057800023820700A382E70023830700EFE0FF9452
:105790006FD04F9C8346A701034517008345270020
:1057A00003463700139746001377F70F13083701A6
:1057B000350723880700A38807002389D7002380A3
:1057C0000701A380A7002381B700A381C70023821C
:1057D0000700A382E700EFE05F9099B7AD33EFE0F9
:1057E000DF8F3DBF3535EFE05F8F1DBF03461700EC
:1057F0008346270003473700C9452380B700A381AC
:10580000E7003147A382E7000547A380C700238153
:10581000D70023880700A38807002382E700EFE072
:10582000DF8BFDBD8D4763FFA70617C7FF1F13075B
:10583000674B8347070083461700D58FADE397C6B4
:10584000FF1F83C6464A9307F00F639AF604034787
:10585000470097C7FF1F83C717493E971377F70F76
:105860001DEFF91793F7F70F17C7FF1FA30DF746A3
:10587000636AF50297C6FF1F83C616471307500DCC
:10588000639FE600850517C7FF1F0347074693F58B
:10589000F50F6316B7001395070141858280130544
:1058A000300F82801305400F8280EFD2CF8617A879
:1058B000FF1F0348787883C521A697A7FF1F83C7DA
:1058C000A77783C811A603C5E1A517A6FF1F034646
:1058D000C67603C731A62208A205B3E5150103C3A6
:1058E000D1A53368F80083C6F1A597A7FF1F83C72A
:1058F000D7742205420642074D8F33656500336633
:10590000060103C301A683C841A6A3820188C2067B
:10591000E20717C9FF1F1309E93CC98E62031398F8
:105920008801D18F938551884A85B364D30033644D
:10593000E800829783C95188638C090097A7FF1FED
:1059400083C7476D0D476387E70011476382E7020E
:105950006FC0BFFF0347490083472900914617A640
:10596000FF1F2309D66AF98F1307F00F638DE70431
:1059700097A7FF1F83C7176A2947E36BF7FC1747F1
:105980000000130727FF8A07BA979C43BA978287BC
:10599000930520034E857935E34C05FA954717A703
:1059A000FF1F2309F76617A5FF1F0345D566930759
:1059B000F00FE30FF5F8EF103021FD5717A7FF1F89
:1059C000A30BF76471B783470900034619008346A8
:1059D000390003475900D18FD58FD98FD1FB4E861F
:1059E00097C5FF1F938565304A85EF30D06949B769
:1059F0009305A0044E853D35E34C05F4954717A764
:105A0000FF1F2309F76017A5FF1F0345D560930704
:105A1000F00F6309F500EF10301BFD5717A7FF1FAC
:105A2000A30BF75E97C7FF1F83C7372C83C6E1A57B
:105A300003C6D1A56381073A83C7F1A5A20603C7B0
:105A400001A6D18EC20703C621A6D58F620783C8DF
:105A500011A683C631A65D8F220683C741A60348DF
:105A60001700034527008345370033661601139757
:105A70000601518FE207D98F35472380E7001D4784
:105A8000A38007012381A700A381B7002382070019
:105A9000A382E70097C7FF1F83C787252304F4006D
:105AA00017C7FF1F0347C724814715C33307F900F2
:105AB0008346D7003307F4008507A304D70093F784
:105AC000F70F17C7FF1F0347A722E3E1E7FE85474C
:105AD0002303F400C147A303F400EFE00FE08DBD02
:105AE000930500044E85EFF0FFD397A7FF1F83C7F0
:105AF000875297C6FF1F83C6661F13974700FD1680
:105B00003107E397E6E40347290103463901834659
:105B10007900518F93F6F603558FE31B07E2154783
:105B200097A6FF1F2388E64E17A5FF1F0345B54E16
:105B30001307F00F630DE500EF101009FD5717A7CD
:105B4000FF1FA30AF74C97A7FF1F83C7C74C9DCF22
:105B50001385F7FF1375F50F5546930604011205DB
:105B6000018E3695A2851376F60F2E87B307E600D1
:105B700093F7F70FCA9783C7070005072309F700B4
:105B8000E396E6FEC105C106E391A5FE83C7A40125
:105B900023080400A30804002309F40003C6E1A5B8
:105BA00083C5D1A503C7F1A5220683C601A64D8EE4
:105BB000420783C521A6518FE20603C311A603C67F
:105BC00031A6D98EA2051397470083C8160003C8D3
:105BD000260003C5360083C741A61377F70FB3E548
:105BE000650093160601CD8E1306D700E207D58F08
:105BF0004D079376F60F2380E700A38017012381DA
:105C00000701A381A70023820700A382D7002303F3
:105C1000D400EFE08FCC2DBBD1454E85EFF09FC077
:105C2000E35E05D635B3930500044E85EFF09FBFC4
:105C3000E34005D297C7FF1F83C7370BE39A07D00E
:105C4000954717A7FF1F2307F73C17A5FF1F03451D
:105C5000953C9307F00F6309F500EF10E076FD57D0
:105C600017A7FF1FA309F73A83C6E1A503C6D1A56D
:105C700083C7F1A5A20603C701A6D18EC20703C63A
:105C800021A6D58F620783C811A683C631A65D8F72
:105C9000220603481700034527008345370083C7C2
:105CA00041A63366160113970601518FE207D98F7B
:105CB00019472380E700A38007012381A700A38160
:105CC000B70023820700A3820700EFE00FC149B1AC
:105CD000930500044E85EFF0FFB4E34B05C697C76C
:105CE000FF1F83C79700E39507C6954717A7FF1FB8
:105CF0002302F73217A5FF1F0345F5319307F00F75
:105D00006309F500EF10406CFD5717A7FF1FA304B0
:105D1000F73083C6E1A503C6D1A583C7F1A5A206C6
:105D200003C701A6D18EC20703C621A6D58F62077D
:105D300083C631A683C511A65D8F2206834817004E
:105D4000034827000345370083C741A64D8E1397AC
:105D50000601518FE207D98F59472380E700414759
:105D6000A381A700414697C5FF1F938525F8A3800F
:105D700017012381070123820700A382E70013058F
:105D80006400EF30F024EFE04FB5D9B69305A004DE
:105D90004E85EFF03FA9E34D05BA97C7FF1F83C7B4
:105DA000D7F463930714954717A7FF1F2304F7261B
:105DB00017A5FF1F034535269307F00F6309F5006C
:105DC000EF108060FD5717A7FF1FA306F72483C6B7
:105DD000E1A503C6D1A583C7F1A5A20603C701A605
:105DE000D18EC20703C621A6D58F620783C811A62C
:105DF00083C631A65D8F220603481700034527009E
:105E00008345370083C741A6336616011397060101
:105E1000518FE207D98F1D472380E7000547A380F4
:105E200007012381A700A381B70023820700A38273
:105E3000E70023030400EFE04FAA19BE9305000416
:105E40004E85EFF03F9E954717A7FF1F2304F71CD1
:105E500017A5FF1F0345351C9307F00F6309F500D5
:105E6000EF108056FD5717A7FF1FA306F71A83C52B
:105E7000E1A503C8D1A503C521A683C6F1A5A20546
:105E800083C811A603C631A603C701A6B3E5050161
:105E90002205C20683C741A633651501CD8E420691
:105EA0006207558F498EE207834517008346370006
:105EB000D18F034627003147A382E70003475400F0
:105EC00049452380A700A380B7002381C700A38191
:105ED000D7002382070023080400A308040023033B
:105EE000E400EFE08F9FADB40547E393E7A60347D7
:105EF000890097C4FF1F83C474DF9387E4FE97A6CD
:105F0000FF1F238BE61093F7D70FE39307A4954762
:105F100017A7FF1F2300F71017A5FF1F0345B50F95
:105F20009307F00F6309F500EF10004AFD5717A71C
:105F3000FF1FA302F70E97C7FF1F9387A7DA130768
:105F4000940017C6FF1F130666DA83C6B70005075D
:105F50008507A30FD7FE83C62701A303D700E31647
:105F6000F6FE8343240183423401834F4401034FEF
:105F70005401834E6401034E74010343840183483A
:105F800094000348A4000345B4008345C4000346BD
:105F9000D4008346E4000347F400834704018349A7
:105FA000140197A0FF1F238E700697A3FF1FA38ADB
:105FB000530697A0FF1FA385300797A2FF1F2383D7
:105FC000F20797AFFF1FA38FEF0517AFFF1F230C3B
:105FD000DF0597AEFF1FA388CE0517AEFF1F230571
:105FE0006E0417A3FF1FA309130397A8FF1F23869F
:105FF000080317A8FF1FA302A80217A5FF1F230F5E
:10600000B50097A5FF1FA38BC50017A6FF1F230888
:10601000D60097A6FF1FA384E60017A7FF1F230142
:10602000F700D147639EF4000347C9018347B901D4
:1060300097A6FF1FA38AE6FE17A7FF1F2307F7FEF9
:1060400083C6E1A503C6D1A583C7F1A5A20603C7F0
:1060500001A6D18EC20703C621A6D58F620783C8C9
:1060600011A683C631A65D8F22060348170003459B
:1060700027008345370083C741A63366160113976F
:106080000601518FE207D98F65472380E7004D470E
:10609000A38007012381A700A381B700A382E700A3
:1060A0002382070085472303F40093070002A3031C
:1060B000F400C1472304F400EFE02F826FF05F8902
:1060C000EFC21F8783C6E1A503C6D1A583C7F1A58B
:1060D000A20603C701A6D18EC207D58F620783C669
:1060E00021A65D8F97A7FF1F9387C7F283C311A6D1
:1060F00083C531A683C2570083CF670003CF7700E3
:1061000083CE870003CE970003C3A70083C8B700E0
:1061100003C8C7000346E700A20603C541A6B3E6CD
:106120007600C205D58D93168501CD8EA30257004A
:10613000930516002303F701A303E7012304D70106
:10614000A304C70123056700A30517012306070160
:10615000A383B600A1456308B61863F5C508B14727
:106160006303F6289307400A631DF62E03C6E1A5D4
:1061700083C5D1A583C7F1A5220603C701A64D8E0D
:10618000C20783C521A6D18F620703C311A603C628
:1061900031A65D8FA20583C741A683481700034837
:1061A000270003453700B3E56500131706014D8F3F
:1061B000E207D98F45472380E7002D47A3801701C9
:1061C00023810701A381A70023820700A382E700A0
:1061D0002388060083C756002383F600EFD0FFEF25
:1061E0006FC04FF7630606189945631CB626034631
:1061F000A701054797A5FF1F238FC5E06306E60C9F
:106200001387360117A5FF1F130545E183C5570006
:1062100005078507A30FB7FEE39AA7FE138736038A
:1062200093853606930707FF238007008507E39DC4
:10623000E7FE13870701E397E5FE85472382F60211
:106240002389C60023880600A388060083C5E1A52C
:1062500003C5D1A583C7F1A5A20503C701A6C98DB2
:10626000C20703C521A6CD8F620703CE11A683C541
:1062700031A65D8F120622050343170083482700CD
:106280000348370083C741A63365C5011376F60F6F
:1062900013970501498F9305D600E207D98F4D0664
:1062A00013F7F50F2380C700A38067002381170130
:1062B000A381070123820700A382E7002383E6006E
:1062C000EFD0BFE16FC00FE91387360117A5FF1F9D
:1062D0001305C5D483C5570005078507A30FB7FE6F
:1062E000E39AA7FEB1BF03C821A603C5E1A5834871
:1062F000A70103CE11A603C3D1A583C531A603C64A
:10630000F1A52208220583C741A603C701A6336869
:10631000C80133656500C2054206B3E50501498E33
:10632000E2076207CD8F518F97A5FF1F238515CFF9
:106330000345170083452700034637003147A382F2
:10634000E70003C75600494823800701A380A70040
:106350002381B700A381C70023820700238806009A
:10636000A38806002383E600EFD03FD76FC08FDEFF
:1063700003C6E1A583C5D1A583C7F1A5220603C73E
:1063800001A64D8EC20783C521A6D18F620703C324
:1063900011A603C631A65D8FA20583C741A6834817
:1063A00017000348270003453700B3E565001317BE
:1063B00006014D8FE207D98F69472380E7005147D7
:1063C000A380170123810701A381A700238207006F
:1063D000A382E700930780F8238CF600930740FB25
:1063E000A38CF600C5BB03C6E1A583C5D1A583C7B1
:1063F000F1A5220603C701A64D8EC20783C521A6BB
:10640000D18F620703C311A603C631A65D8FA20513
:1064100083C741A683481700034827000345370078
:10642000B3E56500131706014D8FE207D98F4D477D
:106430002380E7003547A380170123810701A3814B
:10644000A70023820700A382E70085472388F60080
:10645000930780F8238CF600930740FBA38CF6008B
:1064600095BB03C6E1A583C5D1A583C7F1A52206C7
:1064700003C701A64D8EC20783C521A6D18F62072F
:1064800003C311A603C631A65D8FA20583C741A62B
:10649000834817000348270003453700B3E565002C
:1064A000131706014D8FE207D98F19472380E700A4
:1064B000A380170123810701A381A700238207007E
:1064C000A38207008D472382F60029B3EFC24FC68F
:1064D00017A4FF1F130484B5834614000346040069
:1064E0000347240083473400A206D18E4207558F0C
:1064F000E207FD5617A6FF1FA30FD6B0D98F8297CC
:1065000083465400034644000347640083477400F5
:10651000A206D18E4207558FE207D98F8297930545
:10652000400617F5FFFF13054502EF005063930582
:10653000800C17F5FFFF1305E50DEF005062930582
:10654000C01217F5FFFF13058506EF0050616FC0FD
:106550006FC0EFC2EFBD3971B367B50017A4FF1F5D
:10656000130444AB130720132301F1009305803E6D
:106570009307304017F5FFFF1305A5102310E10026
:106580002310F400EF00B05D17A6FF1F130606AA44
:1065900083469600834586000347A6008347B600DE
:1065A000A206CD8E4207558FE207A301A400D98F22
:1065B0000A85814601468D45829721616FC08FB95A
:1065C000EFC20FB739719307A01417A4FF1F13046C
:1065D00064A42301A1002310F10017F5FFFF1305A8
:1065E000450A930730502310F400EF00505717A6C8
:1065F000FF1F1306A6A38346960083458600034724
:10660000A6008347B600A206CD8E4207558FE2074B
:10661000A301A400D98F0A85814601468D45829742
:1066200021616FC02FB3EFC2AFB0834E0700034E9E
:106630001700034327008348370003484700834778
:10664000570039712E84B336D00013070014938697
:106650000606AA85A301C1001305A1002286231006
:10666000E1002302D101A302C10123036100A303BE
:106670001101230401012301D100A304F100EF3033
:106680002015930730609305803E17F5FFFF130533
:1066900045FF17A7FF1F231FF796EF00504C97A643
:1066A000FF1F83C6369997A7FF1F83C7A79817A711
:1066B000FF1F03474798A206DD8E420797A7FF1FDB
:1066C00083C77797558F9305A40097A6FF1FA384D0
:1066D000A694E2070A85D98F8146014693F5F50F06
:1066E000829721616FC00FA7EFC28FA43971930702
:1066F00000142310F1009307000317A4FF1F1304D5
:106700006491A301A1002301F1009305803E93074A
:10671000307017F5FFFF1305C5F62310F400EF00E6
:10672000104417A6FF1F1306669083469600834504
:1067300086000347A6008347B600A206CD8E420717
:10674000558FE207A301A400D98F0A85814601462F
:106750009145829721616FC0EF9FEFC26F9D9317A4
:10676000850021813971C98F2312F1004167856746
:1067700017A4FF1F1304048A2303B1001307A714EF
:10678000B2859387378017F5FFFF130585EF3AC071
:106790002310F400A3030100EF00703C17A6FF1FB5
:1067A0001306C68883469600834586000347A600E5
:1067B0008347B600A206CD8E4207558FE207A3019C
:1067C000A400D98F0A8581460146A145829721619F
:1067D0006FC04F98EFC2CF9583C7418891CB930587
:1067E000803E0145EFF0DFDD238201886FC08F9688
:1067F00041651306803E81457D1585378547238297
:10680000F1886FC02F95EFC2AF9279718545116500
:1068100002CA02CC02CE02D002D202D402D602C6F2
:1068200002C8EFC0BFE985451145EFC03FE9371405
:106830000140930700200D494C0813050480231ADA
:10684000F100E1474ACC3ECEEFC05F8E9307004097
:106850004C0813050480231AF10091473ECEEFC087
:10686000FF8C930700104C0813050480231AF100D5
:10687000C1473ECE4ACCEFC07F8BF167B7440140A1
:10688000938707200C10138504803ED0B7070C00B7
:106890003ED402D223160102EFD02F981385048034
:1068A000054693055052EFD04FA905469305404247
:1068B00013850480EFD06FA8930750036800231658
:1068C000F10085473EC823070100EFC0BFBD138517
:1068D00004808545EFD06FA4930500101305048054
:1068E000EFC0FF9745616FC0EF86EFC26F84956779
:1068F0004111938757553EC0B70700FF3EC2B70707
:10690000D514938737D03EC4856793871770374473
:1069100001402316F100230701009304110013091D
:10692000F10093055005130404802285EFD0AFA435
:10693000930500082285EFD04FA57DD963862401F9
:1069400083C504008504D5B741016FC0AF80EFB2A5
:106950009FFC834705002A89374501402E84130593
:1069600005808145B74A0140B284368A2387F18881
:10697000AA89EFD04FA0930500084E85EFD0EFA075
:106980007DD913850A808145B74A0140EFD0AF9E7B
:1069900093890A80930500084E85EFD00F9F7DD91B
:1069A00013850A809305F00FB74A0140EFD0AF9CE2
:1069B00093890A80930500084E85EFD00F9D7DD9FD
:1069C000B307440193F7F70F9385170013850A80E7
:1069D00093C7F7FF374B014093F5F50F93FAF70F85
:1069E00093090B80EFD02F99930500084E85EFD0C7
:1069F000CF997DD9D68513050B80B74A0140EFD0DA
:106A00008F9793890A80930500084E85EFD0EF9702
:106A10007DD99305400D13850A80B7490140EFD019
:106A20008F9593890980930500084E85EFD0EF95E7
:106A30007DD931C0930AF4FF93FAFA0F374401402D
:106A4000CA9A9309400D13040480834509002285E6
:106A5000EFD06F92930500082285EFD00F937DD978
:106A60008347090013071900BE9993F9F90F6306CC
:106A700059013A89D9BF9309400D63000A041309EB
:106A8000FAFF1379F90F93871400374401403E99B8
:106A90001304048083C504002285EFD0CF8D9305B5
:106AA00000082285EFD06F8E7DD983C7040085044E
:106AB000BE9993F9F90FE39F24FDB30530413745A3
:106AC000014093F5F50F13050580B7440140EFD061
:106AD0008F8A13840480930500082285EFD0EF8A03
:106AE0007DD981451385048037440140EFD0AF88BC
:106AF00013040480930500082285EFD00F897DD907
:106B00006FB0BFE4411122C6374401409305505293
:106B100013050480EFD02F8849E5374401409305E1
:106B2000404213050480EFD00F871DC10357048036
:106B30008357448083C7718885C31387D18893871F
:106B4000818803470700BA9723800700A383018841
:106B5000324441017300203003C7D1889387818874
:106B60003E97834607001387D18893F6F60FF1DA34
:106B700003C66188894663E6C6089386618883C632
:106B8000060085062383D188834607000D468506C7
:106B9000A386D18883460700E375D6FAA3860188C9
:106BA0004DB713050480EFC0BFFD83C77188B5F7EB
:106BB00003C7D188938781883E9783460700138750
:106BC000D18893F6F60F1396860161866347060215
:106BD000834507000346070017B7FF1F13078718F1
:106BE0009E052E9793851600B297BA9613F7F50F68
:106BF0002380A6002380E7000DB78547A383F18893
:106C000029BF83C6C18885062386D18803C6C1886B
:106C10008D46E3FBC6F623860188BDB7EFB25FD190
:106C20003744014001462A89AE8413050480930548
:106C30005052EFC09FF00146930540421305048077
:106C4000EFC0BFEF83C76188B5CB83C6C188939778
:106C5000760017B7FF1F1307E7103E9793878188C9
:106C60002320E900B69783C707000D472380F4006F
:106C700083C7C18885072386F18883C7C188636C71
:106C8000F7029387618883C70700374401401305E3
:106C90000480FD170546930550522383F188EFC009
:106CA000DFE913050480054693054042EFC0FFE885
:106CB00005456FB03FCA23860188E1B713050480FC
:106CC000054693055052EFC05FE713050480054663
:106CD00093054042EFC07FE601456FB0BFC7EFB2FA
:106CE0003FC541112A89AE8411A80344B100B245C1
:106CF0004A852286EF20D02D238084009305B100A1
:106D00006800293F7DF141016FB0DFC4EFB25FC27F
:106D1000F9376FB03FC4EFB2BFC1011185451165AE
:106D200002C002C202C402C602C802CA02CC231EAA
:106D30000100EFC09F9A85452145EFC03F98371469
:106D4000014061498D448A85130504C0856723107D
:106D5000F1004AC426C2EFC06FBD8A85130504C086
:106D600089672310F1004AC426C2EFC02FBC916787
:106D70008A85130504C02310F10091473EC4EFC07B
:106D8000EFBAE1778A85130504C02310F100374478
:106D900000404AC426C2EFC06FB913050480854580
:106DA000EFC03F9FB70704013EC6930700026C0087
:106DB000130504803ECC9D47231EF10002C802CA81
:106DC000EFC09F931305048005468945EFC0DF9A05
:106DD0001305048005468545EFC01F9A85451305B8
:106DE0000480EFC05F9705616FB0DFB6EFB2BFB24E
:106DF00079712A84AE89054585453289B68402C2F7
:106E000002C402C602C802CA02CC02CE02D002D21A
:106E100002D402D6EFC0BF882285EFC0CF8BC14716
:106E20003EC6930700084C003ECC228585674EC2C3
:106E30004AC426C83ED402CA02CE02D002D202D62A
:106E4000EFC06F9445616FB05FB0EFB2DFAC7971A6
:106E50002A84AE89054585453289B68402C202C4BA
:106E600002C602C802CA02CC02CE02D002D202D4AA
:106E700002D6EFC0DF822285EFC0EF8593070008BE
:106E80003ECC930700103ECE930700404C003ED00E
:106E9000228585674EC24AC426C83ED402C602CAAD
:106EA00002D202D6EFC02F8E45616FB01FAAEFB29B
:106EB0009FA679712A84AE89054585453289B684B5
:106EC00002C202C402C602C802CA02CC02CE02D06A
:106ED00002D202D402D6EFC08FFC2285EFB0BFFFF2
:106EE000930700084C003ECC228585674EC24AC4F9
:106EF00026C83ED402C602CA02CE02D002D202D6B0
:106F0000EFC06F8845616FB05FA4EFB27FA2938737
:106F1000818A9C430547638DE70499CB09476397B2
:106F2000E7000945EFC0CF8B631305146FB09FA234
:106F3000138741898347170003462700834637009C
:106F400003474700D18FD58FD98F03C72182638232
:106F5000071C9307F7FF93F7F70F2381F182639ADA
:106F6000070C854723A4F18A238101826FB09F9E7D
:106F700037050200EFC0CF8609E50965EFC04F86EF
:106F800055D537050200EFC08F860965EFC02F8603
:106F900037450040814513050580EFC0CFFB03C690
:106FA00051891347F6FF973700009387679F137740
:106FB000F70F3E970347070083C5618983C6718930
:106FC0002D8F3E970347070003C58189358FBA97F8
:106FD00083C7070093C7F7FF93F7F70F6305F51211
:106FE00037040240130584058145EFB0DFFD13052A
:106FF00084059945EFB09FFE130584058545EFB0E4
:107000009FFC130544048145EFB0FFFB13054404C6
:107010009945EFB0BFFC130544048545EFB0BFFAB6
:1070200037450040854513050580EFC0CFF26FB0AE
:107030007F924147E37CF7EE3745004089471305CF
:107040000580814523A4F18A37040240238101820F
:10705000EFC06FF0130584058145EFB0DFF6814581
:1070600013054404EFB03FF6EF90D010C1B50945C9
:10707000EFB0FFF797B7FF1F9387C7EF17B6FF1F54
:10708000130646F7014783D6070089073697E31CA6
:10709000F6FE9387018983950700198393160701EC
:1070A000C1863386B6008147634E060081CE0565F2
:1070B0009307F5FF6358A6006386F6002E97931793
:1070C0000701C183239DF18883D7A18993C7F7FF67
:1070D000239DF1883704024083D7A18992071305C5
:1070E00084008145239DF188EFB0FFED13058400F6
:1070F00093058004EFB09FEE854513058400EFB043
:107100009FEC6FB03F8593178600CD8F239DF1884C
:10711000C1BD9307170093F7F70F81B503D5A18978
:10712000828083D7A18903D7C1896370F71633871B
:10713000E74013271710134717006310071003C702
:10714000E189131617009386018A97B5FF1F93856F
:1071500065EAB295944203D605000507BE96918E66
:1071600013D636002390F500931706011D8BC183BB
:1071700023A0D18A3E86238FE188239EF18803D7FE
:10718000418ABA8563FAE708B306C74093A6160496
:1071900093C6160089C62392F18AB2853E879387EB
:1071A0008181944383C7160083C60600A207D58F4A
:1071B000C166FD169D8E63D3B60085073E974207D4
:1071C000E17741833E97131517002A9721652A9787
:1071D000416583C7E1816358A70463490704131518
:1071E00007014181B1E783D7018263F5A70C33071B
:1071F000F54042074183AA8621463685637BE60037
:10720000130600046369E6083385D700058142054B
:1072100041812390D1828280B306E64093A6160472
:1072200093C6160085BF7D15DDDF19A0BDCF0145D2
:107230002390A182238F018082801397370097B615
:10724000FF1F2399F6DA97B6FF1F2396F6DA97B653
:10725000FF1F2393F6DA97B6FF1F2390F6DA97B64F
:10726000FF1F239DF6D897B6FF1F239AF6D897B62F
:10727000FF1F2397F6D897B6FF1F2394F6D8239EB7
:10728000F1883E8623A0E18ADDBD1D8F13271710EC
:10729000134717005DB513953600158D3E950D818A
:1072A000420541812390D182828083D701823E872B
:1072B000814699B73387A74042074183AA862DBFED
:1072C0009387818183D6A1899843E177958FC207FF
:1072D000C18393D687002300F700A300D7008280E4
:1072E000411122C637140040854513050480EFC0C4
:1072F0002FF009E53244410173002030130504806A
:107300008545EFC0AFF09387C18A9C43324485071F
:1073100023A6F18A41017300203017B7FF1F13071E
:10732000E7CE81474148144313F6F70F310781CA6E
:107330008507E39A07FF1306F00F328582801397C3
:107340001700BA971397270097B7FF1F938787CB2C
:10735000BA9788C7CCC323A007003285828017B7AD
:10736000FF1F1307A7D681474148144313F6F70FB1
:10737000310781CA8507E39A07FF1306F00F3285AC
:10738000828013971700BA971397270097B7FF1FAC
:10739000938747D3BA9788C7CCC323A00700328509
:1073A0008280BD4763E1A70293171500AA978A0759
:1073B00017B5FF1F130505C53E952324050023229D
:1073C0000500232005008280BD4763E1A7029317D3
:1073D0001500AA978A0717B5FF1F1305A5CE3E957E
:1073E0002324050023220500232005008280BD47B9
:1073F00063EDA70093171500AA978A0717B5FF1F1B
:10740000130545C0AA9723A007008280EFB2AFD032
:10741000371400401305048001468545EFC0AFC412
:107420009387C18A1305048005468545844317B4B4
:10743000FF1F130424BD23A6018A17B9FF1F1309D8
:1074400069C8EFC04FC2184411CB1C405440A697E6
:107450001CC063E5D7002320040002973104E31425
:1074600024FFB719004017B4FF1F1304A4C517B9B0
:10747000FF1F130929D19389098021A031046301D9
:1074800024051C44E5DF1C405840A6971CC0E3E7D8
:10749000E7FE014685454E8523200400EFC0AFBCC2
:1074A0001C44310482970546232E04FE232C04FE3F
:1074B000232A04FE85454E85EFC0EFBAE31324FD71
:1074C0006FB0AFC8EFB2CFC6F957A381F18217B43E
:1074D000FF1F130424CB97B4FF1F9384A4CC1C403C
:1074E000110491C38297E31C94FE6FB0AFC6EFB254
:1074F0002FC49384818190408346360083452600C3
:107500000347460083475600A206CD8E4207558F9B
:10751000E207D98FA9C303C531829307E00F630E39
:10752000F502EFF07FEA9840170500001305C5F952
:1075300083453700834627008347470003475700AA
:10754000A205D58DC207CD8F93158701DD8DEFF094
:107550001FE1A381A1826FB0EFBF17B4FF1F130417
:1075600064C417B9FF1F1309E9C51C40110491C376
:107570008297E31C24FFFD57A381F1821305F00FCE
:107580004DB797B5FF1F9385E5BF2E8781472146ED
:107590001443110799C68507E39CC7FE1305F00F36
:1075A000828013972700BA9588C113F5F70F828060
:1075B00097B5FF1F938505BF2E878147214614434A
:1075C000110799C68507E39CC7FE1305F00F82805B
:1075D00013972700BA9588C113F5F70F8280EFB291
:1075E0002FB5EF90A051EF90006113050040EFB070
:1075F000DFF90545EF8050235145EFB08FC4EFD040
:107600008FAA1545EFB0EFC3EF80901FEF90204D8C
:10761000EF90804DEF90C066EF90B038EF90C06D66
:107620005145EFB00FC2EF80D073EF80703CEF8018
:107630001020EFE0BFE9EF80D048D14517E5FFFF0C
:107640001305C5E5EFF07FCD854517E5FFFF130571
:1076500065AFEFF09FCC954517D5FFFF1305A50B40
:10766000EFF0BFCBF94517E5FFFF13054524EFF019
:10767000DFCAEFF0BFD9F5BF37050400EFB09F9E1A
:1076800073002030B12E730020308D4723A4F18C7D
:10769000828097B7FF1F83C787B589C7954723A403
:1076A000F18C8280854723A4F18C8280EFB24FA8B1
:1076B000AA842E8411458545EFC04F80B7660040EF
:1076C000ADC083A706C441677517F98F23A0F6C420
:1076D000B717014003A74780B716F0FFFD16758F57
:1076E00023A2E78003A7C780F9769386F67F758F7C
:1076F00023A6E78003A74780B7460400558F23A23F
:10770000E780374702408327078019C493E72700A3
:107710002320F7806FB00FA4F59B2320F7806FB074
:107720006FA303A706C4B7170140136727004207DA
:10773000418323A0E6C403A74780B716F0FFFD16D8
:10774000758F23A2E78003A7C780F9769386F67F1B
:10775000758F23A6E78003A74780B7360300558FB0
:1077600023A2E78079BF8280EFB28F9C93858154FA
:107770000545EF10B07A930700046307F50005454F
:10778000EF1070516FB00F9DEFD02FEA0545EF104D
:1077900090506FB02F9C8280EFB28F999385814C6F
:1077A0001145EF10B077930700046307F50011450A
:1077B000EF10704E6FB00F9AEFD0AF9B1145EF10E6
:1077C000904D6FB02F99EFB2AF96138481A6834589
:1077D000C4008346B4008347D4000347E400A205F5
:1077E000D58DC207CD8F93158701DD8D0945EF102B
:1077F000F0722305A40089650945A3070400EF1072
:1078000070426FB02F95EFB2AF92B767004083A779
:1078100007C5373700204907C207C183BA978607D3
:107820009C431307000293F7F73F6394E70283C773
:1078300011A799E703C7D1A683C7C1A66302F702C0
:10784000930500020945EF107039EFC09FEC6FB04F
:107850006F90930500020945EF1050386FB08F8F7D
:107860000146814513052008EF107068CDB7EFB2CF
:107870002F8C1384C1A48345C4008346B40083477E
:10788000D4000347E400A205D58DC207CD8F931520
:107890008701DD8D0D45EF1070682305A400896513
:1078A0000D45A3070400EF10F0376FB0AF8AEFB2B9
:1078B0002F88B767004083A707C5373700206907BF
:1078C000C207C183BA9786079C431307000293F748
:1078D000F73F6394E70283C751A599E703C711A552
:1078E00083C701A56302F702930500020D45EF105F
:1078F000F02EEFC01FE26FB0EF85930500020D453B
:10790000EF10D02D6FB00F8501468145130530086B
:10791000EF10F05DCDB7EFB2AF8109472E84B2848E
:10792000630EE506637CA7020D476305E504114776
:10793000631FE502EF10F034930700036309F502BB
:107940002686A28513054008EF10705A93050003A0
:107950001145EF10B02801456FA0DFFF0547631800
:10796000E500EF10103293070003631DF504054591
:107970006FA05FFEEF10F03093070003E309F5FE00
:107980002686A28513053008EF1070569305000374
:107990000D45EF10B02401456FA0DFFBEF10702EF6
:1079A00093070003E305F5FC2686A285130520084E
:1079B000EF10F053930500030945EF103022014505
:1079C0006FA05FF92686A28513051008EF103052CC
:1079D000930500030545EF10702001456FA09FF748
:1079E000EFA21FF537680040832708C541671305DC
:1079F000F7FFB7360020E98F9906B69786079043C0
:107A0000130707C083D5018B718F0111630CB70079
:107A1000832708C593F505C0E98FB6978607984375
:107A2000D98D8CC3B766004003A746C483D7418E67
:107A30001384C18B239EE18A03D7C18B7D8F13777B
:107A4000072019CB41671307F7DF23A2E6C403C75A
:107A5000218B05072389E18A035704007D8F4207A4
:107A60004187634F070C035704007D8F137707404E
:107A700005C39787FF1F9387E763D843C167938741
:107A8000F7BFB766004023A2F6C4029783D7418EA2
:107A9000035704007D8F9316270163CA0606035718
:107AA00004007D8F9316370163C006080357040056
:107AB0007D8F9316470163D106029387C1839C4350
:107AC000C9C7EF000075BD679387F77F3767004030
:107AD0002322F7C483D7418E03570400F98F93F70D
:107AE00007109DC34167B76700409306F7EF23A2D5
:107AF000D7C483A687C413960601634C060423AA41
:107B0000018A1D45EF00807C05616FA0BFE43967E5
:107B1000B76600407D1723A2E6C4035704007D8F9B
:107B200093163701E3D406F8BD67FD1737670040A9
:107B30002322F7C40145EF00607983D7418EBDB79A
:107B4000EF10003B83D7418E39BF0945EF00007825
:107B50009DBF1386418B14428D45850623AAD18A89
:107B60001442E3F0D5FA83A607C47D17A18AD1FA9F
:107B700003A607C42145938707C0798E23ACC18A29
:107B80008C431396260000102296F98D2320B6FE12
:107B900085069107E396A6FE9386818B9042B76592
:107BA0000040B76700401366160023ACC18A9042BC
:107BB000798E23A0C5C49042799A23ACC18A94429D
:107BC000758F23A0E5C403A747C41377074065DF7B
:107BD00041671307F7BF416623A2E7C47D16938769
:107BE00007C00147A145931627000810AA9683A64F
:107BF00006FE91070507F18E23AED7FEE315B7FE0B
:107C0000FDBD97A7FF1F83C7875E81C7954723A444
:107C1000F18C8280914723A4F18C8280828091E54F
:107C2000854733B5A700060582800945828011C5C6
:107C30001785FF1F1305C56182809387818D9C4343
:107C40001D472398E7008280EFA29FCEEFF03FFE12
:107C50006FA05FD0EFA2DFCD9384818D98408546E1
:107C60008347070093F7F707638BD7029306100249
:107C700009456394D702834617006386F604930789
:107C80000002639CF60017040000130424FC00CFDC
:107C9000231907000145029401456FA0BFCB83471C
:107CA0002700930620026385D70293061002094538
:107CB000E395D7FE170400001304C44F00CF01451D
:107CC00002949840E9B717040000130484F6C1B782
:107CD000170400001304E44AD5B79387818D9843B5
:107CE000930610020145834707000347170093F7E7
:107CF000F7076383D70082801307E7FD1377F70F39
:107D000005453335E50006058280EFA27FC29387E3
:107D1000818D9C4323850700C129B7650040B76763
:107D200000408566938707C09386F6F0138605C2E8
:107D300098439107758F23AEE7FEE39BC7FE930739
:107D4000F00F23A2F5C4EF1090188145014523A43C
:107D5000018CEFF0BF955145EFA0BFCE854505459D
:107D6000EFF0DF946FA01FBFEFA29FBC9387818DC0
:107D700017970000130747369C43034777000145D8
:107D800023950700A384E700EF10406293050020CD
:107D90000145EF10A062C1450145EF102064930535
:107DA00000050145EF10207F930500060145EF1007
:107DB000807C0145EF1020759785FF1F83C54532F4
:107DC0000145EF1030050145EF10E06CB76600404B
:107DD00003A606C0C1671387F7FF9317160163DF79
:107DE000070083A706C0F98F05671307F7F0F98F1F
:107DF000316713070708D98F23A0F6C03767004003
:107E0000832707C093F7070485C3832707C0C1668C
:107E1000FD16F58F85669386F6F0F58FA16693863D
:107E2000060CD58F2320F7C0930500600545EF10A1
:107E3000E058930500020545EF10405A93050007EE
:107E40000545EF1040739305000B0545EF10A07436
:107E5000930500040545EF10E07B8D650545EF10A7
:107E6000605C37670040832747C093F7070485C3EA
:107E7000832747C0C166FD16F58F85669386F6F0A9
:107E8000F58FA1669386060CD58F2322F7C0B766BF
:107E9000004003A646C0C1671387F7FF931716017A
:107EA00063DF070083A746C0F98F05671307F7F064
:107EB000F98F316713070708D98F23A2F6C08145D0
:107EC0000945EF10A04F930500020945EF1000513E
:107ED0009305000D0945EF10006A9305000F094551
:107EE000EF10606B930500020945EF10A0728D65DD
:107EF0000945EF102053B766004003A686C0C1674E
:107F00001387F7FF9317160163DF070083A786C067
:107F1000F98F05671307F7F0F98F31671307070823
:107F2000D98F23A4F6C037670040832787C093F713
:107F3000070485C3832787C0C166FD16F58F856654
:107F40009386F6F0F58FA1669386060CD58F2324D1
:107F5000F7C081450D45EF106046930500020D45C1
:107F6000EF10C047930500110D45EF10C060930559
:107F700000130D45EF102062930500020D45EF1030
:107F800060698D650D45EF10E049B766004003A6B6
:107F9000C6C0C1671387F7FF9317160163DF070099
:107FA00083A7C6C0F98F05671307F7F0F98F31670C
:107FB00013070708D98F23A6F6C037670040832729
:107FC000C7C093F7070485C38327C7C0C166FD16E2
:107FD000F58F85669386F6F0F58FA1669386060C7D
:107FE000D58F2326F7C0930500601145EF10003DA3
:107FF000930500021145EF10603E930500171145EF
:10800000EF1060579305001B1145EF10C058930502
:1080100000041145EF1000608D651145EF108040A0
:1080200037670040832707C193F7070485C3832779
:1080300007C1C166FD16F58F85669386F6F0F58F4C
:10804000A1669386060CD58F2328F7C0B76600403B
:1080500003A606C1C1671387F7FF9317160163DFF5
:10806000070083A706C1F98F05671307F7F0F98F9B
:10807000316713070708D98F23A8F6C00145EF0021
:108080009062854723A4F18C6FA0DF8CEFA25F8AFA
:1080900093850183EF00807F6FA0DF8BEFA25F8964
:1080A00093858182EF00807E6FA0DF8A9387818D28
:1080B0009C43A14683C5370083D7470063EFB608CA
:1080C000EFA21F87930600412A8613975500638805
:1080D000D70863F9F602856693854690638AB700F0
:1080E00093864610638CD704930640416388D70279
:1080F0009785FF1F93850500BA953285EF000079BB
:108100006FA05F8593068040638BD7049306C040C1
:108110006386D70093064040E39CD7FC9787FF1FF8
:10812000938747FDB385E70083D64501F9D69305CC
:108130000701BE953285EF006075D9B79787FF1F9D
:10814000938747FBB385E70083D6C501C5DA93055E
:108150008701BE95EF00807365B7014582809787E0
:10816000FF1F938727F9B385E70083D6C500D1D6D3
:1081700093058700BE953285EF00407151B7938714
:10818000818D9843854783455700F11513F7F50F07
:1081900063F4E70001458280EFA28FF99787FF1F04
:1081A000938747078E05BE95EF00406E6FA08FFA4C
:1081B0009387818D9843854783455700F11513F7C1
:1081C000F50F63F4E70001458280EFA26FF6978711
:1081D000FF1F938727F18E05BE95EF00206B6FA0E0
:1081E0006FF7828082808280B7670040054723A0B6
:1081F000E7C423A007C4096723A207C4130707C065
:108200002392E18E0967130707C023A0E7C4014545
:108210008280EFA2EFF137660040832806C44165F3
:10822000130606C0C20893D80801814797A5FF1F0F
:10823000938545F97D1521481442139727002E9701
:10824000E98E14C385071106E39807FF13F8E8FFCA
:10825000B767004013E70840420823A0E7C493E84B
:1082600018401358080123A017C51367084023A01E
:10827000E7C403A747C41377074065DF41671307C7
:10828000F7BF416623A2E7C47D16938707C0014765
:10829000214593162700AE96944291070507F18E6B
:1082A00023AED7FEE317A7FE376700401368884068
:1082B000232007C5832707C4C207C18393E747006C
:1082C0002320F7C4EFF06FBC6FA0CFE89D47630495
:1082D000F50023A0A18C9386018C9C421547636214
