:042800006F60D054E1
:102804000028000000000000DE3B0000E23B000066
:10281400000000004A9500000000000000000000D5
:102824004A9500004A9500000000000000000000E6
:102834004A950000000000004A95000000000000D6
:102844004A9500004A9500004A9500004A95000008
:102854004A9500004A9500004A9500004A950000F8
:102864004A9500004A9500004A9500004A950000E8
:102874004A9500004A9500004A9500004A950000D8
:102884004A9500004A9500004A9500004A950000C8
:102894008A7400004A9500004A9500004A95000099
:1028A4004A9500004A9500004A9500004A950000A8
:1028B4004A9500004A950000EE7000004A95000019
:1028C4004A9500004A9500004A9500004A95000088
:1028D4004A950000826A00004A9500004A9500006B
:1028E4004A9500004A9500007E7400004A95000055
:0C28F4004A9500004A9500004A9500003B
:10290000397101436EC619A0397141536AC866CA4C
:1029100062CC5ECE19A0397101535AD056D252D42E
:102920004ED64AD826DA22DC06DE330161408282A6
:1029300041114AC026C222C406C68282B24D41015C
:10294000024D924C224CB24B4101024B924A224A18
:10295000B2494101024992442244B240410182807D
:102960003D432A876373C3029377F700BDEFADE55C
:10297000937606FF3D8ABA960CC34CC30CC74CC76E
:102980004107E36BD7FE11E28280B306C3408A069B
:102990009702000096966780A6002307B700A3065B
:1029A000B7002306B700A305B7002305B700A304AB
:1029B000B7002304B700A303B7002303B700A302A3
:1029C000B7002302B700A301B7002301B700A3009B
:1029D000B7002300B700828093F5F50F939685002A
:1029E000D58D93960501D58D61B7939627009702F3
:1029F000000096968682E78086FA9680C1171D8F22
:102A00003E96E374C3F8A5B7B7F700E0CC43814620
:102A100037F700E0F999CCC383C521853386A50239
:102A200090CBD4CB944393E6060194C3944393E6AE
:102A3000160294C35C43858BF5DF1C43F99B1CC3D2
:102A40008280B7F700E0CC43814637F700E0F99980
:102A5000CCC383D501853386A50290CBD4CB9443D8
:102A600093E6060194C3944393E6160294C35C4331
:102A7000858BF5DF1C43F99B1CC382809C4103A816
:102A80008501D04DD4415841B3E70701D18F3706B6
:102A9000F1E0A2061306F6EF718FD58FD98F5CC1D6
:102AA000D0459C4994451845D18F37F6F1FF8606ED
:102AB0001306D67F718FD58FD98F1CC583C745016B
:102AC0005855B70610FFFD1793F7F70FFD16758FD2
:102AD000D207D98F5CD582801C4589C593E7170042
:102AE0001CC58280F99B1CC582801C4589C593E763
:102AF00007101CC5828093F7F7EF1CC582801C4528
:102B000093E787001CC5828008450D810589828076
:102B10001C4593E747001CC582800845098105894B
:102B200082801C4591C537075000D98F1CC5828013
:102B30003707B0FF7D17F98F1CC58280A54763F763
:102B4000B704138865FF131718008328C500429740
:102B50009D47B397E70093C7F7FFB3F71701B39605
:102B6000E600DD8E54C5994763E5C7047D169317CB
:102B700026003E965859FD47B397C70093C7F7FF05
:102B8000F98F3396C5005D8E50D98280139715005A
:102B9000032805012E979D47B397E70093C7F7FFDA
:102BA000B3F70701B396E600DD8E14C99947E3FF3A
:102BB000C7FAB14763E3C702130796FF131627004E
:102BC00014593A96FD47B397C70093C7F7FFF58F9F
:102BD0003396C5005D8E10D982804D1613172600DE
:102BE00054553A96FD47B397C70093C7F7FFF58F43
:102BF000B395C500DD8D4CD582805C4191C537070A
:102C00000004D98F5CC18280370700FC7D17F98FE3
:102C10005CC18280011123030100834761002547C5
:102C20006364F70425461C4593E787001CC51C45D3
:102C3000A18BF5FF1C4593E747001CC51C45918BF4
:102C4000F5FF744583476100034761000C10860758
:102C500005071377F70F2303E10003476100AE97E1
:102C60002396D7FEE371E6FC23030100834761004E
:102C700025476361F70A2146A545A3030100834761
:102C80007100636EF60603477100834771001410EC
:102C90000607850786073697B6970357C7FE83D77B
:102CA000C7FE63F3E7048347710008108607B697F1
:102CB00083D7C7FE2314F1000347710083467100D8
:102CC00083477100050706072A970358C7FE035577
:102CD0008100139716008507141036978607231670
:102CE00007FFB6972396A7FE83477100850793F7E2
:102CF000F70FA303F10083477100E376F6F88347EB
:102D00006100850793F7F70F2303F1008347610004
:102D1000E3F5F5F623140100231501002303010058
:102D20008347610015476366F70683476100141007
:102D30001307006089078607B69783D7C7FE636AC3
:102D4000F70495461306006019A883476100181020
:102D500089078607BA9783D7C7FE636CF602834755
:102D600061000C100357810089078607AE9783D74F
:102D7000C7FEBA97C207C1832314F10083476100DD
:102D8000850793F7F70F2303F10083476100E3FE04
:102D9000F6FA8347610093F7F70F6387071003572D
:102DA00081008345610083578100034661008346AB
:102DB00061003347B702B3E7C7028607B3C7D7023C
:102DC000BA97C207C1832314F100034761009947F2
:102DD000998F93F7F70FA303F1008347710093F7DF
:102DE000F70FE5C7834761001547636DF702954606
:102DF0008347610010100357A10089078607B29727
:102E000083D7C7FEBA97C207C1832315F100834752
:102E10006100850793F7F70F2303F10083476100F3
:102E2000E3F8F6FC0357A100834571008357A10026
:102E300003467100834671003347B702B3E7C70208
:102E40008607B3C7D702BA97C207C1832315F1001B
:102E5000035581008355A100835781000356A100CB
:102E600085661307004093860680B307F7403386D4
:102E7000C640098F8D8EC20742064186C187420730
:102E8000C206B297C1864187369713D6F70193568B
:102E9000F701B2973697858B0587918FBA9713956F
:102EA0000701418505618280930700402314F100EA
:102EB000034761009947998F93F7F70FA303F10038
:102EC0008347710093F7F70F91FF8567938707801A
:102ED0002315F100B5BF1C4141677917F98F1CC15B
:102EE000232005002322050023240500B707024004
:102EF00023260500138787006304E5041387C701B1
:102F0000630BE502138707036307E5041387470490
:102F1000630AE504138787056309E5021387C7067B
:102F20006307E504138707086309E5041387470966
:102F30006308E5008280D8431367070FD8C38280F7
:102F4000D8431367F700D8C38280D843B7060F0071
:102F5000558FD8C38280D8438566938606F0558FF7
:102F6000D8C38280D843BD66558FD8C38280D843EA
:102F7000B706F000558FD8C38280D843B706000F3C
:102F8000558FD8C3828090519C459449D84983A8D5
:102F90008501D18FD58FD04DD451D98FB3E717018B
:102FA000184103A88502D18FD58FE176BD06D045A3
:102FB000758FB3E707019441D98F1CC1DC4150C123
:102FC00014C55CC582801C4189C593E717001CC1EC
:102FD000828041677917F98F1CC182804CC1828041
:102FE000B70702409C437D8D3335A0008280B70730
:102FF0000240C8C3828058410C410328C500B7066F
:103000000140938706403E9713C6F5FF630108040D
:1030100083A80640032885004143B3F8C80023A0D5
:103020001641D443758ED0C31443D58D0CC31841BB
:1030300090479346F7FF758E90C7D047F18ED4C75F
:10304000630B6800C2979443558F98C382801C43DA
:103050007D8E10C382809447D98E94C7D447558FF4
:10306000D8C78280B707014023AAA7408280B7064D
:103070006745B7270240938636123797EFCDD4C302
:103080001307B79AD8C3D4D3D8D382803727024046
:103090001C4BA166D58F1CCB8280B7270240984B72
:1030A000B7060200137505F0558F98CBC8CB944B2B
:1030B0003727024093E6060494CB5C47858BF5FFE7
:1030C0001C4B8176FD16F58F1CCB82803727024082
:1030D0001C4BC166137505F0D58F1CCB5C47858BE7
:1030E000F5FF372702405C47898BF5FFAE86158DCB
:1030F00093850510372702409042B387A6009106BA
:1031000090C35C47898BF5FFE398D5FE1C4B3706CF
:103110002000B7260240D18F1CCBDC46858BF5FF03
:103120009C4A41777D17F98F9CCA828003A885004D
:10313000937708011373F80081C7DC413363F30010
:10314000B7270240985BB707000FF98FE9E785477B
:10315000A389F184B71701406306F50C83D60500F7
:1031600093F7F60FADE39307F00F63FDD7048328C1
:103170004500A147854EBD4F130F80029302800486
:10318000414E21A08507638DC7033397FE00B375B9
:10319000D700E319B7FE139627000116B395CF00A9
:1031A00093C5F5FFB3F815013316C300B3681601D4
:1031B0006303E809E31858FC18C98507E397C7FDBE
:1031C0002322150182800C418147854EBD4F130F8C
:1031D000800293028004214E21A08507638BC703E0
:1031E0003397FE003376D700E319C7FE1396270006
:1031F000B398CF0093C8F8FFB3F5B8003316C300F7
:10320000D18D6308E803E31A58FC18C98507E399D0
:10321000C7FD0CC189BFB7170140E311F5F483C79F
:1032200031858DDF83D60500B5822390D500C1FEA0
:10323000828058C95DB758C9B1B7B7170140630755
:10324000F50008456D8D3335A000828083C7318538
:10325000EDDB0845B5816D8D3335A0008280B71751
:1032600001406304F5000CC9828083C73185E5DF26
:10327000B5810CC98280B71701406304F5004CC9C1
:10328000828083C73185E5DFB5814CC98280EFF24A
:103290002FEA01112A848354450068002E893D26B7
:1032A000D246B7470F0093870724B3D7F602C2046C
:1032B000C18093F404FCC204C18003260900616547
:1032C0001305056A93950701C181CD8C23129400E3
:1032D0000357040042074183799B4207418323102F
:1032E000E4006365C5060606B3D6C6021147C206EA
:1032F000C182B68763EAE6048505C205C18193965B
:103300000701C1822310B402231ED4000357040016
:10331000835649008355A900136717002310E40062
:10332000835704000357C90003568900C207C183AD
:10333000CD8E93F757BFD58F2310F400518F2314F0
:10334000E40005616FF00FE191477DB78355690097
:1033500031677D176382E5041317160032970E0755
:103360003A96B3D6C6021167C206C182D98E1397A8
:10337000460119E393E616001307C012B387E7026C
:103380002167D98E1307803EB3C7E7028507C207BE
:10339000C1832310F4028DBF131716003A96B3D6DB
:1033A000C602C206C182E1B78357050091C593E703
:1033B00017002310F5008280C207C183F99BC20762
:1033C000C1832310F50082808357050091C593E7E0
:1033D00007102310F5008280C207C18393F7F7EF2F
:1033E000C207C1832310F50082808357050091C571
:1033F00093E707202310F5008280C207C18393F76B
:10340000F7DFC207C1832310F500828083570500D0
:1034100091C593E707402310F5008280C207C1835E
:1034200093F7F7BFC207C1832310F50082802318EA
:10343000B500828093F7E50F19C293E71500C20724
:10344000C1832318F5008280035745018357850106
:1034500013950701598D6D8D220521810D8D133531
:1034600015008280411102C402C693D7C5012AC645
:103470003EC4A247A205A18199CBB247D1073EC65F
:10348000B247884341016D8D3335A0008280B24739
:10349000C181E1073EC6B247884341016D8D333596
:1034A000A00082809387418598438346050031E3DD
:1034B0008347250037E700E09207369793F7F70F29
:1034C0002300F7405041054793D756003317D700E4
:1034D00009CA938707048A07B7E600E0B69798C33E
:1034E0008280938707068A07B7E600E0B69798C3FD
:1034F000828098430546630BC7028C430947638665
:10350000E50498430D466309C70098439147E31BC0
:10351000F7FA8347150079BF034615008347250056
:10352000636CC7040606B297920701A8834725007B
:103530000346150092076307E60237E700E093F7BA
:10354000F70F36972300F740B5BF034715008347B1
:1035500025006378E6021307E7030A07BA9793F793
:10356000F70F920793E707F837E700E093F7F70FB5
:1035700036972300F740B9B71306C6070606B29779
:10358000F9BF0A07BA9792074DBFB7160240DC424F
:1035900071771307F77FF98F0E055D8DC8C28280A2
:1035A000B7170240D843B70640FFFD16758FD8C342
:1035B000D8435A05598DC8C38280B7160240DC42F1
:1035C00051777D17F98F5D8DC8C282803717024011
:1035D0005C439146B18B6385D700A1466386D706CD
:1035E000B7177A00938707201CC13716024058424C
:1035F00097D6FF1F938606A111833D8B369703470D
:103600000700B3D7E7005CC1584221831D8B369772
:103610000347070033D7E70018C558422D831D8B99
:10362000BA9603C7060097D6FF1F9386A6C0B3D7E6
:10363000E7005CC5584239830D8B36970347070076
:10364000B3D7E7021CC982805C4358434166C983F3
:10365000BD8B8907C546718F6380D70419EF374743
:10366000024003270780418B05C337177A001307F1
:103670000720B387E7021CC18DBF371702405843AC
:103680009316E700E3D306FE37173D0013070790B4
:10369000B387E7021CC191BFC94765F3C9B799C594
:1036A000371702405C4B5D8D48CB8280B7170240D4
:1036B000D84B1345F5FF798DC8CB828099C5371754
:1036C00002401C4F5D8D08CF8280B7170240984F93
:1036D0001345F5FF798D88CF828099C53717024051
:1036E0005C4F5D8D48CF8280B7170240D84F13459D
:1036F000F5FF798DC8CF828003D6250083D70500DA
:1037000003D7450083D6650083D88500D18F03D8C1
:10371000A500D98FD58F03D7C500B3E7170103568E
:10372000050083D6E500B3E70701D98F0D671307BE
:103730000704718FD58FD98F2310F5008356C501EB
:10374000FD7703D705019387F77FF58F231EF500DB
:103750002318E50082808357050091C593E707048D
:103760002310F5008280C207C18393F7F7FBC207DD
:10377000C1832310F50082808357450009C6DD8D83
:103780002312B500828093C5F5FFFD8D2312B5008D
:1037900082808357450091C593E747002312F500C7
:1037A0008280C207C183ED9BC207C1832312F5004B
:1037B000828083570500B7360140938606C0C20752
:1037C000C18303D6650083D8450003D8050063068E
:1037D000D504370700406300E50213070740630C78
:1037E000E50037170040930607806306D5001307EE
:1037F00007C06317E50003D7250093F7F7F8D98FC3
:1038000093F7F7CFD18F2310F50023161503231458
:1038100005038547231AF500828003D7250093F717
:10382000F7F85D8F1377F7CF518F2310E50023163C
:1038300015032314050383C785002318F502854764
:10384000231AF50082808357050091C593E717007E
:103850002310F5008280C207C183F99BC207C18390
:103860002310F50082808357C50009C6DD8D23161D
:10387000B500828093C5F5FFFD8D2316B5008280CB
:10388000EFF20F8BCD376FF0EF8C83578500C207B7
:10389000C183E19BC207C1832314F50082802314F6
:1038A000B502231AC500828083570500C207C18371
:1038B00093F7F7F8DD8D2310B500828083578501DB
:1038C000C207C183DD9BDD8D231CB5008280835739
:1038D000C501C207C183DD9BDD8D231EB50082803B
:1038E0000357C501FD779387F77FF98FA205CD8F29
:1038F000C207C183231EF500828083570502C207D9
:10390000C183F59BDD8D2310B502828083570502AC
:10391000A205C207C18393F7F7DFCD8FC207C1832A
:103920002310F502828003570502F977FD17F98FFE
:10393000B205CD8FC207C1832310F50282800357E1
:1039400005028547B397B70093C7F7FFF98F231098
:10395000F50283570502B315B600DD8DC205C1819E
:103960002310B5028280035705028547B397B7003D
:1039700093C7F7FFF98F2310F50293F775FF6105E1
:1039800095C3F115C205C1818581AA959C416577D2
:103990007D17F98F9CC19C412206420641825D8EB3
:1039A00090C182808581AA959C4193F7F7F89CC1CC
:1039B0009C415D8E90C182802316B5028280231ABD
:1039C000B5028280231EB50282802310B504828056
:1039D00083570500C207C18393F7F7CFC207C1839E
:1039E0002310F50083570500DD8D2310B50082807C
:1039F000835705010355C500ED8F4205418189C7F5
:103A00006D8D3335A00082800145828093C5F5FF1E
:103A1000C205C1812318B5008280EFE27FF1835691
:103A2000050103D76500F577FD17F58FD98F03D70B
:103A3000C5002318F5002A840355C500AE84FD7720
:103A400083D5450003D684009387379F83D6A4008F
:103A5000E98FCD8FD18FD58F2316F4008357440182
:103A600001116800C207C18393F7F7CFD98F231ADA
:103A7000F400A93EB747014093870780630DF4081F
:103A800052478356C40093171700BA97C2068E0791
:103A9000C186BA97984063C006040A07B3D7E70205
:103AA000130740060356C40042064186B3D6E70218
:103AB000B3F7E70292066340060492079387270351
:103AC000B3D7E702BD8BD58FC207C1832314F4009F
:103AD00005616FE03FE80607B3D7E702130740062A
:103AE0000356C40042064186B3D6E702B3F7E702A5
:103AF0009206E35406FC8E0793872703B3D7E702A9
:103B000013F77700B367D700C207C1832314F4000B
:103B100005616FE03FE46247ADB781C98357C500D7
:103B20000967D98F2316F50082800357C500F977FE
:103B3000FD17F98F2316F500828093F7F50F0547DF
:103B40009583B315B7006385E702894613074501DE
:103B50006387D7001C4301CADD8D0CC38280130725
:103B600005011C4375FA93C5F5FFFD8D0CC38280DA
:103B70001307C500C5B793F5F51F2312B500828062
:103B8000035545001375F51F8280035505006D8DA3
:103B90003335A000828093F7F50F854695833397E0
:103BA000B600638AD70289466383D70283574501EB
:103BB0007D8F835705000145C207C18301CB0545B1
:103BC000A181B315B500ED8F3335F00082808357A6
:103BD00005017D8FF9BF8357C5007D8FD9BF730065
:103BE000203001A09387818C984395476303F700A9
:103BF0008280EFE2FFD32A8403457500EF50C0684E
:103C0000930700026304F5006FE0DFD4834554009E
:103C1000834744006383F50663F4B700930700F815
:103C2000834484008D8F93F7F70F63F39700BE846E
:103C300083461400034604000347240083473400EE
:103C4000A206D18E4207558FE207D98F2686BE95F0
:103C5000138541C6EF50301883475400268603452C
:103C60007400BE9493F4F407A3029400938541C6B4
:103C7000EF30D02AA304040041BF034794004DF362
:103C800061B78346150003480500034725008347B5
:103C9000350003464500A206B3E606014207558FEC
:103CA000E207D98F130716002302E500B29723809D
:103CB000B700834745001397870161876355070065
:103CC000230205008147034755006303F700828004
:103CD000EFE21FC685472A84A304F5002285193721
:103CE00083479400E5FF6FE0FFC6EFE2DFC2138772
:103CF00081A65C4B83448701004B13D78700E20405
:103D0000D98C13060004135784008145139487014E
:103D10002685598CEFE0DFC4034514008547015622
:103D20002381A400034724002382F4008346440037
:103D30002380C400A380E4002383F400A382D40082
:103D400013062008638DC61E6373D6161306100F64
:103D5000638BC6326370D60C1306200F638EC63297
:103D60001306300F639EC614A383F4002384F4006B
:103D7000A38404000D4699473E972A973697090772
:103D8000A381F4001377F70F81478146A69683C677
:103D90007600850793F7F70F36971377F70FBE86F0
:103DA000E3C6C7FE9305000E2696A303E60013851F
:103DB00081A6C13D05440549938981A621A8BA85FC
:103DC000C93583C7340005041374F40F91072289A1
:103DD00063CE87022699034709004E859305000D9F
:103DE0009307070393F7F70EF9FB613D834509003D
:103DF0004E850504FD1593F5F50F613583C7340035
:103E00001374F40F22899107E3D687FCEF30804EBC
:103E10006FE0BFB39307000F6394F60A9767000043
:103E20009387878C83C50700176600001306868C6E
:103E300003C4170083C3270083C2370083CF470022
:103E400003CF570083CE670003CE770003430600FD
:103E50008348160003482600A947A383B40083457E
:103E6000360003464600A387F400FD57A38AF400FA
:103E7000930700FA238AC400238BF4002384840070
:103E8000A384740023855400A385F4012386E401F0
:103E9000A386D4012387C40123886400A388140166
:103EA00023890401A389B4004146CD47F1B5C54734
:103EB000638CF602D1476384F604C1476388F60435
:103EC000FD572382F4009305000E85471306F00F7B
:103ED0000D072A9732973697BA970D47A381E400CA
:103EE000014613F7F70FC9B58345540009469547B6
:103EF000A383B400834564002384B400B5BD834527
:103F0000540005469147A383B400BDB581460146E0
:103F100081450545EF10E04A81460146814501454E
:103F2000EF10204A03C7140003C5240003C6440051
:103F300083C6540083C7640083C5040051BF034790
:103F40007400834664000346540081450545EF1024
:103F5000604503477400834664000346540085456A
:103F60000545EF1020440347740083466400034670
:103F7000540089450545EF10E0420347A4008346FD
:103F80009400034684008D450545EF10A04103478A
:103F9000A400834694000346840091450545EF1034
:103FA00060400347A400834694000346840095457F
:103FB0000545EF10203F1309B400994493091002FE
:103FC000034729008346190003460900A685850496
:103FD000054593F4F40FEF10E03C0D09E39234FF34
:103FE0000347B40B8346A40B0346940B814501455C
:103FF000EF10403B0347B40B8346A40B0346940BDE
:1040000085450145EF10003A0347B40B8346A40BE6
:104010000346940B89450145EF10C0380347840BD4
:104020008346740B0346640B8D450145EF108037C2
:104030000347840B8346740B0346640B914501458B
:10404000EF1040360347840B8346740B0346640B22
:1040500095450145EF1000351304340B99441309BD
:104060001002034724008346140003460400A6857B
:104070008504014593F4F40FEF10C0327514E392F8
:1040800024FF6FE09F8CA383040023840400A38497
:1040900004000D469947CDB19307A0FAA383F4001D
:1040A000930730052384F40009469547F1B185470D
:1040B000238CF1848280EFE21F861387C1A45C4BBE
:1040C00083448701238C0184A183E204DD8C03C631
:1040D00054009305660093F5F50F2380B400C1C525
:1040E0001506138714001376F60F3A96AE868147AD
:1040F00021A0834607000507B69793F7F70FE31A49
:10410000C7FEA6952380F5001385C1A49305000E74
:104110008D3E01449389C1A411A8BA859D3683C7F9
:10412000040005041374F40F63ED870233898400DF
:10413000034709004E859305000D9307070393F786
:10414000F70EE1FF3D3E834509004E850504FD1550
:1041500093F5F50F3D3683C704001374F40FE3F7AE
:1041600087FC6FE08FFE814769BFEFE26FFC9386AB
:10417000C1A4DC4A03C78601804A93D68700620740
:10418000558FE207130600083A85218081455D8C32
:10419000EFE00FFD834624000346140083473400FC
:1041A0002301D50099462300D500A300C500A30133
:1041B000F50023020500A3020500930620052A87C7
:1041C0006389D71A63F8F606930620066380D7142E
:1041D00063FEF60293061008638CD71A63F1F602A9
:1041E0009306000F6384D70A9306500F639CD7028F
:1041F0008547238CF184EF30E00F6FE0AFF5930635
:1042000010076391D702EF107055F5B7930650056C
:10421000638DD718930610066384D71A930640055A
:104220006388D71A13060008BA851385C19AEF5020
:10423000803A7DBF930610046384D71463EBF602C3
:10424000930620036384D70493060004638BD7107E
:1042500093060003E398D7FC9D4685472300D500CD
:10426000930640F92303D500A302F500238CF184C3
:1042700059B793060005638AD70A63EEF6069306DC
:104280002004E391D7FAEF20403FB5B797570000DD
:104290009387C74483CE070003CE170003C32700CC
:1042A00083C8370003C8470003C5570083C56700AC
:1042B00003C6770083C68700BD472300F700A547E4
:1042C000A302F7002303D701A303C7012304670058
:1042D000A304170123050701A305A7002306B700C0
:1042E000A306C7002307D7008547238CF184EF304E
:1042F00060006FE02FE6034694001387C185814676
:10430000914513055400EF20A01BF5B523010500CE
:104310009306F00F1306F00F9305F00F0945EF1009
:10432000400A8547238CF184F9B503455400834541
:104330006400034674008346840003479400834767
:10434000A400238EA184A38EB184238FC184A38F64
:10435000D1842380E186A380F1868547238CF18474
:1043600059BD85450145EF20E0078547238CF18441
:1043700059B50345940093056700EF20E020A5BDE3
:1043800081450145EF2000068547238CF184A5B5C2
:104390008346740003466400834554000945EF10CA
:1043A00040028547238CF184B9B5034694001387F6
:1043B00041868546914513055400EF20601025BDC8
:1043C000930700022302F5008547238CF18425B56D
:1043D000034554008345640003467400834684000B
:1043E000034794008347A4002382A186A382B18659
:1043F0002383C186A383D1862384E186A384F186A7
:104400008547238CF184C5BBEFE20FD0138981A6C9
:1044100083270901834A4901370A0001A183E20A7F
:10442000B3EAFA0003C721A77D1A130B000E954BC0
:104430009309000D930400027D5441CF8327C900E6
:104440008346B90003C671A7B3F74701A207D58F0A
:10445000B29783C6070083C7A186638E6607638C05
:1044600037096382360B83C581A703C6918503276D
:104470000901834749012183E207D98FAE97238041
:10448000D70083470901850793F7F70F238CF1A61F
:1044900063F7FB0003C73A00ED176386E70803479D
:1044A000A9008347F90036967D171377F70F850724
:1044B000A38CC1842389E1A6A38BF1A6638936036B
:1044C0002385D1863DFB0945EF40505D03C721A7F9
:1044D00035F76FE0EFC663803703238C01A6A38C0A
:1044E0009184A3818A0013060002814549B7238580
:1044F000018621F7C9BF850693F6F60F83C581A70C
:1045000003C69185ADB77D171377F70F050623898D
:10451000E1A6A38BC1A6E31207F20945EF401058AC
:1045200003C721A775B7638CC6020347A900834759
:10453000F900238C01A67D171377F70F8507A38C4D
:104540000184238501862389E1A6A38BF1A6E316C6
:1045500007EE0945EF40905403C721A795BFEFF040
:10456000CFF8E1B7EFE24FBA9389C1A483A709015D
:1045700003C44901B70A0001A18362045D8C03C72B
:1045800061A5FD1A130B000E954B130A000D7D5902
:10459000815441CF83A7C90083C6B90003C6B1A522
:1045A000B3F75701A207D58FB29783C6070083C719
:1045B000B186638E66076386470B638D460B03A740
:1045C000090183C7490103C6C1A52183E207D98F29
:1045D000B2972380D70083C7090103C6A185850749
:1045E00093F7F70F238EF1A463F7FB000347040052
:1045F000FD176381E70A03C7A90083C7F900369650
:104600007D171377F70F8507238DC184238BE1A4D2
:10461000A38DF1A4638B4605A385D1863DFB0D4593
:10462000EF40D04703C761A535F76FE06FB1638AEC
:104630004703238E01A47D17230024011377F70F6E
:104640000506238D0184A3859186238BE1A4A38D88
:10465000C1A4E31007F40D45EF40504403C761A522
:10466000E1B7850693F6F60F99BFA3850186E3129D
:1046700007F275B77D171377F70F0506238BE1A4B3
:10468000A38DC1A4E31707F00D45EF40304103C7E8
:1046900061A559BFD93C03C7A90083C7F900238E80
:1046A00001A47D171377F70F8507238D0184A38558
:1046B0000186238BE1A4A38DF1A4E31C07EC0D4537
:1046C000EF40D03D03C761A585B7EFE26FA62D3B54
:1046D000513D138581A6EFF0EFD01385C1A4EFF013
:1046E0006FD06FE02FA7EFE2AFA4C53783C78185F6
:1046F00099E36FE02FA6EFF01F9C6FE0AFA5EFE20C
:104700002FA303C421818544630C940A49C88947B7
:10471000630DF4048D476304F4006FE0AFA3B75456
:104720000040B70507009385450813850440EFE076
:10473000BFD165D5854513850440EFE01FCB83C706
:10474000C18685072386F18603C7C18683C7118189
:104750006363F70A238601867D572389E180154725
:10476000E39DE7FAA38881804DBF37540040B70529
:1047700007009385250813050440EFE0FFCC51DDC9
:1047800003C7C1869387C180BA9783C50700130505
:104790000440EFE0DFC98D472389F180BDBF375466
:1047A0000040B705020013050440EFE0BFCB35F52C
:1047B000854513050440EFE03FC123899180B1BFD7
:1047C00037540040B7050300850513050440EFE0AA
:1047D000BFC7E30405F403C7C18693870184BA9772
:1047E00083C50700014613050440EFE0BFC48947B5
:1047F0002389F1801DB72389018005B7EFE24F932C
:10480000138431810345040023890180EF20501A6D
:104810008145170500001305C5EEEF20F0102300B9
:10482000A4006FE02F9303C721819307F00F630368
:10483000F7008280EFE2CF8FD1376FE0AF91134561
:10484000F5FF135765009357C500136707FC93E7FF
:1048500007FCA386E180136505FC2387F18023868E
:10486000A18003C721819307F00F6303F7008280C3
:10487000EFE20F8C61376FE0EF8DEFE26F8B056435
:104880001304048097C7FF1F938747E322863E8562
:104890008145EFE0EF8C138741810C432286EF4086
:1048A00090536FE02F8BEFE2AF88371702405C43E5
:1048B00001449384418193E707085CC31389818194
:1048C000EFE0EFFA88402295EFE02FFD8325090005
:1048D0008840A2952295EFE06FFF13040410EFE0EB
:1048E000EFFA93070480E9FF371702405C4393F720
:1048F000F7F75CC36FE00F86EFE28F831384814884
:104900001306000481452285EFE08F859307A0FA06
:104910002300F4009307101E2311F400EF204061E0
:104920002312A400EF00700F2313A4001306000449
:10493000A2851145EF20905E6FE0CF81EFD25FFF3F
:10494000653F6FE02F8103C7814C9307A00A630383
:10495000F7008280EFD2DFFD1306E0038145138567
:10496000A148EFD0FFFF1384814C03471400834715
:1049700024009306A0FA2384D14893C70708A38490
:10498000E14813073006636AF71A17570000130748
:10499000E7D68A07BA979C43BA9782879307301E57
:1049A000130600049385814811452395F148A38699
:1049B0000186EF20B0566FD0FFF98547A386F186B8
:1049C000130600049307201E938581481145239503
:1049D000F148EF20B054C5B70537F1BF9307001E6B
:1049E0002395F14883C7C14C638D071E054763813A
:1049F000E716FD57A385F1487DBF03C5C14C93075A
:104A0000F00F83C8014D83C5114D03C7214D630DC0
:104A1000F52A9306000F03C8D14C6302D532630F09
:104A2000F828AE864686C285EF00D0179307001B94
:104A3000130600049385814811452395F148EF2022
:104A4000F04D95BFEF20C04E2A84EF20004E2397F3
:104A5000A1489307101A1306000493858148114555
:104A60002395F14823968148EF20504BA9B79387AF
:104A700081818345440003465400034774009C43EE
:104A80008346640011452381B700A381C700A38238
:104A9000E7002382D70013060004930700199385CB
:104AA00081482395F148EF20704731B7ED3B9307DC
:104AB0001018130600049385814811452395F14889
:104AC000EF20D045CDBD553B9307001813060004D9
:104AD0009385814811452395F148EF203044E1BD8D
:104AE000EF20E05E9307001A1306000493858148C7
:104AF00011452395F148EF20704275BD9387818160
:104B00009C4313060004114583C6370083C5270064
:104B100003C7470083C75700A206CD8E4207558FB3
:104B2000E207D98F23A6F14893858148930710198E
:104B30002395F148EF20903EBDBDFD5713060004BC
:104B40009385814811452395F148EF20303DA5B567
:104B500083C5D14C93D6250013D61500858A058AC6
:104B600085890545EF00900B83C5E14C93D6250060
:104B700013D61500858A058A85890D45EF00100A30
:104B800083C5F14C93D6250013D61500858A058A76
:104B900085891545EF00900883C5014D93D6250002
:104BA00013D61500858A058A85890145EF0010070F
:104BB00083C5114D93D6250013D61500858A058A25
:104BC00085890945EF00900583C5214D93D62500C1
:104BD00013D61500858A058A85891145EF001004D2
:104BE000D9BB83C6F14C03C6E14C83C5D14C054506
:104BF000EF00207D83C6214D03C6114D83C5014DB5
:104C00000545EF00007C83C6514D03C6414D83C569
:104C1000314D0545EF00E07A83C6814D03C6714DE5
:104C200083C5614D0545EF00C07983C6B14D03C60C
:104C3000A14D83C5914D0545EF00A07883C6E14D98
:104C400003C6D14D83C5C14D0545EF00807783C6AE
:104C5000114E03C6014E83C5F14D0145EF0060764C
:104C600083C6414E03C6314E83C5214E0145EF0038
:104C7000407583C6714E03C6614E83C5514E0145D2
:104C8000EF00207483C6A14E03C6914E83C5814EAA
:104C90000145EF00007383C6D14E03C6C14E83C5E4
:104CA000B14E0145EF00E07183C6014F03C6F14EDE
:104CB00083C5E14E0145EF00C070F5B92E86BA8676
:104CC000C685EF0000709DB33A864685EF00C06E42
:104CD00083C6214D03C6114D83C5014D0545EF0027
:104CE000E07383C6214D03C6114D83C5014D0D45AB
:104CF000EF00C07283C6214D03C6114D83C5014D1F
:104D00001545EF00A07183C6214D03C6114D83C523
:104D1000014D0145EF00807083C6214D03C6114D42
:104D200083C5014D0945EF00606F83C6214D03C661
:104D3000114D83C5014D1145EF00406EC5B92E865A
:104D4000BA86C6854285EF00606DCDB1EFD2BFBC9B
:104D500003C78154C1476306F700EF20A0596FD005
:104D6000DFBE83C791540947638CE70C637CF70867
:104D70000D47638EE70A1147E391E7FE03C4A15490
:104D800083C7B154A20742045D8C83C7C1545D8CB4
:104D900017590000130989AF8544594BD14ADD49A1
:104DA000B1463546B9451D4A1385F4FFB356D400C4
:104DB0003356C400B355B400858A058A85891375B6
:104DC000F50FEF00A0652685B356640133565401F4
:104DD000B35534018904858A058A858993F4F40FD3
:104DE000EF00C0630D09E38A44F783459900034649
:104DF000A9008346B90083490900834A1900034B7F
:104E000029005DB70547E39AE7F49307000303C55C
:104E1000C181A38EF15AEF20A039994517050000F2
:104E20001305C506EF204030238EA1803DB7A38E29
:104E3000015AA38A015A239B015A238C015A31BF7C
:104E400093070003A38EF15A09BFEFD27FAE938779
:104E5000C159138781509386C15D03A80700C843D9
:104E60008C47D0472320070148C30CC750C7C10750
:104E70004107E394D7FE130600049385815005454E
:104E8000EF20D0096FD01FAD93878181984385476C
:104E9000034767006303F7008280EFD27FA975376D
:104EA0006FD05FABEFD2DFA81306E0028145138518
:104EB000A151EFD0FFAA9387815803A3070083A8CD
:104EC000470003A88700D44703D707019387815081
:104ED0004946BE8523A0670023A2170123A407012A
:104EE000D4C72398E7000545EF2050036FD09FA655
:104EF000EFD21FA4938781819C43094783C7670032
:104F0000638AE7000D47638EE70005476388E70083
:104F10006FD05FA4EFF09FA26FD0DFA33D376FD0BB
:104F20007FA349376FD01FA3EFD2FF9E83D7E186BF
:104F300013D78700A38EF1589754000093844496AA
:104F4000238FE158A38C015A239D015A238E015AC5
:104F500001449389C1593D492285552C0504137498
:104F6000F40F19C983C7040083C61400CE9703C782
:104F7000D701558FA38EE7008904E31F24FD938793
:104F800001878397070063C407006FD01F9C3D45CE
:104F9000BD2C65DD9387C15903C7A70183C7C7012E
:104FA00005078507238BE15A238CF15A6FD0FF99AF
:104FB000EFD27F9623A4015823A6015823A80158B5
:104FC00023AA0158239C0158930710032384F15806
:104FD00001441149A5493D4B975A0000938A4A8ED6
:104FE000138A81589374F40F268563092403638719
:104FF0003403312C93171400D697B3068A0009CDD9
:1050000003471A0083C5070003C61700B367B7003C
:10501000A384F1582381C600638464010504D9B7D1
:105020001145F52209E5930730032387F1582545FB
:10503000F92A01E59147A389F1586FD01F91EFD26A
:105040003F8FAD20D92A83D42187B3479500239879
:10505000F1862A842399A186EF10B04BEF10506D92
:105060001345F5FF420541812397A18683D74187E8
:105070006384A702239AA186EF20C02793878181AA
:105080009C43054783C767006380E7020D47638B36
:10509000E700B93D6FD01F8C239AF186E31E94FC84
:1050A0006FD05F8B3137F5B74135E5B7EFD25F850C
:1050B000371A01409384C160130D0A80A68B814981
:1050C000094C130A0AC08D4A854C954D6387890F98
:1050D00063543C0D638F59119147639EF90E9305FC
:1050E00000405285EFE02F99BD456A85EFE02F978C
:1050F0001145EFD07F915E890144214BB3158B00A0
:10510000C205C1815285EFE04F9341E5230099012B
:1051100005041509E31454FF8509850BE398B9FBD1
:1051200037150140C14513050580EFE00F91133598
:105130001500C168A38DA1601388F8FF1387C15DB6
:105140009386C15F1385C15F8D450543F118835771
:10515000070003C604008607D18FC207C18323104E
:10516000F7006380B702638E07016383170199E339
:1051700023800600090785048506E31AE5FC6FD045
:10518000EFFB23806600090785048506E311E5FC33
:10519000FDB723000900ADBF8547639EF9026A850C
:1051A0008945EFE04F8D6A85B545EFE04F8B93055C
:1051B00000405285EFE0AF8A25BF6A859145EFE058
:1051C0008F8B6A85AD45EFE08F899305004052854E
:1051D000EFE0EF8831BF6A858545EFE0CF896A85CA
:1051E000B945EFE0CF87930500405285EFE02F8768
:1051F00001B76A85A145EFE00F886A859D45EFE01C
:105200000F86930500405285EFE06F85D5B59387F3
:10521000C15F3E950345050082809386C15F81474B
:105220000145414603C7060085063317F700598D2F
:10523000420585074181E397C7FE82809307D039F5
:10524000B308F502131835002A98939715000A0839
:10525000AE973308A8402E9822068E07598EC206B4
:105260001387C1610A089507558E3A98C69797C665
:10527000FF1F938626F82320C800BE965D47FD5584
:10528000B357E600858BB307F04093F76704938725
:10529000D7022380F6007D178506E313B7FE8280D0
:1052A000EFD26FE7AA8A2E8AB289814413093002AD
:1052B0000D4B0144A28505044E87D286568626856D
:1052C0001374F40FA53FE31724FF850493F4F40F40
:1052D000E39164FF6FD06FE7EFD28FE513050020F5
:1052E000EFD01FD019E16FD0EFE613050002EFD029
:1052F0003FCF75D937052000EFD09FCE6DD5130570
:105300000020EFD0DFCE13050002EFD05FCE3705CF
:105310002000EFD0DFCDB704004013850440814565
:1053200037040240EFE02FD2130504038145EFD08C
:105330009FC91305C4018145EFD0FFC81305C406FA
:105340008145EFD05FC8130504039305D039EFD032
:10535000FFC81305C4019305D039EFD03FC813052A
:10536000C4069305D039EFD07FC71305C401854526
:10537000EFD07FC5130504038545EFD0DFC41305C7
:10538000C4068545EFD03FC4854513850440EFE052
:105390008FCB6FD02FDCEFD2AFD93D3FEFF0AFC84E
:1053A0006FD04FDB9307200263E7B700EFD24FD8EF
:1053B00071356FD02FDA8280EFD28FD7D5356FD08D
:1053C0006FD9EFD24FD5AA8A2E8AB2893689014485
:1053D00093043002A28505044A87CE8652865685FC
:1053E0001374F40FA13DE31794FE6FD00FD6EFD2E4
:1053F0002FD493868187BD470146F55503C7060024
:1054000085063317F700F517598EE399B7FE3285F5
:1054100023A0C188EFF0AFC26FD0CFD3EFD24FD16E
:10542000B335B000B336D0008A053336C000D58D11
:105430009387818706063E954D8E2300C500453F24
:105440006FD04FD1EFD2CFCE397117D4FF1F1304D5
:10545000E48789470D479305803E17050000130533
:10546000A5122300F100A300E4002301F400EF10D3
:10547000F04F17B6FF1F1306E6B983469600834523
:1054800086000347A6008347B600A206CD8E4207DA
:10549000558FE2072302A400D98F0A858146014671
:1054A0008545829721616FD0EFCAEFD26FC83971FD
:1054B0009307401117D4FF1F130444813EC0856534
:1054C0008D47A300F40093858538854717050000B4
:1054D0001305850B2301F400EF10504917B6FF1F89
:1054E000130646B383469600834586000347A6000D
:1054F0008347B600A206CD8E4207558FE2072302EE
:10550000A400D98F0A858146014691458297216181
:105510006FD04FC4EFD2CFC1B707FF013971938766
:10552000275317C4FF1F1304647A0D473EC0930529
:10553000803EC14717050000130505052302F10051
:10554000A300E4002301E400EF10504217B6FF1F50
:10555000130646AC83469600834586000347A600A3
:105560008347B600A206CD8E4207558FE20723027D
:10557000A400D98F0A85814601469545829721610D
:105580006FD04FBD17C7FF1F034757749547630E72
:10559000F708EFD2EFB983C6E1A503C7D1A583C74A
:1055A00021A6A20683C5F1A5D98E03C511A6A2071F
:1055B00003C631A6C205C98FD58D03C541A69D4638
:1055C00042065D8E03C701A69317850117C5FF1F0D
:1055D000A30ED56E620797C6FF1F83C6466F294587
:1055E0004D8FD18F636BD500174600001306462FF1
:1055F0008A06B2969442B296828603461700834684
:1056000027000347370099452380B700A381E700AF
:105610000D47A380C7002381D700A3820700238200
:10562000E700EFE0DFA86FD0EFB2854717C7FF1F95
:10563000A30EF768828003461700834627000347BE
:10564000370099452380B700A381E7000547A38071
:10565000C7002381D700A38207002382E700EFE081
:105660001FA56FD02FAF03461700834627000347BF
:1056700037009D452380B700A381E7000547A3803D
:10568000C7002381D70023820700A382E70023837A
:105690000700EFE0DFA16FD0EFAB8346A701034522
:1056A00017008345270003463700139746001377FA
:1056B000F70F13083701350723880700A388070071
:1056C0002389D70023800701A380A7002381B70087
:1056D000A381C70023820700A382E700EFE03F9D7C
:1056E00099B78D33EFE0BF9C3DBF2D35EFE03F9C78
:1056F0001DBF034617008346270003473700C945EF
:105700002380B700A381E7003147A382E700054764
:10571000A380C7002381D70023880700A388070040
:105720002382E700EFE0BF98FDBD8D4763FFB7041C
:1057300083470500A1EB83471500A9E70347250030
:105740009307F00F6310F7048347350003474500C4
:105750003E971377F70F1DE7F91793F7F70FA3019C
:10576000F50063E4F502034755009307500D631BF2
:10577000F7008347650005061376F60F014563932E
:10578000C70082801305300F82801305400F82808E
:10579000EFD26F9817B8FF1F0348988883C521A6DA
:1057A00097B7FF1F83C7C78783C811A603C5E1A5A5
:1057B00017B6FF1F0346E68603C731A62208A205D7
:1057C000B3E5150103C3D1A53368F80083C6F1A57D
:1057D00097B7FF1F83C7F7842205420642074D8F04
:1057E000336565003366060103C301A683C841A67D
:1057F00023830188C206E20717C9FF1F1309894ED8
:10580000C98E620313988801D18F938561884A8578
:10581000B364D3003364E800829783C96188638CE2
:10582000090097C7FF1F83C7774A0D476387E700C3
:1058300011476382E7026FD04F91034749008347C6
:105840002900914617C6FF1FA302D648F98F1307F8
:10585000F00F6382E70297C7FF1F83C747472947B7
:10586000E36BF7FC174700001307470A8A07BA974C
:105870009C43BA97828783470900034619008346F1
:10588000390003475900D18FD58FD98FE9F74E865C
:1058900097C5FF1F938565454A85EF30305F65BF2B
:1058A00013062003CE8517C5FF1F1305A543B53D7D
:1058B00059F1954717C5FF1F0345854117C7FF1FBE
:1058C000A306F740EF103011BDB71306A004CE8534
:1058D00017C5FF1F13050541893D31FD954717C5C4
:1058E000FF1F0345E53E17C7FF1FA301F73EEF105B
:1058F000900E97C7FF1F83C7573F83C6E1A503C616
:10590000D1A56389075E83C7F1A5A20603C701A6D7
:10591000D18EC20703C621A6D58F620783C811A600
:1059200083C631A65D8F220683C741A603481700B0
:105930000345270083453700336616011397060198
:10594000518FE207D98F35472380E7001D47A38099
:1059500007012381A700A381B70023820700A38248
:10596000E70097C7FF1F83C7A7382304F40017C7B2
:10597000FF1F0347E737814715C33307F900834605
:10598000D7003307F4008507A304D70093F7F70F78
:1059900017C7FF1F0347C735E3E1E7FE854723032A
:1059A000F400C147A303F400EFE06FF069B51306FC
:1059B0000004CE8517C5FF1F1305C532BD3397C739
:1059C000FF1F83C7D73017C7FF1F03472732920730
:1059D0007D17B107E311F7E68347290183463901B3
:1059E00003477900D58F1377F703D98FC98F93F7C2
:1059F000F70FE39207E4954717C5FF1F0345452DB1
:105A000017C7FF1FA304F72CEF10E07C97C7FF1FF9
:105A100083C7F72B9DCF1385F7FF1375F50F5546F9
:105A2000930604011205018E3695A2851376F60FB2
:105A30002E87B307E60093F7F70FCA9783C70700CF
:105A400005072309F700E316D7FEC105C106E39158
:105A5000A5FE83C7A40123080400A30804002309AA
:105A6000F40003C6E1A583C5D1A503C7F1A52206AD
:105A700083C601A64D8E420783C521A6518FE2063B
:105A800003C311A603C631A6D98EA20513974700FA
:105A900083C8160003C8260003C5360083C741A685
:105AA0001377F70FB3E5650093160601CD8E130645
:105AB000D700E207D58F4D079376F60F2380E700D6
:105AC000A380170123810701A381A7002382070078
:105AD000A382D7002303D400EFE06FDDA9BB954775
:105AE00017C7FF1FA304F71EB9B3CE851306000422
:105AF00017C5FF1F1305051FEFF03FC3954717C5D7
:105B0000FF1F0345E51C17C7FF1FA301F71CEF107C
:105B1000806C83C5E1A503C8D1A503C521A683C6B2
:105B2000F1A5A20583C811A603C631A603C701A625
:105B3000B3E505012205C20683C741A633651501F9
:105B4000CD8E42066207558F498EE20783451700C6
:105B500083463700D18F034627003147A382E700F1
:105B60000347540049452380A700A380B700238141
:105B7000C700A381D7002382070023080400A308DD
:105B800004002303E400EFE08FD275B11306000494
:105B9000CE8517C5FF1F1305E514EFF01FB9E31CF1
:105BA00005C897C7FF1F83C75714E39607C89547D3
:105BB00017C5FF1F0345C51117C7FF1FA308F7101F
:105BC000EF10606183C6E1A503C6D1A583C7F1A527
:105BD000A20603C701A6D18EC20703C621A6D58F90
:105BE000620783C811A683C631A65D8F22060348CB
:105BF0001700034527008345370083C741A6336656
:105C0000160113970601518FE207D98F1947238098
:105C1000E700A38007012381A700A381B7002382A7
:105C20000700A3820700EFE08FC831B1130600041C
:105C3000CE8517C5FF1F1305E50AEFF01FAFE31C64
:105C400005BE97C7FF1F83C7570AE39607BE954750
:105C500017C5FF1F0345C50717C7FF1FA308F70692
:105C6000EF10605783C6E1A503C6D1A583C7F1A590
:105C7000A20603C701A6D18EC20703C621A6D58FEF
:105C8000620783C631A683C511A65D8F22068348AD
:105C90001700034827000345370083C741A64D8EF0
:105CA00013970601518FE207D98F59472380E700E8
:105CB0004147A381A700414697C5FF1F9385050370
:105CC000A38017012381070123820700A382E70035
:105CD00013056400EF303010EFE06FBDA9BE13066E
:105CE000A004CE8517C5FF1F1305C5FFEFF0FFA366
:105CF000E31305B497C7FF1F83C737FF638D071CE6
:105D00000547E39AE7B20347890097C4FF1F83C49E
:105D1000F4FD9387E4FEA382E18893F7D70FE39C19
:105D200007B0954717C5FF1F034585FA17C7FF1F23
:105D3000A30EF7F8EF10204A97C7FF1F938787FA43
:105D40001307940017C6FF1F130646FA83C6B70051
:105D500005078507A30FD7FE83C62701A303D70036
:105D6000E396C7FE83481401034824010345340128
:105D7000834544010346540183466401034774018B
:105D80008347840117C3FF1FA30813F597C8FF1F9C
:105D9000238508F517C8FF1FA301A8F417C5FF1F27
:105DA000230EB5F297C5FF1FA38AC5F217C6FF1FC2
:105DB0002307D6F297C6FF1FA383E6F217C7FF1F7C
:105DC0002300F7F2834894000348A4000345B4007D
:105DD0008345C4000346D4008346E4000347F4002F
:105DE0008347040117C3FF1FA30413EF97C8FF1FC6
:105DF000238108EF17C8FF1FA30DA8EC17C5FF1FCD
:105E0000230AB5EC97C5FF1FA386C5EC17C6FF1F75
:105E10002303D6EC97C6FF1FA38FE6EA17C7FF1F21
:105E2000230CF7EAD147639EF4000347C901834777
:105E3000B90197C6FF1FA385E6EA17C7FF1F230214
:105E4000F7EA83C6E1A503C6D1A583C7F1A5A206DB
:105E500003C701A6D18EC20703C621A6D58F62074C
:105E600083C811A683C631A65D8F2206034817009A
:105E7000034527008345370083C741A633661601D3
:105E800013970601518FE207D98F65472380E700FA
:105E90004D47A38007012381A700A381B700A382F8
:105EA000E7002382070085472303F40093070002DD
:105EB000A303F400C1472304F400EFE04F9FA5BA09
:105EC0005146CE8517C5FF1F1305C5E1EFF0FF85CD
:105ED000E3130596F9BA954717C5FF1F034545DF3C
:105EE00017C7FF1FA304F7DEEF10E02E83C6E1A55E
:105EF00003C6D1A583C7F1A5A20603C701A6D18E0B
:105F0000C20703C621A6D58F620783C811A683C620
:105F100031A65D8F220603481700034527008345FD
:105F2000370083C741A63366160113970601518FC8
:105F3000E207D98F1D472380E7000547A3800701AB
:105F40002381A700A381B70023820700A382E70073
:105F500023030400EFE0AF956FF0FF8DEFC25F9D6C
:105F600083C6E1A503C6D1A583C7F1A5A20603C7D1
:105F700001A6D18EC207D58F620783C621A65D8F89
:105F800097C7FF1F938787D483C311A683C531A604
:105F900083C2570083CF670003CF770083CE87008B
:105FA00003CE970003C3A70083C8B70003C8C70088
:105FB0000346E700A20603C541A6B3E67600C20584
:105FC000D58D93168501CD8EA3025700930516003B
:105FD0002303F701A303E7012304D701A304C701A7
:105FE00023056700A305170123060701A383B60055
:105FF000A1456308B61863F5C508B1476303F628E1
:106000009307400A631DF62E03C6E1A583C5D1A5FB
:1060100083C7F1A5220603C701A64D8EC20783C51B
:1060200021A6D18F620703C311A603C631A65D8FD7
:10603000A20583C741A683481700034827000345EC
:106040003700B3E56500131706014D8FE207D98FBE
:1060500045472380E7002D47A380170123810701CF
:10606000A381A70023820700A382E70023880600FC
:1060700083C756002383F600EFE06F836FC09F8DC8
:10608000630606189945631CB6260346A701054713
:1060900097C5FF1FA38DC5C26306E60C13873601A3
:1060A00017C5FF1F130505C383C5570005078507DF
:1060B000A30FB7FEE39AA7FE138736039385360630
:1060C000930707FF238007008507E39DE7FE1387FB
:1060D0000701E397E5FE85472382F6022389C60080
:1060E00023880600A388060083C5E1A503C5D1A5C2
:1060F00083C7F1A5A20503C701A6C98DC20703C5C1
:1061000021A6CD8F620703CE11A683C531A65D8F70
:10611000120622050343170083482700034837006F
:1061200083C741A63365C5011376F60F13970501A2
:10613000498F9305D600E207D98F4D0613F7F50F67
:106140002380C700A380670023811701A381070173
:1061500023820700A382E7002383E600EFD03FF508
:106160006FC04FFF1387360117C5FF1F130585B694
:1061700083C5570005078507A30FB7FEE39AA7FE5F
:10618000B1BF03C5E1A58348A70103C3D1A503C8D7
:1061900021A603C6F1A5220503CE11A683C531A60B
:1061A00003C701A6336565002208420683C741A6DE
:1061B0003368C801498EC205620717C5FF1FA308CF
:1061C00015B1518FB3E50501E207034517000346FA
:1061D0003700CD8F834527003147A382E70003C7EF
:1061E0005600494823800701A380A7002381B700F8
:1061F000A381C7002382070023880600A388060026
:106200002383E600EFD0BFEA6FC0CFF403C6E1A559
:1062100083C5D1A583C7F1A5220603C701A64D8E6C
:10622000C20783C521A6D18F620703C311A603C687
:1062300031A65D8FA20583C741A683481700034896
:10624000270003453700B3E56500131706014D8F9E
:10625000E207D98F69472380E7005147A3801701E0
:1062600023810701A381A70023820700A382E700FF
:10627000930780F8238CF600930740FBA38CF6006D
:10628000C5BB03C6E1A583C5D1A583C7F1A5220679
:1062900003C701A64D8EC20783C521A6D18F620711
:1062A00003C311A603C631A65D8FA20583C741A60D
:1062B000834817000348270003453700B3E565000E
:1062C000131706014D8FE207D98F4D472380E70052
:1062D0003547A380170123810701A381A7002382EB
:1062E0000700A382E70085472388F600930780F81C
:1062F000238CF600930740FBA38CF60095BB03C6E6
:10630000E1A583C5D1A583C7F1A5220603C701A6D0
:106310004D8EC20783C521A6D18F620703C311A684
:1063200003C631A65D8FA20583C741A68348170027
:106330000348270003453700B3E56500131706013E
:106340004D8FE207D98F19472380E700A3801701FB
:1063500023810701A381A70023820700A3820700EE
:106360008D472382F60029B3EFC28FDC17A4FF1FED
:10637000130444CA83461400034604000347240060
:1063800083473400A206D18E4207558FE207D98F8A
:1063900082978346540003464400034764008347C2
:1063A0007400A206D18E4207558FE207D98F8297DB
:1063B0009305400617F5FFFF13050509EF00105B75
:1063C0009305800C17F5FFFF13050515EF00105A14
:1063D0009305C01217F5FFFF1305650DEF00105967
:1063E0006FC04FD7EFC2CFD43971B367B50017C4B0
:1063F000FF1F1304A48D2301F1008D471307201301
:10640000A300F4009305803E914717F5FFFF1305A5
:10641000A5172310E1002301F400EF00305517A663
:10642000FF1F130626BF8346960083458600034759
:10643000A6008347B600A206CD8E4207558FE2071D
:106440002302A400D98F0A85814601468D45829793
:1064500021616FC02FD0EFC2AFCD39719307A01467
:1064600017C4FF1F130484862310F1008D472301F6
:10647000A100A300F40017F5FFFF1305E5109547F1
:106480002301F400EF00904E17A6FF1F130686B8F5
:1064900083469600834586000347A6008347B600DF
:1064A000A206CD8E4207558FE2072302A400D98FA2
:1064B0000A85814601468D45829721616FC08FC94B
:1064C000EFC20FC7B336D00039719307001493861B
:1064D00006062310F100A301C1002E842301D10080
:1064E0005C00130667008346070085070507A38F36
:1064F000D7FEE31AC7FE15C09306F4FF1307150075
:1065000093F6F60F9307A100BA9603470500850797
:106510000505A38FE7FEE31AD5FE8D4717B7FF1FCA
:10652000A306F77A9305803E994717F5FFFF1305F9
:10653000A50517B7FF1F230CF778EF00304397A688
:10654000FF1F83C6B6AD97A7FF1F83C727AD17A749
:10655000FF1F0347C7ACA206DD8E420797A7FF1FA8
:1065600083C7F7AB558F9305A40097B6FF1F238110
:10657000A676E2070A85D98F8146014693F5F50F85
:10658000829721616FC00FBDEFC28FBA3971930737
:1065900000142310F1009307000317B4FF1F130426
:1065A000E4722301F1008D47A301A100A300F400D0
:1065B0009305803E9D4717F5FFFF1305E5FC23017A
:1065C000F400EF00B03A17A6FF1F1306A6A48346F7
:1065D0009600834586000347A6008347B600A206BF
:1065E000CD8E4207558FE2072302A400D98F0A857A
:1065F000814601469145829721616FC0AFB5EFC2D8
:106600002FB39317850021813971C98F17B4FF1FEC
:106610001304C46B2312F10041678D472303B100BB
:106620001307A714B285A300F40017F5FFFF1305A5
:10663000A5F5A1473AC02301F400A3030100EF0030
:10664000F03217A6FF1F1306E69C8346960083458B
:1066500086000347A6008347B600A206CD8E4207F8
:10666000558FE2072302A400D98F0A85814601468F
:10667000A145829721616FC0EFADEFC26FAB83C7B9
:10668000418891CB9305803E0145EFF0DFDC23820A
:1066900001886FC02FAC41651306803E81457D1592
:1066A000B93F85472382F1886FC0CFAAEFC24FA8B8
:1066B00079718545116502CA02CC02CE02D002D2A0
:1066C00002D402D602C602C8EFC05FFF854511455D
:1066D000EFC0DFFE37140140930700200D494C083E
:1066E00013050480231AF100E1474ACC3ECEEFC0E7
:1066F000FFA3930700404C0813050480231AF10000
:1067000091473ECEEFC09FA2930700104C0813059F
:106710000480231AF100C1473ECE4ACCEFC01FA12E
:10672000F167B7440140938707200C10138504805C
:106730003ED0B7070C003ED402D223160102EFD0A0
:10674000CFAD13850480054693055052EFD0EFBEC0
:1067500005469305404213850480EFD00FBE930792
:10676000500368002316F10085473EC82307010047
:10677000EFC05FD3138504808545EFD00FBA930532
:10678000001013050480EFC09FAD45616FC08F9C62
:10679000EFC20F9A95674111938757553EC0B707CF
:1067A00000FF3EC2B707D514938737D03EC4856734
:1067B00093871770374401402316F1002307010027
:1067C000930411001309F10093055005130404808C
:1067D0002285EFD04FBA930500082285EFD0EFBA9B
:1067E0007DD96386240183C504008504D5B74101A2
:1067F0006FC04F96EFC22F92834705002A89374515
:1068000001402E84130505808145B74A0140B284BA
:10681000368A2388F188AA89EFD0EFB5930500085E
:106820004E85EFD08FB67DD913850A808145B74A52
:106830000140EFD04FB493890A80930500084E853C
:10684000EFD0AFB47DD913850A809305F00FB74A16
:106850000140EFD04FB293890A80930500084E851E
:10686000EFD0AFB27DD9B307440193F7F70F93850B
:10687000170013850A8093C7F7FF374B014093F544
:10688000F50F93FAF70F93090B80EFD0CFAE930576
:1068900000084E85EFD06FAF7DD9D68513050B80EC
:1068A000B74A0140EFD02FAD93890A8093050008C5
:1068B0004E85EFD08FAD7DD99305400D13850A80AD
:1068C000B7490140EFD02FAB9389098093050008A9
:1068D0004E85EFD08FAB7DD931C0930AF4FF93FA88
:1068E000FA0F37440140CA9A9309400D13040480FB
:1068F000834509002285EFD00FA893050008228563
:10690000EFD0AFA87DD98347090013071900BE99BE
:1069100093F9F90F630659013A89D9BF9309400DDC
:1069200063000A041309FAFF1379F90F938714001F
:10693000374401403E991304048083C50400228536
:10694000EFD06FA3930500082285EFD00FA47DD967
:1069500083C704008504BE9993F9F90FE39F24FDD2
:10696000B30530413745014093F5F50F1305058018
:10697000B7440140EFD02FA0138404809305000892
:106980002285EFD08FA07DD98145138504803744BF
:106990000140EFD04F9E1304048093050008228528
:1069A000EFD0AF9E7DD96FB05FFAEFB27FF837447A
:1069B000014001462A89AE84130504809305505294
:1069C000EFD0AF9701469305404213050480EFD006
:1069D000CF9603C7718883C7818863FEE704910758
:1069E000998F93F7F70F9396770017B7FF1F130749
:1069F000673736972320E9001387C188BA9783C782
:106A0000070037440140130504802380F40083C746
:106A10007188FD17054693055052A383F188EFD086
:106A2000CF9113050480054693054042EFD0EF90C7
:106A300005456FB03FF2998F93F7F70F6DB783C796
:106A4000718891E38280EFB2BFEE4111AE842A8457
:106A50009305B1006800913F09CD0349B100B245EB
:106A600022854A86EF2030372380240183C771882E
:106A7000E5F341016FB01FEEEFB29FEBC9376FB086
:106A80007FED411122C63744014093055052130552
:106A90000480EFD04F9031E93744014093054042E4
:106AA00013050480EFD02F8F0DC983C781888356CB
:106AB000048003574480850793F7F70F0D476362FF
:106AC000F7022384F18803C771889386C188B6973B
:106AD000050723800700A383E18832444101730046
:106AE0002030238401888147F9BF13050480EFD04B
:106AF0002F8983C781881387C1883E970346070083
:106B00009396770097B7FF1F9387C725B697B297DD
:106B1000930616002300D7002380A700B5BFEFB26D
:106B20003FE101118545116502C002C202C402C6DF
:106B300002C802CA02CC231E0100EFC01FBA85455D
:106B40002145EFC0BFB73714014061498D448A85A4
:106B5000130504C085672310F1004AC426C2EFC0A4
:106B6000EFDC8A85130504C089672310F1004AC44D
:106B700026C2EFC0AFDB91678A85130504C02310DE
:106B8000F10091473EC4EFC06FDAE1778A851305C3
:106B900004C02310F100374400404AC426C2EFC0AD
:106BA000EFD8130504808545EFC0BFBEB7070401C9
:106BB0003EC6930700026C00130504803ECC9D473F
:106BC000231EF10002C802CAEFC01FB313050480E0
:106BD00005468945EFC05FBA130504800546854523
:106BE000EFC09FB9854513050480EFC0DFB605618E
:106BF0006FB05FD6EFB23FD279712A84AE89054576
:106C000085453289B68402C202C402C602C802CADD
:106C100002CC02CE02D002D202D402D6EFC03FA8EC
:106C20002285EFC04FABC1473EC6930700084C001A
:106C30003ECC228585674EC24AC426C83ED402CACD
:106C400002CE02D002D202D6EFC0EFB345616FB0E0
:106C5000DFCFEFB25FCC79712A84AE8905458545D7
:106C60003289B68402C202C402C602C802CA02CC79
:106C700002CE02D002D202D402D6EFC05FA2228599
:106C8000EFC06FA5930700083ECC930700103ECEDF
:106C9000930700404C003ED0228585674EC24AC40F
:106CA00026C83ED402C602CA02D202D6EFC0AFAD99
:106CB00045616FB09FC9EFB21FC679712A84AE8952
:106CC000054585453289B68402C202C402C602C89F
:106CD00002CA02CC02CE02D002D202D402D6EFC047
:106CE0001F9C2285EFC02F9F930700084C003ECCCD
:106CF000228585674EC24AC426C83ED402C602CA4F
:106D000002CE02D002D202D6EFC0EFA745616FB02B
:106D1000DFC3EFB2FFC19387818A9C43054763833A
:106D2000E70899CB09476397E7000945EFC04FABE8
:106D3000631C05146FB01FC2138741898347170076
:106D4000034627008346370003474700D18FD58F7E
:106D5000D98F03C701826385071C9307F7FF93F759
:106D6000F70F2380F182638607104147637CF702A7
:106D700037450040894781451305058023A4F18AE2
:106D80003704024023800182EFC0FF9C8145130538
:106D90008405EFC04FA3814513054404EFC0AFA2A3
:106DA000EF90503D37050200EFC08FA34DCD370562
:106DB0000200EFC0CFA30965EFC06FA337450040C5
:106DC000814513050580EFC01F9903C651891347FC
:106DD000F6FF97370000938727B61377F70F3E9794
:106DE0000347070083C5618983C671892D8F3E974C
:106DF0000347070003C58189358FBA9783C707000A
:106E000093C7F7FF93F7F70F6316F50022064D8E31
:106E1000239DC18837040240130584058145EFC0D6
:106E20008F9A130584059945EFC04F9B1305840580
:106E30008545EFC04F99130544048145EFC0AF98D5
:106E4000130544049945EFC06F9913054404854523
:106E5000EFC06F9737450040854513050580EFC0AB
:106E60009F8F6FB03FAF0965EFC08F97E31105F4B7
:106E7000D1B585473705020023A4F18A238001821A
:106E8000EFC00F966DD125B70945EFC04F9697B764
:106E9000FF1F9387270E17B6FF1F1306A61501477E
:106EA00083D6070089073697E31CF6FE938721896E
:106EB00083950700198393160701C1863386B600B0
:106EC0008147634E060081CE05659307F5FF635841
:106ED000A6006386F6002E9793170701C183239DB2
:106EE000F18883D7A18993C7F7FF239DF1883704E1
:106EF000024083D7A1899207130584008145239D11
:106F0000F188EFC04F8C1305840093058004EFC017
:106F1000EF8C854513058400EFC0EF8A6FB09FA307
:106F20009307170093F7F70F2DBD03D5A189828032
:106F300083D7A18903D7C1896370F7163387E740E8
:106F400013271710134717006310071003C7E189B1
:106F5000131617009386018A97B5FF1F938585093D
:106F6000B295944203D605000507BE96918E13D6BE
:106F700036002390F500931706011D8BC18323A0D3
:106F8000D18A3E86238FE188239EF18803D7418AE8
:106F9000BA8563FAE708B306C74093A6160493C6FA
:106FA000160089C62392F18AB2853E879387818134
:106FB000944383C7160083C60600A207D58FC16617
:106FC000FD169D8E63D3B60085073E974207E17795
:106FD00041833E97131517002A9721652A9741652B
:106FE00083C7D1816358A7046349070413150701B8
:106FF0004181B1E783D7E18163F5A70C3307F54001
:1070000042074183AA8621463685637BE600130644
:1070100000046369E6083385D70005814205418194
:10702000239FD1808280B306E64093A6160493C6C0
:10703000160085BF7D15DDDF19A0BDCF0145239F5B
:10704000A180A38E018082801397370097B6FF1F1F
:107050002392F6FA97B6FF1F239FF6F897B6FF1F05
:10706000239CF6F897B6FF1F2399F6F897B6FF1FF3
:107070002396F6F897B6FF1F2393F6F897B6FF1FEF
:107080002390F6F897B6FF1F239DF6F6239EF1880E
:107090003E8623A0E18ADDBD1D8F132717101347FD
:1070A00017005DB513953600158D3E950D8142058F
:1070B0004181239FD180828083D7E1813E878146B1
:1070C00099B73387A74042074183AA862DBF93878C
:1070D000818183D6A1899843E177958FC207C183C7
:1070E00093D687002300F700A300D70082804111C8
:1070F00022C637140040854513050480EFC05F8F1A
:1071000009E53244410173002030130504808545B0
:10711000EFC0DF8F9387C18A9C433244850723A643
:10712000F18A41017300203017B7FF1F130707EEE4
:1071300081474148144313F6F70F310781CA850789
:10714000E39A07FF1306F00F32858280139717002A
:10715000BA971397270097B7FF1F9387A7EABA97A5
:1071600088C7CCC323A007003285828017B7FF1FD2
:107170001307C7F581474148144313F6F70F31074A
:1071800081CA8507E39A07FF1306F00F32858280D4
:1071900013971700BA971397270097B7FF1F938786
:1071A00067F2BA9788C7CCC323A0070032858280D4
:1071B000BD4763E1A70293171500AA978A0717B581
:1071C000FF1F130525E43E95232405002322050017
:1071D000232005008280BD4763E1A70293171500B5
:1071E000AA978A0717B5FF1F1305C5ED3E952324FF
:1071F000050023220500232005008280EFB2AFF1B5
:107200009387C18A8443371A004023A6018A939941
:10721000040117B4FF1F1304E4DE17B9FF1F13099D
:1072200069EA93D90901130A0A8021A03104630B8A
:1072300024031C44E5DF1C405840CE971CC0E3E704
:10724000E7FE01468545528523200400EFC0AFE1EB
:107250001C4431048297054685455285EFC0AFE056
:10726000E31924FDC204B719004017B4FF1F13042B
:1072700064E517B9FF1F1309E9F0C18093890980FC
:1072800021A03104630124051C44E5DF1C40584063
:10729000A6971CC0E3E7E7FE014685454E852320FF
:1072A0000400EFC04FDC1C44310482970546232EB6
:1072B00004FE232C04FE232A04FE85454E85EFC0E0
:1072C0008FDAE31324FD6FB04FE8EFB26FE6F957A2
:1072D000A380F18217B4FF1F1304C4EA97B4FF1F01
:1072E000938444EC1C40110491C38297E31C94FEE8
:1072F0006FB04FE6EFB2CFE3938481819040834635
:107300003600834526000347460083475600A20601
:10731000CD8E4207558FE207D98FA9C303C51182CD
:107320009307E00F630EF502EFF0FFEA98401705B0
:1073300000001305C5F983453700834627008347BE
:10734000470003475700A205D58DC207CD8F93157F
:107350008701DD8DEFF09FE1A380A1826FB08FDF09
:1073600017B4FF1F130404E417B9FF1F130989E5BD
:107370001C40110491C38297E31C24FFFD57A38096
:10738000F1821305F00F4DB797B5FF1F938585DF89
:107390002E87814721461443110799C68507E39C30
:1073A000C7FE1305F00F828013972700BA9588C196
:1073B00013F5F70F828097B5FF1F9385A5DE2E8703
:1073C000814721461443110799C68507E39CC7FEF0
:1073D0001305F00F828013972700BA9588C113F523
:1073E000F70F8280EFB2CFD4EF904071EF90B000F2
:1073F00013050040EFC06F990545EF80F0425145FD
:10740000EFB02FE4EFD06FC71545EFB08FE3EF80FB
:10741000303FEF90C06CEF90206DEF907006EF90D2
:107420005058EF90700D5145EFB0AFE1EF90601301
:10743000EF80105CEF80B03FEFE01FF3EF807068EB
:10744000D14517E5FFFF130545F5EFF0FFCD854565
:1074500017E5FFFF1305E5BEEFF01FCD954517D5E6
:10746000FFFF13058528EFF03FCCF94517E5FFFF37
:1074700013054532EFF05FCBEFF05FD8F5BF37056E
:107480000400EFB03FBE73002030B12E73002030F7
:107490008D4723A4F18C828097B7FF1F83C727D520
:1074A00089C7954723A4F18C8280854723A4F18C5A
:1074B0008280EFB2EFC7AA842E8411458545EFC0C4
:1074C000EF9FB7660040ADC083A706C4416775173C
:1074D000F98F23A0F6C4B717014003A74780B7165A
:1074E000F0FFFD16758F23A2E78003A7C780F9760A
:1074F0009386F67F758F23A6E78003A74780B7465C
:107500000400558F23A2E780374702408327078076
:1075100019C493E727002320F7806FB0AFC3F59B12
:107520002320F7806FB00FC303A706C4B71701402D
:10753000136727004207418323A0E6C403A74780BF
:10754000B716F0FFFD16758F23A2E78003A7C7804B
:10755000F9769386F67F758F23A6E78003A7478089
:10756000B7360300558F23A2E78079BF8280EFB240
:107570002FBC938581540545EF10B07A9307000422
:107580006307F5000545EF1070516FB0AFBCEFD049
:10759000EFFB0545EF1090506FB0CFBB8280EFB28C
:1075A0002FB99385814C1145EF10B07793070004F4
:1075B0006307F5001145EF10704E6FB0AFB9EFD013
:1075C0008FB81145EF10904D6FB0CFB8EFB24FB6F6
:1075D000138481A68345C4008346B4008347D40046
:1075E0000347E400A205D58DC207CD8F931587010F
:1075F000DD8D0945EF10F0722305A400896509456A
:10760000A3070400EF1070426FB0CFB4EFB24FB2D7
:10761000B767004083A707C5373700204907C2076F
:10762000C183BA9786079C431307000293F7F73F7D
:107630006394E70283C711A799E703C7D1A683C75D
:10764000C1A66302F702930500020945EF107039E5
:10765000EFD06F896FB00FB0930500020945EF10AE
:1076600050386FB02FAF0146814513052008EF1049
:107670007068CDB7EFB2CFAB1384C1A48345C4000B
:107680008346B4008347D4000347E400A205D58DA8
:10769000C207CD8F93158701DD8D0D45EF10706802
:1076A0002305A40089650D45A3070400EF10F037FA
:1076B0006FB04FAAEFB2CFA7B767004083A707C547
:1076C000373700206907C207C183BA9786079C43F2
:1076D0001307000293F7F73F6394E70283C751A5AE
:1076E00099E703C711A583C701A56302F7029305B4
:1076F00000020D45EF10F02EEFC0FFFE6FB08FA51A
:10770000930500020D45EF10D02D6FB0AFA40146D8
:10771000814513053008EF10F05DCDB7EFB24FA1F2
:1077200009472E84B284630EE506637CA7020D47E9
:107730006305E5041147631FE502EF10F03493077A
:1077400000036309F5022686A28513054008EF10A1
:10775000705A930500031145EF10B02801456FB032
:107760006F9F05476318E500EF1010329307000381
:10777000631DF50405456FB0EF9DEF10F0309307E2
:107780000003E309F5FE2686A28513053008EF10F5
:107790007056930500030D45EF10B02401456FB0FE
:1077A0006F9BEF10702E93070003E305F5FC268610
:1077B000A28513052008EF10F05393050003094537
:1077C000EF10302201456FB0EF982686A285130591
:1077D0001008EF103052930500030545EF1070209C
:1077E00001456FB02F97EFB2AF9437680040832701
:1077F00008C541671305F7FFB7360020E98F9906E2
:10780000B69786079043130707C083D5018B718F06
:107810000111630CB700832708C593F505C0E98FF4
:10782000B69786079843D98D8CC3B766004003A7E7
:1078300046C483D7418E1384C18B239EE18A03D72C
:10784000C18B7D8F1377072019CB41671307F7DFB3
:1078500023A2E6C403C7218B05072389E18A0357C6
:1078600004007D8F42074187634F070C03570400D4
:107870007D8F1377074005C39797FF1F9387078274
:10788000D843C1679387F7BFB766004023A2F6C409
:10789000029783D7418E035704007D8F93162701EB
:1078A00063CA0606035704007D8F9316370163C031
:1078B0000608035704007D8F9316470163D1060223
:1078C0009387C1839C43C9C7EF000075BD67938749
:1078D000F77F376700402322F7C483D7418E0357D1
:1078E0000400F98F93F707109DC34167B767004005
:1078F0009306F7EF23A2D7C483A687C41396060185
:10790000634C060423AA018A1D45EF00807C0561B3
:107910006FB04F843967B76600407D1723A2E6C475
:10792000035704007D8F93163701E3D406F8BD6733
:10793000FD17376700402322F7C40145EF00607947
:1079400083D7418EBDB7EF10003B83D7418E39BF3F
:107950000945EF0000789DBF1386418B14428D4589
:10796000850623AAD18A1442E3F0D5FA83A607C478
:107970007D17A18AD1FA03A607C42145938707C0C2
:10798000798E23ACC18A8C43139626000010229670
:10799000F98D2320B6FE85069107E396A6FE938611
:1079A000818B9042B7650040B767004013661600B0
:1079B00023ACC18A9042798E23A0C5C49042799AA3
:1079C00023ACC18A9442758F23A0E5C403A747C4A2
:1079D0001377074065DF41671307F7BF416623A2AE
:1079E000E7C47D16938707C00147A145931627007A
:1079F0000810AA9683A606FE91070507F18E23AE0E
:107A0000D7FEE315B7FEFDBD97A7FF1F83C7277EEF
:107A100081C7954723A4F18C8280914723A4F18CE0
:107A20008280828091E5854733B5A7000605828074
:107A30000945828011C51785FF1F1305E57F8280E8
:107A40009387818D9C431D472398E7008280EFA296
:107A50003FEEEFF03FFE6FA0FFEFEFA27FED9384CC
:107A6000818D984085468347070093F7F707638B1E
:107A7000D7029306100209456394D7028346170084
:107A80006386F60493070002639CF6001704000067
:107A9000130424FC00CF231907000145029401457B
:107AA0006FA05FEB83472700930620026385D70210
:107AB000930610020945E395D7FE1704000013044E
:107AC000C44F00CF014502949840E9B71704000065
:107AD000130484F6C1B7170400001304E44AD5B7B1
:107AE0009387818D984393061002014583470700D1
:107AF0000347170093F7F7076383D70082801307C4
:107B0000E7FD1377F70F05453335E500060582805D
:107B1000EFA21FE29387818D9C4323850700C12933
:107B2000B7650040B76700408566938707C09386B6
:107B3000F6F0138605C298439107758F23AEE7FED2
:107B4000E39BC7FE9307F00F23A2F5C4EF10901834
:107B50008145014523A4018CEFF0BF955145EFA06D
:107B60005FEE85450545EFF0DF946FA0BFDEEFA225
:107B70003FDC9387818D179700001307E7559C43DF
:107B800003477700014523950700A384E700EF1022
:107B90004062930500200145EF10A062C1450145F8
:107BA000EF102064930500050145EF10207F930539
:107BB00000060145EF10807C0145EF102075978588
:107BC000FF1F83C565500145EF1030050145EF10DB
:107BD000E06CB766004003A606C0C1671387F7FFD5
:107BE0009317160163DF070083A706C0F98F0567A7
:107BF0001307F7F0F98F316713070708D98F23A010
:107C0000F6C037670040832707C093F7070485C392
:107C1000832707C0C166FD16F58F85669386F6F04B
:107C2000F58FA1669386060CD58F2320F7C09305A8
:107C300000600545EF10E058930500020545EF1080
:107C4000405A930500070545EF1040739305000B5C
:107C50000545EF10A074930500040545EF10E07B87
:107C60008D650545EF10605C37670040832747C08E
:107C700093F7070485C3832747C0C166FD16F58FB8
:107C800085669386F6F0F58FA1669386060CD58FF0
:107C90002322F7C0B766004003A646C0C16713871A
:107CA000F7FF9317160163DF070083A746C0F98F1C
:107CB00005671307F7F0F98F316713070708D98FA6
:107CC00023A2F6C081450945EF10A04F930500029D
:107CD0000945EF1000519305000D0945EF10006AAA
:107CE0009305000F0945EF10606B930500020945ED
:107CF000EF10A0728D650945EF102053B766004064
:107D000003A686C0C1671387F7FF9317160163DFC9
:107D1000070083A786C0F98F05671307F7F0F98F6F
:107D2000316713070708D98F23A4F6C037670040CF
:107D3000832787C093F7070485C3832787C0C1665D
:107D4000FD16F58F85669386F6F0F58FA16693860E
:107D5000060CD58F2324F7C081450D45EF106046F2
:107D6000930500020D45EF10C047930500110D4526
:107D7000EF10C060930500130D45EF1020629305CE
:107D800000020D45EF1060698D650D45EF10E0496B
:107D9000B766004003A6C6C0C1671387F7FF9317F5
:107DA000160163DF070083A7C6C0F98F05671307B5
:107DB000F7F0F98F316713070708D98F23A6F6C0AC
:107DC000376700408327C7C093F7070485C383271D
:107DD000C7C0C166FD16F58F85669386F6F0F58FF0
:107DE000A1669386060CD58F2326F7C09305006005
:107DF0001145EF10003D930500021145EF10603E64
:107E0000930500171145EF1060579305001B1145AE
:107E1000EF10C058930500041145EF1000608D6508
:107E20001145EF10804037670040832707C193F763
:107E3000070485C3832707C1C166FD16F58F8566D4
:107E40009386F6F0F58FA1669386060CD58F2328CE
:107E5000F7C0B766004003A606C1C1671387F7FFE6
:107E60009317160163DF070083A706C1F98F056723
:107E70001307F7F0F98F316713070708D98F23A885
:107E8000F6C00145EF009062854723A4F18C6FA0F6
:107E90007FACEFA2FFA993850183EF00807F6FA0E5
:107EA0007FABEFA2FFA893858182EF00807E6FA059
:107EB0007FAA9387818D9C43A14683C5370083D7D2
:107EC000470063EFB608EFA2BFA6930600412A86DB
:107ED000139755006388D70863F9F6028566938582
:107EE0004690638AB70093864610638CD704930646
:107EF00040416388D7029785FF1F9385251EBA9559
:107F00003285EF0000796FA0FFA493068040638B59
:107F1000D7049306C0406386D70093064040E39C95
:107F2000D7FC9787FF1F9387671BB385E70083D62E
:107F30004501F9D693050701BE953285EF006075BE
:107F4000D9B79787FF1F93876719B385E70083D653
:107F5000C501C5DA93058701BE95EF00807365B74B
:107F6000014582809787FF1F93874717B385E700F6
:107F700083D6C500D1D693058700BE953285EF0024
:107F8000407151B79387818D98438547834557004A
:107F9000F11513F7F50F63F4E70001458280EFA2B6
:107FA0003F999787FF1F938767258E05BE95EF0042
:107FB000406E6FA03F9A9387818D98438547834594
:107FC0005700F11513F7F50F63F4E70001458280C0
:107FD000EFA21F969787FF1F9387470F8E05BE95C9
:107FE000EF00206B6FA01F97828082808280B7672E
:107FF0000040054723A0E7C423A007C4096723A2C4
:1080000007C4130707C02392E18E0967130707C04F
:1080100023A0E7C401458280EFA29F91376600400C
:10802000832806C44165130606C0C20893D8080118
:10803000814797A5FF1F9385E5187D1521481442B8
:10804000139727002E97E98E14C385071106E3982E
:1080500007FF13F8E8FFB767004013E7084042083E
:1080600023A0E7C493E818401358080123A017C5BC
:108070001367084023A0E7C403A747C4137707404A
:1080800065DF41671307F7BF416623A2E7C47D168A
:10809000938707C00147214593162700AE96944267
:1080A00091070507F18E23AED7FEE317A7FE3767CA
:1080B000004013688840232007C5832707C4C207F0
:1080C000C18393E747002320F7C4EFF06FBC6FA094
:1080D0007F889D476304F50023A0A18C9386018CC3
:1080E0009C4215476362F70EEFA29F84172700009A
:1080F000130787948A07BA979C43BA978287376792
:108100000040832707C4C207C18393E707012320E8
:10811000F7C4954723A0F18CA9472382F18C6FA067
:108120007F8383C74600FD172382F18C83C74600F7
:1081300093F7F70FEDF737670040832707C4C207AF
:10814000C183BD9BC207C1832320F7C4994723A0E5
:10815000F18C23A6018CE1B79387C18C9C43ADCBF6
:10816000954723A0F18C65BF37640040832704C482
:10817000C207C183ED9BC207C1832320F4C4EFF083
:10818000AFB1B167938707F02320F4C4914723A0D0
:10819000F18C854723A6F18C6FA0CFFB8947238202
:1081A000F18C8D4723A0F18C6FA0CFFA83C74600D6
:1081B000FD172382F18C83C7460093F7F70FA5F3D1
:1081C000914723A0F18CA1BF994723A0F18C828015
:1081D00037640040832704C4C207C183ED9BC207F4
:1081E000C1832320F4C4EFF02FABB167938707F06E
:1081F0002320F4C4994723A0F18C15B711CDEFA229
:108200002FF39387018E9C439C4382979387818DA4
:10821000884329056FA00FF49387818D9C43054700
:108220002398E700828011CDEFA28FF09387018E13
:108230009C439C4782979387818D884331056FA02B
:108240006FF19387818D9C4305472398E7008280D7
:108250009387818D984359C9239A018C83470700DE
:1082600093F7F70795EB83479700014793F60702CB
:1082700091C2094793F70704ADC313671700238A18
:10828000E18CEFA2EFEA9387018E9C439C4B82978F
:108290001385418D6FA00FEC85461385418D638B4F
:1082A000D704894601456397D70403475700B7664B
:1082B0000040938606C09377F7008A07B697620757
:1082C0009C436187634E07008D660567F58FE39ACF
:1082D000E7FA8547238AF18C6DB7238AE18C55B77D
