:042800006F60107085
:102804000028000000000000DE3B0000E23B000066
:1028140000000000FE960000000000000000000020
:10282400FE960000FE96000000000000000000007C
:10283400FE96000000000000FE960000000000006C
:10284400FE960000FE960000FE960000FE96000034
:10285400FE960000FE960000FE960000FE96000024
:10286400FE960000FE960000FE960000FE96000014
:10287400FE960000FE960000FE960000FE96000004
:10288400FE960000FE960000FE960000FE960000F4
:1028940062760000FE960000FE960000FE960000A0
:1028A400FE960000FE960000FE960000FE960000D4
:1028B400FE960000FE960000E0720000FE96000006
:1028C400FE960000FE960000FE960000FE960000B4
:1028D400FE960000166B0000FE960000FE960000B7
:1028E400FE960000FE96000056760000FE9600005C
:0C28F400FE960000FE960000FE9600001C
:10290000397101436EC619A0397141536AC866CA4C
:1029100062CC5ECE19A0397101535AD056D252D42E
:102920004ED64AD826DA22DC06DE330161408282A6
:1029300041114AC026C222C406C68282B24D41015C
:10294000024D924C224CB24B4101024B924A224A18
:10295000B2494101024992442244B240410182807D
:102960003D432A876373C3029377F700BDEFADE55C
:10297000937606FF3D8ABA960CC34CC30CC74CC76E
:102980004107E36BD7FE11E28280B306C3408A069B
:102990009702000096966780A6002307B700A3065B
:1029A000B7002306B700A305B7002305B700A304AB
:1029B000B7002304B700A303B7002303B700A302A3
:1029C000B7002302B700A301B7002301B700A3009B
:1029D000B7002300B700828093F5F50F939685002A
:1029E000D58D93960501D58D61B7939627009702F3
:1029F000000096968682E78086FA9680C1171D8F22
:102A00003E96E374C3F8A5B7B7F700E0CC43814620
:102A100037F700E0F999CCC383C521853386A50239
:102A200090CBD4CB944393E6060194C3944393E6AE
:102A3000160294C35C43858BF5DF1C43F99B1CC3D2
:102A40008280B7F700E0CC43814637F700E0F99980
:102A5000CCC383D501853386A50290CBD4CB9443D8
:102A600093E6060194C3944393E6160294C35C4331
:102A7000858BF5DF1C43F99B1CC382809C4103A816
:102A80008501D04DD4415841B3E70701D18F3706B6
:102A9000F1E0A2061306F6EF718FD58FD98F5CC1D6
:102AA000D0459C4994451845D18F37F6F1FF8606ED
:102AB0001306D67F718FD58FD98F1CC583C745016B
:102AC0005855B70610FFFD1793F7F70FFD16758FD2
:102AD000D207D98F5CD582801C4589C593E7170042
:102AE0001CC58280F99B1CC582801C4589C593E763
:102AF00007101CC5828093F7F7EF1CC582801C4528
:102B000093E787001CC5828008450D810589828076
:102B10001C4593E747001CC582800845098105894B
:102B200082801C4591C537075000D98F1CC5828013
:102B30003707B0FF7D17F98F1CC58280A54763F763
:102B4000B704138865FF131718008328C500429740
:102B50009D47B397E70093C7F7FFB3F71701B39605
:102B6000E600DD8E54C5994763E5C7047D169317CB
:102B700026003E965859FD47B397C70093C7F7FF05
:102B8000F98F3396C5005D8E50D98280139715005A
:102B9000032805012E979D47B397E70093C7F7FFDA
:102BA000B3F70701B396E600DD8E14C99947E3FF3A
:102BB000C7FAB14763E3C702130796FF131627004E
:102BC00014593A96FD47B397C70093C7F7FFF58F9F
:102BD0003396C5005D8E10D982804D1613172600DE
:102BE00054553A96FD47B397C70093C7F7FFF58F43
:102BF000B395C500DD8D4CD582805C4191C537070A
:102C00000004D98F5CC18280370700FC7D17F98FE3
:102C10005CC18280011123030100834761002547C5
:102C20006364F70425461C4593E787001CC51C45D3
:102C3000A18BF5FF1C4593E747001CC51C45918BF4
:102C4000F5FF744583476100034761000C10860758
:102C500005071377F70F2303E10003476100AE97E1
:102C60002396D7FEE371E6FC23030100834761004E
:102C700025476361F70A2146A545A3030100834761
:102C80007100636EF60603477100834771001410EC
:102C90000607850786073697B6970357C7FE83D77B
:102CA000C7FE63F3E7048347710008108607B697F1
:102CB00083D7C7FE2314F1000347710083467100D8
:102CC00083477100050706072A970358C7FE035577
:102CD0008100139716008507141036978607231670
:102CE00007FFB6972396A7FE83477100850793F7E2
:102CF000F70FA303F10083477100E376F6F88347EB
:102D00006100850793F7F70F2303F1008347610004
:102D1000E3F5F5F623140100231501002303010058
:102D20008347610015476366F70683476100141007
:102D30001307006089078607B69783D7C7FE636AC3
:102D4000F70495461306006019A883476100181020
:102D500089078607BA9783D7C7FE636CF602834755
:102D600061000C100357810089078607AE9783D74F
:102D7000C7FEBA97C207C1832314F10083476100DD
:102D8000850793F7F70F2303F10083476100E3FE04
:102D9000F6FA8347610093F7F70F6387071003572D
:102DA00081008345610083578100034661008346AB
:102DB00061003347B702B3E7C7028607B3C7D7023C
:102DC000BA97C207C1832314F100034761009947F2
:102DD000998F93F7F70FA303F1008347710093F7DF
:102DE000F70FE5C7834761001547636DF702954606
:102DF0008347610010100357A10089078607B29727
:102E000083D7C7FEBA97C207C1832315F100834752
:102E10006100850793F7F70F2303F10083476100F3
:102E2000E3F8F6FC0357A100834571008357A10026
:102E300003467100834671003347B702B3E7C70208
:102E40008607B3C7D702BA97C207C1832315F1001B
:102E5000035581008355A100835781000356A100CB
:102E600085661307004093860680B307F7403386D4
:102E7000C640098F8D8EC20742064186C187420730
:102E8000C206B297C1864187369713D6F70193568B
:102E9000F701B2973697858B0587918FBA9713956F
:102EA0000701418505618280930700402314F100EA
:102EB000034761009947998F93F7F70FA303F10038
:102EC0008347710093F7F70F91FF8567938707801A
:102ED0002315F100B5BF1C4141677917F98F1CC15B
:102EE000232005002322050023240500B707024004
:102EF00023260500138787006304E5041387C701B1
:102F0000630BE502138707036307E5041387470490
:102F1000630AE504138787056309E5021387C7067B
:102F20006307E504138707086309E5041387470966
:102F30006308E5008280D8431367070FD8C38280F7
:102F4000D8431367F700D8C38280D843B7060F0071
:102F5000558FD8C38280D8438566938606F0558FF7
:102F6000D8C38280D843BD66558FD8C38280D843EA
:102F7000B706F000558FD8C38280D843B706000F3C
:102F8000558FD8C3828090519C459449D84983A8D5
:102F90008501D18FD58FD04DD451D98FB3E717018B
:102FA000184103A88502D18FD58FE176BD06D045A3
:102FB000758FB3E707019441D98F1CC1DC4150C123
:102FC00014C55CC582801C4189C593E717001CC1EC
:102FD000828041677917F98F1CC182804CC1828041
:102FE000B70702409C437D8D3335A0008280B70730
:102FF0000240C8C3828058410C410328C500B7066F
:103000000140938706403E9713C6F5FF630108040D
:1030100083A80640032885004143B3F8C80023A0D5
:103020001641D443758ED0C31443D58D0CC31841BB
:1030300090479346F7FF758E90C7D047F18ED4C75F
:10304000630B6800C2979443558F98C382801C43DA
:103050007D8E10C382809447D98E94C7D447558FF4
:10306000D8C78280B707014023AAA7408280B7064D
:103070006745B7270240938636123797EFCDD4C302
:103080001307B79AD8C3D4D3D8D382803727024046
:103090001C4BA166D58F1CCB8280B7270240984B72
:1030A000B7060200137505F0558F98CBC8CB944B2B
:1030B0003727024093E6060494CB5C47858BF5FFE7
:1030C0001C4B8176FD16F58F1CCB82803727024082
:1030D0001C4BC166137505F0D58F1CCB5C47858BE7
:1030E000F5FF372702405C47898BF5FFAE86158DCB
:1030F00093850510372702409042B387A6009106BA
:1031000090C35C47898BF5FFE398D5FE1C4B3706CF
:103110002000B7260240D18F1CCBDC46858BF5FF03
:103120009C4A41777D17F98F9CCA828003A885004D
:10313000937708011373F80081C7DC413363F30010
:10314000B7270240985BB707000FF98FE9E785477B
:10315000A389F184B71701406306F50C83D60500F7
:1031600093F7F60FADE39307F00F63FDD7048328C1
:103170004500A147854EBD4F130F80029302800486
:10318000414E21A08507638DC7033397FE00B375B9
:10319000D700E319B7FE139627000116B395CF00A9
:1031A00093C5F5FFB3F815013316C300B3681601D4
:1031B0006303E809E31858FC18C98507E397C7FDBE
:1031C0002322150182800C418147854EBD4F130F8C
:1031D000800293028004214E21A08507638BC703E0
:1031E0003397FE003376D700E319C7FE1396270006
:1031F000B398CF0093C8F8FFB3F5B8003316C300F7
:10320000D18D6308E803E31A58FC18C98507E399D0
:10321000C7FD0CC189BFB7170140E311F5F483C79F
:1032200031858DDF83D60500B5822390D500C1FEA0
:10323000828058C95DB758C9B1B7B7170140630755
:10324000F50008456D8D3335A000828083C7318538
:10325000EDDB0845B5816D8D3335A0008280B71751
:1032600001406304F5000CC9828083C73185E5DF26
:10327000B5810CC98280B71701406304F5004CC9C1
:10328000828083C73185E5DFB5814CC98280EFF24A
:103290002FEA01112A848354450068002E893D26B7
:1032A000D246B7470F0093870724B3D7F602C2046C
:1032B000C18093F404FCC204C18003260900616547
:1032C0001305056A93950701C181CD8C23129400E3
:1032D0000357040042074183799B4207418323102F
:1032E000E4006365C5060606B3D6C6021147C206EA
:1032F000C182B68763EAE6048505C205C18193965B
:103300000701C1822310B402231ED4000357040016
:10331000835649008355A900136717002310E40062
:10332000835704000357C90003568900C207C183AD
:10333000CD8E93F757BFD58F2310F400518F2314F0
:10334000E40005616FF00FE191477DB78355690097
:1033500031677D176382E5041317160032970E0755
:103360003A96B3D6C6021167C206C182D98E1397A8
:10337000460119E393E616001307C012B387E7026C
:103380002167D98E1307803EB3C7E7028507C207BE
:10339000C1832310F4028DBF131716003A96B3D6DB
:1033A000C602C206C182E1B78357050091C593E703
:1033B00017002310F5008280C207C183F99BC20762
:1033C000C1832310F50082808357050091C593E7E0
:1033D00007102310F5008280C207C18393F7F7EF2F
:1033E000C207C1832310F50082808357050091C571
:1033F00093E707202310F5008280C207C18393F76B
:10340000F7DFC207C1832310F500828083570500D0
:1034100091C593E707402310F5008280C207C1835E
:1034200093F7F7BFC207C1832310F50082802318EA
:10343000B500828093F7E50F19C293E71500C20724
:10344000C1832318F5008280035745018357850106
:1034500013950701598D6D8D220521810D8D133531
:1034600015008280411102C402C693D7C5012AC645
:103470003EC4A247A205A18199CBB247D1073EC65F
:10348000B247884341016D8D3335A0008280B24739
:10349000C181E1073EC6B247884341016D8D333596
:1034A000A00082809387418598438346050031E3DD
:1034B0008347250037E700E09207369793F7F70F29
:1034C0002300F7405041054793D756003317D700E4
:1034D00009CA938707048A07B7E600E0B69798C33E
:1034E0008280938707068A07B7E600E0B69798C3FD
:1034F000828098430546630BC7028C430947638665
:10350000E50498430D466309C70098439147E31BC0
:10351000F7FA8347150079BF034615008347250056
:10352000636CC7040606B297920701A8834725007B
:103530000346150092076307E60237E700E093F7BA
:10354000F70F36972300F740B5BF034715008347B1
:1035500025006378E6021307E7030A07BA9793F793
:10356000F70F920793E707F837E700E093F7F70FB5
:1035700036972300F740B9B71306C6070606B29779
:10358000F9BF0A07BA9792074DBFB7160240DC424F
:1035900071771307F77FF98F0E055D8DC8C28280A2
:1035A000B7170240D843B70640FFFD16758FD8C342
:1035B000D8435A05598DC8C38280B7160240DC42F1
:1035C00051777D17F98F5D8DC8C282803717024011
:1035D0005C439146B18B6385D700A1466386D706CD
:1035E000B7177A00938707201CC13716024058424C
:1035F00097D6FF1F938606A111833D8B369703470D
:103600000700B3D7E7005CC1584221831D8B369772
:103610000347070033D7E70018C558422D831D8B99
:10362000BA9603C7060097D6FF1F938626C2B3D764
:10363000E7005CC5584239830D8B36970347070076
:10364000B3D7E7021CC982805C4358434166C983F3
:10365000BD8B8907C546718F6380D70419EF374743
:10366000024003270780418B05C337177A001307F1
:103670000720B387E7021CC18DBF371702405843AC
:103680009316E700E3D306FE37173D0013070790B4
:10369000B387E7021CC191BFC94765F3C9B799C594
:1036A000371702405C4B5D8D48CB8280B7170240D4
:1036B000D84B1345F5FF798DC8CB828099C5371754
:1036C00002401C4F5D8D08CF8280B7170240984F93
:1036D0001345F5FF798D88CF828099C53717024051
:1036E0005C4F5D8D48CF8280B7170240D84F13459D
:1036F000F5FF798DC8CF828003D6250083D70500DA
:1037000003D7450083D6650083D88500D18F03D8C1
:10371000A500D98FD58F03D7C500B3E7170103568E
:10372000050083D6E500B3E70701D98F0D671307BE
:103730000704718FD58FD98F2310F5008356C501EB
:10374000FD7703D705019387F77FF58F231EF500DB
:103750002318E50082808357050091C593E707048D
:103760002310F5008280C207C18393F7F7FBC207DD
:10377000C1832310F50082808357450009C6DD8D83
:103780002312B500828093C5F5FFFD8D2312B5008D
:1037900082808357450091C593E747002312F500C7
:1037A0008280C207C183ED9BC207C1832312F5004B
:1037B000828083570500B7360140938606C0C20752
:1037C000C18303D6650083D8450003D8050063068E
:1037D000D504370700406300E50213070740630C78
:1037E000E50037170040930607806306D5001307EE
:1037F00007C06317E50003D7250093F7F7F8D98FC3
:1038000093F7F7CFD18F2310F50023161503231458
:1038100005038547231AF500828003D7250093F717
:10382000F7F85D8F1377F7CF518F2310E50023163C
:1038300015032314050383C785002318F502854764
:10384000231AF50082808357050091C593E717007E
:103850002310F5008280C207C183F99BC207C18390
:103860002310F50082808357C50009C6DD8D23161D
:10387000B500828093C5F5FFFD8D2316B5008280CB
:10388000EFF20F8BCD376FF0EF8C83578500C207B7
:10389000C183E19BC207C1832314F50082802314F6
:1038A000B502231AC500828083570500C207C18371
:1038B00093F7F7F8DD8D2310B500828083578501DB
:1038C000C207C183DD9BDD8D231CB5008280835739
:1038D000C501C207C183DD9BDD8D231EB50082803B
:1038E0000357C501FD779387F77FF98FA205CD8F29
:1038F000C207C183231EF500828083570502C207D9
:10390000C183F59BDD8D2310B502828083570502AC
:10391000A205C207C18393F7F7DFCD8FC207C1832A
:103920002310F502828003570502F977FD17F98FFE
:10393000B205CD8FC207C1832310F50282800357E1
:1039400005028547B397B70093C7F7FFF98F231098
:10395000F50283570502B315B600DD8DC205C1819E
:103960002310B5028280035705028547B397B7003D
:1039700093C7F7FFF98F2310F50293F775FF6105E1
:1039800095C3F115C205C1818581AA959C416577D2
:103990007D17F98F9CC19C412206420641825D8EB3
:1039A00090C182808581AA959C4193F7F7F89CC1CC
:1039B0009C415D8E90C182802316B5028280231ABD
:1039C000B5028280231EB50282802310B504828056
:1039D00083570500C207C18393F7F7CFC207C1839E
:1039E0002310F50083570500DD8D2310B50082807C
:1039F000835705010355C500ED8F4205418189C7F5
:103A00006D8D3335A00082800145828093C5F5FF1E
:103A1000C205C1812318B5008280EFE27FF1835691
:103A2000050103D76500F577FD17F58FD98F03D70B
:103A3000C5002318F5002A840355C500AE84FD7720
:103A400083D5450003D684009387379F83D6A4008F
:103A5000E98FCD8FD18FD58F2316F4008357440182
:103A600001116800C207C18393F7F7CFD98F231ADA
:103A7000F400A93EB747014093870780630DF4081F
:103A800052478356C40093171700BA97C2068E0791
:103A9000C186BA97984063C006040A07B3D7E70205
:103AA000130740060356C40042064186B3D6E70218
:103AB000B3F7E70292066340060492079387270351
:103AC000B3D7E702BD8BD58FC207C1832314F4009F
:103AD00005616FE03FE80607B3D7E702130740062A
:103AE0000356C40042064186B3D6E702B3F7E702A5
:103AF0009206E35406FC8E0793872703B3D7E702A9
:103B000013F77700B367D700C207C1832314F4000B
:103B100005616FE03FE46247ADB781C98357C500D7
:103B20000967D98F2316F50082800357C500F977FE
:103B3000FD17F98F2316F500828093F7F50F0547DF
:103B40009583B315B7006385E702894613074501DE
:103B50006387D7001C4301CADD8D0CC38280130725
:103B600005011C4375FA93C5F5FFFD8D0CC38280DA
:103B70001307C500C5B793F5F51F2312B500828062
:103B8000035545001375F51F8280035505006D8DA3
:103B90003335A000828093F7F50F854695833397E0
:103BA000B600638AD70289466383D70283574501EB
:103BB0007D8F835705000145C207C18301CB0545B1
:103BC000A181B315B500ED8F3335F00082808357A6
:103BD00005017D8FF9BF8357C5007D8FD9BF730065
:103BE000203001A09387818C984395476309F700A3
:103BF00083474500A3040500A302F5008280EFE29D
:103C00003FD32A8403457500EF5050039307000209
:103C10006304F5006FE01FD48345540083474400DC
:103C20006384F50663F4B700930700F883448400C7
:103C30008D8F93F7F70F63E79704834614000346CD
:103C400004000347240083473400A206D18E4207B4
:103C5000558FE207D98F2686BE95138541C6EF5052
:103C6000D03283475400268603457400BE9493F4F3
:103C7000F407A3029400938541C6EF307045A30476
:103C8000040049BFBE8455BF0347940045F359B7AC
:103C90009387818C98439547034645006307F70057
:103CA000A302C500A30405008280834615000348D3
:103CB00005000347250083473500A206B3E6060149
:103CC0004207558FE207D98F130716002302E5003C
:103CD000B2972380B7008347450013978701618718
:103CE0006347070003475500630AF70082800347D4
:103CF0005500230205008147E31AF7FEEFE25FC398
:103D000085472A84A304F5002285E93D8347940072
:103D1000E5FF6FE03FC4EFE21FC0138781A65C4B55
:103D200083448701004B13D78700E204D98C130624
:103D30000004135784008145139487012685598C0C
:103D4000EFE01FC203451400854701562381A400FC
:103D5000034724002382F400834644002380C400E8
:103D6000A380E4002383F400A382D4001306200878
:103D7000638DC61E6373D6161306100F638BC6328F
:103D80006370D60C1306200F638EC6321306300FF5
:103D9000639EC614A383F4002384F400A384040068
:103DA0000D4699473E972A9736970907A381F40055
:103DB0001377F70F81478146A69683C6760085075D
:103DC00093F7F70F36971377F70FBE86E3C6C7FE54
:103DD0009305000E2696A303E600138581A64D3DAC
:103DE00005440549938981A621A8BA85553583C71D
:103DF000340005041374F40F9107228963CE8702FF
:103E00002699034709004E859305000D9307070384
:103E100093F7F70EF9FBAD3D834509004E85050488
:103E2000FD1593F5F50FAD3583C734001374F40F0A
:103E300022899107E3D687FCEF3040696FE0FFB03D
:103E40009307000F6394F60A97670000938707A50E
:103E500083C5070017660000130606A503C41700F4
:103E600083C3270083C2370083CF470003CF5700A7
:103E700083CE670003CE7700034306008348160015
:103E800003482600A947A383B400834536000346B0
:103E90004600A387F400FD57A38AF400930700FAB5
:103EA000238AC400238BF40023848400A384740039
:103EB00023855400A385F4012386E401A386D4015D
:103EC0002387C40123886400A38814012389040183
:103ED000A389B4004146CD47F1B5C547638CF602CE
:103EE000D1476384F604C1476388F604FD572382F3
:103EF000F4009305000E85471306F00F0D072A976F
:103F000032973697BA970D47A381E400014613F71D
:103F1000F70FC9B58345540009469547A383B400FC
:103F2000834564002384B400B5BD83455400054631
:103F30009147A383B400BDB581460146814505453F
:103F4000EF1040598146014681450145EF108058E8
:103F500003C7140003C5240003C6440083C65400ED
:103F600083C7640083C5040051BF034774008346C0
:103F700064000346540081450545EF10C0530347D4
:103F80007400834664000346540085450545EF10E0
:103F900080520347740083466400034654008945F9
:103FA0000545EF1040510347A400834694000346A3
:103FB00084008D450545EF1000500347A40083465B
:103FC00094000346840091450545EF10C04E034719
:103FD000A400834694000346840095450545EF10F0
:103FE000804D1309B4009944930910020347290036
:103FF0008346190003460900A6858504054593F408
:10400000F40FEF10404B0D09E39234FF0347B40B5C
:104010008346A40B0346940B81450145EF10A0494C
:104020000347B40B8346A40B0346940B8545014517
:10403000EF1060480347B40B8346A40B0346940B70
:1040400089450145EF1020470347840B8346740BD5
:104050000346640B8D450145EF10E0450347840B93
:104060008346740B0346640B91450145EF10A04451
:104070000347840B8346740B0346640B9545014547
:10408000EF1060431304340B9944130910020347E3
:1040900024008346140003460400A68585040145D8
:1040A00093F4F40FEF1020417514E39224FF6FE0B6
:1040B000DF89A383040023840400A38404000D4645
:1040C0009947CDB19307A0FAA383F4009307300575
:1040D0002384F40009469547F1B18547238CF18488
:1040E0008280EFE25F831387C1A45C4B8344870126
:1040F000238C0184A183E204DD8C03C65400930564
:10410000660093F5F50F2380B400C1C5150613872B
:1041100014001376F60F3A96AE86814721A08346A7
:1041200007000507B69793F7F70FE31AC7FEA695A2
:104130002380F5001385C1A49305000E913E014430
:104140009389C1A411A8BA85A13683C704000504C8
:104150001374F40F63ED8702338984000347090069
:104160004E859305000D9307070393F7F70EE1FFC4
:104170000536834509004E850504FD1593F5F50FB9
:10418000013E83C704001374F40FE3F787FC6FE06C
:10419000CFFB814769BFEFE2AFF99386C1A4DC4A48
:1041A00003C78601804A93D687006207558FE207CE
:1041B000130600083A85218081455D8CEFE04FFAB7
:1041C0008346240003461400834734002301D500AE
:1041D00099462300D500A300C500A301F5002302E2
:1041E0000500A3020500930620052A876389D71AD4
:1041F00063F8F606930620066380D71463FEF60282
:1042000093061008638CD71A63F1F6029306000F29
:104210006384D70A9306500F639CD7028547238C8B
:10422000F184EF30A02A6FE0EFF29306100763915C
:10423000D702EF10106AF5B793065005638DD718B3
:10424000930610066384D71A930640056388D71A2D
:1042500013060008BA851385C19AEF5000537DBF3D
:10426000930610046384D71463EBF60293062003CD
:104270006384D70493060004638BD710930600036E
:10428000E398D7FC9D4685472300D500930640F967
:104290002303D500A302F500238CF18459B79306BC
:1042A0000005638AD70A63EEF60693062004E391BD
:1042B000D7FAEF204053B5B7975700009387475D73
:1042C00083CE070003CE170003C3270083C837003F
:1042D00003C8470003C5570083C5670003C67700BE
:1042E00083C68700BD472300F700A547A302F70058
:1042F0002303D701A303C70123046700A304170105
:1043000023050701A305A7002306B700A306C700DE
:104310002307D7008547238CF184EF30201B6FE003
:104320006FE3034694001387C185814691451305C9
:104330005400EF206030F5B5230105009306F00F1F
:104340001306F00F9305F00F0945EF10A0188547ED
:10435000238CF184F9B5034554008345640003467A
:10436000740083468400034794008347A400238E8F
:10437000A184A38EB184238FC184A38FD184238091
:10438000E186A380F1868547238CF18459BD85455C
:104390000145EF20201D8547238CF18459B5034545
:1043A000940093056700EF204035A5BD8145014588
:1043B000EF20401B8547238CF184A5B5834674000C
:1043C00003466400834554000945EF10A01085475B
:1043D000238CF184B9B50346940013874186854642
:1043E000914513055400EF20202525BD93070002B9
:1043F0002302F5008547238CF18425B5034554003D
:104400008345640003467400834684000347940098
:104410008347A4002382A186A382B1862383C18619
:10442000A383D1862384E186A384F1868547238CE8
:10443000F184C5BBEFE24FCD138981A68327090123
:10444000834A4901370A0001A183E20AB3EAFA006C
:1044500003C721A77D1A130B000E954B9309000D7E
:10446000930400027D5441CF8327C9008346B900DD
:1044700003C671A7B3F74701A207D58FB29783C6CA
:10448000070083C7A186638E6607638C3709638242
:10449000360B83C581A703C691850327090183478E
:1044A00049012183E207D98FAE972380D700834744
:1044B0000901850793F7F70F238CF1A663F7FB003B
:1044C00003C73A00ED176386E7080347A90083474F
:1044D000F90036967D171377F70F8507A38CC184F3
:1044E0002389E1A6A38BF1A6638936032385D186B0
:1044F0003DFB0945EF40D07503C721A735F76FE0B5
:104500002FC463803703238C01A6A38C9184A381DD
:104510008A0013060002814549B72385018621F7E9
:10452000C9BF850693F6F60F83C581A703C691859B
:10453000ADB77D171377F70F05062389E1A6A38B87
:10454000C1A6E31207F20945EF40907003C721A707
:1045500075B7638CC6020347A9008347F900238C13
:1045600001A67D171377F70F8507A38C0184238598
:1045700001862389E1A6A38BF1A6E31607EE094580
:10458000EF40106D03C721A795BFEFF0CFF8E1B75B
:10459000EFE28FB79389C1A483A7090103C449013E
:1045A000B70A0001A18362045D8C03C761A5FD1AEF
:1045B000130B000E954B130A000D7D59815441CF0A
:1045C00083A7C90083C6B90003C6B1A5B3F75701D5
:1045D000A207D58FB29783C6070083C7B186638EC3
:1045E00066076386470B638D460B03A7090183C7E4
:1045F000490103C6C1A52183E207D98FB297238061
:10460000D70083C7090103C6A185850793F7F70F74
:10461000238EF1A463F7FB0003470400FD176381B9
:10462000E70A03C7A90083C7F90036967D171377F9
:10463000F70F8507238DC184238BE1A4A38DF1A4FB
:10464000638B4605A385D1863DFB0D45EF40506049
:1046500003C761A535F76FE0AFAE638A4703238ECA
:1046600001A47D17230024011377F70F0506238D7E
:104670000184A3859186238BE1A4A38DC1A4E310BB
:1046800007F40D45EF40D05C03C761A5E1B785068F
:1046900093F6F60F99BFA3850186E31207F275B76B
:1046A0007D171377F70F0506238BE1A4A38DC1A413
:1046B000E31707F00D45EF40B05903C761A559BF97
:1046C000D93C03C7A90083C7F900238E01A47D1735
:1046D0001377F70F8507238D0184A3850186238B2C
:1046E000E1A4A38DF1A4E31C07EC0D45EF40505667
:1046F00003C761A585B7EFE2AFA32D3B513D1385FD
:1047000081A6EFF02FCE1385C1A4EFF0AFCD6FE0FF
:104710006FA4EFE2EFA1C53783C7818599E36FE00E
:104720006FA3EFF01F9C6FE0EFA2EFE26FA003C456
:1047300021818544630C940A49C88947630DF404B8
:104740008D476304F4006FE0EFA0B7540040B70555
:1047500007009385450813850440EFE0FFCE65D53B
:10476000854513850440EFE05FC883C7C186850790
:104770002386F18603C7C18683C711816363F70A65
:10478000238601867D572389E1801547E39DE7FA5B
:10479000A38881804DBF37540040B705070093853B
:1047A000250813050440EFE03FCA51DD03C7C18669
:1047B0009387C180BA9783C5070013050440EFE0D3
:1047C0001FC78D472389F180BDBF37540040B7050F
:1047D000020013050440EFE0FFC835F585451305D9
:1047E0000440EFE07FBE23899180B1BF3754004081
:1047F000B7050300850513050440EFE0FFC4E3049B
:1048000005F403C7C18693870184BA9783C507005F
:10481000014613050440EFE0FFC189472389F18079
:104820001DB72389018005B7EFE28F901384318192
:104830000345040023890180EF20B0368145170528
:1048400000001305C5EEEF20502D2300A4006FE0FB
:104850006F9003C721819307F00F6303F7008280F5
:10486000EFE20F8DD1376FE0EF8E1345F5FF135751
:1048700065009357C500136707FC93E707FCA38601
:10488000E180136505FC2387F1802386A18003C79F
:1048900021819307F00F6303F7008280EFE24F89D5
:1048A00061376FE02F8BEFE2AF880564130404805B
:1048B00097C7FF1F938707E222863E858145EFE079
:1048C0002F8A138741810C432286EF40106C6FE0E2
:1048D0006F88EFE2EF859967739007803717024082
:1048E0005C4301449384418193E707085CC31389C7
:1048F0008181EFE0CFF788402295EFE00FFA832522
:1049000009008840A2952295EFE04FFC13040410A3
:10491000EFE0CFF793070480E9FF371702405C43CD
:1049200093F7F7F75CC399679387870873900780BD
:104930006FE04F82EFD2DFFF13848148130600043B
:1049400081452285EFE0CF819307A0FA2300F40090
:104950009307101E2311F400EF20C07D2312A40042
:10496000EF00D01C2313A40013060004A2851145F8
:10497000EF2010766FD01FFEEFD29FFB653F6FD008
:104980007FFD03C7814C9307A00A6303F700828071
:10499000EFD21FFA1306E00381451385A148EFD03B
:1049A0003FFC1384814C834714001307A0FA23842F
:1049B000E148A384F1481307000A83C7A14C63862A
:1049C000E7246370F7041307000E6384E720637025
:1049D000F70A1307200E638FE71C63EDE710130738
:1049E000300E6392E7049307301E1306000493858C
:1049F000814811452395F148A3860186EF20506D2B
:104A0000D9A0130700086385E71E6379F70213072F
:104A100000096382E71613071009638FE70C130779
:104A20001008638AE710FD57130600049385814838
:104A300011452395F148EF20B06971A005476389BE
:104A4000E7100947E391E7FE93878181034744001C
:104A50009C4313060004938581482383E700114596
:104A6000930720102395F148EF209066A9A813071B
:104A7000100A638CE7041307000BE396E7FA03C5FB
:104A8000C14C9307F00F83C8014D83C5114D03C777
:104A9000214D6302F5329306000F03C8D14C630722
:104AA000D5386304F830AE864686C285EF00B02064
:104AB0009307001B13060004938581481145239535
:104AC000F148EF20F0606FD0FFE8EF20A0662A8465
:104AD000EF20E0652397A1489307101A13060004FE
:104AE0009385814811452395F14823968148EF200D
:104AF000305ED1BF8135C1BF938781819C4313064E
:104B00000004114583C6370083C5270003C747004B
:104B100083C75700A206CD8E4207558FE207D98F73
:104B200023A6F14893858148930710192395F148EE
:104B3000EF20105A49BF713B930710181306000469
:104B40009385814811452395F148EF207058A5BF02
:104B5000938781819C43130710101306000483C7B9
:104B600067009385814811452395E1482386F148E4
:104B7000EF20105689BF9387818183454400034607
:104B80005400034774009C4383466400114523810D
:104B9000B700A381C700A382E7002382D7001306D2
:104BA000000493070019938581482395F148EF206D
:104BB000305211BF8547A386F18613060004930780
:104BC000201E9385814811452395F148EF205050D0
:104BD000DDBD9307001E2395F14883C7C14C638D4B
:104BE000070C05476381E704FD57A385F148E1BD44
:104BF0005D39930700181306000493858148114519
:104C00002395F148EF20D04C7DBDEF20606B9307DA
:104C1000001A130600049385814811452395F14835
:104C2000EF20104B4DB583C5D14C93D6250013D63C
:104C30001500858A058A85890545EF00500F83C5D3
:104C4000E14C93D6250013D61500858A058A8589FF
:104C50000D45EF00D00D83C5F14C93D6250013D63A
:104C60001500858A058A85891545EF00500C83C596
:104C7000014D93D6250013D61500858A058A8589AE
:104C80000145EF00D00A83C5114D93D6250013D6F8
:104C90001500858A058A85890945EF00500983C575
:104CA000214D93D6250013D61500858A058A85895E
:104CB0001145EF00D00701BD03C7F14C83C6E14C9D
:104CC00003C6D14C81450545EF00E07E03C7214D69
:104CD00083C6114D03C6014D85450545EF00A07DF6
:104CE00003C7514D83C6414D03C6314D8945054526
:104CF000EF00607C03C7814D83C6714D03C6614DD3
:104D00008D450545EF00207B03C7B14D83C6A14DFE
:104D100003C6914D91450545EF00E07903C7E14D8C
:104D200083C6D14D03C6C14D95450545EF00A0781A
:104D300003C7114E83C6014E03C6F14D814501459F
:104D4000EF00607703C7414E83C6314E03C6214E44
:104D500085450145EF00207603C7714E83C6614E3D
:104D600003C6514E89450145EF00E07403C7A14ECB
:104D700083C6914E03C6814E8D450145EF00A07359
:104D800003C7D14E83C6C14E03C6B14E91450145FE
:104D9000EF00607203C7014F83C6F14E03C6E14EB8
:104DA00095450145EF00207139BB2E86BA86C68530
:104DB000EF004072F5B93A864685EF00007183C670
:104DC000214D03C6114D83C5014D0545EF002076E9
:104DD00083C6214D03C6114D83C5014D0D45EF001E
:104DE000007583C6214D03C6114D83C5014D154580
:104DF000EF00E07383C6214D03C6114D83C5014DFD
:104E00000145EF00C07283C6214D03C6114D83C515
:104E1000014D0945EF00A07183C6214D03C6114D18
:104E200083C5014D1145EF00807059B12E86BA86B9
:104E3000C6854285EF00A06FA5B9EFD2DFAD03C7ED
:104E40008154C1476306F700EF2040686FD0FFAF81
:104E500083C791540947638CE70C637CF7080D47BF
:104E6000638EE70A1147E391E7FE03C4A15483C7A9
:104E7000B154A20742045D8C83C7C1545D8C17599D
:104E800000001309E9A28544594BD14ADD49B146D6
:104E90003546B9451D4A1385F4FFB356D400335641
:104EA000C400B355B400858A058A85891375F50F4A
:104EB000EF00E0672685B356640133565401B355BD
:104EC00034018904858A058A858993F4F40FEF00FB
:104ED00000660D09E38A44F7834599000346A9005B
:104EE0008346B90083490900834A1900034B29000E
:104EF0005DB70547E39AE7F49307000303C5C18153
:104F0000A38EF15AEF20E0499945170500001305DB
:104F1000C506EF208040238EA1803DB7A38E015AA5
:104F2000A38A015A239B015A238C015A31BF93074C
:104F30000003A38EF15A09BFEFD29F9F9387C159F7
:104F4000138781509386C15D03A80700C8438C472F
:104F5000D0472320070148C30CC750C7C1074107EA
:104F6000E394D7FE13060004938581500545EF2096
:104F700030166FD03F9E93878181984385470347C2
:104F800067006303F7008280EFD29F9A75376FD076
:104F90007F9CEFD2FF991306E00281451385A15152
:104FA000EFD01F9C9387815803A3070083A8470075
:104FB00003A88700D44703D7070193878150494648
:104FC000BE8523A0670023A2170123A40701D4C72D
:104FD0002398E7000545EF20B00F6FD0BF97EFD2C1
:104FE0003F95938781819C43094783C76700638707
:104FF000E7020D476380E70405476385E70203C5C1
:10500000D181EF20603C854517050000130565FD43
:10501000EF20E034A38EA1806FD0DF93EFF0DF9517
:105020006FD05F9303C5C181EF20603C313761F9D8
:105030006FD05F92B93F6DDDD9B7EFD2DF8D83D7E7
:10504000E18613D78700A38EF1589754000093840C
:105050006487238FE158A38C015A239D015A238E24
:10506000015A01449389C1593D492285552C0504B3
:105070001374F40F19C983C7040083C61400CE97B4
:1050800003C7D701558FA38EE7008904E31F24FDD2
:10509000938701878397070063C407006FD0FF8A57
:1050A0003D45BD2C65DD9387C15903C7A70183C763
:1050B000C70105078507238BE15A238CF15A6FD06E
:1050C000DF88EFD25F8523A4015823A6015823A8C7
:1050D000015823AA0158239C0158930710032384E5
:1050E000F15801441149A5493D4B974A0000938A64
:1050F0006A7F138A81589374F40F26856309240309
:1051000063873403312C93171400D697B3068A00B3
:1051100009CD03471A0083C5070003C61700B3670C
:10512000B700A384F1582381C60063846401050499
:10513000D9B71145F52209E5930730032387F158C4
:105140002545F92A01E59147A389F1586FD0EFFF72
:10515000EFD20FFEAD20D92A83D42187B347950023
:105160002398F1862A842399A186EF10305BEF10F3
:10517000707C1345F5FF420541812397A18683D7B3
:1051800041876384A702239AA186EF202034938766
:1051900081819C43054783C767006380E7020D4711
:1051A000638BE7002D3D6FD0EFFA239AF186E31E63
:1051B00094FC6FD02FFA3137F5B74135E5B7EFD210
:1051C0002FF4371A01409384C160130D0A80A68B17
:1051D0008149094C130A0AC08D4A854C954D638755
:1051E000890F63543C0D638F59119147639EF90EEB
:1051F000930500405285EFE00F88BD456A85EFE0DA
:105200000F865145EFD05F805E890144214BB31575
:105210008B00C205C1815285EFE02F8241E523005A
:10522000990105041509E31454FF8509850BE398DA
:10523000B9FB37150140C14513050580EFD0FFFFCD
:1052400013351500C168A38DA1601388F8FF13877B
:10525000C15D9386C15F1385C15F8D450543F1181C
:105260008357070003C604008607D18FC207C18396
:105270002310F7006380B702638E07016383170171
:1052800099E323800600090785048506E31AE5FCF7
:105290006FD0CFEA23806600090785048506E311F5
:1052A000E5FCFDB723000900ADBF8547639EF90209
:1052B0006A858945EFD03FFC6A85B545EFD03FFA56
:1052C000930500405285EFD09FF925BF6A8591452F
:1052D000EFD07FFA6A85AD45EFD07FF893050040A7
:1052E0005285EFD0DFF731BF6A858545EFD0BFF833
:1052F0006A85B945EFD0BFF6930500405285EFD0DF
:105300001FF601B76A85A145EFD0FFF66A859D4576
:10531000EFD0FFF4930500405285EFD05FF4D5B590
:105320009387C15F3E950345050082809386C15FE8
:1053300081470145414603C7060085063317F7003C
:10534000598D420585074181E397C7FE8280930707
:10535000D039B308F502131835002A989397150031
:105360000A08AE973308A8402E9822068E07598E59
:10537000C2061387C1610A089507558E3A98C697E9
:1053800097C6FF1F938686E82320C800BE965D4718
:10539000FD55B357E600858BB307F04093F76704DC
:1053A0009387D7022380F6007D178506E313B7FEA7
:1053B0008280EFD24FD6AA8A2E8AB28981441309FD
:1053C00030020D4B0144A28505044E87D2865686D5
:1053D00026851374F40FA53FE31724FF850493F487
:1053E000F40FE39164FF6FD04FD6EFD26FD4130563
:1053F0000020EFD0FFBE19E16FD0CFD5130500021A
:10540000EFD01FBE75D937052000EFD07FBD6DD519
:1054100013050020EFD0BFBD13050002EFD03FBD44
:1054200037052000EFD0BFBCB7040040138504400F
:10543000814537040240EFE00FC1130504038145A5
:10544000EFD07FB81305C4018145EFD0DFB7130556
:10545000C4068145EFD03FB7130504039305D03947
:10546000EFD0DFB71305C4019305D039EFD01FB7D4
:105470001305C4069305D039EFD05FB61305C401F8
:105480008545EFD05FB4130504038545EFD0BFB366
:105490001305C4068545EFD01FB385451385044029
:1054A000EFE06FBA6FD00FCBEFD28FC83D3FEFF078
:1054B0004FBA6FD02FCA9307200263E7B700EFD22D
:1054C0002FC771356FD00FC98280EFD26FC6D53527
:1054D0006FD04FC8EFD22FC4AA8A2E8AB2893689DC
:1054E000014493043002A28505044A87CE86528681
:1054F00056851374F40FA13DE31794FE6FD0EFC4EB
:10550000EFD20FC393868187BD470146F55503C788
:10551000060085063317F700F517598EE399B7FE95
:10552000328523A0C188EFF04FB46FD0AFC2EFD265
:105530002FC0B335B000B336D0008A053336C00073
:10554000D58D9387818706063E954D8E2300C50035
:10555000453F6FD02FC0EFD2AFBD3971894717B427
:10556000FF1F130424AB2300F1009305803E930733
:105570003020170500001305C5112310F400EF10AB
:10558000105E17B6FF1F130666AA83469600834572
:1055900086000347A6008347B600A206CD8E4207C9
:1055A000558FE207A301A400D98F0A8581460146E1
:1055B0008545829721616FD0EFB9EFD26FB739710E
:1055C00093074011856517B4FF1F1304A4A43EC0C0
:1055D0009385853893073010170500001305650B78
:1055E0002310F400EF10B05717B6FF1F130606A4E0
:1055F00083469600834586000347A6008347B6008E
:10560000A206CD8E4207558FE207A301A400D98FD1
:105610000A85814601469145829721616FD08FB3FB
:10562000EFD20FB1B707FF013971938727533EC0FF
:10563000C14717B4FF1F1304E49D2302F100930533
:10564000803E9307303017050000130585042310B2
:10565000F400EF10D05017B6FF1F1306269D8346A7
:105660009600834586000347A6008347B600A2063E
:10567000CD8E4207558FE207A301A400D98F0A857A
:10568000814601469545829721616FD0AFAC17B72F
:10569000FF1F034727989547630EF708EFD24FA9DE
:1056A00083C6E1A503C7D1A583C721A6A20683C5EA
:1056B000F1A5D98E03C511A6A20703C631A6C2055E
:1056C000C98FD58D03C541A69D4642065D8E03C791
:1056D00001A69317850117B5FF1F230DD592620709
:1056E00097B6FF1F83C6169329454D8FD18F636BE5
:1056F000D500174600001306E6208A06B2969442AB
:10570000B296828603461700834627000347370078
:1057100099452380B700A381E7000D47A380C70008
:105720002381D700A38207002382E700EFE0FF9ADE
:105730006FD04FA2854717B7FF1F230DF78C8280CC
:105740000346170083462700034737009945238007
:10575000B700A381E7000547A380C7002381D700D6
:10576000A38207002382E700EFE03F976FD08F9E70
:105770000346170083462700034737009D452380D3
:10578000B700A381E7000547A380C7002381D700A6
:1057900023820700A382E70023830700EFE0FF9343
:1057A0006FD04F9B8346A701034517008345270011
:1057B00003463700139746001377F70F1308370196
:1057C000350723880700A38807002389D700238093
:1057D0000701A380A7002381B700A381C70023820C
:1057E0000700A382E700EFE05F8F99B7AD33EFE0EA
:1057F000DF8E3DBF3535EFE05F8E1DBF03461700DE
:105800008346270003473700C9452380B700A3819B
:10581000E7003147A382E7000547A380C700238143
:10582000D70023880700A38807002382E700EFE062
:10583000DF8AFDBD8D4763FFA70617C7FF1F13074C
:10584000674A8347070083461700D58FADE397C6A5
:10585000FF1F83C646499307F00F639AF604034778
:10586000470097C7FF1F83C717483E971377F70F67
:105870001DEFF91793F7F70F17C7FF1FA305F7469B
:10588000636AF50297C6FF1F83C616461307500DBD
:10589000639FE600850517C7FF1F0347074593F57C
:1058A000F50F6316B7001395070141858280130534
:1058B000300F82801305400F8280EFD2CF8517A86A
:1058C000FF1F0348787783C521A697A7FF1F83C7CB
:1058D000A77683C811A603C5E1A517A6FF1F034637
:1058E000C67503C731A62208A205B3E5150103C397
:1058F000D1A53368F80083C6F1A597A7FF1F83C71A
:10590000D7732205420642074D8F33656500336623
:10591000060103C301A683C841A6A3820188C2066B
:10592000E20717C9FF1F1309E93BC98E62031398E9
:105930008801D18F938551884A85B364D30033643D
:10594000E800829783C95188638C090097A7FF1FDD
:1059500083C7476C0D476387E70011476382E702FF
:105960006FC0BFFE0347490083472900914617A631
:10597000FF1F2301D66AF98F1307F00F638DE70429
:1059800097A7FF1F83C717692947E36BF7FC1747E2
:1059900000001307E7F98A07BA979C43BA978287F2
:1059A000930520034E857935E34C05FA954717A7F3
:1059B000FF1F2301F76617A5FF1F0345D565930752
:1059C000F00FE30FF5F8EF103020FD5717A7FF1F7A
:1059D000A303F76471B783470900034619008346A0
:1059E000390003475900D18FD58FD98FD1FB13864A
:1059F000A9FF97C5FF1F9385452F4A85EF30506457
:105A000041B79305A0044E853535E34B05F4954722
:105A100017A7FF1F2300F76017A5FF1F0345B55FFA
:105A20009307F00F6309F500EF10101AFD5717A741
:105A3000FF1FA302F75E97C7FF1F83C7172B83C6FD
:105A4000E1A503C6D1A56381073A83C7F1A5A206E4
:105A500003C701A6D18EC20703C621A6D58F620750
:105A600083C811A683C631A65D8F220683C741A6CF
:105A700003481700034527008345370033661601A6
:105A800013970601518FE207D98F35472380E7002E
:105A90001D47A38007012381A700A381B7002382AC
:105AA0000700A382E70097C7FF1F83C7672423046B
:105AB000F40017C7FF1F0347A723814715C3330708
:105AC000F9008346D7003307F4008507A304D70005
:105AD00093F7F70F17C7FF1F03478721E3E1E7FE9F
:105AE00085472303F400C147A303F400EFE0EFDE92
:105AF00085BD930500044E85EFF0DFD397A7FF1F08
:105B000083C7675197C6FF1F83C6461E139747007A
:105B1000FD163107E396E6E4034729010346390100
:105B200083467900518F93F6F603558FE31A07E207
:105B3000154797A6FF1F238FE64C17A5FF1F0345A8
:105B4000954D1307F00F630DE500EF10F007FD57BB
:105B500017A7FF1FA301F74C97A7FF1F83C7A74BEA
:105B60009DCF1385F7FF1375F50F55469306040176
:105B70001205018E3695A2851376F60F2E87B30790
:105B8000E60093F7F70FCA9783C7070005072309B5
:105B9000F700E396E6FEC105C106E391A5FE83C7C3
:105BA000A40123080400A30804002309F40003C689
:105BB000E1A583C5D1A503C7F1A5220683C601A629
:105BC0004D8E420783C521A6518FE20603C311A65D
:105BD00003C631A6D98EA2051397470083C81600C5
:105BE00003C8260003C5360083C741A61377F70F05
:105BF000B3E5650093160601CD8E1306D700E207C4
:105C0000D58F4D079376F60F2380E700A380170109
:105C100023810701A381A70023820700A382D70065
:105C20002303D400EFE06FCB25BBD1454E85EFF0C9
:105C30007FC0E35D05D62DB3930500044E85EFF0DC
:105C40007FBFE34F05D097C7FF1F83C7170AE399AC
:105C500007D0954717A7FF1F230EF73A17A5FF1F79
:105C60000345753B9307F00F6309F500EF10C0750E
:105C7000FD5717A7FF1FA300F73A83C6E1A503C688
:105C8000D1A583C7F1A5A20603C701A6D18EC2077D
:105C900003C621A6D58F620783C811A683C631A685
:105CA0005D8F220603481700034527008345370010
:105CB00083C741A63366160113970601518FE20789
:105CC000D98F19472380E700A38007012381A7000C
:105CD000A381B70023820700A3820700EFE0EFBF94
:105CE00041B1930500044E85EFF0DFB4E34A05C6E9
:105CF00097C7FF1F83C777FFE39407C6954717A78A
:105D0000FF1F2309F73017A5FF1F0345D530930761
:105D1000F00F6309F500EF10206BFD5717A7FF1F69
:105D2000A30BF72E83C6E1A503C6D1A583C7F1A5B2
:105D3000A20603C701A6D18EC20703C621A6D58F2E
:105D4000620783C631A683C511A65D8F22068348EC
:105D50001700034827000345370083C741A64D8E2F
:105D600013970601518FE207D98F59472380E70027
:105D70004147A381A700414697C5FF1F938505F7BB
:105D8000A38017012381070123820700A382E70074
:105D900013056400EF30701FEFE02FB4D1B6930508
:105DA000A0044E85EFF01FA9E34C05BA97C7FF1F6B
:105DB00083C7B7F363930714954717A7FF1F230BF8
:105DC000F72417A5FF1F034515259307F00F630957
:105DD000F500EF10605FFD5717A7FF1FA30DF72217
:105DE00083C6E1A503C6D1A583C7F1A5A20603C753
:105DF00001A6D18EC20703C621A6D58F620783C82C
:105E000011A683C631A65D8F2206034817000345FD
:105E100027008345370083C741A6336616011397D1
:105E20000601518FE207D98F1D472380E700054700
:105E3000A38007012381A700A381B7002382070065
:105E4000A382E70023030400EFE02FA911BE93050E
:105E500000044E85EFF01F9E954717A7FF1F230BE9
:105E6000F71A17A5FF1F0345151B9307F00F6309CA
:105E7000F500EF106055FD5717A7FF1FA30DF7188A
:105E800083C5E1A503C8D1A503C521A683C6F1A595
:105E9000A20583C811A603C631A603C701A6B3E5B0
:105EA00005012205C20683C741A633651501CD8EC3
:105EB00042066207558F498EE207834517008346E5
:105EC0003700D18F034627003147A382E7000347FD
:105ED000540049452380A700A380B7002381C70051
:105EE000A381D7002382070023080400A30804002D
:105EF0002303E400EFE06F9EA5B40547E392E7A615
:105F00000347890097C4FF1F83C454DE9387E4FED0
:105F100097A6FF1F2382E61093F7D70FE39207A4FB
:105F2000954717A7FF1F2307F70E17A5FF1F034568
:105F3000950E9307F00F6309F500EF10E048FD5749
:105F400017A7FF1FA309F70C97C7FF1F938787D9D0
:105F50001307940017C6FF1F130646D983C6B70060
:105F600005078507A30FD7FE83C62701A303D70024
:105F7000E316F6FE8343240183423401834F440138
:105F8000034F5401834E6401034E740103438401A3
:105F9000834894000348A4000345B4008345C4002B
:105FA0000346D4008346E4000347F400834704011A
:105FB0008349140197A0FF1F2385700697A3FF1F35
:105FC000A381530697A0FF1FA38C300597A2FF1F44
:105FD000238AF20597AFFF1FA386EF0517AFFF1FB8
:105FE0002303DF0597AEFF1FA38FCE0317AEFF1F5E
:105FF000230C6E0217A3FF1FA300130397A8FF1F14
:10600000238D080117A8FF1FA309A80017A5FF1FCC
:106010002306B50097A5FF1FA382C50017A6FF1F83
:10602000230FD6FE97A6FF1FA38BE6FE17A7FF1F21
:106030002308F7FED147639EF4000347B901834765
:10604000C90197A6FF1FA381E6FE17A7FF1F230E16
:10605000F7FC83C6E1A503C6D1A583C7F1A5A206B7
:1060600003C701A6D18EC20703C621A6D58F62073A
:1060700083C811A683C631A65D8F22060348170088
:10608000034527008345370083C741A633661601C1
:1060900013970601518FE207D98F65472380E700E8
:1060A0004D47A38007012381A700A381B700A382E6
:1060B000E7002382070085472303F40093070002CB
:1060C000A303F400C1472304F400EFE00F816FF055
:1060D0003F89EFC2FF8583C6E1A503C6D1A583C76B
:1060E000F1A5A20603C701A6D18EC207D58F62070C
:1060F00083C521A65D8F97A7FF1F9387A7F183C351
:1061000011A603C631A683C2570083CF670003CF11
:10611000770083CE870003CE970003C3A70083C810
:10612000B70003C8C7008346E700A20503C541A620
:10613000B3E5750042064D8E931585014D8E13858E
:106140001600A30257002303F701A303E70123046A
:10615000D701A304C70123056700A3051701230680
:106160000701A303A60021456388A6186375D50817
:1061700031476383E6289307400A639DF62E83C662
:10618000E1A583C5D1A583C7F1A5A20603C701A6D2
:10619000CD8EC20783C521A6D58F620703C311A682
:1061A00083C631A65D8FA20583C741A68348170029
:1061B0000348270003453700B3E565001397060140
:1061C0004D8FE207D98F45472380E7002D47A380F5
:1061D000170123810701A381A70023820700A3825F
:1061E000E70023080600834756002303F600EFD09C
:1061F000DFEE6FC02FF6638606181945639CA6264E
:106200008346A701054797A5FF1F2386D5E0638630
:10621000E60C1307360117A5FF1F130525E083C5FC
:10622000570005078507A30FB7FEE39AA7FE1307DC
:10623000360393053606930707FF2380070085077B
:10624000E39DE7FE13870701E397E5FE85472302F9
:10625000F6022309D60023080600A308060083C51A
:10626000E1A503C5D1A583C7F1A5A20503C701A672
:10627000C98DC20703C521A6CD8F620703CE11A623
:1062800083C531A65D8F920622050343170083481C
:1062900027000348370083C741A63365C50193F63D
:1062A000F60F13970501498F9385D600E207D98F22
:1062B000CD0613F7F50F2380D700A3806700238155
:1062C0001701A381070123820700A382E7002303AC
:1062D000E600EFD09FE06FC0EFE71307360117A588
:1062E000FF1F1305A5D383C5570005078507A30F17
:1062F000B7FEE39AA7FEB1BF03C821A603C5E1A577
:106300008348A70103CE11A603C3D1A583C531A637
:1063100083C6F1A52208220583C741A603C701A6AB
:106320003368C80133656500C205C206B3E50501DF
:10633000C98EE2076207CD8F558F97A5FF1F238C6B
:1063400015CD0345170083452700834637003147A5
:10635000A382E70003475600494823800701A38032
:10636000A7002381B700A381D70023820700230859
:106370000600A30806002303E600EFD01FD66FC077
:106380006FDD83C5E1A503C5D1A503C7F1A5A205AE
:1063900083C601A6C98D420703C521A64D8FE2061B
:1063A00003CE11A683C531A6D98E220503C741A607
:1063B00003C3160083C8260003C836003365C50131
:1063C00093960501C98E6207558FE9462300D700D1
:1063D000D146A300670023011701A301070123028F
:1063E0000700A302D70003C7570183C76701230C27
:1063F000E600A30CF600C5BB83C5E1A503C5D1A586
:1064000003C7F1A5A20583C601A6C98D420703C52E
:1064100021A64D8FE20603CE11A683C531A6D98EE3
:10642000220503C741A603C3160083C8260003C87C
:1064300036003365C50193960501C98E6207558FF5
:10644000CD462300D700B546A300670023011701FE
:10645000A301070123020700A302D7000547230871
:10646000E60003C75701A308E60083C767012309B5
:10647000F60095BB83C6E1A583C5D1A583C7F1A569
:10648000A20603C701A6CD8EC20783C521A6D58F5C
:10649000620703C311A683C631A65D8FA20583C719
:1064A00041A6834817000348270003453700B3E59A
:1064B0006500139706014D8FE207D98F1947238096
:1064C000E700A380170123810701A381A70023828E
:1064D0000700A38207008D472302F60029B3EFC20D
:1064E0002FC517A4FF1F130464B48346140003468A
:1064F00004000347240083473400A206D18E4207DC
:10650000558FE207FD5617A6FF1FA306D6B0D98FF9
:106510008297834654000346440003476400834740
:106520007400A206D18E4207558FE207D98F829759
:106530009305400617F5FFFF13052502EF003062B3
:106540009305800C17F5FFFF1305C50DEF003061B3
:106550009305C01217F5FFFF13056506EF003060C5
:106560006FC04FBFEFC2CFBC3971B367B50017A47E
:10657000FF1F130424AA130720132301F10093051E
:10658000803E9307304017F5FFFF13058510231059
:10659000E1002310F400EF00905C17A6FF1F130624
:1065A000E6A883469600834586000347A6008347F6
:1065B000B600A206CD8E4207558FE207A301A400C4
:1065C000D98F0A85814601468D45829721616FC02A
:1065D0006FB8EFC2EFB539719307A01417A4FF1F6E
:1065E000130444A32301A1002310F10017F5FFFFBA
:1065F0001305250A930730502310F400EF0030569E
:1066000017A6FF1F130686A28346960083458600C1
:106610000347A6008347B600A206CD8E4207558FDA
:10662000E207A301A400D98F0A85814601468D4562
:10663000829721616FC00FB2EFC28FAF834E070008
:10664000034E1700034327008348370003484700E1
:106650008347570039712E84B336D00013070014D6
:1066600093860606AA85A301C1001305A100228610
:106670002310E1002302D101A302C1012303610021
:10668000A3031101230401012301D100A304F1009C
:10669000EF30A00F930730609305803E17F5FFFFA2
:1066A000130525FF17A7FF1F2316F796EF00304BA2
:1066B00097A6FF1F83C6169897A7FF1F83C78797C4
:1066C00017A7FF1F03472797A206DD8E420797A74C
:1066D000FF1F83C75796558F9305A40097A6FF1FEA
:1066E000A38BA692E2070A85D98F8146014693F5CE
:1066F000F50F829721616FC0EFA5EFC26FA33971CB
:10670000930700142310F1009307000317A4FF1F41
:1067100013044490A301A1002301F1009305803EDE
:106720009307307017F5FFFF1305A5F62310F4004B
:10673000EF00F04217A6FF1F1306468F8346960010
:10674000834586000347A6008347B600A206CD8E88
:106750004207558FE207A301A400D98F0A8581461D
:1067600001469145829721616FC0CF9EEFC24F9C39
:106770009317850021813971C98F2312F100416778
:10678000856717A4FF1F1304E4882303B1001307D0
:10679000A714B2859387378017F5FFFF130565EFC0
:1067A0003AC02310F400A3030100EF00503B17A6EA
:1067B000FF1F1306A687834696008345860003477E
:1067C000A6008347B600A206CD8E4207558FE2078A
:1067D000A301A400D98F0A8581460146A14582976D
:1067E00021616FC02F97EFC2AF9483C7418891CBCF
:1067F0009305803E0145EFF0DFDD238201886FC005
:106800006F9541651306803E85457D158537854723
:106810002382F1886FC00F94EFC28F917971854503
:10682000116502CA02CC02CE02D002D202D402D634
:1068300002C602C8EFC09FE885451145EFC01FE8BA
:1068400037140140930700200D494C0813050480BC
:10685000231AF100E1474ACC3ECEEFC03F8D9307AB
:1068600000404C0813050480231AF10091473ECEE6
:10687000EFC0DF8B930700104C0813050480231A28
:10688000F100C1473ECE4ACCEFC05F8AF167B74402
:106890000140938707200C10138504803ED0B70772
:1068A0000C003ED402D223160102EFD00F971385BD
:1068B0000480054693055052EFD02FA80546930556
:1068C000404213850480EFD04FA793075003680020
:1068D0002316F10085473EC823070100EFC09FBC87
:1068E000138504808545EFD04FA393050010130551
:1068F0000480EFC0DF9645616FC0CF85EFC24F8344
:1069000095674111938757553EC0B70700FF3EC2B8
:10691000B707D514938737D03EC485679387177020
:10692000374401402316F1002307010093041100AE
:106930001309F10093055005130404802285EFD05C
:106940008FA3930500082285EFD02FA47DD96386FD
:10695000240183C504008504D5B741016FB09FFFB2
:10696000EFB27FFB834705002A89374501402E841B
:10697000130505808145B74A0140B284368A2387D2
:10698000F188AA89EFD02F9F930500084E85EFD09C
:10699000CF9F7DD913850A808145B74A0140EFD04A
:1069A0008F9D93890A80930500084E85EFD0EF9D57
:1069B0007DD913850A809305F00FB74A0140EFD0C7
:1069C0008F9B93890A80930500084E85EFD0EF9B3B
:1069D0007DD9B307440193F7F70F9385170013850B
:1069E0000A8093C7F7FF374B014093F5F50F93FAF1
:1069F000F70F93090B80EFD00F98930500084E8591
:106A0000EFD0AF987DD9D68513050B80B74A0140EA
:106A1000EFD06F9693890A80930500084E85EFD0DA
:106A2000CF967DD99305400D13850A80B749014063
:106A3000EFD06F9493890980930500084E85EFD0BD
:106A4000CF947DD931C0930AF4FF93FAFA0F3744FB
:106A50000140CA9A9309400D13040480834509003C
:106A60002285EFD04F91930500082285EFD0EF915A
:106A70007DD98347090013071900BE9993F9F90FCF
:106A8000630659013A89D9BF9309400D63000A048E
:106A90001309FAFF1379F90F938714003744014063
:106AA0003E991304048083C504002285EFD0AF8C87
:106AB000930500082285EFD04F8D7DD983C7040050
:106AC0008504BE9993F9F90FE39F24FDB305304186
:106AD0003745014093F5F50F13050580B744014094
:106AE000EFD06F8913840480930500082285EFD0CE
:106AF000CF897DD981451385048037440140EFD08B
:106B00008F8713040480930500082285EFD0EF8758
:106B10007DD96FB09FE3411122C6374401409305F0
:106B2000505213050480EFD00F8749E537440140E8
:106B30009305404213050480EFD0EF851DC1035734
:106B400004808357448083C7718885C31387D188A5
:106B50009387818803470700BA9723800700A383A0
:106B60000188324441017300203003C7D1889387E4
:106B700081883E97834607001387D18893F6F60FE6
:106B8000F1DA03C66188894663E6C60893866188A0
:106B900083C6060085062383D188834607000D46F9
:106BA0008506A386D18883460700E375D6FAA386B7
:106BB00001884DB713050480EFC09FFC83C771881F
:106BC000B5F703C7D188938781883E97834607002E
:106BD0001387D18893F6F60F139686016186634773
:106BE0000602834507000346070017B7FF1F130778
:106BF00067179E052E9793851600B297BA9613F7DE
:106C0000F50F2380A6002380E7000DB78547A383F7
:106C1000F18829BF83C6C18885062386D18803C62B
:106C2000C1888D46E3FBC6F623860188BDB7EFB267
:106C30003FD03744014001462A89AE8413050480C1
:106C400093055052EFC07FEF014693054042130574
:106C50000480EFC09FEE83C76188B5CB83C6C1882F
:106C60009397760017B7FF1F1307C70F3E979387B9
:106C700081882320E900B69783C707000D4723804A
:106C8000F40083C7C18885072386F18883C7C1883C
:106C9000636CF7029387618883C70700374401401C
:106CA00013050480FD170546930550522383F18890
:106CB000EFC0BFE813050480054693054042EFC0CE
:106CC000DFE705456FB01FC923860188E1B71305CB
:106CD0000480054693055052EFC03FE6130504803B
:106CE000054693054042EFC05FE501456FB09FC682
:106CF000EFB21FC441112A89AE8411A80344B10028
:106D0000B2454A852286EF205028238084009305CF
:106D1000B1006800293F7DF141016FB0BFC3EFB200
:106D20003FC1F9376FB01FC3EFB29FC00111854556
:106D3000116502C002C202C402C602C802CA02CC65
:106D4000231E0100EFC07F9985452145EFC01F97A5
:106D50003714014061498D448A85130504C0856755
:106D60002310F1004AC426C2EFC04FBC8A85130528
:106D700004C089672310F1004AC426C2EFC00FBBCC
:106D800091678A85130504C02310F10091473EC422
:106D9000EFC0CFB9E1778A85130504C02310F10055
:106DA000374400404AC426C2EFC04FB813050480E0
:106DB0008545EFC01F9EB70704013EC6930700023A
:106DC0006C00130504803ECC9D47231EF10002C8D1
:106DD00002CAEFC07F921305048005468945EFC0C3
:106DE000BF991305048005468545EFC0FF9885458A
:106DF00013050480EFC03F9605616FB0BFB5EFB2D9
:106E00009FB179712A84AE89054585453289B6845A
:106E100002C202C402C602C802CA02CC02CE02D01A
:106E200002D202D402D6EFC09F872285EFC0AF8A7C
:106E3000C1473EC6930700084C003ECC22858567BB
:106E40004EC24AC426C83ED402CA02CE02D002D2E2
:106E500002D6EFC04F9345616FB03FAFEFB2BFAB0B
:106E600079712A84AE89054585453289B68402C286
:106E700002C402C602C802CA02CC02CE02D002D2AA
:106E800002D402D6EFC0BF812285EFC0CF84930722
:106E900000083ECC930700103ECE930700404C0004
:106EA0003ED0228585674EC24AC426C83ED402C65B
:106EB00002CA02D202D6EFC00F8D45616FB0FFA8A3
:106EC000EFB27FA579712A84AE890545854532895F
:106ED000B68402C202C402C602C802CA02CC02CEF2
:106EE00002D002D202D402D6EFC06FFB2285EFB0EF
:106EF0009FFE930700084C003ECC228585674EC25A
:106F00004AC426C83ED402C602CA02CE02D002D269
:106F100002D6EFC04F8745616FB03FA3EFB25FA1CC
:106F20009387818A9C430547638DE70499CB094782
:106F30006397E7000945EFC0AF8A631305146FB08C
:106F40007FA11387418983471700034627008346A3
:106F5000370003474700D18FD58FD98F03C72182D0
:106F60006382071C9307F7FF93F7F70F2381F182E2
:106F7000639A070C854723A4F18A238101826FB0AD
:106F80007F9D37050200EFC0AF8509E50965EFC0B9
:106F90002F8555D537050200EFC06F850965EFC015
:106FA0000F8537450040814513050580EFC0AFFAD6
:106FB00003C651891347F6FF973700009387079A56
:106FC0001377F70F3E970347070083C5618983C690
:106FD00071892D8F3E970347070003C58189358F3F
:106FE000BA9783C7070093C7F7FF93F7F70F6305B7
:106FF000F51237040240130584058145EFB0BFFC4C
:10700000130584059945EFB07FFD1305840585457B
:10701000EFB07FFB130544048145EFB0DFFA1305A1
:1070200044049945EFB09FFB130544048545EFB038
:107030009FF937450040854513050580EFC0AFF146
:107040006FB05F914147E37CF7EE374500408947D9
:1070500013050580814523A4F18A3704024023816A
:107060000182EFC04FEF130584058145EFB0BFF5F6
:10707000814513054404EFB01FF5EF90B00FC1B583
:107080000945EFB0DFF697B7FF1F9387A7EE17B656
:10709000FF1F130626F6014783D607008907369798
:1070A000E31CF6FE938701898395070019839316E5
:1070B0000701C1863386B6008147634E060081CE44
:1070C00005659307F5FF6358A6006386F6002E97C3
:1070D00093170701C183239DF18883D7A18993C7A3
:1070E000F7FF239DF1883704024083D7A1899207D7
:1070F000130584008145239DF188EFB0DFEC130573
:10710000840093058004EFB07FED8545130584006E
:10711000EFB07FEB6FB01F8493178600CD8F239D58
:10712000F188C1BD9307170093F7F70F81B503D519
:10713000A189828083D7A18903D7C1896377F71496
:107140003387E74013271710134717006317070EFD
:1071500003C7E189931617001386018A97B5FF1FAD
:10716000938545E9B695104283D6050005073E96FE
:10717000158E935636002390F500939706011D8BCC
:10718000C18323A0C18ABE86238FE188239EF18814
:1071900003D7418A63F3E708B306D74093A61604E2
:1071A00093C6160081C62392F18A3E879387818118
:1071B0009443416583C7160083C60600A207D58F96
:1071C0003E974207E17741833E97931717003E971A
:1071D000A1673E9783C7E1816357A704634807040B
:1071E000131507014181A9E783D7018263F4A70C36
:1071F0003307F54042074183AA8621463685637BE3
:10720000E600130600046368E6083385F60005818E
:10721000420541812390D1828280998E93A61604E3
:1072200093C6160041B77D15E1D319A0BDCF014526
:107230002390A182238F018082801397370097B615
:10724000FF1F2399F6DA97B6FF1F2396F6DA97B653
:10725000FF1F2393F6DA97B6FF1F2390F6DA97B64F
:10726000FF1F239DF6D897B6FF1F239AF6D897B62F
:10727000FF1F2397F6D897B6FF1F2394F6D8239EB7
:10728000F188BE8623A0E18A21B71D8F132717102E
:107290001347170065BD13953600158D3E950D817A
:1072A000420541812390D182828083D701823E872B
:1072B0008146A1B73387A74042074183AA8635BFDD
:1072C0009387818183D6A1899843E177958FC207FF
:1072D000C18393D687002300F700A300D7008280E4
:1072E000411122C637140040854513050480EFC0C4
:1072F0002FF009E53244410173002030130504806A
:107300008545EFC0AFF09387C18A9C43324485071F
:1073100023A6F18A41017300203017B7FF1F13071E
:10732000E7CE81474148144313F6F70F310781CA6E
:107330008507E39A07FF1306F00F328582801397C3
:107340001700BA971397270097B7FF1F938787CB2C
:10735000BA9788C7CCC323A007003285828017B7AD
:10736000FF1F1307A7D681474148144313F6F70FB1
:10737000310781CA8507E39A07FF1306F00F3285AC
:10738000828013971700BA971397270097B7FF1FAC
:10739000938747D3BA9788C7CCC323A00700328509
:1073A0008280BD4763E1A70293171500AA978A0759
:1073B00017B5FF1F130505C53E952324050023229D
:1073C0000500232005008280BD4763E1A7029317D3
:1073D0001500AA978A0717B5FF1F1305A5CE3E957E
:1073E0002324050023220500232005008280BD47B9
:1073F00063EDA70093171500AA978A0717B5FF1F1B
:10740000130545C0AA9723A007008280EFB24FD290
:10741000371400401305048001468545EFC0AFC412
:107420009387C18A1305048005468545844317B4B4
:10743000FF1F130424BD23A6018A17B9FF1F1309D8
:1074400069C8EFC04FC2144499CA1C405840A6975F
:107450001CC03386E74063E4E70010C08296310425
:10746000E31324FF17B4FF1F1304C4C517B9FF1F8C
:10747000130949D114448DC21C405840A6971CC022
:107480003386E74063EAE70010C0829623240400B5
:1074900023220400232004003104E31D24FD6FB0E7
:1074A0006FCBEFB2EFC8F957A381F18217B4FF1F7A
:1074B000130444CD97B4FF1F9384C4CE1C40110421
:1074C00091C38297E31C94FE6FB0CFC8EFB24FC652
:1074D000938481819040834636008345260003478C
:1074E000460083475600A206CD8E4207558FE2071D
:1074F000D98FA9C303C531829307E00F630EF5024C
:10750000EFF09FEC9840170500001305C5F983457F
:107510003700834627008347470003475700A205EB
:10752000D58DC207CD8F93158701DD8DEFF03FE339
:10753000A381A1826FB00FC217B4FF1F130484C6CA
:1075400017B9FF1F130909C81C40110491C3829782
:10755000E31C24FFFD57A381F1821305F00F4DB703
:1075600097B5FF1F938505C22E8781472146144397
:10757000110799C68507E39CC7FE1305F00F8280AB
:1075800013972700BA9588C113F5F70F828097B536
:10759000FF1F938525C12E8781472146144311077C
:1075A00099C68507E39CC7FE1305F00F82801397E9
:1075B0002700BA9588C113F5F70F8280EFB24FB755
:1075C000EF90C053EF90206313050040EFB0FFFB36
:1075D0000545EF8070255145EFB0AFC6EFD0AFAC99
:1075E0001545EFB00FC6EF80B021EF90404FEF9000
:1075F000A04FEF90E068EF90D03AEF90E06F5145E8
:10760000EFB02FC4EF80F075EF80903EEF80302216
:10761000EFE0FFECEF80F04AD14517E5FFFF1305DF
:10762000E5E8EFF09FCF854517E5FFFF130585B22D
:10763000EFF0BFCE954517D5FFFF1305C50DEFF051
:10764000DFCDF94517E5FFFF13056527EFF0FFCC08
:10765000EFF0DFDBF5BF37050400EFB0BFA073002C
:107660002030252E730020308D4723A4F18C82809A
:1076700097B7FF1F83C7A7B789C7954723A4F18C86
:107680008280854723A4F18C8280EFB26FAAAA84FE
:107690002E8411458545EFC06F82B7660040ADC0AE
:1076A00083A706C441677517F98F23A0F6C4B717DF
:1076B000014003A74780B716F0FFFD16758F23A280
:1076C000E78003A7C780F9769386F67F758F23A698
:1076D000E78003A74780B7460400558F23A2E780C1
:1076E000374702408327078019C493E727002320E8
:1076F000F7806FB02FA6F59B2320F7806FB08FA582
:1077000003A706C4B7170140136727004207418348
:1077100023A0E6C403A74780B716F0FFFD16758FB8
:1077200023A2E78003A7C780F9769386F67F758F3B
:1077300023A6E78003A74780B7360300558F23A20F
:10774000E78079BF8280EFB2AF9E93858154054573
:10775000EF107078930700046307F5000545EF10FC
:10776000304F6FB02F9FEFD04FED0545EF10504ECB
:107770006FB04F9E8280EFB2AF9B9385814C1145D5
:10778000EF107075930700046307F5001145EF10C3
:10779000304C6FB02F9CEFD0CF9E1145EF10504B67
:1077A0006FB04F9BEFB2CF98138481A68345C4007E
:1077B0008346B4008347D4000347E400A205D58D77
:1077C000C207CD8F93158701DD8D0945EF10B0708D
:1077D0002305A40089650945A3070400EF10304084
:1077E0006FB04F97EFB2CF94B767004083A707C53C
:1077F000373700204907C207C183BA9786079C43E1
:107800001307000293F7F73F639BE70083C711A7B5
:1078100099E703C7D1A683C7C1A66309F7009305FB
:1078200000020945EF1030376FB0CF920146814515
:1078300013052008EF105067C5BFEFB26F8F138498
:10784000C1A48345C4008346B4008347D4000347E2
:10785000E400A205D58DC207CD8F93158701DD8D7C
:107860000D45EF1050672305A40089650D45A3075A
:107870000400EF10D0366FB0EF8DEFB26F8BB767AB
:10788000004083A707C5373700206907C207C183B7
:10789000BA9786079C431307000293F7F73F639B51
:1078A000E70083C751A599E703C711A583C701A5C1
:1078B0006309F700930500020D45EF10D02D6FB05E
:1078C0006F890146814513053008EF10F05DC5BF93
:1078D000EFB20F8609472E84B284630EE506637CFF
:1078E000A7020D476305E5041147631FE502EF108A
:1078F000F034930700036309F5022686A285130579
:107900004008EF10705A930500031145EF10B0289E
:1079100001456FB02F8405476318E500EF10103262
:1079200093070003631DF50405456FB0AF82EF10A8
:10793000F03093070003E309F5FE2686A2851305C0
:107940003008EF107056930500030D45EF10B0247A
:1079500001456FB02F80EF10702E93070003E305F1
:10796000F5FC2686A28513052008EF10F053930539
:1079700000030945EF10302201456FA0BFFD2686A8
:10798000A28513051008EF1030529305000305453A
:10799000EF10702001456FA0FFFBEFA27FF9376861
:1079A0000040832708C541671305F7FFB73600205D
:1079B000E98F9906B69786079043130707C083D5CA
:1079C000018B718F0111630CB700832708C593F5F4
:1079D00005C0E98FB69786079843D98D8CC3B766E3
:1079E000004003A746C483D7418E1384C18B239ED6
:1079F000E18A03D7C18B7D8F1377072019CB4167AD
:107A00001307F7DF23A2E6C403C7218B05072389E9
:107A1000E18A035704007D8F42074187634F070CBB
:107A2000035704007D8F1377074005C39787FF1F17
:107A300093874768D843C1679387F7BFB76600400D
:107A400023A2F6C4029783D7418E035704007D8F8B
:107A50009316270163CA0606035704007D8F931609
:107A6000370163C00608035704007D8F9316470152
:107A700063D106029387C1839C43C9C7EF00007599
:107A8000BD679387F77F376700402322F7C483D70A
:107A9000418E03570400F98F93F707109DC3416788
:107AA000B76700409306F7EF23A2D7C483A687C425
:107AB00013960601634C060423AA018A1D45EF00B4
:107AC000807C05616FA01FE93967B76600407D17AC
:107AD00023A2E6C4035704007D8F93163701E3D435
:107AE00006F8BD67FD17376700402322F7C401453C
:107AF000EF00607983D7418EBDB7EF10003B83D78D
:107B0000418E39BF0945EF0000789DBF1386418B38
:107B100014428D45850623AAD18A1442E3F0D5FA92
:107B200083A607C47D17A18AD1FA03A607C42145FD
:107B3000938707C0798E23ACC18A8C4313962600A5
:107B400000102296F98D2320B6FE85069107E39654
:107B5000A6FE9386818B9042B7650040B7670040D0
:107B60001366160023ACC18A9042798E23A0C5C447
:107B70009042799A23ACC18A9442758F23A0E5C4C0
:107B800003A747C41377074065DF41671307F7BFB3
:107B9000416623A2E7C47D16938707C00147A1452C
:107BA000931627000810AA9683A606FE91070507DC
:107BB000F18E23AED7FEE315B7FEFDBD97A7FF1FDD
:107BC00083C7E76281C7954723A4F18C82809147E0
:107BD00023A4F18C8280828091E5854733B5A7008C
:107BE000060582800945828011C51785FF1F130590
:107BF000256682809387818D9C431D472398E700EB
:107C00008280EFA2FFD2EFF03FFE6FA0BFD4EFA2C1
:107C10003FD29384818D984085468347070093F730
:107C2000F707638BD7029306100209456394D702C6
:107C3000834617006386F60493070002639CF600F0
:107C400017040000130424FC00CF2319070001458A
:107C5000029401456FA01FD083472700930620029E
:107C60006385D702930610020945E395D7FE1704F2
:107C700000001304C44F00CF014502949840E9B7B7
:107C800017040000130484F6C1B71704000013049E
:107C9000E44AD5B79387818D984393061002014536
:107CA000834707000347170093F7F7076383D7005D
:107CB00082801307E7FD1377F70F05453335E5009D
:107CC00006058280EFA2DFC69387818D9C432385C2
:107CD0000700C129B7650040B767004085669387F4
:107CE00007C09386F6F0138605C298439107758FF7
:107CF00023AEE7FEE39BC7FE9307F00F23A2F5C474
:107D0000EF1090188145014523A4018CEFF0FF97F7
:107D10005145EFA01FD385450545EFF01F976FA094
:107D20007FC3EFA2FFC09387818D179700001307D1
:107D3000A73A9C4303477700014523950700A38496
:107D4000E700EF104062930500200145EF10A062AC
:107D5000C1450145EF102064930500050145EF1072
:107D6000207F930500060145EF10807C0145EF1050
:107D700020759785FF1F83C5A5360145EF10300597
:107D80000145EF10E06CB766004003A606C0C1676E
:107D90001387F7FF9317160163DF070083A706C059
:107DA000F98F05671307F7F0F98F31671307070895
:107DB000D98F23A0F6C037670040832707C093F709
:107DC000070485C3832707C0C166FD16F58F856646
:107DD0009386F6F0F58FA1669386060CD58F232047
:107DE000F7C0930500600545EF10E05893050002C9
:107DF0000545EF10405A930500070545EF10407305
:107E00009305000B0545EF10A0749305000405458C
:107E1000EF10E07B8D650545EF10605C3767004033
:107E2000832747C093F7070485C3832747C0C166EC
:107E3000FD16F58F85669386F6F0F58FA16693861D
:107E4000060CD58F2322F7C0B766004003A646C0B4
:107E5000C1671387F7FF9317160163DF070083A736
:107E600046C0F98F05671307F7F0F98F31671307DD
:107E70000708D98F23A2F6C081450945EF10A04F0E
:107E8000930500020945EF1000519305000D0945C7
:107E9000EF10006A9305000F0945EF10606B930522
:107EA00000020945EF10A0728D650945EF102053BF
:107EB000B766004003A686C0C1671387F7FF931714
:107EC000160163DF070083A786C0F98F05671307D4
:107ED000F7F0F98F316713070708D98F23A4F6C08D
:107EE00037670040832787C093F7070485C383273C
:107EF00087C0C166FD16F58F85669386F6F0F58F0F
:107F0000A1669386060CD58F2324F7C081450D45C5
:107F1000EF106046930500020D45EF10C047930532
:107F200000110D45EF10C060930500130D45EF10D3
:107F30002062930500020D45EF1060698D650D45C7
:107F4000EF10E049B766004003A6C6C0C1671387BB
:107F5000F7FF9317160163DF070083A7C6C0F98FE9
:107F600005671307F7F0F98F316713070708D98FF3
:107F700023A6F6C0376700408327C7C093F70704DE
:107F800085C38327C7C0C166FD16F58F85669386B6
:107F9000F6F0F58FA1669386060CD58F2326F7C0E1
:107FA000930500601145EF10003D93050002114557
:107FB000EF10603E930500171145EF1060579305D1
:107FC000001B1145EF10C058930500041145EF1038
:107FD00000608D651145EF108040376700408327B2
:107FE00007C193F7070485C3832707C1C166FD1640
:107FF000F58F85669386F6F0F58FA1669386060C5D
:10800000D58F2328F7C0B766004003A606C1C16715
:108010001387F7FF9317160163DF070083A706C1D5
:10802000F98F05671307F7F0F98F31671307070812
:10803000D98F23A8F6C00145EF009062854723A49D
:10804000F18C6FA03F91EFA2BF8E93850183EF006B
:10805000807F6FA03F90EFA2BF8D93858182EF005C
:10806000807E6FA03F8F9387818D9C43A14683C5FF
:10807000370083D7470063EFB608EFA27F8B9306E4
:1080800000412A86139755006388D70863F9F602E2
:10809000856693854690638AB70093864610638C05
:1080A000D704930640416388D7029785FF1F9385C5
:1080B0006504BA953285EF0000796FA0BF899306F9
:1080C0008040638BD7049306C0406386D700930635
:1080D0004040E39CD7FC9787FF1F9387A701B38598
:1080E000E70083D64501F9D693050701BE95328591
:1080F000EF006075D9B79787FF1F9387A7FFB385F8
:10810000E70083D6C501C5DA93058701BE95EF0068
:10811000807365B7014582809787FF1F938787FD2E
:10812000B385E70083D6C500D1D693058700BE95F9
:108130003285EF00407151B79387818D9843854711
:1081400083455700F11513F7F50F63F4E700014578
:108150008280EFA2EFFD9787FF1F9387A70B8E0505
:10816000BE95EF00406E6FA0EFFE9387818D984320
:10817000854783455700F11513F7F50F63F4E700C2
:1081800001458280EFA2CFFA9787FF1F938787F57B
:108190008E05BE95EF00206B6FA0CFFB82808280A2
:1081A0008280B7670040054723A0E7C423A007C427
:1081B000096723A207C4130707C02392E18E09674A
:1081C000130707C023A0E7C401458280EFA24FF642
:1081D00037660040832806C44165130606C0C208FE
:1081E00093D80801814797A5FF1F9385A5FD7D15AD
:1081F00021481442139727002E97E98E14C3850750
:108200001106E39807FF13F8E8FFB767004013E78C
:108210000840420823A0E7C493E818401358080117
:1082200023A017C51367084023A0E7C403A747C4CA
:108230001377074065DF41671307F7BF416623A245
:10824000E7C47D16938707C0014721459316270091
:10825000AE96944291070507F18E23AED7FEE31741
:10826000A7FE3767004013688840232007C583278F
:1082700007C4C207C18393E747002320F7C4EFF088
:10828000AFBE6FA02FED9D476304F50023A0A18C26
:108290009386018C9C4215476362F70EEFA24FE96B
:1082A000171700001307877B8A07BA979C43BA9772
:1082B000828737670040832707C4C207C18393E7DB
:1082C00007012320F7C4954723A0F18CA9472382F7
:1082D000F18C6FA02FE883C74600FD172382F18C35
