:042800006F70E035E0
:102804000028000000000000C03B0000C43B0000A2
:10281400000000005C9B00000000000000000000BD
:102824005C9B00005C9B00000000000000000000B6
:102834005C9B0000000000005C9B000000000000A6
:102844005C9B00005C9B00005C9B00005C9B0000A8
:102854005C9B00005C9B00005C9B00005C9B000098
:102864005C9B00005C9B00005C9B00005C9B000088
:102874005C9B00005C9B00005C9B00005C9B000078
:102884005C9B00005C9B00005C9B00005C9B000068
:10289400E67B00005C9B00005C9B00005C9B0000EE
:1028A4005C9B00005C9B00005C9B00005C9B000048
:1028B4005C9B00005C9B0000247700005C9B000094
:1028C4005C9B00005C9B00005C9B00005C9B000028
:1028D4005C9B0000C66E00005C9B00005C9B0000DB
:1028E4005C9B00005C9B0000DA7B00005C9B0000AA
:0C28F4005C9B00005C9B00005C9B0000F3
:10290000397101436EC619A0397141536AC866CA4C
:1029100062CC5ECE19A0397101535AD056D252D42E
:102920004ED64AD826DA22DC06DE330161408282A6
:1029300041114AC026C222C406C68282B24D41015C
:10294000024D924C224CB24B4101024B924A224A18
:10295000B2494101024992442244B240410182807D
:102960002A8309CA83830500230073007D160503AB
:1029700085056DFA828015C22A8385466367B50096
:10298000FD561307F6FF3A93BA958383050023009B
:1029900073007D163693B6956DFA82802A8311C630
:1029A0002300B3007D16050365FE8280B7F700E0C3
:1029B000D8438146799BD8C303C721863306A70233
:1029C00037F700E090CBD4CB944393E6060194C351
:1029D000944393E6160294C35C43858BF5DF1C4356
:1029E000F99B1CC38280B7F700E0D8438146799BEE
:1029F000D8C303D701863306A70237F700E090CB90
:102A0000D4CB944393E6060194C3944393E6160211
:102A100094C35C43858BF5DF1C43F99B1CC3828008
:102A20009C4103A88501D04DD4415841B3E707012B
:102A3000D18F3706F1E0A2061306F6EF718FD58F1E
:102A4000D98F5CC1D0459C4994451845D18F37F644
:102A5000F1FF86061306D67F718FD58FD98F1CC5DF
:102A600083C745015855B70610FFFD1793F7F70FB9
:102A7000FD16758FD207D98F5CD582801C4589C51C
:102A800093E717001CC58280F99B1CC582801C45FA
:102A900089C593E707101CC5828093F7F7EF1CC523
:102AA00082801C4593E787001CC5828008450D8104
:102AB000058982801C4593E747001CC58280084534
:102AC0000981058982801C4591C537075000D98F3F
:102AD0001CC582803707B0FF7D17F98F1CC5828027
:102AE000A54763F7B704938765FF139717003E97D1
:102AF0000328C5009D47B397E70093C7F7FFB3F7D7
:102B00000701B396E600DD8E54C5994763E5C70417
:102B10007D16931726003E965859FD47B397C70078
:102B200093C7F7FFF98F3396C5005D8E50D9828029
:102B300013971500032805012E979D47B397E700CB
:102B400093C7F7FFB3F70701B396E600DD8E14C90C
:102B50009947E3FFC7FAB14763E2C70265169317C7
:102B600026001459B2977D473317F7001347F7FF34
:102B7000758FB397F500D98F1CD982804D16131726
:102B8000260054553297FD47B397E70093C7F7FFE8
:102B9000F58FB395E500DD8D4CD582805C4191C504
:102BA00037070004D98F5CC18280370700FC7D178E
:102BB000F98F5CC18280011123030100034761008A
:102BC000A54763E5E70425461C4593E787001CC538
:102BD0001C45A18BF5FF1C4593E747001CC51C4510
:102BE000918BF5FF744583476100034761008607B9
:102BF00005071377F70F2303E100938707020347C5
:102C000061008A972396D7FEE370E6FC2303010058
:102C100003476100A54763EAE70A2146A545A303E8
:102C20000100834771006367F6080347710083471B
:102C300071000607850786071307070293870702B7
:102C40000A978A970357C7FE83D7C7FE63F9E7043D
:102C5000834771008607938707028A9783D7C7FE49
:102C60002314F1000347710083467100834771000C
:102C700005070607130707020A970358C7FE8507CB
:102C800013971600035581001307070286070A975A
:102C900093870702231607FF8A972396A7FE834789
:102CA0007100850793F7F70FA303F10083477100C5
:102CB000E37DF6F683476100850793F7F70F23035B
:102CC000F10083476100E3FCF5F4231401002315B0
:102CD00001002303010003476100954763ECE7040B
:102CE00093060060154625A88347610003578100BD
:102CF00089078607938707028A9783D7C7FEBA9703
:102D0000C207C1832314F10083476100850793F74D
:102D1000F70F2303F10083476100636DF6008347DB
:102D2000610089078607938707028A9783D7C7FEC2
:102D3000E3FCF6FA834761006385071003578100BF
:102D4000834561008357810003466100834661002B
:102D50003347B702B3E7C7028607B3C7D702BA97AC
:102D6000C207C1832314F100034761009947998F7B
:102D700093F7F70FA303F10083477100F5C30347EF
:102D80006100954763EEE70295468347610003576C
:102D9000A10089078607938707028A9783D7C7FE12
:102DA000BA97C207C1832315F100834761008507E5
:102DB00093F7F70F2303F10083476100E3F7F6FC75
:102DC0000357A100834571008357A100034671009A
:102DD000834671003347B702B3E7C7028607B3C71C
:102DE000D702BA97C207C1832315F10003558100AA
:102DF0008355A100835781000356A1008566130700
:102E0000004093860680B307F7403386C640098F9B
:102E10008D8EC2074206C18741864207C206B2971D
:102E2000C1864187369793D6F7011355F701B697B8
:102E30003A95858B0585958F3E95420541850561BF
:102E40008280930700402314F100034761009947F3
:102E5000998F93F7F70FA303F1008347710085F370
:102E60008567938707802315F10049B71C414167A7
:102E70007917F98F1CC12320050023220500232484
:102E80000500B70702402326050013878700630467
:102E9000E5041387C701630BE50213870703630784
:102EA000E50413874704630AE5041387870563096C
:102EB000E5021387C7066307E5041387070863095C
:102EC000E504138747096308E5008280D843136748
:102ED000070FD8C38280D8431367F700D8C3828016
:102EE000D843B7060F00558FD8C38280D843856674
:102EF000938606F0558FD8C38280D843BD66558F20
:102F0000D8C38280D843B706F000558FD8C38280DB
:102F1000D843B706000F558FD8C3828090519C4587
:102F20009449D84983A88501D18FD58FD04DD451EC
:102F3000D98FB3E71701184103A88502D18FD58F28
:102F4000E176BD06D045758FB3E707019441D98F6F
:102F50001CC1DC4150C114C55CC582801C4189C5BF
:102F600093E717001CC1828041677917F98F1CC154
:102F700082804CC18280B70702409C437D8D3335EF
:102F8000A0008280B7070240C8C3828058410C412C
:102F90000328C500B7060140938706403E9713C635
:102FA000F5FF6303080483A8064003288500414316
:102FB000B3F8C80023A01641D443F18ED4C3144300
:102FC000CD8E14C3184190479346F7FF758E90C776
:102FD000D047F18ED4C7630D68003E988327080060
:102FE0005D8F2320E80082801C43F18F1CC3828008
:102FF0009447D98E94C7D447558FD8C78280B707D6
:10300000014023AAA7408280B7066745B727024040
:10301000938636123797EFCDD4C31307B79AD8C328
:10302000D4D3D8D38280372702401C4BA166D58FDA
:103030001CCB8280B7270240984BB706020013755D
:1030400005F0558F98CBC8CB944B3727024093E6B9
:10305000060494CB5C47858BF5FF1C4B8176FD16EF
:10306000F58F1CCB8280372702401C4BC16613753D
:1030700005F0D58F1CCB5C47858BF5FF37270240C9
:103080005C47898BF5FFAE86158D93850510372734
:1030900002409042B387A600910690C35C47898B9B
:1030A000F5FFE398B6FE1C4B37062000B72602401A
:1030B000D18F1CCBDC46858BF5FF9C4A41777D1771
:1030C000F98F9CCA828003A8850093770801137E3C
:1030D000F80081C7DC41336EFE00B7270240985BE1
:1030E000B707000FF98FE9EB8547A381F186B71782
:1030F0000140630AF50C83D6050093F7F60FB5E39C
:103100009307F00F63FED70403234500014785486A
:10311000930E8002130F8004A14521A00507630FC1
:10312000B70293078700B397F80033F6D700E39709
:10313000C7FE6301D80B6313E8011CC913162700EF
:10314000BD47B397C70093C7F7FF33F36700331644
:10315000CE00336366000507E315B7FC2322650044
:1031600082800323050081478548930E8002BD4F6E
:10317000130F8004A14521A08507638CB702339704
:10318000F8003376D700E319C7FE6304D80763134A
:10319000E80118C9139727003396EF001346F6FF8E
:1031A000337366003317EE00336367008507E398D7
:1031B000B7FC23206500A9B7B7170140E31DF5F25E
:1031C00083C731868DDB83D60500B5822390D50079
:1031D000C9FA8280131627005CC9BD47B397C700A0
:1031E00093C7F7FF33F367003316CE0033636600EF
:1031F0009DB758C9139727003396EF001346F6FF83
:10320000337366003317EE003363670045B7B717B3
:1032100001406307F5001C45FD8D3335B000828009
:1032200083C73186EDDB1C45B581FD8D3335B0009C
:103230008280B71701406304F5000CC9828083C700
:103240003186E5DFB5810CC98280B7170140630480
:10325000F5004CC9828083C73186E5DFB5814CC952
:103260008280EFF2EFEC8357450001112A84680059
:10327000939407012E89052ED24737470F00130775
:10328000072433D7E702C18093F404FCC204C18051
:103290000326090061651305056A93150701C181BD
:1032A000CD8C2312940083560400C206C182F99A81
:1032B000C206C1822310D4006363C5060606B3D7D5
:1032C000C702114793960701C18263E0E60A8505AC
:1032D000C205C181C207C1832310B402231EF400BA
:1032E00083570400835649008355A90093E71700CC
:1032F0002310F400835704000357C90003568900C4
:10330000C207C183CD8E93F757BFD58F2310F4002A
:10331000B367C7002314F40005616FF0AFE3835572
:103320006900B166FD166384D50493161600B29643
:103330008E06B296B3D7D7029166C207C183D58FE6
:103340009396470199E293E717009306C01233075B
:10335000D702A166D58F9306803E3347D702050773
:10336000420741832310E40295BF91478DB793161E
:103370001600B296B3D7D702C207C183D1B783571D
:10338000050091C593E717002310F5008280C2075E
:10339000C183F99BC207C1832310F5008280835744
:1033A000050091C593E707102310F5008280C2073E
:1033B000C18393F7F7EFC207C1832310F500828022
:1033C0008357050091C593E707202310F5008280FD
:1033D000C207C18393F7F7DFC207C1832310F5004B
:1033E00082808357050091C593E707402310F500BD
:1033F0008280C207C18393F7F7BFC207C18323103E
:10340000F50082802318B500828093F7E50F19C27A
:1034100093E715002318F50082808357050091C5B6
:103420002167D98F2310F5008280C607C58323103A
:10343000F5008280035745018357850113950701E5
:10344000598D6D8D220521810D8D133515008280DA
:10345000411102C402C693D7C5012AC63EC4A24781
:10346000A205A18199CBB247D1073EC6B247884396
:1034700041016D8D3335A0008280B247C181E107E3
:103480003EC6B247884341016D8D3335A00082802E
:103490009387418698430346050015EB8347250033
:1034A00037E700E09207329793F7F70F2300F740D2
:1034B00054410547935756003317C70085CE93876D
:1034C00007048A07B7E600E0B69798C3828098435E
:1034D00085466309D7028C430947638EE504984308
:1034E0008D466300D70498439147E313F7FC834765
:1034F00015007DB7938707068A07B7E600E0B69701
:1035000098C3828083472500834615009207638015
:10351000E60437E700E093F7F70F32972300F74010
:1035200041BF83461500834725006365D7028606A1
:10353000B6979207F9BF034715008347250063FF3D
:10354000E60079170A07BA9793F7F70F920793E700
:1035500007F8C1B7F1168606B697FDB70A07BA97FE
:10356000920745BFB7160240DC4271771307F77F19
:10357000F98F0E055D8DC8C28280B7170240D8430F
:10358000B70640FFFD16758FD8C3D8435A05598D2D
:10359000C8C38280B7160240DC4251777D17F98F8D
:1035A000C98FDCC28280B7160240DC42214613F785
:1035B000C700B7177A00938707206302C7061CC1AC
:1035C00037160240584297D6FF1F9386A6A3118351
:1035D0003D8B369703470700B3D7E7005CC15842DD
:1035E00021831D8B36970347070033D7E70018C5A3
:1035F00058422D831D8BBA9603C7060097D6FF1F2E
:10360000938646C6B3D7E7005CC5584239830D8B15
:10361000369703470700B3D7E7021CC98280DC4214
:10362000D8424166C983BD8B8907C546718F638EB9
:10363000D70211EF3747024003270780418B19CF8C
:1036400037177A0013070720B387E7028DBF3717B4
:1036500002405843B7060200758F7DD337173D00EF
:1036600013070790B387E70299BFC9476DF3D9B72E
:1036700099C5371702405C4BC98F5CCB8280B71766
:103680000240D84B1345F5FF798DC8CB828099C590
:10369000371702401C4FC98F1CCF8280B7170240DA
:1036A000984F1345F5FF798D88CF828099C53717DC
:1036B00002405C4FC98F5CCF8280B7170240D84F61
:1036C0001345F5FF798DC8CF828003D6250083D7B7
:1036D000050083D6450003D7650083D88500D18FC8
:1036E00003D8A500D58FD98F83D6C500B3E71701BE
:1036F0000357050003D6E500B3E70701D58F8D66B4
:1037000093860604758FD18FD98F2310F5008357C8
:10371000C5017D7783D605011307F77FF98F231E37
:10372000F5002318D50082808357050091C593E7E3
:1037300007042310F5008280C207C18393F7F7FBCB
:10374000C207C1832310F50082808357450009C654
:10375000CD8F2312F500828093C5F5FFED8F2312E4
:10376000F50082808357450091C593E747002312F7
:10377000F5008280C207C183ED9BC207C18323127B
:10378000F50082808357050037370140130707C0D3
:10379000C20783D6050003D6450003D86500C18360
:1037A0006307E504370700406300E502130707409D
:1037B000630CE50037170040930807806306150186
:1037C000130707C06317E50003D7250093F7F7F841
:1037D000D98F93F7F7CFB3E707012310F50023162E
:1037E000C5022314D5028547231AF500828003D72A
:1037F000250093F7F7F8D98F93F7F7CFB3E70701D1
:103800002310F5002316C5022314D50283C78500B3
:103810002318F5028547231AF50082808357050097
:1038200091C593E717002310F5008280C207C1837A
:10383000F99BC207C1832310F50082808357C5001E
:1038400009C6CD8F2316F500828093C5F5FFED8F55
:103850002316F50082808357C50009C6DD8D231627
:10386000B500828093C5F5FFED8F2316F5008280A9
:1038700083578500C207C183E19BC207C18323141C
:10388000F50082802314B502231AC5008280835775
:103890000500C207C18393F7F7F8CD8F2310F50019
:1038A000828083578501C207C183DD9BCD8F231C96
:1038B000F50082808357C501C207C183DD9BCD8F90
:1038C000231EF50082808357C5017D771307F77F9C
:1038D000F98FA205CD8FC207C183231EF500828018
:1038E00083570502C207C183F59BCD8F2310F502D4
:1038F000828083570502A205C207C18393F7F7DFD1
:10390000CD8FC207C1832310F50282808357050241
:1039100079777D17F98FB205CD8FC207C183231048
:10392000F5028280035705028547B397B70093C716
:10393000F7FF7D8F2310E502835705023316B6008B
:10394000D18FC207C1832310F5028280035705027D
:103950008547B397B70093C7F7FFF98F2310F50298
:1039600093F775FF610595C3F115C205C181858186
:10397000AA959C4165777D17F98F9CC19C412206D1
:10398000420641825D8E90C182808581AA959C41CC
:1039900093F7F7F89CC19C415D8E90C182802316FD
:1039A000B5028280231AB5028280231EB50282806E
:1039B0002310B504828083570500C207C18393F7A3
:1039C000F7CFC207C1832310F50083570500CD8FC1
:1039D0002310F5008280835705010355C500ED8F44
:1039E0004205418189C76D8D3335A0008280014534
:1039F000828093C5F5FFC205C1812318B50082807E
:103A0000EFE21FF30357050183D76500F576FD1636
:103A1000758FD98F03D7C5002318F5008356C500CD
:103A200083D745007D762A841306369F03D585000B
:103A3000F18EAE8483D5A500D58FC98FCD8F231687
:103A4000F4008357440101116800C207C18393F752
:103A5000F7CFD98F231AF400B936B74701409387BF
:103A60000780630BF40852468356C4009317160070
:103A7000B297C2068E07C1869840B29763C006040B
:103A80000A07B3D7E702930640060356C40042066E
:103A9000418633D7D702B3F7D70212076340060433
:103AA000920793872703B3D7D702BD8BD98FC2075D
:103AB000C1832314F40005616FE0DFE90607B3D783
:103AC000E702930640060356C4004206418633D7F8
:103AD000D702B3F7D7021207E35406FC8E07938789
:103AE0002703B3D7D7029D8BD98FC207C183231475
:103AF000F40005616FE01FE66246BDB78357C5005D
:103B000091C50967D98F2316F500828079777D17D3
:103B1000F98F2316F500828093F7F50F05479583FB
:103B2000B315B7006384E702894613074501638C28
:103B3000D7001C4301C6CD8F1CC3828093C5F5FFFF
:103B4000FD8D0CC3828013070501E5B71307C5007F
:103B5000CDB793F5F51F2312B500828003554500BC
:103B60001375F51F8280035505006D8D3335A00058
:103B7000828093F6F50F054695822A87B317B60023
:103B8000638BC60209466383C6028356450133F53B
:103B9000F60083570700C207C18301C9A181054709
:103BA0003317B700F98F3335F00082808356050153
:103BB00033F5F600F9BF8356C50033F5F600D1BFE3
:103BC0007300203001A0EFE2BFD603A7418E9547D6
:103BD0002A84630AF70083474500A3040500A30273
:103BE000F5006FE03FD703457500EF50D04C9307C9
:103BF0000002E318F5FE83455400834744006385C3
:103C0000F50663F6F506034784008D8F93F7F70FEB
:103C10009374F70F63E7E704834614000346040038
:103C20000347240083473400A206D18E4207558FF4
:103C3000E207D98F2686BE95138501B4EFE05FD2E7
:103C400083475400268603457400BE9493F4F4071A
:103C5000A3029400938501B4EF400021A304040063
:103C600049B793F4F70F4DBF83479400BDDB93072B
:103C700000F851BFEFE2DFCB03A7418E9547034623
:103C800045002A846308F700A302C500A3040500C9
:103C90006FE05FCC83461500034724000345050011
:103CA00083473400A206C98E4207558FE207D98F99
:103CB000130716002302E400B2972380B70083475E
:103CC0004400834654001397870161871347F7FF29
:103CD0007D87F98F2302F400E39CF6FA8547A3045D
:103CE000F4002285CD3583479400E5FF6FE09FC641
:103CF000EFE21FC41384819083A6418E154783474A
:103D000044006388E600A302F400A38801906FE0FA
:103D10007FC41840938617002302D400BA972380EB
:103D2000A7008347440083465400139787016187A7
:103D30001347F7FF7D87F98F2302F400E399F6FC20
:103D40008547A304F4002285BD3D83479400E5FF29
:103D50006FE05FC0EFE23FBC93874192C04B03C965
:103D600087019C4B1357840062093369E900A183E2
:103D70001306F00381456204130519005D8CEFE022
:103D8000FFC183461400054781552301D90003462E
:103D900024002302E900834744002300B900A30064
:103DA000C9002303E900A302F9009305000F638211
:103DB000B72663EBF52051476388E72E637AF71443
:103DC000130720086398E7220347740083466400C2
:103DD0000346540081450545EF10F0160347740073
:103DE000834664000346540085450545EF10B01531
:103DF0000347740083466400034654008945054523
:103E0000EF1070140347A400834694000346840017
:103E10008D450545EF1030130347A40083469400F9
:103E20000346840091450545EF10F0110347A400B7
:103E3000834694000346840095450545EF10B01075
:103E40001309B400994493091002034729008346DB
:103E5000190003460900A6858504054593F4F40F6F
:103E6000EF10700E0D09E39234FF0347B40B834645
:103E7000A40B0346940B81450145EF10D00C03477A
:103E8000B40B8346A40B0346940B85450145EF1004
:103E9000900B0347B40B8346A40B0346940B894550
:103EA0000145EF10500A0347840B8346740B034609
:103EB000640B8D450145EF1010090347840B8346C1
:103EC000740B0346640B91450145EF10D00703477F
:103ED000840B8346740B0346640B95450145EF1034
:103EE00090061304340B994413091002034724006D
:103EF0008346140003460400A6858504014593F417
:103F0000F40FEF1050047514E39224FF6FE0FFA349
:103F100041476384E71A4547639EE70C8345540095
:103F2000034764000945A303B9002304E90095454C
:103F300013077900B2968506B697AE978507A30159
:103F4000B90093F7F70F3306A7008346070005076C
:103F5000B69793F7F70FE31AE6FE9305000E4A951E
:103F6000A303F500138541923133054485449389B9
:103F7000419219A801338347390005041374F40FE3
:103F80009107A28463CE8702CA9483C504004E853C
:103F90009387050393F7F70EF1FF9305000DD939C9
:103FA00083C504004E850504FD1593F5F50FD93141
:103FB000834739001374F40FA2849107E3D687FC7A
:103FC000EF3090146FE07F989305200F638BB7124A
:103FD0009305300F6397B700A303E9002304E900BA
:103FE00029A01307100F6397E7000D4599451307A4
:103FF000790089B736967D57B2978D072302E9007D
:104000000D47A301E90093F7F70F9305000E014553
:10401000B9B717670000130767BE03450700976528
:104020000000938565BE03C3050083C8150003C85F
:104030002500A303A90003C5350083C545008343BC
:10404000170083422700834F3700034F4700834EFA
:104050005700034E670003477700230AB900FD5558
:104060002307E900A30AB9002947930500FAA3072B
:10407000E900A309A900230BB90023047900A304D4
:1040800059002305F901A305E9012306D901A30677
:10409000C90123086900A3081901230909011307AD
:1040A00079004145CD4579B5034754000545914513
:1040B000A303E90013077900B5BD81460146814598
:1040C0000545EF10C06F8146014681450145EF105F
:1040D000006F0347290083471900034649008346C0
:1040E0005900BA978D0703476900B297B697BA97F8
:1040F0000D4783450900A301E90093F7F70F014538
:10410000B9BD1307A0FAA303E90013073005230480
:10411000E900094595451307790029BD83C7818AC0
:1041200081E78547238DF1868280EFE2CFFE1387FA
:1041300081905C4B83448701238D0186A183E20437
:10414000DD8C03C654009305660093F5F50F2380BC
:10415000B400D1C11506938714001376F60F3E966E
:1041600026878147834607000507B69793F7F70F21
:10417000E31AC7FEA6952380F50013858190930569
:10418000000ECD3C01449389819009A8E53483C792
:10419000040005041374F40F63ED8702338984006F
:1041A000834509004E859387050393F7F70EF9FFC2
:1041B0009305000DC134834509004E850504FD15A6
:1041C00093F5F50F453C83C704001374F40FE3F730
:1041D00087FC6FE08FF7814771BFEFE26FF5938740
:1041E0008190C04B03C787019C4B935684006207A4
:1041F000558FA183130600083A85620481455D8CC2
:10420000EFE0CFF9834624000346140083473400CF
:104210002301D50099462300D500A300C500A301C2
:10422000F500930610082A8763E7F6029306F0026A
:1042300063F5F604938707FD93F7F70F93061005D0
:1042400063EDF602976600009386869C8A07B69710
:104250009C43B69782879306000F6388D702930624
:10426000500F639CD70083C7818A81E78547238DE0
:10427000F186EF3060696FE0EFED13060008BA8554
:1042800013850194EFE0CFEDF9BF976700009387A6
:10429000A7AC83CE070003CE170003C3270083C853
:1042A000370003C8470003C5570083C5670003C62E
:1042B000770083C68700BD472300F700A547A30208
:1042C000F7002303D701A303C70123046700A30456
:1042D000170123050701A305A7002306B700A306BE
:1042E000C7002307D70083C7818AC9D359B79D4721
:1042F0002300F500930740F92303F5008547A30247
:10430000F50083C7818ABDD3ADB7034694001387F8
:10431000C1868146914513055400EF20206391BF6B
:104320000345940093056700EF20806F99B785459A
:104330000145EF20605983C7818A8DDB1DBF814510
:104340000145EF20605883C7818AE38107F215B7E2
:10435000EF20E07E39BF03485400034564008345E5
:10436000740003468400834694000347A4009387A7
:10437000C18623800701A380A7002381B700A38102
:10438000C7002382D700A382E70083C7818AE38F17
:1043900007ECC5B5930700022302F50083C7818AA5
:1043A000E38607ECF9B59306F00F1306F00F9305BB
:1043B000F00F0945EF10A0407DB5EF20C00555BDB9
:1043C0008346740003466400834554000945EF109A
:1043D000003F83C7818AE38B07E861BD034854002F
:1043E00003456400834574000346840083469400BB
:1043F0000347A40093874187ADBF0346940013870A
:1044000041878546914513055400EF20205495B50A
:10441000EFE28FCF138441921C48834B4401034742
:10442000A400A183E20BB3EBFB0055CF370B0001D7
:104430009389B1867D1B130C000E954C930A000DD9
:10444000138AA18613090002FD545C440346B4009C
:104450008346F400B3F76701A207D18FB69783C7ED
:10446000070003C6090063828709630C560963824B
:10447000570B8345040103460A00144803474401CF
:10448000A1826207558F2E972300F700034704018E
:1044900005071377F70F2308E40063F7EC0083C6E2
:1044A0003B006D17630CD7080347A4008345F40055
:1044B000938607F3B336D0007D17B306D0403E96FF
:1044C0001377F70F8505F58F2300CA002305E40055
:1044D000A307B4002380F9002DFB0945EF50E03E0F
:1044E0000347A4003DF36FE0AFC5630C5601238A78
:1044F000019223002A01A3819B001306000281453B
:10450000ADBF85078345040103460A0093F7F70F03
:10451000ADB77D171377F70F8506930700FD23804E
:10452000F9002305E400A307D40005F30945A3859A
:104530000186EF5080390347A4006DB7638CC70232
:104540000347A4008347F400238A01927D17137761
:10455000F70F850723850186A38501862305E400DF
:10456000A307F400E31307EE0945EF5000360347B5
:10457000A4008DBFEFF00FFEE1B7EFE2EFB81384B8
:10458000819083C7818A0347A400639507161C485E
:1045900083444401938A9186A183E204DD8C4DCF4C
:1045A000370C00017D1C930C000E938B8186154DFA
:1045B000130B000D130A00FDFD5901595C4403461D
:1045C000B4008346F400B3F78701A207D18FB697F2
:1045D00083C7070003C60A00638297096309660B55
:1045E000638B670B14480347440103460401A1820F
:1045F0006207558F32972300F7000347040103C673
:104600000B0005071377F70F2308E4006377ED002D
:1046100083C604007D176304D70A0347A4008345BB
:10462000F400938607F3B336D0007D17B306D0406D
:104630003E961377F70F8505F58F2380CB00230572
:10464000E400A307B4002380FA002DFB0D45EF50D2
:10465000C0270347A4003DF36FE08FAE63096603F4
:10466000238C01907D17238034011377F70F850683
:104670002384018623802A012305E400A307D400B4
:1046800015FF0D45EF5060240347A400E9B78507E7
:1046900093F7F70F81BF7D171377F70F85062380F8
:1046A0004A012305E400A307D400E31907F00D45F0
:1046B000A3840186EF5060210347A40069BF313E07
:1046C0000347A4008347F400238C01907D171377E0
:1046D000F70F850723840186A38401862305E40060
:1046E000A307F400E31C07EC0D45EF50001E034741
:1046F000A40095B721CF0347F40037090001B74460
:1047000001407D19938404805C448346B40026856F
:10471000B3F72701A207D58FBA9783C50700EFF03B
:104720004FC3930500082685EFF0EFC37DD90347FB
:10473000F4008347A4000507FD171377F70F93F7DD
:10474000F70FA307E4002305F400DDFF0D45EF504C
:10475000C0176FE0EF9EEFE2AF9D5D39393D1385E5
:104760004192EFF04FC613858190EFF0CFC583C71C
:10477000A18799E36FE00F9EEFF03F9B6FE08F9D65
:10478000EFE20F9B9384C18003C404009307F00FF2
:104790006301F4049386C18783D706000567130776
:1047A00087388507C207C1832390F6006366F70A3E
:1047B00009496301240F636089023DC837540040F2
:1047C000B7050300850513050440EFE0BFC663107D
:1047D00005106FE02F988D47E31DF4FE3759004018
:1047E000B70507009385450813050940EFE09FC40E
:1047F0006DD1854513050940EFE09FBC83C7E18774
:104800009386D180850703C70600238FF186239EF8
:10481000018683C7E18763EDE70C238F0186FD578F
:104820002380F4009547E316F7FA2380860055B7F6
:1048300037540040B705020013050440EFE05FC1A4
:1048400049F9854513050440EFE07FB5854723808E
:10485000F400239E0186B5BF375400401305044081
:104860008545EFE09FBB130504408145EFE0FFBAAB
:10487000130504408145EFE09FB0854513050440D2
:10488000EFE0FFAF23860180238F0186239E018600
:104890006FE04F8C37540040B7050700938525081B
:1048A00013050440EFE01FB9E30505F203C7E187F4
:1048B00093870181BA9783C5070013050440EFE091
:1048C0007FB48D472380F400239E018619B703C768
:1048D000E18793870185BA9783C5070001461305D1
:1048E0000440EFE09FB223802401239E0186D5B5CA
:1048F00023860180F9BD03C7C1809307F00F6303CE
:10490000F7008280EFE2CF821384B1800345040078
:10491000239E018623860180EF20906C8145170538
:104920000000130525E6EF2070632300A4006FE06C
:104930006F821345F5FF9357650093E707FC1367F4
:1049400005FC93F7F70F1377F70FA2073181D98F83
:1049500093860181136505FC2390F6002381A60050
:1049600003C7C1809307F00F6303F7008280EFD283
:104970003FFC1384B18003450400239E01862386F7
:104980000180EF20F065814517050000130585DFE4
:10499000EF20D05C2300A4006FD0DFFBEFD25FF9E3
:1049A000056497C7FF1F9387E7D513040480228609
:1049B0003E858145EFD09FFE228683A5C181EFD041
:1049C0003FFA6FD03FF9EFD2BFF699677390078037
:1049D000371702405C4301449384C18193E7070881
:1049E0005CC313898181EFE02FE288402295EFE0DC
:1049F0006FE4832509008840A2952295EFE0AFE699
:104A000013040410EFE02FE293070480E9FF371747
:104A100002405C4393F7F7F75CC399679387870875
:104A2000739007806FD01FF3EFD29FF01384014A79
:104A30001306000481452285EFD05FF69307A0FAA4
:104A40002300F4009307101E2311F400EF207033AD
:104A50002312A400EF00F032AA8713060004A285F7
:104A600011452313F400EF3020406FD0BFEEB7F7AD
:104A7000FF1F83A6877E03A7C77E83A7077F93DFD9
:104A8000860013DF060193DE8601135E8700135351
:104A900007019358870113D8870093D5070113D6D0
:104AA0008701A301D5002301F501A300E50123003F
:104AB000D501A303E5002303C501A302650023027A
:104AC0001501A305F50023050501A304B500230482
:104AD000C500828091BFEFD2BFE51384014E03472A
:104AE00004009307A00A6304F7006FD0BFE6130623
:104AF000E00381451385214AEFD05FEA03471400A4
:104B0000834724009384014A9306A0FAA380E4001B
:104B10002380D4001307000B636AF70413978701FF
:104B200061876346070209476381E70E4147639641
:104B3000E7061385414A253F930700111306000439
:104B4000A68511452391F400EF30003279BF93C759
:104B5000070813070003636FF708175700001307D0
:104B600067208A07BA979C43BA9782871307200E5B
:104B7000638EE70A6377F7041307300E639CE7063A
:104B80009307301E13060004A68511452391F400F7
:104B9000A38F0186EF30402D89BF0547639CE70452
:104BA00083A7818183C767001307101013060004D1
:104BB000A68511452391E4002382F400EF30C02A3A
:104BC0002DB71307000E6388E7001307100E6393D9
:104BD000E702993D19BF834744001307001E239144
:104BE000E400638C072205476380E71AFD57A38121
:104BF000F400E5BDFD57130600049385014A1145F5
:104C00002391F400EF304026CDB50347440083A73D
:104C10008181130600042383E700A68593072010F3
:104C200011452391F400EF302024C1B58547A38FAF
:104C3000F186130600049307201EA68511452391D3
:104C4000F400EF30602255B5034544009307F00FA0
:104C500083488400834594000347A400630EF52A2B
:104C60009306000F034854006303D5326300F82A0B
:104C7000AE864686C285EF00102D9307001B1306F3
:104C800000049385014A11452391F400EF30C01DC3
:104C9000A9BDEF20100F2A84EF20500E93170401B6
:104CA00013170501C183D98F130600041307101AC7
:104CB0009385014A11452391E400DCC0EF30C01A0E
:104CC0002DB583A7818183C6370003C6270003C79C
:104CD000470083C75700A206D18E4207558FE207CF
:104CE000D98FDCC013060004930710199385014A7D
:104CF00011452391F400EF302017C5BB83454400D4
:104D000003465400834664000347740083A78181EF
:104D10002381B700A381C7002382D700A382E700C5
:104D200013060004930700199385014A1145239146
:104D3000F400EF30601355BB793193071018130658
:104D400000049385014A11452391F400EF30C0110E
:104D500069BBA93193070018130600049385014A23
:104D600011452391F400EF30201041B3EF20B0192A
:104D70009307001A130600049385014A11452391F5
:104D8000F400EF30600E95B383455400054593D68B
:104D9000250013D61500858A058A8589EF005022E3
:104DA000834564000D4593D6250013D61500858AEA
:104DB000058A8589EF00D02083457400154593D678
:104DC000250013D61500858A058A8589EF00501FB6
:104DD00083458400014593D6250013D61500858AA6
:104DE000058A8589EF00D01D83459400094593D637
:104DF000250013D61500858A058A8589EF00501C89
:104E00008345A400114593D6250013D61500858A45
:104E1000058A8589EF00D01AC9B903477400834613
:104E200064000346540081450545EF00D011034757
:104E3000A400834694000346840085450545EF00A1
:104E400090100347D4008346C4000346B40089454C
:104E50000545EF00500F034704018346F400034665
:104E6000E4008D450545EF00100E034734018346ED
:104E700024010346140191450545EF00D00C03477A
:104E80006401834654010346440195450545EF00FE
:104E9000900B0347940183468401034674018145C6
:104EA0000145EF00500A0347C4018346B40103469D
:104EB000A40185450145EF0010090347F40183462D
:104EC000E4010346D40189450145EF00D0070347BB
:104ED000240283461402034604028D450145EF0077
:104EE0009006034754028346440203463402914528
:104EF0000145EF00500503478402834674020346D0
:104F0000640295450145EF001004C5B62E86BA86A9
:104F1000C685EF00D00A95B33A864685EF00100AA1
:104F20008346A40003469400834584000545EF00B2
:104F300030098346A40003469400834584000D4550
:104F4000EF0010088346A4000346940083458400C4
:104F50001545EF00F0068346A40003469400834500
:104F600084000145EF00D0058346A4000346940069
:104F7000834584000945EF00B0048346A40003463E
:104F80009400834584001145EF009003FDB12E8607
:104F9000BA86C6854285EF00B002C5B183A781817C
:104FA00003C7670085476303F700828093874153F7
:104FB00013874157138841578843CC439047D447C0
:104FC00008C34CC310C754C7C1074107E39607FF86
:104FD000130600049385415705456F20F068EFD212
:104FE0009F939387415B83C6070041476386E60032
:104FF000EF2090116FD07F9503C717008D46630196
:10500000D70A63EDE60085476305F70A8947E31190
:10501000F7FE93070003A38AF154D9BF9146E31921
:10502000D7FC83C4270003C7370083C64700C204E8
:1050300093178700DD8CD58C175400001304C4DE51
:1050400005499D498346B4000346A4008345940066
:105050001305F9FFB3D6D40033D6C400B3D5B400DA
:10506000858A058A85891375F50FEF00607583467B
:10507000240003461400834504004A85B3D6D400B7
:1050800033D6C400B3D5B4000909858A058A858959
:105090001379F90FEF00C0720D04E31539FB89BFD6
:1050A000A38A0154A38601542397015423880154F1
:1050B00081B7138411820345040093070003A38A78
:1050C000F154EF20E071954517050000130545EDFB
:1050D000EF20C0682300A40021BFEFD27F8583C7E3
:1050E0004188B9E71306E002814513856158EFD086
:1050F000FF8A9387015283A8070003A847009447BB
:10510000D84783D70701938541574946054523A0D2
:10511000150123A2050194C5D8C52398F500EF20F9
:10512000B05409E585472382F18801456FD09F82FD
:1051300093874182984383C747009385415723ACA7
:10514000015623AE01561546054523A0015823A25A
:10515000015823A4015823A6015823A8015823AAC3
:10516000015823AC015823AE015823A0015A23A2B1
:10517000015A23A4015A23A6015A23A8015A98C10F
:105180002382F500EF20504E55F12382018801451E
:1051900071BFEFD2EFF983A7818183C76700094709
:1051A0006389E7020D476389E70605476387E702DE
:1051B0001384018203450400EF20E0648545170550
:1051C0000000130545FDEF20805D2300A4006FD093
:1051D0006FF8EFF03F906FD0EFF703C51182EF202B
:1051E000E06493874153138741571388415788439D
:1051F000CC439047D44708C34CC310C754C7C1071A
:105200004107E39607FF13060004938541570545C0
:10521000EF20904551FD65BF83C7318899CB753D1F
:1052200041F983C74188C5F7A3810188238101889B
:1052300079BF23820188553525FD83C7218889C719
:105240008547A381F188ADB72382018849B7EFD2A2
:105250008FEC83D7618813D7870093894153A3804C
:10526000F9002381E900A388015423990154238A7A
:10527000015497540000938464BE01443D49228543
:10528000DD2C05041374F40F19C983C7040083C609
:105290001400CE9703C7D701558FA38EE70089046A
:1052A000E31F24FD8397A18863C407006FD0EFE953
:1052B0003D45D12465DD03C7A90183C7C9010507A1
:1052C0008507238DE900238EF9006FD00FE8EFD218
:1052D0008FE483D7618893C7F7FFC207C183138721
:1052E00001888583035607009386418293D5870002
:1052F000A380F6002381B6006303F6088546238168
:10530000D18845468145138511522310F700EFD00F
:10531000EFE813890152930710032300F900975413
:1053200000009384A4B10144130A0021C149B3577A
:105330008A00858B1375F40F85E3352C33078900BC
:1053400001CD8347190003C6040083C61400D18F22
:10535000A300F9002301D70005048904E31934FDF3
:105360001145112C09E5930730032303F900254566
:10537000192401E59147A305F9006FD00FDD2381C2
:10538000018841B7EFD2CFDAD920E52A9387C188C7
:1053900083D407002390A7002A84B3479500239560
:1053A000F188EF10907BEF20C01D13878188934711
:1053B000F5FFC20783560700C1832393F1886383F7
:1053C000F6022310F700EF20205483A7818183C7C2
:1053D000670005476380E7020D47638BE700553B95
:1053E0006FD04FD72310D700E31F94FC6FD08FD618
:1053F000F93DF5B7A93DE5B793171500138741604F
:105400003E979386416283570700AA9603C606001B
:1054100086078D46D18FC207C1832310F7006381B1
:10542000D70241679306F7FF638CD7007117638338
:10543000E70091E79387415FAA9723800700828066
:105440009387415FAA9705472380E7008280EFD2C8
:105450002FCB37140140854513050480EFD0FFDEC4
:10546000B94513050480EFD0DFDC371B01409305FD
:105470000040130504C0938A4162EFD09FDB814452
:10548000214A13090BC08D49154C914C054D930BC6
:105490000B802945EFD08FD1D68D0144B3158A00FA
:1054A000C205C1814A85EFD09FD6133515002380F0
:1054B000AD000504950DE31334FF8504850A63856B
:1054C000840763823405638694036385A409914548
:1054D00013050B80EFD07FD7AD4513050B80EFD0C0
:1054E0005FD59305004013050BC0EFD09FD48944CE
:1054F0004DB74A8593050040EFD03FD5BD455E8549
:10550000EFD03FD379B713050B80A145EFD0FFD380
:1055100013050B809D45EFD0DFD1930500401305A7
:105520000BC0EFD01FD1B5B7C14513050B80EFD02D
:105530001FCE1335150093874162A387A70001444E
:10554000C144228505041374F40F7D35E31B94FEDA
:105550006FD0CFBE13050B808945EFD01FCF130549
:105560000B80B545EFD0FFCC9305004013050BC071
:10557000EFD03FCC39BF9387415FAA9703C507009F
:1055800082809386415F81470145414603C70600FB
:1055900085063317F700598D420585074181E3974A
:1055A000C7FE8280C205D18D220533E6A50097CEC5
:1055B000FF1F938EEE5B014E97C2FF1F9382C2AD19
:1055C000930FD039FD551303D0340D4FB308FE03AC
:1055D0007688154596982320C800B386A8005D47B5
:1055E000B357E600858BFD1793F7A7FB9387370723
:1055F0002380F6007D178506E314B7FE61051108C8
:10560000E31B65FC050E938ECE08E311EEFD828050
:105610001308C008330805031307D0394206A20552
:10562000558E4D8E1303D034FD55B307E50217C7D1
:10563000FF1F1307E7533A9817C7FF1F1307C7A5A4
:105640001545B388E7002320C800B386A8005D474E
:10565000B357E600858BFD1793F7A7FB93873707B2
:105660002380F6007D178506E314B7FE6105110857
:10567000E31B65FC8280EFD2AFAB13050020EFD0B7
:105680009F8F19E16FD00FAD13050002EFD0BF8ED1
:1056900075D937052000EFD01F8E6DD5130500207A
:1056A000EFD05F8E13050002EFD0DF8D37052000AD
:1056B000EFD05F8DB7040040138504408145370467
:1056C0000240EFE0AF95130504038145EFD01F8939
:1056D0001305C4018145EFD07F881305C4068145B9
:1056E000EFD0DF87130504039305D039EFD07F880F
:1056F0001305C4019305D039EFD0BF871305C40645
:105700009305D039EFD0FF861305C4018545EFD04E
:10571000FF84130504038545EFD05F841305C40699
:105720008545EFD0BF83854513850440EFE00F8F9B
:105730006FD04FA2EFD2CF9FEF20202C2D3FEFF064
:105740008F9B6FD02FA19307200263F3B700828055
:105750009308D039B3081503131835002A98939786
:1057600015000A08AE973308A84013950601C295A4
:10577000939637002206B367E5005D8E13972500E8
:1057800097C7FF1F9387C73EBA979506C69690C3E3
:1057900097C7FF1F93874790BE965D47FD55B35748
:1057A000E600858BFD1793F7A7FB938737072380C8
:1057B000F6007D178506E314B7FE8280E5B389BD48
:1057C0003336C0000606B337D000B335B000D18FF2
:1057D0008A0593860189CD8F36952300F500014611
:1057E000BD47F55503C7060085063317F700F517C3
:1057F000598EE399B7FE328523ACC1886FF06F9361
:1058000097B7FF1F83C7478181E789472384F18AC0
:1058100082808D4763F4A70617C7FF1F1307874FC2
:105820008347070083461700D58FB9E783462700D3
:105830009307F00F6392F6048347370083464700CF
:10584000BE9693F6F60F8DEAF91793F7F70FA301BB
:10585000F7006365F5020346570085059306500D72
:1058600093F5F50F631AD600034767006316B70078
:10587000139507014185828075558280715582801C
:10588000EFD20F8B9387819003C8270183C817013C
:1058900083C5370103C7470103C66701220883C6D2
:1058A000770103C3570133681801C205B3E5050149
:1058B00083C7870162074D8F22068348170003487C
:1058C000270083453700336666001397060117A447
:1058D000FF1F13042474518FE207D98F83463400CD
:1058E00019472380E700A380170123810701A381C3
:1058F000B700A38207002382A70085472300F40096
:105900009307F00F6388F6003685EF10D06FFD57D0
:10591000A301F400EFE09F806FD0CF83EFD24F81DF
:1059200017A4FF1F1304046F03453400894739711E
:105930002300F1009307F00F6307F500EF10B06C40
:10594000FD57A301F400930730209305803E17050F
:1059500000001305E5142310F400EF10506497A71E
:10596000FF1F9387A76C83C6970003C6870003C7F2
:10597000A70083C7B700A206D18E4207558FE20762
:105980002A88D98F0A85814601468545A3010401ED
:10599000829721616FC01FFCEFC29FF917A4FF1F00
:1059A00013044467034534009307401139713EC026
:1059B0009307F00F6307F500EF10F064FD57A301A4
:1059C000F40085659307301093858538170500002E
:1059D0001305050D2310F400EF10705C97A7FF1F4F
:1059E0009387C76483C6970003C6870003C7A700D1
:1059F00083C7B700A206D18E4207558FE2072A88D7
:105A0000D98F0A85814601469145A30104018297F9
:105A100021616FC03FF4EFC2BFF117A4FF1F130451
:105A2000645FB707FF01397193872753034534003B
:105A30003EC0C1472302F1009307F00F6307F50052
:105A4000EF10705CFD57A301F4009307303093050D
:105A5000803E170500001305A5042310F400EF1085
:105A6000105497A7FF1F9387675C83C6970003C6F0
:105A7000870003C7A70083C7B700A206D18E4207DD
:105A8000558FE2072A88D98F0A85814601469545B8
:105A9000A3010401829721616FC0DFEB938781909E
:105AA00003C5270183C5670103CE170103C637016C
:105AB00003C3570183C6770103C7470117A8FF1F18
:105AC0001308485583C787012205A20583480800AB
:105AD000B3E565003365C5014206C206CD8E498E29
:105AE0006207E2079545518FD58F638DB804EFC2E9
:105AF0003FE4834618001D462300C8002946636B17
:105B0000D60017460000130666378A06B2969442FE
:105B1000B296828603461700834627000347370064
:105B200099452380B700A381E7000D47A380C700F4
:105B30002381D700A38207002382E700EFE00FDE76
:105B40006FC05FE185472300F8008280034617009D
:105B500083462700034737009D452380B700A38174
:105B6000E7000547A380C7002381D70023820700F1
:105B7000A382E70023830700EFE04FDA6FC09FDDC9
:105B800003461700834627000347370099452380C3
:105B9000B700A381E7000547A380C7002381D70092
:105BA000A38207002382E700EFE04FD76FC09FDAA0
:105BB0008346A701034517008345270003463700A6
:105BC000139746001377F70F13083701350723881B
:105BD0000700A38807002389D70023800701A3803B
:105BE000A7002381B700A381C70023820700A382F7
:105BF000E700EFE0AFD2A9B783C7818AA1F3393BB1
:105C000035BF83C7818A9DFB39350DBF0346170019
:105C10008346270003473700C9452380B700A38187
:105C2000E7003147A382E7000547A380C70023812F
:105C3000D70023880700A38807002382E700EFE04E
:105C4000EFCDFDBDEFC23FCD97A7FF1F9387073E66
:105C50001384819003C8D70003CFC70003C6E700B1
:105C6000034524018345640183C7F700834E140173
:105C700083463401034E5401034774010343440136
:105C80008348840122083368E8012205A205420600
:105C90003365D501B3E5C501336606019389C18932
:105CA000C2064207E2074D8FC98E6203139888012E
:105CB00017C5FF1F13050506D18FCE85B364E80015
:105CC0003369D300238E0188829703C5090009CD6B
:105CD00017AAFF1F130A0A3483470A000D47638778
:105CE000E7001147638AE7006FC03FC69147230072
:105CF000FA00954763E0A70283471A002947E36546
:105D0000F7FE174700001307271A8A07BA979C4324
:105D1000BA97828797C7FF1F9387C7FF03C64700BD
:105D200003C727009306F00F83C50700718F03C8D0
:105D3000170003C63700E311D7FC83C65700B3E54D
:105D400005013367B600558F45FB930AA5FF5686BC
:105D500097C5FF1F938565FC3E85EFC0DFC113F536
:105D6000FA0F2380A90049D141BF93050004EFF049
:105D70005FAA6343051203453A0095472300FA00E2
:105D80009307F00F6307F500EF10F027FD57A3010D
:105D9000FA00834524010345640103481401834646
:105DA0003401834854010346740103474401834787
:105DB0008401A205B3E505012205C206336515017C
:105DC000CD8E42066207558F498EE2078345170044
:105DD00083463700D18F034627003147A382E7006F
:105DE00003C7540049452380A700A380B70023813F
:105DF000C700A381D7002382070023880400A3885B
:105E000004002383E400EFE06FB1F9BD93050004C3
:105E1000EFF03FA06342050897C9FF1F938989EF00
:105E200083C7790093F7F7039DE79307F5FF03C74F
:105E30008900C207C1876391E70603472A00FD175F
:105E400012073107639AE70483C7290103C73901A1
:105E5000D98F638F074C0545EFF09FA271B593056D
:105E6000A004EFF01F9BE34805FE97C9FF1F93892D
:105E700069EA83C77900638A072C0547E39DE7FC3D
:105E800003C9990003C789009307E9FEA302EA004A
:105E900093F7D70F638007341145EFF07F9EA9B5C4
:105EA00093050004EFF0FF96E34805FE97C7FF1F38
:105EB00083C7B7E6CDF303453A0095472300FA00C0
:105EC0009307F00F6307F500EF10F013FD57A301E0
:105ED000FA00034524018347140183453401034735
:105EE00044010346640122050343540183467401BF
:105EF0005D8DC20583478401C98D62074D8F2206DF
:105F000083481700034827000345370033666600BF
:105F100013970601518FE207D98F59472380E70075
:105F20004147A381A700414697C5FF1F938505DF21
:105F3000A38017012381070123820700A382E700C2
:105F400013856400EFC0DFA1EFE04F9D71BB9305A7
:105F50000004EFF01F8CE34105F497C7FF1F83C7D0
:105F6000D7DBE39A07EE03453A0095472300FA0092
:105F70009307F00F6307F500EF10F008FD57A3013A
:105F8000FA00034524018347140183453401034784
:105F90004401034664012205834854018346740189
:105FA0005D8DC20583478401C98D62074D8F22062E
:105FB0000348170003452700834537003366160161
:105FC00013970601518FE207D98F19472380E70005
:105FD000A38007012381A700A381B70023820700C4
:105FE000A3820700EFE08F9301B39305A004EFF0C5
:105FF0005F82E34205E603453A0095472300FA0035
:106000009307F00F6307F500EF10E07FFD57A30142
:10601000FA0097C9FF1F9389E9CF83C7790063848A
:10602000071403C739009547E3F8E7E60345240161
:106030008347140183453401034744010346640147
:10604000220583467401834854015D8DC205834750
:106050008401C98D62074D8F22060348170003454E
:106060002700834537003366160113970601518FC9
:10607000E207D98F35472380E7001D47A38007013A
:106080002381A700A381B70023820700A382E70032
:1060900003C7C90083C739002384E400930657006F
:1060A000E3DCF6DE814705C33387F9008346D7007A
:1060B0003387F4008507A304D70003C7C90093F70B
:1060C000F70FE3E3E7FE85472383F400C147A3838B
:1060D000F400EFE0AF8409B993052003EFF06FF30C
:1060E000E34C05DA03453A0095472300FA0093078D
:1060F000F00FE30BF5BEEF100071FD57A301FA009E
:10610000E5B693052003EFF0CFF0E34705D803454C
:106110003A0095472300FA009307F00F6307F50054
:10612000EF10606EFD57A301FA0085472302FA00C5
:1061300065BE8945EFF0EFEDE35B05FCB1BBD145F2
:10614000EFF02FEDE35505FC81BB03453A00954781
:106150002300FA009307F00F6307F500EF10A06A21
:10616000FD57A301FA000345240183471401834529
:106170003401034744010346640122058348540166
:10618000834674015D8DC20583478401C98D620712
:106190004D8F22060348170003452700834537002B
:1061A0003366160113970601518FE207D98F1D47F9
:1061B0002380E7000547A38007012381A700A3816F
:1061C000B70023820700A382E70023830400EFD0F7
:1061D000FFF419BE03453A0095472300FA009307E0
:1061E000F00F6307F500EF100062FD57A301FA00FE
:1061F00097C7FF1F938707B21387940017C6FF1F27
:106200001306C6B183C6B70085070507A30FD7FEDF
:1062100083C62701A303D700E316F6FE83C7040154
:1062200083C0140183C3240183C2340183CF44019A
:1062300003CF540183CE640103CE740103C38401F0
:1062400083C8940003C8A40003C5B40083C5C40078
:1062500003C6D40083C6E40003C7F400A306FA0013
:1062600023071A00A3077A0023085A00A308FA019B
:106270002309EA01A309DA01230ACA01A30A6A0071
:1062800023031A01A3030A012304AA00A304BA00EA
:106290002305CA00A305DA002306EA00D147631AE2
:1062A000F90083C7C90103C7B901A207D98F231B0E
:1062B000FA00034524018347140183453401034751
:1062C0004401034664012205834854018346740156
:1062D0005D8DC20583478401C98D62074D8F2206FB
:1062E000034817000345270083453700336616012E
:1062F00013970601518FE207D98F65472380E70086
:106300004D47A38007012381A700A381B700A38283
:10631000E7002382070085472383F40093070002E8
:10632000A383F400C1472384F400EFD03FDF6DBAAC
:1063300003453A0095472300FA009307F00F6307DF
:10634000F500EF10404CFD57A301FA0083472A00E7
:1063500085CF55469207058E9386040133859700B5
:10636000A6851376F60F2E87B307E60093F7F70F8F
:10637000CE9783C7070005072309F700E316D7FE6A
:10638000C105C106E391A5FE0347A90123880400C6
:10639000A38804002389E4000348240183471401EF
:1063A00003453401834644018345640122080346C2
:1063B0007401034354013368F800420583478401A4
:1063C00033650501E206C98E1207A20583C81600CF
:1063D00003C8260003C536001377F70FB3E5650041
:1063E00093160601CD8E1306D700E207D58F4D0711
:1063F0009376F60F2380E700A3801701238107011E
:10640000A381A70023820700A382D7002383D4009F
:10641000EFD0DFD0D1B8EFC20FD013848190834585
:106420002401834614010347340183474401A20534
:1064300003466401D58D42078343540183467401AA
:106440004D8FE20783458401D98F17A5FF1F1305E0
:1064500065BC83426500834F7500034F8500834E02
:106460009500034EA5000343B5008348C5000348CB
:10647000D50003C7E700220633667600C206D18E38
:1064800013968501B364D600A382570093061700C4
:106490002383F701A383E7012384D701A384C701E2
:1064A00023856700A385170123860701A383D400F2
:1064B000A1466304D71863F5E608B1476302F728DD
:1064C0009307400A631EF72E0345240183471401F6
:1064D0008345340103474401034664012205834890
:1064E0005401834674015D8DC20583478401C98DC3
:1064F00062074D8F22060348170003452700834596
:1065000037003366160113970601518FE207D98FC2
:1065100045472380E7002D47A38007012381A7007B
:10652000A381B70023820700A382E7002388040029
:1065300083C754002383F400EFD05FBE6FC0EFC069
:10654000630307189946631DD72603C9A70197A7B8
:10655000FF1F938787AC03C307002301250183C86E
:10656000170003C8270003C5370083C5470003C6CB
:10657000570083C6670003C777008549A389640075
:10658000238A1401A38A0401238BA400A38BB400E3
:10659000238CC400A38CD400238DE400630B390149
:1065A00013060003814513853402EFC02FBF2382F9
:1065B00034032389240123880400A38804000345AD
:1065C00024018347140183453401034744010346F2
:1065D0006401220583467401834854015D8DC20520
:1065E00083478401C98D62074D8F12092206034833
:1065F00017000345270083453700336616011379DA
:10660000F90F13970601518F9306D900E207D98F2E
:106610004D0913F7F60F23802701A380070123817B
:10662000A700A381B70023820700A382E70023838A
:10663000E400EFD0BFAE6FC04FB1834864010348A0
:106640002401834E540183457401034E1401034613
:106650003401034784018346440103C3A701220890
:1066600093978800B3E7D7013368C801C205420693
:1066700033660601DD8D9317870113978601230189
:106680006500518F0346270083463700CD8F834531
:1066900017003147A382E70003C754004945238010
:1066A000A700A380B7002381C700A381D70023825E
:1066B000070023880400A38804002383E400EFD0AC
:1066C000FFA56FC08FA803482401834714018345A9
:1066D0003401034744010346640122080343540183
:1066E000834674013368F800C20583478401B3E52B
:1066F000050162074D8F22068348170003482700D3
:10670000834537003366660013970601518FE20711
:10671000D98F69472380E7005147A3801701238160
:106720000701A381B70023820700A382E700034784
:10673000650183477501238CE400A38CF400CDBB75
:10674000034824018347140183453401034744016E
:1067500003466401220803435401834674013368ED
:10676000F800C20583478401B3E5050162074D8F38
:106770002206834817000348270083453700336605
:10678000660013970601518FE207D98F4D4723808A
:10679000E7003547A380170123810701A381B700D4
:1067A00023820700A382E70085472388F4008347FC
:1067B0006501A388F400834775012389F4008DBB2C
:1067C00003452401834714018345340103474401F1
:1067D00003466401220583485401834674015D8D9C
:1067E000C20583478401C98D62074D8F2206034885
:1067F00017000345270083453700336616011397BA
:106800000601518FE207D98F19472380E700A38043
:1068100007012381A700A381B70023820700A38279
:1068200007008D472382F40021B3EFC26F901794C5
:10683000FF1F1304A47F834614000346040003478C
:10684000240083473400A206D18E42071796FF1F0B
:106850001306467C558FE207FD56A301D600D98F5B
:1068600023020600829783465400034644000347F0
:10687000640083477400A206D18E4207558FE20759
:10688000D98F82979305400617F5FFFF1305450939
:10689000EF00F0709305800C17F5FFFF1305E51767
:1068A000EF00F06F9305C01217F5FFFF1305050FFA
:1068B000EF00F06E9305007D17F5FFFF130585F4DB
:1068C000EF00F06D6FC00F89EFC28F861794FF1F26
:1068D0001304447483473400397113072013C98D9E
:1068E0002310E1002301B1001307F00F6388E700D4
:1068F0003E85EF005071FD57A301F400930730402F
:106900009305803E17F5FFFF130585192310F4004A
:10691000EF00F0689797FF1F9387477183C6970032
:1069200003C6870003C7A70083C7B700A206D18E9E
:106930004207558FE207A301A400D98F0A8581463B
:1069400001468D45829721616FC0CF80EFB25FFE17
:1069500083475700834E0700034E17000343270069
:106960008348370003484700B336D0001376F60F4C
:106970003971220693860606D18E130700142E86DF
:106980002E84AA851305A100A304F1009794FF1F8C
:10699000938444682310E1002311D1002302D10124
:1069A000A302C10123036100A30311012304010118
:1069B000EFB01FFB03C534009307F00F6307F5002A
:1069C000EF007064FD57A381F400930730609305D6
:1069D000803E17F5FFFF1305A50C2390F400EF0090
:1069E000105C9797FF1F9387676483C6970003C661
:1069F000870003C7A70083C7B700A206D18E42074E
:106A0000558F9305A400E207A381A400D98F0A85BE
:106A10008146014693F5F50F829721616FB09FF390
:106A2000EFB21FF11794FF1F1304C45E39711307EF
:106A30000014834734002310E100130700032301EF
:106A4000E100A301A1001307F00F6388E7003E8572
:106A5000EF00705BFD57A301F400930730709305BE
:106A6000803E17F5FFFF1305A5032310F400EF0088
:106A700010539797FF1F9387675B83C6970003C6E2
:106A8000870003C7A70083C7B700A206D18E4207BD
:106A9000558FE207A301A400D98F0A8581460146DC
:106AA0009145829721616FB0FFEAEFB27FE893577B
:106AB0008500131785001794FF1F1304A4555D8FDD
:106AC00003453400C16739719387A7143EC0231270
:106AD000E1002303B100A30301009307F00FB28488
:106AE0006307F500EF003052FD57A301F4008567FE
:106AF000A6859387378017F5FFFF130565FA2310E6
:106B0000F400EF00D0499797FF1F9387275283C661
:106B1000970003C6870003C7A70083C7B700A20674
:106B2000D18E4207558FE207A301A400D98F0A85B1
:106B300081460146A145829721616FB0BFE1EFB266
:106B40003FDF1384D189834704003971A5CF97941F
:106B5000FF1F9384244C03C534009307A014231013
:106B6000F100230101009307F00F6319F506930765
:106B700030509305803E17F5FFFF130565F2239013
:106B8000F400EF00D0419797FF1F9387274A83C6F1
:106B9000970003C6870003C7A70083C7B700A206F4
:106BA000D18E4207558FE207A381A400D98F0A85B1
:106BB000814601468D45829781472300F40021617B
:106BC0006FB05FD941651306803E85457D15F13D67
:106BD00085472300F40021616FB0DFD7EF00B0429A
:106BE000FD57A381F40061B7EFB29FD47971854559
:106BF000116502CA02CC02CE02D002D202D402D661
:106C000002C602C8EFC0BFA885451145EFC03FA826
:106C100037140140930700200D494C0813050480E8
:106C2000231AF100E1474ACC3ECEEFC0CFC993070B
:106C300000404C0813050480231AF10091473ECE12
:106C4000EFC06FC8930700104C0813050480231A87
:106C5000F100C1473ECE4ACCEFC0EFC6F167B74462
:106C60000140938707200C10138504803ED0B7079E
:106C70000C003ED42316010202D2EFC07FD8138548
:106C80000480054693055052EFC01FE90546930561
:106C9000404213850480EFC03FE89307501368001B
:106CA0002316F10085473EC823070100EFC04FFEC1
:106CB000138504808545EFC07FE49305001013051C
:106CC0000480EFC00FD745616FB0DFC8EFB25FC679
:106CD00097370000938787F18C43D043944703D7BD
:106CE000C70083C7E7004111374401402EC032C2BC
:106CF00036C42316E1002307F1008A841309F1004A
:106D00001304048083C504002285EFC09FE493052B
:106D100000082285EFC03FE57DD98504E39424FF78
:106D200041016FB03FC3EFB21FBF83470500AA8484
:106D300037450140AE8A130505808145B7490140BA
:106D40003289368AA384F18A2A84EFC09FE09305B2
:106D500000082285EFC03FE17DD913850980814578
:106D6000B7490140EFC0FFDE138409809305000896
:106D70002285EFC05FDF7DD9138509809305F00F71
:106D8000B7490140EFC0FFDC138409809305000878
:106D90002285EFC05FDD7DD9B3874A0193F7F70FF6
:106DA000938517001385098093C7F7FF374B014080
:106DB00093F5F50F93F9F70F13040B80EFC07FD90C
:106DC000930500082285EFC01FDA7DD9CE85130513
:106DD0000B80B7490140EFC0DFD7138409809305CA
:106DE00000082285EFC03FD87DD99305400D13855B
:106DF000098037440140EFC0DFD5130404809305B8
:106E000000082285EFC03FD67DD9638B0A0A37443C
:106E10000140A69A9309400D1304048083C5040021
:106E20002285EFC01FD3930500082285EFC0BFD392
:106E30007DD983C704008504CE9793F9F70FE39FAC
:106E400054FD630A0A02374401404A9A130404803D
:106E5000834509002285EFC0DFCF93050008228516
:106E6000EFC07FD07DD9834709000509CE9793F9FC
:106E7000F70FE31F2AFDB30530413745014093F575
:106E8000F50F13050580B7440140EFC09FCC138474
:106E90000480930500082285EFC0FFCC7DD9814591
:106EA0001385048037440140EFC0BFCA1304048037
:106EB000930500082285EFC01FCB7DD96FB0FFA8D6
:106EC0009309400DBDBF411122C6374401409305CF
:106ED000505213050480EFC0DFC949E91384818A49
:106EE0000347040085476316F700324441017300ED
:106EF0002030374401409305404213050480EFC021
:106F00005FC765D5035704808357448083C7E189F1
:106F10006393070C03C7118A9387418A3E97834680
:106F200007001387118AC5CE03C6F1898946938568
:106F3000F18963F7C60C83C6018A85062380D18A4E
:106F400003C6018A8D4663F4C6002380018A834606
:106F500007000D46850693F6F60F2300D7008346FB
:106F60000700637ED606A380018A95A813050480D6
:106F7000EFC0DFBE83C7818A85461375F50F138482
:106F8000818A6389D70683C7E189B9FB03C7118A60
:106F90009387418A3E97034607001387118A93150A
:106FA0008601E1851376F60F63C905048345070062
:106FB0008346070017B7FF1F1307C7DD9E052E97EF
:106FC000930516003297B69713F6F50F2300A70026
:106FD0002380C70031B71387118A9387418A0347FB
:106FE0000700BA97238007003244238F01884101AC
:106FF00073002030EFC0DFCFE5B5238FD188CDB54A
:1070000083C60500850693F6F60F2380D50081B769
:10701000EFB27F9037440140AA892E89014693053B
:10702000505213050480EFC03FAF03C7818A8547E4
:107030009384818A6309F700014693054042130552
:107040000480EFC07FAD03C4F1891387F18941C08B
:1070500083C6018A9397760017B6FF1F130686D35F
:10706000B29723A0F9009387418AB69783C7070098
:107070008D462300F90083C7018A85072380F18AA2
:1070800083C7018A63F4F6002380018A83470700DF
:10709000374401400546FD1793F7F70F930550520B
:1070A000130504802300F700EFC01FA703C70400E7
:1070B00085476316F700054422856FB01F89054692
:1070C0009305404213050480EFC01FA5EDB7374973
:1070D000014005469305505213050980EFC0DFA318
:1070E00003C704008547E309F7FC054693054042C2
:1070F00013050980EFC05FA2C1B7EFB2DF81411174
:10710000AA8A2E8A9384818A89499305B1006800EE
:10711000EFF01FF01DC583C704006387370383C7E3
:107120000400E5F70344B100B24556852286EFB06E
:107130003F839305B10023008A006800EFF05FED04
:1071400079F941016FB07F800349B100E30F09FA7B
:1071500032442299034504000504EFC07FB9E31BC4
:1071600024FF65B759BFEFB2AFFC0111854511652A
:1071700002C002C202C402C602C802CA02CC231E56
:107180000100EFC0AFD285452145EFC04FD0371485
:10719000014061498D448A85130504C08567231029
:1071A000F1004AC426C2EFB01FF28A85130504C05D
:1071B00089672310F1004AC426C2EFB0DFF091675F
:1071C0008A85130504C02310F10091473EC4EFB037
:1071D0009FEFE1778A85130504C02310F10037443F
:1071E00000404AC426C2EFB01FEE13050480854557
:1071F000EFC04FD7B70704013EC6930700026C00EB
:10720000130504803ECC9D47231EF10002C802CA2C
:10721000EFC0AFCB1305048005468945EFC0EFD220
:107220001305048005468545EFC02FD2854513051B
:107230000480EFC06FCF05616FB0CFF1EFB2AFED5B
:1072400079712A84AE89054585453289B68402C2A2
:1072500002C402C602C802CA02CC02CE02D002D2C6
:1072600002D402D6EFC0CFC02285EFB03FC0C147E5
:107270003EC6930700084C003ECC228585674EC26F
:107280004AC426C83ED402CA02CE02D002D202D6D6
:10729000EFB0DFC845616FB04FEBEFB2CFE7797168
:1072A0002A84AE89054585453289B68402C202C466
:1072B00002C602C802CA02CC02CE02D002D202D456
:1072C00002D6EFC0EFBA2285EFB05FBA930700088D
:1072D0003ECC930700103ECE930700404C003ED0BA
:1072E000228585674EC24AC426C83ED402C602CA59
:1072F00002D202D6EFB09FC245616FB00FE5EFB288
:107300008FE179712A84AE89054585453289B68435
:1073100002C202C402C602C802CA02CC02CE02D015
:1073200002D202D402D6EFC0AFB42285EFB01FB4B0
:10733000930700084C003ECC228585674EC24AC4A4
:1073400026C83ED402C602CA02CE02D002D202D65B
:10735000EFB0DFBC45616FB04FDFEFB26FDD138779
:10736000018C1C4385466388D7008946638ED70EFF
:10737000C5CF6FB02FDE37050200EFB0DFBF630768
:10738000051C37050200EFB0FFBF0965EFB09FBFD6
:1073900037450040814513050580EFC0EFB81385E0
:1073A000818B034845002A879385B18B9307F00FA3
:1073B00017360000130606B2834617000507B58F7F
:1073C000B29783C70700E319B7FE93C7F7FF93F798
:1073D000F70F6303F818370402401305840581454D
:1073E000EFB0DFB7130584059945EFB09FB81305DB
:1073F00084058545EFB09FB6130544048145EFB081
:10740000FFB5130544049945EFB0BFB61305440416
:107410008545EFB0BFB4374500408545130505806D
:10742000EFC08FB06FB00FD39386818B83C71600E8
:1074300083C5260003C6360083C64600CD8FD18F94
:10744000D58F1386D1828346060063840712938703
:10745000F6FF93F7F70F2300F600C5EF85471CC32F
:10746000A38601826FB00FCF0945EFB0DFB0E30212
:1074700005F00945EFB01FB197B7FF1F938787B39A
:1074800017B6FF1F130606BB014783D607008907FF
:107490003697E31CF6FE198393170701C18783957E
:1074A000E18B3386B7008146634E060081CF0565C8
:1074B0009306F5FF6358A6006386D7002E979316B0
:1074C0000701C1829387618B2390D70003D7070000
:1074D00037040240130584001347F7FF4207418336
:1074E0002390E70003D70700814512074207418335
:1074F0002390E700EFB09FA6130584009305800456
:10750000EFB03FA7854513058400EFB03FA56FB0EE
:107510006FC4C146E3FFF6E43745004089471305D1
:10752000058081451CC337040240A3860182EFC059
:10753000AF9F130584058145EFB05FA28145130518
:107540004404EFB0BFA1EF90B04225B50965EFB09C
:107550009FA2E31805E231BD8347250003471500CC
:10756000A207D98F13978700A183D98F239BF18A14
:107570009DB59387160093F7F70FF1BD03D5618B87
:1075800082809385418B83D7050003D7618B931647
:107590000701D98E63F9E712B307F74093A71710D5
:1075A00093C717006396070E1388C18A83470800A4
:1075B0009388018B17B5FF1F1305C59D9396170080
:1075C000369503A6080003530500938617003A96E4
:1075D00033066640935736009D8A23A0C800138661
:1075E000A18A2310E5002300D800139707018356D2
:1075F000060041832390E500BA876370D70CB387F8
:10760000F64093A7170493C7170081C72310E6001D
:10761000BA8603A7818183471700034707004165A6
:10762000A207D98FBE96C206E177C182BE96939714
:1076300016002167B697BA9703C7C18263DBA70814
:1076400013950701418163CE070215EF1386A182CE
:107650008357060063F3A70A3307F54042074183C7
:10766000AA86A145368563FBE5009305000463E522
:10767000E506B69785831395070141812310D6004F
:1076800082802DC701452395A182238601828280B5
:1076900097B7FF1F938707901316370094C3D4C37F
:1076A00094C7D4C723A8C18A1386A18A835606002B
:1076B0002390E500BA87E364D7F4958F93A7170466
:1076C00093C7170099B7998F93A7171093C71700FF
:1076D000D1BD7D1525DF45BF13953600158D3E952F
:1076E0000D81420541812310D60082801386A1823C
:1076F0008357060081463E87ADB73387A7404207D0
:107700004183AA86B9BF03D7618BE177998F13971D
:107710000701418383A6818121832380F600A38012
:10772000E6008280411122C63714004085451305CA
:107730000480EFC04FAA09E53244410173002030B4
:10774000130504808545EFC0CFAA1387418C1C43E5
:10775000324485071CC34101730020302A8817B7C3
:10776000FF1F1307A799814741461443310799C664
:107770008507E39CC7FE1305F00F828093961700E0
:10778000BE968A0617B7FF1F1307C796369713F5DD
:10779000F70F232407014CC32320070082802A8887
:1077A00017B7FF1F130787898147414614433107E5
:1077B00099C68507E39CC7FE1305F00F8280939658
:1077C0001700BE968A0617B7FF1F1307A7863697BE
:1077D00013F5F70F232407014CC3232007008280F1
:1077E000BD4763E1A702131715002A970A0797B749
:1077F000FF1F93872790BA9723A4070023A20700AF
:1078000023A007008280BD4763E1A702131715007C
:107810002A970A0797B7FF1F9387C781BA9723A4B0
:10782000070023A2070023A007008280BD4763ED65
:10783000A70093171500AA978A0717B7FF1F13070A
:10784000678BBA9723A007008280EFB26F8E371440
:1078500000401305048001468545EFB03FFE130547
:1078600004800546854583A4418C17B4FF1F13048B
:10787000648823A2018C17B9FF1F1309A993EFB0E5
:10788000FFFB144499CA1C405840A6971CC033867D
:10789000E74063E4E70010C082963104E31324FF5D
:1078A00017A4FF1F1304047917B9FF1F1309898454
:1078B00014448DC21C405840A6971CC03386E74034
:1078C00063EAE70010C08296232404002322040008
:1078D000232004003104E31D24FD6FB0AF87EFB215
:1078E0002F85F9572387F18217B4FF1F1304848E65
:1078F00097B4FF1F938404901C40110491C3829796
:10790000E31C94FE6FB00F85EFB2EF80938481810A
:107910009C4083C6370003C6270003C7470083C7C0
:107920005700A206D18E4207558FE207D98FB1C307
:107930001389E182034509009307E00F630DF50207
:10794000EFF07FEC944017050000130585F903C79D
:10795000360003C6260083C7460083C556002207AB
:10796000518FC207D98FE205DD8DEFF05FE3230071
:10797000A9006FA09FFD17B4FF1F1304A48397B93C
:10798000FF1F938929851C40110491C38297E31C32
:1079900034FFFD572300F9001305F00F55B797B5D5
:1079A000FF1F938525832E878147214614431107A6
:1079B00099C68507E39CC7FE1305F00F82801397D5
:1079C0002700BA9588C113F5F70F828097A5FF1F8E
:1079D0009385457E2E87814721461443110799C61A
:1079E0008507E39CC7FE1305F00F828013972700DD
:1079F000BA9588C113F5F70F828083A7818103C7E9
:107A0000770011C703C767008D476303F7008280C3
:107A1000EFA21FF20545EFD01FB68547630DF50CA9
:107A20008146014685450545EFD09FD90945EFD0F0
:107A30009FB485476301F5108146054681450D4594
:107A4000EFD01FD80D45EFD01FB385478546630E95
:107A5000F50C014681451545EFD09FD61145EFD075
:107A60009FB19306F00F35E91306F00F9305F00F61
:107A7000EFD0FFD41945EFD01FB085476300F50A5A
:107A80008146014685450145EFD09FD31D45EFD086
:107A90009FAE8547630DF50681460546814509453C
:107AA000EFD01FD22145EFD01FAD85478546630A31
:107AB000F504014681451145EFD09FD02545EFD013
:107AC0009FAB9306F00F0DE11306F00F9305F00F37
:107AD0000545EFD0DFCE6FA0FFE701469305F00F1D
:107AE0000145EFD0DFCD79B701469305F00F05458D
:107AF000EFD0FFCCCDB7854605468545EFD05FCCAE
:107B000035B7054685451145EFD09FCB45BF854626
:107B1000054685450945EFD0BFCA69B78546054684
:107B200085450145EFD0DFC995B705468545154523
:107B3000EFD01FC925B78546054685450D45EFD0D1
:107B40003FC809B7EFA2DFDEEF90A07AEF90100AEE
:107B500013050040EFB01FA10545EF80C04CEF803A
:107B6000204A13052003EFA01FE8EFC03FE3EF908A
:107B70009010EF90B017EF9090672945EFA0BFE607
:107B8000EF90C075EF90A075EF900052EF80A06568
:107B9000EF80C049EFE07FC9EF800072D14517E563
:107BA000FFFF130565B9EFF07FBB854517D5FFFFD4
:107BB0001305857DEFF09FBA954517D5FFFF130597
:107BC000C5B9EFF0BFB9F94517E5FFFF1305C507C4
:107BD000EFF0DFB8EFF07FC7F5BF37050400EFB077
:107BE0000FC2730020309926730020308D4723A2E6
:107BF000F18E828097A7FF1F83C7676289C7954769
:107C000023A2F18E8280854723A2F18E8280EFA28B
:107C10003FD2AA842E8411458545EFB05FA7B1CC31
:107C200037660040032706C4C166F516758FB7177F
:107C300001402320E6C403A74780B716F0FFFD16D6
:107C4000758F23A2E78003A7C780F9769386F67F16
:107C5000758F23A6E78003A74780B7460400558F9A
:107C600023A2E780374702408327078039CC93E778
:107C700027002320F7806FA0FFCDB766004003A741
:107C800006C4B7170140136727004207418323A0AA
:107C9000E6C403A74780B716F0FFFD16758F23A231
:107CA000E78003A7C780F9769386F67F758F23A6B2
:107CB000E78003A74780B7360300558F23A2E780EC
:107CC00037470240832707805DF0F59B2320F7802C
:107CD0006FA05FC88280EFA2BFC59385415B054559
:107CE000EF105065930700046307F5000545EF109A
:107CF000D03D6FA03FC6EFD08FAE0545EF10F03CF2
:107D00006FA05FC58280EFA2BFC29385014E11456F
:107D1000EF105062930700046307F5001145EF1060
:107D2000D03A6FA03FC3EFC01FDB1145EF10F03911
:107D30006FA05FC2EFA2DFBF138441920347C4006C
:107D40008346B4008347D4008345E4002207558F5F
:107D5000C207D98FE205DD8D0945EF10B05DAA8716
:107D6000896509452305F400A3070400EF10102FCF
:107D70006FA05FBEEFA2DFBBB767004083A707C558
:107D8000373700204907C207C183BA9786079C434B
:107D90001307000293F7F73F639DE7009387419233
:107DA00003C7970019E703C7570083C74700630954
:107DB000F700930500020945EF10D0256FA09FB989
:107DC0000146814513052008EF10F053C5BFEFA20F
:107DD0003FB6138481900347C4008346B4008347B1
:107DE000D4008345E4002207558FC207D98FE205EE
:107DF000DD8D0D45EF101054AA8789650D452305CB
:107E0000F400A3070400EF1070256FA0BFB4EFA229
:107E10003FB2B767004083A707C53737002069071F
:107E2000C207C183BA9786079C431307000293F7E2
:107E3000F73F639DE7009387819003C7970019E799
:107E400003C7570083C747006309F7009305000283
:107E50000D45EF10301C6FA0FFAF014681451305A3
:107E60003008EF10504AC5BFEFA29FAC0D47AE845B
:107E70003284630DE506636CA7020547630FE504D2
:107E800009476312E506EF10102393070003630C04
:107E9000F504A685228613052008EF10D046094573
:107EA00093050003EF10101701456FA0BFAA1147FB
:107EB000631BE502EF103020930700036305F50212
:107EC000A685228613054008EF10F043114593055F
:107ED0000003EF1030140145C9BFEF10D01D930708
:107EE00000036318F50205456FA0DFA6EF10B01C74
:107EF00093070003E309F5FEA685228613053008E3
:107F0000EF1070400D4593050003EF10B0100145D0
:107F100069BFA685228613051008EF10D03E0545DF
:107F200093050003EF10100F014541B7EFA25FA0CA
:107F300037650040832705C541679305F7FFB736CE
:107F40000020ED8F9906B69786079C43130707C05C
:107F500003D6418DF98F0111638CC700832705C5B6
:107F6000137606C0ED8FB69786079843518F98C356
:107F7000B766004003A746C49384418F83D70400AB
:107F80002399E18C03D7218D7D8F137707201384EC
:107F9000218D19CB41671307F7DF23A2E6C403C77E
:107FA000018D05072388E18C035704007D8F42076C
:107FB000418763440718035704007D8F13770740F8
:107FC00019CFC167376700409387F7BF2322F7C4F3
:107FD0009787FF1F83A70726829783D7040003573D
:107FE000040089667D8F758F19C73967B7660040B1
:107FF0007D1723A2E6C40357040085667D8F758F25
:1080000063120712035704007D8F2D83058B05C370
:1080100083A78184A1EB0945EF00C076BD679387F4
:10802000F77F376700402322F7C483D70400035744
:108030000400F98F93F707109DC3C166B76700402E
:108040001387F6EF23A2E7C403A787C4131607011B
:10805000634C060023A6018C1D45EF00A07205614C
:108060006FA05F8FAD255DBF1387C18C10438D4519
:10807000050610C31843E3F1E5FE03A707C4218BEF
:1080800061FF83A507C41386F6FF9388818CB3F63E
:10809000C50023A0D800938707C0814621488843A4
:1080A00093952600938505028A95718D23A0A5FEE0
:1080B00085069107E39506FF83A60800B765004093
:1080C000B767004093E6160023A0D80083A60800F7
:1080D000F18E23A0D5C483A60800F99A23A0D80066
:1080E00083A60800F18E23A0D5C483A647C493F6C7
:1080F0000640E5DE41669306F6BF23A2D7C47D168F
:10810000938707C0A14593162700938606028A9697
:1081100083A606FE91070507F18E23AED7FEE31472
:10812000B7FE0DBFBD67FD17376700402322F7C4B8
:108130000145892D83D70400F1B5EF10002083D7C6
:10814000040095BD97A7FF1F83C7670D81C795479B
:1081500023A2F18E8280914723A2F18E82808280B9
:1081600099E513352500134515000605828009455C
:10817000828011C51785FF1F1305050F828083A715
:10818000C18F1D472398E7008280EFA26FFA938486
:10819000C18F9C40854603C7070003C6170083C5EF
:1081A00027001377F7076309D702930610020945E2
:1081B0006312D7026304E60413070002631CE6009F
:1081C000170400001304244D80CF239907000145B4
:1081D000029401456FA00FF8130720026385E502A2
:1081E000130710020945E397E5FE17040000130486
:1081F000C44780CF014502949C40F9B717040000A2
:10820000130464F7D1B7170400001304A443D5B7CF
:1082100003A7C18F8347070093061002014593F718
:10822000F7076383D7008280834717001307200274
:10823000E38BE7FE9387D7FDB337F0001395170064
:108240008280EFA2EFEE83A7C18F23850700B129BB
:10825000B7650040B76700408566938707C093867F
:10826000F6F0138605C298439107758F23AEE7FE9B
:10827000E39BC7FE9307F00F23A2F5C4EF10B006EF
:108280008145014523A2018EEFF07F985145EFA073
:108290008FF585450545EFF09F976FA0AFEBEFA2F7
:1082A0002FE983A7C18F1797000003471768A3849E
:1082B000E700239507000145EF10C0529305002009
:1082C0000145EF102053C1450145EF10A05493051F
:1082D00000050145EF10206D930500060145EF10E4
