:042800006F70800C69
:102804000028000000000000C03B0000C43B0000A2
:1028140000000000C6980000000000000000000056
:10282400C6980000C69800000000000000000000E8
:10283400C698000000000000C698000000000000D8
:10284400C6980000C6980000C6980000C69800000C
:10285400C6980000C6980000C6980000C6980000FC
:10286400C6980000C6980000C6980000C6980000EC
:10287400C6980000C6980000C6980000C6980000DC
:10288400C6980000C6980000C6980000C6980000CC
:1028940050790000C6980000C6980000C698000051
:1028A400C6980000C6980000C6980000C6980000AC
:1028B400C6980000C69800008E740000C6980000F8
:1028C400C6980000C6980000C6980000C69800008C
:1028D400C6980000BE6C0000C6980000C6980000B0
:1028E400C6980000C698000044790000C69800000D
:0C28F400C6980000C6980000C6980000BE
:10290000397101436EC619A0397141536AC866CA4C
:1029100062CC5ECE19A0397101535AD056D252D42E
:102920004ED64AD826DA22DC06DE330161408282A6
:1029300041114AC026C222C406C68282B24D41015C
:10294000024D924C224CB24B4101024B924A224A18
:10295000B2494101024992442244B240410182807D
:102960002A8309CA83830500230073007D160503AB
:1029700085056DFA828015C22A8385466367B50096
:10298000FD561307F6FF3A93BA958383050023009B
:1029900073007D163693B6956DFA82802A8311C630
:1029A0002300B3007D16050365FE8280B7F700E0C3
:1029B000D8438146799BD8C303C721863306A70233
:1029C00037F700E090CBD4CB944393E6060194C351
:1029D000944393E6160294C35C43858BF5DF1C4356
:1029E000F99B1CC38280B7F700E0D8438146799BEE
:1029F000D8C303D701863306A70237F700E090CB90
:102A0000D4CB944393E6060194C3944393E6160211
:102A100094C35C43858BF5DF1C43F99B1CC3828008
:102A20009C4103A88501D04DD4415841B3E707012B
:102A3000D18F3706F1E0A2061306F6EF718FD58F1E
:102A4000D98F5CC1D0459C4994451845D18F37F644
:102A5000F1FF86061306D67F718FD58FD98F1CC5DF
:102A600083C745015855B70610FFFD1793F7F70FB9
:102A7000FD16758FD207D98F5CD582801C4589C51C
:102A800093E717001CC58280F99B1CC582801C45FA
:102A900089C593E707101CC5828093F7F7EF1CC523
:102AA00082801C4593E787001CC5828008450D8104
:102AB000058982801C4593E747001CC58280084534
:102AC0000981058982801C4591C537075000D98F3F
:102AD0001CC582803707B0FF7D17F98F1CC5828027
:102AE000A54763F7B704938765FF139717003E97D1
:102AF0000328C5009D47B397E70093C7F7FFB3F7D7
:102B00000701B396E600DD8E54C5994763E5C70417
:102B10007D16931726003E965859FD47B397C70078
:102B200093C7F7FFF98F3396C5005D8E50D9828029
:102B300013971500032805012E979D47B397E700CB
:102B400093C7F7FFB3F70701B396E600DD8E14C90C
:102B50009947E3FFC7FAB14763E2C70265169317C7
:102B600026001459B2977D473317F7001347F7FF34
:102B7000758FB397F500D98F1CD982804D16131726
:102B8000260054553297FD47B397E70093C7F7FFE8
:102B9000F58FB395E500DD8D4CD582805C4191C504
:102BA00037070004D98F5CC18280370700FC7D178E
:102BB000F98F5CC18280011123030100034761008A
:102BC000A54763E5E70425461C4593E787001CC538
:102BD0001C45A18BF5FF1C4593E747001CC51C4510
:102BE000918BF5FF744583476100034761008607B9
:102BF00005071377F70F2303E100938707020347C5
:102C000061008A972396D7FEE370E6FC2303010058
:102C100003476100A54763EAE70A2146A545A303E8
:102C20000100834771006367F6080347710083471B
:102C300071000607850786071307070293870702B7
:102C40000A978A970357C7FE83D7C7FE63F9E7043D
:102C5000834771008607938707028A9783D7C7FE49
:102C60002314F1000347710083467100834771000C
:102C700005070607130707020A970358C7FE8507CB
:102C800013971600035581001307070286070A975A
:102C900093870702231607FF8A972396A7FE834789
:102CA0007100850793F7F70FA303F10083477100C5
:102CB000E37DF6F683476100850793F7F70F23035B
:102CC000F10083476100E3FCF5F4231401002315B0
:102CD00001002303010003476100954763ECE7040B
:102CE00093060060154625A88347610003578100BD
:102CF00089078607938707028A9783D7C7FEBA9703
:102D0000C207C1832314F10083476100850793F74D
:102D1000F70F2303F10083476100636DF6008347DB
:102D2000610089078607938707028A9783D7C7FEC2
:102D3000E3FCF6FA834761006385071003578100BF
:102D4000834561008357810003466100834661002B
:102D50003347B702B3E7C7028607B3C7D702BA97AC
:102D6000C207C1832314F100034761009947998F7B
:102D700093F7F70FA303F10083477100F5C30347EF
:102D80006100954763EEE70295468347610003576C
:102D9000A10089078607938707028A9783D7C7FE12
:102DA000BA97C207C1832315F100834761008507E5
:102DB00093F7F70F2303F10083476100E3F7F6FC75
:102DC0000357A100834571008357A100034671009A
:102DD000834671003347B702B3E7C7028607B3C71C
:102DE000D702BA97C207C1832315F10003558100AA
:102DF0008355A100835781000356A1008566130700
:102E0000004093860680B307F7403386C640098F9B
:102E10008D8EC2074206C18741864207C206B2971D
:102E2000C1864187369793D6F7011355F701B697B8
:102E30003A95858B0585958F3E95420541850561BF
:102E40008280930700402314F100034761009947F3
:102E5000998F93F7F70FA303F1008347710085F370
:102E60008567938707802315F10049B71C414167A7
:102E70007917F98F1CC12320050023220500232484
:102E80000500B70702402326050013878700630467
:102E9000E5041387C701630BE50213870703630784
:102EA000E50413874704630AE5041387870563096C
:102EB000E5021387C7066307E5041387070863095C
:102EC000E504138747096308E5008280D843136748
:102ED000070FD8C38280D8431367F700D8C3828016
:102EE000D843B7060F00558FD8C38280D843856674
:102EF000938606F0558FD8C38280D843BD66558F20
:102F0000D8C38280D843B706F000558FD8C38280DB
:102F1000D843B706000F558FD8C3828090519C4587
:102F20009449D84983A88501D18FD58FD04DD451EC
:102F3000D98FB3E71701184103A88502D18FD58F28
:102F4000E176BD06D045758FB3E707019441D98F6F
:102F50001CC1DC4150C114C55CC582801C4189C5BF
:102F600093E717001CC1828041677917F98F1CC154
:102F700082804CC18280B70702409C437D8D3335EF
:102F8000A0008280B7070240C8C3828058410C412C
:102F90000328C500B7060140938706403E9713C635
:102FA000F5FF6303080483A8064003288500414316
:102FB000B3F8C80023A01641D443F18ED4C3144300
:102FC000CD8E14C3184190479346F7FF758E90C776
:102FD000D047F18ED4C7630D68003E988327080060
:102FE0005D8F2320E80082801C43F18F1CC3828008
:102FF0009447D98E94C7D447558FD8C78280B707D6
:10300000014023AAA7408280B7066745B727024040
:10301000938636123797EFCDD4C31307B79AD8C328
:10302000D4D3D8D38280372702401C4BA166D58FDA
:103030001CCB8280B7270240984BB706020013755D
:1030400005F0558F98CBC8CB944B3727024093E6B9
:10305000060494CB5C47858BF5FF1C4B8176FD16EF
:10306000F58F1CCB8280372702401C4BC16613753D
:1030700005F0D58F1CCB5C47858BF5FF37270240C9
:103080005C47898BF5FFAE86158D93850510372734
:1030900002409042B387A600910690C35C47898B9B
:1030A000F5FFE398B6FE1C4B37062000B72602401A
:1030B000D18F1CCBDC46858BF5FF9C4A41777D1771
:1030C000F98F9CCA828003A8850093770801137E3C
:1030D000F80081C7DC41336EFE00B7270240985BE1
:1030E000B707000FF98FE9EB8547A381F186B71782
:1030F0000140630AF50C83D6050093F7F60FB5E39C
:103100009307F00F63FED70403234500014785486A
:10311000930E8002130F8004A14521A00507630FC1
:10312000B70293078700B397F80033F6D700E39709
:10313000C7FE6301D80B6313E8011CC913162700EF
:10314000BD47B397C70093C7F7FF33F36700331644
:10315000CE00336366000507E315B7FC2322650044
:1031600082800323050081478548930E8002BD4F6E
:10317000130F8004A14521A08507638CB702339704
:10318000F8003376D700E319C7FE6304D80763134A
:10319000E80118C9139727003396EF001346F6FF8E
:1031A000337366003317EE00336367008507E398D7
:1031B000B7FC23206500A9B7B7170140E31DF5F25E
:1031C00083C731868DDB83D60500B5822390D50079
:1031D000C9FA8280131627005CC9BD47B397C700A0
:1031E00093C7F7FF33F367003316CE0033636600EF
:1031F0009DB758C9139727003396EF001346F6FF83
:10320000337366003317EE003363670045B7B717B3
:1032100001406307F5001C45FD8D3335B000828009
:1032200083C73186EDDB1C45B581FD8D3335B0009C
:103230008280B71701406304F5000CC9828083C700
:103240003186E5DFB5810CC98280B7170140630480
:10325000F5004CC9828083C73186E5DFB5814CC952
:103260008280EFF2EFEC8357450001112A84680059
:10327000939407012E89052ED24737470F00130775
:10328000072433D7E702C18093F404FCC204C18051
:103290000326090061651305056A93150701C181BD
:1032A000CD8C2312940083560400C206C182F99A81
:1032B000C206C1822310D4006363C5060606B3D7D5
:1032C000C702114793960701C18263E0E60A8505AC
:1032D000C205C181C207C1832310B402231EF400BA
:1032E00083570400835649008355A90093E71700CC
:1032F0002310F400835704000357C90003568900C4
:10330000C207C183CD8E93F757BFD58F2310F4002A
:10331000B367C7002314F40005616FF0AFE3835572
:103320006900B166FD166384D50493161600B29643
:103330008E06B296B3D7D7029166C207C183D58FE6
:103340009396470199E293E717009306C01233075B
:10335000D702A166D58F9306803E3347D702050773
:10336000420741832310E40295BF91478DB793161E
:103370001600B296B3D7D702C207C183D1B783571D
:10338000050091C593E717002310F5008280C2075E
:10339000C183F99BC207C1832310F5008280835744
:1033A000050091C593E707102310F5008280C2073E
:1033B000C18393F7F7EFC207C1832310F500828022
:1033C0008357050091C593E707202310F5008280FD
:1033D000C207C18393F7F7DFC207C1832310F5004B
:1033E00082808357050091C593E707402310F500BD
:1033F0008280C207C18393F7F7BFC207C18323103E
:10340000F50082802318B500828093F7E50F19C27A
:1034100093E715002318F50082808357050091C5B6
:103420002167D98F2310F5008280C607C58323103A
:10343000F5008280035745018357850113950701E5
:10344000598D6D8D220521810D8D133515008280DA
:10345000411102C402C693D7C5012AC63EC4A24781
:10346000A205A18199CBB247D1073EC6B247884396
:1034700041016D8D3335A0008280B247C181E107E3
:103480003EC6B247884341016D8D3335A00082802E
:103490009387418698430346050015EB8347250033
:1034A00037E700E09207329793F7F70F2300F740D2
:1034B00054410547935756003317C70085CE93876D
:1034C00007048A07B7E600E0B69798C3828098435E
:1034D00085466309D7028C430947638EE504984308
:1034E0008D466300D70498439147E313F7FC834765
:1034F00015007DB7938707068A07B7E600E0B69701
:1035000098C3828083472500834615009207638015
:10351000E60437E700E093F7F70F32972300F74010
:1035200041BF83461500834725006365D7028606A1
:10353000B6979207F9BF034715008347250063FF3D
:10354000E60079170A07BA9793F7F70F920793E700
:1035500007F8C1B7F1168606B697FDB70A07BA97FE
:10356000920745BFB7160240DC4271771307F77F19
:10357000F98F0E055D8DC8C28280B7170240D8430F
:10358000B70640FFFD16758FD8C3D8435A05598D2D
:10359000C8C38280B7160240DC4251777D17F98F8D
:1035A000C98FDCC28280B7160240DC42214613F785
:1035B000C700B7177A00938707206302C7061CC1AC
:1035C00037160240584297D6FF1F9386A6A3118351
:1035D0003D8B369703470700B3D7E7005CC15842DD
:1035E00021831D8B36970347070033D7E70018C5A3
:1035F00058422D831D8BBA9603C7060097D6FF1F2E
:10360000938646C6B3D7E7005CC5584239830D8B15
:10361000369703470700B3D7E7021CC98280DC4214
:10362000D8424166C983BD8B8907C546718F638EB9
:10363000D70211EF3747024003270780418B19CF8C
:1036400037177A0013070720B387E7028DBF3717B4
:1036500002405843B7060200758F7DD337173D00EF
:1036600013070790B387E70299BFC9476DF3D9B72E
:1036700099C5371702405C4BC98F5CCB8280B71766
:103680000240D84B1345F5FF798DC8CB828099C590
:10369000371702401C4FC98F1CCF8280B7170240DA
:1036A000984F1345F5FF798D88CF828099C53717DC
:1036B00002405C4FC98F5CCF8280B7170240D84F61
:1036C0001345F5FF798DC8CF828003D6250083D7B7
:1036D000050083D6450003D7650083D88500D18FC8
:1036E00003D8A500D58FD98F83D6C500B3E71701BE
:1036F0000357050003D6E500B3E70701D58F8D66B4
:1037000093860604758FD18FD98F2310F5008357C8
:10371000C5017D7783D605011307F77FF98F231E37
:10372000F5002318D50082808357050091C593E7E3
:1037300007042310F5008280C207C18393F7F7FBCB
:10374000C207C1832310F50082808357450009C654
:10375000CD8F2312F500828093C5F5FFED8F2312E4
:10376000F50082808357450091C593E747002312F7
:10377000F5008280C207C183ED9BC207C18323127B
:10378000F50082808357050037370140130707C0D3
:10379000C20783D6050003D6450003D86500C18360
:1037A0006307E504370700406300E502130707409D
:1037B000630CE50037170040930807806306150186
:1037C000130707C06317E50003D7250093F7F7F841
:1037D000D98F93F7F7CFB3E707012310F50023162E
:1037E000C5022314D5028547231AF500828003D72A
:1037F000250093F7F7F8D98F93F7F7CFB3E70701D1
:103800002310F5002316C5022314D50283C78500B3
:103810002318F5028547231AF50082808357050097
:1038200091C593E717002310F5008280C207C1837A
:10383000F99BC207C1832310F50082808357C5001E
:1038400009C6CD8F2316F500828093C5F5FFED8F55
:103850002316F50082808357C50009C6DD8D231627
:10386000B500828093C5F5FFED8F2316F5008280A9
:1038700083578500C207C183E19BC207C18323141C
:10388000F50082802314B502231AC5008280835775
:103890000500C207C18393F7F7F8CD8F2310F50019
:1038A000828083578501C207C183DD9BCD8F231C96
:1038B000F50082808357C501C207C183DD9BCD8F90
:1038C000231EF50082808357C5017D771307F77F9C
:1038D000F98FA205CD8FC207C183231EF500828018
:1038E00083570502C207C183F59BCD8F2310F502D4
:1038F000828083570502A205C207C18393F7F7DFD1
:10390000CD8FC207C1832310F50282808357050241
:1039100079777D17F98FB205CD8FC207C183231048
:10392000F5028280035705028547B397B70093C716
:10393000F7FF7D8F2310E502835705023316B6008B
:10394000D18FC207C1832310F5028280035705027D
:103950008547B397B70093C7F7FFF98F2310F50298
:1039600093F775FF610595C3F115C205C181858186
:10397000AA959C4165777D17F98F9CC19C412206D1
:10398000420641825D8E90C182808581AA959C41CC
:1039900093F7F7F89CC19C415D8E90C182802316FD
:1039A000B5028280231AB5028280231EB50282806E
:1039B0002310B504828083570500C207C18393F7A3
:1039C000F7CFC207C1832310F50083570500CD8FC1
:1039D0002310F5008280835705010355C500ED8F44
:1039E0004205418189C76D8D3335A0008280014534
:1039F000828093C5F5FFC205C1812318B50082807E
:103A0000EFE21FF30357050183D76500F576FD1636
:103A1000758FD98F03D7C5002318F5008356C500CD
:103A200083D745007D762A841306369F03D585000B
:103A3000F18EAE8483D5A500D58FC98FCD8F231687
:103A4000F4008357440101116800C207C18393F752
:103A5000F7CFD98F231AF400B936B74701409387BF
:103A60000780630BF40852468356C4009317160070
:103A7000B297C2068E07C1869840B29763C006040B
:103A80000A07B3D7E702930640060356C40042066E
:103A9000418633D7D702B3F7D70212076340060433
:103AA000920793872703B3D7D702BD8BD98FC2075D
:103AB000C1832314F40005616FE0DFE90607B3D783
:103AC000E702930640060356C4004206418633D7F8
:103AD000D702B3F7D7021207E35406FC8E07938789
:103AE0002703B3D7D7029D8BD98FC207C183231475
:103AF000F40005616FE01FE66246BDB78357C5005D
:103B000091C50967D98F2316F500828079777D17D3
:103B1000F98F2316F500828093F7F50F05479583FB
:103B2000B315B7006384E702894613074501638C28
:103B3000D7001C4301C6CD8F1CC3828093C5F5FFFF
:103B4000FD8D0CC3828013070501E5B71307C5007F
:103B5000CDB793F5F51F2312B500828003554500BC
:103B60001375F51F8280035505006D8D3335A00058
:103B7000828093F6F50F054695822A87B317B60023
:103B8000638BC60209466383C6028356450133F53B
:103B9000F60083570700C207C18301C9A181054709
:103BA0003317B700F98F3335F00082808356050153
:103BB00033F5F600F9BF8356C50033F5F600D1BFE3
:103BC0007300203001A0EFE2BFD603A7418E9547D6
:103BD0002A84630AF70083474500A3040500A30273
:103BE000F5006FE03FD703457500EF507023930752
:103BF0000002E318F5FE83455400834744006387C1
:103C0000F50663F4B700930700F8034784008D8F2F
:103C100093F7F70F9374F70F63E7E70483461400F5
:103C2000034604000347240083473400A206D18ED4
:103C30004207558FE207D98F2686BE95138501B4BA
:103C4000EFE01FD283475400268603457400BE94DC
:103C500093F4F407A3029400938501B4EF307077D6
:103C6000A3040400BDBF93F4F70F4DBF03479400B6
:103C700049FF85BFEFE2DFCB03A7418E954703469F
:103C800045002A846308F700A302C500A3040500C9
:103C90006FE05FCC83461500034724000345050011
:103CA00083473400A206C98E4207558FE207D98F99
:103CB000130716002302E400B2972380B70083475E
:103CC0004400834654001397870161871347F7FF29
:103CD0007D87F98F2302F400E39CF6FA8547A3045D
:103CE000F4002285CD3583479400E5FF6FE09FC641
:103CF000EFE27FC293874192C04B03C987019C4B7F
:103D00001357840062093369E900A1831306F003A5
:103D100081456204130519005D8CEFE03FC88346BE
:103D20001400054781552301D900034624002302CE
:103D3000E900834744002300B900A300C90023031E
:103D4000E900A302F9009305000F6382B72663EB35
:103D5000F52051476388E72E637AF714130720088C
:103D60006398E722034774008346640003465400C7
:103D700081450545EF10B00C03477400834664008D
:103D80000346540085450545EF10700B034774004A
:103D9000834664000346540089450545EF10300A08
:103DA0000347A40083469400034684008D450545DF
:103DB000EF10F0080347A4008346940003468400F4
:103DC00091450545EF10B0070347A40083469400D2
:103DD0000346840095450545EF1070061309B400AD
:103DE00099449309100203472900834619000346AA
:103DF0000900A6858504054593F4F40FEF103004FF
:103E00000D09E39234FF0347B40B8346A40B03462A
:103E1000940B81450145EF1090020347B40B834694
:103E2000A40B0346940B85450145EF105001034751
:103E3000B40B8346A40B0346940B89450145EF1050
:103E400010000347840B8346740B0346640B8D45B7
:103E50000145EF10C07E0347840B8346740B034675
:103E6000640B91450145EF10807D0347840B834629
:103E7000740B0346640B95450145EF10407C130419
:103E8000340B99441309100203472400834614009D
:103E900003460400A6858504014593F4F40FEF1052
:103EA000007A7514E39224FF6FE03FAA41476384D0
:103EB000E71A4547639EE70C8345540003476400B7
:103EC0000945A303B9002304E900954513077900C8
:103ED000B2968506B697AE978507A301B90093F70A
:103EE000F70F3306A700834607000507B69793F739
:103EF000F70FE31AE6FE9305000E4A95A303F500BB
:103F000013854192853B054485449389419219A8C4
:103F100095338347390005041374F40F9107A28485
:103F200063CE8702CA9483C504004E859387050338
:103F300093F7F70EF1FF9305000D2D3B83C50400A9
:103F40004E850504FD1593F5F50F2D338347390094
:103F50001374F40FA2849107E3D687FCEF306071ED
:103F60006FE0BF9E9305200F638BB7129305300F50
:103F70006397B700A303E9002304E90029A013070E
:103F8000100F6397E7000D4599451307790089B72E
:103F900036967D57B2978D072302E9000D47A3019E
:103FA000E90093F7F70F9305000E0145B9B71767BE
:103FB00000001307679B0345070097650000938582
:103FC000659B03C3050083C8150003C82500A30330
:103FD000A90003C5350083C545008343170083420C
:103FE0002700834F3700034F4700834E5700034E8F
:103FF000670003477700230AB900FD552307E9004E
:10400000A30AB9002947930500FAA307E900A30909
:10401000A900230BB90023047900A3045900230548
:10402000F901A305E9012306D901A306C901230863
:104030006900A30819012309090113077900414503
:10404000CD4579B50347540005459145A303E900E3
:1040500013077900B5BD8146014681450545EF103E
:1040600080658146014681450145EF10C0640347E4
:104070002900834719000346490083465900BA972F
:104080008D0703476900B297B697BA970D478345E6
:104090000900A301E90093F7F70F0145B9BD130724
:1040A000A0FAA303E900130730052304E90009453A
:1040B00095451307790029BD8547238DF1868280B8
:1040C000EFE27F85138781905C4B83448701238DCA
:1040D0000186A183E204DD8C03C6540093056600CB
:1040E00093F5F50F2380B400D1C115069387140012
:1040F0001376F60F3E96268781478346070005070D
:10410000B69793F7F70FE31AC7FEA6952380F5003D
:10411000138581909305000EB13E014493898190EF
:1041200009A8893E83C7040005041374F40F63EDE6
:10413000870233898400834509004E8593870503F0
:1041400093F7F70EF9FF9305000D2D36834509000F
:104150004E850504FD1593F5F50F293E83C7040030
:104160001374F40FE3F787FC6FE02FFE814771BFF4
:10417000EFE20FFC93878190C04B03C787019C4BF4
:10418000935684006207558FA183130600083A8571
:10419000620481455D8CEFE07F8083462400034606
:1041A0001400834734002301D50099462300D5002D
:1041B000A300C500A301F500930610082A8763E752
:1041C000F6029306F00263F2F604938707FD93F775
:1041D000F70F9306100563EAF602975600009386E0
:1041E000E6798A07B6979C43B69782879306000FB5
:1041F0006385D7029306500F6399D7008547238DB7
:10420000F186EF3000476FE0EFF413060008BA853F
:1042100013850194EFE0CFF4D5B79767000093873B
:10422000678A83CE070003CE170003C3270083C825
:10423000370003C8470003C5570083C5670003C69E
:10424000770083C68700BD472300F700A547A30278
:10425000F7002303D701A303C70123046700A304C6
:10426000170123050701A305A7002306B700A3062E
:10427000C7002307D7008547238DF186EF30603FC5
:104280006FE04FED9D4685472300D500930640F92A
:104290002303D500A302F500238DF1869DB70346C5
:1042A00094001387C1868146914513055400EF2081
:1042B000004F81BF0345940093056700EF20205A0B
:1042C00089B785450145EF20A0468547238DF186B6
:1042D0000DBF81450145EF20A0458547238DF1861F
:1042E0000DB7EF20C06631BF03485400034564009A
:1042F0008345740003468400834694000347A4006A
:104300009387C18623800701A380A7002381B7007C
:10431000A381C7002382D700A382E7008547238DAE
:10432000F186EF3000356FE0EFE2930700022302E1
:10433000F5008547238DF186E9B523010500930635
:10434000F00F1306F00F9305F00F0945EF10A0369C
:104350008547238DF18675B5EF10F0735DB5834603
:10436000740003466400834554000945EF10A034EF
:104370008547238DF18671B50348540003456400D9
:104380008345740003468400834694000347A400D9
:104390009387418785BF03469400138741878546ED
:1043A000914513055400EF20803FA1BDEFE2CFD52A
:1043B000138441921C48834B44010347A400A1830A
:1043C000E20BB3EBFB0055CF370B00019389B186AD
:1043D0007D1B130C000E954C930A000D138AA186C9
:1043E00013090002FD545C440346B4008346F40004
:1043F000B3F76701A207D18FB69783C7070003C63B
:10440000090063828709630C56096382570B834551
:10441000040103460A00144803474401A1826207CD
:10442000558F2E972300F7000347040105071377E4
:10443000F70F2308E40063F7EC0083C63B006D1719
:104440006301D7080347A4008345F400938607F36C
:10445000B336D0007D17B306D0403E961377F70FE2
:104460008505F58F2300CA002305E400A307B400E7
:104470002380F9002DFB0945EF50C01B0347A40022
:104480003DF36FE0EFCB630C5601238A01922300CA
:104490002A01A3819B00130600028145ADBF850759
:1044A0008345040103460A0093F7F70FADB77D1764
:1044B0001377F70F85062305E400A307D40005F75B
:1044C0005DBF6387C7020347A4008347F400238AC4
:1044D00001927D171377F70F850723850186A38542
:1044E00001862305E400A307F400E31E07EE61B78D
:1044F000EFF01F80C9BFEFE22FC1138481901C48E9
:10450000834444010347A400A183E204DD8C4DCF22
:10451000B70B0001138A9186FD1B130C000E138B41
:104520008186954C930A000DFD5901595C44034660
:10453000B4008346F400B3F77701A207D18FB69792
:1045400083C7070003460A00638287096304560B8A
:104550006386570B14480347440103460401A182B4
:104560006207558F32972300F70003470401034683
:104570000B0005071377F70F2308E40063F7EC003F
:1045800083C604007D176305D7080347A40083454D
:10459000F400938607F3B336D0007D17B306D040FE
:1045A0003E961377F70F8505F58F2300CB00230583
:1045B000E400A307B4002300FA002DFB0D45EF50E3
:1045C00060070347A4003DF36FE08FB76304560311
:1045D000238C01907D17238034011377F70F850614
:1045E0002384018623002A012305E400A307D400C5
:1045F00015FFE9B7850793F7F70FA9BF7D17137765
:10460000F70F85062305E400A307D40005F37DB763
:1046100085360347A4008347F400238C01907D175F
:104620001377F70F850723840186A384018623056A
:10463000E400A307F400E31B07EE49B7EFE24FAF36
:10464000B533553D13854192EFF0EFD71385819037
:10465000EFF06FD783C7A18799E36FE0AFAF8D34D9
:104660006FE04FAFEFE2CFAC9384C18003C404008E
:104670009307F00F630FF4021387C1878357070076
:10468000BD468507C207C1832310F70063E6F60A1B
:1046900009496301240F636089023DC83754004013
:1046A000B7050300850513050440EFE0BFD863108C
:1046B00005106FE02FAA8D47E31DF4FE3759004027
:1046C000B70507009385450813050940EFE09FD61D
:1046D0006DD1854513050940EFE09FCE83C7E18783
:1046E0009386D180850703C70600238FF186239E1A
:1046F000018683C7E18763EDE70C238F0186FD57B1
:104700002380F4009547E316F7FA2380860055B717
:1047100037540040B705020013050440EFE05FD3B3
:1047200049F9854513050440EFE07FC7854723809D
:10473000F400239E0186B5BF3754004013050440A2
:104740008545EFE09FCD130504408145EFE0FFCCA8
:10475000130504408145EFE09FC2854513050440E1
:10476000EFE0FFC123860180238F0186239E01860F
:104770006FE04F9E37540040B7050700938525082A
:1047800013050440EFE01FCBE30505F203C7E18703
:1047900093870181BA9783C5070013050440EFE0B2
:1047A0007FC68D472380F400239E018619B703C777
:1047B000E18793870185BA9783C5070001461305F2
:1047C0000440EFE09FC423802401239E0186D5B5D9
:1047D00023860180F9BD03C7C1809307F00F6303EF
:1047E000F7008280EFE2CF941384B1800345040088
:1047F000239E018623860180EF20305581451705D1
:104800000000130565E6EF20104C2300A4006FE0C4
:104810006F941345F5FF9357650093E707FC136703
:1048200005FC93F7F70F1377F70FA2073181D98FA4
:1048300093860181136505FC2390F6002381A60071
:1048400003C7C1809307F00F6303F7008280EFE294
:104850002F8E1384B18003450400239E0186238696
:104860000180EF20904E8145170500001305C5DF3C
:10487000EF2070452300A4006FE0CF8DEFE24F8B57
:10488000056497C7FF1F9387E7E713040480228618
:104890003E858145EFE08F90228683A5C181EFE0C0
:1048A0002F8C6FE02F8BEFE2AF88996773900780B2
:1048B000371702405C4301449384C18193E70708A2
:1048C0005CC313898181EFE02FF488402295EFE0EB
:1048D0006FF6832509008840A2952295EFE0AFF896
:1048E00013040410EFE02FF493070480E9FF371757
:1048F00002405C4393F7F7F75CC399679387870897
:10490000739007806FE00F85EFE28F821384014A76
:104910001306000481452285EFE04F889307A0FA33
:104920002300F4009307101E2311F400EF20101C45
:104930002312A400EF007034AA8713060004A28596
:1049400011452313F400EF30C0286FE0AF80B7F7B4
:10495000FF1F83A6877E03A7C77E83A7077F93DFFA
:10496000860013DF060193DE8601135E8700135372
:1049700007019358870113D8870093D5070113D6F1
:104980008701A301D5002301F501A300E501230060
:10499000D501A303E5002303C501A302650023029B
:1049A0001501A305F50023050501A304B5002304A3
:1049B000C500828091BFEFD2BFF71384014E034739
:1049C00004009307A00A6304F7006FD0BFF8130632
:1049D000E00381451385214AEFD05FFC03471400B3
:1049E000834724009384014A9306A0FAA380E4003D
:1049F0002380D4001307000B636AF7041397870121
:104A000061876346070209476381E70E4147639662
:104A1000E7061385414A253F93070011130600045A
:104A2000A68511452391F400EF30A01A79BF93C7F2
:104A3000070813070003636FF708175700001307F1
:104A400027098A07BA979C43BA9782871307200ED3
:104A5000638EE70A6377F7041307300E639CE7065B
:104A60009307301E13060004A68511452391F40018
:104A7000A38F0186EF30E01589BF0547639CE704EB
:104A800083A7818183C767001307101013060004F2
:104A9000A68511452391E4002382F400EF306013D2
:104AA0002DB71307000E6388E7001307100E6393FA
:104AB000E702993D19BF834744001307001E239165
:104AC000E400638C072205476380E71AFD57A38142
:104AD000F400E5BDFD57130600049385014A114516
:104AE0002391F400EF30E00ECDB50347440083A7D7
:104AF0008181130600042383E700A6859307201015
:104B000011452391F400EF30C00CC1B58547A38F48
:104B1000F186130600049307201EA68511452391F4
:104B2000F400EF30000B55B5034544009307F00F38
:104B300083488400834594000347A400630EF52A4C
:104B40009306000F034854006303D5326300F82A2C
:104B5000AE864686C285EF00902E9307001B130693
:104B600000049385014A11452391F400EF3060065B
:104B7000A9BDEF20A0772A84EF20E07693170401E7
:104B800013170501C183D98F130600041307101AE8
:104B90009385014A11452391E400DCC0EF306003A6
:104BA0002DB583A7818183C6370003C6270003C7BD
:104BB000470083C75700A206D18E4207558FE207F0
:104BC000D98FDCC013060004930710199385014A9E
:104BD00011452391F400EF20D07FC5BB83454400ED
:104BE00003465400834664000347740083A7818111
:104BF0002381B700A381C7002382D700A382E700E7
:104C000013060004930700199385014A1145239167
:104C1000F400EF20107C55BB793193071018130670
:104C200000049385014A11452391F400EF20707A26
:104C300069BBA93193070018130600049385014A44
:104C400011452391F400EF20D07841B3EF205002BA
:104C50009307001A130600049385014A1145239116
:104C6000F400EF20107795B383455400054593D6A3
:104C7000250013D61500858A058A8589EF00D02383
:104C8000834564000D4593D6250013D61500858A0B
:104C9000058A8589EF00502283457400154593D617
:104CA000250013D61500858A058A8589EF00D02056
:104CB00083458400014593D6250013D61500858AC7
:104CC000058A8589EF00501F83459400094593D6D6
:104CD000250013D61500858A058A8589EF00D01D29
:104CE0008345A400114593D6250013D61500858A67
:104CF000058A8589EF00501CC9B9034774008346B3
:104D000064000346540081450545EF0050130347F6
:104D1000A400834694000346840085450545EF00C2
:104D200010120347D4008346C4000346B4008945EB
:104D30000545EF00D010034704018346F400034605
:104D4000E4008D450545EF00900F0347340183468D
:104D500024010346140191450545EF00500E034719
:104D60006401834654010346440195450545EF001F
:104D7000100D034794018346840103467401814565
:104D80000145EF00D00B0347C4018346B40103463D
:104D9000A40185450145EF00900A0347F4018346CD
:104DA000E4010346D40189450145EF00500903475A
:104DB000240283461402034604028D450145EF0098
:104DC00010080347540283464402034634029145C7
:104DD0000145EF00D0060347840283467402034670
:104DE000640295450145EF009005C5B62E86BA864A
:104DF000C685EF00500C95B33A864685EF00900BC0
:104E00008346A40003469400834584000545EF00D3
:104E1000B00A8346A40003469400834584000D45F0
:104E2000EF0090098346A400034694008345840064
:104E30001545EF0070088346A4000346940083459F
:104E400084000145EF0050078346A4000346940008
:104E5000834584000945EF0030068346A4000346DD
:104E60009400834584001145EF001005FDB12E86A6
:104E7000BA86C6854285EF003004C5B183A781811B
:104E800003C7670085476303F70082809387415318
:104E900013874157138841578843CC439047D447E1
:104EA00008C34CC310C754C7C1074107E39607FFA7
:104EB000130600049385415705456F209051EFD2AA
:104EC0009FA59387415B83C6070041476386E60041
:104ED000EF20207A6FD07FA703C717008D466301AC
:104EE000D70A63EDE60085476305F70A8947E311B2
:104EF000F7FE93070003A38AF154D9BF9146E31943
:104F0000D7FC83C4270003C7370083C64700C20409
:104F100093178700DD8CD58C17540000130484C7C9
:104F200005499D498346B4000346A4008345940087
:104F30001305F9FFB3D6D40033D6C400B3D5B400FB
:104F4000858A058A85891375F50FEF00E07683461B
:104F5000240003461400834504004A85B3D6D400D8
:104F600033D6C400B3D5B4000909858A058A85897A
:104F70001379F90FEF0040740D04E31539FB89BF75
:104F8000A38A0154A3860154239701542388015412
:104F900081B7138411820345040093070003A38A99
:104FA000F154EF20805A994517050000130545ED8F
:104FB000EF2060512300A40021BFEFD27F9783C769
:104FC0004188B9E71306E002814513856158EFD0A7
:104FD000FF9C9387015283A8070003A847009447CA
:104FE000D84783D70701938541574946054523A0F4
:104FF000150123A2050194C5D8C52398F500EF201B
:10500000503D09E585472382F18801456FD09F9483
:1050100093874182984383C747009385415723ACC8
:10502000015623AE01561546054523A0015823A27B
:10503000015823A4015823A6015823A8015823AAE4
:10504000015823AC015823AE015823A0015A23A2D2
:10505000015A23A4015A23A6015A23A8015A98C130
:105060002382F500EF20F03655F1238201880145B7
:1050700071BFEFD2FF8B83A7818183C76700094788
:105080006389E7020D476389E70605476387E702FF
:105090001384018203450400EF20804D85451705E8
:1050A0000000130545FDEF2020462300A4006FD02B
:1050B0007F8AEFF03F906FD0FF8903C51182EF2008
:1050C000804D938741531387415713884157884335
:1050D000CC439047D44708C34CC310C754C7C1073B
:1050E0004107E39607FF13060004938541570545E2
:1050F000EF20302E51FD65BF83C7318899CB753DB8
:1051000041F983C74188C5F7A381018823810188BC
:1051100079BF23820188553525FD83C7218889C73A
:105120008547A381F188ADB72382018849B7EFD2C3
:105130008FFE83D7618813D7870093894153A3805B
:10514000F9002381E900A388015423990154238A9B
:10515000015497540000938424A701443D492285BB
:10516000392605041374F40F19C983C7040083C6D4
:105170001400CE9703C7D701558FA38EE70089048B
:10518000E31F24FD03C7090283C7E9018396A188B1
:10519000134707F893C707042380E902238FF90018
:1051A00063C406006FD06FFA3D45D12465DD03C7A7
:1051B000A90183C7C90105078507238DE900238E4F
:1051C000F9006FD08FF8EFD20FF583D7618893C7BE
:1051D000F7FFC207C1831387018885830356070041
:1051E0009386418293D58700A380F6002381B60081
:1051F0006303F60885462381D1884546814513859A
:1052000011522310F700EFD06FF913890152930761
:1052100010032300F900975400009384E49801449C
:10522000130A0021C149B3578A00858B1375F40F07
:1052300085E3352C3307890001CD8347190003C668
:10524000040083C61400D18FA300F9002301D70006
:1052500005048904E31934FD1145112C09E5930770
:1052600030032303F9002545192401E59147A305DF
:10527000F9006FD08FED2381018841B7EFD24FEB5A
:10528000D920E52A9387C18883D407002390A700FB
:105290002A84B34795002395F188EF10B062EF2080
:1052A000E004138781889347F5FFC2078356070000
:1052B000C1832393F1886383F6022310F700EF2064
:1052C000403B83A7818183C7670005476380E7026E
:1052D0000D47638BE700713B6FD0CFE72310D700FA
:1052E000E31F94FC6FD00FE7F93DF5B78935E5B7BB
:1052F00093171500138741603E9793864162835749
:105300000700AA9603C6060086078D46D18FC207FE
:10531000C1832310F7006381D70241679306F7FF2B
:10532000638CD70071176383E70091E79387415F30
:10533000AA972380070082809387415FAA97054739
:105340002380E7008280EFD2AFDB37140140854530
:1053500013050480EFD07FEFB94513050480EFD02B
:105360005FED371B014093050040130504C0938A8D
:105370004162EFD01FEC8144214A13090BC08D49D3
:10538000154C914C054D930B0B802945EFD00FE246
:10539000D68D0144B3158A00C205C1814A85EFD07C
:1053A0001FE7133515002380AD000504950DE313A9
:1053B00034FF8504850A6385840763823405638628
:1053C00094036385A409914513050B80EFD0FFE793
:1053D000AD4513050B80EFD0DFE5930500401305C5
:1053E0000BC0EFD01FE589444DB74A8593050040B7
:1053F000EFD0BFE5BD455E85EFD0BFE379B71305BC
:105400000B80A145EFD07FE413050B809D45EFD0C5
:105410005FE29305004013050BC0EFD09FE1B5B7E5
:10542000C14513050B80EFD09FDE13351500938720
:105430004162A387A7000144C14422850504137477
:10544000F40F7D35E31B94FE6FD04FCF13050B8017
:105450008945EFD09FDF13050B80B545EFD07FDD89
:105460009305004013050BC0EFD0BFDC39BF938715
:10547000415FAA9703C5070082809386415F8147F9
:105480000145414603C7060085063317F700598DCD
:10549000420585074181E397C7FE8280C205D18D11
:1054A000220533E6A50097CEFF1F938E6E6C014E4A
:1054B00097C2FF1F938242BE930FD039FD5513034D
:1054C000D0340D4FB308FE037688154596982320F7
:1054D000C800B386A8005D47B357E600858BFD176B
:1054E00093F7A7FB938737072380F6007D17850680
:1054F000E314B7FE61051108E31B65FC050E938EEE
:10550000CE08E311EEFD82801308C00833080503BE
:105510001307D0394206A205558E4D8E1303D034A1
:10552000FD55B307E50217C7FF1F130767643A98D5
:1055300017C7FF1F130747B61545B388E700232099
:10554000C800B386A8005D47B357E600858BFD17FA
:1055500093F7A7FB938737072380F6007D1785060F
:10556000E314B7FE61051108E31B65FC8280EFD2EE
:105570002FBC13050020EFD01FA019E16FD08FBD05
:1055800013050002EFD03F9F75D937052000EFD0FB
:105590009F9E6DD513050020EFD0DF9E13050002FE
:1055A000EFD05F9E37052000EFD0DF9DB7040040AD
:1055B00013850440814537040240EFE02FA6130510
:1055C00004038145EFD09F991305C4018145EFD0B5
:1055D000FF981305C4068145EFD05F9813050403B7
:1055E0009305D039EFD0FF981305C4019305D03946
:1055F000EFD03F981305C4069305D039EFD07F97BD
:105600001305C4018545EFD07F9513050403854537
:10561000EFD0DF941305C4068545EFD03F94854550
:1056200013850440EFE08F9F6FD0CFB2EFD24FB021
:10563000EF2040132D3FEFF00F9A6FD0AFB19307DB
:10564000200263F3B70082809308D039B3081503B2
:10565000131835002A98939715000A08AE97330857
:10566000A84013950601C295939637002206B367AA
:10567000E5005D8E1397250097C7FF1F9387474F5F
:10568000BA979506C69690C397C7FF1F9387C7A082
:10569000BE965D47FD55B357E600858BFD1793F722
:1056A000A7FB938737072380F6007D178506E31451
:1056B000B7FE8280E5B389BD3336C0000606B33736
:1056C000D000B335B000D18F8A0593860189CD8F84
:1056D00036952300F5000146BD47F55503C7060082
:1056E00085063317F700F517598EE399B7FE328513
:1056F00023ACC1886FF0EF918D4763F5A70617C7FC
:10570000FF1F130727618347070083461700D58FC4
:10571000B9E7834627009307F00F6392F6048347A7
:10572000370083464700BE9693F6F60F8DEAF917C9
:1057300093F7F70FA301F7006366F50203465700DE
:105740009306500D631DD60003476700850593F54A
:10575000F50F6316B7001395070141858280130585
:10576000300F82801305400F8280EFD26F9C397119
:10577000894717B4FF1F1304E4892300F100930540
:10578000803E93073020170500001305E51B23100A
:10579000F400EF10705797B7FF1F9387278983C6D0
:1057A000970003C6870003C7A70083C7B700A206F8
:1057B000D18E4207558FE2072A88D98F0A85814604
:1057C00001468545A3010401829721616FD08F981E
:1057D000EFD20F96397193074011856517B4FF1FFB
:1057E000130444833EC09385853893073010170512
:1057F0000000130565152310F400EF10F05097B763
:10580000FF1F9387A78283C6970003C6870003C73D
:10581000A70083C7B700A206D18E4207558FE207C3
:105820002A88D98F0A85814601469145A301040142
:10583000829721616FD00F92EFD28F8FB707FF0150
:105840003971938727533EC0C14717A4FF1F130424
:10585000647C2302F1009305803E930730301705E6
:1058600000001305650E2310F400EF10F04997A710
:10587000FF1F9387A77B83C6970003C6870003C7D4
:10588000A70083C7B700A206D18E4207558FE20753
:105890002A88D98F0A85814601469545A3010401CE
:1058A000829721616FD00F8BEFD28F889387819081
:1058B00003C8270183C8170183C5370103C7470100
:1058C00003C66701220883C6770103C35701336803
:1058D0001801C205B3E5050183C7870162074D8F33
:1058E00022068348170003482700834537003366A4
:1058F00066001397060117A4FF1F1304A471518FAC
:10590000E207D98F8346340019472380E700A3803C
:10591000170123810701A381B700A3820700238217
:10592000A70085472300F4009307F00F6388F60073
:105930003685EF10F043FD57A301F400EFE0CFF7F9
:105940006FD04F819387819003C5270183C567017D
:1059500003CE170103C6370103C3570183C677017E
:1059600003C7470117A8FF1F1308C86A83C7870129
:105970002205A20583480800B3E565003365C5012B
:105980004206C206CD8E498E6207E2079545518FC9
:10599000D58F638DB804EFC2BFF9834618001D464A
:1059A0002300C8002946636BD60017460000130683
:1059B000A6238A06B2969442B296828603461700C0
:1059C000834627000347370099452380B700A3810A
:1059D000E7000D47A380C7002381D700A3820700FB
:1059E0002382E700EFE04FED6FC0DFF6854723002D
:1059F000F8008280034617008346270003473700DC
:105A00009D452380B700A381E7000547A380C70019
:105A10002381D70023820700A382E70023830700A6
:105A2000EFE08FE96FC01FF303461700834627009E
:105A30000347370099452380B700A381E700054756
:105A4000A380C7002381D700A38207002382E70039
:105A5000EFE08FE66FC01FF08346A70103451700F4
:105A60008345270003463700139746001377F70F47
:105A700013083701350723880700A3880700238907
:105A8000D70023800701A380A7002381B700A3814B
:105A9000C70023820700A382E700EFE0EFE1A9B788
:105AA000E931EFE06FE189B7413BEFE0EFE02DBF77
:105AB000034617008346270003473700C945238064
:105AC000B700A381E7003147A382E7000547A38021
:105AD000C7002381D70023880700A38807002382FB
:105AE000E700EFE06FDD09B7EFC2FFE297A7FF1F06
:105AF0009387C7531384819003C8D70003CFC7008F
:105B000003C6E700034524018345640183C7F7000A
:105B1000834E140183463401034E5401034774013C
:105B2000034344018348840122083368E8012205C5
:105B3000A20542063365D501B3E5C501336606010A
:105B40009389C189C2064207E2074D8FC98E62035D
:105B500013988801D18FCE8517C5FF1F1305851BAC
:105B6000B364E8003369D300238E0188829783C72A
:105B7000090089CF17AAFF1F130ACA4903470A0061
:105B80008D466307D7009147630AF7006FC0FFDBBC
:105B900011472300EA0015476360F70283471A00A4
:105BA0002947E365F7FE174700001307A7068A0792
:105BB000BA979C43BA97828717C5FF1F13058515AF
:105BC00003472500034645009306F00F718FE31746
:105BD000D7FC03470500834515000346350083467F
:105BE00055004D8F518F558F55FB938AA7FF5686D1
:105BF00097C5FF1F93856512EFC0FFD7238059011A
:105C000071BF03C5090093052003EFF0FFAE634D9C
:105C1000051603453A0095472300FA009307F00F55
:105C2000E306F5F6EF10D014FD57A301FA00B9BF53
:105C300003C509009305A004EFF01FAC634E0548AF
:105C400003453A0095472300FA009307F00F6307D6
:105C5000F500EF10F011FD57A301FA0003452401F0
:105C60000348140103466401834534018348540109
:105C7000834674010347440183478401220597C981
:105C8000FF1F93892909336505012206C20503C850
:105C9000790033661601C98DC20662074D8FD18E19
:105CA000E2078345170003462700D58F03473700D7
:105CB000631808429D462380D700A380B700238144
:105CC000C700A381E700054723820700A382E700FE
:105CD00023830400EFE04FBE55BD03C509009305C3
:105CE0000004EFF07FA16341050A97C7FF1F83C738
:105CF000D7026393073E03453A0095472300FA0015
:105D00009307F00F6307F500EF109006FD57A3010E
:105D1000FA000345240183471401834534010347F6
:105D200044010346640122058348540183467401FB
:105D30005D8DC20583478401C98D62074D8F2206A0
:105D400003481700034527008345370033661601D3
:105D500013970601518FE207D98F19472380E70077
:105D6000A38007012381A700A381B7002382070036
:105D7000A3820700EFE04FB411BD03C50900D14570
:105D8000EFF09F97E35705E81145EFF0FFB1FDBB3A
:105D900003C509008945EFF03F96E35C05E6EDB7E2
:105DA00003C5090093050004EFF01F95E34E05FCC1
:105DB00097C7FF1F83C777F66390073203453A0002
:105DC00095472300FA009307F00F6307F500EF10E3
:105DD000207AFD57A301FA000345240183471401EB
:105DE000834534010347440103466401220503430C
:105DF0005401834674015D8DC20583478401C98DBA
:105E000062074D8F22068348170003482700034589
:105E100037003366660013970601518FE207D98F6A
:105E200059472380E7004147A381A700414697C512
:105E3000FF1F9385A5EEA38017012381070123820D
:105E40000700A382E70013856400EFC07FB1EFE095
:105E5000AFA62DBB03C509009305A004EFF0DF89B1
:105E6000634C052697C9FF1F9389C9EA83C7790048
:105E70006384072C05476391E72603C9990003C78C
:105E800089009307E9FE2302EA0093F7D70FE39D09
:105E900007EE03453A0095472300FA009307F00FF9
:105EA0006307F500EF10C06CFD57A301FA0097C718
:105EB000FF1F938727E61387940017C6FF1F13065B
:105EC000E6E583C6B70085070507A30FD7FE83C69F
:105ED0002701A303D700E396C7FE83C7040183C04D
:105EE000140183C3240183C2340183CF440103CF4F
:105EF000540183CE640103CE740103C3840183C8BB
:105F0000940003C8A40003C5B40083C5C40003C63D
:105F1000D40083C6E40003C7F4002306FA00A306F6
:105F20001A0023077A00A3075A002308FA01A308DE
:105F3000EA012309DA01A309CA01230A6A00A302BC
:105F40001A0123030A01A303AA002304BA00A3042D
:105F5000CA002305DA00A305EA00D147631AF90055
:105F600003C7B90183C7C901A30AEA00230BFA00DA
:105F70000345240183471401834534010347440149
:105F800003466401220583485401834674015D8DF4
:105F9000C20583478401C98D62074D8F22060348DD
:105FA0001700034527008345370033661601139712
:105FB0000601518FE207D98F65472380E7004D47DF
:105FC000A38007012381A700A381B700A382E70074
:105FD0002382070085472383F40093070002A383ED
:105FE000F400C1472384F400EFE00F8D45B603C5EC
:105FF000090093050004EFF02FF003453A009547A0
:106000002300FA009307F00F6307F500EF104056E6
:10601000FD57A301FA0083452401034564010348A9
:106020001401834634018348540103467401034735
:10603000440183478401A205B3E505012205C20698
:1060400033651501CD8E42066207558F498EE207F2
:106050008345170083463700D18F03462700314719
:10606000A382E70003C7540049452380A700A3800B
:10607000B7002381C700A381D700238207002388AC
:106080000400A38804002383E400EFE0EF82FDBC5A
:1060900003C509009305000497C9FF1F938989C7A9
:1060A000EFF08FE583C7790093F7F70395E703C710
:1060B00089009377F50F9386F7FFE397E6CC0347C4
:1060C0002A00F91712073107E390E7CC83C72901AB
:1060D00003C73901D98FE9CF0545EFF0EFFC7DB457
:1060E000A381E700B5461D472380D700A380B700F2
:1060F0002381C70023820700A382E70003C7C900EA
:1061000081472384E40005C33387F9008346D70021
:106110003387F4008507A304D70003C7C90093F7AA
:10612000F70FE3E3E7FE85472383F400C147A3832A
:10613000F400EFD07FF899BC03453A00954723005F
:10614000FA009307F00F6307F500EF106042FD5768
:10615000A301FA0003452401834714018345340158
:1061600003474401034664012205834854018346E2
:1061700074015D8DC20583478401C98D62074D8F0F
:10618000220603481700034527008345370033667E
:10619000160113970601518FE207D98F1D472380FF
:1061A000E700A38007012381A700A381B70021BED8
:1061B00003453A0095472300FA009307F00F630761
:1061C000F500EF10E03AFD57A301FA0083472A00DB
:1061D00085CF55469207058E938604013385970037
:1061E000A6851376F60F2E87B307E60093F7F70F11
:1061F000CE9783C7070005072309F700E316D7FEEC
:10620000C105C106E391A5FE0347A9012388040047
:10621000A38804002389E400034824018347140170
:106220000345340183464401834564012208034643
:106230007401034354013368F80042058347840125
:1062400033650501E206C98E1207A20583C8160050
:1062500003C8260003C536001377F70FB3E56500C2
:1062600093160601CD8E1306D700E207D58F4D0792
:106270009376F60F2380E700A3801701238107019F
:10628000A381A70023820700A382D7002383D40021
:10629000EFD09FE2E5B8EFC20FE813848190834509
:1062A0002401834614010347340183474401A205B6
:1062B00003466401D58D420783435401834674012C
:1062C0004D8FE20783458401D98F17A5FF1F130562
:1062D00065D483425500834F6500034F7500834E9C
:1062E0008500034E95000343A5008348B50003488D
:1062F000C50003C7E700220633667600C206D18ECA
:1063000013968501B364D600A38257009306170045
:106310002383F701A383E7012384D701A384C70163
:1063200023856700A385170123860701A383D40073
:10633000A1466304D71863F5E608B1476302F7285E
:106340009307400A631EF72E034524018347140177
:106350008345340103474401034664012205834811
:106360005401834674015D8DC20583478401C98D44
:1063700062074D8F22060348170003452700834517
:1063800037003366160113970601518FE207D98F44
:1063900045472380E7002D47A38007012381A700FD
:1063A000A381B70023820700A382E70023880400AB
:1063B00083C754002383F400EFD01FD06FC0EFD801
:1063C000630307189946631DD72603C9A70197A73A
:1063D000FF1F938777C403C307002301250183C8E8
:1063E000170003C8270003C5370083C5470003C64D
:1063F000570083C6670003C777008549A3896400F7
:10640000238A1401A38A0401238BA400A38BB40064
:10641000238CC400A38CD400238DE400630B3901CA
:1064200013060003814513853402EFC02FD7238262
:1064300034032389240123880400A388040003452E
:106440002401834714018345340103474401034673
:106450006401220583467401834854015D8DC205A1
:1064600083478401C98D62074D8F120922060348B4
:10647000170003452700834537003366160113795B
:10648000F90F13970601518F9306D900E207D98FB0
:106490004D0913F7F60F23802701A38007012381FD
:1064A000A700A381B70023820700A382E70023830C
:1064B000E400EFD07FC06FC04FC983486401034838
:1064C0002401834E540183457401034E1401034695
:1064D0003401034784018346440103C3A701220812
:1064E00093978800B3E7D7013368C801C205420615
:1064F00033660601DD8D931787011397860123010B
:106500006500518F0346270083463700CD8F8345B2
:1065100017003147A382E70003C754004945238091
:10652000A700A380B7002381C700A381D7002382DF
:10653000070023880400A38804002383E400EFD02D
:10654000BFB76FC08FC00348240183471401834540
:106550003401034744010346640122080343540104
:10656000834674013368F800C20583478401B3E5AC
:10657000050162074D8F2206834817000348270054
:10658000834537003366660013970601518FE20793
:10659000D98F69472380E7005147A38017012381E2
:1065A0000701A381B70023820700A382E700034706
:1065B000550183476501238CE400A38CF400CDBB17
:1065C00003482401834714018345340103474401F0
:1065D000034664012208034354018346740133686F
:1065E000F800C20583478401B3E5050162074D8FBA
:1065F0002206834817000348270083453700336687
:10660000660013970601518FE207D98F4D4723800B
:10661000E7003547A380170123810701A381B70055
:1066200023820700A382E70085472388F40083477D
:106630005501A388F400834765012389F4008DBBCD
:106640000345240183471401834534010347440172
:1066500003466401220583485401834674015D8D1D
:10666000C20583478401C98D62074D8F2206034806
:10667000170003452700834537003366160113973B
:106680000601518FE207D98F19472380E700A380C5
:1066900007012381A700A381B70023820700A382FB
:1066A00007008D472382F40021B3EFC26FA817A41F
:1066B000FF1F1304A49783461400034604000347F6
:1066C000240083473400A206D18E4207558FE2078B
:1066D000FD5617A6FF1FA300D694D98F8297834635
:1066E0005400034644000347640083477400A20635
:1066F000D18E4207558FE207D98F829793054006C6
:1067000017F5FFFF1305A506EF0010609305800C39
:1067100017F5FFFF13058512EF00105F9305C012F8
:1067200017F5FFFF1305050BEF00105E6FC08FA27A
:10673000EFC20FA03971B367B50017A4FF1F130490
:10674000648D130720132301F1009305803E930706
:10675000304017F5FFFF1305251F2310E10023101C
:10676000F400EF00705A97A7FF1F9387278C83C60A
:10677000970003C6870003C7A70083C7B700A20618
:10678000D18E4207558FE207A301A400D98F0A8555
:10679000814601468D45829721616FC0AF9BEFC254
:1067A0002F99834E0700034E1700034327008348A9
:1067B0003700034847001376F60F03475700B336F8
:1067C000D00039712E849317860093860606DD8EDD
:1067D0002286AA85930700141305A1002302D10184
:1067E000A302C10123036100A303110123040101DA
:1067F0002311D100A304E1002310F100EFC04F9654
:1068000097A4FF1F93840481930730609305803E13
:1068100017F5FFFF130545132390F400EF00D04E4A
:1068200097A7FF1F9387878083C6970003C68700BB
:1068300003C7A70083C7B700A206D18E4207558FB2
:106840009305A400E207A381A400D98F0A8581469D
:10685000014693F5F50F829721616FC0AF8FEFC2AC
:106860002F8D3971AA87130700141794FF1F130483
:10687000647A2310E100A301F100130700039307DA
:1068800030709305803E17F5FFFF1305E50B2301DC
:10689000E1002310F400EF0030479797FF1F938724
:1068A000E77883C6970003C6870003C7A70083C79E
:1068B000B700A206D18E4207558FE207A301A400BC
:1068C000D98F0A85814601469145829721616FC023
:1068D0006F88EFC2EF859317850021813971C98FC9
:1068E0002312F10041678567AE861794FF1F1304DA
:1068F0006472B2851307A7149387378017F5FFFFDB
:10690000130585043AC02303D1002310F400A30328
:106910000100EF00703F9797FF1F9387277183C691
:10692000970003C6870003C7A70083C7B700A20666
:10693000D18E4207558FE207A301A400D98F0A85A3
:1069400081460146A145829721616FC0AF80EFB2B9
:106950003FFE1384D189834704003971B5C793077B
:10696000A0149794FF1F9384E46A2310F100930509
:10697000803E9307305017F5FFFF1305E5FC239089
:10698000F40023010100EF0030389797FF1F938731
:10699000E76983C6970003C6870003C7A70083C7BC
:1069A000B700A206D18E4207558FE207A381A4004B
:1069B000D98F0A85814601468D45829781472300FC
:1069C000F40021616FB01FF941651306803E8545D3
:1069D0007D15013785472300F40021616FB09FF7D3
:1069E000EFB21FF579718545116502CA02CC02CE5E
:1069F00002D002D202D402D602C602C8EFC03FC9FA
:106A000085451145EFC0BFC83714014093070020EA
:106A10000D494C0813050480231AF100E1474ACCC4
:106A20003ECEEFC04FEA930700404C0813050480A8
:106A3000231AF10091473ECEEFC0EFE89307001014
:106A40004C0813050480231AF100C1473ECE4ACCFE
:106A5000EFC06FE7F167B7440140938707200C1040
:106A6000138504803ED0B7070C003ED423160102E4
:106A700002D2EFC0FFF813850480054693055052FB
:106A8000EFD08F8905469305404213850480EFD0EF
:106A9000AF889307501368002316F10085473EC85E
:106AA00023070100EFC0DF9E138504808545EFD0EA
:106AB000EF849305001013050480EFC08FF7456144
:106AC0006FB05FE9EFB2DFE6973700009387C7E862
:106AD0008C43D043944703D7C70083C7E7004111D5
:106AE000374401402EC032C236C42316E1002307CA
:106AF000F1008A841309F1001304048083C50400A3
:106B00002285EFD00F85930500082285EFD0AF8551
:106B10007DD98504E39424FF41016FB0BFE3EFB258
:106B20009FDF83470500AA8437450140AE8A1305DD
:106B300005808145B74901403289368A2384F18A2C
:106B40002A84EFD00F81930500082285EFD0AF8112
:106B50007DD9138509808145B7490140EFC07FFF8A
:106B600013840980930500082285EFC0DFFF7DD9DB
:106B7000138509809305F00FB7490140EFC07FFDF1
:106B800013840980930500082285EFC0DFFD7DD9BD
:106B9000B3874A0193F7F70F938517001385098090
:106BA00093C7F7FF374B014093F5F50F93F9F70FB4
:106BB00013040B80EFC0FFF9930500082285EFC096
:106BC0009FFA7DD9CE8513050B80B7490140EFC0F0
:106BD0005FF813840980930500082285EFC0BFF891
:106BE0007DD99305400D1385098037440140EFC0DE
:106BF0005FF613040480930500082285EFC0BFF6FA
:106C00007DD9638B0A0A37440140A69A9309400D47
:106C10001304048083C504002285EFC09FF393050D
:106C200000082285EFC03FF47DD983C704008504A6
:106C3000CE9793F9F70FE39F54FD630A0A02374496
:106C400001404A9A13040480834509002285EFC05D
:106C50005FF0930500082285EFC0FFF07DD98347E0
:106C600009000509CE9793F9F70FE31F2AFDB30535
:106C700030413745014093F5F50F13050580B744C2
:106C80000140EFC01FED13840480930500082285A6
:106C9000EFC07FED7DD981451385048037440140E5
:106CA000EFC03FEB13040480930500082285EFC07A
:106CB0009FEB7DD96FB07FC99309400DBDBF4111D6
:106CC00022C6374401409305505213050480EFC09B
:106CD0005FEA59E5374401409305404213050480BB
:106CE000EFC03FE91DC1035704808357448083C729
:106CF000E18985C31387118A9387418A0347070077
:106D0000BA9723800700238F018832444101730022
:106D1000203003C7118A9387418A3E978346070034
:106D20001387118AE1DE03C6F18989469385F189CB
:106D300063E8C60883C60500850693F6F60F238030
:106D4000D500834607000D46850693F6F60F23000F
:106D5000D70083460700E373D6FAA380018A79BF80
:106D600013050480EFC09FDF83C7E189A5F703C740
:106D7000118A9387418A3E97834607001387118AB9
:106D800013968601618693F6F60F634706028345E4
:106D900007000346070017B7FF1F1307A7FF9E054D
:106DA0002E97938516003697B29793F6F50F23002A
:106DB000A7002380D70039BF8547238FF18819BFEB
:106DC00083C6018A85062380D18A03C6018A8D463F
:106DD000E3F9C6F62380018AADB7EFB2DFB33749D6
:106DE00001400146AA84AE891305098093055052DB
:106DF000EFC09FD201469305404213050980EFC0C2
:106E0000BFD103C4F18925CC83C6018A939776004C
:106E100017B6FF1F130606F8B2979CC09387418AE6
:106E2000B69783C707008D461387F1892380F90041
:106E300083C7018A85072380F18A83C7018A63EDAE
:106E4000F602834707003744014013050480FD170D
:106E500093F7F70F0546930550522300F700EFC054
:106E6000BFCB13050480054693054042EFC0DFCA3F
:106E7000054422856FB07FAD2380018AD9B7130501
:106E80000980054693055052EFC01FC913050980BC
:106E9000054693054042EFC03FC822856FB0FFAA68
:106EA000EFB21FA94111AA842E8909A80344B10099
:106EB000B2452286EFB0DFAA230089009305B10016
:106EC0006800213FAA872685F5F341016FB09FA88E
:106ED000EFB21FA601118545116502C002C202C4AE
:106EE00002C602C802CA02CC231E0100EFC00FFC7A
:106EF00085452145EFC0AFF93714014061498D4404
:106F00008A85130504C085672310F1004AC426C290
:106F1000EFC06F9B8A85130504C089672310F100B9
:106F20004AC426C2EFC02F9A91678A85130504C010
:106F30002310F10091473EC4EFC0EF98E1778A85B6
:106F4000130504C02310F100374400404AC426C290
:106F5000EFC06F97130504808545EFC0BF80B7076A
:106F600004013EC6930700026C00130504803ECC6A
:106F70009D47231EF10002C802CAEFC00FF513059A
:106F8000048005468945EFC04FFC13050480054683
:106F90008545EFC08FFB854513050480EFC0CFF812
:106FA00005616FB03F9BEFB21F9779712A84AE895C
:106FB000054585453289B68402C202C402C602C8AC
:106FC00002CA02CC02CE02D002D202D402D6EFC054
:106FD0002FEA2285EFB09FE9C1473EC6930700081C
:106FE0004C003ECC228585674EC24AC426C83ED49A
:106FF00002CA02CE02D002D202D6EFB03FF2456101
:107000006FB0BF94EFB23F9179712A84AE89054584
:1070100085453289B68402C202C402C602C802CAC9
:1070200002CC02CE02D002D202D402D6EFC04FE48C
:107030002285EFB0BFE3930700083ECC9307001012
:107040003ECE930700404C003ED0228585674EC25D
:107050004AC426C83ED402C602CA02D202D6EFB043
:10706000FFEB45616FB07F8EEFB2FF8A79712A84A2
:10707000AE89054585453289B68402C202C402C67E
:1070800002C802CA02CC02CE02D002D202D402D678
:10709000EFC00FDE2285EFB07FDD930700084C00C4
:1070A0003ECC228585674EC24AC426C83ED402C65D
:1070B00002CA02CE02D002D202D6EFB03FE645614C
:1070C0006FB0BF88EFB2DF861387018C1C43854603
:1070D0006388D7008946638ED70EC5CF6FB09F8770
:1070E00037050200EFB03FE96307051C37050200D2
:1070F000EFB05FE90965EFB0FFE837450040814533
:1071000013050580EFC04FE21385818B03484500CE
:107110002A879385B18B9307F00F1736000013066B
:1071200026B2834617000507B58FB29783C70700BD
:10713000E319B7FE93C7F7FF93F7F70F6303F81848
:1071400037040240130584058145EFB03FE1130584
:1071500084059945EFB0FFE1130584058545EFB03F
:10716000FFDF130544048145EFB05FDF13054404DE
:107170009945EFB01FE0130544048545EFB01FDECD
:1071800037450040854513050580EFC0EFD96FB046
:107190006FFC9386818B83C7160083C5260003C6C8
:1071A000360083C64600CD8FD18FD58F1386D1820E
:1071B00083460600638407129387F6FF93F7F70F61
:1071C0002300F600C5EF85471CC3A38601826FB07C
:1071D0006FF80945EFB03FDAE30205F00945EFB07B
:1071E0007FDA97B7FF1F9387E7DC17B6FF1F1306F9
:1071F00066E4014783D6070089073697E31CF6FE4D
:10720000198393170701C1878395E18B3386B700F4
:107210008146634E060081CF05659306F5FF6358EE
:10722000A6006386D7002E9793160701C182938725
:10723000618B2390D70003D7070037040240130562
:1072400084001347F7FF420741832390E70003D7E9
:10725000070081451207420741832390E700EFB002
:10726000FFCF1305840093058004EFB09FD08545C0
:1072700013058400EFB09FCE6FB0CFEDC146E3FFA2
:10728000F6E43745004089471305058081451CC356
:1072900037040240A3860182EFC00FC9130584059D
:1072A0008145EFB0BFCB814513054404EFB01FCB40
:1072B000EF90106C25B50965EFB0FFCBE31805E240
:1072C00031BD8347250003471500A207D98F1397C7
:1072D0008700A183D98F239BF18A9DB593871600E0
:1072E00093F7F70FF1BD03D5618B82809385418BB6
:1072F00083D7050003D7618B93160701D98E63F9F5
:10730000E712B307F74093A7171093C717006396C8
:10731000070E1388C18A834708009388018B17B52D
:10732000FF1F130525C793961700369503A608007F
:1073300003530500938617003A9633066640935729
:1073400036009D8A23A0C8001386A18A2310E50079
:107350002300D8001397070183560600418323902A
:10736000E500BA876370D70CB387F64093A717047C
:1073700093C7170081C72310E600BA8603A781814F
:1073800083471700034707004165A207D98FBE96C0
:10739000C206E177C182BE96939716002167B69721
:1073A000BA9703C7C18263DBA70813950701418120
:1073B00063CE070215EF1386A1828357060063F39D
:1073C000A70A3307F54042074183AA86A1453685BF
:1073D00063FBE5009305000463E5E506B697858346
:1073E0001395070141812310D60082802DC70145E6
:1073F0002395A18223860182828097B7FF1F9387FE
:1074000067B91316370094C3D4C394C7D4C723A84D
:10741000C18A1386A18A835606002390E500BA87A5
:10742000E364D7F4958F93A7170493C7170099B710
:10743000998F93A7171093C71700D1BD7D1525DF2E
:1074400045BF13953600158D3E950D81420541814E
:107450002310D60082801386A182835706008146BE
:107460003E87ADB73387A74042074183AA86B9BF9D
:1074700003D7618BE177998F13970701418383A627
:10748000818121832380F600A380E6008280411160
:1074900022C637140040854513050480EFC0AFD3E2
:1074A00009E532444101730020301305048085450D
:1074B000EFC02FD41387418C1C43324485071CC373
:1074C0004101730020302A8817B7FF1F130707C335
:1074D000814741461443310799C68507E39CC7FE9F
:1074E0001305F00F828093961700BE968A0617B791
:1074F000FF1F130727C0369713F5F70F2324070143
:107500004CC32320070082802A8817B7FF1F130768
:10751000E7B2814741461443310799C68507E39C8A
:10752000C7FE1305F00F828093961700BE968A0659
:1075300017B7FF1F130707B0369713F5F70F23246C
:1075400007014CC3232007008280BD4763E1A702E7
:10755000131715002A970A0797B7FF1F938787B954
:10756000BA9723A4070023A2070023A00700828064
:10757000BD4763E1A702131715002A970A0797B7BB
:10758000FF1F938727ABBA9723A4070023A2070006
:1075900023A007008280BD4763EDA7009317150065
:1075A000AA978A0717B7FF1F1307C7B4BA9723A074
:1075B00007008280EFB2CFB7371400401305048074
:1075C00001468545EFC08FA7130504800546854514
:1075D00083A4418C17B4FF1F1304C4B123A2018CF0
:1075E00017B9FF1F130909BDEFC04FA5144499CA6D
:1075F0001C405840A6971CC03386E74063E4E70070
:1076000010C082963104E31324FF17B4FF1F130444
:1076100064A217B9FF1F1309E9AD14448DC21C40C1
:107620005840A6971CC03386E74063EAE70010C0C5
:107630008296232404002322040023200400310422
:10764000E31D24FD6FB00FB1EFB28FAEF957238762
:10765000F18217B4FF1F1304E4B797B4FF1F93849C
:1076600064B91C40110491C38297E31C94FE6FB06F
:107670006FAEEFB24FAA938481819C4083C63700DE
:1076800003C6270003C7470083C75700A206D18E51
:107690004207558FE207D98FB1C31389E1820345B1
:1076A00009009307E00F630DF502EFF07FEC9440C3
:1076B00017050000130585F903C7360003C6260029
:1076C00083C7460083C556002207518FC207D98F52
:1076D000E205DD8DEFF05FE32300A9006FB0EFA6B8
:1076E00017B4FF1F130404AD97B9FF1F938989AE28
:1076F0001C40110491C38297E31C34FFFD57230003
:10770000F9001305F00F55B797B5FF1F938585ACAA
:107710002E87814721461443110799C68507E39CAC
:10772000C7FE1305F00F828013972700BA9588C112
:1077300013F5F70F828097B5FF1F9385A5A72E87B6
:10774000814721461443110799C68507E39CC7FE6C
:107750001305F00F828013972700BA9588C113F59F
:10776000F70F828083A7818103C7770011C703C702
:1077700067008D476303F7008280EFB26F9B05457A
:10778000EFD0FFCE8547630DF50C81460146854558
:107790000545EFD07FF20945EFD07FCD85476301E6
:1077A000F5108146054681450D45EFD0FFF00D45AA
:1077B000EFD0FFCB85478546630EF50C014681452A
:1077C0001545EFD07FEF1145EFD07FCA9306F00F3C
:1077D00035E91306F00F9305F00FEFD0DFED1945F3
:1077E000EFD0FFC885476300F50A8146014685450D
:1077F0000145EFD07FEC1D45EFD07FC78547630D76
:10780000F5068146054681450945EFD0FFEA214549
:10781000EFD0FFC585478546630AF50401468145DB
:107820001145EFD07FE92545EFD07FC49306F00FD7
:107830000DE11306F00F9305F00F0545EFD0BFE7FC
:107840006FB04F9101469305F00F0145EFD0BFE6B1
:1078500079B701469305F00F0545EFD0DFE5CDB7C9
:10786000854605468545EFD03FE535B70546854554
:107870001145EFD07FE445BF85460546854509455E
:10788000EFD09FE369B78546054685450145EFD0B2
:10789000BFE295B7054685451545EFD0FFE125B711
:1078A0008546054685450D45EFD01FE109B7EFB286
:1078B0002F88EF901024EF90703313050040EFB045
:1078C0007FCA0545EF802076EF8080731305200383
:1078D000EFB06F91EFC09FFAEF90F039EF90104149
:1078E000EFA020112945EFB00F90EF90301FEF90DF
:1078F000101FEF90607BEF80100FEF802073EFE0A0
:10790000DFDAEF80701BD14517E5FFFF130545D285
:10791000EFF07FBB854517E5FFFF13056596EFF098
:107920009FBA954517D5FFFF130585D1EFF0BFB975
:10793000F94517E5FFFF1305651BEFF0DFB8EFF022
:107940007FC7F5BF37050400EFB06FEB7300203041
:107950009926730020308D4723A2F18E828097B73D
:10796000FF1F83C7C78B89C7954723A2F18E8280EB
:10797000854723A2F18E8280EFA29FFBAA842E84EA
:1079800011458545EFB0BFD0B1CC37660040032725
:1079900006C4C166F516758FB71701402320E6C4EB
:1079A00003A74780B716F0FFFD16758F23A2E78067
:1079B00003A7C780F9769386F67F758F23A6E780A5
:1079C00003A74780B7460400558F23A2E7803747B7
:1079D00002408327078039CC93E727002320F780D4
:1079E0006FA05FF7B766004003A706C4B717014052
:1079F000136727004207418323A0E6C403A74780FB
:107A0000B716F0FFFD16758F23A2E78003A7C78086
:107A1000F9769386F67F758F23A6E78003A74780C4
:107A2000B7360300558F23A2E780374702408327EC
:107A300007805DF0F59B2320F7806FA0BFF1828067
:107A4000EFA21FEF9385415B0545EF10506593074B
:107A500000046307F5000545EF10D03D6FA09FEFD0
:107A6000EFD0EFC50545EF10F03C6FA0BFEE828070
:107A7000EFA21FEC9385014E1145EF105062930762
:107A800000046307F5001145EF10D03A6FA09FEC9A
:107A9000EFC07FF21145EF10F0396FA0BFEBEFA2FE
:107AA0003FE9138441920347C4008346B4008347EF
:107AB000D4008345E4002207558FC207D98FE20521
:107AC000DD8D0945EF10B05DAA878965094523055D
:107AD000F400A3070400EF10102F6FA0BFE7EFA280
:107AE0003FE5B767004083A707C537370020490740
:107AF000C207C183BA9786079C431307000293F716
:107B0000F73F639DE7009387419203C7970019E70A
:107B100003C7570083C747006309F70093050002B6
:107B20000945EF10D0256FA0FFE2014681451305FE
:107B30002008EF10F053C5BFEFA29FDF13848190A0
:107B40000347C4008346B4008347D4008345E40060
:107B50002207558FC207D98FE205DD8D0D45EF1045
:107B60001054AA8789650D452305F400A307040076
:107B7000EF1070256FA01FDEEFA29FDBB7670040FC
:107B800083A707C5373700206907C207C183BA97A3
:107B900086079C431307000293F7F73F639DE700B6
:107BA0009387819003C7970019E703C7570083C7DE
:107BB00047006309F700930500020D45EF10301CE4
:107BC0006FA05FD90146814513053008EF10504A78
:107BD000C5BFEFA2FFD50D47AE843284630DE50625
:107BE000636CA7020547630FE50409476312E506C6
:107BF000EF10102393070003630CF504A68522867B
:107C000013052008EF10D046094593050003EF1037
:107C1000101701456FA01FD41147631BE502EF1039
:107C20003020930700036305F502A685228613051D
:107C30004008EF10F043114593050003EF10301496
:107C40000145C9BFEF10D01D930700036318F5026B
:107C500005456FA03FD0EF10B01C93070003E30968
:107C6000F5FEA685228613053008EF1070400D45FD
:107C700093050003EF10B010014569BFA685228669
:107C800013051008EF10D03E054593050003EF10D3
:107C9000100F014541B7EFA2BFC9376500408327E8
:107CA00005C541679305F7FFB7360020ED8F9906AC
:107CB000B69786079C43130707C003D6418DF98FFB
:107CC0000111638CC700832705C5137606C0ED8FAD
:107CD000B69786079843518F98C3B766004003A7AD
:107CE00046C49384418F83D704002399E18C03D742
:107CF000218D7D8F137707201384218D19CB416748
:107D00001307F7DF23A2E6C403C7018D0507238805
:107D1000E18C035704007D8F4207418763440718B5
:107D2000035704007D8F1377074019CFC16737676A
:107D300000409387F7BF2322F7C49787FF1F83A7CD
:107D4000674F829783D704000357040089667D8FAD
:107D5000758F19C73967B76600407D1723A2E6C43F
:107D60000357040085667D8F758F631207120357D2
:107D700004007D8F2D83058B05C383A78184A1EB30
:107D80000945EF00C076BD679387F77F37670040EE
:107D90002322F7C483D7040003570400F98F93F715
:107DA00007109DC3C166B76700401387F6EF23A293
:107DB000E7C403A787C413160701634C060023A674
:107DC000018C1D45EF00A07205616FA0BFB8AD2505
:107DD0005DBF1387C18C10438D45050610C3184342
:107DE000E3F1E5FE03A707C4218B61FF83A507C468
:107DF0001386F6FF9388818CB3F6C50023A0D800C4
:107E0000938707C081462148884393952600938530
:107E100005028A95718D23A0A5FE85069107E3953D
:107E200006FF83A60800B7650040B767004093E6E9
:107E3000160023A0D80083A60800F18E23A0D5C485
:107E400083A60800F99A23A0D80083A60800F18E23
:107E500023A0D5C483A647C493F60640E5DE416659
:107E60009306F6BF23A2D7C47D16938707C0A1450A
:107E700093162700938606028A9683A606FE91072C
:107E80000507F18E23AED7FEE314B7FE0DBFBD6725
:107E9000FD17376700402322F7C40145892D83D79A
:107EA0000400F1B5EF10002083D7040095BD97A71B
:107EB000FF1F83C7C73681C7954723A2F18E8280F3
:107EC000914723A2F18E8280828099E513352500A7
:107ED00013451500060582800945828011C5178566
:107EE000FF1F13056538828083A7C18F1D47239824
:107EF000E7008280EFA2DFA39384C18F9C40854678
:107F000003C7070003C6170083C527001377F707C9
:107F10006309D7029306100209456312D70263046E
:107F2000E60413070002631CE600170400001304B4
:107F3000244D80CF239907000145029401456FA08D
:107F40007FA1130720026385E5021307100209458C
:107F5000E397E5FE170400001304C44780CF0145F2
:107F600002949C40F9B717040000130464F7D1B7DA
:107F7000170400001304A443D5B703A7C18F834798
:107F8000070093061002014593F7F7076383D700B4
:107F900082808347170013072002E38BE7FE938755
:107FA000D7FDB337F000139517008280EFA25F98DA
:107FB00083A7C18F23850700B129B7650040B76744
:107FC00000408566938707C09386F6F0138605C246
:107FD00098439107758F23AEE7FEE39BC7FE930797
:107FE000F00F23A2F5C4EF10B0068145014523A28E
:107FF000018EEFF07F985145EFA0FF9E8545054526
:10800000EFF09F976FA01F95EFA29F9283A7C18F5C
:1080100017A700000347B791A384E7002395070043
:108020000145EF10C052930500200145EF10205389
:10803000C1450145EF10A054930500050145EF101F
:10804000206D930500060145EF10806A0145EF1091
:1080500080629785FF1F83C565200145EF1060731F
:108060000145EF10205D37670040832707C0916608
:10807000F58F89CF832707C085669386F6F0F58F45
:10808000B16693860608D58F2320F7C03767004076
:10809000832707C093F7070489CF832707C0856626
:1080A0009386F6F0F58FA1669386060CD58F232074
:1080B000F7C0930500600545EF10604A9305000284
:1080C0000545EF10C04B930500070545EF104062D2
:1080D0009305000B0545EF10A063930500040545CB
:1080E000EF10206B8D650545EF10E04D37670040C0
:1080F000832747C093F7070489CF832747C0856646
:108100009386F6F0F58FA1669386060CD58F232211
:10811000F7C037670040832747C09166F58F89CF46
:10812000832747C085669386F6F0F58FB166938600
:108130000608D58F2322F7C081450945EF1020425C
:10814000930500020945EF1080439305000D094592
:10815000EF10005A9305000F0945EF10605B93057F
:1081600000020945EF10E0628D650945EF10A0455A
:1081700037670040832787C09166F58F89CF8327B3
:1081800087C085669386F6F0F58FB16693860608FC
:10819000D58F2324F7C037670040832787C093F724
:1081A000070489CF832787C085669386F6F0F58F0D
:1081B000A1669386060CD58F2324F7C081450D4513
:1081C000EF10E039930500020D45EF10403B930599
:1081D00000110D45EF10C051930500130D45EF1030
:1081E0002053930500020D45EF10A05A8D650D45F3
:1081F000EF10603D376700408327C7C09166F58F59
:1082000089CF8327C7C085669386F6F0F58FB16660
:1082100093860608D58F2326F7C03767004083274B
:10822000C7C093F7070489CF8327C7C085669386A5
:10823000F6F0F58FA1669386060CD58F2326F7C03E
:10824000930500601145EF10803193050002114540
:10825000EF10E032930500171145EF1060499305C8
:10826000001B1145EF10C04A930500041145EF10A3
:1082700040528D651145EF10003537670040832768
:1082800007C193F7070489CF832707C185669386C3
:10829000F6F0F58FA1669386060CD58F2328F7C0DC
:1082A00037670040832707C19166F58F89CF832701
:1082B00007C185669386F6F0F58FB166938606084A
:1082C000D58F2328F7C00145EF00B059854723A279
:1082D000F18E6FA02FE89385C1836F00007893859E
