:042800006F60702A6B
:102804000028000000000000E43B0000E83B00005A
:1028140000000000A492000000000000000000007E
:10282400A4920000A4920000000000000000000038
:10283400A492000000000000A49200000000000028
:10284400A4920000A4920000A4920000A4920000AC
:10285400A4920000A4920000A4920000A49200009C
:10286400A4920000A4920000A4920000A49200008C
:10287400A4920000A4920000A4920000A49200007C
:10288400A4920000A4920000A4920000A49200006C
:102894004E710000A4920000A4920000A4920000D3
:1028A400A4920000A4920000A4920000A49200004C
:1028B400A4920000A4920000A86D0000A49200005D
:1028C400A4920000A4920000A4920000A49200002C
:1028D400A492000046670000A4920000A4920000A5
:1028E400A4920000A492000042710000A49200008F
:0C28F400A4920000A4920000A492000036
:10290000397101436EC619A0397141536AC866CA4C
:1029100062CC5ECE19A0397101535AD056D252D42E
:102920004ED64AD826DA22DC06DE330161408282A6
:1029300041114AC026C222C406C68282B24D41015C
:10294000024D924C224CB24B4101024B924A224A18
:10295000B2494101024992442244B240410182807D
:102960003D432A876373C3029377F700BDEFADE55C
:10297000937606FF3D8ABA960CC34CC30CC74CC76E
:102980004107E36BD7FE11E28280B306C3408A069B
:102990009702000096966780A6002307B700A3065B
:1029A000B7002306B700A305B7002305B700A304AB
:1029B000B7002304B700A303B7002303B700A302A3
:1029C000B7002302B700A301B7002301B700A3009B
:1029D000B7002300B700828093F5F50F939685002A
:1029E000D58D93960501D58D61B7939627009702F3
:1029F000000096968682E78086FA9680C1171D8F22
:102A00003E96E374C3F8A5B7B7F700E0CC43814620
:102A100037F700E0F999CCC383C521853386A50239
:102A200090CBD4CB944393E6060194C3944393E6AE
:102A3000160294C35C43858BF5DF1C43F99B1CC3D2
:102A40008280B7F700E0CC43814637F700E0F99980
:102A5000CCC383D501853386A50290CBD4CB9443D8
:102A600093E6060194C3944393E6160294C35C4331
:102A7000858BF5DF1C43F99B1CC382809C4103A816
:102A80008501D04DD4415841B3E70701D18F3706B6
:102A9000F1E0A2061306F6EF718FD58FD98F5CC1D6
:102AA000D0459C4994451845D18F37F6F1FF8606ED
:102AB0001306D67F718FD58FD98F1CC583C745016B
:102AC0005855B70610FFFD1793F7F70FFD16758FD2
:102AD000D207D98F5CD582801C4589C593E7170042
:102AE0001CC58280F99B1CC582801C4589C593E763
:102AF00007101CC5828093F7F7EF1CC582801C4528
:102B000093E787001CC5828008450D810589828076
:102B10001C4593E747001CC582800845098105894B
:102B200082801C4591C537075000D98F1CC5828013
:102B30003707B0FF7D17F98F1CC58280A54763F763
:102B4000B704138865FF131718008328C500429740
:102B50009D47B397E70093C7F7FFB3F71701B39605
:102B6000E600DD8E54C5994763E5C7047D169317CB
:102B700026003E965859FD47B397C70093C7F7FF05
:102B8000F98F3396C5005D8E50D98280139715005A
:102B9000032805012E979D47B397E70093C7F7FFDA
:102BA000B3F70701B396E600DD8E14C99947E3FF3A
:102BB000C7FAB14763E3C702130796FF131627004E
:102BC00014593A96FD47B397C70093C7F7FFF58F9F
:102BD0003396C5005D8E10D982804D1613172600DE
:102BE00054553A96FD47B397C70093C7F7FFF58F43
:102BF000B395C500DD8D4CD582805C4191C537070A
:102C00000004D98F5CC18280370700FC7D17F98FE3
:102C10005CC18280011123030100834761002547C5
:102C20006364F70425461C4593E787001CC51C45D3
:102C3000A18BF5FF1C4593E747001CC51C45918BF4
:102C4000F5FF744583476100034761000C10860758
:102C500005071377F70F2303E10003476100AE97E1
:102C60002396D7FEE371E6FC23030100834761004E
:102C700025476361F70A2146A545A3030100834761
:102C80007100636EF60603477100834771001410EC
:102C90000607850786073697B6970357C7FE83D77B
:102CA000C7FE63F3E7048347710008108607B697F1
:102CB00083D7C7FE2314F1000347710083467100D8
:102CC00083477100050706072A970358C7FE035577
:102CD0008100139716008507141036978607231670
:102CE00007FFB6972396A7FE83477100850793F7E2
:102CF000F70FA303F10083477100E376F6F88347EB
:102D00006100850793F7F70F2303F1008347610004
:102D1000E3F5F5F623140100231501002303010058
:102D20008347610015476366F70683476100141007
:102D30001307006089078607B69783D7C7FE636AC3
:102D4000F70495461306006019A883476100181020
:102D500089078607BA9783D7C7FE636CF602834755
:102D600061000C100357810089078607AE9783D74F
:102D7000C7FEBA97C207C1832314F10083476100DD
:102D8000850793F7F70F2303F10083476100E3FE04
:102D9000F6FA8347610093F7F70F6387071003572D
:102DA00081008345610083578100034661008346AB
:102DB00061003347B702B3E7C7028607B3C7D7023C
:102DC000BA97C207C1832314F100034761009947F2
:102DD000998F93F7F70FA303F1008347710093F7DF
:102DE000F70FE5C7834761001547636DF702954606
:102DF0008347610010100357A10089078607B29727
:102E000083D7C7FEBA97C207C1832315F100834752
:102E10006100850793F7F70F2303F10083476100F3
:102E2000E3F8F6FC0357A100834571008357A10026
:102E300003467100834671003347B702B3E7C70208
:102E40008607B3C7D702BA97C207C1832315F1001B
:102E5000035581008355A100835781000356A100CB
:102E600085661307004093860680B307F7403386D4
:102E7000C640098F8D8EC20742064186C187420730
:102E8000C206B297C1864187369713D6F70193568B
:102E9000F701B2973697858B0587918FBA9713956F
:102EA0000701418505618280930700402314F100EA
:102EB000034761009947998F93F7F70FA303F10038
:102EC0008347710093F7F70F91FF8567938707801A
:102ED0002315F100B5BF1C4141677917F98F1CC15B
:102EE000232005002322050023240500B707024004
:102EF00023260500138787006304E5041387C701B1
:102F0000630BE502138707036307E5041387470490
:102F1000630AE504138787056309E5021387C7067B
:102F20006307E504138707086309E5041387470966
:102F30006308E5008280D8431367070FD8C38280F7
:102F4000D8431367F700D8C38280D843B7060F0071
:102F5000558FD8C38280D8438566938606F0558FF7
:102F6000D8C38280D843BD66558FD8C38280D843EA
:102F7000B706F000558FD8C38280D843B706000F3C
:102F8000558FD8C3828090519C459449D84983A8D5
:102F90008501D18FD58FD04DD451D98FB3E717018B
:102FA000184103A88502D18FD58FE176BD06D045A3
:102FB000758FB3E707019441D98F1CC1DC4150C123
:102FC00014C55CC582801C4189C593E717001CC1EC
:102FD000828041677917F98F1CC182804CC1828041
:102FE000B70702409C437D8D3335A0008280B70730
:102FF0000240C8C3828058410C410328C500B7066F
:103000000140938706403E9713C6F5FF630108040D
:1030100083A80640032885004143B3F8C80023A0D5
:103020001641D443758ED0C31443D58D0CC31841BB
:1030300090479346F7FF758E90C7D047F18ED4C75F
:10304000630B6800C2979443558F98C382801C43DA
:103050007D8E10C382809447D98E94C7D447558FF4
:10306000D8C78280B707014023AAA7408280B7064D
:103070006745B7270240938636123797EFCDD4C302
:103080001307B79AD8C3D4D3D8D382803727024046
:103090001C4BA166D58F1CCB8280B7270240984B72
:1030A000B7060200137505F0558F98CBC8CB944B2B
:1030B0003727024093E6060494CB5C47858BF5FFE7
:1030C0001C4B8176FD16F58F1CCB82803727024082
:1030D0001C4BC166137505F0D58F1CCB5C47858BE7
:1030E000F5FF372702405C47898BF5FFAE86158DCB
:1030F00093850510372702409042B387A6009106BA
:1031000090C35C47898BF5FFE398D5FE1C4B3706CF
:103110002000B7260240D18F1CCBDC46858BF5FF03
:103120009C4A41777D17F98F9CCA828003A885004D
:10313000937708011373F80081C7DC413363F30010
:10314000B7270240985BB707000FF98FE9E785477B
:10315000A389F184B71701406306F50C83D60500F7
:1031600093F7F60FADE39307F00F63FDD7048328C1
:103170004500A147854EBD4F130F80029302800486
:10318000414E21A08507638DC7033397FE00B375B9
:10319000D700E319B7FE139627000116B395CF00A9
:1031A00093C5F5FFB3F815013316C300B3681601D4
:1031B0006303E809E31858FC18C98507E397C7FDBE
:1031C0002322150182800C418147854EBD4F130F8C
:1031D000800293028004214E21A08507638BC703E0
:1031E0003397FE003376D700E319C7FE1396270006
:1031F000B398CF0093C8F8FFB3F5B8003316C300F7
:10320000D18D6308E803E31A58FC18C98507E399D0
:10321000C7FD0CC189BFB7170140E311F5F483C79F
:1032200031858DDF83D60500B5822390D500C1FEA0
:10323000828058C95DB758C9B1B7B7170140630755
:10324000F50008456D8D3335A000828083C7318538
:10325000EDDB0845B5816D8D3335A0008280B71751
:1032600001406304F5000CC9828083C73185E5DF26
:10327000B5810CC98280B71701406304F5004CC9C1
:10328000828083C73185E5DFB5814CC98280EFF24A
:103290002FEA01112A848354450068002E893D26B7
:1032A000D246B7470F0093870724B3D7F602C2046C
:1032B000C18093F404FCC204C18003260900616547
:1032C0001305056A93950701C181CD8C23129400E3
:1032D0000357040042074183799B4207418323102F
:1032E000E4006365C5060606B3D6C6021147C206EA
:1032F000C182B68763EAE6048505C205C18193965B
:103300000701C1822310B402231ED4000357040016
:10331000835649008355A900136717002310E40062
:10332000835704000357C90003568900C207C183AD
:10333000CD8E93F757BFD58F2310F400518F2314F0
:10334000E40005616FF00FE191477DB78355690097
:1033500031677D176382E5041317160032970E0755
:103360003A96B3D6C6021167C206C182D98E1397A8
:10337000460119E393E616001307C012B387E7026C
:103380002167D98E1307803EB3C7E7028507C207BE
:10339000C1832310F4028DBF131716003A96B3D6DB
:1033A000C602C206C182E1B78357050091C593E703
:1033B00017002310F5008280C207C183F99BC20762
:1033C000C1832310F50082808357050091C593E7E0
:1033D00007102310F5008280C207C18393F7F7EF2F
:1033E000C207C1832310F50082808357050091C571
:1033F00093E707202310F5008280C207C18393F76B
:10340000F7DFC207C1832310F500828083570500D0
:1034100091C593E707402310F5008280C207C1835E
:1034200093F7F7BFC207C1832310F50082802318EA
:10343000B500828093F7E50F19C293E71500C20724
:10344000C1832318F5008280035745018357850106
:1034500013950701598D6D8D220521810D8D133531
:1034600015008280411102C402C693D7C5012AC645
:103470003EC4A247A205A18199CBB247D1073EC65F
:10348000B247884341016D8D3335A0008280B24739
:10349000C181E1073EC6B247884341016D8D333596
:1034A000A00082809387418598438346050031E3DD
:1034B0008347250037E700E09207369793F7F70F29
:1034C0002300F7405041054793D756003317D700E4
:1034D00009CA938707048A07B7E600E0B69798C33E
:1034E0008280938707068A07B7E600E0B69798C3FD
:1034F000828098430546630BC7028C430947638665
:10350000E50498430D466309C70098439147E31BC0
:10351000F7FA8347150079BF034615008347250056
:10352000636CC7040606B297920701A8834725007B
:103530000346150092076307E60237E700E093F7BA
:10354000F70F36972300F740B5BF034715008347B1
:1035500025006378E6021307E7030A07BA9793F793
:10356000F70F920793E707F837E700E093F7F70FB5
:1035700036972300F740B9B71306C6070606B29779
:10358000F9BF0A07BA9792074DBFB7160240DC424F
:1035900071771307F77FF98F0E055D8DC8C28280A2
:1035A000B7170240D843B70640FFFD16758FD8C342
:1035B000D8435A05598DC8C38280B7160240DC42F1
:1035C00051777D17F98F5D8DC8C282803717024011
:1035D0005C439146B18B6385D700A1466386D706CD
:1035E000B7177A00938707201CC13716024058424C
:1035F00097D6FF1F938606A111833D8B369703470D
:103600000700B3D7E7005CC1584221831D8B369772
:103610000347070033D7E70018C558422D831D8B99
:10362000BA9603C7060097D6FF1F938626BFB3D767
:10363000E7005CC5584239830D8B36970347070076
:10364000B3D7E7021CC982805C4358434166C983F3
:10365000BD8B8907C546718F6380D70419EF374743
:10366000024003270780418B05C337177A001307F1
:103670000720B387E7021CC18DBF371702405843AC
:103680009316E700E3D306FE37173D0013070790B4
:10369000B387E7021CC191BFC94765F3C9B799C594
:1036A000371702405C4B5D8D48CB8280B7170240D4
:1036B000D84B1345F5FF798DC8CB828099C5371754
:1036C00002401C4F5D8D08CF8280B7170240984F93
:1036D0001345F5FF798D88CF828099C53717024051
:1036E0005C4F5D8D48CF8280B7170240D84F13459D
:1036F000F5FF798DC8CF828003D6250083D70500DA
:1037000003D7450083D6650083D88500D18F03D8C1
:10371000A500D98FD58F03D7C500B3E7170103568E
:10372000050083D6E500B3E70701D98F0D671307BE
:103730000704718FD58FD98F2310F5008356C501EB
:10374000FD7703D705019387F77FF58F231EF500DB
:103750002318E50082808357050091C593E707048D
:103760002310F5008280C207C18393F7F7FBC207DD
:10377000C1832310F50082808357450009C6DD8D83
:103780002312B500828093C5F5FFFD8D2312B5008D
:1037900082808357450091C593E747002312F500C7
:1037A0008280C207C183ED9BC207C1832312F5004B
:1037B000828083570500B7360140938606C0C20752
:1037C000C18303D6650083D8450003D8050063068E
:1037D000D504370700406300E50213070740630C78
:1037E000E50037170040930607806306D5001307EE
:1037F00007C06317E50003D7250093F7F7F8D98FC3
:1038000093F7F7CFD18F2310F50023161503231458
:1038100005038547231AF500828003D7250093F717
:10382000F7F85D8F1377F7CF518F2310E50023163C
:1038300015032314050383C785002318F502854764
:10384000231AF50082808357050091C593E717007E
:103850002310F5008280C207C183F99BC207C18390
:103860002310F50082808357C50009C6DD8D23161D
:10387000B500828093C5F5FFFD8D2316B5008280CB
:10388000EFF20F8BCD376FF0EF8C83578500C207B7
:10389000C183E19BC207C1832314F50082802314F6
:1038A000B502231AC500828083570500C207C18371
:1038B00093F7F7F8DD8D2310B500828083578501DB
:1038C000C207C183DD9BDD8D231CB5008280835739
:1038D000C501C207C183DD9BDD8D231EB50082803B
:1038E0000357C501FD779387F77FF98FA205CD8F29
:1038F000C207C183231EF500828083570502C207D9
:10390000C183F59BDD8D2310B502828083570502AC
:10391000A205C207C18393F7F7DFCD8FC207C1832A
:103920002310F502828003570502F977FD17F98FFE
:10393000B205CD8FC207C1832310F50282800357E1
:1039400005028547B397B70093C7F7FFF98F231098
:10395000F50283570502B315B600DD8DC205C1819E
:103960002310B5028280035705028547B397B7003D
:1039700093C7F7FFF98F2310F50293F775FF6105E1
:1039800095C3F115C205C1818581AA959C416577D2
:103990007D17F98F9CC19C412206420641825D8EB3
:1039A00090C182808581AA959C4193F7F7F89CC1CC
:1039B0009C415D8E90C182802312B50282802316C5
:1039C000B5028280231AB5028280231EB50282804E
:1039D0002310B504828083570500C207C18393F783
:1039E000F7CFC207C1832310F50083570500DD8D93
:1039F0002310B5008280835705010355C500ED8F64
:103A00004205418189C76D8D3335A0008280014513
:103A1000828093C5F5FFC205C1812318B50082805D
:103A2000EFE21FF18356050103D76500F577FD1717
:103A3000F58FD98F03D7C5002318F5002A840355C5
:103A4000C500AE84FD7783D5450003D684009387F7
:103A5000379F83D6A400E98FCD8FD18FD58F2316C2
:103A6000F4008357440101116800C207C18393F732
:103A7000F7CFD98F231AF400913EB74701409387BF
:103A80000780630DF40852478356C400931717004C
:103A9000BA97C2068E07C186BA97984063C00604DB
:103AA0000A07B3D7E702130740060356C4004206CD
:103AB0004186B3D6E702B3F7E702920663400604F5
:103AC000920793872703B3D7E702BD8BD58FC20731
:103AD000C1832314F40005616FE0DFE70607B3D765
:103AE000E702130740060356C40042064186B3D6D8
:103AF000E702B3F7E7029206E35406FC8E079387CA
:103B00002703B3D7E70213F77700B367D700C207DD
:103B1000C1832314F40005616FE0DFE36247ADB7B2
:103B200081C98357C5000967D98F2316F5008280A4
:103B30000357C500F977FD17F98F2316F50082802A
:103B400093F7F50F05479583B315B7006385E70233
:103B50008946130745016387D7001C4301CADD8DE1
:103B60000CC38280130705011C4375FA93C5F5FF4A
:103B7000FD8D0CC382801307C500C5B793F5F51FF3
:103B80002312B5008280035545001375F51F82800E
:103B9000035505006D8D3335A000828093F7F50F36
:103BA000854695833397B600638AD7028946638337
:103BB000D702835745017D8F835705000145C20712
:103BC000C18301CB0545A181B315B500ED8F333518
:103BD000F0008280835705017D8FF9BF8357C500B0
:103BE0007D8FD9BF7300203001A09387418C98430B
:103BF00095476303F7008280EFE29FD32A84034551
:103C00007500EF50003E930700026304F5006FE07B
:103C10007FD483455400834744006383F50663F4EF
:103C2000B700930700F8834484008D8F93F7F70F54
:103C300063F39700BE8483461400034604000347E1
:103C4000240083473400A206D18E4207558FE20735
:103C5000D98F2686BE95138581C5EF50606D834749
:103C60005400268603457400BE9493F4F407A3021F
:103C70009400938581C5EF301000A304040041BF78
:103C8000034794004DF361B78346150003480500D0
:103C9000034725008347350003464500A206B3E6E7
:103CA00006014207558FE207D98F1307160023023A
:103CB000E500B2972380B70083474500139787013B
:103CC00061876355070023020500814703475500BC
:103CD0006303F7008280EFE2BFC585472A84A3040F
:103CE000F5002285193783479400E5FF6FE09FC6F2
:103CF000EFE27FC2138701A61C4B034447011389DF
:103D000081BFA18313060004814562044A855D8C4E
:103D1000EFE01FC50348140085460156238D01BFFF
:103D200003472400238ED1BE238FD1BE8347440096
:103D3000238CC1BEA38CE1BEA38EF1BE1306200866
:103D40006382C71E6373F6141306100F638EC716C3
:103D5000637EF60A1306200F6380C72C1306300F0C
:103D6000639EC712A38FD1BE2380D1C00D46994652
:103D700036974297BA978907A38DD1BE93F7F70F6D
:103D800001478146CA9683C6760005071377F70F69
:103D9000B69793F7F70FBA86E346C7FE9305000E72
:103DA0004A96138501A6A303F6000544F13D9389C5
:103DB00001A6854421A8BA85C13D050483C7B1BFCA
:103DC0001374F40F9107A28463CE8702CA9403C7C9
:103DD00004004E859305000D9307070393F7F70E34
:103DE000F9FB5D3583C504004E850504FD1593F58B
:103DF000F50F593D83C7B1BF1374F40F9107A28427
:103E0000E3D687FCEF30401B6FE03FB49306000F12
:103E10006396D708975600009386C66403C666006B
:103E200003C5460083C5560083CE060003CE1600A8
:103E300003C3260083C8360083C67600A381A1C0D1
:103E40002382B1C0A382C1C02383D1C0A946A3836A
:103E5000D1C0B73631309386667323A4D1C09306A0
:103E600010042386D1C0FD56A386D1C0930600FA64
:103E70002387D1C0A38FD1BF2380C1C1A38061C0DC
:103E8000238111C14146CD46E5B5C5466381D704BE
:103E9000D1466389D704C146638DD704FD56238E6E
:103EA000D1BE9305000E05469306F00F13053700AB
:103EB0003307A800BA96B697B2970D47A38DE1BE17
:103EC00093F7F70F0146E9BD0D46994655B5834571
:103ED000540009469546A38FB1BE834564002380F4
:103EE000B1C079B58345540005469146A38FB1BE54
:103EF00041B58146014681450545EF108032814636
:103F0000014681450145EF10C03103C791BF03C889
:103F1000A1BF83C6C1BF83C7D1BF03C6E1BF83C5ED
:103F200081BF69B7034774008346640003465400A9
:103F300081450545EF10202D03477400834664003A
:103F40000346540085450545EF10E02B03477400F8
:103F5000834664000346540089450545EF10A02AB6
:103F60000347A40083469400034684008D4505451D
:103F7000EF1060290347A4008346940003468400A1
:103F800091450545EF1020280347A400834694007F
:103F90000346840095450545EF10E0260347B40B22
:103FA0008346A40B0346940B81450145EF10A025E1
:103FB0000347B40B8346A40B0346940B8545014588
:103FC000EF1060240347B40B8346A40B0346940B05
:103FD00089450145EF1020230347840B8346740B6A
:103FE0000346640B8D450145EF10E0210347840B28
:103FF0008346740B0346640B91450145EF10A020E6
:104000000347840B8346740B0346640B95450145B7
:10401000EF10601F6FE07F939306A0FAA38FD1BECD
:10402000930630052380D1C00946954691B3854754
:10403000238CF1848280EFE21F8E17D6FF1F034688
:10404000B62E9305660093F5F50F238C018497D760
:10405000FF1F2389B72C17D9FF1F1309A92CC1C92A
:1040600015061376F60F4A874A96AE86814721A039
:10407000834617000507B69793F7F70FE31AE6FE96
:104080003307B900138581A49305000E2300F700C0
:104090000144DD3E938981A421A8BA85F536050443
:1040A0001374F40F97D7FF1F83C7C72763EF8702E7
:1040B000B304890003C704004E859305000D9307E0
:1040C000070393F7F70EF1FBC13683C504004E8555
:1040D0000504FD1593F5F50F453E1374F40F97D7BE
:1040E000FF1F83C72724E3F587FC6FE01F86814706
:1040F00041BFEFE2FF83138781A41C4B03444701B8
:1041000013060008A183814562041385819A5D8CA2
:10411000EFE01F851306C007814517D5FF1F130564
:10412000A520EFE0FF8397D7FF1F9387A71B83C6C8
:10413000270003C6170003C737008347340097D50D
:10414000FF1FA381C51E17D6FF1F230ED61C97D6AF
:10415000FF1FA38AE61C194797D6FF1F2384E61C7E
:10416000130720056384E724637CF70A13072006FE
:104170006388E7266374F704130710086388E7244D
:104180006377F7021307000F6388E7101306000830
:1041900097D5FF1F938505191385819AEF50401914
:1041A0008547238CF184EF2030616FE0AFFA13076D
:1041B0001007E39DE7FCEF10F032F5B71307500549
:1041C000638BE724130710066386E7261307400571
:1041D000E39EE7FA034794000343540083486400D6
:1041E00003487400834684008347A4001306000834
:1041F00097D5FF1F938505131385819AA383D186D5
:10420000238261862384E186A3821187A384F186B9
:1042100023830187EF50C0118547238CF18461B758
:1042200013071004638CE722636BF7041307200362
:104230006384E706130700046385E7181307000388
:10424000E396E7F4930740F9054417D7FF1F230EC1
:10425000F70C97D7FF1FA389870C9D47130600080B
:1042600097D5FF1F9385050C1385819A17D7FF1FDC
:10427000230AF70AEF50C00B238C81842DB7130754
:1042800000056380E70C6364F71013072004E39FC5
:10429000E7EEEF20A00A01BF975700009387C71BE6
:1042A00003C7770083C6670003CF070083CE1700DC
:1042B00003CE270003C3370083C8470003C8570055
:1042C00083C7870017D4FF1F2304D40697D6FF1F88
:1042D000A380E60617D7FF1F230DF704A547130693
:1042E000000897D5FF1F9385E50317D7FF1FA30D80
:1042F000F7021385819ABD4717D4FF1F2307E403F4
:1043000017D4FF1FA303D40317D4FF1F2300C40334
:1043100017D4FF1FA30C640017D4FF1F2309140137
:1043200017D4FF1FA305040117D7FF1F230CF7FEA7
:10433000EF5000008547238CF184EF20F0476FE0B9
:104340006FE103479400034354008348640003482B
:104350007400834684008347A4001306000897D5A1
:10436000FF1F938525FC1385819AA38FD184238E0B
:1043700061842380E186A38E1185A380F186238F3B
:104380000185EF40F07A8547238CF18429BD13879E
:10439000C185814617D6FF1F034656F5914517D5AF
:1043A000FF1F130575F4EF10D05DF5BB97D5FF1F08
:1043B0009385A5F717D5FF1F034555F3EF10F06858
:1043C000DDB385450145EF10104EC9B38346740037
:1043D00003466400834554000945EF0090647DB3B3
:1043E0001306000897D5FF1F9385C5F31385819A9F
:1043F00097D7FF1F238907F2EF4090739306F00FC2
:104400001306F00F9305F00F0945EF009061854703
:10441000238CF18449BB13874186854617D6FF1F3D
:104420000346D6EC914517D5FF1F1305F5EBEF10AA
:10443000505595BB930700021306000897D5FF1F40
:10444000938545EE1385819A17D7FF1F230EF7EC4E
:10445000EF40106E8547238CF184B1B381459DB741
:10446000EFE28FCA138901A683270901834A490114
:10447000370A0001A183E20AB3EAFA0003C7A1A642
:104480007D1A130B000E954B9309000D9304000247
:104490007D5441CF8327C9008346B90003C6F1A6E6
:1044A000B3F74701A207D58FB29783C6070083C72A
:1044B000A186638E6607638C37096382360B83C5DA
:1044C00001A703C691850327090183474901218379
:1044D000E207D98FAE972380D7008347090185076C
:1044E00093F7F70F2388F1A663F7FB0003C73A00A1
:1044F000ED176386E7080347A9008347F90036965E
:104500007D171377F70F8507A38CC1842385E1A658
:10451000A387F1A6638936032385D1863DFB094530
:10452000EF40702D03C7A1A635F76FE06FC1638020
:104530003703238801A6A38C9184A3818A001306E4
:104540000002814549B72385018621F7C9BF850649
:1045500093F6F60F83C501A703C69185ADB77D1706
:104560001377F70F05062385E1A6A387C1A6E312FB
:1045700007F20945EF40302803C7A1A675B7638C41
:10458000C6020347A9008347F900238801A67D17C7
:104590001377F70F8507A38C018423850186238574
:1045A000E1A6A387F1A6E31607EE0945EF40B02484
:1045B00003C7A1A695BFEFF0AFF3E1B7EFE2CFB429
:1045C000138A81A483270A0103444A01370B00019F
:1045D000A18362045D8C03C721A57D1B930B000E94
:1045E000154C930A000D97D9FF1F9389A9CF7D59C8
:1045F000815441CF8327CA000346BA0083C671A500
:10460000B3F76701A207D18FB69783C7070003C628
:10461000B186638E77076306560B638D570B83262F
:104620000A0103474A0103C681A5A1826207558F8B
:1046300032972300F70003470A0183C6A1850507C7
:104640001377F70F238CE1A46377EC000346040093
:104650007D176301C70A0347AA000346FA00BE9606
:104660007D171377F70F0506238DD1842389E1A4E5
:10467000A38BC1A4638B5705A385F1863DFB0D4534
:10468000EF40701703C721A535F76FE06FAB630AE2
:104690005603238C01A47D17230024011377F70F01
:1046A0008506238D0184A38591862389E1A4A38BAC
:1046B000D1A4E31007F40D45EF40F01303C721A583
:1046C000E1B7850793F7F70F99BFA3850186E3123A
:1046D00007F275B77D171377F70F85062389E1A4D5
:1046E000A38BD1A4E31707F00D45EF40D01003C70B
:1046F00021A559BF13060004A2854E85EF40504303
:10470000EFF03F9F0347AA008347FA00238C01A4E0
:104710007D171377F70F8507238D0184A385018605
:104720002389E1A4A38BF1A4E31507EC0D45EF4029
:10473000900C03C721A589BFEFE28F9F1533BD3DC4
:10474000138501A6EFF06FCA138581A4EFF0EFC9BE
:104750006FE04FA0EFE2CF9DC53783C7818599E316
:104760006FE04F9FEFF03F8D6FE0CF9EEFE24F9CE9
:1047700003C421818544630C940A49C88947630DA9
:10478000F4048D476304F4006FE0CF9CB7540040FD
:10479000B70507009385450813850440EFE0DFCA9D
:1047A00065D5854513850440EFE03FC483C7C186C6
:1047B00085072386F18603C7C18683C7118163639A
:1047C000F70A238601867D572389E1801547E39DFB
:1047D000E7FAA38881804DBF37540040B705070032
:1047E0009385250813050440EFE01FC651DD03C77C
:1047F000C1869387C180BA9783C50700130504401B
:10480000EFE0FFC28D472389F180BDBF37540040E0
:10481000B705020013050440EFE0DFC435F5854518
:1048200013050440EFE05FBA23899180B1BF37548C
:104830000040B7050300850513050440EFE0DFC025
:10484000E30405F403C7C18693870184BA9783C53F
:104850000700014613050440EFE0DFBD89472389C7
:10486000F1801DB72389018005B7EFE26F8C1384B7
:1048700031810345040023890180EF20A05F814539
:10488000170500001305C5EEEF2040562300A400D5
:104890006FE04F8C03C721819307F00F6303F7008C
:1048A0008280EFE2EF88D1376FE0CF8A1345F5FFC2
:1048B000135765009357C500136707FC93E707FC80
:1048C000A386E180136505FC2387F1802386A18000
:1048D00003C721819307F00F6303F7008280EFE2A3
:1048E0002F8561376FE00F87EFE28F840564130433
:1048F000048097C7FF1F9387E7D922863E858145AD
:10490000EFE00F86138741810C432286EF4050224F
:104910006FE04F84EFE2CF81371702405C430144E0
:104920009384418193E707085CC313898181EFE099
:104930000FF488402295EFE04FF683250900884068
:10494000A2952295EFE08FF813040410EFE00FF426
:1049500093070480E9FF371702405C4393F7F7F7AA
:104960005CC36FD03FFF03C7814B9307A00A63036B
:10497000F7008280EFD2DFFB1306E0038145138549
:10498000A147EFD0FFFD1384814B83471400130729
:10499000A0FA238CE146A38CF1461307000A83C7D3
:1049A000A14B638DE71E6375F7041307000B638546
:1049B000E71A637FF7081307000E6385E70E1307F6
:1049C000100E6399E71C9307101E239DF146EF20FC
:1049D0006022239EA146EF00006B239FA146130691
:1049E0000004938581471145EF20F0286FD09FF692
:1049F00013071008638CE7146372F70413070009A8
:104A0000638AE706130710096396E7189387818185
:104A10009C4383C6370003C6270003C7470083C7EC
:104A20005700A206D18E4207558FE207D98F23AED9
:104A3000F14693071019239DF14655B71307000857
:104A4000639AE714553593070018239DF14641BF3B
:104A50001307100A6390E714EF20C0192A84EF208F
:104A600000199307101A239DF146239E8146239F28
:104A7000A146B5B7938781819C4303477400834562
:104A8000440003465400834664002381B700A38199
:104A9000C700A382E7002382D70093070019239D54
:104AA000F14635BF9307001E239DF14683C7C14BD6
:104AB000638D070E0547E398E7F083C5D14B93D686
:104AC000250013D61500858A058A85890145EF00E2
:104AD000C07A83C5E14B93D6250013D61500858A8D
:104AE000058A85890945EF00407983C5F14B93D646
:104AF000250013D61500858A058A85891145EF00A2
:104B0000C07783C5014C93D6250013D61500858A3E
:104B1000058A85890545EF00407683C5114C93D6FB
:104B2000250013D61500858A058A85890D45EF0075
:104B3000C07483C5214C93D6250013D61500858AF1
:104B4000058A85891545EF004073B5BDE1339307AC
:104B50001018239DF14661B503C5C14B9307F00FB3
:104B600083C8014C83C5114C03C7214C6302F51265
:104B70009306000F03C8D14B6307D5186304F810E0
:104B8000AE864686C285EF0000689307001B239D12
:104B9000F146B1B5FD57239DF14691B5EF20C01EFA
:104BA0009307001A239DF1461DBD83C6F14B03C632
:104BB000E14B83C5D14B0545EF00A06683C6214C70
:104BC00003C6114C83C5014C0545EF00806583C6C3
:104BD000514C03C6414C83C5314C0545EF00606420
:104BE00083C6814C03C6714C83C5614C0545EF00FB
:104BF000406383C6B14C03C6A14C83C5914C0545A7
:104C0000EF00206283C6E14C03C6D14C83C5C14C82
:104C10000545EF00006183C6114D03C6014D83C5F4
:104C2000F14C0145EF00E05F83C6414D03C6314DB5
:104C300083C5214D0145EF00C05E83C6714D03C69B
:104C4000614D83C5514D0145EF00A05D83C6A14D67
:104C500003C6914D83C5814D0145EF00805C83C63D
:104C6000D14D03C6C14D83C5B14D0145EF00605B19
:104C700083C6014E03C6F14D83C5E14D0145EF00EA
:104C8000405A91B32E86BA86C685EF008059F5BD8D
:104C90003A864685EF00405883C6214C03C6114C26
:104CA00083C5014C0145EF00405D83C6214C03C61E
:104CB000114C83C5014C0945EF00205C83C6214C93
:104CC00003C6114C83C5014C1145EF00005B83C640
:104CD000214C03C6114C83C5014C0545EF00E0593A
:104CE00083C6214C03C6114C83C5014C0D45EF0012
:104CF000C05883C6214C03C6114C83C5014C1545D1
:104D0000EF00A05759B52E86BA86C6854285EF00BA
:104D1000C056A5BDEFD2DFC1130600049385814FB5
:104D20000545EF2040756FD0FFC2EFD2DFBE03C74D
:104D30008153C1476306F700EF2000286FD0FFC002
:104D400083C791530947638AE70C637AF7080D47D5
:104D5000638CE70A1147E391E7FE03C4A15383C7BD
:104D6000B153A20742045D8C83C7C1535D8C1749C0
:104D700000001309E96F8544594BD14ADD49B1461A
:104D80003546B9451D4A1385F4FFB356D400335652
:104D9000C400B355B400858A058A85891375F50F5B
:104DA000E9292685B356640133565401B3553401BD
:104DB0008904858A058A858993F4F40F7D290D0974
:104DC000E38C44F7834599000346A9008346B90064
:104DD00083490900834A1900034B29006DB7054731
:104DE000E39CE7F49307000303C5C181A38CF15052
:104DF000EF2040089545170500001305E5F1EF1079
:104E0000F07E238EA1800DBFA38C0150A38801509A
:104E100023990150238A015005B793070003A38CFF
:104E2000F15019BFEFD23FAF83D7E18613D7870088
:104E3000A38CF14E974400009384C464238DE14E0B
:104E4000A38A0150239B0150238C01500144938974
:104E5000814F3D492285152405041374F40F19C9A7
:104E600083C7040083C61400CE9703C7D701558FAC
:104E7000A38EE7008904E31F24FD938701878397AE
:104E8000070063CB0700130600049385814F054597
:104E9000EF20605E6FD07FAB3D45C5226DD5938717
:104EA000814F03C7A70183C7C70113060004050785
:104EB00085079385814F05452389E150238AF15069
:104EC000EF20605B6FD07FA8EFD29FA6B120652A4C
:104ED00083D42187B34795002398F1862A842399A8
:104EE000A186EF10502FEF10F0501345F5FF42054B
:104EF00041812397A18683D741876389A700239A9D
:104F0000A186EF20600B393F6FD0DFA4239AF18692
:104F1000E31994FE6FD01FA4EFD29F9E371A014071
:104F20009384815A130D0A80A68B8149094C130A78
:104F30000AC08D4A854C954D6387890F63543C0D9B
:104F4000638F59119147639EF90E93050040528576
:104F5000EFE06FB2BD456A85EFE06FB01145EFD06D
:104F6000BFAA5E890144214BB3158B00C205C181E4
:104F70005285EFE08FAC41E5230099010504150946
:104F8000E31454FF8509850BE398B9FB37150140FD
:104F9000C14513050580EFE04FAA13351500C16820
:104FA000A38BA15A1388F8FF1387815793868159E1
:104FB000138581598D450543F1188357070003C6B2
:104FC00004008607D18FC207C1832310F7006380D6
:104FD000B702638E07016383170199E323800600FC
:104FE000090785048506E31AE5FC6FD03F95238009
:104FF0006600090785048506E311E5FCFDB723007B
:105000000900ADBF8547639EF9026A858945EFE0D7
:105010008FA66A85B545EFE08FA4930500405285C1
:10502000EFE0EFA325BF6A859145EFE0CFA46A8545
:10503000AD45EFE0CFA2930500405285EFE02FA2EF
:1050400031BF6A858545EFE00FA36A85B945EFE07A
:105050000FA1930500405285EFE06FA001B76A856C
:10506000A145EFE04FA16A859D45EFE04F9F930575
:1050700000405285EFE0AF9ED5B5938781593E95AC
:105080000345050082809386815981470145414649
:1050900003C7060085063317F700598D42058507BB
:1050A0004181E397C7FE82809307500EB308F50253
:1050B00013181500939715002A98AE9706082E9896
:1050C00022068E07598EC2061387815B0A08950750
:1050D000558E3A98C697938601602320C800BE96E5
:1050E0005D47FD55B357E600858BB307F04093F756
:1050F00067049387D7022380F6007D178506E313A4
:10510000B7FE8280EFD23F81AA8A2E8AB28981447B
:1051100019490D4B0144A28505044E87D286568657
:1051200026851374F40F4937E31724FF850493F49D
:10513000F40FE39164FF6FD05F81EFD26FFF13052F
:105140000020EFD0FFE919E16FD0DF8013050002E6
:10515000EFD01FE975D937052000EFD07FE86DD576
:1051600013050020EFD0BFE813050002EFD03FE8A1
:1051700037052000EFD0BFE7B70400401385044097
:10518000814537040240EFE00FEC1305040381452D
:10519000EFD07FE31305C4018145EFD0DFE21305B3
:1051A000C4068145EFD03FE2130504039305500E7A
:1051B000EFD0DFE21305C4019305500EEFD01FE2DC
:1051C0001305C4069305500EEFD05FE11305C4012B
:1051D0008545EFD05FDF130504038545EFD0BFDEC3
:1051E0001305C4068545EFD01FDE854513850440B1
:1051F000EFE06FE56FD00FF6EFD28FF33D3FEFF0AA
:105200006FE96FD02FF5954763E7B700EFD24FF204
:10521000613D6FD02FF48280EFD28FF1E5356FD0F2
:105220006FF3EFD24FEFAA8A2E8AB28936890144F2
:105230009944A28505044A87CE8652865685137402
:10524000F40F9D35E31794FE6FD02FF0EFD24FEEA1
:1052500093868187BD470146F55503C7060085063D
:105260003317F700F517598EE399B7FE328523A05F
:10527000C188EFF0AFE36FD0EFEDEFD26FEBB33556
:10528000B000B336D0008A053336C000D58D938781
:10529000818706063E954D8E2300C500453F6FD0A1
:1052A0006FEB17C7FF1F0347770295476307F704A4
:1052B000EFD20FE89D4717C7FF1FA309F700294743
:1052C00097C7FF1F83C7A700636DF71A1747000032
:1052D0001307471D8A07BA979C43BA97828713061C
:1052E000000897C5FF1F9385E5031385819AEF405A
:1052F0002004EFE0DFD36FD0EFE5854717C7FF1F2E
:10530000A306F7FC828097C7FF1F9387A7FD03C7FB
:10531000170083D727009D4617C8FF1F2304D80016
:105320001306000897C6FF1FA38EE6FE97C5FF1F52
:10533000938545FF17C7FF1F2317F7FE1385819A33
:105340009307001017C7FF1F2310F7FE97C7FF1F13
:10535000238D07FCEF30D07DEFE07FCD6FD08FDF66
:1053600097C7FF1F938707F803C7170083D7270046
:10537000994617C8FF1F2307D8FA1306000897C6D7
:10538000FF1FA381E6FA97C5FF1F9385A5F917C7ED
:10539000FF1F231AF7F81385819A854717C7FF1F48
:1053A0002314F7F8EF30D078EFE07FC86FD08FDAB2
:1053B00017C7FF1F0347A7F497C6FF1F938686F200
:1053C0009317470003C8160083D6260093F7F70FFC
:1053D0009388370113060008B50797C5FF1F93850B
:1053E00065F41385819A17C3FF1F2306E3F417C7DB
:1053F000FF1FA30BF7F217C7FF1F230517F317C7EC
:10540000FF1FA30107F317C7FF1F231ED7F097C77E
:10541000FF1F239107F297C7FF1F238707F0EF3085
:105420003071EFE0DFC0C1BD97C7FF1F938787EBE7
:1054300003C7170083D72700C94617C8FF1F2303D8
:10544000D8EE97C6FF1FA38FE6EC17C7FF1F231CDC
:10545000F7EC8567938717C01306000897C5FF1FF1
:10546000938545EC1385819A17C7FF1F231EF7EA22
:1054700097C7FF1F239007ECEF30906BEFE03FBB27
:105480009DBD97C7FF1F9387E7E503C7170083D725
:105490002700994617C8FF1F2306D8E813060008FF
:1054A00097C6FF1FA380E6E897C5FF1F938585E792
:1054B00017C7FF1F2319F7E61385819A8D4717C772
:1054C000FF1F2313F7E6EF30B066EFE05FB625B5B8
:1054D000EFD20FC6397117C4FF1F130424DF8947A9
:1054E0000D479305803E170500001305C5DB23001B
:1054F000F100A300E4002301F400EF10701317B6CD
:10550000FF1F130626B18346960083458600034796
:10551000A6008347B600A206CD8E4207558FE2074C
:105520002302A400D98F0A858146014685458297CA
:1055300021616FD02FC2EFD2AFBFB707170039710B
:105540009387471117C4FF1F130444D83EC08565D5
:105550008D47A300F4009385853885471705000023
:10556000130565D42301F400EF10900C17B6FF1F4C
:10557000130646AA83469600834586000347A60085
:105580008347B600A206CD8E4207558FE20723025D
:10559000A400D98F0A8581460146914582972161F1
:1055A0006FD04FBBEFD2CFB8B707FF0139719387E8
:1055B000275317C4FF1F130464D10D473EC0930542
:1055C000803EC147170500001305E5CD2302F10019
:1055D000A300E4002301E400EF10900517B6FF1FBD
:1055E000130646A383469600834586000347A6001C
:1055F0008347B600A206CD8E4207558FE2072302ED
:10560000A400D98F0A85814601469545829721617C
:105610006FD04FB48D4763FFB70483470500A1EBFC
:1056200083471500A9E7034725009307F00F631090
:10563000F70483473500034745003E971377F70F7C
:105640001DE7F91793F7F70FA301F50063E4F502DF
:10565000034755009307500D631BF7008347650010
:1056600005061376F60F01456393C7008280130584
:10567000300F82801305400F8280EFD26FAB97B658
:10568000FF1F83C6F69997B7FF1F83C7679917B7A0
:10569000FF1F03470799A206DD8E420797B7FF1F3A
:1056A00083C737987571558FE207A3070100D98F1B
:1056B0009305F100080882970344F10019C897C7C1
:1056C000FF1F83C7B7C00D476388E7001147638397
:1056D000E70249616FD00FA80347410183472101C9
:1056E000914617C6FF1FA303D6BEF98F1307F00F0D
:1056F0006382E70297C7FF1F83C767BD2947E36A35
:10570000F7FC174700001307A7DC8A07BA979C43EA
:10571000BA9782878347010103461101834631010D
:1057200003475101D18FD58FD98FE9F72286930591
:1057300061010808EF30304B75BF13062003A285C6
:105740000808C93D59F5954717C5FF1F034545B8DA
:1057500017C7FF1FA30CF7B6EF1020749DBF1306E9
:10576000A004A28508087D352DF583477101B5D3C6
:10577000954717C5FF1F0345A5B517C7FF1FA3070B
:10578000F7B4EF1080718347C10117C7FF1F230FC4
:10579000F7B895C79386F7FF93F6F60F1306E10166
:1057A0009307D10117C7FF1F130757B8B29603C657
:1057B000070005078507A30FC7FEE39AD7FE97C723
:1057C000FF1F938727B203C7170083D72700B5466B
:1057D00017C4FF1F2308D4B497C6FF1FA384E6B4E1
:1057E00017C7FF1F2311F7B4B7070110938707707E
:1057F0001306000897C5FF1F9385C5B21385819ACC
:1058000017C7FF1F2322F7B2EF309032EFE03F823D
:10581000C9B513060004A2850808ED3B1375F50F02
:10582000E31905EA0347810197C7FF1F83C737AA1A
:1058300092077D17B107E31EF7E8834721028346ED
:10584000310203477101D58F1377F703D98FE392A4
:1058500007E8954717C5FF1F034585A717C7FF1F13
:10586000A306F7A6EF10606397C7FF1F83C737A68D
:10587000A1CB1385F7FF1375F50F120597C7FF1F0F
:10588000938747AB97C5FF1F9385C5A93E95130620
:105890005002930706FF93F7F70F2E871409BE9661
:1058A00083C606F8850793F7F70FA309D700050706
:1058B000E396C7FE4106C1051376F60FE39BA5FCF0
:1058C00097C6FF1F83C6A6A39397460017C7FF1F5F
:1058D000130747A1834817000358270093F7F70FD2
:1058E0001387D7001377F70FCD071306000897C566
:1058F000FF1F938525A31385819A17C4FF1F230CCF
:10590000D4A297C6FF1F238FF6A097C7FF1FA38BB4
:1059100017A197C7FF1F239807A197C7FF1FA3854C
:10592000E7A097C7FF1F2382E7A097C7FF1F239316
:1059300007A097C7FF1F2389079EEF30701FEFE076
:105940000FEF41BB954717C7FF1FA301F79851B34E
:10595000A2851306000408087539954717C5FF1F6F
:105960000345059717C7FF1FA302F796EF10E052F4
:1059700097C7FF1F9387079703C7170083D7270091
:10598000C94617C4FF1F230FD49897C6FF1FA38BC8
:10599000E69817C7FF1F2318F7988567938707C0F6
:1059A0001306000897C5FF1F9385C59717C7FF1FEC
:1059B000231CF7961385819AB14717C7FF1F23064B
:1059C000F79697C7FF1F23970796EF307016EFE003
:1059D0000FE601B313060004A2850808EFF09FC389
:1059E000E31905CE83477101E39507CE954717C5A7
:1059F000FF1F0345E58D17C7FF1FA309F78CEF10A5
:105A0000C04997C7FF1F9387E78D03C7170083D748
:105A1000270099461306000897C5FF1F93858590B8
:105A20001385819A17C4FF1F230ED48E97C6FF1FBC
:105A3000A38AE68E17C7FF1F2317F78E97C7FF1F8E
:105A40002394078EEF30D00EEFE06FDE59B11306CE
:105A50000004A2850808EFF0FFBBE31C05C68347DE
:105A60007101E39807C6954717C5FF1F0345458693
:105A700017C7FF1FA30CF784EF10204297C7FF1F23
:105A80009387478603C7170083D72700D94617C4D3
:105A9000FF1F2309D48897C6FF1FA385E68817C771
:105AA000FF1F2312F788856717C7FF1F231EF7867E
:105AB000835781011306000897C5FF1F93858586CC
:105AC00017C7FF1F2313F7868357A1011385819AF8
:105AD00017C7FF1F231CF7848357C10117C7FF1F78
:105AE0002317F7848357E10117C7FF1F2312F78499
:105AF0008357010217C7FF1F231DF7828357210217
:105B000017C7FF1F2318F7828357410217C7FF1FCC
:105B10002313F7828357610217C7FF1F231EF780E5
:105B2000EF301001EFE0AFD06DB61306A004A285F0
:105B30000808EFF03FAEE31E05B803477101854743
:105B4000E319F7B803449101034781019307E4FE89
:105B5000A382E18893F7D70FE39D07B6954717B562
:105B6000FF1F0345E57617B7FF1FA301F776EF1078
:105B7000C03297B6FF1F9386E67A1C08368728083E
:105B800083C5B70003C637018507A304B700A30880
:105B9000C7000507E396A7FE83C7060103C7F60003
:105BA00083C0160183C4260183C3360183C2460124
:105BB00083CF560103CF660183CE760103CE8601E3
:105BC00003C3960083C8A60003C8B60003C5C60079
:105BD00083C5D60003C6E60097B6FF1FA38DE66E09
:105BE00097B6FF1FA38A166E17B7FF1F2306F76E1F
:105BF00097B6FF1F2383966E97B6FF1FA38F766C11
:105C000097B6FF1F238C566C97B6FF1FA388F66DBF
:105C100097B6FF1F2385E66D97B6FF1FA381D66D4C
:105C200097B6FF1F238EC66B97B6FF1FA382666AC7
:105C300097B6FF1F238F166997B6FF1FA38B0669C0
:105C400097B6FF1F2388A66897B6FF1FA384B66880
:105C500097B6FF1F2381C668D147631EF4008347B0
:105C6000C10217B7FF1FA30DF7668347B10217B72D
:105C7000FF1F2308F76697B7FF1F9387A76603C721
:105C8000170083D72700E54617B4FF1F230CD468FD
:105C900097B6FF1FA388E66817B7FF1F2315F7689D
:105CA000B7170120938707301306000897B5FF1F29
:105CB0009385456717B7FF1F2328F7661385819AD9
:105CC000C14717B7FF1F2303F766EF306066EFE0A9
:105CD0000FB601B45146A2850808EFF0BF93E31A4E
:105CE000059E95B4EFC2DFC497B7FF1F9387075E89
:105CF00003C3770083C8870003C8970083CE57008B
:105D000003CE670003C5A70083C5B70003C6C7005D
:105D100017B7FF1F0347E75D9306170017BFFF1F65
:105D2000A304DF5D97BEFF1F2381CE5D17BEFF1F5B
:105D3000A30D6E5A17B3FF1F230A135B97B8FF1FFB
:105D4000A386085B17B8FF1F2303A85A17B5FF1FC8
:105D5000A30FB55897B5FF1F238CC55817B6FF1F63
:105D6000A305D65CA14617B3FF1F0343B35797B8EB
:105D7000FF1F83C8485717B8FF1F0348D856630E44
:105D8000D71663F8E606B1476303F7229307400A84
:105D90006315F726C54717B7FF1F2305F75897B7B1
:105DA000FF1FA381675897B7FF1F238E175797B719
:105DB000FF1FA38A07578567938707B017B7FF1F91
:105DC0002314F75697B7FF1F23860756AD471306D0
:105DD000000897B5FF1F9385E5541385819A17B77F
:105DE000FF1F2304F754EF30A054EFE04FA46FC01F
:105DF0007FB6630D071699466311D72017BEFF1FA4
:105E0000034EEE4F17B7FF1FA303C74D05476305AA
:105E1000EE0C17B7FF1F1307175217B6FF1F130615
:105E2000664B83C6570005078507A30FD7FEE39A85
:105E3000C7FE17B7FF1F1307E75097B6FF1F9386DC
:105E40006653930707FFA38907008507E39DE7FED5
:105E500013870701E317D7FE854717B7FF1F2305F1
:105E6000F74E93174E0093F7F70F1387D70013776A
:105E7000F70FCD071306000897B5FF1F9385854AD6
:105E80001385819A97B6FF1F238EF64897B6FF1F9A
:105E90002383C64B97B7FF1FA386674897B7FF1F9B
:105EA0002383174997B7FF1FA38F074797B7FF1F94
:105EB000A38CE74697B7FF1F2389E74697B7FF1FD5
:105EC000239A074697B7FF1F23800746EF304046C7
:105ED000EFE0EF956FC01FA817B7FF1F1307B74577
:105EE00017B6FF1F1306063F83C657000507850731
:105EF000A30FD7FEE31AF6FEADB797B7FF1F938740
:105F0000673E83C7A7011306000897B5FF1F938557
:105F1000654117B7FF1FA30CF73AC94717B7FF1F13
:105F20002302F74097B7FF1FA38E673E97B7FF1F67
:105F3000238B173F97B7FF1FA387073F856793877B
:105F400007C017B7FF1F2311F73E1385819AB1478A
:105F500017B7FF1F230BF73C97B7FF1F239C073C86
:105F6000EF30003DEFE0AF8C6FC0DF9EE94717B721
:105F7000FF1F2309F73A97B7FF1FA385673A97B723
:105F8000FF1F2382173B97B7FF1FA38E0739856733
:105F90009387074017B7FF1F2318F738ED779387CC
:105FA000874817B7FF1F231BF738D1470DB5CD47DB
:105FB00017B7FF1F2308F73697B7FF1FA38467366D
:105FC00097B7FF1F2381173797B7FF1FA38D07359B
:105FD0008567938707D017B7FF1F2317F7348547C7
:105FE00017B7FF1F2308F734ED779387874817B754
:105FF000FF1F2315F734B547D9BB994717B7FF1FC4
:106000002302F73297B7FF1FA38E673097B7FF1FA2
:10601000238B173197B7FF1FA38707318D4717B71A
:10602000FF1F2313F73081475DB3EFC27F9017A4A2
:10603000FF1F130424FE8346140003460400034795
:10604000240083473400A206D18E4207558FE20711
:10605000D98F829783465400034644000347640067
:1060600083477400A206D18E4207558FE207D98F6D
:1060700082979305400617F5FFFF1305A545EF002E
:10608000305B9305800C17F5FFFF1305E551EF001A
:10609000305A9305C01217F5FFFF1305054AEF00AC
:1060A00030596FC03F8BEFC2BF883971B367B500FD
:1060B00017B4FF1F130484212301F1008D47130738
:1060C0002013A300F4009305803E914717F5FFFFCE
:1060D0001305651D2310E1002301F400EF00505566
:1060E00017A6FF1F130606F3834696008345860016
:1060F0000347A6008347B600A206CD8E4207558F00
:10610000E2072302A400D98F0A85814601468D4506
:10611000829721616FC01F84EFC29F8139719307FD
:10612000A01417B4FF1F1304641A2310F1008D4745
:106130002301A100A300F40017F5FFFF1305A51626
:1061400095472301F400EF00B04E17A6FF1F13067A
:1061500066EC83469600834586000347A600834786
:10616000B600A206CD8E4207558FE2072302A40097
:10617000D98F0A85814601468D45829721616FC07E
:106180006FFDEFC2EFFAB336D000397193070014F8
:10619000938606062310F100A301C1002E8423017B
:1061A000D1005C00130667008346070085070507DA
:1061B000A38FD7FEE31AC7FE15C09306F4FF13079B
:1061C000150093F6F60F9307A100BA960347050052
:1061D00085070505A38FE7FEE31AD5FE8D4717B7A0
:1061E000FF1FA305F70E9305803E994717F5FFFFA4
:1061F0001305650B17B7FF1F230BF70CEF00504378
:1062000097A6FF1F83C696E197A7FF1F83C707E1E5
:1062100017A7FF1F0347A7E0A206DD8E420797A737
:10622000FF1F83C7D7DF558F9305A40097B6FF1FC5
:106230002380A60AE2070A85D98F8146014693F595
:10624000F50F829721616FC0EFF0EFC26FEE3971E9
:10625000930700142310F1009307000317B4FF1FE6
:106260001304C4062301F1008D47A301A100A3007C
:10627000F4009305803E9D4717F5FFFF1305A50227
:106280002301F400EF00D03A17A6FF1F130686D8AB
:1062900083469600834586000347A6008347B600E1
:1062A000A206CD8E4207558FE2072302A400D98FA4
:1062B0000A85814601469145829721616FC08FE929
:1062C000EFC20FE79317850021813971C98F17B489
:1062D000FF1F1304A4FF2312F10041678D4723031E
:1062E000B1001307A714B285A300F40017F5FFFF50
:1062F000130565FBA1473AC02301F400A303010085
:10630000EF00103317A6FF1F1306C6D08346960072
:10631000834586000347A6008347B600A206CD8EBC
:106320004207558FE2072302A400D98F0A858146D0
:106330000146A145829721616FC0CFE1EFC24FDFD7
:1063400083C7418889CB9305803E0145F133238281
:1063500001886FC02FE0416585471306803E814567
:106360007D152382F188A93F6FC0CFDEEFC24FDCDD
:1063700079718545116502CA02CC02CE02D002D2E3
:1063800002D402D602C602C8EFD04FB385451145EC
:10639000EFD0CFB237140140930700200D494C08CD
:1063A00013050480231AF100E1474ACC3ECEEFC02A
:1063B000FFD7930700404C0813050480231AF1000F
:1063C00091473ECEEFC09FD6930700104C081305AF
:1063D0000480231AF100C1473ECE4ACCEFC01FD53E
:1063E000F167B7440140938707200C1013850480A0
:1063F0003ED0B7070C003ED402D223160102EFD0E4
:106400002FE213850480054693055052EFD04FF3D9
:1064100005469305404213850480EFD06FF2930741
:10642000500368002316F10085473EC8230701008A
:10643000EFD04F87138504808545EFD06FEE93052D
:10644000001013050480EFC09FE145616FC08FD03D
:10645000EFC20FCE973700009387C7FD03A3070055
:1064600083A8470003A88700C8478C4BD04B944FA4
:10647000D84F9C537971374401401AC646C842CA66
:106480002ACC2ECE32D036D23AD43ED6640013096E
:1064900001031304048083C504002285EFD00FEEAE
:1064A000930500082285EFD0AFEE7DD98504E394F3
:1064B00024FF45616FC00FCAEFC2EFC583470500D7
:1064C0002A89374501402E84130505808145B74A46
:1064D0000140B284368A2386F188AA89EFD00FEA78
:1064E000930500084E85EFD0AFEA7DD913850A8069
:1064F0008145B74A0140EFD06FE893890A80930540
:1065000000084E85EFD0CFE87DD913850A8093052A
:10651000F00FB74A0140EFD06FE693890A809305E8
:1065200000084E85EFD0CFE67DD9B307440193F73D
:10653000F70F9385170013850A8093C7F7FF374B32
:10654000014093F5F50F93FAF70F93090B80EFD005
:10655000EFE2930500084E85EFD08FE37DD9D68515
:1065600013050B80B74A0140EFD04FE193890A80B1
:10657000930500084E85EFD0AFE17DD99305400D1E
:1065800013850A80B7490140EFD04FDF9389098016
:10659000930500084E85EFD0AFDF7DD931C0930A57
:1065A000F4FF93FAFA0F37440140CA9A9309400D59
:1065B00013040480834509002285EFD02FDC930566
:1065C00000082285EFD0CFDC7DD98347090013076F
:1065D0001900BE9993F9F90F630659013A89D9BF99
:1065E0009309400D63000A041309FAFF1379F90FA8
:1065F00093871400374401403E991304048083C5F7
:1066000004002285EFD08FD7930500082285EFD0B4
:106610002FD87DD983C704008504BE9993F9F90F5B
:10662000E39F24FDB30530413745014093F5F50F55
:1066300013050580B7440140EFD04FD41384048084
:10664000930500082285EFD0AFD47DD9814513850D
:10665000048037440140EFD06FD2130404809305C7
:1066600000082285EFD0CFD27DD96FC00FAEEFC228
:106670002FAC3744014001462A89AE8413050480BB
:1066800093055052EFD0CFCB0146930540421305FE
:106690000480EFD0EFCA03C7618883C7718863FEA7
:1066A000E7049107998F93F7F70F9396770017B741
:1066B000FF1F130727CF36972320E9001387818810
:1066C000BA9783C70700374401401305048023802D
:1066D000F40083C76188FD17054693055052238354
:1066E000F188EFD0EFC513050480054693054042BD
:1066F000EFD00FC505456FC0EFA5998F93F7F70F42
:106700006DB783C7618891E38280EFC26FA24111A8
:10671000AE842A849305B1006800913F09CD0349F6
:10672000B100B24522854A86EF20904023802401A3
:1067300083C76188E5F341016FC0CFA1EFC24F9FCE
:10674000C9376FC02FA1411122C6374401409305BC
:10675000505213050480EFD06FC431E93744014033
:106760009305404213050480EFD04FC30DC983C782
:1067700071888356048003574480850793F7F70F89
:106780000D476362F702A383F18803C7618893868C
:106790008188B6970507238007002383E188324468
:1067A000410173002030A38301888147F9BF13059D
:1067B0000480EFD04FBD83C77188138781883E97CF
:1067C000034607009396770097B7FF1F938787BD0F
:1067D000B697B297930616002300D7002380A70030
:1067E000B5BFEFC2EF9401118545116502C002C229
:1067F00002C402C602C802CA02CC231E0100EFC0B6
:10680000DFED85452145EFC07FEB3714014061493D
:106810008D448A85130504C085672310F1004AC49E
:1068200026C2EFC0BF908A85130504C08967231074
:10683000F1004AC426C2EFC07F8F91678A85130595
:1068400004C02310F10091473EC4EFC03F8EE177B2
:106850008A85130504C02310F100374400404AC460
:1068600026C2EFC0BF8C130504808545EFC07FF2C0
:10687000B70704013EC6930700026C0013050480AD
:106880003ECC9D47231EF10002C802CAEFC0DFE6DE
:106890001305048005468945EFC01FEE13050480EB
:1068A00005468545EFC05FED854513050480EFC0C3
:1068B0009FEA05616FC00F8AEFC2EF8579712A8464
:1068C000AE89054585453289B68402C202C402C636
:1068D00002C802CA02CC02CE02D002D202D402D630
:1068E000EFC0FFDB2285EFC00FDFC1473EC6930735
:1068F00000084C003ECC228585674EC24AC426C89B
:106900003ED402CA02CE02D002D202D6EFC0AFE716
:1069100045616FC08F83EFC20F8079712A84AE8981
:10692000054585453289B68402C202C402C602C842
:1069300002CA02CC02CE02D002D202D402D6EFC0EA
:106940001FD62285EFC02FD9930700083ECC9307AE
:1069500000103ECE930700404C003ED02285856754
:106960004EC24AC426C83ED402C602CA02D202D6C9
:10697000EFC06FE145616FB05FFDEFB2DFF9797194
:106980002A84AE89054585453289B68402C202C48F
:1069900002C602C802CA02CC02CE02D002D202D47F
:1069A00002D6EFC0DFCF2285EFC0EFD293070008F9
:1069B0004C003ECC228585674EC24AC426C83ED4D0
:1069C00002C602CA02CE02D002D202D6EFC0AFDBAC
:1069D00045616FB09FF7EFB2BFF59387418A9C4343
:1069E00005476383E70899CB09476397E7000945A3
:1069F000EFC00FDF631C05146FB0DFF5138701894B
:106A000083471700034627008346370003474700A4
:106A1000D18FD58FD98F03C701826385071C930758
:106A2000F7FF93F7F70F2380F18263860710414742
:106A3000637CF7023745004089478145130505808F
:106A400023A2F18A3704024023800182EFC0BFD025
:106A5000814513058405EFC00FD781451305440414
:106A6000EFC06FD6EF90706737050200EFC04FD7C9
:106A70004DCD37050200EFC08FD70965EFC02FD786
:106A800037450040814513050580EFC0DFCC03C6C4
:106A900011891347F6FF97370000938727A61377CE
:106AA000F70F3E970347070083C5218983C63189C5
:106AB0002D8F3E970347070003C54189358FBA974D
:106AC00083C7070093C7F7FF93F7F70F6316F50027
:106AD00022064D8E239BC18837040240130584058E
:106AE0008145EFC04FCE130584059945EFC00FCF08
:106AF000130584058545EFC00FCD1305440481457A
:106B0000EFC06FCC130544049945EFC02FCD13059A
:106B100044048545EFC02FCB37450040854513051C
:106B20000580EFC05FC36FB0FFE20965EFC04FCBD8
:106B3000E31105F4D1B585473705020023A2F18A98
:106B400023800182EFC0CFC96DD125B70945EFC0C1
:106B50000FCA97B7FF1F9387E7A517B6FF1F130646
:106B600066AD014783D6070089073697E31CF6FE1A
:106B70009387E18883950700198393160701C186DF
:106B80003386B6008147634E060081CE05659307C4
:106B9000F5FF6358A6006386F6002E97931707014A
:106BA000C183239BF18883D7618993C7F7FF239B18
:106BB000F1883704024083D7618992071305840066
:106BC0008145239BF188EFC00FC013058400930516
:106BD0008004EFC0AFC0854513058400EFC0AFBE91
:106BE0006FB05FD79307170093F7F70F2DBD03D54D
:106BF0006189828083D7618903D78189637BF70AA2
:106C00003387E74013060004BE86634AE60A03C7DB
:106C1000A189931617001386C18997B5FF1F938525
:106C200065A1B695104283D6050005073E96158EE0
:106C3000935636002390F500939706011D8BC18370
:106C400023AEC188238DE188239CF18803D7018A74
:106C5000BE8663E0E70C3386E640C14563C0C50CE1
:106C6000E1773E9793171700BA972167BA97416764
:106C700063D1E70C63C707101397070183C6D1815F
:106C80004183D5EE83D6E181958F93870704130660
:106C90000008636FF60C13154700198D36954205F1
:106CA0004181135745002390E18A239FE180BA87F1
:106CB00069A81D8F13060004BE86E35AE6F41397F5
:106CC000370023AEE18817B6FF1F2315F69617B6D7
:106CD000FF1F2312F69617B6FF1F231FF69417B651
:106CE000FF1F231CF69417B6FF1F2319F69417B63F
:106CF000FF1F2316F69417B6FF1F2313F69417B63B
:106D0000FF1F2310F694239CF18803D7018AE3F434
:106D1000E7F43306D740C145E3D4C5F4E1773687BD
:106D20003E9793171700BA972167BA974167E3C355
:106D3000E7F49307F7FF3E8783C6D181A1D6239F4F
:106D4000E180A38E01802390E18A93868181944221
:106D500003C5160083C606002205558DC166FD16C3
:106D6000898E63D3F60005053A95420541818280FC
:106D700013153700198D369542054181135735009B
:106D80001DB7814701474DBF9387818183D66189B4
:106D90009843E177958FC207C18393D6870023007C
:106DA000F700A300D70082809387818A9C4341111A
:106DB00022C637140040850785451305048023A4A7
:106DC000F18AEFC05FC309E532444101730020300E
:106DD000130504808545EFC0DFC31305048081459A
:106DE000EFC09FBD324441017300203017B7FF1F31
:106DF0001307C78581474148144313F6F70F31073E
:106E000081CA8507E39A07FF1306F00F3285828057
:106E100013971700BA971397270097B7FF1F938709
:106E20006782BA9788C7CCC323A0070032858280C7
:106E300017B7FF1F1307878D81474148144313F687
:106E4000F70F310781CA8507E39A07FF1306F00F92
:106E50003285828013971700BA971397270097B748
:106E6000FF1F9387278ABA9788C7CCC323A0070040
:106E700032858280BD4763E1A70293171500AA9768
:106E80008A0717A5FF1F1305E57B3E952324050000
:106E900023220500232005008280BD4763E1A7026D
:106EA00093171500AA978A0717B5FF1F1305858545
:106EB0003E9523240500232205002320050082801F
:106EC000EFB27FA59387818A8443371A004023A4B9
:106ED000018A9399040117A4FF1F1304A47617B91C
:106EE000FF1F1309298293D90901130A0A8021A0DF
:106EF0003104630B24031C44E5DF1C405840CE974B
:106F00001CC0E3E7E7FE01468545528523200400C7
:106F1000EFC07F951C443104829705468545528514
:106F2000EFC07F94E31924FDC204B719004017A4F1
:106F3000FF1F1304247D17B9FF1F1309A988C180FF
:106F40009389098021A03104630124051C44E5DFF5
:106F50001C405840A6971CC0E3E7E7FE0146854564
:106F60004E8523200400EFC01F901C4431048297FB
:106F70000546232E04FE232C04FE232A04FE854509
:106F80004E85EFC05F8EE31324FD6FB01F9CEFB200
:106F90003F9AF957A380F18217B4FF1F130484822C
:106FA00097B4FF1F938404841C40110491C38297FB
:106FB000E31C94FE6FB01F9AEFB29F979384818178
:106FC00090408346360083452600034746008347AA
:106FD0005600A206CD8E4207558FE207D98FA9C36E
:106FE00003C511829307E00F630EF502EFF0FFEA8D
:106FF0009840170500001305C5F9834537008346FF
:1070000027008347470003475700A205D58DC207D5
:10701000CD8F93158701DD8DEFF09FE1A380A182D5
:107020006FB05F9317A4FF1F1304C47B17A9FF1F42
:107030001309497D1C40110491C38297E31C24FF6E
:10704000FD57A380F1821305F00F4DB797A5FF1FE1
:10705000938545772E87814721461443110799C6AA
:107060008507E39CC7FE1305F00F82801397270066
:10707000BA9588C113F5F70F828097A5FF1F9385F6
:1070800065762E87814721461443110799C68507E7
:10709000E39CC7FE1305F00F828013972700BA9573
:1070A00088C113F5F70F8280EFB29F88EF90701BB5
:1070B000EF90D02A13050040EFC02FCD0545EF809B
:1070C000B0765145EFB0FF97EFD01F821545EFB076
:1070D0005F97EF80F072EF90F016EF905017EF90FF
:1070E0009030EF909071EF9090375145EFB07F95D1
:1070F000EF90E041EF90E00BEF807073EFE0FFF274
:10710000EF904018D14517E5FFFF1305250FEFF06D
:10711000FFCD854517E5FFFF130545DBEFF01FCDDC
:10712000954517D5FFFF13052563EFF03FCCF945D3
:1071300017E5FFFF1305A554EFF05FCBEFF05FD825
:10714000F5BF37050400EFB0FFF173002030CD2EFE
:10715000730020308D4723A2F18C828097A7FF1FF8
:1071600083C7E76C89C7954723A2F18C8280854746
:1071700023A2F18C8280EFB2AFFBAA842E8411454A
:107180008545EFC0AFD3B7660040ADC083A706C446
:1071900041677517F98F23A0F6C4B717014003A7FD
:1071A0004780B716F0FFFD16758F23A2E78003A76F
:1071B000C780F9769386F67F758F23A6E78003A7AD
:1071C0004780B7460400558F23A2E7803747024027
:1071D0008327078019C493E727002320F7806FB027
:1071E0006FF7F59B2320F7806FB0CFF603A706C497
:1071F000B7170140136727004207418323A0E6C465
:1072000003A74780B716F0FFFD16758F23A2E7800E
:1072100003A7C780F9769386F67F758F23A6E7804C
:1072200003A74780B7360300558F23A2E78079BFB5
:1072300029C67D161376F60F931616009387250040
:10724000BE96254809A82380C500A38005008905AE
:1072500012056384D5021357C5019377F70F138680
:10726000070393877703E370E8FE2380F500A3808C
:10727000050089051205E390D5FE8280B7F7FF1F50
:1072800003A5877E11E18280EFB28FEA83A4C77ED7
:1072900011469795FF1F938505DA03A4077FEFF04A
:1072A0003FF9268511469795FF1F938545D9EFF045
:1072B0003FF811469795FF1F9385E5D82285EFF09B
:1072C0003FF76FB02FE98280EFB28FE6938581534D
:1072D0000545EF10B07A930700046307F5000545F4
:1072E000EF1070516FB00FE7EFD03FA40545EF10DE
:1072F00090506FB02FE68280EFB28FE39385814B81
:107300001145EF10B077930700046307F5001145AE
:10731000EF10704E6FB00FE4EFD0EFE41145EF10B7
:10732000904D6FB02FE3EFB2AFE0138401A6834519
:10733000C4008346B4008347D4000347E400A20599
:10734000D58DC207CD8F93158701DD8D0945EF10CF
:10735000F0722305A40089650945A3070400EF1016
:1073600070426FB02FDFEFB2AFDCB767004083A78A
:1073700007C5373700204907C207C183BA97860778
:107380009C431307000293F7F73F6394E70283C718
:1073900091A699E703C751A683C741A66302F702E6
:1073A000930500020945EF107039EFD0AFBA6FB006
:1073B0006FDA930500020945EF1050386FB08FD98E
:1073C0000146814513052008EF107068CDB7EFB274
:1073D0002FD6138481A48345C4008346B400834719
:1073E000D4000347E400A205D58DC207CD8F9315C5
:1073F0008701DD8D0D45EF1070682305A4008965B8
:107400000D45A3070400EF10F0376FB0AFD4EFB213
:107410002FD2B767004083A707C537370020690719
:10742000C207C183BA9786079C431307000293F7EC
:10743000F73F6394E70283C711A599E703C7D1A477
:1074400083C7C1A46302F702930500020D45EF1044
:10745000F02EEFD02FB06FB0EFCF930500020D45A7
:10746000EF10D02D6FB00FCF0146814513053008C6
:10747000EF10F05DCDB7EFB2AFCB09472E84B284E9
:10748000630EE506637CA7020D476305E50411471B
:10749000631FE502EF10F034930700036309F50260
:1074A0002686A28513054008EF10705A9305000345
:1074B0001145EF10B02801456FB0CFC905476318DB
:1074C000E500EF10103293070003631DF504054536
:1074D0006FB04FC8EF10F03093070003E309F5FEDB
:1074E0002686A28513053008EF1070569305000319
:1074F0000D45EF10B02401456FB0CFC5EF10702ED1
:1075000093070003E305F5FC2686A28513052008F2
:10751000EF10F053930500030945EF1030220145A9
:107520006FB04FC32686A28513051008EF103052A6
:10753000930500030545EF10702001456FB08FC122
:10754000EFB20FBF37680040832708C541671305B6
:10755000F7FFB7360020E98F9906B6978607904364
:10756000130707C083D5C18A718F0111630CB7005F
:10757000832708C593F505C0E98FB697860798431A
:10758000D98D8CC3B766004003A746C483D7018E4C
:107590001384818B239CE18A03D7818B7D8F1377A2
:1075A000072019CB41671307F7DF23A2E6C403C7FF
:1075B000E18A05072387E18A035704007D8F42078C
:1075C0004187634F070C035704007D8F13770740F3
:1075D00005C39797FF1F938727ABD843C16793874E
:1075E000F7BFB766004023A2F6C4029783D7018E87
:1075F000035704007D8F9316270163CA06060357BD
:1076000004007D8F9316370163C0060803570400FA
:107610007D8F9316470163D106029387C1839C43F4
:10762000C9C7EF000075BD679387F77F37670040D4
:107630002322F7C483D7018E03570400F98F93F7F1
:1076400007109DC34167B76700409306F7EF23A279
:10765000D7C483A687C413960601634C060423A8E7
:10766000018A1D45EF00807C05616FB0AFAE3967C0
:10767000B76600407D1723A2E6C4035704007D8F40
:1076800093163701E3D406F8BD67FD17376700404E
:107690002322F7C40145EF00607983D7018EBDB77F
:1076A000EF10003B83D7018E39BF0945EF0000780A
:1076B0009DBF1386018B14428D45850623A8D18A70
:1076C0001442E3F0D5FA83A607C47D17A18AD1FA44
:1076D00003A607C42145938707C0798E23AAC18AD0
:1076E0008C431396260000102296F98D2320B6FEB7
:1076F00085069107E396A6FE9386418B9042B76577
:107700000040B76700401366160023AAC18A904262
:10771000798E23A0C5C49042799A23AAC18A944243
:10772000758F23A0E5C403A747C41377074065DF1F
:1077300041671307F7BF416623A2E7C47D1693870D
:1077400007C00147A145931627000810AA9683A6F3
:1077500006FE91070507F18E23AED7FEE315B7FEAF
:10776000FDBD97A7FF1F83C7870C81C7954723A23D
:10777000F18C8280914723A2F18C8280828091E5F6
:10778000854733B5A700060582800945828011C56B
:107790001795FF1F1305C5A882809387418D9C43D1
:1077A0001D472398E7008280EFB28F98EFF03FFEED
:1077B0006FB04F9AEFB2CF979384418D9840854632
:1077C0008347070093F7F707638BD70293061002EE
:1077D00009456394D702834617006386F60493072E
:1077E0000002639CF60017040000130424FC00CF81
:1077F000231907000145029401456FB0AF958347F7
:107800002700930620026385D702930610020945DC
:10781000E395D7FE170400001304C44F00CF0145C1
:1078200002949840E9B717040000130484F6C1B726
:10783000170400001304E44AD5B79387418D984399
:10784000930610020145834707000347170093F78B
:10785000F7076383D70082801307E7FD1377F70FDD
:1078600005453335E50006058280EFB26F8C9387BE
:10787000418D9C4323850700C129B7650040B76748
:1078800000408566938707C09386F6F0138605C28D
:1078900098439107758F23AEE7FEE39BC7FE9307DE
:1078A000F00F23A2F5C4EF1090188145014523A2E3
:1078B000018CEFF05F8C5145EFB0AF9885450545E1
:1078C000EFF07F8B6FB00F89EFB28F869387418D7A
:1078D00017970000130787649C430347770001450F
:1078E00023950700A384E700EF1040629305002072
:1078F0000145EF10A062C1450145EF1020649305DA
:1079000000050145EF10207F930500060145EF10AB
:10791000807C0145EF1020759785FF1F83C5857911
:107920000145EF1030050145EF10E06CB7660040EF
:1079300003A606C0C1671387F7FF9317160163DF1D
:10794000070083A706C0F98F05671307F7F0F98FC3
:10795000316713070708D98F23A0F6C037670040A7
:10796000832707C093F7070485C3832707C0C16631
:10797000FD16F58F85669386F6F0F58FA1669386E2
:10798000060CD58F2320F7C0930500600545EF1046
:10799000E058930500020545EF10405A9305000793
:1079A0000545EF1040739305000B0545EF10A074DB
:1079B000930500040545EF10E07B8D650545EF104C
:1079C000605C37670040832747C093F7070485C38F
:1079D000832747C0C166FD16F58F85669386F6F04E
:1079E000F58FA1669386060CD58F2322F7C0B76664
:1079F000004003A646C0C1671387F7FF931716011F
:107A000063DF070083A746C0F98F05671307F7F008
:107A1000F98F316713070708D98F23A2F6C0814574
:107A20000945EF10A04F930500020945EF100051E2
:107A30009305000D0945EF10006A9305000F0945F5
:107A4000EF10606B930500020945EF10A0728D6581
:107A50000945EF102053B766004003A686C0C167F2
:107A60001387F7FF9317160163DF070083A786C00C
:107A7000F98F05671307F7F0F98F316713070708C8
:107A8000D98F23A4F6C037670040832787C093F7B8
:107A9000070485C3832787C0C166FD16F58F8566F9
:107AA0009386F6F0F58FA1669386060CD58F232476
:107AB000F7C081450D45EF106046930500020D4566
:107AC000EF10C047930500110D45EF10C0609305FE
:107AD00000130D45EF102062930500020D45EF10D5
:107AE00060698D650D45EF10E049B766004003A65B
:107AF000C6C0C1671387F7FF9317160163DF07003E
:107B000083A7C6C0F98F05671307F7F0F98F3167B0
:107B100013070708D98F23A6F6C0376700408327CD
:107B2000C7C093F7070485C38327C7C0C166FD1686
:107B3000F58F85669386F6F0F58FA1669386060C21
:107B4000D58F2326F7C0930500601145EF10003D47
:107B5000930500021145EF10603E93050017114593
:107B6000EF1060579305001B1145EF10C0589305A7
:107B700000041145EF1000608D651145EF10804045
:107B800037670040832707C193F7070485C383271E
:107B900007C1C166FD16F58F85669386F6F0F58FF1
:107BA000A1669386060CD58F2328F7C0B7660040E0
:107BB00003A606C1C1671387F7FF9317160163DF9A
:107BC000070083A706C1F98F05671307F7F0F98F40
:107BD000316713070708D98F23A8F6C00145EF00C6
:107BE0009062854723A2F18C6FA0DFD6EFA25FD40D
:107BF00093850183EF00807F6FA0DFD5EFA25FD375
:107C000093858182EF00807E6FA0DFD49387418DC2
:107C10009C43A14683C5370083D7470063EFB6086E
:107C2000EFA21FD1930600412A861397550063885F
:107C3000D70863F9F602856693854690638AB70094
:107C400093864610638CD704930640416388D7021D
:107C50009785FF1F93854547BA953285EF000079D8
:107C60006FA05FCF93068040638BD7049306C0401C
:107C70006386D70093064040E39CD7FC9787FF1F9D
:107C800093878744B385E70083D64501F9D69305EA
:107C90000701BE953285EF006075D9B79787FF1F42
:107CA00093878742B385E70083D6C501C5DA93057C
:107CB0008701BE95EF00807365B701458280978785
:107CC000FF1F93876740B385E70083D6C500D1D6F1
:107CD00093058700BE953285EF00407151B79387B9
:107CE000418D9843854783455700F11513F7F50FEC
:107CF00063F4E70001458280EFA29FC39787FF1FCF
:107D00009387874E8E05BE95EF00406E6FA09FC48F
:107D10009387418D9843854783455700F11513F7A5
:107D2000F50F63F4E70001458280EFA27FC09787DB
:107D3000FF1F938767388E05BE95EF00206B6FA0FD
:107D40007FC1828082808280B7670040054723A080
:107D5000E7C423A007C4096723A207C4130707C009
:107D60002390E18E0967130707C023A0E7C40145EC
:107D70008280EFA2FFBB37660040832806C44165BE
:107D8000130606C0C20893D80801814797A5FF1FB4
:107D9000938545A77D1521481442139727002E97F8
:107DA000E98E14C385071106E39807FF13F8E8FF6F
:107DB000B767004013E70840420823A0E7C493E8F0
:107DC00018401358080123A017C51367084023A0C3
:107DD000E7C403A747C41377074065DF416713076C
:107DE000F7BF416623A2E7C47D16938707C001470A
:107DF000214593162700AE96944291070507F18E10
:107E000023AED7FEE317A7FE37670040136888400C
:107E1000232007C5832707C4C207C18393E7470010
:107E20002320F7C4EFF00FB36FA0DFB29D476304C8
:107E3000F50023AEA18A9386C18B9C4215476362ED
:107E4000F70EEFA2FFAE171700001307277B8A0774
:107E5000BA979C43BA97828737670040832707C445
:107E6000C207C18393E707012320F7C4954723AED8
:107E7000F18AA9472380F18C6FA0DFAD83C746004C
:107E8000FD172380F18C83C7460093F7F70FEDF7BA
:107E900037670040832707C4C207C183BD9BC20761
:107EA000C1832320F7C4994723AEF18A23A4018C10
:107EB000E1B79387818C9C43ADCB954723AEF18A84
:107EC00065BF37640040832704C4C207C183ED9BAC
:107ED000C207C1832320F4C4EFF04FA8B167938792
:107EE00007F02320F4C4914723AEF18A854723A4E9
:107EF000F18C6FA03FA689472380F18C8D4723AE7C
:107F0000F18A6FA03FA583C74600FD172380F18C3F
:107F100083C7460093F7F70FA5F3914723AEF18A85
:107F2000A1BF994723AEF18A82803764004083273E
:107F300004C4C207C183ED9BC207C1832320F4C4DC
:107F4000EFF0CFA1B167938707F02320F4C49947DE
:107F500023AEF18A15B711CDEFA29F9D9387C18DF6
:107F60009C439C4382979387418D884329056FA04A
:107F70007F9E9387418D9C4305472398E70082802D
:107F800011CDEFA2FF9A9387C18D9C439C478297A6
:107F90009387418D884331056FA0DF9B9387418D87
:107FA0009C4305472398E70082809387418D98433F
:107FB00059C92398018C8347070093F7F70795EB7E
:107FC00083479700014793F6070291C2094793F749
:107FD0000704ADC3136717002388E18CEFA25F95F8
:107FE0009387C18D9C439C4B82971385018D6FA015
:107FF0007F9685461385018D638BD704894601459D
:108000006397D70403475700B7660040938606C0BE
:108010009377F7008A07B69762079C436187634EA0
:1080200007008D660567F58FE39AE7FA8547238891
:10803000F18C6DB72388E18C55B7414793F707035F
:10804000E39EE7F8E5B789472318F700828082802E
:10805000EFA27F8C9389418D83A4090003D404018E
:1080600009E803C9840091476306F90611490144F0
:1080700009A883D7440163FA8706094963F3870097
:108080003E849C4C42044180228582972A8A014585
:10809000EF1080082286AA855285EF00D062A28563
:1080A0000145EF10400B03D7240183D70401818FD2
:1080B0003A942398F400239984009307000383A43F
:1080C00009002392F18E8D672391F18E2384240180
:1080D0006FA0BF879387C18C984385476309F700DA
:1080E000C1472392F18E1D49D5B7114941BFB767EA
:1080F000004083A707C5373700200907C207C1839F
:10810000BA97860723A00700930700032392F18EF6
:1081100023A6018C65BF9387418D9C4383C69183C1
:10812000094503C7370063E4E60283C6270085E2FA
:1081300083D6470089EEEFA2AFFF9386C18D9442AC
:108140002385E700DC42829701456FA0BF808280D3
:10815000EFA20FFE1384418D1387818D1C401843BD
:10816000411183C53700184F03C5570002971C40C3
:1081700003C7A7001DCB2AC60DE903C7470015E7B3
:1081800083C727009DE39387C18D9C43DC4782977B
:108190001C40324583C6570003C73700A385D7006C
:1081A0002386E70041016FA0EFFA094541016FA066
:1081B0006FFA9387418D98438347070093F7F7073A
:1081C000B5CF894609456383D7008280835627004F
:1081D0003E85E5FE83464700EDFAEFA26FF5834743
:1081E0005700B7660040938606C013F6F7F71314DE
:1081F00026003694E2071440E18763C907048D65C1
:10820000ED8E83C5818309456378B60295C6034721
:10821000A7001DC363CF07021C40C164FD14E58F96
:108220000D69B3F7270105676386E7049387C18D5E
:108230009C43DC4B829701456FA0CFF183479700A9
:10824000014593F7F7FDA304F700828093F6060338
:108250004DBF1C40414793F70703E399E7FC1374B4
:10826000F60F2285EF003064930500032285EF00AE
:10827000F04C6DBF31E69785FF1F83C5A5E301452F
:10828000EF00506F1840F1779387F7F87D8F420722
:108290008D6741833D8FE177938707085D8F4207A4
:1082A000418318C01C40E58FB3F72701E38027F90D
:1082B0008D6618C01C40E58FF58FE39CD7FEBDB7D7
:1082C0003285EF00105B1840F1779387F7F87D8FC8
:1082D00042078D6741833D8FE177938707085D8F64
