:042800006F704003B2
:102804000028000000000000A63B0000AA3B0000D6
:1028140000000000329800000000000000000000EA
:102824003298000032980000000000000000000010
:102834003298000000000000329800000000000000
:10284400329800003298000032980000329800005C
:10285400329800003298000032980000329800004C
:10286400329800003298000032980000329800003C
:10287400329800003298000032980000329800002C
:10288400329800003298000032980000329800001C
:10289400BC780000329800003298000032980000A2
:1028A40032980000329800003298000032980000FC
:1028B4003298000032980000FA7300003298000049
:1028C40032980000329800003298000032980000DC
:1028D400329800002A6C0000329800003298000000
:1028E4003298000032980000B0780000329800005E
:0C28F4003298000032980000329800007A
:10290000397101436EC619A0397141536AC866CA4C
:1029100062CC5ECE19A0397101535AD056D252D42E
:102920004ED64AD826DA22DC06DE330161408282A6
:1029300041114AC026C222C406C68282B24D41015C
:10294000024D924C224CB24B4101024B924A224A18
:10295000B2494101024992442244B240410182807D
:102960002A8309CA83830500230073007D160503AB
:1029700085056DFA828015C22A8385466367B50096
:10298000FD561307F6FF3A93BA958383050023009B
:1029900073007D163693B6956DFA82802A8311C630
:1029A0002300B3007D16050365FE8280B7F700E0C3
:1029B000D8438146799BD8C303C721863306A70233
:1029C00037F700E090CBD4CB944393E6060194C351
:1029D000944393E6160294C35C43858BF5DF1C4356
:1029E000F99B1CC38280B7F700E0D8438146799BEE
:1029F000D8C303D701863306A70237F700E090CB90
:102A0000D4CB944393E6060194C3944393E6160211
:102A100094C35C43858BF5DF1C43F99B1CC3828008
:102A20009C4103A88501D04DD4415841B3E707012B
:102A3000D18F3706F1E0A2061306F6EF718FD58F1E
:102A4000D98F5CC1D0459C4994451845D18F37F644
:102A5000F1FF86061306D67F718FD58FD98F1CC5DF
:102A600083C745015855B70610FFFD1793F7F70FB9
:102A7000FD16758FD207D98F5CD582801C4589C51C
:102A800093E717001CC58280F99B1CC582801C45FA
:102A900089C593E707101CC5828093F7F7EF1CC523
:102AA00082801C4593E787001CC5828008450D8104
:102AB000058982801C4593E747001CC58280084534
:102AC0000981058982801C4591C537075000D98F3F
:102AD0001CC582803707B0FF7D17F98F1CC5828027
:102AE000A54763F7B704938765FF139717003E97D1
:102AF0000328C5009D47B397E70093C7F7FFB3F7D7
:102B00000701B396E600DD8E54C5994763E5C70417
:102B10007D16931726003E965859FD47B397C70078
:102B200093C7F7FFF98F3396C5005D8E50D9828029
:102B300013971500032805012E979D47B397E700CB
:102B400093C7F7FFB3F70701B396E600DD8E14C90C
:102B50009947E3FFC7FAB14763E2C70265169317C7
:102B600026001459B2977D473317F7001347F7FF34
:102B7000758FB397F500D98F1CD982804D16131726
:102B8000260054553297FD47B397E70093C7F7FFE8
:102B9000F58FB395E500DD8D4CD582805C4191C504
:102BA00037070004D98F5CC18280370700FC7D178E
:102BB000F98F5CC18280011123030100034761008A
:102BC000A54763E5E70425461C4593E787001CC538
:102BD0001C45A18BF5FF1C4593E747001CC51C4510
:102BE000918BF5FF744583476100034761008607B9
:102BF00005071377F70F2303E100938707020347C5
:102C000061008A972396D7FEE370E6FC2303010058
:102C100003476100A54763EAE70A2146A545A303E8
:102C20000100834771006367F6080347710083471B
:102C300071000607850786071307070293870702B7
:102C40000A978A970357C7FE83D7C7FE63F9E7043D
:102C5000834771008607938707028A9783D7C7FE49
:102C60002314F1000347710083467100834771000C
:102C700005070607130707020A970358C7FE8507CB
:102C800013971600035581001307070286070A975A
:102C900093870702231607FF8A972396A7FE834789
:102CA0007100850793F7F70FA303F10083477100C5
:102CB000E37DF6F683476100850793F7F70F23035B
:102CC000F10083476100E3FCF5F4231401002315B0
:102CD00001002303010003476100954763ECE7040B
:102CE00093060060154625A88347610003578100BD
:102CF00089078607938707028A9783D7C7FEBA9703
:102D0000C207C1832314F10083476100850793F74D
:102D1000F70F2303F10083476100636DF6008347DB
:102D2000610089078607938707028A9783D7C7FEC2
:102D3000E3FCF6FA834761006385071003578100BF
:102D4000834561008357810003466100834661002B
:102D50003347B702B3E7C7028607B3C7D702BA97AC
:102D6000C207C1832314F100034761009947998F7B
:102D700093F7F70FA303F10083477100F5C30347EF
:102D80006100954763EEE70295468347610003576C
:102D9000A10089078607938707028A9783D7C7FE12
:102DA000BA97C207C1832315F100834761008507E5
:102DB00093F7F70F2303F10083476100E3F7F6FC75
:102DC0000357A100834571008357A100034671009A
:102DD000834671003347B702B3E7C7028607B3C71C
:102DE000D702BA97C207C1832315F10003558100AA
:102DF0008355A100835781000356A1008566130700
:102E0000004093860680B307F7403386C640098F9B
:102E10008D8EC2074206C18741864207C206B2971D
:102E2000C1864187369793D6F7011355F701B697B8
:102E30003A95858B0585958F3E95420541850561BF
:102E40008280930700402314F100034761009947F3
:102E5000998F93F7F70FA303F1008347710085F370
:102E60008567938707802315F10049B71C414167A7
:102E70007917F98F1CC12320050023220500232484
:102E80000500B70702402326050013878700630467
:102E9000E5041387C701630BE50213870703630784
:102EA000E50413874704630AE5041387870563096C
:102EB000E5021387C7066307E5041387070863095C
:102EC000E504138747096308E5008280D843136748
:102ED000070FD8C38280D8431367F700D8C3828016
:102EE000D843B7060F00558FD8C38280D843856674
:102EF000938606F0558FD8C38280D843BD66558F20
:102F0000D8C38280D843B706F000558FD8C38280DB
:102F1000D843B706000F558FD8C3828090519C4587
:102F20009449D84983A88501D18FD58FD04DD451EC
:102F3000D98FB3E71701184103A88502D18FD58F28
:102F4000E176BD06D045758FB3E707019441D98F6F
:102F50001CC1DC4150C114C55CC582801C4189C5BF
:102F600093E717001CC1828041677917F98F1CC154
:102F700082804CC18280B70702409C437D8D3335EF
:102F8000A0008280B7070240C8C3828058410C412C
:102F90000328C500B7060140938706403E9713C635
:102FA000F5FF6303080483A8064003288500414316
:102FB000B3F8C80023A01641D443F18ED4C3144300
:102FC000CD8E14C3184190479346F7FF758E90C776
:102FD000D047F18ED4C7630D68003E988327080060
:102FE0005D8F2320E80082801C43F18F1CC3828008
:102FF0009447D98E94C7D447558FD8C78280B707D6
:10300000014023AAA7408280B7066745B727024040
:10301000938636123797EFCDD4C31307B79AD8C328
:10302000D4D3D8D38280372702401C4BA166D58FDA
:103030001CCB8280B7270240984BB706020013755D
:1030400005F0558F98CBC8CB944B3727024093E6B9
:10305000060494CB5C47858BF5FF1C4B8176FD16EF
:10306000F58F1CCB8280372702401C4BC16613753D
:1030700005F0D58F1CCB5C47858BF5FF37270240C9
:103080005C47898BF5FFAE86158D93850510372734
:1030900002409042B387A600910690C35C47898B9B
:1030A000F5FFE398B6FE1C4B37062000B72602401A
:1030B000D18F1CCBDC46858BF5FF9C4A41777D1771
:1030C000F98F9CCA828003A8850093770801137E3C
:1030D000F80081C7DC41336EFE00B7270240985BE1
:1030E000B707000FF98FE9EB8547A381F186B71782
:1030F0000140630AF50C83D6050093F7F60FB5E39C
:103100009307F00F63FED70403234500014785486A
:10311000930E8002130F8004A14521A00507630FC1
:10312000B70293078700B397F80033F6D700E39709
:10313000C7FE6301D80B6313E8011CC913162700EF
:10314000BD47B397C70093C7F7FF33F36700331644
:10315000CE00336366000507E315B7FC2322650044
:1031600082800323050081478548930E8002BD4F6E
:10317000130F8004A14521A08507638CB702339704
:10318000F8003376D700E319C7FE6304D80763134A
:10319000E80118C9139727003396EF001346F6FF8E
:1031A000337366003317EE00336367008507E398D7
:1031B000B7FC23206500A9B7B7170140E31DF5F25E
:1031C00083C731868DDB83D60500B5822390D50079
:1031D000C9FA8280131627005CC9BD47B397C700A0
:1031E00093C7F7FF33F367003316CE0033636600EF
:1031F0009DB758C9139727003396EF001346F6FF83
:10320000337366003317EE003363670045B7B717B3
:1032100001406307F5001C45FD8D3335B000828009
:1032200083C73186EDDB1C45B581FD8D3335B0009C
:103230008280B71701406304F5000CC9828083C700
:103240003186E5DFB5810CC98280B7170140630480
:10325000F5004CC9828083C73186E5DFB5814CC952
:103260008280EFF2EFEC8357450001112A84680059
:10327000939407012E89192ED24737470F00130761
:10328000072433D7E702C18093F404FCC204C18051
:103290000326090061651305056A93150701C181BD
:1032A000CD8C2312940083560400C206C182F99A81
:1032B000C206C1822310D4006363C5060606B3D7D5
:1032C000C702114793960701C18263E0E60A8505AC
:1032D000C205C181C207C1832310B402231EF400BA
:1032E00083570400835649008355A90093E71700CC
:1032F0002310F400835704000357C90003568900C4
:10330000C207C183CD8E93F757BFD58F2310F4002A
:10331000B367C7002314F40005616FF0AFE3835572
:103320006900B166FD166384D50493161600B29643
:103330008E06B296B3D7D7029166C207C183D58FE6
:103340009396470199E293E717009306C01233075B
:10335000D702A166D58F9306803E3347D702050773
:10336000420741832310E40295BF91478DB793161E
:103370001600B296B3D7D702C207C183D1B783571D
:10338000050091C593E717002310F5008280C2075E
:10339000C183F99BC207C1832310F5008280835744
:1033A000050091C593E707102310F5008280C2073E
:1033B000C18393F7F7EFC207C1832310F500828022
:1033C0008357050091C593E707202310F5008280FD
:1033D000C207C18393F7F7DFC207C1832310F5004B
:1033E00082808357050091C593E707402310F500BD
:1033F0008280C207C18393F7F7BFC207C18323103E
:10340000F50082802318B500828093F7E50F19C27A
:1034100093E715002318F500828003574501835771
:10342000850113950701598D6D8D220521810D8D23
:10343000133515008280411102C402C693D7C5011D
:103440002AC63EC4A247A205A18199CBB247D107A3
:103450003EC6B247884341016D8D3335A00082805E
:10346000B247C181E1073EC6B247884341016D8D35
:103470003335A00082809387418698430346050038
:1034800015EB8347250037E700E09207329793F763
:10349000F70F2300F7405441054793575600331761
:1034A000C70085CE938707048A07B7E600E0B69782
:1034B00098C38280984385466309D7028C430947A5
:1034C000638EE50498438D466300D7049843914783
:1034D000E313F7FC834715007DB7938707068A0738
:1034E000B7E600E0B69798C38280834725008346FD
:1034F000150092076380E60437E700E093F7F70FC3
:1035000032972300F74041BF8346150083472500CB
:103510006365D7028606B6979207F9BF0347150081
:103520008347250063FFE60079170A07BA9793F7E8
:10353000F70F920793E707F8C1B7F1168606B6971B
:10354000FDB70A07BA97920745BFB7160240DC429B
:1035500071771307F77FF98F0E055D8DC8C28280E2
:10356000B7170240D843B70640FFFD16758FD8C382
:10357000D8435A05598DC8C38280B7160240DC4231
:1035800051777D17F98FC98FDCC28280B716024050
:10359000DC42214613F7C700B7177A00938707204C
:1035A0006302C7061CC137160240584297D6FF1F58
:1035B000938646A511833D8B369703470700B3D703
:1035C000E7005CC1584221831D8B369703470700F3
:1035D00033D7E70018C558422D831D8BBA9603C711
:1035E000060097D6FF1F9386E6C7B3D7E7005CC5F2
:1035F000584239830D8B369703470700B3D7E7024C
:103600001CC98280DC42D8424166C983BD8B8907D0
:10361000C546718F638ED70211EF374702400327EB
:103620000780418B19CF37177A0013070720B3871C
:10363000E7028DBF371702405843B7060200758F67
:103640007DD337173D0013070790B387E70299BF73
:10365000C9476DF3D9B799C5371702405C4BC98F7D
:103660005CCB8280B7170240D84B1345F5FF798DAC
:10367000C8CB828099C5371702401C4FC98F1CCF19
:103680008280B7170240984F1345F5FF798D88CF98
:10369000828099C5371702405C4FC98F5CCF82800A
:1036A000B7170240D84F1345F5FF798DC8CF8280F8
:1036B00003D6250083D7050083D6450003D76500D0
:1036C00083D88500D18F03D8A500D58FD98F83D615
:1036D000C500B3E717010357050003D6E500B3E7BC
:1036E0000701D58F8D6693860604758FD18FD98F8C
:1036F0002310F5008357C5017D7783D60501130795
:10370000F77FF98F231EF5002318D5008280835799
:10371000050091C593E707042310F5008280C207D6
:10372000C18393F7F7FBC207C1832310F5008280A2
:103730008357450009C6CD8F2312F500828093C5BB
:10374000F5FFED8F2312F50082808357450091C568
:1037500093E747002312F5008280C207C183ED9BE7
:10376000C207C1832312F5008280835705003737D3
:103770000140130707C0C20783D6050003D64500E2
:1037800003D86500C1836307E50437070040630081
:10379000E50213070740630CE50037170040930864
:1037A000078063061501130707C06317E50003D7F9
:1037B000250093F7F7F8D98F93F7F7CFB3E7070111
:1037C0002310F5002316C5022314D5028547231ABA
:1037D000F500828003D7250093F7F7F8D98F93F788
:1037E000F7CFB3E707012310F5002316C502231412
:1037F000D50283C785002318F5028547231AF500F3
:1038000082808357050091C593E717002310F500C8
:103810008280C207C183F99BC207C1832310F500D0
:1038200082808357C50009C6CD8F2316F50082809C
:1038300093C5F5FFED8F2316F50082808357C500F1
:1038400009C6DD8D2316B500828093C5F5FFED8F87
:103850002316F500828083578500C207C183E19B50
:10386000C207C1832314F50082802314B502231AF2
:10387000C500828083570500C207C18393F7F7F81C
:10388000CD8F2310F500828083578501C207C18345
:10389000DD9BCD8F231CF50082808357C501C207B5
:1038A000C183DD9BCD8F231EF50082808357C50128
:1038B0007D771307F77FF98FA205CD8FC207C183EC
:1038C000231EF500828083570502C207C183F59B42
:1038D000CD8F2310F502828083570502A205C2070F
:1038E000C18393F7F7DFCD8FC207C1832310F502A1
:1038F00082808357050279777D17F98FB205CD8FC6
:10390000C207C1832310F502828003570502854751
:10391000B397B70093C7F7FF7D8F2310E502835756
:1039200005023316B600D18FC207C1832310F502FA
:103930008280035705028547B397B70093C7F7FF07
:10394000F98F2310F50293F775FF610595C3F11503
:10395000C205C1818581AA959C4165777D17F98F44
:103960009CC19C412206420641825D8E90C18280AC
:103970008581AA959C4193F7F7F89CC19C415D8E87
:1039800090C182802316B5028280231AB5028280FC
:10399000231EB50282802310B50482808357050060
:1039A000C207C18393F7F7CFC207C1832310F50085
:1039B00083570500CD8F2310F500828083570501C2
:1039C0000355C500ED8F4205418189C76D8D3335A3
:1039D000A00082800145828093C5F5FFC205C181A8
:1039E0002318B5008280EFE2BFF40357050183D7A7
:1039F0006500F576FD16758FD98F03D7C50023189E
:103A0000F5008356C50083D745007D762A841306CA
:103A1000369F03D58500F18EAE8483D5A500D58F62
:103A2000C98FCD8F2316F40083574401011168001C
:103A3000C207C18393F7F7CFD98F231AF400B936A1
:103A4000B747014093870780630BF40852468356BB
:103A5000C40093171600B297C2068E07C18698401D
:103A6000B29763C006040A07B3D7E702930640067D
:103A70000356C4004206418633D7D702B3F7D702B4
:103A8000120763400604920793872703B3D7D70230
:103A9000BD8BD98FC207C1832314F40005616FE089
:103AA0007FEB0607B3D7E702930640060356C40030
:103AB0004206418633D7D702B3F7D7021207E35441
:103AC00006FC8E0793872703B3D7D7029D8BD98F28
:103AD000C207C1832314F40005616FE0BFE76246AB
:103AE000BDB78357C50091C50967D98F2316F50067
:103AF000828079777D17F98F2316F500828093F7FE
:103B0000F50F05479583B315B7006384E70289462F
:103B100013074501638CD7001C4301C6CD8F1CC31E
:103B2000828093C5F5FFFD8D0CC3828013070501CC
:103B3000E5B71307C500CDB793F5F51F2312B50000
:103B40008280035545001375F51F828003550500DB
:103B50006D8D3335A000828093F6F50F0546958272
:103B60002A87B317B600638BC60209466383C60271
:103B70008356450133F5F60083570700C207C1831A
:103B800001C9A18105473317B700F98F3335F0001C
:103B900082808356050133F5F600F9BF8356C500D0
:103BA00033F5F600D1BF7300203001A0EFE25FD8FB
:103BB00003A7018E95472A84630AF70083474500CF
:103BC000A3040500A302F5006FE0DFD803457500EC
:103BD000EF50D01B93070002E318F5FE8345540015
:103BE000834744006387F50663F4B700930700F842
:103BF000034784008D8F93F7F70F9374F70F63E7F4
:103C0000E704834614000346040003472400834767
:103C10003400A206D18E4207558FE207D98F26863F
:103C2000BE951385C1B3EFE0BFD38347540026860A
:103C300003457400BE9493F4F407A30294009385A3
:103C4000C1B3EF30D06FA3040400BDBF93F4F70FEE
:103C50004DBF0347940049FF85BFEFE27FCD03A727
:103C6000018E9547034645002A846308F700A302A6
:103C7000C500A30405006FE0FFCD83461500034790
:103C800024000345050083473400A206C98E42077D
:103C9000558FE207D98F130716002302E400B2976D
:103CA0002380B7008347440083465400139787015D
:103CB00061871347F7FF7D87F98F2302F400E39CA8
:103CC000F6FA8547A304F4002285CD358347940096
:103CD000E5FF6FE03FC8EFE21FC493870192C04B3E
:103CE00003C987019C4B1357840062093369E900BB
:103CF000A1831306F00381456204130519005D8C4E
:103D0000EFE0DFC983461400054781552301D90040
:103D1000034624002302E900834744002300B9003E
:103D2000A300C9002303E900A302F9009305000FD3
:103D30006382B72663EBF52051476388E72E637AE9
:103D4000F714130720086398E7220347740083469B
:103D500064000346540081450545EF1050050347B4
:103D60007400834664000346540085450545EF1002
:103D700010040347740083466400034654008945D9
:103D80000545EF10D0020347A40083469400034684
:103D900084008D450545EF1090010347A40083463C
:103DA00094000346840091450545EF1050000347F9
:103DB000A400834694000346840095450545EF1012
:103DC000007F1309B40099449309100203472900A6
:103DD0008346190003460900A6858504054593F42A
:103DE000F40FEF10C07C0D09E39234FF0347B40BCE
:103DF0008346A40B0346940B81450145EF10207BBD
:103E00000347B40B8346A40B0346940B8545014539
:103E1000EF10E0790347B40B8346A40B0346940BE1
:103E200089450145EF10A0780347840B8346740B46
:103E30000346640B8D450145EF1060770347840B03
:103E40008346740B0346640B91450145EF102076C1
:103E50000347840B8346740B0346640B9545014569
:103E6000EF10E0741304340B994413091002034754
:103E700024008346140003460400A68585040145FA
:103E800093F4F40FEF10A0727514E39224FF6FE027
:103E9000DFAB41476384E71A4547639EE70C8345E0
:103EA0005400034764000945A303B9002304E90053
:103EB000954513077900B2968506B697AE978507A4
:103EC000A301B90093F7F70F3306A7008346070055
:103ED0000507B69793F7F70FE31AE6FE9305000E72
:103EE0004A95A303F50013850192853B054485445B
:103EF0009389019219A895338347390005041374F7
:103F0000F40F9107A28463CE8702CA9483C504008C
:103F10004E859387050393F7F70EF1FF9305000D88
:103F20002D3B83C504004E850504FD1593F5F50F63
:103F30002D33834739001374F40FA2849107E3D61D
:103F400087FCEF30C0696FE05FA09305200F638BA3
:103F5000B7129305300F6397B700A303E90023045A
:103F6000E90029A01307100F6397E7000D45994555
:103F70001307790089B736967D57B2978D072302CC
:103F8000E9000D47A301E90093F7F70F9305000E31
:103F90000145B9B7176700001307C793034507002A
:103FA000976500009385C59303C3050083C815007A
:103FB00003C82500A303A90003C5350083C5450038
:103FC0008343170083422700834F3700034F470086
:103FD000834E5700034E670003477700230AB9005A
:103FE000FD552307E900A30AB9002947930500FA04
:103FF000A307E900A309A900230BB9002304790052
:10400000A30459002305F901A305E9012306D901F9
:10401000A306C90123086900A3081901230909019E
:10402000130779004145CD4579B50347540005454F
:104030009145A303E90013077900B5BD8146014608
:1040400081450545EF10205E8146014681450145C9
:10405000EF10605D034729008347190003464900BC
:1040600083465900BA978D0703476900B297B69700
:10407000BA970D4783450900A301E90093F7F70FAD
:104080000145B9BD1307A0FAA303E90013073005E2
:104090002304E900094595451307790029BD8547A3
:1040A000238DF1868280EFE21F87138741905C4B5E
:1040B00083448701238D0186A183E204DD8C03C63E
:1040C00054009305660093F5F50F2380B400D1C129
:1040D0001506938714001376F60F3E9626878147C0
:1040E000834607000507B69793F7F70FE31AC7FE55
:1040F000A6952380F500138541909305000EB13EEF
:1041000001449389419009A8893E83C704000504AE
:104110001374F40F63ED870233898400834509002B
:104120004E859387050393F7F70EF9FF9305000D6E
:104130002D36834509004E850504FD1593F5F50FD1
:10414000293E83C704001374F40FE3F787FC6FE084
:10415000CFFF814771BFEFE2AFFD93874190C04B26
:1041600003C787019C4B935684006207558FA18338
:10417000130600083A85620481455D8CEFE01F82DA
:104180008346240003461400834734002301D500EE
:1041900099462300D500A300C500A301F5009306AE
:1041A00010082A8763E7F6029306F00263F2F6042A
:1041B000938707FD93F7F70F9306100563EAF6025E
:1041C00097560000938646728A07B6979C43B69727
:1041D00082879306000F6385D7029306500F639979
:1041E000D7008547238DF186EF30603F6FE08FF673
:1041F00013060008BA851385C193EFE06FF6D5B7B3
:10420000976700009387C78283CE070003CE17000D
:1042100003C3270083C8370003C8470003C55700FE
:1042200083C5670003C6770083C68700BD472300A8
:10423000F700A547A302F7002303D701A303C70193
:1042400023046700A304170123050701A305A700A2
:104250002306B700A306C7002307D7008547238D91
:10426000F186EF30C0376FE0EFEE9D4685472300C3
:10427000D500930640F92303D500A302F500238D52
:10428000F1869DB7034694001387C1868146914508
:1042900013055400EF20604781BF03459400930548
:1042A0006700EF20805289B785450145EF20003F28
:1042B0008547238DF1860DBF81450145EF20003EE6
:1042C0008547238DF1860DB7EF20205F31BF03486E
:1042D000540003456400834574000346840083460C
:1042E00094000347A4009387C18623800701A3801D
:1042F000A7002381B700A381C7002382D700A38230
:10430000E7008547238DF186EF30602D6FE08FE465
:10431000930700022302F5008547238DF186E9B556
:10432000230105009306F00F1306F00F9305F00F1D
:104330000945EF10402F8547238DF18675B5EF10A5
:10434000506C5DB583467400034664008345540099
:104350000945EF10402D8547238DF18671B503483F
:10436000540003456400834574000346840083467B
:1043700094000347A4009387418785BF03469400B8
:10438000138741878546914513055400EF20E03798
:10439000A1BDEFE26FD7138401921C48834B440107
:1043A0000347A400A183E20BB3EBFB0055CF370B0F
:1043B00000019389B1867D1B130C000E954C930A66
:1043C000000D138AA18613090002FD545C440346C4
:1043D000B4008346F400B3F76701A207D18FB69704
:1043E00083C7070003C6090063828709630C560967
:1043F0006382570B8345040103460A0014480347B0
:104400004401A1826207558F2E972300F7000347CE
:10441000040105071377F70F2308E40063F7EC00A6
:1044200083C63B006D176301D7080347A40083458B
:10443000F400938607F3B336D0007D17B306D0405F
:104440003E961377F70F8505F58F2300CA002305E5
:10445000E400A307B4002380F9002DFB0945EF50C9
:1044600020140347A4003DF36FE08FCD630C560189
:104470002388019223002A01A3819B0013060002D6
:104480008145ADBF85078345040103460A0093F7C4
:10449000F70FADB77D171377F70F85062305E400F7
:1044A000A307D40005F75DBF6387C7020347A400D5
:1044B0008347F400238801927D171377F70F850750
:1044C00023850186A38501862305E400A307F40064
:1044D000E31E07EE61B7EFF01F80C9BFEFE2CFC266
:1044E000138441901C48834444010347A400A183E2
:1044F000E204DD8C4DCFB70B0001138A9186FD1BC2
:10450000130C000E138B8186954C930A000DFD59F8
:1045100001595C440346B4008346F400B3F77701C5
:10452000A207D18FB69783C7070003460A006382AC
:1045300087096304560B6386570B144803474401ED
:1045400003460401A1826207558F32972300F700CA
:104550000347040103460B0005071377F70F2308F1
:10456000E40063F7EC0083C604007D176305D708F9
:104570000347A4008345F400938607F3B336D000C5
:104580007D17B306D0403E961377F70F8505F58F5C
:104590002300CB002305E400A307B4002300FA00A6
:1045A0002DFB0D45EF40D07F0347A4003DF36FE0A6
:1045B0002FB963045603238A01907D1723803401A9
:1045C0001377F70F85062384018623002A0123052C
:1045D000E400A307D40015FFE9B7850793F7F70FA9
:1045E000A9BF7D171377F70F85062305E400A307FE
:1045F000D40005F37DB785360347A4008347F40054
:10460000238A01907D171377F70F8507238401868E
:10461000A38401862305E400A307F400E31B07EE4F
:1046200049B7EFE2EFB0B533553D13850192EFF096
:10463000EFD713854190EFF06FD783C7A18799E338
:104640006FE04FB18D346FE0EFB0EFE26FAE1389E2
:10465000C180034409008944630C940663EF84001D
:1046600055C037540040B7050300850513050440C5
:10467000EFE0BFDA55E96FE0EFAD8D47E31DF4FEE3
:10468000B7540040B70507009385450813850440DB
:10469000EFE0BFD86DD1854513850440EFE05FD2D0
:1046A00083C7B1879386D180850703C70600A38D92
:1046B000F18683C7B18763E8E708A38D0186FD57BC
:1046C0002300F9009547E318F7FA2380860065B7C1
:1046D00037540040B70507009385250813050440AB
:1046E000EFE0BFD349D903C7B18793870181BA9758
:1046F00083C5070013050440EFE0DFD08D4723009A
:10470000F90095BF37540040B70502001305044077
:10471000EFE07FD22DF1854513050440EFE03FC85F
:1047200085472300F90081BF03C7B18793870185BF
:10473000BA9783C50700014613050440EFE0FFCC9C
:10474000230099000DBF2386018035B703C7C180C0
:104750009307F00F6303F7008280EFE26F9D1384ED
:10476000B1800345040023860180EF20D0548145A9
:10477000170500001305A5EDEF20B04B2300A400A2
:104780006FE04F9D1345F5FF9357650093E707FCD6
:10479000136705FC93F7F70F1377F70FA207318123
:1047A000D98F93860181136505FC2390F600238140
:1047B000A60003C7C1809307F00F6303F700828050
:1047C000EFE20F971384B180034504002386018034
:1047D000EF20704E814517050000130545E7EF20D7
:1047E00050452300A4006FE0EF96EFE26F9405645C
:1047F00097C7FF1F938707F11304048022863E8525
:104800008145EFE0AF99228683A5C181EFE04F9506
:104810006FE04F94EFE2CF9199677390078037175D
:1048200002405C4301449384C18193E707085CC361
:1048300013898181EFE04FFD88402295EFE08FFFE3
:10484000832509008840A2952295EFE0DF811304BB
:104850000410EFE04FFD93070480E9FF3717024093
:104860005C4393F7F7F75CC3996793878708739066
:1048700007806FE02F8EEFE2AF8B1384014A13069F
:10488000000481452285EFE06F919307A0FA230091
:10489000F4009307101E2311F400EF20F01B2312E5
:1048A000A400EF009034AA8713060004A2851145E6
:1048B0002313F400EF30A0286FE0CF89B7F7FF1F74
:1048C00083A6877E03A7C77E83A7077F93DF860023
:1048D00013DF060193DE8601135E87001353070181
:1048E0009358870113D8870093D5070113D6870102
:1048F000A301D5002301F501A300E5012300D501A3
:10490000A303E5002303C501A302650023021501EB
:10491000A305F50023050501A304B5002304C50084
:10492000828091BFEFE2CF801384014E03470400E1
:104930009307A00A6304F7006FE0CF811306E0033A
:1049400081451385214AEFE06F85034714008347B3
:1049500024009384014A9306A0FAA380E4002380F4
:10496000D4001307000B636AF7041397870161876C
:104970006346070209476381E70E41476396E706EE
:104980001385414A253F9307001113060004A685AD
:1049900011452391F400EF30801A79BF93C70708BF
:1049A00013070003636FF708175700001307070981
:1049B0008A07BA979C43BA9782871307200E638EA3
:1049C000E70A6377F7041307300E639CE706930743
:1049D000301E13060004A68511452391F400238E92
:1049E0000186EF30C01589BF0547639CE70483A7A4
:1049F000818183C767001307101013060004A68582
:104A000011452391E4002382F400EF3040132DB7C9
:104A10001307000E6388E7001307100E6393E70285
:104A2000993D19BF834744001307001E2391E400FA
:104A3000638C072205476380E71AFD57A381F400C2
:104A4000E5BDFD57130600049385014A11452391E6
:104A5000F400EF30C00ECDB50347440083A7818139
:104A6000130600042383E700A68593072010114551
:104A70002391F400EF30A00CC1B58547238EF18659
:104A8000130600049307201EA68511452391F40008
:104A9000EF30E00A55B5034544009307F00F834813
:104AA0008400834594000347A400630EF52A93060F
:104AB000000F034854006303D5326300F82AAE8622
:104AC0004686C285EF00B02E9307001B1306000434
:104AD0009385014A11452391F400EF304006A9BDAA
:104AE000EF2080772A84EF20C076931704011317F4
:104AF0000501C183D98F130600041307101A93858B
:104B0000014A11452391E400DCC0EF3040032DB58C
:104B100083A7818183C6370003C6270003C74700E8
:104B200083C75700A206D18E4207558FE207D98F5F
:104B3000DCC013060004930710199385014A114540
:104B40002391F400EF20B07FC5BB834544000346AA
:104B50005400834664000347740083A78181238146
:104B6000B700A381C7002382D700A382E700130602
:104B70000004930700199385014A11452391F4001D
:104B8000EF20F07B55BB7931930710181306000412
:104B90009385014A11452391F400EF20507A69BBB7
:104BA000A93193070018130600049385014A1145A3
:104BB0002391F400EF20B07841B3EF203002930747
:104BC000001A130600049385014A11452391F4004D
:104BD000EF20F07695B383455400054593D6250024
:104BE00013D61500858A058A8589EF00F023834551
:104BF00064000D4593D6250013D61500858A058AD5
:104C00008589EF00702283457400154593D62500F1
:104C100013D61500858A058A8589EF00F020834523
:104C20008400014593D6250013D61500858A058A90
:104C30008589EF00701F83459400094593D62500B0
:104C400013D61500858A058A8589EF00F01D8345F6
:104C5000A400114593D6250013D61500858A058A30
:104C60008589EF00701CC9B903477400834664004E
:104C70000346540081450545EF0070130347A40027
:104C8000834694000346840085450545EF003012B5
:104C90000347D4008346C4000346B4008945054554
:104CA000EF00F010034704018346F4000346E400DC
:104CB0008D450545EF00B00F0347340183462401BD
:104CC0000346140191450545EF00700E034764014A
:104CD000834654010346440195450545EF00300DD8
:104CE00003479401834684010346740181450145CD
:104CF000EF00F00B0347C4018346B4010346A4014F
:104D000085450145EF00B00A0347F4018346E401FD
:104D10000346D40189450145EF0070090347240289
:104D200083461402034604028D450145EF00300816
:104D30000347540283464402034634029145014529
:104D4000EF00F006034784028346740203466402C0
:104D500095450145EF00B005C5B62E86BA86C685D5
:104D6000EF00700C95B33A864685EF00B00B834692
:104D7000A40003469400834584000545EF00D00A53
:104D80008346A40003469400834584000D45EF004C
:104D9000B0098346A400034694008345840015456A
:104DA000EF0090088346A4000346940083458400E6
:104DB0000145EF0070078346A40003469400834535
:104DC00084000945EF0050068346A4000346940082
:104DD000834584001145EF003005FDB12E86BA866B
:104DE000C6854285EF005004C5B183A7818103C702
:104DF000670085476303F7008280938741531387D9
:104E00004157138841578843CC439047D44708C340
:104E10004CC310C754C7C1074107E39607FF1306E9
:104E200000049385415705456F207051EFD2BFAE06
:104E30009387415B83C6070041476386E600EF2006
:104E4000007A6FD09FB003C717008D466301D70A61
:104E500063EDE60085476305F70A8947E311F7FE2E
:104E600093070003A38AF154D9BF9146E319D7FCF5
:104E700083C4270003C7370083C64700C2049317C3
:104E80008700DD8CD58C17540000130464C70549D6
:104E90009D498346B4000346A4008345940013054E
:104EA000F9FFB3D6D40033D6C400B3D5B400858A95
:104EB000058A85891375F50FEF0000778346240076
:104EC00003461400834504004A85B3D6D40033D684
:104ED000C400B3D5B4000909858A058A8589137988
:104EE000F90FEF0060740D04E31539FB89BFA38A45
:104EF0000154A3860154239701542388015481B798
:104F0000138411820345040093070003A38AF1541C
:104F1000EF20605A994517050000130545EDEF2075
:104F200040512300A40021BFEFD29FA083C7218856
:104F3000B9E71306E002814513856158EFD01FA63B
:104F40009387015283A8070003A847009447D847D6
:104F500083D70701938541574946054523A015018D
:104F600023A2050194C5D8C52398F500EF20303D54
:104F700009E585472381F18801456FD0BF9D93875F
:104F80004182984383C747009385415723AC01561C
:104F900023AE01561546054523A0015823A201580A
:104FA00023A4015823A6015823A8015823AA015875
:104FB00023AC015823AE015823A0015A23A2015A61
:104FC00023A4015A23A6015A23A8015A98C1238277
:104FD000F500EF20D03655F123810188014571BFDE
:104FE000EFD21F9583A7818183C767000947638933
:104FF000E7020D476389E70605476387E7021384E5
:10500000018203450400EF20604D8545170500002F
:10501000130545FDEF2000462300A4006FD09F93A9
:10502000EFF03F906FD01F9303C51182EF20604DCA
:105030009387415313874157138841578843CC4383
:105040009047D44708C34CC310C754C7C107410792
:10505000E39607FF13060004938541570545EF20AB
:10506000102E51FD65BF83C7118899CB753D41F95D
:1050700083C72188C5F7A38001882380018879BF71
:1050800023810188553525FD83C7018889C7854758
:10509000A380F188ADB72381018849B7EFD2BF87DC
:1050A00083D7418813D7870093894153A380F900A0
:1050B0002381E900A388015423990154238A0154D0
:1050C00097540000938404A701443D492285012E92
:1050D00005041374F40F19C983C7040083C61400B0
:1050E000CE9703C7D701558FA38EE7008904E31F2E
:1050F00024FD03C7090283C7E9018396818813470A
:1051000007F893C707042380E902238FF90063C4DB
:1051100006006FD09F833D45D92465DD03C7A901F3
:1051200083C7C90105078507238DE900238EF90090
:105130006FD0BF81EFD22FFE83D7418893C7F7FF8F
:1051400085879386E18713970701418383D50600FE
:105150001386418213558700A300F6002301A600A1
:105160006383E50885472380F1884546814513859B
:1051700011522390E600EFD07F82138901529307EA
:1051800010032300F900975400009384A49801446D
:10519000130A0021C149B3578A00858B1375F40F98
:1051A00085E3352C3307890001CD8347190003C6F9
:1051B000040083C61400D18FA300F9002301D70097
:1051C00005048904E31934FD1145112C09E5930701
:1051D00030032303F9002545192401E59147A30570
:1051E000F9006FD08FF62380018841B7EFD24FF4DA
:1051F000D920E52A9387A18883D407002390A700AC
:105200002A84B34795002394F188EF107062EF2051
:10521000A004138761889347F5FFC20783560700F0
:10522000C1832392F1886383F6022310F700EF20F5
:10523000003B83A7818183C7670005476380E7023E
:105240000D47638BE700693B6FD0CFF02310D70089
:10525000E31F94FC6FD00FF0F13DF5B78135E5B752
:1052600093171500138741603E97938641628357D9
:105270000700AA9603C6060086078D46D18FC2078F
:10528000C1832310F7006381D70241679306F7FFBC
:10529000638CD70071176383E70091E79387415FC1
:1052A000AA972380070082809387415FAA970547CA
:1052B0002380E7008280EFD2AFE4371401408545B8
:1052C00013050480EFD07FF8B94513050480EFD0B3
:1052D0005FF6371B014093050040130504C0938A15
:1052E0004162EFD01FF58144214A13090BC08D495B
:1052F000154C914C054D930B0B802945EFD00FEBCE
:10530000D68D0144B3158A00C205C1814A85EFD00C
:105310001FF0133515002380AD000504950DE31330
:1053200034FF8504850A63858407638234056386B8
:1053300094036385A409914513050B80EFD0FFF01A
:10534000AD4513050B80EFD0DFEE9305004013054C
:105350000BC0EFD01FEE89444DB74A85930500403E
:10536000EFD0BFEEBD455E85EFD0BFEC79B713053A
:105370000B80A145EFD07FED13050B809D45EFD04D
:105380005FEB9305004013050BC0EFD09FEAB5B764
:10539000C14513050B80EFD09FE7133515009387A8
:1053A0004162A387A7000144C14422850504137408
:1053B000F40F7D35E31B94FE6FD04FD813050B809F
:1053C0008945EFD09FE813050B80B545EFD07FE608
:1053D0009305004013050BC0EFD0BFE539BF93879D
:1053E000415FAA9703C5070082809386415F81478A
:1053F0000145414603C7060085063317F700598D5E
:10540000420585074181E397C7FE8280C205D18DA1
:10541000220533E6A50097CEFF1F938E6E75014ED1
:1054200097C2FF1F938242C7930FD039FD551303D4
:10543000D0340D4FB308FE03768815459698232087
:10544000C800B386A8005D47B357E600858BFD17FB
:1054500093F7A7FB938737072380F6007D17850610
:10546000E314B7FE61051108E31B65FC050E938E7E
:10547000CE08E311EEFD82801308C008330805034F
:105480001307D0394206A205558E4D8E1303D03432
:10549000FD55B307E50217C7FF1F1307676D3A985D
:1054A00017C7FF1F130747BF1545B388E700232021
:1054B000C800B386A8005D47B357E600858BFD178B
:1054C00093F7A7FB938737072380F6007D178506A0
:1054D000E314B7FE61051108E31B65FC8280EFD27F
:1054E0002FC513050020EFD01FA919E16FD08FC67B
:1054F00013050002EFD03FA875D937052000EFD083
:105500009FA76DD513050020EFD0DFA7130500027C
:10551000EFD05FA737052000EFD0DFA6B70400402B
:1055200013850440814537040240EFE08FAD130539
:1055300004038145EFD09FA21305C4018145EFD03C
:10554000FFA11305C4068145EFD05FA11305040335
:105550009305D039EFD0FFA11305C4019305D039CD
:10556000EFD03FA11305C4069305D039EFD07FA03B
:105570001305C4018545EFD07F9E130504038545BF
:10558000EFD0DF9D1305C4068545EFD03F9D8545CF
:1055900013850440EFE0EFA66FD0CFBBEFD24FB939
:1055A000EF2000132D3FEFF06F9A6FD0AFBA930743
:1055B000200263F3B70082809308D039B308150343
:1055C000131835002A98939715000A08AE973308E8
:1055D000A84013950601C295939637002206B3673B
:1055E000E5005D8E1397250097C7FF1F93874758E7
:1055F000BA979506C69690C397C7FF1F9387C7A90A
:10560000BE965D47FD55B357E600858BFD1793F7B2
:10561000A7FB938737072380F6007D178506E314E1
:10562000B7FE8280E5B389BD3336C0000606B337C6
:10563000D000B335B000D18F8A059386C188CD8F55
:1056400036952300F5000146BD47F55503C7060012
:1056500085063317F700F517598EE399B7FE3285A3
:1056600023AAC1886FF00F928D4763F5A70617C76D
:10567000FF1F1307276A8347070083461700D58F4C
:10568000B9E7834627009307F00F6392F604834738
:10569000370083464700BE9693F6F60F8DEAF9175A
:1056A00093F7F70FA301F7006366F502034657006F
:1056B0009306500D631DD60003476700850593F5DB
:1056C000F50F6316B7001395070141858280130516
:1056D000300F82801305400F8280EFD26FA53971A1
:1056E000894717B4FF1F1304E4922300F1009305C8
:1056F000803E93073020170500001305E51B23109B
:10570000F400EF10305797B7FF1F9387279283C697
:10571000970003C6870003C7A70083C7B700A20688
:10572000D18E4207558FE2072A88D98F0A85814694
:1057300001468545A3010401829721616FD08FA1A5
:10574000EFD20F9F397193074011856517B4FF1F82
:105750001304448C3EC09385853893073010170599
:105760000000130565152310F400EF10B05097B733
:10577000FF1F9387A78B83C6970003C6870003C7C5
:10578000A70083C7B700A206D18E4207558FE20754
:105790002A88D98F0A85814601469145A3010401D3
:1057A000829721616FD00F9BEFD28F98B707FF01CF
:1057B0003971938727533EC0C14717B4FF1F1304A5
:1057C00064852302F1009305803E9307303017056E
:1057D00000001305650E2310F400EF10B04997B7D1
:1057E000FF1F9387A78483C6970003C6870003C75C
:1057F000A70083C7B700A206D18E4207558FE207E4
:105800002A88D98F0A85814601469545A30104015E
:10581000829721616FD00F94EFD28F91938741903F
:1058200003C8270183C8170183C5370103C7470190
:1058300003C66701220883C6770103C35701336893
:105840001801C205B3E5050183C7870162074D8FC3
:105850002206834817000348270083453700336634
:1058600066001397060117A4FF1F1304A47A518F33
:10587000E207D98F8346340019472380E700A380CD
:10588000170123810701A381B700A38207002382A8
:10589000A70085472300F4009307F00F6388F60004
:1058A0003685EF10B043FD57A301F400EFE02FFF62
:1058B0006FD04F8A9387419003C5270183C5670145
:1058C00003CE170103C6370103C3570183C677010F
:1058D00003C7470117A8FF1F1308C87383C78701B1
:1058E0002205A20583480800B3E565003365C501BC
:1058F0004206C206CD8E498E6207E2079545518F5A
:10590000D58F638DB804EFD2AF82834618001D4651
:105910002300C8002946636BD60017460000130613
:1059200066238A06B2969442B29682860346170090
:10593000834627000347370099452380B700A3819A
:10594000E7000D47A380C7002381D700A38207008B
:105950002382E700EFE0AFF46FC0DFFF854723004D
:10596000F80082800346170083462700034737006C
:105970009D452380B700A381E7000547A380C700AA
:105980002381D70023820700A382E7002383070037
:10599000EFE0EFF06FC01FFC0346170083462700BF
:1059A0000347370099452380B700A381E7000547E7
:1059B000A380C7002381D700A38207002382E700CA
:1059C000EFE0EFED6FC01FF98346A7010345170015
:1059D0008345270003463700139746001377F70FD8
:1059E00013083701350723880700A3880700238998
:1059F000D70023800701A380A7002381B700A381DC
:105A0000C70023820700A382E700EFE04FE9A9B7B0
:105A1000E931EFE0CFE889B7413BEFE04FE82DBF38
:105A2000034617008346270003473700C9452380F4
:105A3000B700A381E7003147A382E7000547A380B1
:105A4000C7002381D70023880700A388070023828B
:105A5000E700EFE0CFE409B7EFC2FFEB97A7FF1F26
:105A60009387C75C1384419003C8D70003CFC70056
:105A700003C6E700034524018345640183C7F7009B
:105A8000834E140183463401034E540103477401CD
:105A9000034344018348840122083368E801220556
:105AA000A20542063365D501B3E5C501336606019B
:105AB00093898189C2064207E2074D8FC98E62032E
:105AC00013988801D18FCE8517C5FF1F1305852434
:105AD000B364E8003369D300238C0188829783C7BD
:105AE000090089CF17AAFF1F130ACA5203470A00E9
:105AF0008D466307D70091476304F7026FC0FFE448
:105B000017C5FF1F130505218346450003472500E0
:105B100011462300CA00758F9306F00F6300D70269
:105B200083471A002947E36BF7FC17470000130768
:105B300027058A07BA979C43BA97828703470500CF
:105B40008345150003463500834655004D8F518F20
:105B5000558F79F7938AA7FF568697C5FF1F9385C0
:105B6000C51BEFC05FE1238059015DBF03C509007C
:105B700093052003EFF05FAF634D051603453A0030
:105B800095472300FA009307F00FE309F5F6EF10AD
:105B9000F014FD57A301FA0095B703C5090093055A
:105BA000A004EFF07FAC6340052403453A0095471D
:105BB0002300FA009307F00F6307F500EF101012AF
:105BC000FD57A301FA0003452401034814010346CD
:105BD00064018345340183485401834674010347BB
:105BE000440183478401220597C9FF1F93898912C5
:105BF000336505012206C20503C879003366160124
:105C0000C98DC20662074D8FD18EE207834517000A
:105C100003462700D58F03473700631908429D4686
:105C20002380D700A380B7002381C700A381E700AA
:105C3000054723820700A382E70023830400EFE0E7
:105C40000FC66DBD03C5090093050004EFF0DFA189
:105C50006341050A97C7FF1F83C7370C6395071871
:105C600003453A0095472300FA009307F00F6307B6
:105C7000F500EF10B006FD57A301FA00034524011B
:105C800083471401834534010347440103466401FB
:105C9000220583485401834674015D8DC205834704
:105CA0008401C98D62074D8F220603481700034502
:105CB0002700834537003366160113970601518F7D
:105CC000E207D98F19472380E700A38007012381CA
:105CD000A700A381B70023820700A3820700EFE09B
:105CE0000FBC29BD03C509008945EFF0FF97E357B5
:105CF00005E81145EFF05FB211B503C50900930542
:105D00000004EFF07F9603453A0095472300FA0020
:105D10009307F00F6307F500EF10407CFD57A301D8
:105D2000FA008345240103456401034814018346B6
:105D300034018348540103467401034744018347F7
:105D40008401A205B3E505012205C20633651501EC
:105D5000CD8E42066207558F498EE20783451700B4
:105D600083463700D18F034627003147A382E700DF
:105D700003C7540049452380A700A380B7002381AF
:105D8000C700A381D7002382070023880400A388CB
:105D900004002383E400EFE08FB08DB303C5090056
:105DA0009305000497C9FF1F9389C9F6EFF0DF8BB5
:105DB00083C7790093F7F7039DE703C789009377BB
:105DC000F50F9386F7FFE396E6F203472A00F917EB
:105DD00012073107E39FE7F083C7290103C73901A1
:105DE000D98F638D07320545EFF01FA301BB03C5B3
:105DF00009009305A004EFF03F87E34605FE97C92D
:105E0000FF1F938929F183C77900638D0728054710
:105E1000E39BE7FC03C9990003C789009307E9FEE8
:105E20002302EA0093F7D70FE39507EC03453A0006
:105E300095472300FA009307F00F6307F500EF1072
:105E4000E069FD57A301FA0097C7FF1F938787EC0E
:105E50001387940017C6FF1F130646EC83C6B700CE
:105E600085070507A30FD7FE83C62701A303D70025
:105E7000E396C7FE83C7040183C0140183C32401D2
:105E800083C2340183CF440103CF540183CE640124
:105E900003CE740103C3840183C8940003C8A40023
:105EA00003C5B40083C5C40003C6D40083C6E400A0
:105EB00003C7F4002306FA00A3061A0023077A009A
:105EC000A3075A002308FA01A308EA012309DA010B
:105ED000A309CA01230A6A00A3021A0123030A01C3
:105EE000A303AA002304BA00A304CA002305DA000E
:105EF000A305EA00D147631AF90003C7B90183C7B4
:105F0000C901A30AEA00230BFA00034524018347D1
:105F1000140183453401034744010346640122050B
:105F200083485401834674015D8DC2058347840113
:105F3000C98D62074D8F22060348170003452700CD
:105F4000834537003366160113970601518FE20728
:105F5000D98F65472380E7004D47A3800701238140
:105F6000A700A381B700A382E7002382070085472B
:105F70002383F40093070002A383F400C147238422
:105F8000F400EFE0CF919DBE03C50900D145EFF0CD
:105F9000AFEDE35505BEB1BB03C509009305000491
:105FA000EFF08FECE34705D497C7FF1F83C7F7D601
:105FB000E39B07E203453A0095472300FA00930765
:105FC000F00F6307F500EF106051FD57A301FA00D1
:105FD00003452401834714018345340103474401E9
:105FE00003466401220503435401834674015D8D19
:105FF000C20583478401C98D62074D8F22068348FD
:1060000017000348270003453700336666001397DF
:106010000601518FE207D98F59472380E700414796
:10602000A381A700414697C5FF1F938525CFA38075
:1060300017012381070123820700A382E70013854C
:106040006400EFC0FF91EFE08F854DBCA381E700B6
:10605000B5461D472380D700A380B7002381C70022
:1060600023820700A382E70003C7C9008147238476
:10607000E40005C33387F9008346D7003387F40073
:106080008507A304D70003C7C90093F7F70FE3E31D
:10609000E7FE85472383F400C147A383F400EFE0C4
:1060A0000F80A9BC03453A0095472300FA009307E7
:1060B000F00F6307F500EF106042FD57A301FA00EF
:1060C00003452401834714018345340103474401F8
:1060D00003466401220583485401834674015D8DA3
:1060E000C20583478401C98D62074D8F220603488C
:1060F00017000345270083453700336616011397C1
:106100000601518FE207D98F1D472380E700A38046
:1061100007012381A700A381B70019BE03453A00F8
:1061200095472300FA009307F00F6307F500EF107F
:10613000E03AFD57A301FA0083472A0085CF554670
:106140009207058E9386040133859700A685137602
:10615000F60F2E87B307E60093F7F70FCE9783C7A6
:10616000070005072309F700E316D7FEC105C1069E
:10617000E391A5FE0347A90123880400A388040036
:106180002389E400034824018347140103453401B3
:106190008346440183456401220803467401034396
:1061A00054013368F80042058347840133650501D3
:1061B000E206C98E1207A20583C8160003C826008E
:1061C00003C536001377F70FB3E565009316060194
:1061D000CD8E1306D700E207D58F4D079376F60FC5
:1061E0002380E700A380170123810701A381A70073
:1061F00023820700A382D7002383D400EFD03FEA95
:10620000F5B8EFC24FF113844190834524018346D2
:1062100014010347340183474401A2050346640186
:10622000D58D420783435401834674014D8FE207A5
:1062300083458401D98F17A5FF1F1305A5DD834270
:106240005500834F6500034F7500834E8500034E54
:1062500095000343A5008348B5000348C50003C764
:10626000E700220633667600C206D18E13968501BA
:10627000B364D600A3825700930617002383F70167
:10628000A383E7012384D701A384C7012385670083
:10629000A385170123860701A383D400A1466304C5
:1062A000D71863F5E608B1476302F7289307400A59
:1062B000631EF72E034524018347140183453401EF
:1062C0000347440103466401220583485401834681
:1062D00074015D8DC20583478401C98D62074D8FAE
:1062E000220603481700034527008345370033661D
:1062F000160113970601518FE207D98F4547238076
:10630000E7002D47A38007012381A700A381B700E1
:1063100023820700A382E7002388040083C7540078
:106320002383F400EFD0BFD76FC02FE263030718B9
:106330009946631DD72603C9A70197A7FF1F938717
:10634000B7CD03C307002301250183C8170003C885
:10635000270003C5370083C5470003C6570083C61F
:10636000670003C777008549A3896400238A140165
:10637000A38A0401238BA400A38BB400238CC40044
:10638000A38CD400238DE400630B390113060003B2
:10639000814513853402EFC06FE0238234032389E3
:1063A000240123880400A3880400034524018347B3
:1063B0001401834534010347440103466401220567
:1063C00083467401834854015D8DC205834784016F
:1063D000C98D62074D8F1209220603481700034535
:1063E000270083453700336616011379F90F139799
:1063F0000601518F9306D900E207D98F4D0913F793
:10640000F60F23802701A38007012381A700A38122
:10641000B70023820700A382E7002383E400EFD0C4
:106420001FC86FC08FD28348640103482401834E84
:10643000540183457401034E14010346340103479C
:1064400084018346440103C3A7012208939788006F
:10645000B3E7D7013368C801C205420633660601B7
:10646000DD8D931787011397860123016500518FF6
:106470000346270083463700CD8F834517003147F9
:10648000A382E70003C7540049452380A700A380E7
:10649000B7002381C700A381D70023820700238888
:1064A0000400A38804002383E400EFD05FBF6FC023
:1064B000CFC90348240183471401834534010347AE
:1064C00044010346640122080343540183467401D6
:1064D0003368F800C20583478401B3E5050162070C
:1064E0004D8F220683481700034827008345370055
:1064F0003366660013970601518FE207D98F69470B
:106500002380E7005147A380170123810701A3815E
:10651000B70023820700A382E700034755018347A2
:106520006501238CE400A38CF400CDBB0348240157
:106530008347140183453401034744010346640142
:10654000220803435401834674013368F800C205EE
:1065500083478401B3E5050162074D8F2206834816
:1065600017000348270083453700336666001397FA
:106570000601518FE207D98F4D472380E700354749
:10658000A380170123810701A381B700238207009D
:10659000A382E70085472388F40083475501A38839
:1065A000F400834765012389F4008DBB0345240172
:1065B00083471401834534010347440103466401C2
:1065C000220583485401834674015D8DC2058347CB
:1065D0008401C98D62074D8F2206034817000345C9
:1065E0002700834537003366160113970601518F44
:1065F000E207D98F19472380E700A3800701238191
:10660000A700A381B70023820700A38207008D475C
:106610002382F40021B3EFC2AFB117A4FF1F13040C
:10662000E4A0834614000346040003472400834784
:106630003400A206D18E4207558FE207FD5617A6F9
:10664000FF1FA30AD69CD98F829783465400034626
:1066500044000347640083477400A206D18E4207BA
:10666000558FE207D98F82979305400617F5FFFFF4
:106670001305E506EF0010609305800C17F5FFFF8A
:106680001305C512EF00105F9305C01217F5FFFF49
:106690001305450BEF00105E6FC0CFABEFC24FA9E3
:1066A0003971B367B50017A4FF1F1304A49613072D
:1066B00020132301F1009305803E9307304017F526
:1066C000FFFF1305651F2310E1002310F400EF0006
:1066D000705A97A7FF1F9387679583C6970003C6D5
:1066E000870003C7A70083C7B700A206D18E420761
:1066F000558FE207A301A400D98F0A858146014680
:106700008D45829721616FC0EFA4EFC26FA2834EC7
:106710000700034E17000343270083483700034850
:1067200047001376F60F03475700B336D000397190
:106730002E849317860093860606DD8E2286AA8510
:10674000930700141305A1002302D101A302C10184
:1067500023036100A3031101230401012311D100CC
:10676000A304E1002310F100EFC08F9F97A4FF1F47
:106770009384448A930730609305803E17F5FFFFAA
:10678000130585132390F400EF00D04E97A7FF1F49
:106790009387C78983C6970003C6870003C7A700EE
:1067A00083C7B700A206D18E4207558F9305A40078
:1067B000E207A381A400D98F0A858146014693F59B
:1067C000F50F829721616FC0EF98EFC26F96397114
:1067D000AA871307001417A4FF1F1304A483231010
:1067E000E100A301F1001307000393073070930544
:1067F000803E17F5FFFF1305250C2301E100231050
:10680000F400EF00304797A7FF1F9387278283C6C6
:10681000970003C6870003C7A70083C7B700A20677
:10682000D18E4207558FE207A301A400D98F0A85B4
:10683000814601469145829721616FC0AF91EFC2B9
:106840002F8F9317850021813971C98F2312F10091
:1068500041678567AE861794FF1F1304A47BB2853A
:106860001307A7149387378017F5FFFF1305C50497
:106870003AC02303D1002310F400A3030100EF006A
:10688000703F9797FF1F9387677A83C6970003C669
:10689000870003C7A70083C7B700A206D18E4207AF
:1068A000558FE207A301A400D98F0A8581460146CE
:1068B000A145829721616FC0EF89EFC26F87138472
:1068C0009189834704003971B5C79307A014979441
:1068D000FF1F938424742310F1009305803E9307D7
:1068E000305017F5FFFF130525FD2390F400230119
:1068F0000100EF0030389797FF1F9387277383C6F7
:10690000970003C6870003C7A70083C7B700A20686
:10691000D18E4207558FE207A381A400D98F0A8543
:10692000814601468D45829781472300F40021610D
:106930006FC04F8241651306803E85457D15013746
:1069400085472300F40021616FC0CF80EFB25FFE66
:1069500079718545116502CA02CC02CE02D002D2FD
:1069600002D402D602C602C8EFC0DFD08545114569
:10697000EFC05FD037140140930700200D494C0849
:1069800013050480231AF100E1474ACC3ECEEFC044
:106990008FF3930700404C0813050480231AF1007D
:1069A00091473ECEEFC02FF2930700104C0813051D
:1069B0000480231AF100C1473ECE4ACCEFC0AFF0AD
:1069C000F167B7440140938707200C1013850480BA
:1069D0003ED0B7070C003ED42316010202D2EFD0FE
:1069E0008F8013850480054693055052EFD02F9178
:1069F00005469305404213850480EFD04F909307DE
:106A0000501368002316F10085473EC82307010094
:106A1000EFC07FA6138504808545EFD08F8C93054A
:106A2000001013050480EFC0DF8045616FB09FF256
:106A3000EFB21FF0973700009387C7E88C43D0432D
:106A4000944703D7C70083C7E7004111374401408B
:106A50002EC032C236C42316E1002307F1008A8417
:106A60001309F1001304048083C504002285EFD0CC
:106A7000AF8C930500082285EFD04F8D7DD985041A
:106A8000E39424FF41016FB0FFECEFB2DFE88347EE
:106A90000500AA8437450140AE8A1305058081456B
:106AA000B74901403289368A2382F18A2A84EFD09D
:106AB000AF88930500082285EFD04F897DD91385D3
:106AC00009808145B7490140EFD00F8713840980C1
:106AD000930500082285EFD06F877DD91385098043
:106AE0009305F00FB7490140EFD00F85138409805B
:106AF000930500082285EFD06F857DD9B3874A01C1
:106B000093F7F70F938517001385098093C7F7FF55
:106B1000374B014093F5F50F93F9F70F13040B80F2
:106B2000EFD08F81930500082285EFD02F827DD989
:106B3000CE8513050B80B7490140EFC0FFFF1384DA
:106B40000980930500082285EFD04F807DD99305F9
:106B5000400D1385098037440140EFC0FFFD130449
:106B60000480930500082285EFC05FFE7DD9638B0A
:106B70000A0A37440140A69A9309400D1304048081
:106B800083C504002285EFC03FFB930500082285E2
:106B9000EFC0DFFB7DD983C704008504CE9793F94E
:106BA000F70FE39F54FD630A0A02374401404A9AF3
:106BB00013040480834509002285EFC0FFF7930585
:106BC00000082285EFC09FF87DD983470900050999
:106BD000CE9793F9F70FE31F2AFDB30530413745F0
:106BE000014093F5F50F13050580B7440140EFC050
:106BF000BFF413840480930500082285EFC01FF5BD
:106C00007DD981451385048037440140EFC0DFF210
:106C100013040480930500082285EFC03FF37DD95B
:106C20006FB0BFD29309400DBDBF411122C637449A
:106C300001409305505213050480EFC0FFF159E560
:106C4000374401409305404213050480EFC0DFF054
:106C50001DC1035704808357448083C7A18985C31E
:106C60001387D1899387018A03470700BA97238046
:106C70000700238D0188324441017300203003C78F
:106C8000D1899387018A3E97834607001387D1896C
:106C9000E1DE03C6B18989469385B18963E8C608F8
:106CA00083C60500850693F6F60F2380D50083463C
:106CB00007000D46850693F6F60F2300D70083469E
:106CC0000700E373D6FAA38E018879BF1305048009
:106CD000EFC03FE783C7A189A5F703C7D189938791
:106CE000018A3E97834607001387D1891396860150
:106CF000618693F6F60F6347060283450700034655
:106D0000070017B7FF1F1307E7089E052E97938507
:106D100016003697B29793F6F50F2300A70023804D
:106D2000D70039BF8547238DF18819BF83C6C18934
:106D30008506238ED18803C6C1898D46E3F9C6F640
:106D4000238E0188ADB7EFB21FBD37490140014620
:106D5000AA84AE891305098093055052EFC03FDA2B
:106D600001469305404213050980EFC05FD903C473
:106D7000B18925CC83C6C1899397760017B6FF1FCA
:106D800013064601B2979CC09387018AB69783C7C2
:106D900007008D461387B1892380F90083C7C18915
:106DA0008507238EF18883C7C18963EDF602834787
:106DB00007003744014013050480FD1793F7F70FD0
:106DC0000546930550522300F700EFC05FD313052B
:106DD0000480054693054042EFC07FD205442285DA
:106DE0006FB0BFB6238E0188D9B713050980054659
:106DF00093055052EFC0BFD0130509800546930597
:106E00004042EFC0DFCF22856FB03FB4EFB25FB238
:106E10004111AA842E8909A80344B100B2452286F3
:106E2000EFB01FB4230089009305B1006800213F33
:106E3000AA872685F5F341016FB0DFB1EFB25FAFEE
:106E400001118545116502C002C202C402C602C812
:106E500002CA02CC231E0100EFC0BF838545214535
:106E6000EFC05F813714014061498D448A85130565
:106E700004C085672310F1004AC426C2EFC0AFA446
:106E80008A85130504C089672310F1004AC426C20D
:106E9000EFC06FA391678A85130504C02310F1002A
:106EA00091473EC4EFC02FA2E1778A85130504C045
:106EB0002310F100374400404AC426C2EFC0AFA0FF
:106EC000130504808545EFC05F88B70704013EC6FF
:106ED000930700026C00130504803ECC9D47231EDF
:106EE000F10002C802CAEFC0AFFC130504800546DA
:106EF0008945EFC0FF831305048005468545EFC033
:106F00003F83854513050480EFC07F8005616FB026
:106F10007FA4EFB25FA079712A84AE8905458545CB
:106F20003289B68402C202C402C602C802CA02CCB6
:106F300002CE02D002D202D402D6EFC0CFF1228517
:106F4000EFB0DFF2C1473EC6930700084C003ECCCD
:106F5000228585674EC24AC426C83ED402CA02CEE4
:106F600002D002D202D6EFB07FFB45616FB0FF9D29
:106F7000EFB27F9A79712A84AE89054585453289B9
:106F8000B68402C202C402C602C802CA02CC02CE41
:106F900002D002D202D402D6EFC0EFEB2285EFB0CE
:106FA000FFEC930700083ECC930700103ECE9307FA
:106FB00000404C003ED0228585674EC24AC426C898
:106FC0003ED402C602CA02D202D6EFB03FF54561F6
:106FD0006FB0BF97EFB23F9479712A84AE890545AF
:106FE00085453289B68402C202C402C602C802CAFA
:106FF00002CC02CE02D002D202D402D6EFC0AFE55C
:107000002285EFB0BFE6930700084C003ECC2285F6
:1070100085674EC24AC426C83ED402C602CA02CE02
:1070200002D002D202D6EFB07FEF45616FB0FF9180
:10703000EFB21F901387C18B1C4385466388D7002E
:107040008946638ED70EC5CF6FB0DF90370502003B
:10705000EFB07FF26307051C37050200EFB09FF227
:107060000965EFB03FF237450040814513050580C3
:10707000EFC0EFE91385418B034845002A879385CC
:10708000718B9307F00F17360000130626B2834664
:1070900017000507B58FB29783C70700E319B7FE3E
:1070A00093C7F7FF93F7F70F6303F818370402400D
:1070B000130584058145EFB07FEA130584059945E2
:1070C000EFB03FEB130584058545EFB03FE91305AD
:1070D00044048145EFB09FE8130544049945EFB09F
:1070E0005FE9130544048545EFB05FE7374500408D
:1070F000854513050580EFC08FE16FB0BF8593868E
:10710000418B83C7160083C5260003C6360083C69D
:107110004600CD8FD18FD58F1386D182834606004E
:10712000638407129387F6FF93F7F70F2300F600A7
:10713000C5EF85471CC3A38601826FB0BF81094597
:10714000EFB07FE3E30205F00945EFB0BFE397B787
:10715000FF1F938727E617B6FF1F1306A6ED01470B
:1071600083D6070089073697E31CF6FE1983931729
:107170000701C1878395A18B3386B7008146634E93
:10718000060081CF05659306F5FF6358A600638668
:10719000D7002E9793160701C1829387218B2390E6
:1071A000D70003D7070037040240130584001347B4
:1071B000F7FF420741832390E70003D7070081458B
:1071C0001207420741832390E700EFB03FD9130530
:1071D000840093058004EFB0DFD985451305840052
:1071E000EFB0DFD76FB00FF7C146E3FFF6E43745E6
:1071F000004089471305058081451CC337040240C0
:10720000A3860182EFC0AFD0130584058145EFB09E
:10721000FFD4814513054404EFB05FD4EF9050755F
:1072200025B50965EFB03FD5E31805E231BD8347C9
:10723000250003471500A207D98F13978700A18364
:10724000D98F2399F18A9DB59387160093F7F70F8D
:10725000F1BD03D5218B82809385018B83D70500F7
:1072600003D7218B93160701D98E63F9E712B30771
:10727000F74093A7171093C717006396070E13885C
:10728000818A834708009388C18A17B5FF1F1305B9
:1072900065D093961700369503A6080003530500A2
:1072A000938617003A9633066640935736009D8AB8
:1072B00023A0C8001386618A2310E5002300D800AC
:1072C000139707018356060041832390E500BA8790
:1072D0006370D70CB387F64093A7170493C71700C2
:1072E00081C72310E600BA8603A781818347170070
:1072F000034707004165A207D98FBE96C206E17712
:10730000C182BE96939716002167B697BA9703C7B6
:10731000C18263DBA70813950701418163CE070291
:1073200015EF1386A1828357060063F3A70A33077C
:10733000F54042074183AA86A145368563FBE500F7
:107340009305000463E5E506B69785831395070169
:1073500041812310D60082802DC701452395A1824B
:1073600023860182828097B7FF1F9387A7C21316D7
:10737000370094C3D4C394C7D4C723A6C18A138645
:10738000618A835606002390E500BA87E364D7F448
:10739000958F93A7170493C7170099B7998F93A751
:1073A000171093C71700D1BD7D1525DF45BF139575
:1073B0003600158D3E950D81420541812310D60082
:1073C00082801386A1828357060081463E87ADB72F
:1073D0003387A74042074183AA86B9BF03D7218BD1
:1073E000E177998F13970701418383A681812183D8
:1073F0002380F600A380E6008280411122C6371464
:107400000040854513050480EFC04FDB09E5324499
:10741000410173002030130504808545EFC0CFDBA8
:107420001387018C1C43324485071CC34101730040
:1074300020302A8817B7FF1F130747CC81474146E2
:107440001443310799C68507E39CC7FE1305F00F67
:10745000828093961700BE968A0617B7FF1F130700
:1074600067C9369713F5F70F232407014CC3232070
:10747000070082802A8817B7FF1F130727BC8147A0
:1074800041461443310799C68507E39CC7FE13059F
:10749000F00F828093961700BE968A0617B7FF1FDB
:1074A000130747B9369713F5F70F232407014CC389
:1074B000232007008280BD4763E1A7021317150050
:1074C0002A970A0797B7FF1F9387C7C2BA9723A4C3
:1074D000070023A2070023A007008280BD4763E1C5
:1074E000A702131715002A970A0797B7FF1F93875C
:1074F00067B4BA9723A4070023A2070023A00700BC
:107500008280BD4763EDA70093171500AA978A07ED
:1075100017B7FF1F130707BEBA9723A00700828083
:10752000EFB20FC1371400401305048001468545B2
:10753000EFC02FAF130504800546854583A4018C59
:1075400017B4FF1F130404BB23A0018C17B9FF1F3E
:10755000130949C6EFC0EFAC144499CA1C40584007
:10756000A6971CC03386E74063E4E70010C082960C
:107570003104E31324FF17B4FF1F1304A4AB17B99E
:10758000FF1F130929B714448DC21C405840A69709
:107590001CC03386E74063EAE70010C082962324CC
:1075A000040023220400232004003104E31D24FDF1
:1075B0006FB04FBAEFB2CFB7F9572387F18217B444
:1075C000FF1F130424C197B4FF1F9384A4C21C405F
:1075D000110491C38297E31C94FE6FB0AFB7EFB272
:1075E0008FB3938481819C4083C6370003C62700F4
:1075F00003C7470083C75700A206D18E4207558FA5
:10760000E207D98FB1C31389E182034509009307CB
:10761000E00F630DF502EFF07FEC944017050000DA
:10762000130585F903C7360003C6260083C7460045
:1076300083C556002207518FC207D98FE205DD8D21
:10764000EFF05FE32300A9006FB02FB017B4FF1F66
:10765000130444B697B9FF1F9389C9B71C4011049E
:1076600091C38297E31C34FFFD572300F9001305F3
:10767000F00F55B797B5FF1F9385C5B52E87814786
:1076800021461443110799C68507E39CC7FE1305DD
:10769000F00F828013972700BA9588C113F5F70F72
:1076A000828097B5FF1F9385E5B02E8781472146DD
:1076B0001443110799C68507E39CC7FE1305F00F15
:1076C000828013972700BA9588C113F5F70F82803F
:1076D00083A7818103C7770011C703C767008D4760
:1076E0006303F7008280EFB2AFA40545EFD03FCF30
:1076F0008547630DF50C8146014685450545EFD06C
:10770000BFF20945EFD0BFCD85476301F510814633
:10771000054681450D45EFD03FF10D45EFD03FCCFB
:1077200085478546630EF50C014681451545EFD02A
:10773000BFEF1145EFD0BFCA9306F00F35E913062E
:10774000F00F9305F00FEFD01FEE1945EFD03FC9B2
:1077500085476300F50A8146014685450145EFD01E
:10776000BFEC1D45EFD0BFC78547630DF5068146C9
:10777000054681450945EFD03FEB2145EFD03FC697
:1077800085478546630AF504014681451145EFD0DA
:10779000BFE92545EFD0BFC49306F00F0DE11306F6
:1077A000F00F9305F00F0545EFD0FFE76FB08F9A0C
:1077B00001469305F00F0145EFD0FFE679B701468A
:1077C0009305F00F0545EFD01FE6CDB7854605467A
:1077D0008545EFD07FE535B7054685451145EFD0A6
:1077E000BFE445BF8546054685450945EFD0DFE343
:1077F00069B78546054685450145EFD0FFE295B757
:10780000054685451545EFD03FE225B78546054637
:1078100085450D45EFD05FE109B7EFB26F91EF906D
:10782000502DEF90B03C13050040EFB01FD205453E
:10783000EF80607FEF80C07C13052003EFB0AF9A2C
:10784000EFC0BFFAEF903043EF90504AEFA0601ABC
:107850002945EFB04F99EF907028EF905028EF90A6
:10786000B004EF805018EF80607CEFE0DFDAEF804B
:10787000B024D14517E5FFFF130585D2EFF07FBB9C
:10788000854517E5FFFF1305A596EFF09FBA9545CF
:1078900017D5FFFF130525D9EFF0BFB9F94517E557
:1078A000FFFF1305A51BEFF0DFB8EFF07FC7F5BFB3
:1078B00037050400EFB0AFF4730020309926730051
:1078C00020308D4723A0F18E828097B7FF1F83C79A
:1078D000079589C7954723A0F18E8280854723A00D
:1078E000F18E8280EFB2CF84AA842E841145854523
:1078F000EFB05FD8B1CC37660040032706C4C1663D
:10790000F516758FB71701402320E6C403A74780FB
:10791000B716F0FFFD16758F23A2E78003A7C78077
:10792000F9769386F67F758F23A6E78003A74780B5
:10793000B7460400558F23A2E780374702408327CC
:10794000078039CC93E727002320F7806FB08F8022
:10795000B766004003A706C4B717014013672700A6
:107960004207418323A0E6C403A74780B716F0FF70
:10797000FD16758F23A2E78003A7C780F97693864B
:10798000F67F758F23A6E78003A74780B7360300ED
:10799000558F23A2E78037470240832707805DF099
:1079A000F59B2320F7806FA0FFFA8280EFA25FF89B
:1079B0009385415B0545EF1050659307000463070D
:1079C000F5000545EF10D03D6FA0DFF8EFD00FC6F2
:1079D0000545EF10F03C6FA0FFF78280EFA25FF546
:1079E0009385014E1145EF10506293070004630721
:1079F000F5001145EF10D03A6FA0DFF5EFC09FF210
:107A00001145EF10F0396FA0FFF4EFA27FF213845D
:107A100001920347C4008346B4008347D4008345E2
:107A2000E4002207558FC207D98FE205DD8D094595
:107A3000EF10B05DAA87896509452305F400A30707
:107A40000400EF10102F6FA0FFF0EFA27FEEB767DA
:107A5000004083A707C5373700204907C207C18305
:107A6000BA9786079C431307000293F7F73F639D7D
:107A7000E7009387019203C7970019E703C75700F0
:107A800083C747006309F700930500020945EF101B
:107A9000D0256FA03FEC0146814513052008EF106B
:107AA000F053C5BFEFA2DFE8138441900347C40041
:107AB0008346B4008347D4008345E4002207558FF2
:107AC000C207D98FE205DD8D0D45EF101054AA874E
:107AD00089650D452305F400A3070400EF10702508
:107AE0006FA05FE7EFA2DFE4B767004083A707C599
:107AF000373700206907C207C183BA9786079C43BE
:107B00001307000293F7F73F639DE70093874190C7
:107B100003C7970019E703C7570083C747006309E6
:107B2000F700930500020D45EF10301C6FA09FE297
:107B30000146814513053008EF10504AC5BFEFA23A
:107B40003FDF0D47AE843284630DE506636CA70208
:107B50000547630FE50409476312E506EF1010239C
:107B600093070003630CF504A685228613052008FD
:107B7000EF10D046094593050003EF10101701459B
:107B80006FA05FDD1147631BE502EF103020930704
:107B900000036305F502A685228613054008EF1051
:107BA000F043114593050003EF1030140145C9BFA0
:107BB000EF10D01D930700036318F50205456FA071
:107BC0007FD9EF10B01C93070003E309F5FEA685EB
:107BD000228613053008EF1070400D459305000311
:107BE000EF10B010014569BFA68522861305100865
:107BF000EF10D03E054593050003EF10100F01452F
:107C000041B7EFA2FFD237650040832705C5416722
:107C10009305F7FFB7360020ED8F9906B6978607D4
:107C20009C43130707C003D6018DF98F0111638CA4
:107C3000C700832705C5137606C0ED8FB697860764
:107C40009843518F98C3B766004003A746C49384F6
:107C5000018F83D704002397E18C03D7E18C7D8FBC
:107C6000137707201384E18C19CB41671307F7DFE3
:107C700023A2E6C403C7C18C05072386E18C035702
:107C800004007D8F420741876344071803570400AF
:107C90007D8F1377074019CFC167376700409387FF
:107CA000F7BF2322F7C49787FF1F83A7A7588297A0
:107CB00083D704000357040089667D8F758F19C729
:107CC0003967B76600407D1723A2E6C40357040056
:107CD00085667D8F758F63120712035704007D8FB1
:107CE0002D83058B05C383A78184A1EB0945EF0094
:107CF000C076BD679387F77F376700402322F7C4BC
:107D000083D7040003570400F98F93F707109DC32E
:107D1000C166B76700401387F6EF23A2E7C403A745
:107D200087C413160701634C060023A4018C1D456C
:107D3000EF00A07205616FA0FFC1AD255DBF138785
:107D4000818C10438D45050610C31843E3F1E5FE11
:107D500003A707C4218B61FF83A507C41386F6FF21
:107D60009388418CB3F6C50023A0D800938707C041
:107D700081462148884393952600938505028A957C
:107D8000718D23A0A5FE85069107E39506FF83A6C6
:107D90000800B7650040B767004093E6160023A0CF
:107DA000D80083A60800F18E23A0D5C483A60800BE
:107DB000F99A23A0D80083A60800F18E23A0D5C489
:107DC00083A647C493F60640E5DE41669306F6BFF8
:107DD00023A2D7C47D16938707C0A1459316270019
:107DE000938606028A9683A606FE91070507F18E02
:107DF00023AED7FEE314B7FE0DBFBD67FD1737678F
:107E000000402322F7C40145892D83D70400F1B532
:107E1000EF10002083D7040095BD97A7FF1F83C7ED
:107E2000074081C7954723A0F18E8280914723A008
:107E3000F18E8280828099E5133525001345150067
:107E4000060582800945828011C51785FF1F13052D
:107E5000A541828083A7818F1D472398E7008280F8
:107E6000EFA21FAD9384818F9C40854603C7070016
:107E700003C6170083C527001377F7076309D702E6
:107E80009306100209456312D7026304E604130740
:107E90000002631CE600170400001304244D80CF89
:107EA000239907000145029401456FA0BFAA13075B
:107EB00020026385E502130710020945E397E5FEFA
:107EC000170400001304C44780CF014502949C406E
:107ED000F9B717040000130464F7D1B717040000C2
:107EE0001304A443D5B703A7818F834707009306E4
:107EF0001002014593F7F7076383D7008280834719
:107F0000170013072002E38BE7FE9387D7FDB337F3
:107F1000F000139517008280EFA29FA183A7818FA5
:107F200023850700B129B7650040B7670040856623
:107F3000938707C09386F6F0138605C2984391078E
:107F4000758F23AEE7FEE39BC7FE9307F00F23A2D6
:107F5000F5C4EF10B0068145014523A0018EEFF076
:107F60007F985145EFA03FA885450545EFF09F97C5
:107F70006FA05F9EEFA2DF9B83A7818F17A70000F2
:107F80000347F79AA384E700239507000145EF1004
:107F9000C052930500200145EF102053C145014513
:107FA000EF10A054930500050145EF10206D9305D7
:107FB00000060145EF10806A0145EF108062978549
:107FC000FF1F83C5A5290145EF1060730145EF1020
:107FD000205D37670040832707C09166F58F89CF02
:107FE000832707C085669386F6F0F58FB166938682
:107FF0000608D58F2320F7C037670040832707C0C6
:1080000093F7070489CF832707C085669386F6F028
:10801000F58FA1669386060CD58F2320F7C09305B4
:1080200000600545EF10604A930500020545EF101A
:10803000C04B930500070545EF1040629305000B08
:108040000545EF10A063930500040545EF10206B74
:108050008D650545EF10E04D37670040832747C029
:1080600093F7070489CF832747C085669386F6F088
:10807000F58FA1669386060CD58F2322F7C037674C
:108080000040832747C09166F58F89CF832747C07B
:1080900085669386F6F0F58FB16693860608D58FD0
:1080A0002322F7C081450945EF10204293050002C5
:1080B0000945EF1080439305000D0945EF10005A64
:1080C0009305000F0945EF10605B93050002094519
:1080D000EF10E0628D650945EF10A045376700405D
:1080E000832787C09166F58F89CF832787C08566F0
:1080F0009386F6F0F58FB16693860608D58F232414
:10810000F7C037670040832787C093F7070489CFFC
:10811000832787C085669386F6F0F58FA1669386E0
:10812000060CD58F2324F7C081450D45EF10E039AB
:10813000930500020D45EF10403B930500110D45DE
:10814000EF10C051930500130D45EF102053930518
:1081500000020D45EF10A05A8D650D45EF10603DF2
:10816000376700408327C7C09166F58F89CF832783
:10817000C7C085669386F6F0F58FB16693860608CC
:10818000D58F2326F7C0376700408327C7C093F7F2
:10819000070489CF8327C7C085669386F6F0F58FDD
:1081A000A1669386060CD58F2326F7C09305006041
:1081B0001145EF108031930500021145EF10E032B8
:1081C000930500171145EF1060499305001B1145F9
:1081D000EF10C04A930500041145EF1040528D6521
:1081E0001145EF10003537670040832707C193F72B
:1081F000070489CF832707C185669386F6F0F58F3C
:10820000A1669386060CD58F2328F7C037670040F8
:10821000832707C19166F58F89CF832707C18566BC
:108220009386F6F0F58FB16693860608D58F2328DE
:10823000F7C00145EF00B059854723A0F18E6FA02C
:108240006FF19385C1836F000078938541836F0040
:10825000807783A7818F83C53700214783D7470065
:10826000636BB706EFA2CFEC130740412A869396C3
:108270005500636EF702130730406370F70205473D
:108280009387C7BFB317F7004167130717107D8F98
:1082900029E705674107F98FA5E39785FF1F9385B8
:1082A000E5E4B6953285EF0000726FA0AFEA05678E
:1082B00013074710E393E7FE9787FF1F938707E3B2
:1082C000B385D70003D7C50179DF93858601BE95B5
:1082D000EF00606FD9BF014582809787FF1F9387AA
