:042800006F70E05DB8
:102804000028000000000000C03B0000C43B0000A2
:1028140000000000DC9D000000000000000000003B
:10282400DC9D0000DC9D00000000000000000000B2
:10283400DC9D000000000000DC9D000000000000A2
:10284400DC9D0000DC9D0000DC9D0000DC9D0000A0
:10285400DC9D0000DC9D0000DC9D0000DC9D000090
:10286400DC9D0000DC9D0000DC9D0000DC9D000080
:10287400DC9D0000DC9D0000DC9D0000DC9D000070
:10288400DC9D0000DC9D0000DC9D0000DC9D000060
:102894009A7E0000DC9D0000DC9D0000DC9D0000B1
:1028A400DC9D0000DC9D0000DC9D0000DC9D000040
:1028B400DC9D0000DC9D0000BA7A0000DC9D000075
:1028C400DC9D0000DC9D0000DC9D0000DC9D000020
:1028D400DC9D000070720000DC9D0000DC9D0000A7
:1028E400DC9D0000DC9D00008E7E0000DC9D00006D
:0C28F400DC9D0000DC9D0000DC9D00006D
:10290000397101436EC619A0397141536AC866CA4C
:1029100062CC5ECE19A0397101535AD056D252D42E
:102920004ED64AD826DA22DC06DE330161408282A6
:1029300041114AC026C222C406C68282B24D41015C
:10294000024D924C224CB24B4101024B924A224A18
:10295000B2494101024992442244B240410182807D
:102960002A8309CA83830500230073007D160503AB
:1029700085056DFA828015C22A8385466367B50096
:10298000FD561307F6FF3A93BA958383050023009B
:1029900073007D163693B6956DFA82802A8311C630
:1029A0002300B3007D16050365FE8280B7F700E0C3
:1029B000D8438146799BD8C303C721863306A70233
:1029C00037F700E090CBD4CB944393E6060194C351
:1029D000944393E6160294C35C43858BF5DF1C4356
:1029E000F99B1CC38280B7F700E0D8438146799BEE
:1029F000D8C303D701863306A70237F700E090CB90
:102A0000D4CB944393E6060194C3944393E6160211
:102A100094C35C43858BF5DF1C43F99B1CC3828008
:102A20009C4103A88501D04DD4415841B3E707012B
:102A3000D18F3706F1E0A2061306F6EF718FD58F1E
:102A4000D98F5CC1D0459C4994451845D18F37F644
:102A5000F1FF86061306D67F718FD58FD98F1CC5DF
:102A600083C745015855B70610FFFD1793F7F70FB9
:102A7000FD16758FD207D98F5CD582801C4589C51C
:102A800093E717001CC58280F99B1CC582801C45FA
:102A900089C593E707101CC5828093F7F7EF1CC523
:102AA00082801C4593E787001CC5828008450D8104
:102AB000058982801C4593E747001CC58280084534
:102AC0000981058982801C4591C537075000D98F3F
:102AD0001CC582803707B0FF7D17F98F1CC5828027
:102AE000A54763F7B704938765FF139717003E97D1
:102AF0000328C5009D47B397E70093C7F7FFB3F7D7
:102B00000701B396E600DD8E54C5994763E5C70417
:102B10007D16931726003E965859FD47B397C70078
:102B200093C7F7FFF98F3396C5005D8E50D9828029
:102B300013971500032805012E979D47B397E700CB
:102B400093C7F7FFB3F70701B396E600DD8E14C90C
:102B50009947E3FFC7FAB14763E2C70265169317C7
:102B600026001459B2977D473317F7001347F7FF34
:102B7000758FB397F500D98F1CD982804D16131726
:102B8000260054553297FD47B397E70093C7F7FFE8
:102B9000F58FB395E500DD8D4CD582805C4191C504
:102BA00037070004D98F5CC18280370700FC7D178E
:102BB000F98F5CC18280011123030100034761008A
:102BC000A54763E5E70425461C4593E787001CC538
:102BD0001C45A18BF5FF1C4593E747001CC51C4510
:102BE000918BF5FF744583476100034761008607B9
:102BF00005071377F70F2303E100938707020347C5
:102C000061008A972396D7FEE370E6FC2303010058
:102C100003476100A54763EAE70A2146A545A303E8
:102C20000100834771006367F6080347710083471B
:102C300071000607850786071307070293870702B7
:102C40000A978A970357C7FE83D7C7FE63F9E7043D
:102C5000834771008607938707028A9783D7C7FE49
:102C60002314F1000347710083467100834771000C
:102C700005070607130707020A970358C7FE8507CB
:102C800013971600035581001307070286070A975A
:102C900093870702231607FF8A972396A7FE834789
:102CA0007100850793F7F70FA303F10083477100C5
:102CB000E37DF6F683476100850793F7F70F23035B
:102CC000F10083476100E3FCF5F4231401002315B0
:102CD00001002303010003476100954763ECE7040B
:102CE00093060060154625A88347610003578100BD
:102CF00089078607938707028A9783D7C7FEBA9703
:102D0000C207C1832314F10083476100850793F74D
:102D1000F70F2303F10083476100636DF6008347DB
:102D2000610089078607938707028A9783D7C7FEC2
:102D3000E3FCF6FA834761006385071003578100BF
:102D4000834561008357810003466100834661002B
:102D50003347B702B3E7C7028607B3C7D702BA97AC
:102D6000C207C1832314F100034761009947998F7B
:102D700093F7F70FA303F10083477100F5C30347EF
:102D80006100954763EEE70295468347610003576C
:102D9000A10089078607938707028A9783D7C7FE12
:102DA000BA97C207C1832315F100834761008507E5
:102DB00093F7F70F2303F10083476100E3F7F6FC75
:102DC0000357A100834571008357A100034671009A
:102DD000834671003347B702B3E7C7028607B3C71C
:102DE000D702BA97C207C1832315F10003558100AA
:102DF0008355A100835781000356A1008566130700
:102E0000004093860680B307F7403386C640098F9B
:102E10008D8EC2074206C18741864207C206B2971D
:102E2000C1864187369793D6F7011355F701B697B8
:102E30003A95858B0585958F3E95420541850561BF
:102E40008280930700402314F100034761009947F3
:102E5000998F93F7F70FA303F1008347710085F370
:102E60008567938707802315F10049B71C414167A7
:102E70007917F98F1CC12320050023220500232484
:102E80000500B70702402326050013878700630467
:102E9000E5041387C701630BE50213870703630784
:102EA000E50413874704630AE5041387870563096C
:102EB000E5021387C7066307E5041387070863095C
:102EC000E504138747096308E5008280D843136748
:102ED000070FD8C38280D8431367F700D8C3828016
:102EE000D843B7060F00558FD8C38280D843856674
:102EF000938606F0558FD8C38280D843BD66558F20
:102F0000D8C38280D843B706F000558FD8C38280DB
:102F1000D843B706000F558FD8C3828090519C4587
:102F20009449D84983A88501D18FD58FD04DD451EC
:102F3000D98FB3E71701184103A88502D18FD58F28
:102F4000E176BD06D045758FB3E707019441D98F6F
:102F50001CC1DC4150C114C55CC582801C4189C5BF
:102F600093E717001CC1828041677917F98F1CC154
:102F700082804CC18280B70702409C437D8D3335EF
:102F8000A0008280B7070240C8C3828058410C412C
:102F90000328C500B7060140938706403E9713C635
:102FA000F5FF6303080483A8064003288500414316
:102FB000B3F8C80023A01641D443F18ED4C3144300
:102FC000CD8E14C3184190479346F7FF758E90C776
:102FD000D047F18ED4C7630D68003E988327080060
:102FE0005D8F2320E80082801C43F18F1CC3828008
:102FF0009447D98E94C7D447558FD8C78280B707D6
:10300000014023AAA7408280B7066745B727024040
:10301000938636123797EFCDD4C31307B79AD8C328
:10302000D4D3D8D38280372702401C4BA166D58FDA
:103030001CCB8280B7270240984BB706020013755D
:1030400005F0558F98CBC8CB944B3727024093E6B9
:10305000060494CB5C47858BF5FF1C4B8176FD16EF
:10306000F58F1CCB8280372702401C4BC16613753D
:1030700005F0D58F1CCB5C47858BF5FF37270240C9
:103080005C47898BF5FFAE86158D93850510372734
:1030900002409042B387A600910690C35C47898B9B
:1030A000F5FFE398B6FE1C4B37062000B72602401A
:1030B000D18F1CCBDC46858BF5FF9C4A41777D1771
:1030C000F98F9CCA828003A8850093770801137E3C
:1030D000F80081C7DC41336EFE00B7270240985BE1
:1030E000B707000FF98FE9EB8547A381F186B71782
:1030F0000140630AF50C83D6050093F7F60FB5E39C
:103100009307F00F63FED70403234500014785486A
:10311000930E8002130F8004A14521A00507630FC1
:10312000B70293078700B397F80033F6D700E39709
:10313000C7FE6301D80B6313E8011CC913162700EF
:10314000BD47B397C70093C7F7FF33F36700331644
:10315000CE00336366000507E315B7FC2322650044
:1031600082800323050081478548930E8002BD4F6E
:10317000130F8004A14521A08507638CB702339704
:10318000F8003376D700E319C7FE6304D80763134A
:10319000E80118C9139727003396EF001346F6FF8E
:1031A000337366003317EE00336367008507E398D7
:1031B000B7FC23206500A9B7B7170140E31DF5F25E
:1031C00083C731868DDB83D60500B5822390D50079
:1031D000C9FA8280131627005CC9BD47B397C700A0
:1031E00093C7F7FF33F367003316CE0033636600EF
:1031F0009DB758C9139727003396EF001346F6FF83
:10320000337366003317EE003363670045B7B717B3
:1032100001406307F5001C45FD8D3335B000828009
:1032200083C73186EDDB1C45B581FD8D3335B0009C
:103230008280B71701406304F5000CC9828083C700
:103240003186E5DFB5810CC98280B7170140630480
:10325000F5004CC9828083C73186E5DFB5814CC952
:103260008280EFF2EFEC8357450001112A84680059
:10327000939407012E89052ED24737470F00130775
:10328000072433D7E702C18093F404FCC204C18051
:103290000326090061651305056A93150701C181BD
:1032A000CD8C2312940083560400C206C182F99A81
:1032B000C206C1822310D4006363C5060606B3D7D5
:1032C000C702114793960701C18263E0E60A8505AC
:1032D000C205C181C207C1832310B402231EF400BA
:1032E00083570400835649008355A90093E71700CC
:1032F0002310F400835704000357C90003568900C4
:10330000C207C183CD8E93F757BFD58F2310F4002A
:10331000B367C7002314F40005616FF0AFE3835572
:103320006900B166FD166384D50493161600B29643
:103330008E06B296B3D7D7029166C207C183D58FE6
:103340009396470199E293E717009306C01233075B
:10335000D702A166D58F9306803E3347D702050773
:10336000420741832310E40295BF91478DB793161E
:103370001600B296B3D7D702C207C183D1B783571D
:10338000050091C593E717002310F5008280C2075E
:10339000C183F99BC207C1832310F5008280835744
:1033A000050091C593E707102310F5008280C2073E
:1033B000C18393F7F7EFC207C1832310F500828022
:1033C0008357050091C593E707202310F5008280FD
:1033D000C207C18393F7F7DFC207C1832310F5004B
:1033E00082808357050091C593E707402310F500BD
:1033F0008280C207C18393F7F7BFC207C18323103E
:10340000F50082802318B500828093F7E50F19C27A
:1034100093E715002318F50082808357050091C5B6
:103420002167D98F2310F5008280C607C58323103A
:10343000F5008280035745018357850113950701E5
:10344000598D6D8D220521810D8D133515008280DA
:10345000411102C402C693D7C5012AC63EC4A24781
:10346000A205A18199CBB247D1073EC6B247884396
:1034700041016D8D3335A0008280B247C181E107E3
:103480003EC6B247884341016D8D3335A00082802E
:103490009387418698430346050015EB8347250033
:1034A00037E700E09207329793F7F70F2300F740D2
:1034B00054410547935756003317C70085CE93876D
:1034C00007048A07B7E600E0B69798C3828098435E
:1034D00085466309D7028C430947638EE504984308
:1034E0008D466300D70498439147E313F7FC834765
:1034F00015007DB7938707068A07B7E600E0B69701
:1035000098C3828083472500834615009207638015
:10351000E60437E700E093F7F70F32972300F74010
:1035200041BF83461500834725006365D7028606A1
:10353000B6979207F9BF034715008347250063FF3D
:10354000E60079170A07BA9793F7F70F920793E700
:1035500007F8C1B7F1168606B697FDB70A07BA97FE
:10356000920745BFB7160240DC4271771307F77F19
:10357000F98F0E055D8DC8C28280B7170240D8430F
:10358000B70640FFFD16758FD8C3D8435A05598D2D
:10359000C8C38280B7160240DC4251777D17F98F8D
:1035A000C98FDCC28280B7160240DC42214613F785
:1035B000C700B7177A00938707206302C7061CC1AC
:1035C00037160240584297D6FF1F9386A6A3118351
:1035D0003D8B369703470700B3D7E7005CC15842DD
:1035E00021831D8B36970347070033D7E70018C5A3
:1035F00058422D831D8BBA9603C7060097D6FF1F2E
:10360000938646C6B3D7E7005CC5584239830D8B15
:10361000369703470700B3D7E7021CC98280DC4214
:10362000D8424166C983BD8B8907C546718F638EB9
:10363000D70211EF3747024003270780418B19CF8C
:1036400037177A0013070720B387E7028DBF3717B4
:1036500002405843B7060200758F7DD337173D00EF
:1036600013070790B387E70299BFC9476DF3D9B72E
:1036700099C5371702405C4BC98F5CCB8280B71766
:103680000240D84B1345F5FF798DC8CB828099C590
:10369000371702401C4FC98F1CCF8280B7170240DA
:1036A000984F1345F5FF798D88CF828099C53717DC
:1036B00002405C4FC98F5CCF8280B7170240D84F61
:1036C0001345F5FF798DC8CF828003D6250083D7B7
:1036D000050083D6450003D7650083D88500D18FC8
:1036E00003D8A500D58FD98F83D6C500B3E71701BE
:1036F0000357050003D6E500B3E70701D58F8D66B4
:1037000093860604758FD18FD98F2310F5008357C8
:10371000C5017D7783D605011307F77FF98F231E37
:10372000F5002318D50082808357050091C593E7E3
:1037300007042310F5008280C207C18393F7F7FBCB
:10374000C207C1832310F50082808357450009C654
:10375000CD8F2312F500828093C5F5FFED8F2312E4
:10376000F50082808357450091C593E747002312F7
:10377000F5008280C207C183ED9BC207C18323127B
:10378000F50082808357050037370140130707C0D3
:10379000C20783D6050003D6450003D86500C18360
:1037A0006307E504370700406300E502130707409D
:1037B000630CE50037170040930807806306150186
:1037C000130707C06317E50003D7250093F7F7F841
:1037D000D98F93F7F7CFB3E707012310F50023162E
:1037E000C5022314D5028547231AF500828003D72A
:1037F000250093F7F7F8D98F93F7F7CFB3E70701D1
:103800002310F5002316C5022314D50283C78500B3
:103810002318F5028547231AF50082808357050097
:1038200091C593E717002310F5008280C207C1837A
:10383000F99BC207C1832310F50082808357C5001E
:1038400009C6CD8F2316F500828093C5F5FFED8F55
:103850002316F50082808357C50009C6DD8D231627
:10386000B500828093C5F5FFED8F2316F5008280A9
:1038700083578500C207C183E19BC207C18323141C
:10388000F50082802314B502231AC5008280835775
:103890000500C207C18393F7F7F8CD8F2310F50019
:1038A000828083578501C207C183DD9BCD8F231C96
:1038B000F50082808357C501C207C183DD9BCD8F90
:1038C000231EF50082808357C5017D771307F77F9C
:1038D000F98FA205CD8FC207C183231EF500828018
:1038E00083570502C207C183F59BCD8F2310F502D4
:1038F000828083570502A205C207C18393F7F7DFD1
:10390000CD8FC207C1832310F50282808357050241
:1039100079777D17F98FB205CD8FC207C183231048
:10392000F5028280035705028547B397B70093C716
:10393000F7FF7D8F2310E502835705023316B6008B
:10394000D18FC207C1832310F5028280035705027D
:103950008547B397B70093C7F7FFF98F2310F50298
:1039600093F775FF610595C3F115C205C181858186
:10397000AA959C4165777D17F98F9CC19C412206D1
:10398000420641825D8E90C182808581AA959C41CC
:1039900093F7F7F89CC19C415D8E90C182802316FD
:1039A000B5028280231AB5028280231EB50282806E
:1039B0002310B504828083570500C207C18393F7A3
:1039C000F7CFC207C1832310F50083570500CD8FC1
:1039D0002310F5008280835705010355C500ED8F44
:1039E0004205418189C76D8D3335A0008280014534
:1039F000828093C5F5FFC205C1812318B50082807E
:103A0000EFE21FF30357050183D76500F576FD1636
:103A1000758FD98F03D7C5002318F5008356C500CD
:103A200083D745007D762A841306369F03D585000B
:103A3000F18EAE8483D5A500D58FC98FCD8F231687
:103A4000F4008357440101116800C207C18393F752
:103A5000F7CFD98F231AF400B936B74701409387BF
:103A60000780630BF40852468356C4009317160070
:103A7000B297C2068E07C1869840B29763C006040B
:103A80000A07B3D7E702930640060356C40042066E
:103A9000418633D7D702B3F7D70212076340060433
:103AA000920793872703B3D7D702BD8BD98FC2075D
:103AB000C1832314F40005616FE0DFE90607B3D783
:103AC000E702930640060356C4004206418633D7F8
:103AD000D702B3F7D7021207E35406FC8E07938789
:103AE0002703B3D7D7029D8BD98FC207C183231475
:103AF000F40005616FE01FE66246BDB78357C5005D
:103B000091C50967D98F2316F500828079777D17D3
:103B1000F98F2316F500828093F7F50F05479583FB
:103B2000B315B7006384E702894613074501638C28
:103B3000D7001C4301C6CD8F1CC3828093C5F5FFFF
:103B4000FD8D0CC3828013070501E5B71307C5007F
:103B5000CDB793F5F51F2312B500828003554500BC
:103B60001375F51F8280035505006D8D3335A00058
:103B7000828093F6F50F054695822A87B317B60023
:103B8000638BC60209466383C6028356450133F53B
:103B9000F60083570700C207C18301C9A181054709
:103BA0003317B700F98F3335F00082808356050153
:103BB00033F5F600F9BF8356C50033F5F600D1BFE3
:103BC0007300203001A0EFE2BFD603A7418F9547D5
:103BD0002A84630AF70083474500A3040500A30273
:103BE000F5006FE03FD703457500EF50D0749307A1
:103BF0000002E318F5FE03475400834744006308BE
:103C0000F7046379F70483468400998F93F7F70FDD
:103C100093F4F60F63EAD7020C402686138501B5AC
:103C2000BA95EFE0FFD3834754002686034574001E
:103C3000BE9493F4F407A3029400938501B5EF407A
:103C4000A04AA304040071BF93F4F70FF1B78347B0
:103C50009400C1DB930700F87DB7EFE27FCD83A628
:103C6000418F1547834745002A846388E600A302F5
:103C7000F500A30405006FE0FFCD184193861700FF
:103C80002302D500BA972380B700834745008346B7
:103C900055001397870161871347F7FF7D87F98FD9
:103CA0002302F500E399F6FC8547A304F50022857D
:103CB000193F83479400E5FF6FE0DFC9EFE25FC77C
:103CC0001384819183A6418F1547834744006388FD
:103CD000E600A302F400A38001926FE0BFC7184082
:103CE000938617002302D400BA972380A700834746
:103CF0004400834654001397870161871347F7FFF9
:103D00007D87F98F2302F400E399F6FC8547A3042D
:103D1000F40022854D3D83479400E5FF6FE09FC38B
:103D2000EFE27FBF9387419303A98701C04B13063E
:103D3000F003814513051900EFE05FC683461400C8
:103D4000054781552301D900034624002302E900D9
:103D5000834744002300B900A300C9002303E900FE
:103D6000A302F9009305000F6382B72663EBF520E9
:103D700051476388E72E637AF71413072008639886
:103D8000E7220347740083466400034654008145DC
:103D90000545EF1010460347740083466400034650
:103DA000540085450545EF10D04403477400834611
:103DB00064000346540089450545EF1090430347CE
:103DC000A40083469400034684008D450545EF100A
:103DD00050420347A4008346940003468400914563
:103DE0000545EF1010410347A400834694000346A5
:103DF000840095450545EF10D03F1309B400994460
:103E0000930910020347290083461900034609005D
:103E1000A6858504054593F4F40FEF10903D0D0938
:103E2000E39234FF0347B40B8346A40B0346940B81
:103E300081450145EF10F03B0347B40B8346A40BCB
:103E40000346940B85450145EF10B03A0347B40B88
:103E50008346A40B0346940B89450145EF10703946
:103E60000347840B8346740B0346640B8D45014561
:103E7000EF1030380347840B8346740B0346640B02
:103E800091450145EF10F0360347840B8346740BD0
:103E90000346640B95450145EF10B0351304340B10
:103EA0009944130910020347240083461400034673
:103EB0000400A6858504014593F4F40FEF107033D8
:103EC0007514E39224FF6FE05FA841476384E71A0B
:103ED0004547639EE70C834554000347640009454A
:103EE000A303B9002304E900954513077900B296AE
:103EF0008506B697AE978507A301B90093F7F70F2C
:103F00003306A700834607000507B69793F7F70F18
:103F1000E31AE6FE9305000E4A95A303F500138508
:103F20004193253B054485449389419319A8353332
:103F30008347390005041374F40F9107A28463CEFC
:103F40008702CA9483C504004E859387050393F7BF
:103F5000F70EF1FF9305000D093383C504004E856C
:103F60000504FD1593F5F50FCD398347390013741A
:103F7000F40FA2849107E3D687FCEF30F04B6FE09B
:103F8000DF9C9305200F638BB7129305300F639767
:103F9000B700A303E9002304E90029A01307100FC9
:103FA0006397E7000D4599451307790089B7369661
:103FB0007D57B2978D072302E9000D47A301E90061
:103FC00093F7F70F9305000E0145B9B71767000087
:103FD0001307C7EA03450700976500009385C5EA04
:103FE00003C3050083C8150003C82500A303A90067
:103FF00003C5350083C5450083431700834227006E
:10400000834F3700034F4700834E5700034E67002E
:1040100003477700230AB900FD552307E900A30AE7
:10402000B9002947930500FAA307E900A309A900ED
:10403000230BB90023047900A30459002305F901D7
:10404000A305E9012306D901A306C90123086900D4
:10405000A308190123090901130779004145CD453A
:1040600079B50347540005459145A303E9001307BB
:104070007900B5BD8146014681450545EF10301DEB
:104080008146014681450145EF10701C0347290018
:10409000834719000346490083465900BA978D07A4
:1040A00003476900B297B697BA970D478345090051
:1040B000A301E90093F7F70F0145B9BD1307A0FA73
:1040C000A303E900130730052304E90009459545DA
:1040D0001307790029BD83C7018B81E78547238DAD
:1040E000F1868280EFE23F8383A4019303C65400EC
:1040F000238D01869305660093F5F50F2380B400A8
:10410000D1C11506938714001376F60F3E962687C5
:104110008147834607000507B69793F7F70FE31A21
:10412000C7FEA6952380F500138581919305000EA7
:104130002D3601449389819109A8053683C704006F
:1041400005041374F40F63ED8702338984008345FB
:1041500009004E859387050393F7F70EF9FF930542
:10416000000DE53C834509004E850504FD1593F5DA
:10417000F50FE53483C704001374F40FE3F787FCED
:104180006FE0AFFC814771BFEFE28FFA93878191B7
:10419000804FC44B1306000881452285EFE01F8045
:1041A00003C7240083C6140083C734002301E4003E
:1041B00019472300E400A300D400A301F40013076F
:1041C00010086367F7021307F0026377F70293871B
:1041D00007FD93F7F70F13071005636FF7001767D5
:1041E00000001307E7CA8A07BA979C43BA978287E9
:1041F0001307000F638CE70083C7018B81E78547B6
:10420000238DF186EF3050236FE0CFF497670000E5
:10421000938787DC03CE070003C3170083C82700FA
:1042200003C8370003C5470083C5570003C66700AE
:1042300083C6770003C78700BD472300F400A54766
:10424000A302F4002303C401A303640023041401A4
:10425000A30404012305A400A305B4002306C4009D
:10426000A306D4002307E40083C7018BC9DB59BF31
:10427000EF20200041BF03C8540003C5640083C57C
:10428000740003C6840083C6940003C7A400938708
:10429000C18623800701A380A7002381B700A381E3
:1042A000C7002382D700A382E70083C7018BA1DB6D
:1042B00091BF138454002285EF00D01215FD03C670
:1042C00094001387C186814691452285EF10505B8B
:1042D00015BF03C5940013096400CA85EF00B0162A
:1042E0006304050E834704004147A302E400C107AD
:1042F0002300F40083C7018BE38307F021B78545D2
:104300000145EF10B04F83C7018BE38A07EEDDBD97
:1043100081450145EF10904E83C7018BE38107EE85
:10432000D5B5EF207026F9BD83C6740003C66400BE
:1043300083C554000945EF10807183C7018BE3806A
:1043400007ECC9B503C8540003C5640083C57400F5
:1043500003C6840083C6940003C7A40093874187E3
:104360000DBF138454002285EF00D007E31605E843
:1043700003C6940013874187854691452285EF1037
:10438000305049B5930700022302F40083C7018B24
:10439000E38707E685BD9306F00F1306F00F93053C
:1043A000F00F0945EF10A06A81BD9D472300F4007E
:1043B000930740F92303F4008547A302F40083C761
:1043C000018BE38E07E23DBD03C59400CA85EF1063
:1043D00070580DBDEFE24FD3138441930347A400FF
:1043E000032C440145C39389B186130B000E954BF2
:1043F000930A000D138AA18613090002FD54834617
:1044000004015C4403C60900B69783C70700638DA7
:10441000670763075609638D5709834614010346EE
:104420000A00584836972300F70003471401050790
:104430001377F70FA308E40063F7EB0083463C0013
:104440006D17630CD7080347A400834504019386C6
:1044500007F3B336D0007D17B306D0403E961377EE
:10446000F70F8505F58F2300CA002305E400230814
:10447000B4002380F90041F70945EF50006D034770
:10448000A40035FF6FE0CFCB630C5601A3820194EB
:1044900023002A01A3019C0013060002814651B7A4
:1044A00085078346140103460A0093F7F70F95BF6B
:1044B0007D171377F70F8506930700FD2380F9001A
:1044C0002305E4002308D4001DFB0945A3850186CC
:1044D000EF50A0670347A4006DB7638CC702034782
:1044E000A40083470401A38201947D171377F70F7B
:1044F000850723850186A38501862305E40023081B
:10450000F400E31E07EE0945EF5020640347A400C2
:104510008DBFEFF0FF80E1B7EFE20FBF1384819111
:1045200003C7018B8347A400631107144448938A8F
:104530009186D9CF130C000E938B8186954C130B6B
:10454000000D130A00FDFD5901598346040158442A
:1045500003C60A00369783450700638D8507630409
:10456000660B6386650B034714015C4883C60B002A
:10457000BA972380B70083471401850793F7F70F95
:10458000A308F40063F7FC0003C70400FD1763836E
:10459000E70A8347A40003460401138705F3333772
:1045A000E000FD173307E040AE9693F7F70F0506DE
:1045B000F98D2380DB002305F4002308C400238049
:1045C000BA00C1F70D45EF5040588347A400B5FF2E
:1045D0006FE00FB763096603A3840192FD17238080
:1045E000340193F7F70F85062384018623802A017F
:1045F0002305F4002308D400A9FB0D45EF50E05437
:104600008347A400E9B7850593F5F50FA9BFFD170A
:1046100093F7F70F850623804A012305F40023084A
:10462000D40085F70D45A3840186EF5000528347DF
:10463000A40071BF913E8347A40003470401A384F3
:104640000192FD1793F7F70F050723840186A384D2
:1046500001862305F4002308E400E39807EE0D45E6
:10466000EF50A04E8347A4009DB7B9C38347040110
:10467000B74401409384048058442685BA9783C583
:104680000700EFF00FCD930500082685EFF0AFCDC2
:104690007DD9834704010347A40085077D1793F75D
:1046A000F70F1377F70F2308F4002305E40069F7E9
:1046B0000D45EF5080496FE0AFA8EFE26FA7193BBF
:1046C000A13D13854193EFF00FD013858191EFF059
:1046D0008FCF83C7A18799E36FE0CFA7EFF09FA0AB
:1046E0006FE04FA7EFE2CFA49384C18003C404001E
:1046F0009307F00F6301F4049386C18783D7060004
:104700000567130787388507C207C1832390F60022
:104710006366F70A09496301240F636089023DC893
:1047200037540040B7050300850513050440EFE04A
:104730007FD0631005106FE0EFA18D47E31DF4FEFD
:1047400037590040B7050700938545081305094010
:10475000EFE05FCE6DD1854513050940EFE05FC600
:1047600083C7E1879386D180850703C70600238F1F
:10477000F186239E018683C7E18763EDE70C238FD3
:104780000186FD572380F4009547E316F7FA23804E
:10479000860055B737540040B705020013050440A2
:1047A000EFE01FCB49F9854513050440EFE03FBF1B
:1047B00085472380F400239E0186B5BF375400400F
:1047C000130504408545EFE05FC5130504408145AE
:1047D000EFE0BFC4130504408145EFE05FBA8545B3
:1047E00013050440EFE0BFB923860180238F0186C3
:1047F000239E01866FE00F9637540040B7050700EF
:104800009385250813050440EFE0DFC2E30505F2B8
:1048100003C7E18793870181BA9783C50700130512
:104820000440EFE03FBE8D472380F400239E0186C5
:1048300019B703C7E18793870185BA9783C5070036
:10484000014613050440EFE05FBC23802401239E52
:104850000186D5B523860180F9BD03C7C1809307C2
:10486000F00F6303F7008280EFE28F8C1384B18036
:1048700003450400239E018623860180EF30C02F6C
:10488000814517050000130525E6EF30802623003B
:10489000A4006FE02F8C1345F5FF9357650093E755
:1048A00007FC136705FC93F7F70F1377F70FA207C1
:1048B0003181D98F93860181136505FC2390F60021
:1048C0002381A60003C7C1809307F00F6303F7009D
:1048D0008280EFE2EF851384B18003450400239EBC
:1048E000018623860180EF302029814517050000CD
:1048F000130585DFEF30E01F2300A4006FE08F85F4
:1049000005661306068083A5C18117C5FF1F130521
:1049100065E06FE0EF84EFE2AF8199677390078005
:10492000371702405C4301449384C18193E7070831
:104930005CC313898181EFE02FED88402295EFE081
:104940006FEF832509008840A2952295EFE0AFF133
:1049500013040410EFE02FED93070480E9FF3717ED
:1049600002405C4393F7F7F75CC399679387870826
:10497000739007806FD01FFE23A20188828023A23C
:10498000018803A78181AA8735C30347870085462D
:1049900001456303D7008280FDDFF5DD83C6070094
:1049A000E39BE6FE03C717001306E002E315C7FE0C
:1049B00003C8050013068008E31FC8FC83C5150063
:1049C0001306400BE399C5FC83C5270003C63700D7
:1049D000938701882380D700A380E7002381B70055
:1049E000A381C700054523A2D1888280014582802A
:1049F00003A541887D15133515008280EFD25FF342
:104A0000138441881840854741116313F70E23A290
:104A1000018879CDAA8541460A85EFD07FF49308B5
:104A200001010A87175500001305C55B856683479A
:104A300007000507AA97B69783C70780A30FF7FE5D
:104A4000E397E8FE0348F1009305F100935748000F
:104A500093867700139726003697939627003A9807
:104A60003383D700330368401303D3FD420313534A
:104A700003016D180346E1004208135808018A87B4
:104A8000B28603C607008E06850713575600558F5A
:104A9000A38FE7FEE396F5FE93767800A2060A87D9
:104AA000834707000507B697AA9783C70700A30F98
:104AB000F7FEE397E5FEE31E68FA13076100A546DB
:104AC00083470700050713D64700BD8B63E2C60284
:104AD00063E0F602E396E8FE02479387014B98C332
:104AE0001247D8C3224798C73247D8C789471CC046
:104AF00041016FD03FE603A741888947631AF70059
:104B000083A7818191C783C7870005476380E70A30
:104B100085472303F50093070002A303F500C1476F
:104B20002304F50003CF050083CE150003CE250036
:104B300003C3350083C8450003C8550083C665001C
:104B400003C77500A304E5012305D501A305C5012D
:104B500023066500A306150123070501A307D50059
:104B60002308E500034E0600034316008348260091
:104B700003483600834546008346660003477600B7
:104B80000346560093071501A308C50123096500D4
:104B9000A3091501230A0501A30AB500230BC500CB
:104BA0004D452383D700A383E700828013870188C4
:104BB0002303F500834507000346170083462700BB
:104BC000834737004147A303E50011472304E5006D
:104BD000A304B5002305C500A305D5002306F500F1
:104BE0001D45828083A641880947AA8701456383C2
:104BF000E600828003A78181014565DF8346870047
:104C00000547E398E6FEF5D71387018803C607003A
:104C1000834607006306D6000545134515008280CC
:104C200003C6170083461700E318D6FE03C6270005
:104C300083462700E312D6FE83C63700834737003A
:104C4000E39CF6FCD9BFEFD2BFCE83A441880947CD
:104C5000639EE40003A781812A84014511C783462E
:104C6000870005476387E6006FD0DFCE01456FD030
:104C70007FCEAE87F5D9414681453E85EFD01FD224
:104C8000630494000545CDB741469385014BEFD0B1
:104C90003FCD0545D1BFEFD2BFC91384014C1306E8
:104CA000000481452285EFD07FCF9307A0FA23002F
:104CB000F4009307101E2311F400EF203047231255
:104CC000A400EF00B039AA8713060004A28511459D
:104CD0002313F400EF3040416FD0DFC7B7F7FF1F59
:104CE00083A6877E03A7C77E83A7077F93DF8600FF
:104CF00013DF060193DE8601135E8700135307015D
:104D00009358870113D8870093D5070113D68701DD
:104D1000A301D5002301F501A300E5012300D5017E
:104D2000A303E5002303C501A302650023021501C7
:104D3000A305F50023050501A304B5002304C50060
:104D4000828091BFEFD2DFBE13840150034704007D
:104D50009307A00A6304F7006FD0DFBF1306E003D8
:104D600081451385214CEFD07FC30347140083474F
:104D700024009384014C9306A0FAA380E4002380CE
:104D8000D4001307000B6369F70413978701618749
:104D9000634507021387F7FF1377F70FBD4663EDEF
:104DA000E6084147636AF70817670000130787B3EF
:104DB0008A07BA979C43BA97828793C70708130755
:104DC0000003636BF706176700001307E7B58A0750
:104DD000BA979C43BA9782871307200E6389E70628
:104DE0006373F7021307300E6398E7049307301ECE
:104DF00013060004A68511452391F400238401883D
:104E0000EF30802E91BF1307000E6388E700130771
:104E1000100E6393E702413581B7834744001307BF
:104E2000001E2391E4006380072A05476384E7207E
:104E3000FD57A381F4000DB7FD57130600049385B9
:104E4000014C11452391F400EF30002A31B785471A
:104E50002384F188130600049307201EA6851145BC
:104E60002391F400EF304028C5BD1385414CBD357A
:104E700093070011130600049385014C11452391FB
:104E8000F400EF306026C9BD0347440091472381F9
:104E9000F40085469307F00F63E7E60083A781815E
:104EA0002384E7008547130600049385014C1145D0
:104EB000A381F400EF30402345B583A7818183C7E8
:104EC000870013073010130600049385014C114529
:104ED0002391E4002382F400EF300021B5BD0347A5
:104EE000440083A78181130600042383E700938590
:104EF000014C9307201011452391F400EF30C01EA0
:104F0000A1BD83A7818183C7670013071010130613
:104F100000049385014C11452391E4002382F400A1
:104F2000EF30801C15BDEFF0BF9D930700181306EE
:104F300000049385014C11452391F400EF30C01A11
:104F400021BD034544009307F00F83488400834547
:104F500094000347A4006307F5269306000F034857
:104F60005400630CD52C6309F824AE864686C285AE
:104F7000EF0030289307001B130600049385014CB3
:104F800011452391F400EF302016F9B3EF20101AE9
:104F90002A84EF2050199317040113170501C183C8
:104FA000D98F130600041307101A9385014C11457D
:104FB0002391E400DCC0EF30201379BBEF20D02E2A
:104FC0009307001A130600049385014C11452391A1
:104FD000F400EF30601149B383A781819C4313062D
:104FE00000049385014CDCC01145930710192391EF
:104FF000F400EF30600F8DB3584083A78181130612
:10500000000498C39385014C93070019114523911F
:10501000F400EF30600D89B3EFF0FF8F93071018A5
:10502000130600049385014C11452391F400EF30E1
:10503000A00B1DB383455400054593D6250013D618
:105040001500858A058A8589EF00902083456400D4
:105050000D4593D6250013D61500858A058A8589C6
:10506000EF00101F83457400154593D6250013D615
:105070001500858A058A8589EF00901D8345840087
:10508000014593D6250013D61500858A058A8589A2
:10509000EF00101C83459400094593D6250013D6D4
:1050A0001500858A058A8589EF00901A8345A4003A
:1050B000114593D6250013D61500858A058A858962
:1050C000EF00101951B9034774008346640003468A
:1050D000540081450545EF00D0110347A4008346E5
:1050E00094000346840085450545EF009010034772
:1050F000D4008346C4000346B40089450545EF004B
:10510000500F034704018346F4000346E4008D4535
:105110000545EF00100E0347340183462401034682
:10512000140191450545EF00D00C03476401834607
:1051300054010346440195450545EF00900B034794
:105140009401834684010346740181450145EF00C3
:10515000500A0347C4018346B4010346A4018545B0
:105160000145EF0010090347F4018346E4010346BB
:10517000D40189450145EF00D00703472402834647
:105180001402034604028D450145EF0090060347D3
:105190005402834644020346340291450145EF0020
:1051A0005005034784028346740203466402954512
:1051B0000145EF0010044DB62E86BA86C685EF0075
:1051C00010094DBB3A864685EF0050088346A4007F
:1051D00003469400834584000545EF00700783462D
:1051E000A40003469400834584000D45EF0050065B
:1051F0008346A40003469400834584001545EF00D0
:1052000030058346A400034694008345840001458D
:10521000EF0010048346A4000346940083458400F5
:105220000945EF00F0028346A4000346940083453D
:1052300084001145EF00D00135BB2E86BA86C685A5
:105240004285EF00F0003DB383A7818103C767006B
:1052500085476303F700828093874155138741593F
:10526000138841598843CC439047D44708C34CC363
:1052700010C754C7C1074107E39607FF1306000490
:105280009385415905456F203066EFD2CFE893876B
:10529000415D83C6070041476386E600EF20D019D1
:1052A0006FD0AFEA03C717008D466301D70A63EDDD
:1052B000E60085476305F70A8947E311F7FE930780
:1052C0000003A38AF156D9BF9146E319D7FC83C4E2
:1052D000270003C7370083C64700C204931787001F
:1052E000DD8CD58C175400001304447005499D498A
:1052F0008346B4000346A400834594001305F9FFD8
:10530000B3D6D40033D6C400B3D5B400858A058A99
:1053100085891375F50FEF00A073834624000346BB
:105320001400834504004A85B3D6D40033D6C400A4
:10533000B3D5B4000909858A058A85891379F90FDF
:10534000EF0000710D04E31539FB89BFA38A0156F4
:10535000A3860156239701562388015681B71384EB
:1053600011820345040093070003A38AF156EF203E
:10537000B000954517050000130545EDEF20607757
:105380002300A40021BFEFD2AFDA83C7E188B9E7D9
:105390001306E00281451385615AEFD02FE0938711
:1053A000015483A8070003A847009447D84783D730
:1053B0000701938541594946054523A0150123A2BC
:1053C000050194C5D8C52398F500EF20F05109E5F3
:1053D00085472387F18801456FD0CFD793874182D6
:1053E000984383C747009385415923AC015823AEA6
:1053F00001581546054523A0015A23A2015A23A4AA
:10540000015A23A6015A23A8015A23AA015A23AC00
:10541000015A23AE015A23A0015C23A2015C23A4FC
:10542000015C23A6015C23A8015C98C12382F500DE
:10543000EF20904B55F123870188014571BFEFD2D2
:105440002FCF83A7818183C7670009476389E7025C
:105450000D47638FE70805476382E70413840182E1
:1054600003450400EF204073854517050000130530
:1054700045FDEF20406C2300A4006FD0AFCDEFF0CE
:105480005F8C69FD1384018203450400EF20C07026
:105490001305F00F2300A4006FD0CFCB138411822B
:1054A00003450400EF20406D9545170500001305E6
:1054B000E5D9EF2000642300A400938741551387AA
:1054C0004159138841598843CC439047D44708C376
:1054D0004CC310C754C7C1074107E39607FF130623
:1054E0000004938541590545EF20104025F959BF27
:1054F00083C7D18899CB413D35F183C7E188D9F382
:10550000A386018823860188B5BF23870188A53D2E
:10551000E31605F483C7C18889C78547A386F18848
:1055200035BF23870188B9BFEFD2EFBE83D701898A
:1055300013D7870093894155A380F9002381E9009F
:10554000A388015623990156238A015697540000D7
:105550009384044D01443D492285DD2C05041374D8
:10556000F40F19C983C7040083C61400CE9703C77C
:10557000D701558FA38EE7008904E31F24FD83978D
:10558000418963C407006FD04FBC3D45D12465DD20
:1055900003C7A90183C7C90105078507238DE90052
:1055A000238EF9006FD06FBAEFD2EFB683D701899F
:1055B00093C7F7FFC207C1831387A188858303566A
:1055C00007009386418293D58700A380F60023814C
:1055D000B6006303F60885462386D1884546814593
:1055E000138511542310F700EFD04FBB13890154DA
:1055F000930710032300F90097540000938444405C
:105600000144130A0021C149B3578A00858B1375E1
:10561000F40F85E3352C3307890001CD834719004A
:1056200003C6040083C61400D18FA300F900230130
:10563000D70005048904E31934FD1145112C09E54F
:10564000930730032303F9002545192401E5914709
:10565000A305F9006FD06FAF2386018841B7EFD261
:105660002FADD920E52A9387618983D40700239041
:10567000A7002A84B3479500239AF188EF20800879
:10568000EF20C02A138721899347F5FFC20783566D
:105690000700C1832398F1886383F6022310F70083
:1056A000EF20805983A7818183C767000547638006
:1056B000E7020D47638BE70059336FD0AFA9231082
:1056C000D700E31F94FC6FD0EFA8F93DF5B7A93DD3
:1056D000E5B793171500138741623E97938641649F
:1056E00083570700AA9603C6060086078D46D18F0A
:1056F000C207C1832310F7006381D7024167930675
:10570000F7FF638CD70071176383E70091E79387F6
:105710004161AA9723800700828093874161AA97FD
:1057200005472380E7008280EFD28F9D3714014028
:10573000854513050480EFD05FB1B945130504809A
:10574000EFD03FAF371B014093050040130504C065
:10575000938A4164EFD0FFAD8144214A13090BC005
:105760008D49154C914C054D930B0B802945EFD07D
:10577000EFA3D68D0144B3158A00C205C1814A85C5
:10578000EFD0FFA8133515002380AD000504950D5B
:10579000E31334FF8504850A638584076382340537
:1057A000638694036385A409914513050B80EFD0AC
:1057B000DFA9AD4513050B80EFD0BFA793050040CF
:1057C00013050BC0EFD0FFA689444DB74A8593055A
:1057D0000040EFD09FA7BD455E85EFD09FA579B76C
:1057E00013050B80A145EFD05FA613050B809D45E7
:1057F000EFD03FA49305004013050BC0EFD07FA36B
:10580000B5B7C14513050B80EFD07FA01335150048
:1058100093874164A387A7000144C14422850504FE
:105820001374F40F7D35E31B94FE6FD02F91130595
:105830000B808945EFD07FA113050B80B545EFD0D4
:105840005F9F9305004013050BC0EFD09F9E39BFAB
:1058500093874161AA9703C50700828093864161BF
:1058600081470145414603C7060085063317F70007
:10587000598D420585074181E397C7FE8280C205A5
:10588000D18D220533E6A500014317CFFF1F130F6B
:10589000AF82930ED039FD559308D0340D4E3308A6
:1058A000D30315457A98B306A8005D47B357E600C1
:1058B000858BFD1793F7A7FB938737072380F600A7
:1058C0007D178506E314B7FE6105E31E15FD05038C
:1058D000E317C3FD82809307D0393308F5024206EF
:1058E000A205558E97B7FF1F9387077D4D8E1545EF
:1058F000FD559308D0343E98B306A8005D47B357D2
:10590000E600858BFD1793F7A7FB93873707238066
:10591000F6007D178506E314B7FE6105E31E15FD4D
:105920008280EFD2EF8013050020EFD0CFE419E1A1
:105930006FD04F8213050002EFD0EFE375D9370522
:105940002000EFD04FE36DD513050020EFD08FE39B
:1059500013050002EFD00FE337052000EFD08FE2F0
:10596000B704004013850440814537040240EFD05E
:10597000FFEA130504038145EFD04FDE1305C40190
:105980008145EFD0AFDD1305C4068145EFD00FDDB3
:10599000130504039305D039EFD0AFDD1305C4011F
:1059A0009305D039EFD0EFDC1305C4069305D03949
:1059B000EFD02FDC1305C4018545EFD02FDA130596
:1059C00004038545EFD08FD91305C4068545EFD074
:1059D000EFD8854513850440EFD05FE46FC09FF793
:1059E000EFC21FF5EF20A02C2D3FEFE01FE76FC0A7
:1059F0007FF69307200263F3B70082809307D039C4
:105A00003305F50293971500AE978E07939506011F
:105A1000220693865700B3E7E5005D8E97B7FF1F18
:105A200093878769AA96BE965D47FD55B357E600F2
:105A3000858BB307F04093F767049387D7022380E1
:105A4000F6007D178506E313B7FE82800DBD61B5B4
:105A50003336C0000606B337D000B335B000D18F5F
:105A60008A0593868189CD8F36952300F5000146FE
:105A7000BD47F55503C7060085063317F700F51730
:105A8000598EE399B7FE328523A0C18A6FE0BFE04B
:105A900093878191D84B9C4F93056500034617006F
:105AA00083462700034737002380B700A380C70041
:105AB0002381D700A381E70023820700A382A700E8
:105AC000828097A7FF1F83C7275581E789472388CF
:105AD000F18A82808D4763F4A70617C7FF1F13075B
:105AE000270B8347070083461700D58FB9E7834606
:105AF00027009307F00F6392F6048347370083462D
:105B00004700BE9693F6F60F8DEAF91793F7F70F55
:105B1000A301F7006365F502034657008505930668
:105B2000500D93F5F50F631AD6000347670063160F
:105B3000B7001395070141858280755582807155A4
:105B40008280EFC2FFDE17A4FF1F1304A44C03459D
:105B50003400894739712300F1009307F00F630780
:105B6000F500EF206003FD57A301F40093073020F8
:105B70009305803E170500001305A5212310F400AE
:105B8000EF10707B97A7FF1F9387474A83C6970044
:105B900003C6870003C7A70083C7B700A206D18E3C
:105BA0004207558FE207A301A400D98F0A858146D9
:105BB00001468545829721616FC0DFD9EFC25FD76B
:105BC00017A4FF1F13040445034534009307401135
:105BD00039713EC09307F00F6307F500EF10D07BDB
:105BE000FD57A301F4008565930730109385853830
:105BF000170500001305E5192310F400EF10B0732A
:105C000097A7FF1F9387874283C6970003C6870025
:105C100003C7A70083C7B700A206D18E4207558FDE
:105C2000E207A301A400D98F0A8581460146914568
:105C3000829721616FC01FD2EFC29FCF17A4FF1FB1
:105C40001304443DB707FF01397193872753034578
:105C500034003EC0C1472302F1009307F00F6307F1
:105C6000F500EF107073FD57A301F4009307303077
:105C70009305803E170500001305A5112310F400BD
:105C8000EF10706B97A7FF1F9387473A83C6970063
:105C900003C6870003C7A70083C7B700A206D18E3B
:105CA0004207558FE207A301A400D98F0A858146D8
:105CB00001469545829721616FC0DFC9EFC2BFC51C
:105CC00097A4FF1F9384043583C6140093878191A2
:105CD0002547804F03A94701AA896382E6048347C9
:105CE0003900834619000347290019462300C400E0
:105CF000A301F400A300D4002301E40003C5340091
:105D000085472380F400A302040023023401930793
:105D1000F00F6315F506EFE00FBC6FC01FC3EFE097
:105D20003FCD55DD0145EFE07FCD17A6FF1F1306E0
:105D3000462F97A5FF1F9385452E2285EFE0BFDBF9
:105D4000034619008346290003473900930565007F
:105D50002300B400A300C4002301D400A301E40085
:105D6000AA8703C53400A302F40085472380F4000A
:105D7000230204009307F00FE30FF5F8EF10D06152
:105D8000FD57A381F400EFE00FB56FC01FBCEFC259
:105D90003FBA17A7FF1F1307E7278346070093841F
:105DA0008191954703A94401804C638BF604834796
:105DB00017009D462300D7002947636BF70017574C
:105DC00000001307E7C78A07BA979C43BA978287F0
:105DD0008347390083461900034729001946A30168
:105DE000F4008D472300C400A300D4002301E40085
:105DF000A30204002302F400EFE0EFAD6FC09FB5F3
:105E000085472300F7006FC0FFB4834739008346FE
:105E10001900034729001D46A301F400854723000C
:105E2000C400A300D4002301E40023020400A30261
:105E3000F40023030400EFE00FAA6FC0BFB1834753
:105E4000390083461900034729001946A301F400CD
:105E500085472300C400A300D4002301E400A3026B
:105E600004002302F400EFE00FA76FC0BFAEEFE025
:105E70003FB845C10145EFE07FB817A6FF1F1306E5
:105E8000461A97A5FF1F938545192285EFE0BFC6E7
:105E9000D8489C4C930565000346170083462700AD
:105EA000034737002380B700A380C7002381D700B2
:105EB000A381E70023820700A382A700EFE0AFA140
:105EC00035BF83C7018B8DFBEFF0BFC735B783C7E5
:105ED000018BE39307F28D3305B78347390083467F
:105EE000190003472900A301F400B1474946A30262
:105EF000F40085472300C400A300D4002301E4007C
:105F000023080400A30804002302F400EFE0AF9C80
:105F1000F5B5D8488346A9019C4C03451700834535
:105F2000270003463700139746001377F70F23091E
:105F3000D40023080400A3080400930637013507A2
:105F40002380D700A380A7002381B700A381C700C7
:105F500023820700A382E700EFE0EF9745B5EFC289
:105F60003F9D17A4FF1F1304640C834614000346CF
:105F700004000347240083473400A206D18E420761
:105F800017A6FF1F13060609558FE207FD56A3014A
:105F9000D600D98F23020600829783465400034619
:105FA00044000347640083477400A206D18E420771
:105FB000558FE207D98F8297930540061705000099
:105FC000130565B8EF1030379305800C17050000F6
:105FD0001305C5C6EF1030369305C0121705000033
:105FE000130505BEEF1030359305007D1705000041
:105FF000130565ADEF1030346FC0DF95EFC25F93CE
:1060000017A4FF1F130404018347340039711307D9
:106010002013C98D2310E1002301B1001307F00FF5
:106020006388E7003E85EF103037FD57A301F40089
:10603000930730409305803E17050000130565D592
:106040002310F400EF10302F97A7FF1F938707FE50
:1060500083C6970003C6870003C7A70083C7B7009E
:10606000A206D18E4207558FE207A301A400D98F63
:106070000A85814601468D45829721616FC09F8DBB
:10608000EFC21F8B83475700834E0700034E170054
:10609000034327008348370003484700B336D00046
:1060A0001376F60F3971220693860606D18E1307F2
:1060B00000142E862E84AA851305A100A304F100E6
:1060C00097A4FF1F938404F52310E1002311D1004E
:1060D0002302D101A302C10123036100A303110123
:1060E00023040101EFC0DF8703C534009307F00FDD
:1060F0006307F500EF10502AFD57A381F4009307C2
:1061000030609305803E17050000130585C8239075
:10611000F400EF10502297A7FF1F938727F183C643
:10612000970003C6870003C7A70083C7B700A2066E
:10613000D18E4207558F9305A400E207A381A400E6
:10614000D98F0A858146014693F5F50F8297216123
:106150006FC05F80EFC2CFFD17A4FF1F130484EB55
:10616000397113070014834734002310E10013072B
:1061700000032301E100A301A1001307F00F6388CE
:10618000E7003E85EF105021FD57A301F40093076F
:1061900030709305803E17050000130585BF23105E
:1061A000F400EF10501997A7FF1F938727E883C6C5
:1061B000970003C6870003C7A70083C7B700A206DE
:1061C000D18E4207558FE207A301A400D98F0A851B
:1061D000814601469145829721616FC0AFF7EFC2BA
:1061E0002FF5935785001317850017A4FF1F13047D
:1061F00064E25D8F03453400C16739719387A7144A
:106200003EC02312E1002303B100A3030100930762
:10621000F00FB2846307F500EF101018FD57A301CB
:10622000F4008567A685938737801705000013055E
:1062300045B62310F400EF10101097A7FF1F9387A7
:10624000E7DE83C6970003C6870003C7A70083C79E
:10625000B700A206D18E4207558FE207A301A40022
:10626000D98F0A8581460146A145829721616FC079
:106270006FEEEFC2EFEB39711384518AEFE0CFEF8D
:1062800083470400A5CF97A4FF1F9384A4D803C518
:1062900034009307A0142310F10023010100930799
:1062A000F00F6319F506930730509305803E1705EC
:1062B0000000130505AE2390F400EF10D00797A758
:1062C000FF1F9387A7D683C6970003C6870003C71F
:1062D000A70083C7B700A206D18E4207558FE207F9
:1062E000A381A400D98F0A85814601468D458297F6
:1062F00081472300F40021616FC0CFE5416513069B
:10630000803E85457D15E13D85472300F4002161F0
:106310006FC04FE4EF105008FD57A381F40061B740
:106320001D71A2CCA6CAD6C286CECAC8CEC6D2C459
:10633000801097AAFF1F938AEACD2A83C14703C51D
:106340003A008A8463E767189147B28863E3C71805
:10635000330AC300150A060A137AFA0F13091A0042
:1063600097A7FF1F938767CB1379F90F83C30700A4
:1063700083C2170083CF270003CF370083CE4700A7
:1063800003CE570003C8670003C677001307F90060
:106390009377071F3301F14023811A0199472300A6
:1063A000F100A300710023015100A301F1012302B8
:1063B000E101A302D1012303C101A30301012304CD
:1063C000C100A30461008A89630F0312131613002E
:1063D00029069307A1000A9603D7050089078905B6
:1063E00013588700A38F07FF238FE7FEE396C7FEAE
:1063F00093151300A90593F5F50F3387B90093871B
:1064000015002300170193F7F70F638C0802860825
:106410008508C69593F5F50F03D606001387170078
:106420003388F9001377F70F93588600230018017B
:1064300089074E9793F7F70F2300C7008906E39D5E
:10644000B7FC9307F00F6310F508856793873790C3
:106450009305803E170500001305A5932390FA00CD
:10646000EF10606D97A7FF1F938747BC83C6970007
:1064700083C5870003C7A70083C7B70003C65A00B8
:10648000A206CD8E4207558FE20793060004090A43
:10649000A381AA002300D4FAA300C4FA230144FB79
:1064A000D98FCA864E868D45130504FA82972681B8
:1064B000130104FAF6406644D6444649B649264AD2
:1064C000964A25618280EF10206DFD57A381FA0066
:1064D000ADBF9307F00F6312F5028567938777903E
:1064E0008145170500001305C58A2390FA00EF10B7
:1064F0008064A381AA00268165BFEF10E069FD5783
:10650000A381FA00D9BFA945CDBDEFC2CFC097A7DF
:10651000FF1F9387A7B183C6D70003C6C70003C771
:10652000E70083C7F700A206D18E4207558F9384F8
:10653000418AE20713848191D98F17B5FF1F130594
:1065400025654111A685032A4401832984012382FC
:10655000018A829703C5040009CD17A9FF1F1309FB
:1065600069AB834709000D476388E7001147638BD8
:10657000E70041016FC06FBD91472300F9009547C7
:1065800063E0A702834719002947E364F7FE174732
:1065900000001307A74D8A07BA979C43BA978287D2
:1065A00097B7FF1F9387C75E03C6470003C727003F
:1065B0009306F00F83C50700718F03C8170003C649
:1065C0003700E311D7FC83C65700B3E505013367F5
:1065D000B600558F45FB930AA5FF568697B5FF1F5A
:1065E0009385655B3E85EFC00FB913F5FA0F2380E5
:1065F000A40041D141BF93050004EFF0AFCD634744
:10660000050E0345390095472300F9009307F00F65
:106610006307F500EF104058FD57A301F9005848F3
:106620001C4C494583451700034627008346370025
:106630003147A382E70003C759002380A700A38046
:10664000B7002381C700A381D700238207002388D6
:106650000900A38809002383E900EFD0DFA711BF59
:1066600093050004EFF00FC76342050897B4FF1FBE
:106670009384045283C7740093F7F7039DE793074D
:10668000F5FF03C78400C207C1876391E70603478C
:106690002900FD1712073107639AE70483C7240115
:1066A00003C73401D98F638F073E0545EFF00FE133
:1066B000C9B59305A004EFF0EFC1E34805FE97B418
:1066C000FF1F9384E44C83C774006385072205474A
:1066D000E39DE7FC03CA940003C784009307EAFE26
:1066E000A302E90093F7D70F638F07241145EFF05A
:1066F000EFDC41B593050004EFF0CFBDE34805FEA4
:1067000097B7FF1F83C73749CDF303453900954736
:106710002300F9009307F00F6307F500EF10C0475F
:10672000FD57A301F90058481C4C594883462700DF
:1067300003451700034737004146A380A700A38104
:10674000E700414797B5FF1F938505452380070163
:106750002381D70023820700A382E7001385690005
:10676000EFC00FA0EFD03F9729B593050004EFF0DD
:106770006FB6E34D05F697B7FF1F83C7D74195F76F
:106780000345390095472300F9009307F00F63078D
:10679000F500EF106040FD57A301F90058481C4C6C
:1067A0009945034617008346270003473700238097
:1067B000B700A380C7002381D700A381E70023820D
:1067C0000700A3820700EFD01F9165B39305A004D3
:1067D000EFF04FB0E34B05EC03453900954723003C
:1067E000F9009307F00F6307F500EF10E03AFD574B
:1067F000A301F90097B4FF1F9384843983C7740001
:106800006388071003C734009547E3F1E7EE584863
:106810001C4CB54583462700034617000347370045
:106820002381D7002380B700A381E7001D47A38001
:10683000C70023820700A382E70003C7C40083C701
:1068400034002384E90093065700E3D1F6EA814738
:1068500005C33387F4008346D7003387F9008507E3
:10686000A304D70003C7C40093F7F70FE3E3E7FEE1
:1068700085472383F900C147A383F900EFD0BF8583
:10688000CDB993052003EFF0EFA4E34105E60345FE
:10689000390095472300F9009307F00FE30BF5CC7F
:1068A000EF10802FFD57A301F900E1B193052003FC
:1068B000EFF04FA2E34C05E2034539009547230072
:1068C000F9009307F00F6307F500EF10E02CFD5778
:1068D000A301F90085472302F90061B98945EFF06A
:1068E0006F9FE35B05FC19B5D145EFF0AF9EE35513
:1068F00005FCEDBB0345390095472300F9009307DC
:10690000F00F6307F500EF102029FD57A301F900F0
:1069100058481C4C9D4503461700834627000347F3
:1069200037002380B700A380C700A381E700054795
:106930002381D70023820700A382E7002383090075
:10694000EFD06FF93DB10345390095472300F900B9
:106950009307F00F6307F500EF100024FD57A30124
:10696000F90097B7FF1F9387A7221387990017B6DF
:10697000FF1F1306662283C6B70085070507A30F0E
:10698000D7FE83C62701A303D700E396C7FE83C8BB
:10699000190103C8290103C5390183C5490103C68B
:1069A000590183C6690103C7790183C78901230798
:1069B0001901A30709012308A900A308B9002309A5
:1069C000C900A309D900230AE900A30AF90083C872
:1069D000990003C8A90003C5B90083C5C90003C64F
:1069E000D90083C6E90003C7F90083C7090123035F
:1069F00019012306E900A306F900A30309012304F2
:106A0000A900A304B9002305C900A305D900514773
:106A100081476318EA0083C7C40103C7B401A20712
:106A2000D98F9795FF1F938545601795FF1F130515
:106A3000C55E231BF900EFD09FF40DC1AD472316AF
:106A4000F10013873901E1779306E10005466C00F8
:106A500005452317F100EFF0BF8C21BE1796FF1FED
:106A60001306265C9795FF1F9385255B4E85EFE007
:106A70008F8854481C4C2A8783C5160003C62600FD
:106A800083C6360019052380A700A380B7002381A1
:106A9000C700A381D70023820700A382E700EFD0BD
:106AA0008FE3C1BC0345390095472300F9009307E4
:106AB000F00F6307F500EF10200EFD57A301F9005A
:106AC000834729008DCF554692073306364193867A
:106AD000090133853701CE851376F60F2E87B3076C
:106AE000E60093F7F70FA69783C70700050723096A
:106AF000F700E316D7FEC105C106E311B5FEEFD0DE
:106B00003FEF0DC513853901EFD05FEF1796FF1FDB
:106B1000130626519795FF1F938525504E85EFD07C
:106B20009FFDEFE0FFF6EFD00FDBA1B48347AA0192
:106B300023880900A38809001394470035041374BF
:106B4000F40F2389F9002285EFE09FF42383890065
:106B5000EFD06FD839BC1D71A2CCCAC8D6C286CEC0
:106B6000A6CACEC6D2C48010979AFF1F938A8A4ABB
:106B70002A88C14703C53A000A8963EB071DA94764
:106B800063E8C71C131A3600429A329A150A060A9D
:106B9000137AFA0F93091A009797FF1F9387E74715
:106BA00093F9F90F83C4070083C3170083C227003A
:106BB00083CF370003CF470083CE570003CE670053
:106BC00003C377009388F90093F7081F3301F1405E
:106BD0002381CA00A147A30091002300F1002301F3
:106BE0007100A30151002302F101A302E10123037B
:106BF000D101A303C10123046100A30401018A841C
:106C000063020818131E1800290E9307A1000A9E9C
:106C100083D805008907890513D38800A38F67FEF1
:106C2000238F17FFE396C7FF93151800A90593F567
:106C3000F50F3388B400938715002300C80093F73D
:106C4000F70F3DCE131816000508C29593F8F50FFF
:106C5000BE8503D3060013881500338EB400137865
:106C6000F80F935E83002300DE018905269893F5D3
:106C7000F50F230068008906E39D15FD9306F6FFD6
:106C80008606B69793F7F70F998F931546001386EC
:106C90002700BA86930807011376F60F2E97B6855C
:106CA00003C80500B307B60093F7F70FA697238034
:106CB00007018505E396B8FEC106C108E391E6FE2B
:106CC0009307F00F6310F5088567938737A0930546
:106CD000803E17F5FFFF1305C50B2390FA00EF0068
:106CE00090659797FF1F9387673483C6970083C586
:106CF000870003C7A70083C7B70003C65A00A206D0
:106D0000CD8E4207558FE20793060004090AA3813E
:106D1000AA002300D4FAA300C4FA230144FBD98FAC
:106D2000CE8626868D45130504FA82974A81130183
:106D300004FAF6406644D6444649B649264A964A7D
:106D400025618280EF005065FD57A381FA00ADBF39
:106D50009307F00F6312F5028567938777A081454B
:106D600017F5FFFF1305E5022390FA00EF00B05C72
:106D7000A381AA004A8165BFEF001062FD57A3817D
:106D8000FA00D9BFA94575B5EFB29FBA9385819135
:106D9000DC499796FF1F9386E62703C5D60083CF6D
:106DA000660003CF760083CE860003CE960003C331
:106DB000A60083C8B60003C8C60003C6E700984D06
:106DC0002386A700A382F701130516002383E7019A
:106DD000A383D7012384C701A384670023851701F8
:106DE000A3850701A303A700214541116307A60A54
:106DF000637AC504B1476304F60E9307400A631231
:106E0000F612D4499C4D454583C5160003C626009D
:106E100083C636002380A700A380B700A381D700D4
:106E2000AD462381C70023820700A382D700230831
:106E30000700834757002303F700EFD0CFA9410194
:106E40006FB05FB1630806109946631CD60C83C609
:106E5000970183C5870103C6A701A206CD8E231320
:106E6000D1009318160034003685BE9811CE83C524
:106E7000B70103C8C7018907A205B3E505012310BF
:106E8000B5000905E39517FF930561004D0705451A
:106E9000EFF00FC941016FB0FFAB03C7C70103C6D5
:106EA000B70103C8970183C687012207518F931842
:106EB0008700220821833368D800B3E8E800340053
:106EC000930561001387D70105460545231301018A
:106ED00023141101EFF03FC841016FB0BFA7D049A3
:106EE0009C4D4D4803451600834526000346360059
:106EF00023800701A380A700A381C7003546238113
:106F0000B70023820700A382C70085472308F70044
:106F100083C76601A308F70083C776012309F7003A
:106F200009BFD4499C4D194583C5160003C62600E8
:106F300083C636002380A700A380B7002381C70043
:106F4000A381D70023820700A38207008D47230275
:106F5000F700C5B5D0499C4D6948034516008345E7
:106F600026000346360023800701A380A700A381E3
:106F7000C70051462381B70023820700A382C700C0
:106F800003C6660183C77601230CC700A30CF70074
:106F90004DB5EFB2FF9979718545116502CA02CCF2
:106FA00002CE02D002D202D402D602C602C8EFC07C
:106FB0000FEE85451145EFC08FED37140140930763
:106FC00000200D494C0813050480231AF100E14705
:106FD0004ACC3ECEEFC02F8F930700404C081305DC
:106FE0000480231AF10091473ECEEFC0CF8D930766
:106FF00000104C0813050480231AF100C1473ECE4F
:107000004ACCEFC04F8CF167B7440140938707200B
:107010000C10138504803ED0B7070C003ED4231615
:10702000010202D2EFC0DF9D13850480054693055F
:107030005052EFC07FAE0546930540421385048051
:10704000EFC09FAD9307501368002316F1008547EA
:107050003EC823070100EFC0AFC3138504808545F8
:10706000EFC0DFA99305001013050480EFC06F9CEB
:1070700045616FB03F8EEFB2BF8B973700009387AB
:10708000E7DE8C43D043944703D7C70083C7E700AC
:107090004111374401402EC032C236C42316E100EC
:1070A0002307F1008A841309F1001304048083C5C7
:1070B00004002285EFC0FFA9930500082285EFC0D8
:1070C0009FAA7DD98504E39424FF41016FB09F8876
:1070D000EFB27F8483470500AA8437450140AE8A1A
:1070E000130505808145B74901403289368AA38856
:1070F000F18A2A84EFC0FFA5930500082285EFC01E
:107100009FA67DD9138509808145B7490140EFC00D
:107110005FA413840980930500082285EFC0BFA4F3
:107120007DD9138509809305F00FB7490140EFC061
:107130005FA213840980930500082285EFC0BFA2D7
:107140007DD9B3874A0193F7F70F9385170013850D
:10715000098093C7F7FF374B014093F5F50F93F97B
:10716000F70F13040B80EFC0DF9E93050008228504
:10717000EFC07F9F7DD9CE8513050B80B7490140B5
:10718000EFC03F9D13840980930500082285EFC05E
:107190009F9D7DD99305400D13850980374401409B
:1071A000EFC03F9B13040480930500082285EFC0C5
:1071B0009F9B7DD9638B0A0A37440140A69A9309A5
:1071C000400D1304048083C504002285EFC07F981E
:1071D000930500082285EFC01F997DD983C704005D
:1071E0008504CE9793F9F70FE39F54FD630A0A02D3
:1071F000374401404A9A13040480834509002285DC
:10720000EFC03F95930500082285EFC0DF957DD93B
:10721000834709000509CE9793F9F70FE31F2AFD6D
:10722000B30530413745014093F5F50F130505804F
:10723000B7440140EFC0FF91138404809305000818
:107240002285EFC05F927DD9814513850480374444
:107250000140EFC01F9013040480930500082285AD
:10726000EFC07F907DD96FB04FEE9309400DBDBF49
:10727000411122C637440140930550521305048042
:10728000EFC03F8F49E91384018B03470400854712
:107290006316F70032444101730020303744014047
:1072A0009305404213050480EFC0BF8C65D503579A
:1072B00004808357448083C7618A6393070C03C7A4
:1072C000918A9387C18A3E97834607001387918AE4
:1072D000C5CE03C6718A89469385718A63F7C60C49
:1072E00083C6818A85062384D18A03C6818A8D4616
:1072F00063F4C6002384018A834607000D46850691
:1073000093F6F60F2300D70083460700637ED60668
:10731000A384018A95A813050480EFC03F8483C726
:10732000018B85461375F50F1384018B6389D7068E
:1073300083C7618AB9FB03C7918A9387C18A3E9745
:10734000034607001387918A93158601E18513761A
:10735000F60F63C90504834507008346070017B786
:10736000FF1F1307E78A9E052E9793051600329795
:10737000B69713F6F50F2300A7002380C70031B797
:107380001387918A9387C18A03470700BA9723809E
:10739000070032442383018A410173002030EFC08B
:1073A000FF91E5B52383D18ACDB583C60500850657
:1073B00093F6F60F2380D50081B7EFB2CFD53744CF
:1073C0000140AA892E890146930550521305048075
:1073D000EFC08FF403C7018B85479384018B63094A
:1073E000F70001469305404213050480EFC0CFF239
:1073F00003C4718A1387718A41C083C6818A9397B7
:10740000760017B6FF1F1306A680B29723A0F900D7
:107410009387C18AB69783C707008D462300F9007A
:1074200083C7818A85072384F18A83C7818A63F4AD
:10743000F6002384018A834707003744014005464C
:10744000FD1793F7F70F930550521305048023009F
:10745000F700EFC06FEC03C7040085476316F70021
:10746000054422856FB06FCE054693054042130553
:107470000480EFC06FEAEDB7374901400546930538
:10748000505213050980EFC02FE903C70400854758
:10749000E309F7FC05469305404213050980EFC058
:1074A000AFE7C1B7EFB22FC74111AA8A2E8A9384E2
:1074B000018B89499305B1006800EFF01FF01DC5ED
:1074C00083C704006387370383C70400E5F70344D9
:1074D000B100B24556852286EFB08FC89305B10042
:1074E00023008A006800EFF05FED79F941016FB089
:1074F000CFC50349B100E30F09FA3244229903458D
:1075000004000504EFC08FFBE31B24FF65B759BFE0
:10751000EFB20FC201118545116502C002C202C45B
:1075200002C602C802CA02CC231E0100EFC00F9897
:1075300085452145EFC0AF953714014061498D4421
:107540008A85130504C085672310F1004AC426C24A
:10755000EFB07FB78A85130504C089672310F10057
:107560004AC426C2EFB03FB691678A85130504C0AE
:107570002310F10091473EC4EFB0FFB4E1778A8554
:10758000130504C02310F100374400404AC426C24A
:10759000EFB07FB3130504808545EFC0AF9CB707FC
:1075A00004013EC6930700026C00130504803ECC24
:1075B0009D47231EF10002C802CAEFC00F911305B8
:1075C000048005468945EFC04F98130504800546A1
:1075D0008545EFC08F97854513050480EFC0CF9494
:1075E00005616FB02FB7EFB20FB379712A84AE89FE
:1075F000054585453289B68402C202C402C602C866
:1076000002CA02CC02CE02D002D202D402D6EFC00D
:107610002F862285EFB09F85C1473EC6930700089D
:107620004C003ECC228585674EC24AC426C83ED453
:1076300002CA02CE02D002D202D6EFB03F8E45611E
:107640006FB0AFB0EFB22FAD79712A84AE89054526
:1076500085453289B68402C202C402C602C802CA83
:1076600002CC02CE02D002D202D402D6EFC04F80AA
:107670002285EFB0AFFF930700083ECC93070010C0
:107680003ECE930700404C003ED0228585674EC217
:107690004AC426C83ED402C602CA02D202D6EFB0FD
:1076A000FF8745616FB06FAAEFB2EFA679712A84A8
:1076B000AE89054585453289B68402C202C402C638
:1076C00002C802CA02CC02CE02D002D202D402D632
:1076D000EFB01FFA2285EFB06FF9930700084C0056
:1076E0003ECC228585674EC24AC426C83ED402C617
:1076F00002CA02CE02D002D202D6EFB03F8245616A
:107700006FB0AFA4EFB2CFA21387818C1C43854624
:107710006388D7008946638ED70EC5CF6FB08FA31D
:1077200037050200EFB03F856307051C37050200EF
:10773000EFB05F850965EFB0FF84374500408145B4
:1077400013050580EFB05FFE1385018C03484500EB
:107750002A879385318C9307F00F173600001306A4
:10776000A633834617000507B58FB29783C7070076
:10777000E319B7FE93C7F7FF93F7F70F6303F81802
:1077800037040240130584058145EFB02FFD130532
:1077900084059945EFB0EFFD130584058545EFB0ED
:1077A000EFFB130544048145EFB04FFB1305440480
:1077B0009945EFB00FFC130544048545EFB00FFA6F
:1077C00037450040854513050580EFB0FFF56FB0E4
:1077D0006F989386018C83C7160083C5260003C665
:1077E000360083C64600CD8FD18FD58F1386D182C8
:1077F00083460600638407129387F6FF93F7F70F1B
:107800002300F600C5EF85471CC3A38601826FB035
:107810006F940945EFB02FF6E30205F00945EFB08C
:107820006FF697A7FF1F9387A76017A6FF1F130682
:107830002668014783D6070089073697E31CF6FEC2
:10784000198393170701C1878395618C3386B7002D
:107850008146634E060081CF05659306F5FF6358A8
:10786000A6006386D7002E9793160701C1829387DF
:10787000E18B2390D70003D707003704024013059C
:1078800084001347F7FF420741832390E70003D7A3
:10789000070081451207420741832390E700EFB0BC
:1078A000EFEB1305840093058004EFB08FEC854562
:1078B00013058400EFB08FEA6FB0CF89C146E3FFB4
:1078C000F6E43745004089471305058081451CC310
:1078D00037040240A3860182EFB01FE5130584053B
:1078E0008145EFB0AFE7814513054404EFB00FE7E2
:1078F000EF90C06D25B50965EFB0EFE7E31805E23D
:1079000031BD8347250003471500A207D98F139780
:107910008700A183D98F239FF18A9DB59387160095
:1079200093F7F70FF1BD03D5E18B82809385C18B6F
:1079300083D7050003D7E18B93160701D98E63F532
:10794000E712B307F74093A7171093C71700639286
:10795000070E1388418B834708009388818B17A5F6
:10796000FF1F1305E54A93961700369503A60800F6
:1079700003530500938617003A96330666409357E3
:1079800036009D8A23A0C8001386218B2310E500B2
:107990002300D800139707018356060041832390E4
:1079A000E500BA87637CD70AB387F64093A717042C
:1079B00093C7170081C72310E600BA8683A7818189
:1079C00083D7470021674165BE96C206E177C18231
:1079D000BE9693971600B697BA9703C7C18263DB2A
:1079E000A70813950701418163CE070215EF13869F
:1079F000A1828357060063F3A70A3307F5404207C5
:107A00004183AA86A145368563FBE5009305000402
:107A100063E5E506B6978583139507014181231039
:107A2000D60082802DC701452395A182238601823D
:107A3000828097A7FF1F9387A73D1316370094C333
:107A4000D4C394C7D4C723ACC18A1386218B835671
:107A500006002390E500BA87E368D7F4958F93A7D3
:107A6000170493C71700B9B7998F93A7171093C737
:107A70001700F1BD7D1525DF45BF13953600158D27
:107A80003E950D81420541812310D60082801386E8
:107A9000A1828357060081463E87ADB73387A74052
:107AA00042074183AA86B9BF03D7E18BE177998F5B
:107AB00003A781812312F7008280411122C6371467
:107AC0000040854513050480EFB0FFF009E532441E
:107AD000410173002030130504808545EFB07FF12C
:107AE0001387C18C1C43324485071CC341017300BA
:107AF00020302A8817A7FF1F1307073C81474146FC
:107B00001443410799C68507E39CC7FE1305F00F90
:107B100082809396470017A7FF1F13076739369790
:107B200013F5F70F85474CC3232007002306F70002
:107B30002324070182802A8817A7FF1F1307C7374E
:107B4000814741461443410799C68507E39CC7FE18
:107B50001305F00F82809396470017A7FF1F1307A6
:107B60002735369713F5F70F4CC32320070023065C
:107B70000700232407018280BD4763EEA70012059A
:107B800097A7FF1F9387C732AA9723A4070023A2B2
:107B9000070023A007008280BD4763EEA7001205FF
:107BA00097A7FF1F9387C730AA9723A4070023A294
:107BB000070023A007008280EFA29FD73714004060
:107BC0001305048001468545EFB05FC713050480A7
:107BD0000546854503A9C18C17A4FF1F1304442D36
:107BE00023A6018C97A4FF1F9384843CEFB01FC58C
:107BF00029A082964104630794021444E5DE1C40E8
:107C00005840CA971CC03386E740E3E5E7FE834748
:107C1000C40010C0F9FF2324040023220400232001
:107C20000400C1BF6FA01FD3F9572387F18283A738
:107C3000418D91C382878280EFA29FCF138481817F
:107C40001C409C438DC79384E18203C504009307C5
:107C5000E00F6300F502EFF03FF41C401705000051
:107C60001305C5FC8C43EFF01FED2380A4006FA02B
:107C70007FCE83A7018D91C38297FD572380F400A7
:107C80001305F00FC9BF9387418D984301E788C35F
:107C9000014582801305F00F82809387018D984300
:107CA00001E788C3014582801305F00F828083A716
:107CB000818103C7770011C703C767008D4763033E
:107CC000F7008280EFA2DFC60545EFD07FB8854779
:107CD000630DF50C8146014685450545EFD05FD71C
:107CE0000945EFD0FFB685476301F510814605468B
:107CF00081450D45EFD0DFD50D45EFD07FB58547E8
:107D00008546630EF50C014681451545EFD05FD4DD
:107D10001145EFD0FFB39306F00F35E91306F00FCE
:107D20009305F00FEFD0BFD21945EFD07FB2854752
:107D30006300F50A8146014685450145EFD05FD1D4
:107D40001D45EFD0FFB08547630DF506814605461A
:107D500081450945EFD0DFCF2145EFD07FAF854783
:107D60008546630AF504014681451145EFD05FCE93
:107D70002545EFD0FFAD9306F00F0DE11306F00F90
:107D80009305F00F0545EFD09FCC6FA0BFBC014617
:107D90009305F00F0145EFD09FCB79B701469305CE
:107DA000F00F0545EFD0BFCACDB7854605468545DE
:107DB000EFD01FCA35B7054685451145EFD05FC9DD
:107DC00045BF8546054685450945EFD07FC869B75B
:107DD0008546054685450145EFD09FC795B70546C1
:107DE00085451545EFD0DFC625B78546054685454F
:107DF0000D45EFD0FFC509B7EFA29FB3EF90203537
:107E0000EF90804413050040EFB0CFF50545EF80BB
:107E10008021EF80E01E13052003EFA0DFBCEFC040
:107E20003FAEEF90004BEF902052EF90102229458B
:107E3000EFA07FBBEF904030EF902030EF90800CB0
:107E4000EF80802FEF80801EEFE06F91EF80E03BAE
:107E5000D14517E5FFFF1305E5B8EFF09FC985454C
:107E600017D5FFFF1305E57FEFF0BFC8954517D580
:107E7000FFFF1305C584EFF0DFC7F94517E5FFFFE6
:107E80001305E568EFF0FFC6EFF01FD3F5BF370528
:107E90000400EFB0CF9673002030092E730020301D
:107EA0008D4723AAF18E828097A7FF1F83C7E71211
:107EB00089C7954723AAF18E8280854723AAF18E30
:107EC0008280EFA2FFA6AA842E8411458545EFB0DB
:107ED0000FFCB1CC37660040032706C4C166F51617
:107EE000758FB71701402320E6C403A74780B71654
:107EF000F0FFFD16758F23A2E78003A7C780F976F0
:107F00009386F67F758F23A6E78003A74780B74641
:107F10000400558F23A2E78037470240832707805C
:107F200039CC93E727002320F7806FA0BFA2B76664
:107F3000004003A706C4B717014013672700420794
:107F4000418323A0E6C403A74780B716F0FFFD16C0
:107F5000758F23A2E78003A7C780F9769386F67F03
:107F6000758F23A6E78003A74780B7360300558F98
:107F700023A2E78037470240832707805DF0F59B07
:107F80002320F7806FA01F9D8280EFA27F9A9385A8
:107F9000415D0545EF101062930700046307F5008B
:107FA0000545EF10903A6FA0FF9AEFD00FAE054550
:107FB000EF10B0396FA01F9A8280EFA27F97938550
:107FC00001501145EF10105F930700046307F5009F
:107FD0001145EF1090376FA0FF97EFC0BFD6114546
:107FE000EF10B0366FA01F97EFA29F9413844193B8
:107FF0004C440945EF10105CAA87896509452305A3
:10800000F40023080400EF10702D6FA0BF94EFA2BE
:108010003F92B767004083A707C53737002049075D
:10802000C207C183BA9786079C431307000293F7E0
:10803000F73F639DE7009387419303C7970019E7D4
:1080400003C7570083C747006309F7009305000281
:108050000945EF1030246FA0FF8F014681451305BD
:108060002008EF105052C5BFEFA29F8C138481915E
:108070004C440D45EF101054AA8789650D45230522
:10808000F40023080400EF1070256FA0BF8CEFA24E
:108090003F8AB767004083A707C5373700206907C5
:1080A000C207C183BA9786079C431307000293F760
:1080B000F73F639DE7009387819103C7970019E716
:1080C00003C7570083C747006309F7009305000201
:1080D0000D45EF10301C6FA0FF8701468145130549
:1080E0003008EF10504AC5BFEFA29F840D47AE8401
:1080F0003284630DE506636CA7020547630FE50450
:1081000009476312E506EF10102393070003630C81
:10811000F504A685228613052008EF10D0460945F0
:1081200093050003EF10101701456FA0BF821147A0
:10813000631BE502EF103020930700036305F5028F
:10814000A685228613054008EF10F04311459305DC
:108150000003EF1030140145C9BFEF10D01D930785
:1081600000036318F50205456FA0CFFEEF10B01CA9
:1081700093070003E309F5FEA68522861305300860
:10818000EF1070400D4593050003EF10B01001454E
:1081900069BFA685228613051008EF10D03E05455D
:1081A00093050003EF10100F014541B7EFA24FF800
:1081B00037650040832705C541679305F7FFB7364C
:1081C0000020ED8F9906B69786079C43130707C0DA
:1081D00003D6418EF98F0111638CC700832705C533
:1081E000137606C0ED8FB69786079843518F98C3D4
:1081F000B766004003A746C49384419083D7040028
:108200002391E18E03D7218E7D8F1377072013846E
:10821000218E19CB41671307F7DF23A2E6C403C7FA
:10822000018E05072380E18E035704007D8F4207EE
:10823000418763440718035704007D8F1377074075
:1082400019CFC167376700409387F7BF2322F7C470
:108250009787FF1F83A707FE829783D704000357E2
:10826000040089667D8F758F19C73967B76600402E
:108270007D1723A2E6C40357040085667D8F758FA2
:1082800063120712035704007D8F2D83058B05C3EE
:1082900083A78184A1EB0945EF00C076BD67938772
:1082A000F77F376700402322F7C483D704000357C2
:1082B0000400F98F93F707109DC3C166B7670040AC
:1082C0001387F6EF23A2E7C403A787C41316070199
:1082D000634C060023AE018C1D45EF00A0720561C2
