:042800006F60902B4A
:102804000028000000000000DE3B0000E23B000066
:1028140000000000B692000000000000000000006C
:10282400B6920000B6920000000000000000000014
:10283400B692000000000000B69200000000000004
:10284400B6920000B6920000B6920000B692000064
:10285400B6920000B6920000B6920000B692000054
:10286400B6920000B6920000B6920000B692000044
:10287400B6920000B6920000B6920000B692000034
:10288400B6920000B6920000B6920000B692000024
:10289400F6710000B6920000B6920000B6920000F5
:1028A400B6920000B6920000B6920000B692000004
:1028B400B6920000B69200005A6E0000B692000074
:1028C400B6920000B6920000B6920000B6920000E4
:1028D400B6920000EE670000B6920000B6920000C7
:1028E400B6920000B6920000EA710000B6920000B1
:0C28F400B6920000B6920000B692000000
:10290000397101436EC619A0397141536AC866CA4C
:1029100062CC5ECE19A0397101535AD056D252D42E
:102920004ED64AD826DA22DC06DE330161408282A6
:1029300041114AC026C222C406C68282B24D41015C
:10294000024D924C224CB24B4101024B924A224A18
:10295000B2494101024992442244B240410182807D
:102960003D432A876373C3029377F700BDEFADE55C
:10297000937606FF3D8ABA960CC34CC30CC74CC76E
:102980004107E36BD7FE11E28280B306C3408A069B
:102990009702000096966780A6002307B700A3065B
:1029A000B7002306B700A305B7002305B700A304AB
:1029B000B7002304B700A303B7002303B700A302A3
:1029C000B7002302B700A301B7002301B700A3009B
:1029D000B7002300B700828093F5F50F939685002A
:1029E000D58D93960501D58D61B7939627009702F3
:1029F000000096968682E78086FA9680C1171D8F22
:102A00003E96E374C3F8A5B7B7F700E0CC43814620
:102A100037F700E0F999CCC383C521853386A50239
:102A200090CBD4CB944393E6060194C3944393E6AE
:102A3000160294C35C43858BF5DF1C43F99B1CC3D2
:102A40008280B7F700E0CC43814637F700E0F99980
:102A5000CCC383D501853386A50290CBD4CB9443D8
:102A600093E6060194C3944393E6160294C35C4331
:102A7000858BF5DF1C43F99B1CC382809C4103A816
:102A80008501D04DD4415841B3E70701D18F3706B6
:102A9000F1E0A2061306F6EF718FD58FD98F5CC1D6
:102AA000D0459C4994451845D18F37F6F1FF8606ED
:102AB0001306D67F718FD58FD98F1CC583C745016B
:102AC0005855B70610FFFD1793F7F70FFD16758FD2
:102AD000D207D98F5CD582801C4589C593E7170042
:102AE0001CC58280F99B1CC582801C4589C593E763
:102AF00007101CC5828093F7F7EF1CC582801C4528
:102B000093E787001CC5828008450D810589828076
:102B10001C4593E747001CC582800845098105894B
:102B200082801C4591C537075000D98F1CC5828013
:102B30003707B0FF7D17F98F1CC58280A54763F763
:102B4000B704138865FF131718008328C500429740
:102B50009D47B397E70093C7F7FFB3F71701B39605
:102B6000E600DD8E54C5994763E5C7047D169317CB
:102B700026003E965859FD47B397C70093C7F7FF05
:102B8000F98F3396C5005D8E50D98280139715005A
:102B9000032805012E979D47B397E70093C7F7FFDA
:102BA000B3F70701B396E600DD8E14C99947E3FF3A
:102BB000C7FAB14763E3C702130796FF131627004E
:102BC00014593A96FD47B397C70093C7F7FFF58F9F
:102BD0003396C5005D8E10D982804D1613172600DE
:102BE00054553A96FD47B397C70093C7F7FFF58F43
:102BF000B395C500DD8D4CD582805C4191C537070A
:102C00000004D98F5CC18280370700FC7D17F98FE3
:102C10005CC18280011123030100834761002547C5
:102C20006364F70425461C4593E787001CC51C45D3
:102C3000A18BF5FF1C4593E747001CC51C45918BF4
:102C4000F5FF744583476100034761000C10860758
:102C500005071377F70F2303E10003476100AE97E1
:102C60002396D7FEE371E6FC23030100834761004E
:102C700025476361F70A2146A545A3030100834761
:102C80007100636EF60603477100834771001410EC
:102C90000607850786073697B6970357C7FE83D77B
:102CA000C7FE63F3E7048347710008108607B697F1
:102CB00083D7C7FE2314F1000347710083467100D8
:102CC00083477100050706072A970358C7FE035577
:102CD0008100139716008507141036978607231670
:102CE00007FFB6972396A7FE83477100850793F7E2
:102CF000F70FA303F10083477100E376F6F88347EB
:102D00006100850793F7F70F2303F1008347610004
:102D1000E3F5F5F623140100231501002303010058
:102D20008347610015476366F70683476100141007
:102D30001307006089078607B69783D7C7FE636AC3
:102D4000F70495461306006019A883476100181020
:102D500089078607BA9783D7C7FE636CF602834755
:102D600061000C100357810089078607AE9783D74F
:102D7000C7FEBA97C207C1832314F10083476100DD
:102D8000850793F7F70F2303F10083476100E3FE04
:102D9000F6FA8347610093F7F70F6387071003572D
:102DA00081008345610083578100034661008346AB
:102DB00061003347B702B3E7C7028607B3C7D7023C
:102DC000BA97C207C1832314F100034761009947F2
:102DD000998F93F7F70FA303F1008347710093F7DF
:102DE000F70FE5C7834761001547636DF702954606
:102DF0008347610010100357A10089078607B29727
:102E000083D7C7FEBA97C207C1832315F100834752
:102E10006100850793F7F70F2303F10083476100F3
:102E2000E3F8F6FC0357A100834571008357A10026
:102E300003467100834671003347B702B3E7C70208
:102E40008607B3C7D702BA97C207C1832315F1001B
:102E5000035581008355A100835781000356A100CB
:102E600085661307004093860680B307F7403386D4
:102E7000C640098F8D8EC20742064186C187420730
:102E8000C206B297C1864187369713D6F70193568B
:102E9000F701B2973697858B0587918FBA9713956F
:102EA0000701418505618280930700402314F100EA
:102EB000034761009947998F93F7F70FA303F10038
:102EC0008347710093F7F70F91FF8567938707801A
:102ED0002315F100B5BF1C4141677917F98F1CC15B
:102EE000232005002322050023240500B707024004
:102EF00023260500138787006304E5041387C701B1
:102F0000630BE502138707036307E5041387470490
:102F1000630AE504138787056309E5021387C7067B
:102F20006307E504138707086309E5041387470966
:102F30006308E5008280D8431367070FD8C38280F7
:102F4000D8431367F700D8C38280D843B7060F0071
:102F5000558FD8C38280D8438566938606F0558FF7
:102F6000D8C38280D843BD66558FD8C38280D843EA
:102F7000B706F000558FD8C38280D843B706000F3C
:102F8000558FD8C3828090519C459449D84983A8D5
:102F90008501D18FD58FD04DD451D98FB3E717018B
:102FA000184103A88502D18FD58FE176BD06D045A3
:102FB000758FB3E707019441D98F1CC1DC4150C123
:102FC00014C55CC582801C4189C593E717001CC1EC
:102FD000828041677917F98F1CC182804CC1828041
:102FE000B70702409C437D8D3335A0008280B70730
:102FF0000240C8C3828058410C410328C500B7066F
:103000000140938706403E9713C6F5FF630108040D
:1030100083A80640032885004143B3F8C80023A0D5
:103020001641D443758ED0C31443D58D0CC31841BB
:1030300090479346F7FF758E90C7D047F18ED4C75F
:10304000630B6800C2979443558F98C382801C43DA
:103050007D8E10C382809447D98E94C7D447558FF4
:10306000D8C78280B707014023AAA7408280B7064D
:103070006745B7270240938636123797EFCDD4C302
:103080001307B79AD8C3D4D3D8D382803727024046
:103090001C4BA166D58F1CCB8280B7270240984B72
:1030A000B7060200137505F0558F98CBC8CB944B2B
:1030B0003727024093E6060494CB5C47858BF5FFE7
:1030C0001C4B8176FD16F58F1CCB82803727024082
:1030D0001C4BC166137505F0D58F1CCB5C47858BE7
:1030E000F5FF372702405C47898BF5FFAE86158DCB
:1030F00093850510372702409042B387A6009106BA
:1031000090C35C47898BF5FFE398D5FE1C4B3706CF
:103110002000B7260240D18F1CCBDC46858BF5FF03
:103120009C4A41777D17F98F9CCA828003A885004D
:10313000937708011373F80081C7DC413363F30010
:10314000B7270240985BB707000FF98FE9E785477B
:10315000A389F184B71701406306F50C83D60500F7
:1031600093F7F60FADE39307F00F63FDD7048328C1
:103170004500A147854EBD4F130F80029302800486
:10318000414E21A08507638DC7033397FE00B375B9
:10319000D700E319B7FE139627000116B395CF00A9
:1031A00093C5F5FFB3F815013316C300B3681601D4
:1031B0006303E809E31858FC18C98507E397C7FDBE
:1031C0002322150182800C418147854EBD4F130F8C
:1031D000800293028004214E21A08507638BC703E0
:1031E0003397FE003376D700E319C7FE1396270006
:1031F000B398CF0093C8F8FFB3F5B8003316C300F7
:10320000D18D6308E803E31A58FC18C98507E399D0
:10321000C7FD0CC189BFB7170140E311F5F483C79F
:1032200031858DDF83D60500B5822390D500C1FEA0
:10323000828058C95DB758C9B1B7B7170140630755
:10324000F50008456D8D3335A000828083C7318538
:10325000EDDB0845B5816D8D3335A0008280B71751
:1032600001406304F5000CC9828083C73185E5DF26
:10327000B5810CC98280B71701406304F5004CC9C1
:10328000828083C73185E5DFB5814CC98280EFF24A
:103290002FEA01112A848354450068002E893D26B7
:1032A000D246B7470F0093870724B3D7F602C2046C
:1032B000C18093F404FCC204C18003260900616547
:1032C0001305056A93950701C181CD8C23129400E3
:1032D0000357040042074183799B4207418323102F
:1032E000E4006365C5060606B3D6C6021147C206EA
:1032F000C182B68763EAE6048505C205C18193965B
:103300000701C1822310B402231ED4000357040016
:10331000835649008355A900136717002310E40062
:10332000835704000357C90003568900C207C183AD
:10333000CD8E93F757BFD58F2310F400518F2314F0
:10334000E40005616FF00FE191477DB78355690097
:1033500031677D176382E5041317160032970E0755
:103360003A96B3D6C6021167C206C182D98E1397A8
:10337000460119E393E616001307C012B387E7026C
:103380002167D98E1307803EB3C7E7028507C207BE
:10339000C1832310F4028DBF131716003A96B3D6DB
:1033A000C602C206C182E1B78357050091C593E703
:1033B00017002310F5008280C207C183F99BC20762
:1033C000C1832310F50082808357050091C593E7E0
:1033D00007102310F5008280C207C18393F7F7EF2F
:1033E000C207C1832310F50082808357050091C571
:1033F00093E707202310F5008280C207C18393F76B
:10340000F7DFC207C1832310F500828083570500D0
:1034100091C593E707402310F5008280C207C1835E
:1034200093F7F7BFC207C1832310F50082802318EA
:10343000B500828093F7E50F19C293E71500C20724
:10344000C1832318F5008280035745018357850106
:1034500013950701598D6D8D220521810D8D133531
:1034600015008280411102C402C693D7C5012AC645
:103470003EC4A247A205A18199CBB247D1073EC65F
:10348000B247884341016D8D3335A0008280B24739
:10349000C181E1073EC6B247884341016D8D333596
:1034A000A00082809387418598438346050031E3DD
:1034B0008347250037E700E09207369793F7F70F29
:1034C0002300F7405041054793D756003317D700E4
:1034D00009CA938707048A07B7E600E0B69798C33E
:1034E0008280938707068A07B7E600E0B69798C3FD
:1034F000828098430546630BC7028C430947638665
:10350000E50498430D466309C70098439147E31BC0
:10351000F7FA8347150079BF034615008347250056
:10352000636CC7040606B297920701A8834725007B
:103530000346150092076307E60237E700E093F7BA
:10354000F70F36972300F740B5BF034715008347B1
:1035500025006378E6021307E7030A07BA9793F793
:10356000F70F920793E707F837E700E093F7F70FB5
:1035700036972300F740B9B71306C6070606B29779
:10358000F9BF0A07BA9792074DBFB7160240DC424F
:1035900071771307F77FF98F0E055D8DC8C28280A2
:1035A000B7170240D843B70640FFFD16758FD8C342
:1035B000D8435A05598DC8C38280B7160240DC42F1
:1035C00051777D17F98F5D8DC8C282803717024011
:1035D0005C439146B18B6385D700A1466386D706CD
:1035E000B7177A00938707201CC13716024058424C
:1035F00097D6FF1F938606A111833D8B369703470D
:103600000700B3D7E7005CC1584221831D8B369772
:103610000347070033D7E70018C558422D831D8B99
:10362000BA9603C7060097D6FF1F9386A6C0B3D7E6
:10363000E7005CC5584239830D8B36970347070076
:10364000B3D7E7021CC982805C4358434166C983F3
:10365000BD8B8907C546718F6380D70419EF374743
:10366000024003270780418B05C337177A001307F1
:103670000720B387E7021CC18DBF371702405843AC
:103680009316E700E3D306FE37173D0013070790B4
:10369000B387E7021CC191BFC94765F3C9B799C594
:1036A000371702405C4B5D8D48CB8280B7170240D4
:1036B000D84B1345F5FF798DC8CB828099C5371754
:1036C00002401C4F5D8D08CF8280B7170240984F93
:1036D0001345F5FF798D88CF828099C53717024051
:1036E0005C4F5D8D48CF8280B7170240D84F13459D
:1036F000F5FF798DC8CF828003D6250083D70500DA
:1037000003D7450083D6650083D88500D18F03D8C1
:10371000A500D98FD58F03D7C500B3E7170103568E
:10372000050083D6E500B3E70701D98F0D671307BE
:103730000704718FD58FD98F2310F5008356C501EB
:10374000FD7703D705019387F77FF58F231EF500DB
:103750002318E50082808357050091C593E707048D
:103760002310F5008280C207C18393F7F7FBC207DD
:10377000C1832310F50082808357450009C6DD8D83
:103780002312B500828093C5F5FFFD8D2312B5008D
:1037900082808357450091C593E747002312F500C7
:1037A0008280C207C183ED9BC207C1832312F5004B
:1037B000828083570500B7360140938606C0C20752
:1037C000C18303D6650083D8450003D8050063068E
:1037D000D504370700406300E50213070740630C78
:1037E000E50037170040930607806306D5001307EE
:1037F00007C06317E50003D7250093F7F7F8D98FC3
:1038000093F7F7CFD18F2310F50023161503231458
:1038100005038547231AF500828003D7250093F717
:10382000F7F85D8F1377F7CF518F2310E50023163C
:1038300015032314050383C785002318F502854764
:10384000231AF50082808357050091C593E717007E
:103850002310F5008280C207C183F99BC207C18390
:103860002310F50082808357C50009C6DD8D23161D
:10387000B500828093C5F5FFFD8D2316B5008280CB
:10388000EFF20F8BCD376FF0EF8C83578500C207B7
:10389000C183E19BC207C1832314F50082802314F6
:1038A000B502231AC500828083570500C207C18371
:1038B00093F7F7F8DD8D2310B500828083578501DB
:1038C000C207C183DD9BDD8D231CB5008280835739
:1038D000C501C207C183DD9BDD8D231EB50082803B
:1038E0000357C501FD779387F77FF98FA205CD8F29
:1038F000C207C183231EF500828083570502C207D9
:10390000C183F59BDD8D2310B502828083570502AC
:10391000A205C207C18393F7F7DFCD8FC207C1832A
:103920002310F502828003570502F977FD17F98FFE
:10393000B205CD8FC207C1832310F50282800357E1
:1039400005028547B397B70093C7F7FFF98F231098
:10395000F50283570502B315B600DD8DC205C1819E
:103960002310B5028280035705028547B397B7003D
:1039700093C7F7FFF98F2310F50293F775FF6105E1
:1039800095C3F115C205C1818581AA959C416577D2
:103990007D17F98F9CC19C412206420641825D8EB3
:1039A00090C182808581AA959C4193F7F7F89CC1CC
:1039B0009C415D8E90C182802316B5028280231ABD
:1039C000B5028280231EB50282802310B504828056
:1039D00083570500C207C18393F7F7CFC207C1839E
:1039E0002310F50083570500DD8D2310B50082807C
:1039F000835705010355C500ED8F4205418189C7F5
:103A00006D8D3335A00082800145828093C5F5FF1E
:103A1000C205C1812318B5008280EFE27FF1835691
:103A2000050103D76500F577FD17F58FD98F03D70B
:103A3000C5002318F5002A840355C500AE84FD7720
:103A400083D5450003D684009387379F83D6A4008F
:103A5000E98FCD8FD18FD58F2316F4008357440182
:103A600001116800C207C18393F7F7CFD98F231ADA
:103A7000F400A93EB747014093870780630DF4081F
:103A800052478356C40093171700BA97C2068E0791
:103A9000C186BA97984063C006040A07B3D7E70205
:103AA000130740060356C40042064186B3D6E70218
:103AB000B3F7E70292066340060492079387270351
:103AC000B3D7E702BD8BD58FC207C1832314F4009F
:103AD00005616FE03FE80607B3D7E702130740062A
:103AE0000356C40042064186B3D6E702B3F7E702A5
:103AF0009206E35406FC8E0793872703B3D7E702A9
:103B000013F77700B367D700C207C1832314F4000B
:103B100005616FE03FE46247ADB781C98357C500D7
:103B20000967D98F2316F50082800357C500F977FE
:103B3000FD17F98F2316F500828093F7F50F0547DF
:103B40009583B315B7006385E702894613074501DE
:103B50006387D7001C4301CADD8D0CC38280130725
:103B600005011C4375FA93C5F5FFFD8D0CC38280DA
:103B70001307C500C5B793F5F51F2312B500828062
:103B8000035545001375F51F8280035505006D8DA3
:103B90003335A000828093F7F50F854695833397E0
:103BA000B600638AD70289466383D70283574501EB
:103BB0007D8F835705000145C207C18301CB0545B1
:103BC000A181B315B500ED8F3335F00082808357A6
:103BD00005017D8FF9BF8357C5007D8FD9BF730065
:103BE000203001A09387418C984395476303F700E9
:103BF0008280EFE2FFD32A8403457500EF50803FB7
:103C0000930700026304F5006FE0DFD4834554009E
:103C1000834744006383F50663F4B700930700F815
:103C2000834484008D8F93F7F70F63F39700BE846E
:103C300083461400034604000347240083473400EE
:103C4000A206D18E4207558FE207D98F2686BE95F0
:103C5000138581C5EF50E06E8347540026860345E7
:103C60007400BE9493F4F407A3029400938581C575
:103C7000EF309001A304040041BF034794004DF3CB
:103C800061B78346150003480500034725008347B5
:103C9000350003464500A206B3E606014207558FEC
:103CA000E207D98F130716002302E500B29723809D
:103CB000B700834745001397870161876355070065
:103CC000230205008147034755006303F700828004
:103CD000EFE21FC685472A84A304F5002285193721
:103CE00083479400E5FF6FE0FFC6EFE2DFC2138772
:103CF00001A61C4B03444701138981BFA18313060E
:103D00000004814562044A855D8CEFE07FC503486D
:103D1000140085460156238D01BF03472400238EDE
:103D2000D1BE238FD1BE83474400238CC1BEA38C58
:103D3000E1BEA38EF1BE130620086382C71E637323
:103D4000F6141306100F638EC716637EF60A130669
:103D5000200F6380C72C1306300F639EC712A38FFA
:103D6000D1BE2380D1C00D46994636974297BA9767
:103D70008907A38DD1BE93F7F70F01478146CA96F5
:103D800083C6760005071377F70FB69793F7F70FFB
:103D9000BA86E346C7FE9305000E4A96138501A630
:103DA000A303F6000544F13D938901A6854421A8AB
:103DB000BA85C13D050483C7B1BF1374F40F9107E1
:103DC000A28463CE8702CA9403C704004E8593057C
:103DD000000D9307070393F7F70EF9FB5D3583C5D5
:103DE00004004E850504FD1593F5F50F593D83C775
:103DF000B1BF1374F40F9107A284E3D687FCEF30B0
:103E000020266FE09FB49306000F6396D70897565D
:103E100000009386666603C6660003C5460083C538
:103E2000560083CE060003CE160003C3260083C8C7
:103E3000360083C67600A381A1C02382B1C0A382CD
:103E4000C1C02383D1C0A946A383D1C0B7363130C6
:103E50009386667323A4D1C0930610042386D1C031
:103E6000FD56A386D1C0930600FA2387D1C0A38F45
:103E7000D1BF2380C1C1A38061C0238111C141464C
:103E8000CD46E5B5C5466381D704D1466389D704DD
:103E9000C146638DD704FD56238ED1BE9305000E17
:103EA00005469306F00F130537003307A800BA96AE
:103EB000B697B2970D47A38DE1BE93F7F70F014672
:103EC000E9BD0D46994655B58345540009469546CA
:103ED000A38FB1BE834564002380B1C079B583450B
:103EE000540005469146A38FB1BE41B581460146B7
:103EF00081450545EF10203D81460146814501453C
:103F0000EF10603C03C791BF03C8A1BF83C6C1BF08
:103F100083C7D1BF03C6E1BF83C581BF69B703476C
:103F20007400834664000346540081450545EF1044
:103F3000C037034774008346640003465400854538
:103F40000545EF108036034774008346640003463E
:103F5000540089450545EF1040350347A4008346CA
:103F60009400034684008D450545EF100034034757
:103F7000A400834694000346840091450545EF1054
:103F8000C0320347A400834694000346840095454D
:103F90000545EF1080310347B40B8346A40B03465D
:103FA000940B81450145EF1040300347B40B834625
:103FB000A40B0346940B85450145EF10002F0347E2
:103FC000B40B8346A40B0346940B89450145EF10BF
:103FD000C02D0347840B8346740B0346640B8D4549
:103FE0000145EF10802C0347840B8346740B034676
:103FF000640B91450145EF10402B0347840B83462A
:10400000740B0346640B95450145EF10002A6FE0E1
:10401000DF939306A0FAA38FD1BE930630052380C9
:10402000D1C00946954691B38547238CF18482809F
:10403000EFE27F8E17D6FF1F03469630930566008A
:1040400093F5F50F238C018497D7FF1F2388B72E94
:1040500017D9FF1F1309892EC1C915061376F60F4C
:104060004A874A96AE86814721A0834617000507F6
:10407000B69793F7F70FE31AE6FE3307B9001385F7
:1040800081A49305000E2300F7000144DD3E9389CF
:1040900081A421A8BA85F53605041374F40F97D7C7
:1040A000FF1F83C7A72963EF8702B304890003C7F3
:1040B00004004E859305000D9307070393F7F70E51
:1040C000F1FBC13683C504004E850504FD1593F54B
:1040D000F50F453E1374F40F97D7FF1F83C70726CC
:1040E000E3F587FC6FE07F86814741BFEFE25F84A5
:1040F000138781A41C4B0344470113060008A183C6
:10410000814562041385819A5D8CEFE07F851306FB
:10411000C007814517D5FF1F13058522EFE05F8497
:1041200097D7FF1F9387871D83C6270003C61700F5
:1041300003C737008347340097D5FF1FA380C520EE
:1041400017D6FF1F230DD61E97D6FF1FA389E61E85
:10415000194797D6FF1F2383E61E130720056384A4
:10416000E724637CF70A130720066388E726637455
:10417000F704130710086388E7246377F70213072F
:10418000000F6388E7101306000897D5FF1F93857B
:10419000E51A1385819AEF50C01A8547238CF18464
:1041A000EF20106C6FE00FFB13071007E39DE7FC97
:1041B000EF10B03DF5B713075005638BE7241307E5
:1041C00010066386E72613074005E39EE7FA0347D8
:1041D00094000343540083486400034874008346FA
:1041E00084008347A4001306000897D5FF1F93851A
:1041F000E5141385819AA383D18623826186238463
:10420000E186A3821187A384F18623830187EF507F
:1042100040138547238CF18461B713071004638C26
:10422000E722636BF704130720036384E706130791
:1042300000046385E71813070003E396E7F4930788
:1042400040F9054417D7FF1F230DF70E97D7FF1F1F
:10425000A388870E9D471306000897D5FF1F9385F7
:10426000E50D1385819A17D7FF1F2309F70CEF502F
:10427000400D238C81842DB7130700056380E70C64
:104280006364F71013072004E39FE7EEEF20601547
:1042900001BF975700009387671D03C7770083C648
:1042A000670003CF070083CE170003CE270003C3A8
:1042B000370083C8470003C8570083C7870017D457
:1042C000FF1F2303D40897D6FF1FA38FE60617D737
:1042D000FF1F230CF706A5471306000897D5FF1FFD
:1042E0009385C50517D7FF1FA30CF7041385819A83
:1042F000BD4717D4FF1F2306E40517D4FF1FA302F1
:10430000D40517D4FF1F230FC40317D4FF1FA30B1B
:10431000640217D4FF1F2308140317D4FF1FA3043C
:10432000040317D7FF1F230BF700EF5080018547C9
:10433000238CF184EF20D0526FE0CFE1034794004B
:104340000343540083486400034874008346840098
:104350008347A4001306000897D5FF1F938505FE29
:104360001385819AA38FD184238E61842380E18673
:10437000A38E1185A380F186238F0185EF40707C89
:104380008547238CF18429BD1387C185814617D6C3
:10439000FF1F034636F7914517D5FF1F130555F646
:1043A000EF109068F5BB97D5FF1F938585F917D55A
:1043B000FF1F034535F5EF10B073DDB385450145AB
:1043C000EF10D058C9B38346740003466400834598
:1043D00054000945EF00306F7DB31306000897D5F0
:1043E000FF1F9385A5F51385819A97D7FF1F238813
:1043F00007F4EF4010759306F00F1306F00F9305C6
:10440000F00F0945EF00306C8547238CF18449BBE0
:1044100013874186854617D6FF1F0346B6EE9145A2
:1044200017D5FF1F1305D5EDEF10106095BB93074F
:1044300000021306000897D5FF1F938525F013850A
:10444000819A17D7FF1F230DF7EEEF40906F854736
:10445000238CF184B1B381459DB7EFE2EFCA138994
:1044600001A683270901834A4901370A0001A18374
:10447000E20AB3EAFA0003C7A1A67D1A130B000EE5
:10448000954B9309000D930400027D5441CF83277F
:10449000C9008346B90003C6F1A6B3F74701A207D6
:1044A000D58FB29783C6070083C7A186638E660740
:1044B000638C37096382360B83C501A703C69185D8
:1044C00003270901834749012183E207D98FAE976A
:1044D0002380D70083470901850793F7F70F2388C7
:1044E000F1A663F7FB0003C73A00ED176386E70800
:1044F0000347A9008347F90036967D171377F70F16
:104500008507A38CC1842385E1A6A387F1A66389CF
:1045100036032385D1863DFB0945EF40F02E03C7C6
:10452000A1A635F76FE0CFC163803703238801A6CA
:10453000A38C9184A3818A0013060002814549B7A8
:104540002385018621F7C9BF850693F6F60F83C53B
:1045500001A703C69185ADB77D171377F70F050641
:104560002385E1A6A387C1A6E31207F20945EF4020
:10457000B02903C7A1A675B7638CC6020347A9007B
:104580008347F900238801A67D171377F70F850766
:10459000A38C0184238501862385E1A6A387F1A648
:1045A000E31607EE0945EF40302603C7A1A695BFE5
:1045B000EFF0AFF3E1B7EFE22FB5138A81A48327C1
:1045C0000A0103444A01370B0001A18362045D8C98
:1045D00003C721A57D1B930B000E154C930A000DFC
:1045E00097D9FF1F938989D17D59815441CF832762
:1045F000CA000346BA0083C671A5B3F76701A207D4
:10460000D18FB69783C7070003C6B186638E77073D
:104610006306560B638D570B83260A0103474A0135
:1046200003C681A5A1826207558F32972300F70048
:1046300003470A0183C6A18505071377F70F238C6B
:10464000E1A46377EC00034604007D176301C70A09
:104650000347AA000346FA00BE967D171377F70FAB
:104660000506238DD1842389E1A4A38BC1A4638B88
:104670005705A385F1863DFB0D45EF40F01803C7B4
:1046800021A535F76FE0CFAB630A5603238C01A455
:104690007D17230024011377F70F8506238D0184EE
:1046A000A38591862389E1A4A38BD1A4E31007F409
:1046B0000D45EF40701503C721A5E1B7850793F7B6
:1046C000F70F99BFA3850186E31207F275B77D172F
:1046D0001377F70F85062389E1A4A38BD1A4E317F1
:1046E00007F00D45EF40501203C721A559BF13062F
:1046F0000004A2854E85EF40D044EFF03F9F034772
:10470000AA008347FA00238C01A47D171377F70FC3
:104710008507238D0184A38501862389E1A4A38BCA
:10472000F1A4E31507EC0D45EF40100E03C721A5DA
:1047300089BFEFE2EF9F1533BD3D138501A6EFF072
:104740006FCA138581A4EFF0EFC96FE0AFA0EFE26D
:104750002F9EC53783C7818599E36FE0AF9FEFF048
:104760003F8D6FE02F9FEFE2AF9C03C42181854412
:10477000630C940A49C88947630DF4048D476304A8
:10478000F4006FE02F9DB7540040B70507009385F4
:10479000450813850440EFE03FCB65D5854513857B
:1047A0000440EFE09FC483C7C18685072386F18656
:1047B00003C7C18683C711816363F70A2386018615
:1047C0007D572389E1801547E39DE7FAA38881801F
:1047D0004DBF37540040B7050700938525081305E2
:1047E0000440EFE07FC651DD03C7C1869387C180D7
:1047F000BA9783C5070013050440EFE05FC38D47F8
:104800002389F180BDBF37540040B705020013056E
:104810000440EFE03FC535F5854513050440EFE062
:10482000BFBA23899180B1BF37540040B705030058
:10483000850513050440EFE03FC1E30405F403C719
:10484000C18693870184BA9783C507000146130583
:104850000440EFE03FBE89472389F1801DB72389DB
:10486000018005B7EFE2CF8C13843181034504004A
:1048700023890180EF20806A814517050000130518
:10488000C5EEEF2020612300A4006FE0AF8C03C7CA
:1048900021819307F00F6303F7008280EFE24F89D5
:1048A000D1376FE02F8B1345F5FF135765009357F2
:1048B000C500136707FC93E707FCA386E180136537
:1048C00005FC2387F1802386A18003C721819307FC
:1048D000F00F6303F7008280EFE28F8561376FE0AE
:1048E0006F87EFE2EF8405641304048097C7FF1F0E
:1048F0009387C7DB22863E858145EFE06F8613876D
:1049000041810C432286EF40D0236FE0AF84EFE279
:104910002F82371702405C4301449384418193E71F
:1049200007085CC313898181EFE06FF4884022950A
:10493000EFE0AFF6832509008840A2952295EFE0CD
:10494000EFF813040410EFE06FF493070480E9FF1D
:10495000371702405C4393F7F7F75CC36FD09FFFB4
:10496000EFD21FFD13848147130600048145228581
:10497000EFD01FFF9307A0FA2300F4009307101E47
:104980002311F400EF2080312312A400EF00E0791E
:104990002313A40013060004A2851145EF20D02E96
:1049A0006FD05FFB03C7D18685476303F700828022
:1049B000EFD21FF875376FD0FFF903C7814B93070C
:1049C000A00A6303F7008280EFD29FF61306E0038C
:1049D00081451385A147EFD0BFF81384814B03476E
:1049E0001400834724009306A0FA238CD14693C772
:1049F0000708A38CE14613073006636AF71A1757B6
:104A00000000130727A88A07BA979C43BA978287A2
:104A10009307301E13060004938581471145239D9B
:104A2000F146A3860186EF2030266FD0BFF285477E
:104A3000A386F186130600049307201E9385814701
:104A40001145239DF146EF203024C5B7113FF1BF3A
:104A50009307001E239DF14683C7C14B638D071E3C
:104A600005476381E716FD57A38DF1467DBF03C55A
:104A7000C14B9307F00F83C8014C83C5114C03C78A
:104A8000214C630DF52A9306000F03C8D14B630236
:104A9000D532630FF828AE864686C285EF00F00057
:104AA0009307001B13060004938581471145239D3E
:104AB000F146EF20701D95BFEF20401E2A84EF20A5
:104AC000801D239FA1469307101A130600049385A7
:104AD00081471145239DF146239E8146EF20D01A40
:104AE000A9B7938781818345440003465400034757
:104AF00074009C438346640011452381B700A38161
:104B0000C700A382E7002382D7001306000493079F
:104B1000001993858147239DF146EF20F01631B7A8
:104B2000FD33930710181306000493858147114540
:104B3000239DF146EF205015CDBD65339307001836
:104B400013060004938581471145239DF146EF200C
:104B5000B013E1BDEF20602E9307001A1306000486
:104B6000938581471145239DF146EF20F01175BDD6
:104B7000938781819C4313060004114583C6370047
:104B800083C5270003C7470083C75700A206CD8E01
:104B90004207558FE207D98F23AEF14693858147AF
:104BA00093071019239DF146EF20100EBDBDFD5750
:104BB00013060004938581471145239DF146EF209C
:104BC000B00CA5B583C5D14B93D6250013D61500DF
:104BD000858A058A85890545EF00607483C5E14BA8
:104BE00093D6250013D61500858A058A85890D453B
:104BF000EF00E07283C5F14B93D6250013D6150064
:104C0000858A058A85891545EF00607183C5014C49
:104C100093D6250013D61500858A058A8589014516
:104C2000EF00E06F83C5114C93D6250013D6150015
:104C3000858A058A85890945EF00606E83C5214C08
:104C400093D6250013D61500858A058A85891145D6
:104C5000EF00E06CD9BB83C6F14B03C6E14B83C5C3
:104C6000D14B0545EF00206683C6214C03C6114C8D
:104C700083C5014C0545EF00006583C6514C03C652
:104C8000414C83C5314C0545EF00E06383C6814C40
:104C900003C6714C83C5614C0545EF00C06283C6F5
:104CA000B14C03C6A14C83C5914C0545EF00A061F2
:104CB00083C6E14C03C6D14C83C5C14C0545EF000A
:104CC000806083C6114D03C6014D83C5F14C01457B
:104CD000EF00605F83C6414D03C6314D83C5214D52
:104CE0000145EF00405E83C6714D03C6614D83C52B
:104CF000514D0145EF00205D83C6A14D03C6914D86
:104D000083C5814D0145EF00005C83C6D14D03C6CC
:104D1000C14D83C5B14D0145EF00E05A83C6014E38
:104D200003C6F14D83C5E14D0145EF00C059F5B90A
:104D30002E86BA86C685EF0000599DB33A86468511
:104D4000EF00C05783C6214C03C6114C83C5014CEC
:104D50000545EF00C05C83C6214C03C6114C83C5DA
:104D6000014C0D45EF00A05B83C6214C03C6114CDE
:104D700083C5014C1545EF00805A83C6214C03C6FC
:104D8000114C83C5014C0145EF00605983C6214C8D
:104D900003C6114C83C5014C0945EF00405883C63A
:104DA000214C03C6114C83C5014C1145EF0020571F
:104DB000C5B92E86BA86C6854285EF004056CDB16C
:104DC000EFD21FB7130600049385814F0545EF20EE
:104DD000A06BEFF03FBD6FD0FFB7EFD2DFB303C7DB
:104DE0008153C1476306F700EF2080276FD0FFB5DE
:104DF00083C791530947638AE70C637AF7080D4725
:104E0000638CE70A1147E391E7FE03C4A15383C70C
:104E1000B153A20742045D8C83C7C1535D8C17490F
:104E200000001309297F8544594BD14ADD49B14619
:104E30003546B9451D4A1385F4FFB356D4003356A1
:104E4000C400B355B400858A058A85891375F50FAA
:104E5000F9212685B356640133565401B355340104
:104E60008904858A058A858993F4F40F4D290D09F3
:104E7000E38C44F7834599000346A9008346B900B3
:104E800083490900834A1900034B29006DB7054780
:104E9000E39CE7F49307000303C5C181A38CF150A1
:104EA000EF20C0079545170500001305A5F1EF1089
:104EB000707E238EA1800DBFA38C0150A38801506A
:104EC00023990150238A015005B793070003A38C4F
:104ED000F15019BFEFD23FA483D7E18613D78700E3
:104EE000A38CF14E9744000093840474238DE14E0B
:104EF000A38A0150239B0150238C015001449389C4
:104F0000814F3D492285212C05041374F40F19C9E2
:104F100083C7040083C61400CE9703C7D701558FFB
:104F2000A38EE7008904E31F24FD938701878397FD
:104F3000070063CD0700130600049385814F0545E4
:104F4000EF208054EFF01FA66FD03FA03D45C12A4F
:104F50007DD19387814F03C7A70183C7C701050789
:104F600085072389E150238AF150F1B7EFD25F9C86
:104F7000B120652A83D42187B34795002398F18611
:104F80002A842399A186EF10902FEF1030511345FA
:104F9000F5FF420541812397A18683D74187638925
:104FA000A700239AA186EF20A00B2D376FD09F9AE0
:104FB000239AF186E31994FE6FD0DF99EFD25F94C4
:104FC000371A01409384815A130D0A80A68B8149B8
:104FD000094C130A0AC08D4A854C954D6387890F89
:104FE00063543C0D638F59119147639EF90E9305ED
:104FF00000405285EFE02FA8BD456A85EFE02FA65F
:105000001145EFD07FA05E890144214BB3158B0081
:10501000C205C1815285EFE04FA241E5230099010D
:1050200005041509E31454FF8509850BE398B9FBC2
:1050300037150140C14513050580EFE00FA013357A
:105040001500C168A38BA15A1388F8FF13878157F5
:1050500093868159138581598D450543F1188357EE
:10506000070003C604008607D18FC207C18323103F
:10507000F7006380B702638E07016383170199E32A
:1050800023800600090785048506E31AE5FC6FD036
:10509000FF8A23806600090785048506E311E5FC85
:1050A000FDB723000900ADBF8547639EF9026A85FD
:1050B0008945EFE04F9C6A85B545EFE04F9A93052F
:1050C00000405285EFE0AF9925BF6A859145EFE03A
:1050D0008F9A6A85AD45EFE08F9893050040528521
:1050E000EFE0EF9731BF6A858545EFE0CF986A859D
:1050F000B945EFE0CF96930500405285EFE02F963B
:1051000001B76A85A145EFE00F976A859D45EFE0FD
:105110000F95930500405285EFE06F94D5B59387C6
:1051200081593E95034505008280938681598147C8
:105130000145414603C7060085063317F700598D20
:10514000420585074181E397C7FE82809307500E91
:10515000B308F50213181500939715002A98AE9717
:1051600006082E9822068E07598EC2061387815B89
:105170000A089507558E3A98C697938601602320B2
:10518000C800BE965D47FD55B357E600858BB30753
:10519000F04093F767049387D7022380F6007D17CA
:1051A0008506E313B7FE8280EFD2EFF6AA8A2E8A35
:1051B000B289814419490D4B0144A28505044E87EB
:1051C000D286568626851374F40F4937E31724FFD9
:1051D000850493F4F40FE39164FF6FD00FF7EFD2DF
:1051E0002FF513050020EFD0BFDF19E16FD08FF648
:1051F00013050002EFD0DFDE75D937052000EFD0B0
:105200003FDE6DD513050020EFD07FDE13050002D1
:10521000EFD0FFDD37052000EFD07FDDB704004081
:1052200013850440814537040240EFE0CFE11305C8
:1052300004038145EFD03FD91305C4018145EFD068
:105240009FD81305C4068145EFD0FFD7130504038B
:105250009305500EEFD09FD81305C4019305500E4F
:10526000EFD0DFD71305C4069305500EEFD01FD73C
:105270001305C4018545EFD01FD5130504038545EB
:10528000EFD07FD41305C4068545EFD0DFD3854525
:1052900013850440EFE02FDB6FD0CFEBEFD24FE967
:1052A0003D3FEFF0CFDE6FD0EFEA954763E7B70001
:1052B000EFD20FE8613D6FD0EFE98280EFD24FE788
:1052C000E5356FD02FE9EFD20FE5AA8A2E8AB28991
:1052D000368901449944A28505044A87CE865286C0
:1052E00056851374F40F9D35E31794FE6FD0EFE5E8
:1052F000EFD20FE493868187BD470146F55503C77A
:10530000060085063317F700F517598EE399B7FEA7
:10531000328523A0C188EFF00FD96FD0AFE3EFD271
:105320002FE1B335B000B336D0008A053336C00064
:10533000D58D9387818706063E954D8E2300C50047
:10534000453F6FD02FE117C7FF1F0347B7F99547B8
:105350006307F704EFD2CFDD9D4717C7FF1FA303F5
:10536000F7F8294797C7FF1F83C7E7F7636DF71A59
:10537000174700001307472D8A07BA979C43BA972F
:1053800082871306000897C5FF1F938525FB1385A9
:10539000819AEF30107BEFE03FC96FD0AFDB8547DC
:1053A00017C7FF1FA300F7F4828097C7FF1F9387DB
:1053B000E7F403C7170083D727009D4617C8FF1FD0
:1053C000230ED8F61306000897C6FF1FA388E6F63B
:1053D00097C5FF1F938585F617C7FF1F2311F7F6A3
:1053E0001385819A9307001017C7FF1F231AF7F43C
:1053F00097C7FF1F238707F4EF30B074EFE0DFC2D9
:105400006FD04FD597C7FF1F938747EF03C717008C
:1054100083D72700994617C8FF1F2301D8F2130628
:10542000000897C6FF1FA38BE6F097C5FF1F938563
:10543000E5F017C7FF1F2314F7F01385819A8547FE
:1054400017C7FF1F231EF7EEEF30B06FEFE0DFBD91
:105450006FD04FD017C7FF1F0347E7EB97C6FF1F5B
:105460009386C6E99317470003C8160083D6260023
:1054700093F7F70F9388370113060008B50797C510
:10548000FF1F9385A5EB1385819A17C3FF1F230088
:10549000E3EC17C7FF1FA305F7EA17C7FF1F230F8A
:1054A00017E917C7FF1FA30B07E917C7FF1F23182B
:1054B000D7E897C7FF1F239B07E897C7FF1F2381E4
:1054C00007E8EF301068EFE03FB6C1BD97C7FF1F98
:1054D0009387C7E203C7170083D72700C94617C8B9
:1054E000FF1F230DD8E497C6FF1FA389E6E417C763
:1054F000FF1F2316F7E48567938717C0130600087C
:1055000097C5FF1F938585E31385819A17C7FF1FF2
:105510002318F7E297C7FF1F239A07E2EF30706264
:10552000EFE09FB09DBD97C7FF1F938727DD03C79F
:10553000170083D72700994617C8FF1F2300D8E01C
:105540001306000897C6FF1FA38AE6DE97C5FF1F54
:105550009385C5DE17C7FF1F2313F7DE1385819AD6
:105560008D4717C7FF1F231DF7DCEF30905DEFE07D
:10557000BFAB25B5EFD2CFBB397117C4FF1F1304E2
:1055800064D689470D479305803E17050000130533
:10559000C5DB2300F100A300E4002301F400EF10B9
:1055A000B01317B6FF1F1306E6A683469600834581
:1055B00086000347A6008347B600A206CD8E4207A9
:1055C000558FE2072302A400D98F0A858146014640
:1055D0008545829721616FD0EFB7EFD26FB5B707DE
:1055E000170039719387471117C4FF1F130484CF25
:1055F0003EC085658D47A300F400938585388547B7
:1056000017050000130565D42301F400EF10D00C3A
:1056100017B6FF1F130606A0834696008345860033
:105620000347A6008347B600A206CD8E4207558FDA
:10563000E2072302A400D98F0A85814601469145DD
:10564000829721616FD00FB1EFD28FAEB707FF0104
:1056500039719387275317C4FF1F1304A4C80D473C
:105660003EC09305803EC147170500001305E5CDF8
:105670002302F100A300E4002301E400EF10D005B1
:1056800017B6FF1F130606998346960083458600CA
:105690000347A6008347B600A206CD8E4207558F6A
:1056A000E2072302A400D98F0A8581460146954569
:1056B000829721616FD00FAA8D4763FFB70483479C
:1056C0000500A1EB83471500A9E7034725009307D1
:1056D000F00F6310F70483473500034745003E97FA
:1056E0001377F70F1DE7F91793F7F70FA301F500ED
:1056F00063E4F502034755009307500D631BF70061
:105700008347650005061376F60F01456393C700CE
:1057100082801305300F82801305400F8280EFD204
:105720002FA197B6FF1F83C6B68F97B7FF1F83C7FA
:10573000278F17B7FF1F0347C78EA206DD8E4207CC
:1057400097B7FF1F83C7F78D7571558FE207A307C2
:105750000100D98F9305F100080882970344F100F6
:1057600019C897C7FF1F83C7F7B70D476388E700BE
:1057700011476383E70249616FD0CF9D0347410121
:1057800083472101914617C6FF1FA30DD6B4F98F99
:105790001307F00F6382E70297C7FF1F83C7A7B401
:1057A0002947E36AF7FC174700001307A7EC8A07AD
:1057B000BA979C43BA978287834701010346110138
:1057C0008346310103475101D18FD58FD98FE9F736
:1057D0002286930561010808EF30104275BF130659
:1057E0002003A2850808C93D59F5954717C5FF1F35
:1057F000034585AF17C7FF1FA306F7AEEF10607410
:105800009DBF1306A004A28508087D352DF58347AA
:105810007101B5D3954717C5FF1F0345E5AC17C701
:10582000FF1FA301F7ACEF10C0718347C10117C779
:10583000FF1F2309F7B095C79386F7FF93F6F60F7E
:105840001306E1019307D10117C7FF1F130797AF95
:10585000B29603C6070005078507A30FC7FEE39AA4
:10586000D7FE97C7FF1F938767A903C7170083D782
:105870002700B54617C4FF1F2302D4AC97C6FF1FED
:10588000A38EE6AA17C7FF1F231BF7AAB7070110AD
:10589000938707701306000897C5FF1F938505AA15
:1058A0001385819A17C7FF1F232CF7A8EF307029A3
:1058B000EFE08FF7C9B513060004A2850808ED3B99
:1058C0001375F50FE31905EA0347810197C7FF1F19
:1058D00083C777A192077D17B107E31EF7E88347D7
:1058E00021028346310203477101D58F1377F703F5
:1058F000D98FE39207E8954717C5FF1F0345C59E5B
:1059000017C7FF1FA300F79EEF10A06397C7FF1FE5
:1059100083C7779DA1CB1385F7FF1375F50F12058C
:1059200097C7FF1F938787A297C5FF1F938505A180
:105930003E9513065002930706FF93F7F70F2E8745
:105940001409BE9683C606F8850793F7F70FA309D7
:10595000D7000507E396C7FE4106C1051376F60F8B
:10596000E39BA5FC97C6FF1F83C6E69A9397460064
:1059700017C7FF1F1307879883481700035827008E
:1059800093F7F70F1387D7001377F70FCD07130699
:10599000000897C5FF1F9385659A1385819A17C4E0
:1059A000FF1F2306D49A97C6FF1F2389F69897C72F
:1059B000FF1FA385179997C7FF1F2392079997C7C2
:1059C000FF1FA38FE79697C7FF1F238CE79697C704
:1059D000FF1F239D079697C7FF1F23830796EF306E
:1059E0005016EFE06FE441BB954717C7FF1FA30BAD
:1059F000F78E51B3A285130600040808EFF0DFCB41
:105A0000954717C5FF1F0345258E17C7FF1FA30B1B
:105A1000F78CEF10005397C7FF1F9387278E03C79C
:105A2000170083D72700C94617C4FF1F2308D49047
:105A300097C6FF1FA384E69017C7FF1F2311F79097
:105A40008567938707C01306000897C5FF1F9385D6
:105A5000E58E17C7FF1F2315F78E1385819AB1476F
:105A600017C7FF1F230FF78C97C7FF1F2390078EC1
:105A7000EF30300DEFE04FDBFDB913060004A285D7
:105A80000808EFF07FC3E31805CE83477101E39464
:105A900007CE954717C5FF1F0345058517C7FF1F8D
:105AA000A302F784EF10E04997C7FF1F938707858C
:105AB00003C7170083D7270099461306000897C528
:105AC000FF1F9385A5871385819A17C4FF1F23079E
:105AD000D48697C6FF1FA383E68617C7FF1F231030
:105AE000F78697C7FF1F239D0784EF309005EFE0EF
:105AF000AFD351B113060004A2850808EFF0DFBB55
:105B0000E31B05C683477101E39707C6954717B5A1
:105B1000FF1F0345657D17B7FF1FA305F77CEF1037
:105B2000404297B7FF1F9387677D03C7170083D74E
:105B30002700D94617C4FF1F2302D48097B6FF1F42
:105B4000A38EE67E17B7FF1F231BF77E856717B767
:105B5000FF1F2317F77E835781011306000897B5AF
:105B6000FF1F9385A57D17B7FF1F231CF77C835765
:105B7000A1011385819A17B7FF1F2315F77C83575F
:105B8000C10117B7FF1F2310F77C8357E10117B737
:105B9000FF1F231BF77A8357010217B7FF1F231636
:105BA000F77A8357210217B7FF1F2311F77A83571C
:105BB000410217B7FF1F231CF7788357610217B7FD
:105BC000FF1F2317F778EF30C077EFE0EFC565B61A
:105BD0001306A004A2850808EFF01FAEE31D05B868
:105BE000034771018547E318F7B803449101034760
:105BF00081019307E4FEA382E18893F7D70FE39C2A
:105C000007B6954717B5FF1F0345056E17B7FF1F6A
:105C1000A30AF76CEF10E03297B6FF1F9386067267
:105C20001C083687280883C5B70003C637018507D7
:105C3000A304B700A308C7000507E396A7FE83C720
:105C4000060103C7F60083C0160183C4260183C37F
:105C5000360183C2460183CF560103CF660183CE4E
:105C6000760103CE860103C3960083C8A60003C84D
:105C7000B60003C5C60083C5D60003C6E60097B6C6
:105C8000FF1FA386E66697B6FF1FA383166617B7A6
:105C9000FF1F230FF76497B6FF1F238C966497B6F8
:105CA000FF1FA388766497B6FF1F2385566497B6B7
:105CB000FF1FA381F66597B6FF1F238EE66397B695
:105CC000FF1FA38AD66397B6FF1F2387C66397B6C5
:105CD000FF1FA38B666097B6FF1F2388166197B6D8
:105CE000FF1FA384066197B6FF1F2381A66097B6A6
:105CF000FF1FA38DB65E97B6FF1F238AC65ED147EE
:105D0000631EF4008347C10217B7FF1FA306F75EA7
:105D10008347B10217B7FF1F2301F75E97B7FF1F35
:105D20009387C75D03C7170083D72700E54617B4DD
:105D3000FF1F2305D46097B6FF1FA381E66017B746
:105D4000FF1F231EF75EB717012093870730130646
:105D5000000897B5FF1F9385655E17B7FF1F2321C6
:105D6000F75E1385819AC14717B7FF1F230CF75CB5
:105D7000EF30205DEFE04FABFDBA5146A285080839
:105D8000EFF09F93E319059E8DB4EFC27FBA97B7EA
:105D9000FF1F9387275503C3770083C8870003C875
:105DA000970083CE570003CE670003C5A70083C5C5
:105DB000B70003C6C70017B7FF1F03470755930671
:105DC000170017BFFF1FA30DDF5397BEFF1F238AC6
:105DD000CE5317BEFF1FA3066E5217B3FF1F230338
:105DE000135397B8FF1FA38F085117B8FF1F230C39
:105DF000A85017B5FF1FA308B55097B5FF1F2385FF
:105E0000C55017B6FF1FA30ED652A14617B3FF1FEA
:105E10000343D34E97B8FF1F83C8684E17B8FF1FC0
:105E20000348F84D630ED71663F8E606B1476303DF
:105E3000F7229307400A6315F726C54717B7FF1FD8
:105E4000230EF74E97B7FF1FA38A674E97B7FF1F22
:105E50002387174F97B7FF1FA383074F8567938744
:105E600007B017B7FF1F231DF74C97B7FF1F238FEE
:105E7000074CAD471306000897B5FF1F9385054CE7
:105E80001385819A17B7FF1F230DF74AEF30604B38
:105E9000EFE08F996FC01FAC630D07169946631131
:105EA000D72017BEFF1F034E0E4717B7FF1FA30CC7
:105EB000C74305476305EE0C17B7FF1F13073749A4
:105EC00017B6FF1F1306864283C6570005078507CE
:105ED000A30FD7FEE39AC7FE17B7FF1F13070748A4
:105EE00097B6FF1F9386864A930707FFA38907008B
:105EF0008507E39DE7FE13870701E317D7FE854774
:105F000017B7FF1F230EF74493174E0093F7F70FB1
:105F10001387D7001377F70FCD071306000897B53F
:105F2000FF1F9385A5411385819A97B6FF1F23878D
:105F3000F64097B6FF1F238CC64197B7FF1FA38F6C
:105F4000673E97B7FF1F238C173F97B7FF1FA388A4
:105F5000073F97B7FF1FA385E73E97B7FF1F238231
:105F6000E73E97B7FF1F2393073E97B7FF1F23898D
:105F7000073CEF30003DEFE02F8B6FC0BF9D17B7A0
:105F8000FF1F1307D73C17B6FF1F1306263683C61D
:105F9000570005078507A30FD7FEE31AF6FEADB736
:105FA00097B7FF1F9387873583C7A701130600089C
:105FB00097B5FF1F9385853817B7FF1FA305F732E5
:105FC000C94717B7FF1F230BF73697B7FF1FA387E4
:105FD000673697B7FF1F2384173797B7FF1FA38034
:105FE00007378567938707C017B7FF1F231AF73452
:105FF0001385819AB14717B7FF1F2304F73497B76A
:10600000FF1F23950734EF30C033EFE0EF816FC0FF
:106010007F94E94717B7FF1F2302F73297B7FF1F97
:10602000A38E673097B7FF1F238B173197B7FF1FDA
:10603000A387073185679387074017B7FF1F231191
:10604000F730ED779387874817B7FF1F2314F73092
:10605000D1470DB5CD4717B7FF1F2301F72E97B7CF
:10606000FF1FA38D672C97B7FF1F238A172D97B7A4
:10607000FF1FA386072D8567938707D017B7FF1FDC
:106080002310F72C854717B7FF1F2301F72CED7757
:106090009387874817B7FF1F231EF72AB547D9BB39
:1060A000994717B7FF1F230BF72897B7FF1FA38741
:1060B000672897B7FF1F2384172997B7FF1FA3806F
:1060C00007298D4717B7FF1F231CF72681475DB3AC
:1060D000EFC21F8617A4FF1F1304C4F383461400E6
:1060E000034604000347240083473400A206D18EF0
:1060F0004207558FE207D98F8297834654000346A3
:1061000044000347640083477400A206D18E42070F
:10611000558FE207D98F82979305400617F5FFFF49
:1061200013058545EF00505B9305800C17F5FFFFC5
:106130001305C551EF00505A9305C01217F5FFFF24
:106140001305E549EF0050596FC0DF80EFC24FFEE5
:106150003971B367B50017B4FF1F1304A4182301E6
:10616000F1008D4713072013A300F4009305803E30
:10617000914717F5FFFF1305451D2310E10023018B
:10618000F400EF00705517A6FF1F1306A6E883461C
:106190009600834586000347A6008347B600A20603
:1061A000CD8E4207558FE2072302A400D98F0A85BE
:1061B000814601468D45829721616FC0AFF9EFC2DC
:1061C0002FF739719307A01417B4FF1F130484111C
:1061D0002310F1008D472301A100A300F40017F55F
:1061E000FFFF1305851695472301F400EF00D04EFD
:1061F00017A6FF1F130606E2834696008345860016
:106200000347A6008347B600A206CD8E4207558FEE
:10621000E2072302A400D98F0A85814601468D45F5
:10622000829721616FC00FF3EFC28FF0B336D000B9
:10623000397193070014938606062310F100A30119
:10624000C1002E842301D1005C0013066700834641
:10625000070085070507A38FD7FEE31AC7FE15C001
:106260009306F4FF1307150093F6F60F9307A100AA
:10627000BA960347050085070505A38FE7FEE31AD5
:10628000D5FE8D4717B7FF1FA30EF7049305803E79
:10629000994717F5FFFF1305450B17B7FF1F230499
:1062A000F704EF00704397A6FF1F83C636D797A762
:1062B000FF1F83C7A7D617A7FF1F034747D6A2060E
:1062C000DD8E420797A7FF1F83C777D5558F9305AC
:1062D000A40097B6FF1F2389A600E2070A85D98F7D
:1062E0008146014693F5F50F829721616FC08FE6D5
:1062F000EFC20FE43971930700142310F1009307E4
:10630000000317B4FF1F1304E4FD2301F1008D47C0
:10631000A301A100A300F4009305803E9D4717F55B
:10632000FFFF130585022301F400EF00F03A17A6E2
:10633000FF1F130626CE834696008345860003473B
:10634000A6008347B600A206CD8E4207558FE2070E
:106350002302A400D98F0A85814601469145829780
:1063600021616FC02FDFEFC2AFDC93178500218161
:106370003971C98F17B4FF1F1304C4F62312F1003B
:1063800041678D472303B1001307A714B285A3000B
:10639000F40017F5FFFF130545FBA1473AC02301A1
:1063A000F400A3030100EF00303317A6FF1F13060C
:1063B00066C683469600834586000347A60083474A
:1063C000B600A206CD8E4207558FE2072302A40035
:1063D000D98F0A8581460146A145829721616FC008
:1063E0006FD7EFC2EFD483C7418891CB9305803E2E
:1063F0000145EFF0DFDC238201886FC0AFD5416536
:1064000085471306803E81457D152382F188A13F93
:106410006FC04FD4EFC2CFD179718545116502CAE3
:1064200002CC02CE02D002D202D402D602C602C8E8
:10643000EFD0CFA885451145EFD04FA837140140C4
:10644000930700200D494C0813050480231AF1001E
:10645000E1474ACC3ECEEFC07FCD930700404C08C9
:1064600013050480231AF10091473ECEEFC01FCCE4
:10647000930700104C0813050480231AF100C1474C
:106480003ECE4ACCEFC09FCAF167B7440140938724
:1064900007200C10138504803ED0B7070C003ED4B3
:1064A00002D223160102EFD04FD713850480054690
:1064B00093055052EFD06FE805469305404213858F
:1064C0000480EFD08FE79307500368002316F10094
:1064D00085473EC823070100EFC0DFFC1385048019
:1064E0008545EFD08FE39305001013050480EFC0BE
:1064F0001FD745616FC00FC6EFC28FC3973700002B
:10650000938787F403A3070083A8470003A88700A5
:10651000C8478C4BD04B944FD84F9C53797137441C
:1065200001401AC646C842CA2ACC2ECE32D036D234
:106530003AD43ED66400130901031304048083C5D2
:1065400004002285EFD02FE3930500082285EFD0C9
:10655000CFE37DD98504E39424FF45616FC08FBFED
:10656000EFC26FBB834705002A89374501402E845F
:10657000130505808145B74A0140B284368A2386D7
:10658000F188AA89EFD02FDF930500084E85EFD060
:10659000CFDF7DD913850A808145B74A0140EFD00E
:1065A0008FDD93890A80930500084E85EFD0EFDDDB
:1065B0007DD913850A809305F00FB74A0140EFD0CB
:1065C0008FDB93890A80930500084E85EFD0EFDBBF
:1065D0007DD9B307440193F7F70F9385170013850F
:1065E0000A8093C7F7FF374B014093F5F50F93FAF5
:1065F000F70F93090B80EFD00FD8930500084E8555
:10660000EFD0AFD87DD9D68513050B80B74A0140AE
:10661000EFD06FD693890A80930500084E85EFD09E
:10662000CFD67DD99305400D13850A80B749014027
:10663000EFD06FD493890980930500084E85EFD081
:10664000CFD47DD931C0930AF4FF93FAFA0F3744BF
:106650000140CA9A9309400D130404808345090040
:106660002285EFD04FD1930500082285EFD0EFD1DE
:106670007DD98347090013071900BE9993F9F90FD3
:10668000630659013A89D9BF9309400D63000A0492
:106690001309FAFF1379F90F938714003744014067
:1066A0003E991304048083C504002285EFD0AFCC4B
:1066B000930500082285EFD04FCD7DD983C7040014
:1066C0008504BE9993F9F90FE39F24FDB30530418A
:1066D0003745014093F5F50F13050580B744014098
:1066E000EFD06FC913840480930500082285EFD092
:1066F000CFC97DD981451385048037440140EFD04F
:106700008FC713040480930500082285EFD0EFC7DC
:106710007DD96FC08FA3EFC2AFA1374401400146BE
:106720002A89AE841305048093055052EFD0EFC040
:1067300001469305404213050480EFD00FC003C704
:10674000618883C7718863FEE7049107998F93F787
:10675000F70F9396770017B7FF1F130727C63697D3
:106760002320E90013878188BA9783C7070037443D
:106770000140130504802380F40083C76188FD175E
:106780000546930550522383F188EFD00FBB1305C4
:106790000480054693054042EFD02FBA05456FC0EF
:1067A0006F9B998F93F7F70F6DB783C7618891E35C
:1067B0008280EFC2EF974111AE842A849305B10025
:1067C0006800913F09CD0349B100B24522854A8650
:1067D000EF2030372380240183C76188E5F341012E
:1067E0006FC04F97EFC2CF94C9376FC0AF964111BA
:1067F00022C6374401409305505213050480EFD060
:106800008FB931E9374401409305404213050480B4
:10681000EFD06FB80DC983C77188835604800357C2
:106820004480850793F7F70F0D476362F702A38350
:10683000F18803C7618893868188B697050723800E
:1068400007002383E1883244410173002030A38391
:1068500001888147F9BF13050480EFD06FB283C769
:106860007188138781883E970346070093967700C7
:1068700097B7FF1F938787B4B697B2979306160012
:106880002300D7002380A700B5BFEFC26F8A011194
:106890008545116502C002C202C402C602C802CA0E
:1068A00002CC231E0100EFC05FE385452145EFC008
:1068B000FFE03714014061498D448A85130504C007
:1068C00085672310F1004AC426C2EFC03F868A853F
:1068D000130504C089672310F1004AC426C2EFC023
:1068E000FF8491678A85130504C02310F100914746
:1068F0003EC4EFC0BF83E1778A85130504C023102F
:10690000F100374400404AC426C2EFC03F8213055D
:1069100004808545EFC0FFE7B70704013EC6930733
:1069200000026C00130504803ECC9D47231EF1003D
:1069300002C802CAEFC05FDC130504800546894522
:10694000EFC09FE31305048005468545EFC0DFE2F5
:10695000854513050480EFC01FE005616FB09FFF00
:10696000EFB27FFB79712A84AE890545854532896E
:10697000B68402C202C402C602C802CA02CC02CE57
:1069800002D002D202D402D6EFC07FD12285EFC05E
:106990008FD4C1473EC6930700084C003ECC2285E9
:1069A00085674EC24AC426C83ED402CA02CE02D06F
:1069B00002D202D6EFC02FDD45616FB01FF9EFB2F2
:1069C0009FF579712A84AE89054585453289B6845B
:1069D00002C202C402C602C802CA02CC02CE02D05F
:1069E00002D202D402D6EFC09FCB2285EFC0AFCE39
:1069F000930700083ECC930700103ECE930700405B
:106A00004C003ED0228585674EC24AC426C83ED47B
:106A100002C602CA02D202D6EFC0EFD645616FB0FD
:106A2000DFF2EFB25FEF79712A84AE8905458545C3
:106A30003289B68402C202C402C602C802CA02CCAB
:106A400002CE02D002D202D402D6EFC05FC52285A8
:106A5000EFC06FC8930700084C003ECC22858567C5
:106A60004EC24AC426C83ED402C602CA02CE02D0D2
:106A700002D202D6EFC02FD145616FB01FEDEFB249
:106A80003FEB9387418A9C4305476383E70899CB93
:106A900009476397E7000945EFC08FD4631C0514CD
:106AA0006FB05FEB13870189834717000346270008
:106AB0008346370003474700D18FD58FD98F03C74F
:106AC00001826385071C9307F7FF93F7F70F238075
:106AD000F182638607104147637CF7023745004027
:106AE000894781451305058023A2F18A37040240B6
:106AF00023800182EFC03FC6814513058405EFC0A6
:106B00008FCC814513054404EFC0EFCBEF90F05CD0
:106B100037050200EFC0CFCC4DCD37050200EFC0E6
:106B20000FCD0965EFC0AFCC374500408145130557
:106B30000580EFC05FC203C611891347F6FF973780
:106B400000009387E7B51377F70F3E9703470700D9
:106B500083C5218983C631892D8F3E97034707005E
:106B600003C54189358FBA9783C7070093C7F7FFDD
:106B700093F7F70F6316F50022064D8E239BC1880D
:106B800037040240130584058145EFC0CFC31305C8
:106B900084059945EFC08FC4130584058545EFC072
:106BA0008FC2130544048145EFC0EFC113054404AF
:106BB0009945EFC0AFC2130544048545EFC0AFC08F
:106BC00037450040854513050580EFC0DFB86FB03D
:106BD0007FD80965EFC0CFC0E31105F4D1B5854773
:106BE0003705020023A2F18A23800182EFC04FBF44
:106BF0006DD125B70945EFC08FBF97B7FF1F9387AA
:106C0000E79C17B6FF1F130666A4014783D607004B
:106C100089073697E31CF6FE9387E1888395070082
:106C2000198393160701C1863386B6008147634EE8
:106C3000060081CE05659307F5FF6358A6006386BD
:106C4000F6002E9793170701C183239BF18883D702
:106C5000618993C7F7FF239BF1883704024083D7EC
:106C600061899207130584008145239BF188EFC059
:106C70008FB51305840093058004EFC02FB68545BA
:106C800013058400EFC02FB46FB0DFCC930717005B
:106C900093F7F70F2DBD03D56189828083D7618972
:106CA00003D781896370F7163387E74013271710DE
:106CB000134717006310071003C7A18913161700A5
:106CC0009386C18997B5FF1F93854598B2959442E5
:106CD00003D605000507BE96918E13D63600239085
:106CE000F500931706011D8BC18323AED1883E8624
:106CF000238DE188239CF18803D7018ABA8563FA42
:106D0000E708B306C74093A6160493C6160089C6C3
:106D10002390F18AB2853E8793878181944383C70C
:106D2000160083C60600A207D58FC166FD169D8E8C
:106D300063D3B60085073E974207E17741833E97CC
:106D4000131517002A9721652A97416583C7D181BA
:106D50006358A70463490704131507014181B1E78C
:106D600083D7E18163F5A70C3307F54042074183E0
:106D7000AA8621463685637BE60013060004636914
:106D8000E6083385D700058142054181239FD180E4
:106D90008280B306E64093A6160493C6160085BF0C
:106DA0007D15DDDF19A0BDCF0145239FA180A38EF6
:106DB000018082801397370097B6FF1F2398F688CB
:106DC00097B6FF1F2395F68897B6FF1F2392F68884
:106DD00097B6FF1F239FF68697B6FF1F239CF68664
:106DE00097B6FF1F2399F68697B6FF1F2396F68660
:106DF00097B6FF1F2393F686239CF1883E8623AE29
:106E0000E188DDBD1D8F13271710134717005DB5EF
:106E100013953600158D3E950D8142054181239FC6
:106E2000D180828083D7E1813E87814699B73387BD
:106E3000A74042074183AA862DBF9387818183D6CD
:106E400061899843E177958FC207C18393D6870004
:106E50002300F700A300D7008280411122C6371417
:106E60000040854513050480EFC09FB809E5324412
:106E7000410173002030130504808545EFC01FB920
:106E80009387818A9C433244850723A4F18A410178
:106E90007300203017A7FF1F1307C77C81474148A5
:106EA000144313F6F70F310781CA8507E39A07FFEA
:106EB0001306F00F3285828013971700BA97139745
:106EC000270097A7FF1F93876779BA9788C7CCC316
:106ED00023A007003285828017B7FF1F130787841E
:106EE00081474148144313F6F70F310781CA8507DC
:106EF000E39A07FF1306F00F32858280139717007D
:106F0000BA971397270097B7FF1F93872781BA97E0
:106F100088C7CCC323A0070032858280BD4763E1C8
:106F2000A70293171500AA978A0717A5FF1F130535
:106F3000E5723E9523240500232205002320050049
:106F40008280BD4763E1A70293171500AA978A07BD
:106F500017A5FF1F1305857C3E95232405002322DA
:106F60000500232005008280EFB2FF9A9387818A73
:106F70008443371A004023A4018A9399040117A47B
:106F8000FF1F1304A46D17A9FF1F1309297993D9B3
:106F90000901130A0A8021A03104630B24031C4455
:106FA000E5DF1C405840CE971CC0E3E7E7FE0146F2
:106FB0008545528523200400EFC0FF8A1C4431041C
:106FC0008297054685455285EFC0FF89E31924FD68
:106FD000C204B719004017A4FF1F1304247417A993
:106FE000FF1F1309A97FC1809389098021A0310463
:106FF000630124051C44E5DF1C405840A6971CC0D3
:10700000E3E7E7FE014685454E8523200400EFC0F7
:107010009F851C44310482970546232E04FE232CB1
:1070200004FE232A04FE85454E85EFC0DF83E3136B
:1070300024FD6FB09F91EFB2BF8FF957A380F1820B
:1070400017A4FF1F1304847997A4FF1F9384047B64
:107050001C40110491C38297E31C94FE6FB09F8F74
:10706000EFB21F8D93848181904083463600834523
:1070700026000347460083475600A206CD8E4207EE
:10708000558FE207D98FA9C303C511829307E00F7B
:10709000630EF502EFF0FFEA9840170500001305B4
:1070A000C5F98345370083462700834747000347D8
:1070B0005700A205D58DC207CD8F93158701DD8DB1
:1070C000EFF09FE1A380A1826FB0DF8817A4FF1FBC
:1070D0001304C47217A9FF1F130949741C4011043B
:1070E00091C38297E31C24FFFD57A380F18213050F
:1070F000F00F4DB797A5FF1F9385456E2E878147EB
:1071000021461443110799C68507E39CC7FE130562
:10711000F00F828013972700BA9588C113F5F70FF7
:10712000828097A5FF1F9385656D2E878147214635
:107130001443110799C68507E39CC7FE1305F00F9A
:10714000828013972700BA9588C113F5F70F8280C4
:10715000EFB20FFEEF90F010EF90502013050040BB
:10716000EFC0AFC20545EF80306C5145EFB07F8D69
:10717000EFD02FF71545EFB0DF8CEF807068EF9000
:10718000700CEF90D00CEF901026EF909070EF9075
:10719000102D5145EFB0FF8AEF906037EF906001FE
:1071A000EF80F068EFE0DFF2EF90C00DD14517E51A
:1071B000FFFF1305E50EEFF0FFCD854517E5FFFF57
:1071C000130505DBEFF01FCD954517D5FFFF130520
:1071D0004558EFF03FCCF94517E5FFFF130565541F
:1071E000EFF05FCBEFF05FD8F5BF37050400EFB0ED
:1071F0007FE773002030B12E730020308D4723A22B
:10720000F18C828097A7FF1F83C7E76389C79547E3
:1072100023A2F18C8280854723A2F18C8280EFB279
:107220002FF1AA842E8411458545EFC02FC9B7667A
:107230000040ADC083A706C441677517F98F23A02E
:10724000F6C4B717014003A74780B716F0FFFD1635
:10725000758F23A2E78003A7C780F9769386F67F10
:10726000758F23A6E78003A74780B7460400558F94
:1072700023A2E780374702408327078019C493E79A
:1072800027002320F7806FB0EFECF59B2320F780D9
:107290006FB04FEC03A706C4B71701401367270070
:1072A0004207418323A0E6C403A74780B716F0FF37
:1072B000FD16758F23A2E78003A7C780F976938612
:1072C000F67F758F23A6E78003A74780B7360300B4
:1072D000558F23A2E78079BF8280EFB26FE5938557
:1072E00081530545EF10B07A930700046307F5005A
:1072F0000545EF1070516FB0EFE5EFD01FAE0545BB
:10730000EF1090506FB00FE58280EFB26FE293857F
:10731000814B1145EF10B077930700046307F50028
:107320001145EF10704E6FB0EFE2EFD00FE911454D
:10733000EF10904D6FB00FE2EFB28FDF138401A614
:107340008345C4008346B4008347D4000347E40068
:10735000A205D58DC207CD8F93158701DD8D094517
:10736000EF10F0722305A40089650945A307040006
:10737000EF1070426FB00FDEEFB28FDBB7670040E7
:1073800083A707C5373700204907C207C183BA97CB
:1073900086079C431307000293F7F73F6394E702C5
:1073A00083C791A699E703C751A683C741A6630285
:1073B000F702930500020945EF107039EFD02FB99D
:1073C0006FB04FD9930500020945EF1050386FB0E8
:1073D0006FD80146814513052008EF107068CDB7BE
:1073E000EFB20FD5138481A48345C4008346B40053
:1073F0008347D4000347E400A205D58DC207CD8F93
:1074000093158701DD8D0D45EF1070682305A400ED
:1074100089650D45A3070400EF10F0376FB08FD3D7
:10742000EFB20FD1B767004083A707C537370020F9
:107430006907C207C183BA9786079C4313070002F6
:1074400093F7F73F6394E70283C711A599E703C752
:10745000D1A483C7C1A46302F702930500020D45BE
:10746000EF10F02EEFD0AFAE6FB0CFCE930500028D
:107470000D45EF10D02D6FB0EFCD014681451305BE
:107480003008EF10F05DCDB7EFB28FCA09472E84F8
:10749000B284630EE506637CA7020D476305E5042D
:1074A0001147631FE502EF10F034930700036309EF
:1074B000F5022686A28513054008EF10705A930541
:1074C00000031145EF10B02801456FB0AFC8054764
:1074D0006318E500EF10103293070003631DF504F5
:1074E00005456FB02FC7EF10F03093070003E30995
:1074F000F5FE2686A28513053008EF107056930519
:1075000000030D45EF10B02401456FB0AFC4EF107C
:10751000702E93070003E305F5FC2686A28513056C
:107520002008EF10F053930500030945EF103022B7
:1075300001456FB02FC22686A28513051008EF10F3
:107540003052930500030545EF10702001456FB0E0
:107550006FC0EFB2EFBD37680040832708C54167B1
:107560001305F7FFB7360020E98F9906B69786070F
:107570009043130707C083D5C18A718F0111630C33
:10758000B700832708C593F505C0E98FB69786072E
:107590009843D98D8CC3B766004003A746C483D7F0
:1075A000018E1384818B239CE18A03D7818B7D8F8D
:1075B0001377072019CB41671307F7DF23A2E6C42F
:1075C00003C7E18A05072387E18A035704007D8FFB
:1075D00042074187634F070C035704007D8F1377E1
:1075E000074005C39797FF1F938747ABD843C167F1
:1075F0009387F7BFB766004023A2F6C4029783D7EC
:10760000018E035704007D8F9316270163CA060677
:10761000035704007D8F9316370163C00608035794
:1076200004007D8F9316470163D106029387C183BF
:107630009C43C9C7EF000075BD679387F77F376725
:1076400000402322F7C483D7018E03570400F98F2B
:1076500093F707109DC34167B76700409306F7EFA4
:1076600023A2D7C483A687C413960601634C0604DD
:1076700023A8018A1D45EF00807C05616FB08FADA6
:107680003967B76600407D1723A2E6C4035704009C
:107690007D8F93163701E3D406F8BD67FD17376772
:1076A00000402322F7C40145EF00607983D7018EA3
:1076B000BDB7EF10003B83D7018E39BF0945EF00FE
:1076C00000789DBF1386018B14428D45850623A843
:1076D000D18A1442E3F0D5FA83A607C47D17A18AA4
:1076E000D1FA03A607C42145938707C0798E23AA40
:1076F000C18A8C431396260000102296F98D232010
:10770000B6FE85069107E396A6FE9386418B9042CE
:10771000B7650040B76700401366160023AAC18A08
:107720009042798E23A0C5C49042799A23AAC18A37
:107730009442758F23A0E5C403A747C4137707407D
:1077400065DF41671307F7BF416623A2E7C47D16D3
:10775000938707C00147A145931627000810AA96F2
:1077600083A606FE91070507F18E23AED7FEE3152B
:10777000B7FEFDBD97A7FF1F83C7E70C81C79547DD
:1077800023A2F18C8280914723A2F18C8280828097
:1077900091E5854733B5A7000605828009458280BB
:1077A00011C51795FF1F130525A982809387418D69
:1077B0009C431D472398E7008280EFB26F97EFF05C
:1077C0003FFE6FB02F99EFB2AF969384418D9840F2
:1077D00085468347070093F7F707638BD702930625
:1077E000100209456394D702834617006386F604A6
:1077F00093070002639CF60017040000130424FCA6
:1078000000CF231907000145029401456FB08F9402
:1078100083472700930620026385D7029306100250
:107820000945E395D7FE170400001304C44F00CFA9
:10783000014502949840E9B717040000130484F648
:10784000C1B7170400001304E44AD5B79387418DEC
:10785000984393061002014583470700034717002A
:1078600093F7F7076383D70082801307E7FD137749
:10787000F70F05453335E50006058280EFB24F8BE3
:107880009387418D9C4323850700C129B76500403C
:10789000B76700408566938707C09386F6F0138626
:1078A00005C298439107758F23AEE7FEE39BC7FEA1
:1078B0009307F00F23A2F5C4EF10901881450145FE
:1078C00023A2018CEFF0BF955145EFB08F9785450E
:1078D0000545EFF0DF946FB0EF87EFB26F859387C8
:1078E000418D179700001307276E9C4303477700CD
:1078F000014523950700A384E700EF10406293053C
:1079000000200145EF10A062C1450145EF10206441
:10791000930500050145EF10207F93050006014502
:10792000EF10807C0145EF1020759785FF1F83C500
:10793000A5790145EF1030050145EF10E06CB76601
:10794000004003A606C0C1671387F7FF931716010F
:1079500063DF070083A706C0F98F05671307F7F0F9
:10796000F98F316713070708D98F23A0F6C037674F
:107970000040832707C093F7070485C3832707C008
:10798000C166FD16F58F85669386F6F0F58FA166C4
:107990009386060CD58F2320F7C09305006005451C
:1079A000EF10E058930500020545EF10405A93058B
:1079B00000070545EF1040739305000B0545EF10D8
:1079C000A074930500040545EF10E07B8D65054527
:1079D000EF10605C37670040832747C093F70704C8
:1079E00085C3832747C0C166FD16F58F85669386DC
:1079F000F6F0F58FA1669386060CD58F2322F7C08B
:107A0000B766004003A646C0C1671387F7FF931708
:107A1000160163DF070083A746C0F98F05671307C8
:107A2000F7F0F98F316713070708D98F23A2F6C043
:107A300081450945EF10A04F930500020945EF105D
:107A400000519305000D0945EF10006A9305000FE2
:107A50000945EF10606B930500020945EF10A07215
:107A60008D650945EF102053B766004003A686C018
:107A7000C1671387F7FF9317160163DF070083A71A
:107A800086C0F98F05671307F7F0F98F3167130781
:107A90000708D98F23A4F6C037670040832787C023
:107AA00093F7070485C3832787C0C166FD16F58F4A
:107AB00085669386F6F0F58FA1669386060CD58FC2
:107AC0002324F7C081450D45EF1060469305000261
:107AD0000D45EF10C047930500110D45EF10C06034
:107AE000930500130D45EF102062930500020D452C
:107AF000EF1060698D650D45EF10E049B7660040F5
:107B000003A6C6C0C1671387F7FF9317160163DF8B
:107B1000070083A7C6C0F98F05671307F7F0F98F31
:107B2000316713070708D98F23A6F6C037670040CF
:107B30008327C7C093F7070485C38327C7C0C166DF
:107B4000FD16F58F85669386F6F0F58FA166938610
:107B5000060CD58F2326F7C0930500601145EF1062
:107B6000003D930500021145EF10603E930500179C
:107B70001145EF1060579305001B1145EF10C058D9
:107B8000930500041145EF1000608D651145EF105D
:107B9000804037670040832707C193F7070485C3F8
:107BA000832707C1C166FD16F58F85669386F6F0BB
:107BB000F58FA1669386060CD58F2328F7C0B7668C
:107BC000004003A606C1C1671387F7FF931716018C
:107BD00063DF070083A706C1F98F05671307F7F076
:107BE000F98F316713070708D98F23A8F6C001451D
:107BF000EF009062854723A2F18C6FA0BFD5EFA262
:107C00003FD393850183EF00807F6FA0BFD4EFA2A5
:107C10003FD293858182EF00807E6FA0BFD3938790
:107C2000418D9C43A14683C5370083D7470063EF4E
:107C3000B608EFA2FFCF930600412A86139755009E
:107C40006388D70863F9F602856693854690638A50
:107C5000B70093864610638CD7049306404163882F
:107C6000D7029785FF1F93856547BA953285EF0048
:107C700000796FA03FCE93068040638BD7049306B4
:107C8000C0406386D70093064040E39CD7FC9787AB
:107C9000FF1F9387A744B385E70083D64501F9D634
:107CA00093050701BE953285EF006075D9B79787B8
:107CB000FF1F9387A742B385E70083D6C501C5DAC6
:107CC00093058701BE95EF00807365B701458280FB
:107CD0009787FF1F93878740B385E70083D6C5004A
:107CE000D1D693058700BE953285EF00407151B71C
:107CF0009387418D9843854783455700F11513F7C6
:107D0000F50F63F4E70001458280EFA27FC29787F9
:107D1000FF1F9387A74E8E05BE95EF00406E6FA0A4
:107D20007FC39387418D9843854783455700F1155D
:107D300013F7F50F63F4E70001458280EFA25FBF00
:107D40009787FF1F938787388E05BE95EF00206BBE
:107D50006FA05FC0828082808280B7670040054745
:107D600023A0E7C423A007C4096723A207C41307FD
:107D700007C02390E18E0967130707C023A0E7C45B
:107D800001458280EFA2DFBA37660040832806C42F
:107D90004165130606C0C20893D80801814797A51C
:107DA000FF1F9385A5A77D1521481442139727002F
:107DB0002E97E98E14C385071106E39807FF13F881
:107DC000E8FFB767004013E70840420823A0E7C474
:107DD00093E818401358080123A017C513670840FB
:107DE00023A0E7C403A747C41377074065DF4167B3
:107DF0001307F7BF416623A2E7C47D16938707C028
:107E00000147214593162700AE9694429107050736
:107E1000F18E23AED7FEE317A7FE37670040136845
:107E20008840232007C5832707C4C207C18393E77F
:107E300047002320F7C4EFF06FBC6FA0BFB19D4790
:107E40006304F50023AEA18A9386C18B9C4215473B
:107E50006362F70EEFA2DFAD172700001307479408
:107E60008A07BA979C43BA9782873767004083276F
:107E700007C4C207C18393E707012320F7C49547CE
:107E800023AEF18AA9472380F18C6FA0BFAC83C7D2
:107E90004600FD172380F18C83C7460093F7F70F48
:107EA000EDF737670040832707C4C207C183BD9B36
:107EB000C207C1832320F7C4994723AEF18A23A4C4
:107EC000018CE1B79387818C9C43ADCB954723AE62
:107ED000F18A65BF37640040832704C4C207C183A9
:107EE000ED9BC207C1832320F4C4EFF0AFB1B167AB
:107EF000938707F02320F4C4914723AEF18A854786
:107F000023A4F18C6FA01FA589472380F18C8D4796
:107F100023AEF18A6FA01FA483C74600FD172380FC
:107F2000F18C83C7460093F7F70FA5F3914723AE73
:107F3000F18AA1BF994723AEF18A8280376400405D
:107F4000832704C4C207C183ED9BC207C1832320DA
:107F5000F4C4EFF02FABB167938707F02320F4C48C
:107F6000994723AEF18A15B711CDEFA27F9C938775
:107F7000C18D9C439C4382979387418D88432905FB
:107F80006FA05F9D9387418D9C4305472398E70031
:107F9000828011CDEFA2DF999387C18D9C439C47CE
:107FA00082979387418D884331056FA0BF9A93874D
:107FB000418D9C4305472398E70082809387418D3C
:107FC000984359C92398018C8347070093F7F70713
:107FD00095EB83479700014793F6070291C2094743
:107FE00093F70704ADC3136717002388E18CEFA252
:107FF0003F949387C18D9C439C4B82971385018D41
:108000006FA05F9585461385018D638BD7048946E4
:1080100001456397D70403475700B766004093862E
:1080200006C09377F7008A07B69762079C4361877B
:10803000634E07008D660567F58FE39AE7FA85477B
:108040002388F18C6DB72388E18C55B7414793F7AE
:108050000703E39EE7F8E5B789472318F700828016
:108060008280EFA25F8B9389418D83A4090003D4A2
:10807000040109E803C9840091476306F906114920
:10808000014409A883D7440163FA8706094963F3C9
:1080900087003E849C4C42044180228582972A8A34
:1080A0000145EF1080082286AA855285EF00D06234
:1080B000A2850145EF10400B03D7240183D70401AB
:1080C000818F3A942398F400239984009307000346
:1080D00083A409002392F18E8D672391F18E23846E
:1080E00024016FA09F869387C18C984385476309BD
:1080F000F700C1472392F18E1D49D5B7114941BF01
:10810000B767004083A707C5373700200907C207B4
:10811000C183BA97860723A0070093070003239221
:10812000F18E23A6018C65BF9387418D9C4383C646
:108130009183094503C7370063E4E60283C627003D
:1081400085E283D6470089EEEFA28FFE9386C18D2C
:1081500094422385E700DC42829701456FA08FFFA0
:108160008280EFA2EFFC1384418D1387818D1C4028
:108170001843411183C53700184F03C557000297B4
:108180001C4003C7A7001DCB2AC60DE903C7470043
:1081900015E783C727009DE39387C18D9C43DC4788
:1081A00082971C40324583C6570003C73700A3851A
:1081B000D7002386E70041016FA0CFF909454101AF
:1081C0006FA04FF99387418D98438347070093F73A
:1081D000F707B5CF894609456383D7008280835668
:1081E00027003E85E5FE83464700EDFAEFA24FF4F7
:1081F00083475700B7660040938606C013F6F7F72B
:10820000131426003694E2071440E18763C907047B
:108210008D65ED8E83C5818309456378B60295C669
:108220000347A7001DC363CF07021C40C164FD14B0
:10823000E58F0D69B3F7270105676386E704938728
:10824000C18D9C43DC4B829701456FA0AFF0834703
:108250009700014593F7F7FDA304F700828093F69A
:1082600006034DBF1C40414793F70703E399E7FC22
:108270001374F60F2285EF00306493050003228506
:10828000EF00F04C6DBF31E69785FF1F83C5C5E356
:108290000145EF00506F1840F1779387F7F87D8F15
:1082A00042078D6741833D8FE177938707085D8F94
:1082B0004207418318C01C40E58FB3F72701E380D4
:1082C00027F98D6618C01C40E58FF58FE39CD7FE1B
:1082D000BDB73285EF00105B1840F1779387F7F850
