:042800006F70F040C5
:102804000028000000000000C03B0000C43B0000A2
:10281400000000000CA40000000000000000000004
:102824000CA400000CA40000000000000000000044
:102834000CA40000000000000CA400000000000034
:102844000CA400000CA400000CA400000CA40000C4
:102854000CA400000CA400000CA400000CA40000B4
:102864000CA400000CA400000CA400000CA40000A4
:102874000CA400000CA400000CA400000CA4000094
:102884000CA400000CA400000CA400000CA4000084
:10289400968400000CA400000CA400000CA400000A
:1028A4000CA400000CA400000CA400000CA4000064
:1028B4000CA400000CA40000208000000CA4000064
:1028C4000CA400000CA400000CA400000CA4000044
:1028D4000CA40000C07700000CA400000CA40000AD
:1028E4000CA400000CA400008A8400000CA40000C6
:0C28F4000CA400000CA400000CA40000C8
:10290000397101436EC619A0397141536AC866CA4C
:1029100062CC5ECE19A0397101535AD056D252D42E
:102920004ED64AD826DA22DC06DE330161408282A6
:1029300041114AC026C222C406C68282B24D41015C
:10294000024D924C224CB24B4101024B924A224A18
:10295000B2494101024992442244B240410182807D
:102960002A8309CA83830500230073007D160503AB
:1029700085056DFA828015C22A8385466367B50096
:10298000FD561307F6FF3A93BA958383050023009B
:1029900073007D163693B6956DFA82802A8311C630
:1029A0002300B3007D16050365FE8280B7F700E0C3
:1029B000D8438146799BD8C303C721863306A70233
:1029C00037F700E090CBD4CB944393E6060194C351
:1029D000944393E6160294C35C43858BF5DF1C4356
:1029E000F99B1CC38280B7F700E0D8438146799BEE
:1029F000D8C303D701863306A70237F700E090CB90
:102A0000D4CB944393E6060194C3944393E6160211
:102A100094C35C43858BF5DF1C43F99B1CC3828008
:102A20009C4103A88501D04DD4415841B3E707012B
:102A3000D18F3706F1E0A2061306F6EF718FD58F1E
:102A4000D98F5CC1D0459C4994451845D18F37F644
:102A5000F1FF86061306D67F718FD58FD98F1CC5DF
:102A600083C745015855B70610FFFD1793F7F70FB9
:102A7000FD16758FD207D98F5CD582801C4589C51C
:102A800093E717001CC58280F99B1CC582801C45FA
:102A900089C593E707101CC5828093F7F7EF1CC523
:102AA00082801C4593E787001CC5828008450D8104
:102AB000058982801C4593E747001CC58280084534
:102AC0000981058982801C4591C537075000D98F3F
:102AD0001CC582803707B0FF7D17F98F1CC5828027
:102AE000A54763F7B704938765FF139717003E97D1
:102AF0000328C5009D47B397E70093C7F7FFB3F7D7
:102B00000701B396E600DD8E54C5994763E5C70417
:102B10007D16931726003E965859FD47B397C70078
:102B200093C7F7FFF98F3396C5005D8E50D9828029
:102B300013971500032805012E979D47B397E700CB
:102B400093C7F7FFB3F70701B396E600DD8E14C90C
:102B50009947E3FFC7FAB14763E2C70265169317C7
:102B600026001459B2977D473317F7001347F7FF34
:102B7000758FB397F500D98F1CD982804D16131726
:102B8000260054553297FD47B397E70093C7F7FFE8
:102B9000F58FB395E500DD8D4CD582805C4191C504
:102BA00037070004D98F5CC18280370700FC7D178E
:102BB000F98F5CC18280011123030100034761008A
:102BC000A54763E5E70425461C4593E787001CC538
:102BD0001C45A18BF5FF1C4593E747001CC51C4510
:102BE000918BF5FF744583476100034761008607B9
:102BF00005071377F70F2303E100938707020347C5
:102C000061008A972396D7FEE370E6FC2303010058
:102C100003476100A54763EAE70A2146A545A303E8
:102C20000100834771006367F6080347710083471B
:102C300071000607850786071307070293870702B7
:102C40000A978A970357C7FE83D7C7FE63F9E7043D
:102C5000834771008607938707028A9783D7C7FE49
:102C60002314F1000347710083467100834771000C
:102C700005070607130707020A970358C7FE8507CB
:102C800013971600035581001307070286070A975A
:102C900093870702231607FF8A972396A7FE834789
:102CA0007100850793F7F70FA303F10083477100C5
:102CB000E37DF6F683476100850793F7F70F23035B
:102CC000F10083476100E3FCF5F4231401002315B0
:102CD00001002303010003476100954763ECE7040B
:102CE00093060060154625A88347610003578100BD
:102CF00089078607938707028A9783D7C7FEBA9703
:102D0000C207C1832314F10083476100850793F74D
:102D1000F70F2303F10083476100636DF6008347DB
:102D2000610089078607938707028A9783D7C7FEC2
:102D3000E3FCF6FA834761006385071003578100BF
:102D4000834561008357810003466100834661002B
:102D50003347B702B3E7C7028607B3C7D702BA97AC
:102D6000C207C1832314F100034761009947998F7B
:102D700093F7F70FA303F10083477100F5C30347EF
:102D80006100954763EEE70295468347610003576C
:102D9000A10089078607938707028A9783D7C7FE12
:102DA000BA97C207C1832315F100834761008507E5
:102DB00093F7F70F2303F10083476100E3F7F6FC75
:102DC0000357A100834571008357A100034671009A
:102DD000834671003347B702B3E7C7028607B3C71C
:102DE000D702BA97C207C1832315F10003558100AA
:102DF0008355A100835781000356A1008566130700
:102E0000004093860680B307F7403386C640098F9B
:102E10008D8EC2074206C18741864207C206B2971D
:102E2000C1864187369793D6F7011355F701B697B8
:102E30003A95858B0585958F3E95420541850561BF
:102E40008280930700402314F100034761009947F3
:102E5000998F93F7F70FA303F1008347710085F370
:102E60008567938707802315F10049B71C414167A7
:102E70007917F98F1CC12320050023220500232484
:102E80000500B70702402326050013878700630467
:102E9000E5041387C701630BE50213870703630784
:102EA000E50413874704630AE5041387870563096C
:102EB000E5021387C7066307E5041387070863095C
:102EC000E504138747096308E5008280D843136748
:102ED000070FD8C38280D8431367F700D8C3828016
:102EE000D843B7060F00558FD8C38280D843856674
:102EF000938606F0558FD8C38280D843BD66558F20
:102F0000D8C38280D843B706F000558FD8C38280DB
:102F1000D843B706000F558FD8C3828090519C4587
:102F20009449D84983A88501D18FD58FD04DD451EC
:102F3000D98FB3E71701184103A88502D18FD58F28
:102F4000E176BD06D045758FB3E707019441D98F6F
:102F50001CC1DC4150C114C55CC582801C4189C5BF
:102F600093E717001CC1828041677917F98F1CC154
:102F700082804CC18280B70702409C437D8D3335EF
:102F8000A0008280B7070240C8C3828058410C412C
:102F90000328C500B7060140938706403E9713C635
:102FA000F5FF6303080483A8064003288500414316
:102FB000B3F8C80023A01641D443F18ED4C3144300
:102FC000CD8E14C3184190479346F7FF758E90C776
:102FD000D047F18ED4C7630D68003E988327080060
:102FE0005D8F2320E80082801C43F18F1CC3828008
:102FF0009447D98E94C7D447558FD8C78280B707D6
:10300000014023AAA7408280B7066745B727024040
:10301000938636123797EFCDD4C31307B79AD8C328
:10302000D4D3D8D38280372702401C4BA166D58FDA
:103030001CCB8280B7270240984BB706020013755D
:1030400005F0558F98CBC8CB944B3727024093E6B9
:10305000060494CB5C47858BF5FF1C4B8176FD16EF
:10306000F58F1CCB8280372702401C4BC16613753D
:1030700005F0D58F1CCB5C47858BF5FF37270240C9
:103080005C47898BF5FFAE86158D93850510372734
:1030900002409042B387A600910690C35C47898B9B
:1030A000F5FFE398B6FE1C4B37062000B72602401A
:1030B000D18F1CCBDC46858BF5FF9C4A41777D1771
:1030C000F98F9CCA828003A8850093770801137E3C
:1030D000F80081C7DC41336EFE00B7270240985BE1
:1030E000B707000FF98FE9EB8547A381F186B71782
:1030F0000140630AF50C83D6050093F7F60FB5E39C
:103100009307F00F63FED70403234500014785486A
:10311000930E8002130F8004A14521A00507630FC1
:10312000B70293078700B397F80033F6D700E39709
:10313000C7FE6301D80B6313E8011CC913162700EF
:10314000BD47B397C70093C7F7FF33F36700331644
:10315000CE00336366000507E315B7FC2322650044
:1031600082800323050081478548930E8002BD4F6E
:10317000130F8004A14521A08507638CB702339704
:10318000F8003376D700E319C7FE6304D80763134A
:10319000E80118C9139727003396EF001346F6FF8E
:1031A000337366003317EE00336367008507E398D7
:1031B000B7FC23206500A9B7B7170140E31DF5F25E
:1031C00083C731868DDB83D60500B5822390D50079
:1031D000C9FA8280131627005CC9BD47B397C700A0
:1031E00093C7F7FF33F367003316CE0033636600EF
:1031F0009DB758C9139727003396EF001346F6FF83
:10320000337366003317EE003363670045B7B717B3
:1032100001406307F5001C45FD8D3335B000828009
:1032200083C73186EDDB1C45B581FD8D3335B0009C
:103230008280B71701406304F5000CC9828083C700
:103240003186E5DFB5810CC98280B7170140630480
:10325000F5004CC9828083C73186E5DFB5814CC952
:103260008280EFF2EFEC8357450001112A84680059
:10327000939407012E89052ED24737470F00130775
:10328000072433D7E702C18093F404FCC204C18051
:103290000326090061651305056A93150701C181BD
:1032A000CD8C2312940083560400C206C182F99A81
:1032B000C206C1822310D4006363C5060606B3D7D5
:1032C000C702114793960701C18263E0E60A8505AC
:1032D000C205C181C207C1832310B402231EF400BA
:1032E00083570400835649008355A90093E71700CC
:1032F0002310F400835704000357C90003568900C4
:10330000C207C183CD8E93F757BFD58F2310F4002A
:10331000B367C7002314F40005616FF0AFE3835572
:103320006900B166FD166384D50493161600B29643
:103330008E06B296B3D7D7029166C207C183D58FE6
:103340009396470199E293E717009306C01233075B
:10335000D702A166D58F9306803E3347D702050773
:10336000420741832310E40295BF91478DB793161E
:103370001600B296B3D7D702C207C183D1B783571D
:10338000050091C593E717002310F5008280C2075E
:10339000C183F99BC207C1832310F5008280835744
:1033A000050091C593E707102310F5008280C2073E
:1033B000C18393F7F7EFC207C1832310F500828022
:1033C0008357050091C593E707202310F5008280FD
:1033D000C207C18393F7F7DFC207C1832310F5004B
:1033E00082808357050091C593E707402310F500BD
:1033F0008280C207C18393F7F7BFC207C18323103E
:10340000F50082802318B500828093F7E50F19C27A
:1034100093E715002318F50082808357050091C5B6
:103420002167D98F2310F5008280C607C58323103A
:10343000F5008280035745018357850113950701E5
:10344000598D6D8D220521810D8D133515008280DA
:10345000411102C402C693D7C5012AC63EC4A24781
:10346000A205A18199CBB247D1073EC6B247884396
:1034700041016D8D3335A0008280B247C181E107E3
:103480003EC6B247884341016D8D3335A00082802E
:103490009387418698430346050015EB8347250033
:1034A00037E700E09207329793F7F70F2300F740D2
:1034B00054410547935756003317C70085CE93876D
:1034C00007048A07B7E600E0B69798C3828098435E
:1034D00085466309D7028C430947638EE504984308
:1034E0008D466300D70498439147E313F7FC834765
:1034F00015007DB7938707068A07B7E600E0B69701
:1035000098C3828083472500834615009207638015
:10351000E60437E700E093F7F70F32972300F74010
:1035200041BF83461500834725006365D7028606A1
:10353000B6979207F9BF034715008347250063FF3D
:10354000E60079170A07BA9793F7F70F920793E700
:1035500007F8C1B7F1168606B697FDB70A07BA97FE
:10356000920745BFB7160240DC4271771307F77F19
:10357000F98F0E055D8DC8C28280B7170240D8430F
:10358000B70640FFFD16758FD8C3D8435A05598D2D
:10359000C8C38280B7160240DC4251777D17F98F8D
:1035A000C98FDCC28280B7160240DC42214613F785
:1035B000C700B7177A00938707206302C7061CC1AC
:1035C00037160240584297D6FF1F9386A6A3118351
:1035D0003D8B369703470700B3D7E7005CC15842DD
:1035E00021831D8B36970347070033D7E70018C5A3
:1035F00058422D831D8BBA9603C7060097D6FF1F2E
:10360000938646C6B3D7E7005CC5584239830D8B15
:10361000369703470700B3D7E7021CC98280DC4214
:10362000D8424166C983BD8B8907C546718F638EB9
:10363000D70211EF3747024003270780418B19CF8C
:1036400037177A0013070720B387E7028DBF3717B4
:1036500002405843B7060200758F7DD337173D00EF
:1036600013070790B387E70299BFC9476DF3D9B72E
:1036700099C5371702405C4BC98F5CCB8280B71766
:103680000240D84B1345F5FF798DC8CB828099C590
:10369000371702401C4FC98F1CCF8280B7170240DA
:1036A000984F1345F5FF798D88CF828099C53717DC
:1036B00002405C4FC98F5CCF8280B7170240D84F61
:1036C0001345F5FF798DC8CF828003D6250083D7B7
:1036D000050083D6450003D7650083D88500D18FC8
:1036E00003D8A500D58FD98F83D6C500B3E71701BE
:1036F0000357050003D6E500B3E70701D58F8D66B4
:1037000093860604758FD18FD98F2310F5008357C8
:10371000C5017D7783D605011307F77FF98F231E37
:10372000F5002318D50082808357050091C593E7E3
:1037300007042310F5008280C207C18393F7F7FBCB
:10374000C207C1832310F50082808357450009C654
:10375000CD8F2312F500828093C5F5FFED8F2312E4
:10376000F50082808357450091C593E747002312F7
:10377000F5008280C207C183ED9BC207C18323127B
:10378000F50082808357050037370140130707C0D3
:10379000C20783D6050003D6450003D86500C18360
:1037A0006307E504370700406300E502130707409D
:1037B000630CE50037170040930807806306150186
:1037C000130707C06317E50003D7250093F7F7F841
:1037D000D98F93F7F7CFB3E707012310F50023162E
:1037E000C5022314D5028547231AF500828003D72A
:1037F000250093F7F7F8D98F93F7F7CFB3E70701D1
:103800002310F5002316C5022314D50283C78500B3
:103810002318F5028547231AF50082808357050097
:1038200091C593E717002310F5008280C207C1837A
:10383000F99BC207C1832310F50082808357C5001E
:1038400009C6CD8F2316F500828093C5F5FFED8F55
:103850002316F50082808357C50009C6DD8D231627
:10386000B500828093C5F5FFED8F2316F5008280A9
:1038700083578500C207C183E19BC207C18323141C
:10388000F50082802314B502231AC5008280835775
:103890000500C207C18393F7F7F8CD8F2310F50019
:1038A000828083578501C207C183DD9BCD8F231C96
:1038B000F50082808357C501C207C183DD9BCD8F90
:1038C000231EF50082808357C5017D771307F77F9C
:1038D000F98FA205CD8FC207C183231EF500828018
:1038E00083570502C207C183F59BCD8F2310F502D4
:1038F000828083570502A205C207C18393F7F7DFD1
:10390000CD8FC207C1832310F50282808357050241
:1039100079777D17F98FB205CD8FC207C183231048
:10392000F5028280035705028547B397B70093C716
:10393000F7FF7D8F2310E502835705023316B6008B
:10394000D18FC207C1832310F5028280035705027D
:103950008547B397B70093C7F7FFF98F2310F50298
:1039600093F775FF610595C3F115C205C181858186
:10397000AA959C4165777D17F98F9CC19C412206D1
:10398000420641825D8E90C182808581AA959C41CC
:1039900093F7F7F89CC19C415D8E90C182802316FD
:1039A000B5028280231AB5028280231EB50282806E
:1039B0002310B504828083570500C207C18393F7A3
:1039C000F7CFC207C1832310F50083570500CD8FC1
:1039D0002310F5008280835705010355C500ED8F44
:1039E0004205418189C76D8D3335A0008280014534
:1039F000828093C5F5FFC205C1812318B50082807E
:103A0000EFE21FF30357050183D76500F576FD1636
:103A1000758FD98F03D7C5002318F5008356C500CD
:103A200083D745007D762A841306369F03D585000B
:103A3000F18EAE8483D5A500D58FC98FCD8F231687
:103A4000F4008357440101116800C207C18393F752
:103A5000F7CFD98F231AF400B936B74701409387BF
:103A60000780630BF40852468356C4009317160070
:103A7000B297C2068E07C1869840B29763C006040B
:103A80000A07B3D7E702930640060356C40042066E
:103A9000418633D7D702B3F7D70212076340060433
:103AA000920793872703B3D7D702BD8BD98FC2075D
:103AB000C1832314F40005616FE0DFE90607B3D783
:103AC000E702930640060356C4004206418633D7F8
:103AD000D702B3F7D7021207E35406FC8E07938789
:103AE0002703B3D7D7029D8BD98FC207C183231475
:103AF000F40005616FE01FE66246BDB78357C5005D
:103B000091C50967D98F2316F500828079777D17D3
:103B1000F98F2316F500828093F7F50F05479583FB
:103B2000B315B7006384E702894613074501638C28
:103B3000D7001C4301C6CD8F1CC3828093C5F5FFFF
:103B4000FD8D0CC3828013070501E5B71307C5007F
:103B5000CDB793F5F51F2312B500828003554500BC
:103B60001375F51F8280035505006D8D3335A00058
:103B7000828093F6F50F054695822A87B317B60023
:103B8000638BC60209466383C6028356450133F53B
:103B9000F60083570700C207C18301C9A181054709
:103BA0003317B700F98F3335F00082808356050153
:103BB00033F5F600F9BF8356C50033F5F600D1BFE3
:103BC0007300203001A0EFE2BFD603A7C18E954756
:103BD0002A84630AF70083474500A3040500A30273
:103BE000F5006FE03FD703457500EF60C0579307BE
:103BF0000002E318F5FE83455400834744006385C3
:103C0000F50663F6F506034784008D8F93F7F70FEB
:103C10009374F70F63E7E704834614000346040038
:103C20000347240083473400A206D18E4207558FF4
:103C3000E207D98F2686BE95138581B4EFE05FD267
:103C400083475400268603457400BE9493F4F4071A
:103C5000A3029400938581B4EF40102CA3040400C8
:103C600049B793F4F70F4DBF83479400BDDB93072B
:103C700000F851BFEFE2DFCB03A7C18E95470346A3
:103C800045002A846308F700A302C500A3040500C9
:103C90006FE05FCC83461500034724000345050011
:103CA00083473400A206C98E4207558FE207D98F99
:103CB000130716002302E400B2972380B70083475E
:103CC0004400834654001397870161871347F7FF29
:103CD0007D87F98F2302F400E39CF6FA8547A3045D
:103CE000F4002285CD3583479400E5FF6FE09FC641
:103CF000EFE21FC41384019183A6C18E1547834749
:103D000044006388E600A302F400A38C01906FE0F6
:103D10007FC41840938617002302D400BA972380EB
:103D2000A7008347440083465400139787016187A7
:103D30001347F7FF7D87F98F2302F400E399F6FC20
:103D40008547A304F4002285BD3D83479400E5FF29
:103D50006FE05FC0EFE23FBC9387C192C04B03C9E5
:103D600087019C4B1357840062093369E900A183E2
:103D70001306F00381456204130519005D8CEFE022
:103D8000FFC183461400054781552301D90003462E
:103D900024002302E900834744002300B900A30064
:103DA000C9002303E900A302F9009305000F638211
:103DB000B72663EBF52051476388E72E637AF71443
:103DC000130720086398E7220347740083466400C2
:103DD0000346540081450545EF10F0560347740033
:103DE000834664000346540085450545EF10B055F1
:103DF0000347740083466400034654008945054523
:103E0000EF1070540347A4008346940003468400D7
:103E10008D450545EF1030530347A40083469400B9
:103E20000346840091450545EF10F0510347A40077
:103E3000834694000346840095450545EF10B05035
:103E40001309B400994493091002034729008346DB
:103E5000190003460900A6858504054593F4F40F6F
:103E6000EF10704E0D09E39234FF0347B40B834605
:103E7000A40B0346940B81450145EF10D04C03473A
:103E8000B40B8346A40B0346940B85450145EF1004
:103E9000904B0347B40B8346A40B0346940B894510
:103EA0000145EF10504A0347840B8346740B0346C9
:103EB000640B8D450145EF1010490347840B834681
:103EC000740B0346640B91450145EF10D04703473F
:103ED000840B8346740B0346640B95450145EF1034
:103EE00090461304340B994413091002034724002D
:103EF0008346140003460400A6858504014593F417
:103F0000F40FEF1050447514E39224FF6FE0FFA309
:103F100041476384E71A4547639EE70C8345540095
:103F2000034764000945A303B9002304E90095454C
:103F300013077900B2968506B697AE978507A30159
:103F4000B90093F7F70F3306A7008346070005076C
:103F5000B69793F7F70FE31AE6FE9305000E4A951E
:103F6000A303F5001385C192313305448544938939
:103F7000C19219A801338347390005041374F40F63
:103F80009107A28463CE8702CA9483C504004E853C
:103F90009387050393F7F70EF1FF9305000DD939C9
:103FA00083C504004E850504FD1593F5F50FD93141
:103FB000834739001374F40FA2849107E3D687FC7A
:103FC000EF40801F6FE07F989305200F638BB7123F
:103FD0009305300F6397B700A303E9002304E900BA
:103FE00029A01307100F6397E7000D4599451307A4
:103FF000790089B736967D57B2978D072302E9007D
:104000000D47A301E90093F7F70F9305000E014553
:10401000B9B717670000130767490345070097659D
:1040200000009385654903C3050083C8150003C8D4
:104030002500A303A90003C5350083C545008343BC
:10404000170083422700834F3700034F4700834EFA
:104050005700034E670003477700230AB900FD5558
:104060002307E900A30AB9002947930500FAA3072B
:10407000E900A309A900230BB90023047900A304D4
:1040800059002305F901A305E9012306D901A30677
:10409000C90123086900A3081901230909011307AD
:1040A00079004145CD4579B5034754000545914513
:1040B000A303E90013077900B5BD81460146814598
:1040C0000545EF10D02F8146014681450145EF108F
:1040D000102F0347290083471900034649008346F0
:1040E0005900BA978D0703476900B297B697BA97F8
:1040F0000D4783450900A301E90093F7F70F014538
:10410000B9BD1307A0FAA303E90013073005230480
:10411000E900094595451307790029BD83C7018B3F
:1041200081E78547238DF1868280EFE2CFFE1387FA
:1041300001915C4B83448701238D0186A183E204B6
:10414000DD8C03C654009305660093F5F50F2380BC
:10415000B400D1C11506938714001376F60F3E966E
:1041600026878147834607000507B69793F7F70F21
:10417000E31AC7FEA6952380F500138501919305E8
:10418000000ECD3C01449389019109A8E53483C711
:10419000040005041374F40F63ED8702338984006F
:1041A000834509004E859387050393F7F70EF9FFC2
:1041B0009305000DC134834509004E850504FD15A6
:1041C00093F5F50F453C83C704001374F40FE3F730
:1041D00087FC6FE08FF7814771BFEFE26FF5938740
:1041E0000191C44B03C487019C4B13D78400620424
:1041F000598CA183E2041306000881452285DD8CD9
:10420000EFE0CFF903C7240083C6140083C734004E
:104210002301E40019472300E400A300D400A30114
:10422000F400130710086367F7021307F0026375C1
:10423000F704938707FD93F7F70F13071005636DD6
:10424000F702176700001307A7278A07BA979C434E
:10425000BA9782871307000F6388E7021307500F8E
:10426000639CE70083C7018B81E78547238DF18637
:10427000EF3090746FE00FEE13060008A2851385EF
:104280008194EFE0EFEDF9BF976700009387C737A0
:1042900003CE070003C3170083C8270003C83700F5
:1042A00003C5470083C5570003C6670083C6770070
:1042B00003C78700BD472300F400A547A302F4000D
:1042C0002303C401A303640023041401A304040111
:1042D0002305A400A305B4002306C400A306D4004C
:1042E0002307E40083C7018BC9D359B79D47230037
:1042F000F400930740F92303F4008547A302F40078
:1043000083C7018BBDD3ADB7138454002285EF0062
:10431000701C29F903C694001387C1868146914514
:104320002285EF10507FA9B703C5940013096400DC
:10433000CA85EF00502063070510834704004147FA
:10434000A302E400C1072300F40083C7018BE38EBE
:1043500007F039BF85450145EF10B07383C7018B66
:10436000E38507F031B781450145EF10907283C7AF
:10437000018BE38C07EEEDBDEF200019D5BD03C81E
:10438000540003C5640083C5740003C6840083C65B
:10439000940003C7A4009387C18623800701A380EC
:1043A000A7002381B700A381C7002382D700A3827F
:1043B000E70083C7018BE38A07EA5DBD930700022C
:1043C0002302F40083C7018BE38107EA55B5930606
:1043D000F00F1306F00F9305F00F0945EF10207E44
:1043E00051B5EF20F05C69B583C6740003C6640064
:1043F00083C554000945EF10807C83C7018BE38699
:1044000007E6BDB503C8540003C5640083C5740046
:1044100003C6840083C6940003C7A4009387418722
:10442000ADBF138454002285EF00D00AE31C05E2DF
:1044300003C6940013874187854691452285EF1076
:10444000906D3DB503C59400CA85EF10107A0DB587
:10445000EFE28FCB1384C1921C48834B4401034786
:10446000A400A183E20BB3EBFB0055CF370B000197
:104470009389B1867D1B130C000E954C930A000D99
:10448000138AA18613090002FD545C440346B4005C
:104490008346F400B3F76701A207D18FB69783C7AD
:1044A000070003C6090063828709630C560963820B
:1044B000570B8345040103460A001448034744018F
:1044C000A1826207558F2E972300F700034704014E
:1044D00005071377F70F2308E40063F7EC0083C6A2
:1044E0003B006D17630CD7080347A4008345F40015
:1044F000938607F3B336D0007D17B306D0403E96BF
:104500001377F70F8505F58F2300CA002305E40014
:10451000A307B4002380F9002DFB0945EF50F045B7
:104520000347A4003DF36FE0AFC1630C5601238E37
:10453000019223002A01A3819B00130600028145FA
:10454000ADBF85078345040103460A0093F7F70FC3
:10455000ADB77D171377F70F8506930700FD23800E
:10456000F9002305E400A307D40005F30945A3855A
:104570000186EF5090400347A4006DB7638CC702DB
:104580000347A4008347F400238E01927D1713771D
:10459000F70F850723850186A38501862305E4009F
:1045A000A307F400E31307EE0945EF50103D03475E
:1045B000A4008DBFEFF00FFAE1B7EFE2EFB4138480
:1045C000019183C7018B0347A400639507161C481C
:1045D00083444401938A9186A183E204DD8C4DCF0C
:1045E000370C00017D1C930C000E938B8186154DBA
:1045F000130B000D130A00FDFD5901595C440346DD
:10460000B4008346F400B3F78701A207D18FB697B1
:1046100083C7070003C60A00638297096309660B14
:10462000638B670B14480347440103460401A182CE
:104630006207558F32972300F7000347040103C632
:104640000B0005071377F70F2308E4006377ED00ED
:1046500083C604007D176304D70A0347A40083457B
:10466000F400938607F3B336D0007D17B306D0402D
:104670003E961377F70F8505F58F2380CB00230532
:10468000E400A307B4002380FA002DFB0D45EF5092
:10469000D02E0347A4003DF36FE08FAA63096603A1
:1046A000238001927D17238034011377F70F85064D
:1046B0002384018623802A012305E400A307D40074
:1046C00015FF0D45EF50702B0347A400E9B7850790
:1046D00093F7F70F81BF7D171377F70F85062380B8
:1046E0004A012305E400A307D400E31907F00D45B0
:1046F000A3840186EF5070280347A40069BFF13CF2
:104700000347A4008347F400238001927D171377A9
:10471000F70F850723840186A38401862305E4001F
:10472000A307F400E31C07EC0D45EF5010250347E9
:10473000A40095B721CF0347F40037090001B7441F
:1047400001407D19938404805C448346B40026852F
:10475000B3F72701A207D58FBA9783C50700EFF0FB
:104760004FBF930500082685EFF0EFBF7DD90347C3
:10477000F4008347A4000507FD171377F70F93F79D
:10478000F70FA307E4002305F400DDFF0D45EF500C
:10479000D01E6FE0EF9AEFE2AF995D39393D138596
:1047A000C192EFF04FC213850191EFF0CFC183C7E3
:1047B000A18799E36FE00F9AEFF03F976FE08F9931
:1047C000EFE20F979384C18003C404009307F00FB6
:1047D0006301F4049386C18783D706000567130736
:1047E00087388507C207C1832390F6006366F70AFE
:1047F00009496301240F636089023DC837540040B2
:10480000B7050300850513050440EFE0BFC2631040
:1048100005106FE02F948D47E31DF4FE37590040DB
:10482000B70507009385450813050940EFE09FC0D1
:104830006DD1854513050940EFE09FB883C7E18737
:104840009386D180850703C70600238FF186239EB8
:10485000018683C7E18763EDE70C238F0186FD574F
:104860002380F4009547E316F7FA2380860055B7B6
:1048700037540040B705020013050440EFE05FBD68
:1048800049F9854513050440EFE07FB18547238052
:10489000F400239E0186B5BF375400401305044041
:1048A0008545EFE09FB7130504408145EFE0FFB673
:1048B000130504408145EFE09FAC85451305044096
:1048C000EFE0FFAB23860180238F0186239E0186C4
:1048D0006FE04F8837540040B705070093852508DF
:1048E00013050440EFE01FB5E30505F203C7E187B8
:1048F00093870181BA9783C5070013050440EFE051
:104900007FB08D472380F400239E018619B703C72B
:10491000E18793870185BA9783C507000146130590
:104920000440EFE09FAE23802401239E0186D5B58D
:1049300023860180F9BD03C7C1809307F00F63038D
:10494000F7008280EFD2DFFE1384B18003450400BC
:10495000239E018623860180EF306078814517050C
:104960000000130525E6EF30206F2300A4006FD070
:104970007FFE1345F5FF9357650093E707FC136728
:1049800005FC93F7F70F1377F70FA2073181D98F43
:1049900093860181136505FC2390F6002381A60010
:1049A00003C7C1809307F00F6303F7008280EFD243
:1049B0003FF81384B18003450400239E01862386BB
:1049C0000180EF30C071814517050000130585DFB8
:1049D000EF3080682300A4006FD0DFF7EFD25FF5DF
:1049E000056497C7FF1F938767D21304048022864C
:1049F0003E858145EFD09FFA228683A5C181EFD005
:104A00003FF66FD03FF5EFD2BFF299677390078002
:104A1000371702405C4301449384C18193E7070840
:104A20005CC313898181EFE02FDE88402295EFE09F
:104A30006FE0832509008840A2952295EFE0AFE260
:104A400013040410EFE02FDE93070480E9FF37170B
:104A500002405C4393F7F7F75CC399679387870835
:104A6000739007806FD01FEF23A20188828023A25A
:104A7000018803A78181AA8735C30347870085463C
:104A800001456303D7008280FDDFF5DD83C60700A3
:104A9000E39BE6FE03C717001306E002E315C7FE1B
:104AA00003C8050013068008E31FC8FC83C5150072
:104AB0001306400BE399C5FC83C5270003C63700E6
:104AC000938701882380D700A380E7002381B70064
:104AD000A381C700054523A2D18882800145828039
:104AE00003A541887D15133515008280EFD25FE460
:104AF000138441881840854741116313F70E23A2A0
:104B0000018879CDAA8541460A85EFD07FE59308D3
:104B100001010A87176500001305C5AF8566834745
:104B200007000507AA97B69783C70780A30FF7FE6C
:104B3000E397E8FE0348F1009305F100935748001E
:104B400093867700139726003697939627003A9816
:104B50003383D700330368401303D3FD4203135359
:104B600003016D180346E1004208135808018A87C3
:104B7000B28603C607008E06850713575600558F69
:104B8000A38FE7FEE396F5FE93767800A2060A87E8
:104B9000834707000507B697AA9783C70700A30FA7
:104BA000F7FEE397E5FEE31E68FA13076100A546EA
:104BB00083470700050713D64700BD8B63E2C60293
:104BC00063E0F602E396E8FE02479387814A98C3C2
:104BD0001247D8C3224798C73247D8C789471CC055
:104BE00041016FD03FD703A741888947631AF70077
:104BF00083A7818191C783C7870005476380E70A40
:104C000085472303F50093070002A303F500C1477E
:104C10002304F50003CF050083CE150003CE250045
:104C200003C3350083C8450003C8550083C665002B
:104C300003C77500A304E5012305D501A305C5013C
:104C400023066500A306150123070501A307D50068
:104C50002308E500034E06000343160083482600A0
:104C600003483600834546008346660003477600C6
:104C70000346560093071501A308C50123096500E3
:104C8000A3091501230A0501A30AB500230BC500DA
:104C90004D452383D700A383E700828013870188D3
:104CA0002303F500834507000346170083462700CA
:104CB000834737004147A303E50011472304E5007C
:104CC000A304B5002305C500A305D5002306F50000
:104CD0001D45828083A641880947AA8701456383D1
:104CE000E600828003A78181014565DF8346870056
:104CF0000547E398E6FEF5D71387018803C607004A
:104D0000834607006306D6000545134515008280DB
:104D100003C6170083461700E318D6FE03C6270014
:104D200083462700E312D6FE83C637008347370049
:104D3000E39CF6FCD9BFEFD2BFBF83A441880947EB
:104D4000639EE40003A781812A84014511C783463D
:104D5000870005476387E6006FD0DFBF01456FD04E
:104D60007FBFAE87F5D9414681453E85EFD01FC351
:104D7000630494000545CDB741469385814AEFD041
:104D80003FBE0545D1BFEFD2BFBA1384814B130696
:104D9000000481452285EFD07FC09307A0FA23004D
:104DA000F4009307101E2311F400EF30400D23127E
:104DB000A400EF00103DAA8713060004A285114548
:104DC0002313F400EF3050156FD0DFB8B7F7FF1F93
:104DD00083A6877E03A7C77E83A7077F93DF86000E
:104DE00013DF060193DE8601135E8700135307016C
:104DF0009358870113D8870093D5070113D68701ED
:104E0000A301D5002301F501A300E5012300D5018D
:104E1000A303E5002303C501A302650023021501D6
:104E2000A305F50023050501A304B5002304C5006F
:104E3000828091BFEFD2DFAF1384814F034704001C
:104E40009307A00A6304F7006FD0DFB01306E003F6
:104E500081451385A14BEFD07FB4034714008347EE
:104E600024009384814B9306A0FAA380E40023805E
:104E7000D4001307000B6369F70413978701618758
:104E8000634507021387F7FF1377F70FBD4663EDFE
:104E9000E6084147636AF7081767000013078707AA
:104EA0008A07BA979C43BA97828793C70708130764
:104EB0000003636BF706176700001307E7098A070B
:104EC000BA979C43BA9782871307200E6389E70637
:104ED0006373F7021307300E6398E7049307301EDD
:104EE00013060004A68511452391F400238401884C
:104EF000EF30900291BF1307000E6388E70013079D
:104F0000100E6393E702413581B7834744001307CE
:104F1000001E2391E400638B072C0547638FE72273
:104F2000FD57A381F4000DB7FD57130600049385C8
:104F3000814B11452391F400EF30007E31B7854756
:104F40002384F188130600049307201EA6851145CB
:104F50002391F400EF30407CC5BD1385C14BBD35B6
:104F600093070011130600049385814B114523918B
:104F7000F400EF30607AC9BD0347440091472381B4
:104F8000F40085469307F00F63E7E60083A781816D
:104F90002384E7008547130600049385814B114560
:104FA000A381F400EF30407745B583A7818183C7A3
:104FB000870013073010130600049385814B1145B9
:104FC0002391E4002382F400EF300075B5BD034760
:104FD000440083A78181130600042383E70093859F
:104FE000814B9307201011452391F400EF30C072DC
:104FF000A1BD83A7818183C7670013071010130623
:1050000000049385814B11452391E4002382F40031
:10501000EF30807015BDEFF07F9C930700181306EA
:1050200000049385814B11452391F400EF30C06E4D
:1050300021BD034544009307F00F83488400834556
:1050400094000347A4006302F52A9306000F034867
:1050500054006307D5306304F828AE864686C285BF
:10506000EF00702E9307001B130600049385814BFD
:1050700011452391F400EF30206AF9B3EF2030603E
:105080002A84EF20705F9317040113170501C18371
:10509000D98F130600041307101A9385814B11450D
:1050A0002391E400DCC0EF30206779BBEF207075FE
:1050B0009307001A130600049385814B1145239131
:1050C000F400EF30606549B383A7818183C6370060
:1050D00003C6270003C7470083C75700A206D18E27
:1050E0004207558FE207D98FDCC0130600049307EF
:1050F00010199385814B11452391F400EF30C06165
:10510000A1B383454400034654008346640003472B
:10511000740083A781812381B700A381C700238204
:10512000D700A382E70013060004930700199385B4
:10513000814B11452391F400EF30005E31B3EFF065
:105140009F8C93071018130600049385814B11451B
:105150002391F400EF30405CC5B983455400054508
:1051600093D6250013D61500858A058A8589EF0018
:105170003025834564000D4593D6250013D61500D0
:10518000858A058A8589EF00B0238345740015451B
:1051900093D6250013D61500858A058A8589EF00E8
:1051A000302283458400014593D6250013D615008F
:1051B000858A058A8589EF00B020834594000945DA
:1051C00093D6250013D61500858A058A8589EF00B8
:1051D000301F8345A400114593D6250013D6150032
:1051E000858A058A8589EF00B01DB9B90347740027
:1051F000834664000346540081450545EF00B01422
:105200000347A40083469400034684008545054572
:10521000EF0070130347D4008346C4000346B40074
:1052200089450545EF003012034704018346F40029
:105230000346E4008D450545EF00F01003473401B7
:10524000834624010346140191450545EF00B00F44
:1052500003476401834654010346440195450545CF
:10526000EF00700E034794018346840103467401E6
:1052700081450145EF00300D0347C4018346B40169
:105280000346A40185450145EF00F00B0347F401F7
:105290008346E4010346D40189450145EF00B00A85
:1052A0000347240283461402034604028D45014548
:1052B000EF00700903475402834644020346340258
:1052C00091450145EF00300803478402834674028C
:1052D0000346640295450145EF00F006B5B62E86FB
:1052E000BA86C685EF00B00DB5BB3A864685EF009D
:1052F000F00C8346A40003469400834584000545D2
:10530000EF00100C8346A4000346940083458400FC
:105310000D45EF00F00A8346A40003469400834540
:1053200084001545EF00D0098346A400034694008D
:10533000834584000145EF00B0088346A40003467E
:105340009400834584000945EF0090078346A4003C
:1053500003469400834584001145EF00700619B39D
:105360002E86BA86C6854285EF009005E5B983A7EB
:10537000818103C7670085476303F70082809387B5
:10538000C1541387C1581388C1588843CC439047F0
:10539000D44708C34CC310C754C7C1074107E3969D
:1053A00007FF130600049385C15805456F30C036CA
:1053B000EFD26FD69387C15C83C6070041476386EF
:1053C000E600EF20705F6FD04FD803C717008D46FF
:1053D0006301D70A63EDE60085476305F70A89474D
:1053E000E311F7FE93070003A386F156D9BF914658
:1053F000E319D7FC83C4270003C7370083C64700DF
:10540000C20493178700DD8CD58C17640000130449
:10541000E4C005499D498346B4000346A400834582
:1054200094001305F9FFB3D6D40033D6C400B3D526
:10543000B400858A058A85891375F50FEF004078D9
:105440008346240003461400834504004A85B3D6EE
:10545000D40033D6C400B3D5B4000909858A058ABF
:1054600085891379F90FEF00A0750D04E31539FB59
:1054700089BFA3860156A382015623930156238434
:10548000015681B71384118203450400930700037A
:10549000A386F156EF20B04495451705000013058B
:1054A00045EDEF20703B2300A40021BFEFD24FC891
:1054B00083C7E188B9E71306E00281451385E15906
:1054C000EFD0CFCD9387815383A8070003A847006F
:1054D0009447D84783D707019385C1584946054566
:1054E00023A0150123A2050194C5D8C52398F50072
:1054F000EF30802209E585472387F18801456FD089
:105500006FC593874182984383C747009385C158ED
:1055100023A8015823AA01581546054523AC015874
:1055200023AE015823A0015A23A2015A23A4015AF1
:1055300023A6015A23A8015A23AA015A23AC015ACF
:1055400023AE015A23A0015C23A2015C23A4015CC9
:1055500098C12382F500EF30201C55F12387018884
:10556000014571BFEFD2CFBC83A7818183C767009C
:1055700009476389E7020D47638FE70805476382A0
:10558000E7041384018203450400EF20503785456A
:1055900017050000130545FDEF2050302300A4003F
:1055A0006FD04FBBEFF0FF8869FD13840182034584
:1055B0000400EF20D0341305F00F2300A4006FD0B7
:1055C0006FB91384118203450400EF2050319545D3
:1055D000170500001305E5D9EF2010282300A400CB
:1055E0009387C1541387C1581388C1588843CC434B
:1055F0009047D44708C34CC310C754C7C1074107DD
:10560000E39607FF130600049385C1580545EF3064
:10561000A01025F959BF83C7D18899CB413D35F1F9
:1056200083C7E188D9F3A386018823860188B5BFA3
:1056300023870188A53DE31605F483C7C18889C780
:105640008547A386F18835BF23870188B9BFEFD28C
:105650008FAC83D7018913D787009389C154A38066
:10566000F9002381E900A38401562395015623867E
:105670000156976400009384A49D01443D4922850E
:10568000DD2C05041374F40F19C983C7040083C605
:105690001400CE9703C7D701558FA38EE700890466
:1056A000E31F24FD8397418963C407006FD0EFA9EE
:1056B0003D45D12465DD03C7A90183C7C90105079D
:1056C0008507238DE900238EF9006FD00FA8EFD254
:1056D0008FA483D7018993C7F7FFC207C1831387BC
:1056E000A1888583035607009386418293D587005E
:1056F000A380F6002381B6006303F608854623865F
:10570000D18845468145138591532310F700EFD08A
:10571000EFA813898153930710032300F9009764BE
:1057200000009384E4900144130A0021C149B35757
:105730008A00858B1375F40F85E3352C33078900B8
:1057400001CD8347190003C6040083C61400D18F1E
:10575000A300F9002301D70005048904E31934FDEF
:105760001145112C09E5930730032303F900254562
:10577000192401E59147A305F9006FD00F9D2386F9
:10578000018841B7EFD2CF9AD920E52A9387618962
:1057900083D407002390A7002A84B3479500239A57
:1057A000F188EF20404BEF20806D138721899347CC
:1057B000F5FFC20783560700C1832398F1886383EE
:1057C000F6022310F700EF20301F83A7818183C7E3
:1057D000670005476380E7020D47638BE700593395
:1057E0006FD04F972310D700E31F94FC6FD08F9694
:1057F000F93DF5B7A93DE5B7931715001387C161CA
:105800003E979386C16383570700AA9603C6060096
:1058100086078D46D18FC207C1832310F7006381AD
:10582000D70241679306F7FF638CD7007117638334
:10583000E70091E79387C160AA97238007008280E1
:105840009387C160AA9705472380E7008280EFD243
:105850002F8B37140140854513050480EFD0FF9E40
:10586000B94513050480EFD0DF9C371B0140930539
:105870000040130504C0938AC163EFD09F9B81440D
:10588000214A13090BC08D49154C914C054D930BC2
:105890000B802945EFD08F91D68D0144B3158A0036
:1058A000C205C1814A85EFD09F961335150023802C
:1058B000AD000504950DE31334FF8504850A638567
:1058C000840763823405638694036385A409914544
:1058D00013050B80EFD07F97AD4513050B80EFD0FC
:1058E0005F959305004013050BC0EFD09F9489444A
:1058F0004DB74A8593050040EFD03F95BD455E8585
:10590000EFD03F9379B713050B80A145EFD0FF93FC
:1059100013050B809D45EFD0DF91930500401305E3
:105920000BC0EFD01F91B5B7C14513050B80EFD069
:105930001F8E133515009387C163A387A700014409
:10594000C144228505041374F40F7D35E31B94FED6
:105950006FC0DFFE13050B808945EFD01F8F130545
:105960000B80B545EFD0FF8C9305004013050BC0AD
:10597000EFD03F8C39BF9387C160AA9703C507005A
:1059800082809386C16081470145414603C7060076
:1059900085063317F700598D420585074181E39746
:1059A000C7FE8280C205D18D220533E6A50097CEC1
:1059B000FF1F938E6E1D014E97B2FF1F9382426FA1
:1059C000930FD039FD551303D0340D4FB308FE03A8
:1059D0007688154596982320C800B386A8005D47B1
:1059E000B357E600858BFD1793F7A7FB938737071F
:1059F0002380F6007D178506E314B7FE61051108C4
:105A0000E31B65FC050E938ECE08E311EEFD82804C
:105A10001308C008330805031307D0394206A2054E
:105A2000558E4D8E1303D034FD55B307E50217C7CD
:105A3000FF1F130767153A9817B7FF1F130747672C
:105A40001545B388E7002320C800B386A8005D474A
:105A5000B357E600858BFD1793F7A7FB93873707AE
:105A60002380F6007D178506E314B7FE6105110853
:105A7000E31B65FC8280EFC2BFEB13050020EFD073
:105A80008FCF19E16FC01FED13050002EFD0AFCE2D
:105A900075D937052000EFD00FCE6DD51305002046
:105AA000EFD04FCE13050002EFD0CFCD3705200049
:105AB000EFD04FCDB7040040138504408145370433
:105AC0000240EFD0BFD5130504038145EFD00FC9C5
:105AD0001305C4018145EFD06FC81305C406814585
:105AE000EFD0CFC7130504039305D039EFD06FC8AB
:105AF0001305C4019305D039EFD0AFC71305C40611
:105B00009305D039EFD0EFC61305C4018545EFD01A
:105B1000EFC4130504038545EFD04FC41305C40635
:105B20008545EFD0AFC3854513850440EFD01FCF27
:105B30006FC05FE2EFC2DFDFEF2020772D3FEFE0A5
:105B40009FDF6FC03FE19307200263F3B7008280BD
:105B50009308D039B3081503131835002A98939782
:105B600015000A08AE973308A84013950601C295A0
:105B7000939637002206B367E5005D8E13972500E4
:105B800097C7FF1F93874700BA979506C69690C39D
:105B900097B7FF1F9387C751BE965D47FD55B35713
:105BA000E600858BFD1793F7A7FB938737072380C4
:105BB000F6007D178506E314B7FE8280E5B389BD44
:105BC0003336C0000606B337D000B335B000D18FEE
:105BD0008A0593868189CD8F36952300F50001468D
:105BE000BD47F55503C7060085063317F700F517BF
:105BF000598EE399B7FE328523A0C18A6FE07FD723
:105C00009387019103C8270103C3170183C5370197
:105C100003C7470103C66701220883C8570183C62B
:105C2000770133686800C205B3E5050183C78701C2
:105C300062074D8F2206034817008345270033660D
:105C4000160103473700C206D18EE207D58F9306AF
:105C500065002380D700A38007012381B700A381BB
:105C6000E70023820700A382A700828097A7FF1F77
:105C700083C7873A81E789472388F18A82808D47E5
:105C800063F4A70617C7FF1F1307470A83470700D8
:105C900083461700D58FB9E7834627009307F00F97
:105CA0006392F6048347370083464700BE9693F617
:105CB000F60F8DEAF91793F7F70FA301F700636565
:105CC000F5020346570085059306500D93F5F50F31
:105CD000631AD600034767006316B70013950701E0
:105CE000418582807555828071558280EFC25FC484
:105CF00017A4FF1F13040432034534008947397188
:105D00002300F1009307F00F6307F500EF20203F19
:105D1000FD57A301F400930730209305803E17053B
:105D20000000130525252310F400EF20203797A746
:105D3000FF1F9387A72F83C6970003C6870003C75B
:105D4000A70083C7B700A206D18E4207558FE2078E
:105D5000A301A400D98F0A85814601468545829713
:105D600021616FC03FBFEFC2BFBC17A4FF1F130468
:105D7000642A034534009307401139713EC09307EC
:105D8000F00F6307F500EF208037FD57A301F40003
:105D90008565930730109385853817050000130536
:105DA000651D2310F400EF20602F97A7FF1F938736
:105DB000E72783C6970003C6870003C7A70083C7EA
:105DC000B700A206D18E4207558FE207A301A400B7
:105DD000D98F0A85814601469145829721616FC01E
:105DE0007FB7EFC2FFB417A4FF1F1304A422B707A5
:105DF000FF01397193872753034534003EC0C147E3
:105E00002302F1009307F00F6307F500EF20202F26
:105E1000FD57A301F400930730309305803E17052A
:105E20000000130525152310F400EF20202797A765
:105E3000FF1F9387A71F83C6970003C6870003C76A
:105E4000A70083C7B700A206D18E4207558FE2078D
:105E5000A301A400D98F0A85814601469545829702
:105E600021616FC03FAFEFC21FAB9387019183C524
:105E7000670103C6270103C3570183C6770183C89F
:105E8000170103C7370103C4870183C4470117A95A
:105E9000FF1F13092918A2052206034819009317AA
:105EA0000701B3E56500C20633661601CD8E6204B4
:105EB000D18FE2042547AA89558CDD8C6302E80462
:105EC00083C7340083C6140003C724001946230087
:105ED000C400A301F400A300D4002301E40003459F
:105EE000390085472300F900A3020400230234018E
:105EF0009307F00F6315F506EFE04FA26FC0FFA404
:105F0000EFE01FBE55DD0145EFE05FBE17A6FF1FA6
:105F10001306261197A5FF1F938525102285EFE014
:105F20009FCC03C6140083C6240003C73400930526
:105F300065002300B400A300C4002301D400A30122
:105F4000E400AA8703453900A302F4008547230033
:105F5000F900230204009307F00FE30FF5F8EF2098
:105F6000001AFD57A301F900EFE04F9B6FC0FF9DA2
:105F7000EFC21F9C138401910346240183466401F0
:105F800083481401034734010348540183477401D3
:105F9000034944018344840197A5FF1F9385850726
:105FA0002206A20603C50500B3E606013366160104
:105FB0004207C207D58F518F6209E20495463369C3
:105FC000E900DD8C630BD50483C715001D472380D2
:105FD000E5002947636BF7001757000013074709CF
:105FE0008A07BA979C43BA978287834739008346CA
:105FF0001900034729001946A381F4008D47238027
:10600000C400A380D4002381E400A382040023827F
:10601000F400EFE0AF906FC0FF9385472380F50059
:106020006FC05F93834739008346190003472900F7
:106030001D46A381F40085472380C400A380D400BB
:106040002381E40023820400A382F400238304005C
:10605000EFE0CF8C6FC01F90834739008346190053
:10606000034729001946A381F40085472380C40013
:10607000A380D4002381E400A38204002382F400DF
:10608000EFE0CF896FC01F8DEFE09FA56301050E84
:106090000145EFE0BFA517A6FF1F130686F897A5D9
:1060A000FF1F938585F72685EFE0FFB303482401A2
:1060B00083471401834534010347440103466401C7
:1060C000220803435401834674013368F800C20573
:1060D00083478401B3E5050162074D8F220683489B
:1060E000170003482700834537003366660013977F
:1060F0000601518FE207D98F130765002380E7005F
:10610000A380170123810701A381B7002382070021
:10611000A382A700EFE08F80FDBD83C7018BE39AC8
:1061200007EEEFF0BFBCF5B583C7018BE39307EE35
:10613000EFF03FCBF9BD8347390083461900034791
:106140002900A381F400B1474946A382F4008547A2
:106150002380C400A380D4002381E40023880400AA
:10616000A38804002382F400EFD05FFB6DB50347E2
:10617000A90123880400A38804002389E4000348BC
:1061800024018347140103453401834644018345B8
:106190006401220803435401034674013368F80084
:1061A00042058347840133650501E206C98EA205D5
:1061B00083C8160003C8260003C53600B3E5650092
:1061C000931606011207CD8E1377F70FE207D58FCE
:1061D0009306370135072380D700A3801701238159
:1061E0000701A381A70023820700A382E700EFD065
:1061F000FFF215B5EFC2CFF317A4FF1F130404E39A
:1062000083461400034604000347240083473400F8
:10621000A206D18E420717A6FF1F1306A6DF558FD1
:10622000E207FD56A301D600D98F2302060082970C
:1062300083465400034644000347640083477400C8
:10624000A206D18E4207558FE207D98F8297930518
:106250004006170500001305A5A9EF10306493054B
:10626000800C17050000130505B8EF103063930587
:10627000C01217050000130545AFEF1030629305FB
:10628000007D170500001305A59EEF1030616FC05B
:106290006FECEFC2EFE917A4FF1F1304A4D78347E5
:1062A0003400397113072013C98D2310E100230135
:1062B000B1001307F00F6388E7003E85EF103064EC
:1062C000FD57A301F400930730409305803E170566
:1062D0000000130525CA2310F400EF10305C97A7C7
:1062E000FF1F9387A7D483C6970003C6870003C701
:1062F000A70083C7B700A206D18E4207558FE207D9
:10630000A301A400D98F0A85814601468D45829755
:1063100021616FC02FE4EFC2AFE183475700834E86
:106320000700034E17000343270083483700034844
:106330004700B336D0001376F60F397122069386E4
:106340000606D18E130700142E862E84AA85130507
:10635000A100A304F10097A4FF1F9384A4CB2310F2
:10636000E1002311D1002302D101A302C1012303C3
:106370006100A303110123040101EFC06FDE03C517
:1063800034009307F00F6307F500EF105057FD57E7
:10639000A381F400930730609305803E1705000049
:1063A000130545BD2390F400EF10504F97A7FF1F32
:1063B0009387C7C783C6970003C6870003C7A70094
:1063C00083C7B700A206D18E4207558F9305A4005C
:1063D000E207A381A400D98F0A858146014693F57F
:1063E000F50F829721616FC0EFD6EFC26FD417A46B
:1063F000FF1F130424C239711307001483473400AC
:106400002310E100130700032301E100A301A10011
:106410001307F00F6388E7003E85EF10504EFD57DD
:10642000A301F400930730709305803E1705000028
:10643000130545B42310F400EF10504697A7FF1F33
:106440009387C7BE83C6970003C6870003C7A7000C
:1064500083C7B700A206D18E4207558FE207A3017A
:10646000A400D98F0A858146014691458297216112
:106470006FC04FCEEFC2CFCB935785001317850067
:1064800017A4FF1F130404B95D8F03453400C167CF
:1064900039719387A7143EC02312E1002303B10092
:1064A000A30301009307F00FB2846307F500EF1018
:1064B0001045FD57A301F4008567A68593873780B3
:1064C00017050000130505AB2310F400EF10103D75
:1064D00097A7FF1F938787B583C6970003C68700DA
:1064E00003C7A70083C7B700A206D18E4207558F06
:1064F000E207A301A400D98F0A8581460146A14580
:10650000829721616FC00FC5EFC28FC239711384AA
:10651000518AEFE06FD583470400A5CF97A4FF1FF2
:10652000938444AF03C534009307A0142310F100F3
:10653000230101009307F00F6319F506930730500C
:106540009305803E170500001305C5A22390F400B3
:10655000EF10D03497A7FF1F938747AD83C69700EE
:1065600003C6870003C7A70083C7B700A206D18E62
:106570004207558FE207A381A400D98F0A8581467F
:1065800001468D45829781472300F40021616FC049
:106590006FBC41651306803E85457D15E13D85470D
:1065A0002300F40021616FC0EFBAEF105035FD57A2
:1065B000A381F40061B71D71A2CCA6CAD6C286CE53
:1065C000CAC8CEC6D2C4801097AAFF1F938A8AA4D5
:1065D0002A83C14703C53A008A8463E76718914755
:1065E000B28863E3C718330AC300150A060A137A90
:1065F000FA0F13091A0097A7FF1F938707A21379B1
:10660000F90F83C3070083C2170083CF270003CF8E
:10661000370083CE470003CE570003C8670003C688
:1066200077001307F9009377071F3301F1402381A7
:106630001A0199472300F100A300710023015100C2
:10664000A301F1012302E101A302D1012303C1014E
:10665000A30301012304C100A30461008A89630F1D
:1066600003121316130029069307A1000A9603D7F5
:1066700005008907890513588700A38F07FF238F1B
:10668000E7FEE396C7FE93151300A90593F5F50FF2
:106690003387B900938715002300170193F7F70F8D
:1066A000638C080286088508C69593F5F50F03D616
:1066B0000600138717003388F9001377F70F9358F4
:1066C00086002300180189074E9793F7F70F2300E0
:1066D000C7008906E39DB7FC9307F00F6310F50828
:1066E0008567938737909305803E17050000130553
:1066F00065882390FA00EF10701A97A7FF1F938701
:10670000E79283C6970083C5870003C7A70083C7A6
:10671000B70003C65A00A206CD8E4207558FE20786
:1067200093060004090AA381AA002300D4FAA30057
:10673000C4FA230144FBD98FCA864E868D451305C2
:1067400004FA82972681130104FAF6406644D6447F
:106750004649B649264A964A25618280EF10301A8A
:10676000FD57A381FA00ADBF9307F00F6312F50246
:10677000856793877790814517F5FFFF1305857F20
:106780002390FA00EF109011A381AA00268165BF23
:10679000EF10F016FD57A381FA00D9BFA945CDBD72
:1067A000EFC26F9797A7FF1F9387478813840191C4
:1067B00003C8D70003CFC70003C6E7000345240181
:1067C00083456401834E140183463401034E540112
:1067D0000347740183C7F7000343440183488401DE
:1067E00022083368E8012205A20542063365D50177
:1067F000B3E5C501336606019389418AC2064207A3
:10680000E2074D8FC98E62031398880117B5FF1FE9
:106810001305C5514111D18FCE85B364E8003369AA
:10682000D3002382018A829703C5090009CD179AF4
:10683000FF1F130A2A7E83470A000D476388E7007B
:106840001147638BE70041016FC02F9091472300F0
:10685000FA00954763E0A70283471A002947E364DB
:10686000F7FE17570000130767838A07BA979C4300
:10687000BA97828797B7FF1F9387474B03C6470096
:1068800003C727009306F00F83C50700718F03C865
:10689000170003C63700E311D7FC83C65700B3E5E2
:1068A00005013367B600558F45FB930AA5FF568651
:1068B00097B5FF1F9385E5473E85EFC0CF8B13F556
:1068C000FA0F2380A90041D141BF93050004EFF0E6
:1068D0000FBB6343051203453A0095472300FA00B6
:1068E0009307F00F6307F500EF107001FD57A30148
:1068F000FA008345240103456401034814018346DB
:10690000340183485401034674010347440183471B
:106910008401A205B3E505012205C2063365150110
:10692000CD8E42066207558F498EE20783451700D8
:1069300083463700D18F034627003147A382E70003
:1069400003C7540049452380A700A380B7002381D3
:10695000C700A381D7002382070023880400A388EF
:1069600004002383E400EFD06FFBF1BD9305000426
:10697000EFF0EFB06342050897B9FF1F9389093B19
:1069800083C7790093F7F7039DE79307F5FF03C7E4
:106990008900C207C1876391E70603472A00FD17F4
:1069A00012073107639AE70483C7290103C7390136
:1069B000D98F638E07500545EFF0EFCA69B593058F
:1069C000A004EFF0CFABE34805FE97B9FF1F938912
:1069D000E93583C77900638A072C0547E39DE7FC07
:1069E00003C9990003C789009307E9FEA302EA00DF
:1069F00093F7D70F638007341145EFF0CFC6A1B5E9
:106A000093050004EFF0AFA7E34805FE97B7FF1F1B
:106A100083C73732CDF303453A0095472300FA0088
:106A20009307F00F6307F500EF10606DFD57A301AA
:106A3000FA000345240183471401834534010347C9
:106A40004401034664012205034354018346740153
:106A50005D8DC20583478401C98D62074D8F220673
:106A60008348170003482700034537003366660054
:106A700013970601518FE207D98F59472380E7000A
:106A80004147A381A700414697B5FF1F9385852AFB
:106A9000A38017012381070123820700A382E70057
:106AA00013856400EFB0DFEBEFD04FE769BB9305D0
:106AB0000004EFF0CF9CE34105F497B7FF1F83C7B5
:106AC0005727E39A07EE03453A0095472300FA005B
:106AD0009307F00F6307F500EF106062FD57A30105
:106AE000FA00034524018347140183453401034719
:106AF000440103466401220583485401834674011E
:106B00005D8DC20583478401C98D62074D8F2206C2
:106B100003481700034527008345370033661601F5
:106B200013970601518FE207D98F19472380E70099
:106B3000A38007012381A700A381B7002382070058
:106B4000A3820700EFD08FDDFDB99305A004EFF01D
:106B50000F93E34205E603453A0095472300FA0008
:106B60009307F00F6307F500EF106059FD57A3017D
:106B7000FA0097B9FF1F9389691B83C77900638463
:106B8000071403C739009547E3F8E7E603452401F6
:106B900083471401834534010347440103466401DC
:106BA000220583467401834854015D8DC2058347E5
:106BB0008401C98D62074D8F2206034817000345E3
:106BC0002700834537003366160113970601518F5E
:106BD000E207D98F35472380E7001D47A3800701CF
:106BE0002381A700A381B70023820700A382E700C7
:106BF00003C7C90083C739002384E4009306570004
:106C0000E3DCF6DE814705C33387F9008346D7000E
:106C10003387F4008507A304D70003C7C90093F79F
:106C2000F70FE3E3E7FE85472383F400C147A3831F
:106C3000F400EFD0AFCE01B993052003EFF02F841D
:106C4000E34C05DA03453A0095472300FA00930721
:106C5000F00FE30AF5BEEF10804AFD57A301FA00DA
:106C6000DDB693052003EFF08F81E34705D8034598
:106C70003A0095472300FA009307F00F6307F500E9
:106C8000EF10E047FD57A301FA0085472302FA0001
:106C90005DBE8945EFE0BFFEE35B05FCB1BBD145BE
:106CA000EFE0FFFDE35505FC81BB03453A00954746
:106CB0002300FA009307F00F6307F500EF1020445C
:106CC000FD57A301FA0003452401834714018345BE
:106CD00034010347440103466401220583485401FB
:106CE000834674015D8DC20583478401C98D6207A7
:106CF0004D8F2206034817000345270083453700C0
:106D00003366160113970601518FE207D98F1D478D
:106D10002380E7000547A38007012381A700A38103
:106D2000B70023820700A382E70023830400EFD08B
:106D3000EFBE11BE03453A0095472300FA009307C2
:106D4000F00F6307F500EF10803BFD57A301FA0039
:106D500097B7FF1F938787FD1387940017B6FF1F10
:106D6000130646FD83C6B70085070507A30FD7FEA8
:106D700083C62701A303D700E396C7FE83C8140187
:106D800003C8240103C5340183C5440103C654016B
:106D900083C6640103C7740183C7840123071A01F2
:106DA000A3070A012308AA00A308BA002309CA00FE
:106DB000A309DA00230AEA00A30AFA0083C89400B0
:106DC00003C8A40003C5B40083C5C40003C6D4002F
:106DD00083C6E40003C7F40083C7040123031A0138
:106DE0002306EA00A306FA00A3030A012304AA006B
:106DF000A304BA002305CA00A305DA00514781475E
:106E00006318E90083C7C90103C7B901A207D98F75
:106E10009795FF1F938565211795FF1F1305E51FA4
:106E2000231BFA00EFD0BFC40DC1AD472316F100FC
:106E300013873401E1779306E10005466C000545B0
:106E40002317F100EFF02FF7FDBA1796FF1F130677
:106E5000461D9795FF1F9385451C2685EFD0BFD80B
:106E60000348240183471401834534010347440147
:106E700003466401220803435401834674013368C6
:106E8000F800C20583478401B3E5050162074D8F11
:106E900022068348170003482700834537003366DE
:106EA000660013970601518FE207D98F130765001B
:106EB0002380E700A380170123810701A381B70086
:106EC00023820700A382A700EFD04FA5ADBA0345E8
:106ED0003A0095472300FA009307F00F6307F50087
:106EE000EF10E021FD57A301FA0083472A0085CF68
:106EF00055469207058E9386040133859700A68533
:106F00001376F60F2E87B307E60093F7F70FCE97A9
:106F100083C7070005072309F700E316D7FEC1055D
:106F2000C106E311B5FEEFD0BFBB0DC5138534011B
:106F3000EFD0DFBB1796FF1F1306A60E9795FF1F16
:106F40009385A50D2685EFD01FCAEFE07FCBEFD04C
:106F5000EF9CD5B88347A90123880400A3880400C7
:106F60001394470035041374F40F2389F400228529
:106F7000EFE01FC923838400EFD04F9AE9B01D7161
:106F8000A2CCCAC8D6C286CEA6CACEC6D2C48010EB
:106F9000979AFF1F938A0A082A88C14703C53A00B7
:106FA0000A8963EB071DA94763E8C71C131A36005B
:106FB000429A329A150A060A137AFA0F93091A00AE
:106FC0009797FF1F9387670593F9F90F83C407000D
:106FD00083C3170083C2270083CF370003CF470046
:106FE00083CE570003CE670003C377009388F90070
:106FF00093F7081F3301F1402381CA00A147A30082
:1070000091002300F10023017100A301510023022C
:10701000F101A302E1012303D101A303C101230470
:107020006100A30401018A8463020818131E18007A
:10703000290E9307A1000A9E83D8050089078905B8
:1070400013D38800A38F67FE238F17FFE396C7FF34
:1070500093151800A90593F5F50F3388B4009387AD
:1070600015002300C80093F7F70F3DCE1318160044
:107070000508C29593F8F50FBE8503D30600138863
:107080001500338EB4001378F80F935E830023004D
:10709000DE018905269893F5F50F2300680089061F
:1070A000E39D15FD9306F6FF8606B69793F7F70F57
:1070B000998F9315460013862700BA869308070117
:1070C0001376F60F2E97B68503C80500B307B600F2
:1070D00093F7F70FA697238007018505E396B8FE7F
:1070E000C106C108E391E6FE9307F00F6310F508AF
:1070F0008567938737A09305803E17F5FFFF13053B
:1071000065E72390FA00EF0070799797FF1F938748
:10711000E7F183C6970083C5870003C7A70083C72D
:10712000B70003C65A00A206CD8E4207558FE2076C
:1071300093060004090AA381AA002300D4FAA3003D
:10714000C4FA230144FBD98FCE8626868D451305CC
:1071500004FA82974A81130104FAF6406644D64441
:107160004649B649264A964A25618280EF00307921
:10717000FD57A381FA00ADBF9307F00F6312F5022C
:107180008567938777A0814517F5FFFF130585DE97
:107190002390FA00EF009070A381AA004A8165BF96
:1071A000EF00F075FD57A381FA00D9BFA94575B569
:1071B000EFB20FF8138501918345250103471501AF
:1071C0008346350183474501A20503466501D98DF4
:1071D000C2068340550103477501CD8EE207834502
:1071E0008501D58F1798FF1F1308C8E283436800F5
:1071F00083427800834F8800034F9800834EA80095
:10720000034EB8000343C8008348D80083C6E70094
:107210002206336616004207518F13968501518F5F
:10722000A38277001386160023835700A383F701F8
:107230002384E701A384D7012385C701A3856700C1
:1072400023861701A303C700214641116385C60E9B
:107250006378D608B1476382F6129307400A639EAB
:10726000F6188348250183471501034835018346F5
:10727000450183456501A208034355010346750195
:10728000B3E8F800420883478501E2063365180138
:10729000C98EA20583C8160003C8260003C53600A0
:1072A000B3E5650093160601CD8EE207D58FC5467E
:1072B0002380D700AD46A380170123810701A38156
:1072C000A70023820700A382D70023080700834773
:1072D00057002303F700EFC07FE441016FB08FE751
:1072E000638406181946639AC61083C6970183C53E
:1072F000870103C6A701A206CD8E2313D1009318E0
:10730000160034003685BE9811CE83C5B70103C878
:10731000C7018907A205B3E505012310B5000905DA
:10732000E39517FF930561004D070545EFF0AFA802
:1073300041016FB02FE203C7C70103C6B70103C8FD
:10734000970183C687012207518F9318870022086F
:1073500021833368D800B3E8E80034009305610066
:107360001387D70105460545231301012314110195
:10737000EFF0FFC041016FB0EFDD0343250183470C
:107380001501834835018346450183456501220384
:10739000034E5501034675013363F300C20883476A
:1073A0008501E20633E56800C98EA20503C3160015
:1073B00083C8260003C53600B3E5C5019316060150
:1073C000CD8EE207D58FCD462380D700B546A3806A
:1073D000670023811701A381A70023820700A382EE
:1073E000D70085472308F70083476801A308F70003
:1073F000834778012309F700D9BD834825018347D6
:107400001501034835018346450183456501A208FE
:107410000343550103467501B3E8F800420883476A
:107420008501E20633651801C98EA20583C81600DE
:1074300003C8260003C53600B3E5650093160601B0
:10744000CD8EE207D58F99462380D700A380170100
:1074500023810701A381A70023820700A3820700DD
:107460008D472302F700A5B5034325018347150186
:107470008348350183464501834565012203034E58
:107480005501034675013363F300C2088347850144
:10749000E20633E56800C98EA20503C3160083C85F
:1074A000260003C53600B3E5C50193160601CD8E4F
:1074B000E207D58FE9462380D700D146A380670035
:1074C00023811701A381A70023820700A382D7008D
:1074D0008346680183477801230CD700A30CF7008B
:1074E000FDB3EFB2EFC479718545116502CA02CCD4
:1074F00002CE02D002D202D402D602C602C8EFC027
:107500000F9985451145EFC08F98371401409307B7
:1075100000200D494C0813050480231AF100E147AF
:107520004ACC3ECEEFB03FBA930700404C0813055B
:107530000480231AF10091473ECEEFB0DFB89307E5
:1075400000104C0813050480231AF100C1473ECEF9
:107550004ACCEFB05FB7F167B7440140938707208B
:107560000C10138504803ED0B7070C003ED42316C0
:10757000010202D2EFC0CFC81385048005469305EF
:107580005052EFC06FD905469305404213850480E1
:10759000EFC08FD89307501368002316F10085477A
:1075A0003EC823070100EFB0BFEE13850480854578
:1075B000EFC0CFD49305001013050480EFB07FC750
:1075C00045616FB02FB9EFB2AFB697370000938720
:1075D000E7EC8C43D043944703D7C70083C7E70049
:1075E0004111374401402EC032C236C42316E10097
:1075F0002307F1008A841309F1001304048083C572
:1076000004002285EFC0EFD4930500082285EFC067
:107610008FD57DD98504E39424FF41016FB08FB3EA
:10762000EFB26FAF83470500AA8437450140AE8AA9
:10763000130505808145B74901403289368AA38800
:10764000F18A2A84EFC0EFD0930500082285EFC0AD
:107650008FD17DD9138509808145B7490140EFC09D
:107660004FCF13840980930500082285EFC0AFCF68
:107670007DD9138509809305F00FB7490140EFC00C
:107680004FCD13840980930500082285EFC0AFCD4C
:107690007DD9B3874A0193F7F70F938517001385B8
:1076A000098093C7F7FF374B014093F5F50F93F926
:1076B000F70F13040B80EFC0CFC993050008228594
:1076C000EFC06FCA7DD9CE8513050B80B749014045
:1076D000EFC02FC813840980930500082285EFC0EE
:1076E0008FC87DD99305400D13850980374401402B
:1076F000EFC02FC613040480930500082285EFC055
:107700008FC67DD9638B0A0A37440140A69A930934
:10771000400D1304048083C504002285EFC06FC3AD
:10772000930500082285EFC00FC47DD983C70400EC
:107730008504CE9793F9F70FE39F54FD630A0A027D
:10774000374401404A9A1304048083450900228586
:10775000EFC02FC0930500082285EFC0CFC07DD9B0
:10776000834709000509CE9793F9F70FE31F2AFD18
:10777000B30530413745014093F5F50F13050580FA
:10778000B7440140EFC0EFBC1384048093050008A8
:107790002285EFC04FBD7DD98145138504803744D4
:1077A0000140EFC00FBB130404809305000822853D
:1077B000EFC06FBB7DD96FB04F999309400DBDBF2E
:1077C000411122C6374401409305505213050480ED
:1077D000EFC02FBA49E91384018B034704008547A2
:1077E0006316F700324441017300203037440140F2
:1077F0009305404213050480EFC0AFB765D503572A
:1078000004808357448083C7618A6393070C03C74E
:10781000918A9387C18A3E97834607001387918A8E
:10782000C5CE03C6718A89469385718A63F7C60CF3
:1078300083C6818A85062384D18A03C6818A8D46C0
:1078400063F4C6002384018A834607000D4685063B
:1078500093F6F60F2300D70083460700637ED60613
:10786000A384018A95A813050480EFC02FAF83C7B6
:10787000018B85461375F50F1384018B6389D70639
:1078800083C7618AB9FB03C7918A9387C18A3E97F0
:10789000034607001387918A93158601E1851376C5
:1078A000F60F63C90504834507008346070017A741
:1078B000FF1F1307A74F9E052E97930516003297BB
:1078C000B69713F6F50F2300A7002380C70031B742
:1078D0001387918A9387C18A03470700BA97238049
:1078E000070032442383018A410173002030EFC036
:1078F0002FC0E5B52383D18ACDB583C605008506A3
:1079000093F6F60F2380D50081B7EFB2CF803744CE
:107910000140AA892E89014693055052130504801F
:10792000EFC08F9F03C7018B85479384018B630949
:10793000F70001469305404213050480EFC0CF9D38
:1079400003C4718A1387718A41C083C6818A939761
:10795000760017A6FF1F13066645B29723A0F9000D
:107960009387C18AB69783C707008D462300F90025
:1079700083C7818A85072384F18A83C7818A63F458
:10798000F6002384018A83470700374401400546F7
:10799000FD1793F7F70F930550521305048023004A
:1079A000F700EFC06F9703C7040085476316F70021
:1079B000054422856FA07FF90546930540421305D3
:1079C0000480EFC06F95EDB7374901400546930538
:1079D000505213050980EFC02F9403C70400854758
:1079E000E309F7FC05469305404213050980EFC003
:1079F000AF92C1B7EFA23FF24111AA8A2E8A9384B7
:107A0000018B89499305B1006800EFF01FF01DC597
:107A100083C704006387370383C70400E5F7034483
:107A2000B100B24556852286EFA09FF39305B100C1
:107A300023008A006800EFF05FED79F941016FA043
:107A4000DFF00349B100E30F09FA324422990345FC
:107A500004000504EFC0CFA9E31B24FF65B76FF056
:107A60007FF9EFA2FFEC01118545116502C002C24A
:107A700002C402C602C802CA02CC231E0100EFB033
:107A8000FFC285452145EFB09FC0371401406149D1
:107A90008D448A85130504C085672310F1004AC40C
:107AA00026C2EFB04FE28A85130504C08967231010
:107AB000F1004AC426C2EFB00FE191678A85130531
:107AC00004C02310F10091473EC4EFB0CFDFE1774F
:107AD0008A85130504C02310F100374400404AC4CE
:107AE00026C2EFB04FDE130504808545EFB09FC777
:107AF000B70704013EC6930700026C00130504801B
:107B00003ECC9D47231EF10002C802CAEFB0FFBB66
:107B10001305048005468945EFB03FC31305048073
:107B200005468545EFB07FC2854513050480EFB05B
:107B3000BFBF05616FA01FE2EFA2FFDD79712A844C
:107B4000AE89054585453289B68402C202C402C6A3
:107B500002C802CA02CC02CE02D002D202D402D69D
:107B6000EFB01FB12285EFB06FB0C1473EC693079B
:107B700000084C003ECC228585674EC24AC426C808
:107B80003ED402CA02CE02D002D202D6EFB00FB962
:107B900045616FA09FDBEFA21FD879712A84AE895F
:107BA000054585453289B68402C202C402C602C8B0
:107BB00002CA02CC02CE02D002D202D402D6EFB068
:107BC0003FAB2285EFB08FAA930700083ECC930706
:107BD00000103ECE930700404C003ED022858567C2
:107BE0004EC24AC426C83ED402C602CA02D202D637
:107BF000EFB0CFB245616FA05FD5EFA2DFD1797151
:107C00002A84AE89054585453289B68402C202C4FC
:107C100002C602C802CA02CC02CE02D002D202D4EC
:107C200002D6EFB0FFA42285EFB04FA4930700085F
:107C30004C003ECC228585674EC24AC426C83ED43D
:107C400002C602CA02CE02D002D202D6EFB00FADF7
:107C500045616FA09FCFEFA2BFCD1387818C1C43DE
:107C600085466388D7008946638ED70EC5CF6FA03F
:107C70007FCE37050200EFB00FB06307051C370554
:107C80000200EFB02FB00965EFB0CFAF374500402D
:107C9000814513050580EFB03FA91385018C03488A
:107CA00045002A879385318C9307F00F1736000023
:107CB00013068641834617000507B58FB29783C721
:107CC0000700E319B7FE93C7F7FF93F7F70F6303B6
:107CD000F81837040240130584058145EFB00FA85A
:107CE000130584059945EFB0CFA813058405854594
:107CF000EFB0CFA6130544048145EFB02FA61305BE
:107D000044049945EFB0EFA6130544048545EFB050
:107D1000EFA437450040854513050580EFB0DFA08F
:107D20006FA05FC39386018C83C7160083C52600AE
:107D300003C6360083C64600CD8FD18FD58F1386FC
:107D4000D18283460600638407129387F6FF93F778
:107D5000F70F2300F600C5EF85471CC3A3860182F9
:107D60006FA05FBF0945EFB00FA1E30205F0094521
:107D7000EFB04FA197A7FF1F9387472517A6FF1FB7
:107D80001306C62C014783D6070089073697E31CE4
:107D9000F6FE198393170701C1878395618C33869B
:107DA000B7008146634E060081CF05659306F5FF57
:107DB0006358A6006386D7002E9793160701C182E9
:107DC0009387E18B2390D70003D707003704024045
:107DD000130584001347F7FF420741832390E70010
:107DE00003D7070081451207420741832390E7002C
:107DF000EFB0CF961305840093058004EFB06F9722
:107E0000854513058400EFB06F956FA0BFB4C146E0
:107E1000E3FFF6E4374500408947130505808145B7
:107E20001CC337040240A3860182EFB0FF8F130505
:107E300084058145EFB08F92814513054404EFB06E
:107E4000EF91EF90E03225B50965EFB0CF92E318DE
:107E500005E231BD8347250003471500A207D98FEE
:107E600013978700A183D98F239FF18A9DB59387AC
:107E7000160093F7F70FF1BD03D5E18B8280938550
:107E8000C18B83D7050003D7E18B93160701D98EE9
:107E900063F9E712B307F74093A7171093C71700CA
:107EA0006396070E1388418B834708009388818B64
:107EB00017A5FF1F1305850F93961700369503A688
:107EC000080003530500938617003A963306664070
:107ED000935736009D8A23A0C8001386218B231058
:107EE000E5002300D800139707018356060041835D
:107EF0002390E500BA876370D70CB387F64093A749
:107F0000170493C7170081C72310E600BA8603A79A
:107F1000818183471700034707004165A207D98F76
:107F2000BE96C206E177C182BE969397160021677E
:107F3000B697BA9703C7C18263DBA70813950701F9
:107F4000418163CE070215EF1386A1828357060095
:107F500063F3A70A3307F54042074183AA86A14588
:107F6000368563FBE5009305000463E5E506B697F7
:107F700085831395070141812310D60082802DC788
:107F800001452395A18223860182828097A7FF1F46
:107F90009387C7011316370094C3D4C394C7D4C7BB
:107FA00023ACC18A1386218B835606002390E500FB
:107FB000BA87E364D7F4958F93A7170493C7170084
:107FC00099B7998F93A7171093C71700D1BD7D1547
:107FD00025DF45BF13953600158D3E950D81420571
:107FE00041812310D60082801386A1828357060028
:107FF00081463E87ADB73387A74042074183AA86B3
:10800000B9BF03D7E18BE177998F139707014183BC
:1080100083A6818121832380F600A380E6008280ED
:10802000411122C637140040854513050480EFB086
:108030009F9A09E532444101730020301305048002
:108040008545EFB01F9B1387C18C1C4332448507C5
:108050001CC34101730020302A8817A7FF1F130794
:1080600067FF814741461443410799C68507E39C52
:10807000C7FE1305F00F82809396470017A7FF1FD6
:108080001307C7FC369713F5F70F85474CC323201A
:1080900007002306F7002324070182802A8817A7F8
:1080A000FF1F130727FB814741461443410799C629
:1080B0008507E39CC7FE1305F00F82809396470067
:1080C00017A7FF1F130787F8369713F5F70F4CC351
:1080D0002320070023060700232407018280BD47D1
:1080E00063EEA700120597A7FF1F938727F6AA97AD
:1080F00023A4070023A2070023A007008280BD4716
:1081000063EEA700120597A7FF1F938727F4AA978E
:1081100023A4070023A2070023A007008280EFA268
:108120003F81371400401305048001468545EFB0B8
:10813000EFF0130504800546854503A9C18C17A4FB
:10814000FF1F1304A4F023A6018C97A4FF1F9384A0
:10815000E4FFEFB0AFEE29A08296410463079402DA
:108160001444E5DE1C405840CA971CC03386E740E3
:10817000E3E5E7FE8347C40010C0F9FF23240400B1
:108180002322040023200400C1BF6FA0AFFCEFA294
:108190002FFAF9572387F18217A4FF1F130404FD58
:1081A00097A4FF1F938484FE1C40110491C38297FF
:1081B000E31C94FE6FA00FFAEFA2EFF59384818188
:1081C0009C4083C6370003C6270003C7470083C708
:1081D0005700A206D18E4207558FE207D98FB1C34F
:1081E0001389E182034509009307E00F630DF5024F
:1081F000EFF0FFF0944017050000130585F903C761
:10820000360003C6260083C7460083C556002207F2
:10821000518FC207D98FE205DD8DEFF03FE82300D3
:10822000A9006FA08FF217A4FF1F130424F297A9CF
:10823000FF1F9389A9F31C40110491C38297E31C8B
:1082400034FFFD572300F9001305F00F55B797A52C
:10825000FF1F9385A5F12E878147214614431107FF
:1082600099C68507E39CC7FE1305F00F828013971C
:108270002700BA9588C113F5F70F828097A5FF1FD5
:108280009385C5EC2E87814721461443110799C673
:108290008507E39CC7FE1305F00F82801397270024
:1082A000BA9588C113F5F70F828083A7818103C730
:1082B000770011C703C767008D476303F70082800B
:1082C000EFA20FE70545EFD00FEB8547630DF50CE7
:1082D0008146014685450545EFD09F8E0945EFD083
